{
  "address": "0xA4D0b216d4F928ff54654B830EdB6F5e536ef63d",
  "abi": [
    {
      "inputs": [
        {
          "internalType": "string",
          "name": "_name",
          "type": "string"
        },
        {
          "internalType": "string",
          "name": "_symbol",
          "type": "string"
        },
        {
          "internalType": "string",
          "name": "_metadata",
          "type": "string"
        },
        {
          "internalType": "address",
          "name": "_wrappedNative",
          "type": "address"
        },
        {
          "internalType": "address",
          "name": "_depositToken",
          "type": "address"
        },
        {
          "internalType": "address",
          "name": "_feeManager",
          "type": "address"
        },
        {
          "internalType": "address",
          "name": "_feeCalculator",
          "type": "address"
        },
        {
          "internalType": "uint256",
          "name": "_minDeposit",
          "type": "uint256"
        },
        {
          "components": [
            {
              "internalType": "address",
              "name": "strategy",
              "type": "address"
            },
            {
              "internalType": "bool",
              "name": "isFortiFi",
              "type": "bool"
            },
            {
              "internalType": "uint16",
              "name": "bps",
              "type": "uint16"
            }
          ],
          "internalType": "struct ISAMS.Strategy[]",
          "name": "_strategies",
          "type": "tuple[]"
        }
      ],
      "stateMutability": "nonpayable",
      "type": "constructor"
    },
    {
      "anonymous": false,
      "inputs": [
        {
          "indexed": true,
          "internalType": "address",
          "name": "depositor",
          "type": "address"
        },
        {
          "indexed": true,
          "internalType": "uint256",
          "name": "tokenId",
          "type": "uint256"
        },
        {
          "indexed": false,
          "internalType": "uint256",
          "name": "amount",
          "type": "uint256"
        },
        {
          "components": [
            {
              "internalType": "uint256",
              "name": "deposit",
              "type": "uint256"
            },
            {
              "components": [
                {
                  "components": [
                    {
                      "internalType": "address",
                      "name": "strategy",
                      "type": "address"
                    },
                    {
                      "internalType": "bool",
                      "name": "isFortiFi",
                      "type": "bool"
                    },
                    {
                      "internalType": "uint16",
                      "name": "bps",
                      "type": "uint16"
                    }
                  ],
                  "internalType": "struct ISAMS.Strategy",
                  "name": "strategy",
                  "type": "tuple"
                },
                {
                  "internalType": "uint256",
                  "name": "receipt",
                  "type": "uint256"
                }
              ],
              "internalType": "struct ISAMS.Position[]",
              "name": "positions",
              "type": "tuple[]"
            }
          ],
          "indexed": false,
          "internalType": "struct ISAMS.TokenInfo",
          "name": "tokenInfo",
          "type": "tuple"
        }
      ],
      "name": "Add",
      "type": "event"
    },
    {
      "anonymous": false,
      "inputs": [
        {
          "indexed": true,
          "internalType": "address",
          "name": "account",
          "type": "address"
        },
        {
          "indexed": true,
          "internalType": "address",
          "name": "operator",
          "type": "address"
        },
        {
          "indexed": false,
          "internalType": "bool",
          "name": "approved",
          "type": "bool"
        }
      ],
      "name": "ApprovalForAll",
      "type": "event"
    },
    {
      "anonymous": false,
      "inputs": [
        {
          "indexed": true,
          "internalType": "address",
          "name": "depositor",
          "type": "address"
        },
        {
          "indexed": true,
          "internalType": "uint256",
          "name": "tokenId",
          "type": "uint256"
        },
        {
          "indexed": false,
          "internalType": "uint256",
          "name": "amount",
          "type": "uint256"
        },
        {
          "components": [
            {
              "internalType": "uint256",
              "name": "deposit",
              "type": "uint256"
            },
            {
              "components": [
                {
                  "components": [
                    {
                      "internalType": "address",
                      "name": "strategy",
                      "type": "address"
                    },
                    {
                      "internalType": "bool",
                      "name": "isFortiFi",
                      "type": "bool"
                    },
                    {
                      "internalType": "uint16",
                      "name": "bps",
                      "type": "uint16"
                    }
                  ],
                  "internalType": "struct ISAMS.Strategy",
                  "name": "strategy",
                  "type": "tuple"
                },
                {
                  "internalType": "uint256",
                  "name": "receipt",
                  "type": "uint256"
                }
              ],
              "internalType": "struct ISAMS.Position[]",
              "name": "positions",
              "type": "tuple[]"
            }
          ],
          "indexed": false,
          "internalType": "struct ISAMS.TokenInfo",
          "name": "tokenInfo",
          "type": "tuple"
        }
      ],
      "name": "Deposit",
      "type": "event"
    },
    {
      "anonymous": false,
      "inputs": [
        {
          "indexed": true,
          "internalType": "address",
          "name": "previousOwner",
          "type": "address"
        },
        {
          "indexed": true,
          "internalType": "address",
          "name": "newOwner",
          "type": "address"
        }
      ],
      "name": "OwnershipTransferred",
      "type": "event"
    },
    {
      "anonymous": false,
      "inputs": [
        {
          "indexed": true,
          "internalType": "uint256",
          "name": "tokenId",
          "type": "uint256"
        },
        {
          "indexed": false,
          "internalType": "uint256",
          "name": "amount",
          "type": "uint256"
        },
        {
          "components": [
            {
              "internalType": "uint256",
              "name": "deposit",
              "type": "uint256"
            },
            {
              "components": [
                {
                  "components": [
                    {
                      "internalType": "address",
                      "name": "strategy",
                      "type": "address"
                    },
                    {
                      "internalType": "bool",
                      "name": "isFortiFi",
                      "type": "bool"
                    },
                    {
                      "internalType": "uint16",
                      "name": "bps",
                      "type": "uint16"
                    }
                  ],
                  "internalType": "struct ISAMS.Strategy",
                  "name": "strategy",
                  "type": "tuple"
                },
                {
                  "internalType": "uint256",
                  "name": "receipt",
                  "type": "uint256"
                }
              ],
              "internalType": "struct ISAMS.Position[]",
              "name": "positions",
              "type": "tuple[]"
            }
          ],
          "indexed": false,
          "internalType": "struct ISAMS.TokenInfo",
          "name": "tokenInfo",
          "type": "tuple"
        }
      ],
      "name": "Rebalance",
      "type": "event"
    },
    {
      "anonymous": false,
      "inputs": [
        {
          "indexed": true,
          "internalType": "address",
          "name": "operator",
          "type": "address"
        },
        {
          "indexed": true,
          "internalType": "address",
          "name": "from",
          "type": "address"
        },
        {
          "indexed": true,
          "internalType": "address",
          "name": "to",
          "type": "address"
        },
        {
          "indexed": false,
          "internalType": "uint256[]",
          "name": "ids",
          "type": "uint256[]"
        },
        {
          "indexed": false,
          "internalType": "uint256[]",
          "name": "values",
          "type": "uint256[]"
        }
      ],
      "name": "TransferBatch",
      "type": "event"
    },
    {
      "anonymous": false,
      "inputs": [
        {
          "indexed": true,
          "internalType": "address",
          "name": "operator",
          "type": "address"
        },
        {
          "indexed": true,
          "internalType": "address",
          "name": "from",
          "type": "address"
        },
        {
          "indexed": true,
          "internalType": "address",
          "name": "to",
          "type": "address"
        },
        {
          "indexed": false,
          "internalType": "uint256",
          "name": "id",
          "type": "uint256"
        },
        {
          "indexed": false,
          "internalType": "uint256",
          "name": "value",
          "type": "uint256"
        }
      ],
      "name": "TransferSingle",
      "type": "event"
    },
    {
      "anonymous": false,
      "inputs": [
        {
          "indexed": false,
          "internalType": "string",
          "name": "value",
          "type": "string"
        },
        {
          "indexed": true,
          "internalType": "uint256",
          "name": "id",
          "type": "uint256"
        }
      ],
      "name": "URI",
      "type": "event"
    },
    {
      "anonymous": false,
      "inputs": [
        {
          "indexed": true,
          "internalType": "address",
          "name": "depositor",
          "type": "address"
        },
        {
          "indexed": true,
          "internalType": "uint256",
          "name": "tokenId",
          "type": "uint256"
        },
        {
          "indexed": false,
          "internalType": "uint256",
          "name": "amountWithdrawn",
          "type": "uint256"
        },
        {
          "indexed": false,
          "internalType": "uint256",
          "name": "profit",
          "type": "uint256"
        },
        {
          "indexed": false,
          "internalType": "uint256",
          "name": "fee",
          "type": "uint256"
        }
      ],
      "name": "Withdrawal",
      "type": "event"
    },
    {
      "inputs": [],
      "name": "BPS",
      "outputs": [
        {
          "internalType": "uint16",
          "name": "",
          "type": "uint16"
        }
      ],
      "stateMutability": "view",
      "type": "function"
    },
    {
      "inputs": [
        {
          "internalType": "uint256",
          "name": "_amount",
          "type": "uint256"
        },
        {
          "internalType": "uint256",
          "name": "_tokenId",
          "type": "uint256"
        }
      ],
      "name": "add",
      "outputs": [
        {
          "components": [
            {
              "internalType": "uint256",
              "name": "deposit",
              "type": "uint256"
            },
            {
              "components": [
                {
                  "components": [
                    {
                      "internalType": "address",
                      "name": "strategy",
                      "type": "address"
                    },
                    {
                      "internalType": "bool",
                      "name": "isFortiFi",
                      "type": "bool"
                    },
                    {
                      "internalType": "uint16",
                      "name": "bps",
                      "type": "uint16"
                    }
                  ],
                  "internalType": "struct ISAMS.Strategy",
                  "name": "strategy",
                  "type": "tuple"
                },
                {
                  "internalType": "uint256",
                  "name": "receipt",
                  "type": "uint256"
                }
              ],
              "internalType": "struct ISAMS.Position[]",
              "name": "positions",
              "type": "tuple[]"
            }
          ],
          "internalType": "struct ISAMS.TokenInfo",
          "name": "_info",
          "type": "tuple"
        }
      ],
      "stateMutability": "nonpayable",
      "type": "function"
    },
    {
      "inputs": [
        {
          "internalType": "address",
          "name": "account",
          "type": "address"
        },
        {
          "internalType": "uint256",
          "name": "id",
          "type": "uint256"
        }
      ],
      "name": "balanceOf",
      "outputs": [
        {
          "internalType": "uint256",
          "name": "",
          "type": "uint256"
        }
      ],
      "stateMutability": "view",
      "type": "function"
    },
    {
      "inputs": [
        {
          "internalType": "address[]",
          "name": "accounts",
          "type": "address[]"
        },
        {
          "internalType": "uint256[]",
          "name": "ids",
          "type": "uint256[]"
        }
      ],
      "name": "balanceOfBatch",
      "outputs": [
        {
          "internalType": "uint256[]",
          "name": "",
          "type": "uint256[]"
        }
      ],
      "stateMutability": "view",
      "type": "function"
    },
    {
      "inputs": [
        {
          "internalType": "uint256",
          "name": "_amount",
          "type": "uint256"
        }
      ],
      "name": "deposit",
      "outputs": [
        {
          "internalType": "uint256",
          "name": "_tokenId",
          "type": "uint256"
        },
        {
          "components": [
            {
              "internalType": "uint256",
              "name": "deposit",
              "type": "uint256"
            },
            {
              "components": [
                {
                  "components": [
                    {
                      "internalType": "address",
                      "name": "strategy",
                      "type": "address"
                    },
                    {
                      "internalType": "bool",
                      "name": "isFortiFi",
                      "type": "bool"
                    },
                    {
                      "internalType": "uint16",
                      "name": "bps",
                      "type": "uint16"
                    }
                  ],
                  "internalType": "struct ISAMS.Strategy",
                  "name": "strategy",
                  "type": "tuple"
                },
                {
                  "internalType": "uint256",
                  "name": "receipt",
                  "type": "uint256"
                }
              ],
              "internalType": "struct ISAMS.Position[]",
              "name": "positions",
              "type": "tuple[]"
            }
          ],
          "internalType": "struct ISAMS.TokenInfo",
          "name": "_info",
          "type": "tuple"
        }
      ],
      "stateMutability": "nonpayable",
      "type": "function"
    },
    {
      "inputs": [],
      "name": "depositToken",
      "outputs": [
        {
          "internalType": "address",
          "name": "",
          "type": "address"
        }
      ],
      "stateMutability": "view",
      "type": "function"
    },
    {
      "inputs": [
        {
          "internalType": "uint256",
          "name": "id",
          "type": "uint256"
        }
      ],
      "name": "exists",
      "outputs": [
        {
          "internalType": "bool",
          "name": "",
          "type": "bool"
        }
      ],
      "stateMutability": "view",
      "type": "function"
    },
    {
      "inputs": [],
      "name": "feeCalc",
      "outputs": [
        {
          "internalType": "contract IFortiFiFeeCalculator",
          "name": "",
          "type": "address"
        }
      ],
      "stateMutability": "view",
      "type": "function"
    },
    {
      "inputs": [],
      "name": "feeMgr",
      "outputs": [
        {
          "internalType": "contract IFortiFiFeeManager",
          "name": "",
          "type": "address"
        }
      ],
      "stateMutability": "view",
      "type": "function"
    },
    {
      "inputs": [],
      "name": "flipPaused",
      "outputs": [],
      "stateMutability": "nonpayable",
      "type": "function"
    },
    {
      "inputs": [
        {
          "internalType": "uint256",
          "name": "_tokenId",
          "type": "uint256"
        }
      ],
      "name": "getTokenInfo",
      "outputs": [
        {
          "components": [
            {
              "internalType": "uint256",
              "name": "deposit",
              "type": "uint256"
            },
            {
              "components": [
                {
                  "components": [
                    {
                      "internalType": "address",
                      "name": "strategy",
                      "type": "address"
                    },
                    {
                      "internalType": "bool",
                      "name": "isFortiFi",
                      "type": "bool"
                    },
                    {
                      "internalType": "uint16",
                      "name": "bps",
                      "type": "uint16"
                    }
                  ],
                  "internalType": "struct ISAMS.Strategy",
                  "name": "strategy",
                  "type": "tuple"
                },
                {
                  "internalType": "uint256",
                  "name": "receipt",
                  "type": "uint256"
                }
              ],
              "internalType": "struct ISAMS.Position[]",
              "name": "positions",
              "type": "tuple[]"
            }
          ],
          "internalType": "struct ISAMS.TokenInfo",
          "name": "",
          "type": "tuple"
        }
      ],
      "stateMutability": "view",
      "type": "function"
    },
    {
      "inputs": [
        {
          "internalType": "address",
          "name": "account",
          "type": "address"
        },
        {
          "internalType": "address",
          "name": "operator",
          "type": "address"
        }
      ],
      "name": "isApprovedForAll",
      "outputs": [
        {
          "internalType": "bool",
          "name": "",
          "type": "bool"
        }
      ],
      "stateMutability": "view",
      "type": "function"
    },
    {
      "inputs": [],
      "name": "minDeposit",
      "outputs": [
        {
          "internalType": "uint256",
          "name": "",
          "type": "uint256"
        }
      ],
      "stateMutability": "view",
      "type": "function"
    },
    {
      "inputs": [],
      "name": "name",
      "outputs": [
        {
          "internalType": "string",
          "name": "",
          "type": "string"
        }
      ],
      "stateMutability": "view",
      "type": "function"
    },
    {
      "inputs": [],
      "name": "nextToken",
      "outputs": [
        {
          "internalType": "uint256",
          "name": "",
          "type": "uint256"
        }
      ],
      "stateMutability": "view",
      "type": "function"
    },
    {
      "inputs": [
        {
          "internalType": "address",
          "name": "",
          "type": "address"
        }
      ],
      "name": "noFeesFor",
      "outputs": [
        {
          "internalType": "bool",
          "name": "",
          "type": "bool"
        }
      ],
      "stateMutability": "view",
      "type": "function"
    },
    {
      "inputs": [],
      "name": "owner",
      "outputs": [
        {
          "internalType": "address",
          "name": "",
          "type": "address"
        }
      ],
      "stateMutability": "view",
      "type": "function"
    },
    {
      "inputs": [],
      "name": "paused",
      "outputs": [
        {
          "internalType": "bool",
          "name": "",
          "type": "bool"
        }
      ],
      "stateMutability": "view",
      "type": "function"
    },
    {
      "inputs": [
        {
          "internalType": "uint256",
          "name": "_tokenId",
          "type": "uint256"
        }
      ],
      "name": "rebalance",
      "outputs": [
        {
          "components": [
            {
              "internalType": "uint256",
              "name": "deposit",
              "type": "uint256"
            },
            {
              "components": [
                {
                  "components": [
                    {
                      "internalType": "address",
                      "name": "strategy",
                      "type": "address"
                    },
                    {
                      "internalType": "bool",
                      "name": "isFortiFi",
                      "type": "bool"
                    },
                    {
                      "internalType": "uint16",
                      "name": "bps",
                      "type": "uint16"
                    }
                  ],
                  "internalType": "struct ISAMS.Strategy",
                  "name": "strategy",
                  "type": "tuple"
                },
                {
                  "internalType": "uint256",
                  "name": "receipt",
                  "type": "uint256"
                }
              ],
              "internalType": "struct ISAMS.Position[]",
              "name": "positions",
              "type": "tuple[]"
            }
          ],
          "internalType": "struct ISAMS.TokenInfo",
          "name": "",
          "type": "tuple"
        }
      ],
      "stateMutability": "nonpayable",
      "type": "function"
    },
    {
      "inputs": [
        {
          "internalType": "address",
          "name": "_token",
          "type": "address"
        },
        {
          "internalType": "uint256",
          "name": "_amount",
          "type": "uint256"
        }
      ],
      "name": "recoverERC20",
      "outputs": [],
      "stateMutability": "nonpayable",
      "type": "function"
    },
    {
      "inputs": [],
      "name": "refreshApprovals",
      "outputs": [],
      "stateMutability": "nonpayable",
      "type": "function"
    },
    {
      "inputs": [],
      "name": "renounceOwnership",
      "outputs": [],
      "stateMutability": "nonpayable",
      "type": "function"
    },
    {
      "inputs": [
        {
          "internalType": "address",
          "name": "from",
          "type": "address"
        },
        {
          "internalType": "address",
          "name": "to",
          "type": "address"
        },
        {
          "internalType": "uint256[]",
          "name": "ids",
          "type": "uint256[]"
        },
        {
          "internalType": "uint256[]",
          "name": "amounts",
          "type": "uint256[]"
        },
        {
          "internalType": "bytes",
          "name": "data",
          "type": "bytes"
        }
      ],
      "name": "safeBatchTransferFrom",
      "outputs": [],
      "stateMutability": "nonpayable",
      "type": "function"
    },
    {
      "inputs": [
        {
          "internalType": "address",
          "name": "from",
          "type": "address"
        },
        {
          "internalType": "address",
          "name": "to",
          "type": "address"
        },
        {
          "internalType": "uint256",
          "name": "id",
          "type": "uint256"
        },
        {
          "internalType": "uint256",
          "name": "amount",
          "type": "uint256"
        },
        {
          "internalType": "bytes",
          "name": "data",
          "type": "bytes"
        }
      ],
      "name": "safeTransferFrom",
      "outputs": [],
      "stateMutability": "nonpayable",
      "type": "function"
    },
    {
      "inputs": [
        {
          "internalType": "address",
          "name": "operator",
          "type": "address"
        },
        {
          "internalType": "bool",
          "name": "approved",
          "type": "bool"
        }
      ],
      "name": "setApprovalForAll",
      "outputs": [],
      "stateMutability": "nonpayable",
      "type": "function"
    },
    {
      "inputs": [
        {
          "internalType": "address",
          "name": "_contract",
          "type": "address"
        }
      ],
      "name": "setFeeCalculator",
      "outputs": [],
      "stateMutability": "nonpayable",
      "type": "function"
    },
    {
      "inputs": [
        {
          "internalType": "address",
          "name": "_contract",
          "type": "address"
        }
      ],
      "name": "setFeeManager",
      "outputs": [],
      "stateMutability": "nonpayable",
      "type": "function"
    },
    {
      "inputs": [
        {
          "internalType": "uint256",
          "name": "_amount",
          "type": "uint256"
        }
      ],
      "name": "setMinDeposit",
      "outputs": [],
      "stateMutability": "nonpayable",
      "type": "function"
    },
    {
      "inputs": [
        {
          "internalType": "address",
          "name": "_contract",
          "type": "address"
        },
        {
          "internalType": "bool",
          "name": "_fees",
          "type": "bool"
        }
      ],
      "name": "setNoFeesFor",
      "outputs": [],
      "stateMutability": "nonpayable",
      "type": "function"
    },
    {
      "inputs": [
        {
          "components": [
            {
              "internalType": "address",
              "name": "strategy",
              "type": "address"
            },
            {
              "internalType": "bool",
              "name": "isFortiFi",
              "type": "bool"
            },
            {
              "internalType": "uint16",
              "name": "bps",
              "type": "uint16"
            }
          ],
          "internalType": "struct ISAMS.Strategy[]",
          "name": "_strategies",
          "type": "tuple[]"
        }
      ],
      "name": "setStrategies",
      "outputs": [],
      "stateMutability": "nonpayable",
      "type": "function"
    },
    {
      "inputs": [
        {
          "internalType": "uint256",
          "name": "",
          "type": "uint256"
        }
      ],
      "name": "strategies",
      "outputs": [
        {
          "internalType": "address",
          "name": "strategy",
          "type": "address"
        },
        {
          "internalType": "bool",
          "name": "isFortiFi",
          "type": "bool"
        },
        {
          "internalType": "uint16",
          "name": "bps",
          "type": "uint16"
        }
      ],
      "stateMutability": "view",
      "type": "function"
    },
    {
      "inputs": [
        {
          "internalType": "bytes4",
          "name": "interfaceId",
          "type": "bytes4"
        }
      ],
      "name": "supportsInterface",
      "outputs": [
        {
          "internalType": "bool",
          "name": "",
          "type": "bool"
        }
      ],
      "stateMutability": "view",
      "type": "function"
    },
    {
      "inputs": [],
      "name": "symbol",
      "outputs": [
        {
          "internalType": "string",
          "name": "",
          "type": "string"
        }
      ],
      "stateMutability": "view",
      "type": "function"
    },
    {
      "inputs": [
        {
          "internalType": "uint256",
          "name": "id",
          "type": "uint256"
        }
      ],
      "name": "totalSupply",
      "outputs": [
        {
          "internalType": "uint256",
          "name": "",
          "type": "uint256"
        }
      ],
      "stateMutability": "view",
      "type": "function"
    },
    {
      "inputs": [
        {
          "internalType": "address",
          "name": "newOwner",
          "type": "address"
        }
      ],
      "name": "transferOwnership",
      "outputs": [],
      "stateMutability": "nonpayable",
      "type": "function"
    },
    {
      "inputs": [
        {
          "internalType": "uint256",
          "name": "",
          "type": "uint256"
        }
      ],
      "name": "uri",
      "outputs": [
        {
          "internalType": "string",
          "name": "",
          "type": "string"
        }
      ],
      "stateMutability": "view",
      "type": "function"
    },
    {
      "inputs": [
        {
          "internalType": "uint256",
          "name": "_tokenId",
          "type": "uint256"
        }
      ],
      "name": "withdraw",
      "outputs": [],
      "stateMutability": "nonpayable",
      "type": "function"
    },
    {
      "inputs": [],
      "name": "wrappedNative",
      "outputs": [
        {
          "internalType": "address",
          "name": "",
          "type": "address"
        }
      ],
      "stateMutability": "view",
      "type": "function"
    },
    {
      "stateMutability": "payable",
      "type": "receive"
    }
  ],
  "transactionHash": "0x60b556309812a303b3e3605a1ba335848d9174253324a6831fe683c9e476d644",
  "args": [
    "Test SAMS - sAVAX",
    "tssAVAX",
    "https://ipfs.io/ipfs/bafybeign4hbi6desilmocupj3hlxj3t3eiodr2sro5bgw7ld7vcznttuja/SAMS_sAVAX.png",
    "0xB31f66AA3C1e785363F0875A1B74E27b85FD66c7",
    "0x2b2C81e08f1Af8835a78Bb2A90AE924ACE0eA4bE",
    "0xf0F55E8C9E23c627b253876F3B4Bf1Ef3eBA4Db0",
    "0x1acD9eAB461267c7cD044a088269E7aFA3ea2184",
    10000,
    [
      {
        "strategy": "0xd0F41b1C9338eB9d374c83cC76b684ba3BB71557",
        "isFortiFi": false,
        "bps": 2500
      },
      {
        "strategy": "0xc8cEeA18c2E168C6e767422c8d144c55545D23e9",
        "isFortiFi": false,
        "bps": 4500
      },
      {
        "strategy": "0xB97EF9Ef8734C71904D8002F8b6Bc66Dd9c48a6E",
        "isFortiFi": false,
        "bps": 3000
      }
    ]
  ],
  "numDeployments": 10,
  "solcInputHash": "a0ceb3e248a1a53b3491de15f7660519",
  "bytecode": "0x60806040526001600b819055600c805460ff191690911790553480156200002557600080fd5b50604051620054b8380380620054b8833981016040819052620000489162000a41565b866200005481620002bf565b506200006033620002d8565b60016005556001600160a01b038616620000c15760405162461bcd60e51b815260206004820152601d60248201527f466f72746946693a20496e76616c6964206e617469766520746f6b656e00000060448201526064015b60405180910390fd5b6001600160a01b038516620001195760405162461bcd60e51b815260206004820152601e60248201527f466f72746946693a20496e76616c6964206465706f73697420746f6b656e00006044820152606401620000b8565b6001600160a01b038416620001715760405162461bcd60e51b815260206004820152601b60248201527f466f72746946693a20496e76616c6964206665654d616e6167657200000000006044820152606401620000b8565b6001600160a01b038316620001c95760405162461bcd60e51b815260206004820152601e60248201527f466f72746946693a20496e76616c69642066656543616c63756c61746f7200006044820152606401620000b8565b6127108210156200021d5760405162461bcd60e51b815260206004820152601c60248201527f466f72746946693a20496e76616c6964206d696e206465706f736974000000006044820152606401620000b8565b8851620002329060069060208c019062000799565b508751620002489060079060208b019062000799565b50600a829055600980546001600160a01b03199081166001600160a01b0389811691909117909255600880548216888416179055600c8054610100600160a81b03191661010087851602179055600d8054909116918616919091179055620002b0816200032a565b50505050505050505062000c32565b8051620002d490600290602084019062000799565b5050565b600480546001600160a01b038381166001600160a01b0319831681179093556040519116919082907f8be0079c531659141344cd1fd0a4f28419497f9722a3daafe3b4186f6b6457e090600090a35050565b6004546001600160a01b03163314620003865760405162461bcd60e51b815260206004820181905260248201527f4f776e61626c653a2063616c6c6572206973206e6f7420746865206f776e65726044820152606401620000b8565b805160ff8116620003da5760405162461bcd60e51b815260206004820152601660248201527f466f72746946693a204e6f2073747261746567696573000000000000000000006044820152606401620000b8565b6000805b8260ff168160ff1610156200044157838160ff16815181106200041157634e487b7160e01b600052603260045260246000fd5b602002602001015160400151826200042a919062000b7d565b915080620004388162000be3565b915050620003de565b5061ffff811661271014620004995760405162461bcd60e51b815260206004820152601a60248201527f466f72746946693a20496e76616c696420746f74616c206270730000000000006044820152606401620000b8565b620004a7600e600062000828565b60005b8260ff168160ff161015620005fe5760006001600160a01b0316848260ff1681518110620004e857634e487b7160e01b600052603260045260246000fd5b6020026020010151600001516001600160a01b031614156200054d5760405162461bcd60e51b815260206004820152601e60248201527f466f72746946693a20496e76616c6964207374726174206164647265737300006044820152606401620000b8565b600e848260ff16815181106200057357634e487b7160e01b600052603260045260246000fd5b6020908102919091018101518254600181018455600093845292829020815193018054928201516040909201516001600160a01b03199093166001600160a01b039094169390931760ff60a01b1916600160a01b911515919091021761ffff60a81b1916600160a81b61ffff9092169190910217905580620005f58162000be3565b915050620004aa565b50620006096200060e565b505050565b600854600e546001600160a01b039091169060005b8160ff168160ff1610156200070d57826001600160a01b031663095ea7b3600e8360ff16815481106200066657634e487b7160e01b600052603260045260246000fd5b60009182526020909120015460405160e083901b6001600160e01b03191681526001600160a01b0390911660048201526000196024820152604401602060405180830381600087803b158015620006bc57600080fd5b505af1158015620006d1573d6000803e3d6000fd5b505050506040513d601f19601f82011682018060405250810190620006f7919062000a1d565b5080620007048162000be3565b91505062000623565b50600d5460405163095ea7b360e01b81526001600160a01b03918216600482015260001960248201529083169063095ea7b390604401602060405180830381600087803b1580156200075e57600080fd5b505af115801562000773573d6000803e3d6000fd5b505050506040513d601f19601f8201168201806040525081019062000609919062000a1d565b828054620007a79062000ba6565b90600052602060002090601f016020900481019282620007cb576000855562000816565b82601f10620007e657805160ff191683800117855562000816565b8280016001018555821562000816579182015b8281111562000816578251825591602001919060010190620007f9565b50620008249291506200084b565b5090565b508054600082559060005260206000209081019062000848919062000862565b50565b5b808211156200082457600081556001016200084c565b5b80821115620008245780546001600160b81b031916815560010162000863565b80516001600160a01b03811681146200089b57600080fd5b919050565b600082601f830112620008b1578081fd5b815160206001600160401b03821115620008cf57620008cf62000c1c565b620008de818284020162000b4a565b82815281810190858301606080860288018501891015620008fd578687fd5b865b868110156200096d5781838b03121562000917578788fd5b620009228262000b4a565b6200092d8462000883565b81526200093c8785016200097b565b8782015260408085015161ffff8116811462000956578a8bfd5b9082015285529385019391810191600101620008ff565b509198975050505050505050565b805180151581146200089b57600080fd5b600082601f8301126200099d578081fd5b81516001600160401b03811115620009b957620009b962000c1c565b6020620009cf601f8301601f1916820162000b4a565b8281528582848701011115620009e3578384fd5b835b8381101562000a02578581018301518282018401528201620009e5565b8381111562000a1357848385840101525b5095945050505050565b60006020828403121562000a2f578081fd5b62000a3a826200097b565b9392505050565b60008060008060008060008060006101208a8c03121562000a60578485fd5b89516001600160401b038082111562000a77578687fd5b62000a858d838e016200098c565b9a5060208c015191508082111562000a9b578687fd5b62000aa98d838e016200098c565b995060408c015191508082111562000abf578687fd5b62000acd8d838e016200098c565b985062000add60608d0162000883565b975062000aed60808d0162000883565b965062000afd60a08d0162000883565b955062000b0d60c08d0162000883565b945060e08c015193506101008c015191508082111562000b2b578283fd5b5062000b3a8c828d01620008a0565b9150509295985092959850929598565b604051601f8201601f191681016001600160401b038111828210171562000b755762000b7562000c1c565b604052919050565b600061ffff80831681851680830382111562000b9d5762000b9d62000c06565b01949350505050565b60028104600182168062000bbb57607f821691505b6020821081141562000bdd57634e487b7160e01b600052602260045260246000fd5b50919050565b600060ff821660ff81141562000bfd5762000bfd62000c06565b60010192915050565b634e487b7160e01b600052601160045260246000fd5b634e487b7160e01b600052604160045260246000fd5b6148768062000c426000396000f3fe6080604052600436106102885760003560e01c80638c4cc0df11610153578063bd85b039116100cb578063eb6d3a111161007f578063f2fde38b11610064578063f2fde38b14610796578063f4993018146107b6578063f7c85469146107d65761028f565b8063eb6d3a1114610756578063f242432a146107765761028f565b8063d2cee5af116100b0578063d2cee5af146106a4578063d574ea3d146106c4578063e985e9c51461070d5761028f565b8063bd85b03914610657578063c89039c5146106845761028f565b80638fcc9cfb1161012257806395d89b411161010757806395d89b41146105f4578063a22cb46514610609578063b6b55f25146106295761028f565b80638fcc9cfb146105be5780639499ac54146105de5761028f565b80638c4cc0df1461052c5780638c66d04f146105695780638c7a63ae146105895780638da5cb5b146105a95761028f565b806341b3d185116102015780635c975abb116101b5578063715018a61161019a578063715018a6146104ca578063771602f7146104df5780638980f11f1461050c5761028f565b80635c975abb14610480578063703b08211461049a5761028f565b8063472d35b9116101e6578063472d35b9146104045780634e1273f4146104245780634f558e79146104515761028f565b806341b3d185146103d957806343d57a64146103ef5761028f565b80630e89341c116102585780632e1a7d4d1161023d5780632e1a7d4d146103845780632eb2c2d6146103a4578063333171bb146103c45761028f565b80630e89341c1461033b578063249d39e91461035b5761028f565b8062fdd58e1461029457806301ffc9a7146102c757806306fdde03146102f75780630a07daab146103195761028f565b3661028f57005b600080fd5b3480156102a057600080fd5b506102b46102af366004614115565b6107f6565b6040519081526020015b60405180910390f35b3480156102d357600080fd5b506102e76102e2366004614311565b61089f565b60405190151581526020016102be565b34801561030357600080fd5b5061030c61093e565b6040516102be9190614582565b34801561032557600080fd5b506103396103343660046140df565b6109cc565b005b34801561034757600080fd5b5061030c610356366004614349565b610a56565b34801561036757600080fd5b5061037161271081565b60405161ffff90911681526020016102be565b34801561039057600080fd5b5061033961039f366004614349565b610aea565b3480156103b057600080fd5b506103396103bf366004613fd6565b610f1d565b3480156103d057600080fd5b50610339610fbf565b3480156103e557600080fd5b506102b4600a5481565b3480156103fb57600080fd5b50610339611032565b34801561041057600080fd5b5061033961041f366004613f83565b6111cf565b34801561043057600080fd5b5061044461043f36600461413e565b61125d565b6040516102be9190614541565b34801561045d57600080fd5b506102e761046c366004614349565b600090815260036020526040902054151590565b34801561048c57600080fd5b50600c546102e79060ff1681565b3480156104a657600080fd5b506102e76104b5366004613f83565b60106020526000908152604090205460ff1681565b3480156104d657600080fd5b506103396113d3565b3480156104eb57600080fd5b506104ff6104fa366004614379565b61143e565b6040516102be9190614595565b34801561051857600080fd5b50610339610527366004614115565b6117ad565b34801561053857600080fd5b50600c546105519061010090046001600160a01b031681565b6040516001600160a01b0390911681526020016102be565b34801561057557600080fd5b50610339610584366004613f83565b61183f565b34801561059557600080fd5b506104ff6105a4366004614349565b6118dd565b3480156105b557600080fd5b506105516119be565b3480156105ca57600080fd5b506103396105d9366004614349565b6119ce565b3480156105ea57600080fd5b506102b4600b5481565b34801561060057600080fd5b5061030c611a32565b34801561061557600080fd5b506103396106243660046140df565b611a3f565b34801561063557600080fd5b50610649610644366004614349565b611a4e565b6040516102be9291906145a8565b34801561066357600080fd5b506102b4610672366004614349565b60009081526003602052604090205490565b34801561069057600080fd5b50600854610551906001600160a01b031681565b3480156106b057600080fd5b506103396106bf366004614207565b611d79565b3480156106d057600080fd5b506106e46106df366004614349565b612051565b604080516001600160a01b039094168452911515602084015261ffff16908201526060016102be565b34801561071957600080fd5b506102e7610728366004613fa4565b6001600160a01b03918216600090815260016020908152604080832093909416825291909152205460ff1690565b34801561076257600080fd5b50600954610551906001600160a01b031681565b34801561078257600080fd5b5061033961079136600461407c565b612092565b3480156107a257600080fd5b506103396107b1366004613f83565b61212d565b3480156107c257600080fd5b506104ff6107d1366004614349565b612214565b3480156107e257600080fd5b50600d54610551906001600160a01b031681565b60006001600160a01b0383166108795760405162461bcd60e51b815260206004820152602b60248201527f455243313135353a2062616c616e636520717565727920666f7220746865207a60448201527f65726f206164647265737300000000000000000000000000000000000000000060648201526084015b60405180910390fd5b506000908152602081815260408083206001600160a01b03949094168352929052205490565b60006001600160e01b031982167fd9b67a2600000000000000000000000000000000000000000000000000000000148061090257506001600160e01b031982167f0e89341c00000000000000000000000000000000000000000000000000000000145b8061093657507f01ffc9a7000000000000000000000000000000000000000000000000000000006001600160e01b03198316145b90505b919050565b6006805461094b906146a4565b80601f0160208091040260200160405190810160405280929190818152602001828054610977906146a4565b80156109c45780601f10610999576101008083540402835291602001916109c4565b820191906000526020600020905b8154815290600101906020018083116109a757829003601f168201915b505050505081565b336109d56119be565b6001600160a01b031614610a2b5760405162461bcd60e51b815260206004820181905260248201527f4f776e61626c653a2063616c6c6572206973206e6f7420746865206f776e65726044820152606401610870565b6001600160a01b03919091166000908152601060205260409020805460ff1916911515919091179055565b606060028054610a65906146a4565b80601f0160208091040260200160405190810160405280929190818152602001828054610a91906146a4565b8015610ade5780601f10610ab357610100808354040283529160200191610ade565b820191906000526020600020905b815481529060010190602001808311610ac157829003601f168201915b50505050509050919050565b60026005541415610b3d5760405162461bcd60e51b815260206004820152601f60248201527f5265656e7472616e637947756172643a207265656e7472616e742063616c6c006044820152606401610870565b6002600555600c5460ff1615610b955760405162461bcd60e51b815260206004820152601860248201527f466f72746946693a20436f6e74726163742070617573656400000000000000006044820152606401610870565b6000610ba133836107f6565b11610bee5760405162461bcd60e51b815260206004820152601f60248201527f466f72746946693a204e6f7420746865206f776e6572206f6620746f6b656e006044820152606401610870565b610bfa33826001612463565b600080610c068361260f565b336000908152601060205260408120549294509092509060ff16610d4757600c546040517fefb36c14000000000000000000000000000000000000000000000000000000008152336004820152602481018490526101009091046001600160a01b03169063efb36c149060440160206040518083038186803b158015610c8b57600080fd5b505afa158015610c9f573d6000803e3d6000fd5b505050506040513d601f19601f82011682018060405250810190610cc39190614361565b600d546008546040517fa033fcd40000000000000000000000000000000000000000000000000000000081526001600160a01b03918216600482015260248101849052929350169063a033fcd490604401600060405180830381600087803b158015610d2e57600080fd5b505af1158015610d42573d6000803e3d6000fd5b505050505b6008546001600160a01b031663a9059cbb33610d63848761466a565b6040516001600160e01b031960e085901b1681526001600160a01b0390921660048301526024820152604401602060405180830381600087803b158015610da957600080fd5b505af1158015610dbd573d6000803e3d6000fd5b505050506040513d601f19601f82011682018060405250810190610de191906142f5565b610e2d5760405162461bcd60e51b815260206004820181905260248201527f466f72746946693a204661696c656420746f2073656e642070726f63656564736044820152606401610870565b4715610ecd57604051600090339047908381818185875af1925050503d8060008114610e75576040519150601f19603f3d011682016040523d82523d6000602084013e610e7a565b606091505b5050905080610ecb5760405162461bcd60e51b815260206004820181905260248201527f466f72746946693a204661696c656420746f20726566756e64206e61746976656044820152606401610870565b505b6040805184815260208101849052908101829052849033907f887e73c01568cecc3fe477a39c098f6599306a7592db9c8941dfc71ff9046d069060600160405180910390a3505060016005555050565b6001600160a01b038516331480610f395750610f398533610728565b610fab5760405162461bcd60e51b815260206004820152603260248201527f455243313135353a207472616e736665722063616c6c6572206973206e6f742060448201527f6f776e6572206e6f7220617070726f76656400000000000000000000000000006064820152608401610870565b610fb88585858585612960565b5050505050565b33610fc86119be565b6001600160a01b03161461101e5760405162461bcd60e51b815260206004820181905260248201527f4f776e61626c653a2063616c6c6572206973206e6f7420746865206f776e65726044820152606401610870565b600c805460ff19811660ff90911615179055565b600854600e546001600160a01b039091169060005b8160ff168160ff16101561112857826001600160a01b031663095ea7b3600e8360ff168154811061108857634e487b7160e01b600052603260045260246000fd5b60009182526020909120015460405160e083901b6001600160e01b03191681526001600160a01b0390911660048201526000196024820152604401602060405180830381600087803b1580156110dd57600080fd5b505af11580156110f1573d6000803e3d6000fd5b505050506040513d601f19601f8201168201806040525081019061111591906142f5565b508061112081614727565b915050611047565b50600d546040517f095ea7b30000000000000000000000000000000000000000000000000000000081526001600160a01b03918216600482015260001960248201529083169063095ea7b3906044015b602060405180830381600087803b15801561119257600080fd5b505af11580156111a6573d6000803e3d6000fd5b505050506040513d601f19601f820116820180604052508101906111ca91906142f5565b505050565b336111d86119be565b6001600160a01b03161461122e5760405162461bcd60e51b815260206004820181905260248201527f4f776e61626c653a2063616c6c6572206973206e6f7420746865206f776e65726044820152606401610870565b600d805473ffffffffffffffffffffffffffffffffffffffff19166001600160a01b0392909216919091179055565b606081518351146112d65760405162461bcd60e51b815260206004820152602960248201527f455243313135353a206163636f756e747320616e6420696473206c656e67746860448201527f206d69736d6174636800000000000000000000000000000000000000000000006064820152608401610870565b6000835167ffffffffffffffff81111561130057634e487b7160e01b600052604160045260246000fd5b604051908082528060200260200182016040528015611329578160200160208202803683370190505b50905060005b84518110156113cb5761139085828151811061135b57634e487b7160e01b600052603260045260246000fd5b602002602001015185838151811061138357634e487b7160e01b600052603260045260246000fd5b60200260200101516107f6565b8282815181106113b057634e487b7160e01b600052603260045260246000fd5b60209081029190910101526113c48161470c565b905061132f565b509392505050565b336113dc6119be565b6001600160a01b0316146114325760405162461bcd60e51b815260206004820181905260248201527f4f776e61626c653a2063616c6c6572206973206e6f7420746865206f776e65726044820152606401610870565b61143c6000612bfd565b565b604080518082019091526000815260606020820152600260055414156114a65760405162461bcd60e51b815260206004820152601f60248201527f5265656e7472616e637947756172643a207265656e7472616e742063616c6c006044820152606401610870565b6002600555600c5460ff16156114fe5760405162461bcd60e51b815260206004820152601860248201527f466f72746946693a20436f6e74726163742070617573656400000000000000006044820152606401610870565b600a54831161154f5760405162461bcd60e51b815260206004820152601f60248201527f466f72746946693a20496e76616c6964206465706f73697420616d6f756e74006044820152606401610870565b6008546040516323b872dd60e01b8152336004820152306024820152604481018590526001600160a01b039091169081906323b872dd90606401602060405180830381600087803b1580156115a357600080fd5b505af11580156115b7573d6000803e3d6000fd5b505050506040513d601f19601f820116820180604052508101906115db91906142f5565b6116275760405162461bcd60e51b815260206004820152601f60248201527f466f72746946693a204661696c656420746f2078666572206465706f736974006044820152606401610870565b600061163333856107f6565b116116805760405162461bcd60e51b815260206004820152601f60248201527f466f72746946693a204e6f7420746865206f776e6572206f6620746f6b656e006044820152606401610870565b61168c84846001612c5c565b600f60008481526020019081526020016000206040518060400160405290816000820154815260200160018201805480602002602001604051908101604052809291908181526020016000905b8282101561174a5760008481526020908190206040805160a0810182526002860290920180546001600160a01b038116928401928352600160a01b810460ff1615156060850152600160a81b900461ffff1660808401529082526001908101548284015290835290920191016116d9565b5050505081525050915061175d8261322a565b82336001600160a01b03167f75e72f79742d7acf4da04882463cf16c19e7791e3a08e5308d920498e713841886856040516117999291906145a8565b60405180910390a350600160055592915050565b336117b66119be565b6001600160a01b03161461180c5760405162461bcd60e51b815260206004820181905260248201527f4f776e61626c653a2063616c6c6572206973206e6f7420746865206f776e65726044820152606401610870565b60405163a9059cbb60e01b8152336004820152602481018290526001600160a01b0383169063a9059cbb90604401611178565b336118486119be565b6001600160a01b03161461189e5760405162461bcd60e51b815260206004820181905260248201527f4f776e61626c653a2063616c6c6572206973206e6f7420746865206f776e65726044820152606401610870565b600c80546001600160a01b03909216610100027fffffffffffffffffffffff0000000000000000000000000000000000000000ff909216919091179055565b604080518082019091526000815260606020820152600f60008381526020019081526020016000206040518060400160405290816000820154815260200160018201805480602002602001604051908101604052809291908181526020016000905b828210156119b05760008481526020908190206040805160a0810182526002860290920180546001600160a01b038116928401928352600160a01b810460ff1615156060850152600160a81b900461ffff16608084015290825260019081015482840152908352909201910161193f565b505050915250909392505050565b6004546001600160a01b03165b90565b336119d76119be565b6001600160a01b031614611a2d5760405162461bcd60e51b815260206004820181905260248201527f4f776e61626c653a2063616c6c6572206973206e6f7420746865206f776e65726044820152606401610870565b600a55565b6007805461094b906146a4565b611a4a33838361358b565b5050565b6000611a6d604051806040016040528060008152602001606081525090565b60026005541415611ac05760405162461bcd60e51b815260206004820152601f60248201527f5265656e7472616e637947756172643a207265656e7472616e742063616c6c006044820152606401610870565b6002600555600c5460ff1615611b185760405162461bcd60e51b815260206004820152601860248201527f466f72746946693a20436f6e74726163742070617573656400000000000000006044820152606401610870565b600a548311611b695760405162461bcd60e51b815260206004820152601f60248201527f466f72746946693a20496e76616c6964206465706f73697420616d6f756e74006044820152606401610870565b6008546040516323b872dd60e01b8152336004820152306024820152604481018590526001600160a01b039091169081906323b872dd90606401602060405180830381600087803b158015611bbd57600080fd5b505af1158015611bd1573d6000803e3d6000fd5b505050506040513d601f19601f82011682018060405250810190611bf591906142f5565b611c415760405162461bcd60e51b815260206004820152601f60248201527f466f72746946693a204661696c656420746f2078666572206465706f736974006044820152606401610870565b611c49613680565b9250611c5784846000612c5c565b600f60008481526020019081526020016000206040518060400160405290816000820154815260200160018201805480602002602001604051908101604052809291908181526020016000905b82821015611d155760008481526020908190206040805160a0810182526002860290920180546001600160a01b038116928401928352600160a01b810460ff1615156060850152600160a81b900461ffff166080840152908252600190810154828401529083529092019101611ca4565b50505050815250509150611d288261322a565b82336001600160a01b03167f8f4139b21e83dfa6074c9d7b6cbf820a694420c33868b26c75884a94ad01f4518685604051611d649291906145a8565b60405180910390a35060016005559092909150565b33611d826119be565b6001600160a01b031614611dd85760405162461bcd60e51b815260206004820181905260248201527f4f776e61626c653a2063616c6c6572206973206e6f7420746865206f776e65726044820152606401610870565b805160ff8116611e2a5760405162461bcd60e51b815260206004820152601660248201527f466f72746946693a204e6f2073747261746567696573000000000000000000006044820152606401610870565b6000805b8260ff168160ff161015611e8a57838160ff1681518110611e5f57634e487b7160e01b600052603260045260246000fd5b60200260200101516040015182611e7691906145ed565b915080611e8281614727565b915050611e2e565b5061ffff811661271014611ee05760405162461bcd60e51b815260206004820152601a60248201527f466f72746946693a20496e76616c696420746f74616c206270730000000000006044820152606401610870565b611eec600e6000613de3565b60005b8260ff168160ff1610156120485760006001600160a01b0316848260ff1681518110611f2b57634e487b7160e01b600052603260045260246000fd5b6020026020010151600001516001600160a01b03161415611f8e5760405162461bcd60e51b815260206004820152601e60248201527f466f72746946693a20496e76616c6964207374726174206164647265737300006044820152606401610870565b600e848260ff1681518110611fb357634e487b7160e01b600052603260045260246000fd5b60209081029190910181015182546001810184556000938452928290208151930180549282015160409092015173ffffffffffffffffffffffffffffffffffffffff199093166001600160a01b039094169390931760ff60a01b1916600160a01b911515919091021761ffff60a81b1916600160a81b61ffff909216919091021790558061204081614727565b915050611eef565b506111ca611032565b600e818154811061206157600080fd5b6000918252602090912001546001600160a01b0381169150600160a01b810460ff1690600160a81b900461ffff1683565b6001600160a01b0385163314806120ae57506120ae8533610728565b6121205760405162461bcd60e51b815260206004820152602960248201527f455243313135353a2063616c6c6572206973206e6f74206f776e6572206e6f7260448201527f20617070726f76656400000000000000000000000000000000000000000000006064820152608401610870565b610fb885858585856136c0565b336121366119be565b6001600160a01b03161461218c5760405162461bcd60e51b815260206004820181905260248201527f4f776e61626c653a2063616c6c6572206973206e6f7420746865206f776e65726044820152606401610870565b6001600160a01b0381166122085760405162461bcd60e51b815260206004820152602660248201527f4f776e61626c653a206e6577206f776e657220697320746865207a65726f206160448201527f64647265737300000000000000000000000000000000000000000000000000006064820152608401610870565b61221181612bfd565b50565b6040805180820190915260008152606060208201526002600554141561227c5760405162461bcd60e51b815260206004820152601f60248201527f5265656e7472616e637947756172643a207265656e7472616e742063616c6c006044820152606401610870565b6002600555600061228d33846107f6565b11801561229d5750600c5460ff16155b806122c057506122ab6119be565b6001600160a01b0316336001600160a01b0316145b61230c5760405162461bcd60e51b815260206004820152601f60248201527f466f72746946693a20496e76616c6964206d6573736167652073656e646572006044820152606401610870565b6000828152600f6020526040812054906123258461260f565b506000858152600f602052604081208181559192506123476001830182613e01565b505061235581856000612c5c565b6000848152600f60209081526040808320858155815180830183528681526001820180548451818702810187019095528085529194929385840193909290879084015b828210156124095760008481526020908190206040805160a0810182526002860290920180546001600160a01b038116928401928352600160a01b810460ff1615156060850152600160a81b900461ffff166080840152908252600190810154828401529083529092019101612398565b5050505081525050905061241c8161322a565b847f86826426a5e2fca1cbfbb1910b17dd940a00ec5386b31cdf12cbffca95340005838360405161244e9291906145a8565b60405180910390a26001600555949350505050565b6001600160a01b0383166124df5760405162461bcd60e51b815260206004820152602360248201527f455243313135353a206275726e2066726f6d20746865207a65726f206164647260448201527f65737300000000000000000000000000000000000000000000000000000000006064820152608401610870565b3361250e818560006124f08761386d565b6124f98761386d565b604051806020016040528060008152506138c6565b6000838152602081815260408083206001600160a01b0388168452909152902054828110156125a45760405162461bcd60e51b8152602060048201526024808201527f455243313135353a206275726e20616d6f756e7420657863656564732062616c60448201527f616e6365000000000000000000000000000000000000000000000000000000006064820152608401610870565b6000848152602081815260408083206001600160a01b03898116808652918452828520888703905582518981529384018890529092908616917fc3d58168c5ae7397731d063d5bbf3d657854427343f4c083240f7aacaa2d0f62910160405180910390a45050505050565b6000806000600f60008581526020019081526020016000206040518060400160405290816000820154815260200160018201805480602002602001604051908101604052809291908181526020016000905b828210156126d25760008481526020908190206040805160a0810182526002860290920180546001600160a01b038116928401928352600160a01b810460ff1615156060850152600160a81b900461ffff166080840152908252600190810154828401529083529092019101612661565b5050509152505060208101515190915060005b8160ff168160ff1610156128b957600083602001518260ff168151811061271c57634e487b7160e01b600052603260045260246000fd5b60200260200101516000015160000151905083602001518260ff168151811061275557634e487b7160e01b600052603260045260246000fd5b602002602001015160000151602001511561281357806001600160a01b0316636e44a6eb85602001518460ff16815181106127a057634e487b7160e01b600052603260045260246000fd5b602002602001015160200151336040518363ffffffff1660e01b81526004016127dc9291909182526001600160a01b0316602082015260400190565b600060405180830381600087803b1580156127f657600080fd5b505af115801561280a573d6000803e3d6000fd5b505050506128a6565b806001600160a01b0316632e1a7d4d85602001518460ff168151811061284957634e487b7160e01b600052603260045260246000fd5b6020026020010151602001516040518263ffffffff1660e01b815260040161287391815260200190565b600060405180830381600087803b15801561288d57600080fd5b505af11580156128a1573d6000803e3d6000fd5b505050505b50806128b181614727565b9150506126e5565b506008546040516370a0823160e01b81523060048201526001600160a01b03909116906370a082319060240160206040518083038186803b1580156128fd57600080fd5b505afa158015612911573d6000803e3d6000fd5b505050506040513d601f19601f820116820180604052508101906129359190614361565b825190945084111561295457815161294d908561466a565b9250612959565b600092505b5050915091565b81518351146129d75760405162461bcd60e51b815260206004820152602860248201527f455243313135353a2069647320616e6420616d6f756e7473206c656e6774682060448201527f6d69736d617463680000000000000000000000000000000000000000000000006064820152608401610870565b6001600160a01b038416612a3b5760405162461bcd60e51b815260206004820152602560248201527f455243313135353a207472616e7366657220746f20746865207a65726f206164604482015264647265737360d81b6064820152608401610870565b33612a4a8187878787876138c6565b60005b8451811015612b8f576000858281518110612a7857634e487b7160e01b600052603260045260246000fd5b602002602001015190506000858381518110612aa457634e487b7160e01b600052603260045260246000fd5b602090810291909101810151600084815280835260408082206001600160a01b038e168352909352919091205490915081811015612b375760405162461bcd60e51b815260206004820152602a60248201527f455243313135353a20696e73756666696369656e742062616c616e636520666f60448201526939103a3930b739b332b960b11b6064820152608401610870565b6000838152602081815260408083206001600160a01b038e8116855292528083208585039055908b16825281208054849290612b74908490614613565b9250508190555050505080612b889061470c565b9050612a4d565b50846001600160a01b0316866001600160a01b0316826001600160a01b03167f4a39dc06d4c0dbc64b70af90fd698a233a518aa5d07e595d983b8c0526c8f7fb8787604051612bdf929190614554565b60405180910390a4612bf5818787878787613a0a565b505050505050565b600480546001600160a01b0383811673ffffffffffffffffffffffffffffffffffffffff19831681179093556040519116919082907f8be0079c531659141344cd1fd0a4f28419497f9722a3daafe3b4186f6b6457e090600090a35050565b6000828152600f60205260408120600e5490918591905b8160ff168160ff161015613208576000600e8260ff1681548110612ca757634e487b7160e01b600052603260045260246000fd5b60009182526020918290206040805160608101825291909201546001600160a01b038116825260ff600160a01b82041615159382019390935261ffff600160a81b909304929092169082015290508515612d8e57846001018260ff1681548110612d2157634e487b7160e01b600052603260045260246000fd5b600091825260209091206002909102015481516001600160a01b03908116911614612d8e5760405162461bcd60e51b815260206004820152601d60248201527f466f72746946693a2043616e27742061646420746f20726563656970740000006044820152606401610870565b80516040516370a0823160e01b81523060048201526000906001600160a01b038316906370a082319060240160206040518083038186803b158015612dd257600080fd5b505afa158015612de6573d6000803e3d6000fd5b505050506040513d601f19601f82011682018060405250810190612e0a9190614361565b9050612e17600186614681565b60ff168460ff161415612ef357826020015115612e935760405163821a156b60e01b8152600481018790523360248201526001600160a01b0383169063821a156b90604401600060405180830381600087803b158015612e7657600080fd5b505af1158015612e8a573d6000803e3d6000fd5b50505050612eee565b60405163b6b55f2560e01b8152600481018790526001600160a01b0383169063b6b55f2590602401600060405180830381600087803b158015612ed557600080fd5b505af1158015612ee9573d6000803e3d6000fd5b505050505b612ff1565b604083015160009061271090612f0d9061ffff168d61464b565b612f17919061462b565b9050612f23818861466a565b9650836020015115612f945760405163821a156b60e01b8152600481018290523360248201526001600160a01b0384169063821a156b90604401600060405180830381600087803b158015612f7757600080fd5b505af1158015612f8b573d6000803e3d6000fd5b50505050612fef565b60405163b6b55f2560e01b8152600481018290526001600160a01b0384169063b6b55f2590602401600060405180830381600087803b158015612fd657600080fd5b505af1158015612fea573d6000803e3d6000fd5b505050505b505b87156130cb576040516370a0823160e01b815230600482015281906001600160a01b038416906370a082319060240160206040518083038186803b15801561303857600080fd5b505afa15801561304c573d6000803e3d6000fd5b505050506040513d601f19601f820116820180604052508101906130709190614361565b61307a919061466a565b876001018560ff16815481106130a057634e487b7160e01b600052603260045260246000fd5b906000526020600020906002020160010160008282546130c09190614613565b909155506131f29050565b60408051808201825284815290516370a0823160e01b8152306004820152600189019190602082019084906001600160a01b038716906370a082319060240160206040518083038186803b15801561312257600080fd5b505afa158015613136573d6000803e3d6000fd5b505050506040513d601f19601f8201168201806040525081019061315a9190614361565b613164919061466a565b9052815460018181018455600093845260209384902083518051600290940290910180548287015160409093015161ffff16600160a81b0261ffff60a81b19931515600160a01b0260ff60a01b196001600160a01b0390971673ffffffffffffffffffffffffffffffffffffffff199093169290921795909516179190911692909217825592909101519101555b505050808061320090614727565b915050612c73565b508583600001600082825461321d9190614613565b9091555050505050505050565b6008546040516370a0823160e01b81523060048201526000916001600160a01b0316906370a082319060240160206040518083038186803b15801561326e57600080fd5b505afa158015613282573d6000803e3d6000fd5b505050506040513d601f19601f820116820180604052508101906132a69190614361565b905080156133935780826000018181516132c0919061466a565b90525060085460405163a9059cbb60e01b8152336004820152602481018390526001600160a01b039091169063a9059cbb90604401602060405180830381600087803b15801561330f57600080fd5b505af1158015613323573d6000803e3d6000fd5b505050506040513d601f19601f8201168201806040525081019061334791906142f5565b6133935760405162461bcd60e51b815260206004820152601f60248201527f466f72746946693a204661696c656420746f20726566756e64204552433230006044820152606401610870565b6009546040516370a0823160e01b81523060048201526000916001600160a01b0316906370a082319060240160206040518083038186803b1580156133d757600080fd5b505afa1580156133eb573d6000803e3d6000fd5b505050506040513d601f19601f8201168201806040525081019061340f9190614361565b905080156134e75760095460405163a9059cbb60e01b8152336004820152602481018390526001600160a01b039091169063a9059cbb90604401602060405180830381600087803b15801561346357600080fd5b505af1158015613477573d6000803e3d6000fd5b505050506040513d601f19601f8201168201806040525081019061349b91906142f5565b6134e75760405162461bcd60e51b815260206004820181905260248201527f466f72746946693a204661696c656420746f20726566756e64206e61746976656044820152606401610870565b47156111ca57604051600090339047908381818185875af1925050503d806000811461352f576040519150601f19603f3d011682016040523d82523d6000602084013e613534565b606091505b50509050806135855760405162461bcd60e51b815260206004820181905260248201527f466f72746946693a204661696c656420746f20726566756e64206e61746976656044820152606401610870565b50505050565b816001600160a01b0316836001600160a01b031614156136135760405162461bcd60e51b815260206004820152602960248201527f455243313135353a2073657474696e6720617070726f76616c2073746174757360448201527f20666f722073656c6600000000000000000000000000000000000000000000006064820152608401610870565b6001600160a01b03838116600081815260016020908152604080832094871680845294825291829020805460ff191686151590811790915591519182527f17307eab39ab6107e8899845ad3d59bd9653f200f220920489ca2b5937696c31910160405180910390a3505050565b6000600b5490506136a33382600160405180602001604052806000815250613bbf565b6001600b60008282546136b69190614613565b9250508190555090565b6001600160a01b0384166137245760405162461bcd60e51b815260206004820152602560248201527f455243313135353a207472616e7366657220746f20746865207a65726f206164604482015264647265737360d81b6064820152608401610870565b336137438187876137348861386d565b61373d8861386d565b876138c6565b6000848152602081815260408083206001600160a01b038a168452909152902054838110156137c75760405162461bcd60e51b815260206004820152602a60248201527f455243313135353a20696e73756666696369656e742062616c616e636520666f60448201526939103a3930b739b332b960b11b6064820152608401610870565b6000858152602081815260408083206001600160a01b038b8116855292528083208785039055908816825281208054869290613804908490614613565b909155505060408051868152602081018690526001600160a01b03808916928a821692918616917fc3d58168c5ae7397731d063d5bbf3d657854427343f4c083240f7aacaa2d0f62910160405180910390a4613864828888888888613cd8565b50505050505050565b604080516001808252818301909252606091600091906020808301908036833701905050905082816000815181106138b557634e487b7160e01b600052603260045260246000fd5b602090810291909101015292915050565b6001600160a01b0385166139695760005b83518110156139675782818151811061390057634e487b7160e01b600052603260045260246000fd5b60200260200101516003600086848151811061392c57634e487b7160e01b600052603260045260246000fd5b6020026020010151815260200190815260200160002060008282546139519190614613565b9091555061396090508161470c565b90506138d7565b505b6001600160a01b038416612bf55760005b8351811015613864578281815181106139a357634e487b7160e01b600052603260045260246000fd5b6020026020010151600360008684815181106139cf57634e487b7160e01b600052603260045260246000fd5b6020026020010151815260200190815260200160002060008282546139f4919061466a565b90915550613a0390508161470c565b905061397a565b6001600160a01b0384163b15612bf55760405163bc197c8160e01b81526001600160a01b0385169063bc197c8190613a4e90899089908890889088906004016144a0565b602060405180830381600087803b158015613a6857600080fd5b505af1925050508015613a98575060408051601f3d908101601f19168201909252613a959181019061432d565b60015b613b4e57613aa4614773565b806308c379a01415613ade5750613ab961478a565b80613ac45750613ae0565b8060405162461bcd60e51b81526004016108709190614582565b505b60405162461bcd60e51b815260206004820152603460248201527f455243313135353a207472616e7366657220746f206e6f6e204552433131353560448201527f526563656976657220696d706c656d656e7465720000000000000000000000006064820152608401610870565b6001600160e01b0319811663bc197c8160e01b146138645760405162461bcd60e51b815260206004820152602860248201527f455243313135353a204552433131353552656365697665722072656a656374656044820152676420746f6b656e7360c01b6064820152608401610870565b6001600160a01b038416613c3b5760405162461bcd60e51b815260206004820152602160248201527f455243313135353a206d696e7420746f20746865207a65726f2061646472657360448201527f73000000000000000000000000000000000000000000000000000000000000006064820152608401610870565b33613c4c816000876137348861386d565b6000848152602081815260408083206001600160a01b038916845290915281208054859290613c7c908490614613565b909155505060408051858152602081018590526001600160a01b0380881692600092918516917fc3d58168c5ae7397731d063d5bbf3d657854427343f4c083240f7aacaa2d0f62910160405180910390a4610fb8816000878787875b6001600160a01b0384163b15612bf55760405163f23a6e6160e01b81526001600160a01b0385169063f23a6e6190613d1c90899089908890889088906004016144fe565b602060405180830381600087803b158015613d3657600080fd5b505af1925050508015613d66575060408051601f3d908101601f19168201909252613d639181019061432d565b60015b613d7257613aa4614773565b6001600160e01b0319811663f23a6e6160e01b146138645760405162461bcd60e51b815260206004820152602860248201527f455243313135353a204552433131353552656365697665722072656a656374656044820152676420746f6b656e7360c01b6064820152608401610870565b50805460008255906000526020600020908101906122119190613e22565b50805460008255600202906000526020600020908101906122119190613e55565b5b80821115613e5157805476ffffffffffffffffffffffffffffffffffffffffffffff19168155600101613e23565b5090565b5b80821115613e5157805476ffffffffffffffffffffffffffffffffffffffffffffff1916815560006001820155600201613e56565b80356001600160a01b038116811461093957600080fd5b600082601f830112613eb2578081fd5b81356020613ebf826145c9565b604051613ecc82826146df565b838152828101915085830183850287018401881015613ee9578586fd5b855b85811015613f0757813584529284019290840190600101613eeb565b5090979650505050505050565b600082601f830112613f24578081fd5b813567ffffffffffffffff811115613f3e57613f3e61475d565b604051613f55601f8301601f1916602001826146df565b818152846020838601011115613f69578283fd5b816020850160208301379081016020019190915292915050565b600060208284031215613f94578081fd5b613f9d82613e8b565b9392505050565b60008060408385031215613fb6578081fd5b613fbf83613e8b565b9150613fcd60208401613e8b565b90509250929050565b600080600080600060a08688031215613fed578081fd5b613ff686613e8b565b945061400460208701613e8b565b9350604086013567ffffffffffffffff80821115614020578283fd5b61402c89838a01613ea2565b94506060880135915080821115614041578283fd5b61404d89838a01613ea2565b93506080880135915080821115614062578283fd5b5061406f88828901613f14565b9150509295509295909350565b600080600080600060a08688031215614093578081fd5b61409c86613e8b565b94506140aa60208701613e8b565b93506040860135925060608601359150608086013567ffffffffffffffff8111156140d3578182fd5b61406f88828901613f14565b600080604083850312156140f1578182fd5b6140fa83613e8b565b9150602083013561410a8161481c565b809150509250929050565b60008060408385031215614127578182fd5b61413083613e8b565b946020939093013593505050565b60008060408385031215614150578182fd5b823567ffffffffffffffff80821115614167578384fd5b818501915085601f83011261417a578384fd5b81356020614187826145c9565b60405161419482826146df565b8381528281019150858301838502870184018b10156141b1578889fd5b8896505b848710156141da576141c681613e8b565b8352600196909601959183019183016141b5565b50965050860135925050808211156141f0578283fd5b506141fd85828601613ea2565b9150509250929050565b60006020808385031215614219578182fd5b823567ffffffffffffffff81111561422f578283fd5b8301601f8101851361423f578283fd5b803561424a816145c9565b6040805161425883826146df565b83815285810192508486016060808602870188018b1015614277578889fd5b8896505b858710156142e65780828c031215614291578889fd5b835161429d82826146df565b6142a683613e8b565b8152888301356142b58161481c565b818a01528285013561ffff811681146142cc578a8bfd5b81860152855260019690960195938701939081019061427b565b50909998505050505050505050565b600060208284031215614306578081fd5b8151613f9d8161481c565b600060208284031215614322578081fd5b8135613f9d8161482a565b60006020828403121561433e578081fd5b8151613f9d8161482a565b60006020828403121561435a578081fd5b5035919050565b600060208284031215614372578081fd5b5051919050565b6000806040838503121561438b578182fd5b50508035926020909101359150565b6000815180845260208085019450808401835b838110156143c9578151875295820195908201906001016143ad565b509495945050505050565b60008151808452815b818110156143f9576020818501810151868301820152016143dd565b8181111561440a5782602083870101525b50601f01601f19169290920160200192915050565b600060408084018351855260208085015183828801528281518085526060945084890191508383019250865b81811015614492578351805180516001600160a01b031685528681015115158786015288015161ffff1688850152850151868401529284019260809092019160010161444b565b509098975050505050505050565b60006001600160a01b03808816835280871660208401525060a060408301526144cc60a083018661439a565b82810360608401526144de818661439a565b905082810360808401526144f281856143d4565b98975050505050505050565b60006001600160a01b03808816835280871660208401525084604083015283606083015260a0608083015261453660a08301846143d4565b979650505050505050565b600060208252613f9d602083018461439a565b600060408252614567604083018561439a565b8281036020840152614579818561439a565b95945050505050565b600060208252613f9d60208301846143d4565b600060208252613f9d602083018461441f565b6000838252604060208301526145c1604083018461441f565b949350505050565b600067ffffffffffffffff8211156145e3576145e361475d565b5060209081020190565b600061ffff80831681851680830382111561460a5761460a614747565b01949350505050565b6000821982111561462657614626614747565b500190565b60008261464657634e487b7160e01b81526012600452602481fd5b500490565b600081600019048311821515161561466557614665614747565b500290565b60008282101561467c5761467c614747565b500390565b600060ff821660ff84168082101561469b5761469b614747565b90039392505050565b6002810460018216806146b857607f821691505b602082108114156146d957634e487b7160e01b600052602260045260246000fd5b50919050565b601f8201601f1916810167ffffffffffffffff811182821017156147055761470561475d565b6040525050565b600060001982141561472057614720614747565b5060010190565b600060ff821660ff81141561473e5761473e614747565b60010192915050565b634e487b7160e01b600052601160045260246000fd5b634e487b7160e01b600052604160045260246000fd5b600060033d11156119cb57600481823e5160e01c90565b600060443d101561479a576119cb565b6040516003193d81016004833e81513d67ffffffffffffffff81602484011181841117156147cc5750505050506119cb565b82850191508151818111156147e6575050505050506119cb565b843d8701016020828501011115614802575050505050506119cb565b614811602082860101876146df565b509094505050505090565b801515811461221157600080fd5b6001600160e01b03198116811461221157600080fdfea264697066735822122039e1b3484f649c2b7057036f8dd2d35769277dd55c9d75bcc124e4c24438ab2c64736f6c63430008020033",
  "devdoc": {
    "kind": "dev",
    "methods": {
      "balanceOf(address,uint256)": {
        "details": "See {IERC1155-balanceOf}. Requirements: - `account` cannot be the zero address."
      },
      "balanceOfBatch(address[],uint256[])": {
        "details": "See {IERC1155-balanceOfBatch}. Requirements: - `accounts` and `ids` must have the same length."
      },
      "deposit(uint256)": {
        "details": "The user must deposit at least the minDeposit, and will receive an ERC1155 non-fungible receipt token.  The receipt token will be mapped to a TokenInfo containing the amount deposited as well as the strategy receipt  tokens received for later withdrawal."
      },
      "exists(uint256)": {
        "details": "Indicates whether any token exist with a given id, or not."
      },
      "isApprovedForAll(address,address)": {
        "details": "See {IERC1155-isApprovedForAll}."
      },
      "owner()": {
        "details": "Returns the address of the current owner."
      },
      "rebalance(uint256)": {
        "details": "This function utilizes the internal _deposit and _withdraw functions to rebalance based on  the strategies set in the contract. Since _deposit will set the TokenInfo.deposit to the total  deposited after the rebalance, we must store the original deposit and overwrite the TokenInfo before completing the transaction."
      },
      "refreshApprovals()": {
        "details": "This function sets the max approval because no depositTokens should remain in this contract at the end of a  transaction. This means there should be no risk exposure. "
      },
      "renounceOwnership()": {
        "details": "Leaves the contract without owner. It will not be possible to call `onlyOwner` functions anymore. Can only be called by the current owner. NOTE: Renouncing ownership will leave the contract without an owner, thereby removing any functionality that is only available to the owner."
      },
      "safeBatchTransferFrom(address,address,uint256[],uint256[],bytes)": {
        "details": "See {IERC1155-safeBatchTransferFrom}."
      },
      "safeTransferFrom(address,address,uint256,uint256,bytes)": {
        "details": "See {IERC1155-safeTransferFrom}."
      },
      "setApprovalForAll(address,bool)": {
        "details": "See {IERC1155-setApprovalForAll}."
      },
      "setFeeCalculator(address)": {
        "details": "Contract address specified should implement IFortiFiFeeCalculator"
      },
      "setFeeManager(address)": {
        "details": "Contract address specified should implement IFortiFiFeeManager"
      },
      "setNoFeesFor(address,bool)": {
        "details": "This allows FortiFi MASS vaults to utilize this SAMS vault without paying a fee so that users do not pay fees twice."
      },
      "supportsInterface(bytes4)": {
        "details": "See {IERC165-supportsInterface}."
      },
      "totalSupply(uint256)": {
        "details": "Total amount of tokens in with a given id."
      },
      "transferOwnership(address)": {
        "details": "Transfers ownership of the contract to a new account (`newOwner`). Can only be called by the current owner."
      },
      "uri(uint256)": {
        "details": "See {IERC1155MetadataURI-uri}. This implementation returns the same URI for *all* token types. It relies on the token type ID substitution mechanism https://eips.ethereum.org/EIPS/eip-1155#metadata[defined in the EIP]. Clients calling this function must replace the `\\{id\\}` substring with the actual token type ID."
      },
      "withdraw(uint256)": {
        "details": "Once all receipts are burned and deposit tokens received, the fee manager will calculate the fees due,  and the fee manager will distribute those fees before transfering the user their proceeds."
      }
    },
    "title": "Contract for FortiFi SAMS Vaults",
    "version": 1
  },
  "userdoc": {
    "kind": "user",
    "methods": {
      "add(uint256,uint256)": {
        "notice": "This function is used to add to a user's deposit when they already has a receipt (ERC1155). The user can add to their  deposit without needing to burn/withdraw first. "
      },
      "deposit(uint256)": {
        "notice": "This function is used when a user does not already have a receipt (ERC1155). "
      },
      "flipPaused()": {
        "notice": "Function to pause/unpause the contract."
      },
      "getTokenInfo(uint256)": {
        "notice": "View function that returns all TokenInfo for a specific receipt"
      },
      "rebalance(uint256)": {
        "notice": "This function allows a user to rebalance a receipt (ERC1155) token's underlying assets. "
      },
      "recoverERC20(address,uint256)": {
        "notice": "Emergency function to recover stuck ERC20 tokens."
      },
      "refreshApprovals()": {
        "notice": "Function that approves ERC20 transfers for all strategy contracts"
      },
      "setFeeCalculator(address)": {
        "notice": "Setter for contract fee calculator"
      },
      "setFeeManager(address)": {
        "notice": "Setter for contract fee manager"
      },
      "setMinDeposit(uint256)": {
        "notice": "Setter for minDeposit state variable"
      },
      "setNoFeesFor(address,bool)": {
        "notice": "Function to set noFeesFor a contract. "
      },
      "setStrategies((address,bool,uint16)[])": {
        "notice": "This function sets up the underlying strategies used by the vault."
      },
      "withdraw(uint256)": {
        "notice": "This function is used to burn a receipt (ERC1155) and withdraw all underlying strategy receipt tokens. "
      }
    },
    "notice": "This contract allows for the deposit of a single asset, which is then split and deposited in to  multiple yield-bearing strategies. ",
    "version": 1
  },
  "storageLayout": {
    "storage": [
      {
        "astId": 170,
        "contract": "contracts/vaults/FortiFiSAMSVault.sol:FortiFiSAMSVault",
        "label": "_balances",
        "offset": 0,
        "slot": "0",
        "type": "t_mapping(t_uint256,t_mapping(t_address,t_uint256))"
      },
      {
        "astId": 176,
        "contract": "contracts/vaults/FortiFiSAMSVault.sol:FortiFiSAMSVault",
        "label": "_operatorApprovals",
        "offset": 0,
        "slot": "1",
        "type": "t_mapping(t_address,t_mapping(t_address,t_bool))"
      },
      {
        "astId": 178,
        "contract": "contracts/vaults/FortiFiSAMSVault.sol:FortiFiSAMSVault",
        "label": "_uri",
        "offset": 0,
        "slot": "2",
        "type": "t_string_storage"
      },
      {
        "astId": 1413,
        "contract": "contracts/vaults/FortiFiSAMSVault.sol:FortiFiSAMSVault",
        "label": "_totalSupply",
        "offset": 0,
        "slot": "3",
        "type": "t_mapping(t_uint256,t_uint256)"
      },
      {
        "astId": 7,
        "contract": "contracts/vaults/FortiFiSAMSVault.sol:FortiFiSAMSVault",
        "label": "_owner",
        "offset": 0,
        "slot": "4",
        "type": "t_address"
      },
      {
        "astId": 115,
        "contract": "contracts/vaults/FortiFiSAMSVault.sol:FortiFiSAMSVault",
        "label": "_status",
        "offset": 0,
        "slot": "5",
        "type": "t_uint256"
      },
      {
        "astId": 2091,
        "contract": "contracts/vaults/FortiFiSAMSVault.sol:FortiFiSAMSVault",
        "label": "name",
        "offset": 0,
        "slot": "6",
        "type": "t_string_storage"
      },
      {
        "astId": 2093,
        "contract": "contracts/vaults/FortiFiSAMSVault.sol:FortiFiSAMSVault",
        "label": "symbol",
        "offset": 0,
        "slot": "7",
        "type": "t_string_storage"
      },
      {
        "astId": 2095,
        "contract": "contracts/vaults/FortiFiSAMSVault.sol:FortiFiSAMSVault",
        "label": "depositToken",
        "offset": 0,
        "slot": "8",
        "type": "t_address"
      },
      {
        "astId": 2097,
        "contract": "contracts/vaults/FortiFiSAMSVault.sol:FortiFiSAMSVault",
        "label": "wrappedNative",
        "offset": 0,
        "slot": "9",
        "type": "t_address"
      },
      {
        "astId": 2102,
        "contract": "contracts/vaults/FortiFiSAMSVault.sol:FortiFiSAMSVault",
        "label": "minDeposit",
        "offset": 0,
        "slot": "10",
        "type": "t_uint256"
      },
      {
        "astId": 2105,
        "contract": "contracts/vaults/FortiFiSAMSVault.sol:FortiFiSAMSVault",
        "label": "nextToken",
        "offset": 0,
        "slot": "11",
        "type": "t_uint256"
      },
      {
        "astId": 2108,
        "contract": "contracts/vaults/FortiFiSAMSVault.sol:FortiFiSAMSVault",
        "label": "paused",
        "offset": 0,
        "slot": "12",
        "type": "t_bool"
      },
      {
        "astId": 2111,
        "contract": "contracts/vaults/FortiFiSAMSVault.sol:FortiFiSAMSVault",
        "label": "feeCalc",
        "offset": 1,
        "slot": "12",
        "type": "t_contract(IFortiFiFeeCalculator)1995"
      },
      {
        "astId": 2114,
        "contract": "contracts/vaults/FortiFiSAMSVault.sol:FortiFiSAMSVault",
        "label": "feeMgr",
        "offset": 0,
        "slot": "13",
        "type": "t_contract(IFortiFiFeeManager)2006"
      },
      {
        "astId": 2118,
        "contract": "contracts/vaults/FortiFiSAMSVault.sol:FortiFiSAMSVault",
        "label": "strategies",
        "offset": 0,
        "slot": "14",
        "type": "t_array(t_struct(Strategy)3352_storage)dyn_storage"
      },
      {
        "astId": 2123,
        "contract": "contracts/vaults/FortiFiSAMSVault.sol:FortiFiSAMSVault",
        "label": "tokenInfo",
        "offset": 0,
        "slot": "15",
        "type": "t_mapping(t_uint256,t_struct(TokenInfo)3365_storage)"
      },
      {
        "astId": 2127,
        "contract": "contracts/vaults/FortiFiSAMSVault.sol:FortiFiSAMSVault",
        "label": "noFeesFor",
        "offset": 0,
        "slot": "16",
        "type": "t_mapping(t_address,t_bool)"
      }
    ],
    "types": {
      "t_address": {
        "encoding": "inplace",
        "label": "address",
        "numberOfBytes": "20"
      },
      "t_array(t_struct(Position)3358_storage)dyn_storage": {
        "base": "t_struct(Position)3358_storage",
        "encoding": "dynamic_array",
        "label": "struct ISAMS.Position[]",
        "numberOfBytes": "32"
      },
      "t_array(t_struct(Strategy)3352_storage)dyn_storage": {
        "base": "t_struct(Strategy)3352_storage",
        "encoding": "dynamic_array",
        "label": "struct ISAMS.Strategy[]",
        "numberOfBytes": "32"
      },
      "t_bool": {
        "encoding": "inplace",
        "label": "bool",
        "numberOfBytes": "1"
      },
      "t_contract(IFortiFiFeeCalculator)1995": {
        "encoding": "inplace",
        "label": "contract IFortiFiFeeCalculator",
        "numberOfBytes": "20"
      },
      "t_contract(IFortiFiFeeManager)2006": {
        "encoding": "inplace",
        "label": "contract IFortiFiFeeManager",
        "numberOfBytes": "20"
      },
      "t_mapping(t_address,t_bool)": {
        "encoding": "mapping",
        "key": "t_address",
        "label": "mapping(address => bool)",
        "numberOfBytes": "32",
        "value": "t_bool"
      },
      "t_mapping(t_address,t_mapping(t_address,t_bool))": {
        "encoding": "mapping",
        "key": "t_address",
        "label": "mapping(address => mapping(address => bool))",
        "numberOfBytes": "32",
        "value": "t_mapping(t_address,t_bool)"
      },
      "t_mapping(t_address,t_uint256)": {
        "encoding": "mapping",
        "key": "t_address",
        "label": "mapping(address => uint256)",
        "numberOfBytes": "32",
        "value": "t_uint256"
      },
      "t_mapping(t_uint256,t_mapping(t_address,t_uint256))": {
        "encoding": "mapping",
        "key": "t_uint256",
        "label": "mapping(uint256 => mapping(address => uint256))",
        "numberOfBytes": "32",
        "value": "t_mapping(t_address,t_uint256)"
      },
      "t_mapping(t_uint256,t_struct(TokenInfo)3365_storage)": {
        "encoding": "mapping",
        "key": "t_uint256",
        "label": "mapping(uint256 => struct ISAMS.TokenInfo)",
        "numberOfBytes": "32",
        "value": "t_struct(TokenInfo)3365_storage"
      },
      "t_mapping(t_uint256,t_uint256)": {
        "encoding": "mapping",
        "key": "t_uint256",
        "label": "mapping(uint256 => uint256)",
        "numberOfBytes": "32",
        "value": "t_uint256"
      },
      "t_string_storage": {
        "encoding": "bytes",
        "label": "string",
        "numberOfBytes": "32"
      },
      "t_struct(Position)3358_storage": {
        "encoding": "inplace",
        "label": "struct ISAMS.Position",
        "members": [
          {
            "astId": 3355,
            "contract": "contracts/vaults/FortiFiSAMSVault.sol:FortiFiSAMSVault",
            "label": "strategy",
            "offset": 0,
            "slot": "0",
            "type": "t_struct(Strategy)3352_storage"
          },
          {
            "astId": 3357,
            "contract": "contracts/vaults/FortiFiSAMSVault.sol:FortiFiSAMSVault",
            "label": "receipt",
            "offset": 0,
            "slot": "1",
            "type": "t_uint256"
          }
        ],
        "numberOfBytes": "64"
      },
      "t_struct(Strategy)3352_storage": {
        "encoding": "inplace",
        "label": "struct ISAMS.Strategy",
        "members": [
          {
            "astId": 3347,
            "contract": "contracts/vaults/FortiFiSAMSVault.sol:FortiFiSAMSVault",
            "label": "strategy",
            "offset": 0,
            "slot": "0",
            "type": "t_address"
          },
          {
            "astId": 3349,
            "contract": "contracts/vaults/FortiFiSAMSVault.sol:FortiFiSAMSVault",
            "label": "isFortiFi",
            "offset": 20,
            "slot": "0",
            "type": "t_bool"
          },
          {
            "astId": 3351,
            "contract": "contracts/vaults/FortiFiSAMSVault.sol:FortiFiSAMSVault",
            "label": "bps",
            "offset": 21,
            "slot": "0",
            "type": "t_uint16"
          }
        ],
        "numberOfBytes": "32"
      },
      "t_struct(TokenInfo)3365_storage": {
        "encoding": "inplace",
        "label": "struct ISAMS.TokenInfo",
        "members": [
          {
            "astId": 3360,
            "contract": "contracts/vaults/FortiFiSAMSVault.sol:FortiFiSAMSVault",
            "label": "deposit",
            "offset": 0,
            "slot": "0",
            "type": "t_uint256"
          },
          {
            "astId": 3364,
            "contract": "contracts/vaults/FortiFiSAMSVault.sol:FortiFiSAMSVault",
            "label": "positions",
            "offset": 0,
            "slot": "1",
            "type": "t_array(t_struct(Position)3358_storage)dyn_storage"
          }
        ],
        "numberOfBytes": "64"
      },
      "t_uint16": {
        "encoding": "inplace",
        "label": "uint16",
        "numberOfBytes": "2"
      },
      "t_uint256": {
        "encoding": "inplace",
        "label": "uint256",
        "numberOfBytes": "32"
      }
    }
  }
}