{
  "address": "0xD04655fA20209a5b134b2a6182b20b7cdaE0f24a",
  "abi": [
    {
      "inputs": [
        {
          "internalType": "string",
          "name": "_name",
          "type": "string"
        },
        {
          "internalType": "string",
          "name": "_symbol",
          "type": "string"
        },
        {
          "internalType": "string",
          "name": "_metadata",
          "type": "string"
        },
        {
          "internalType": "address",
          "name": "_wrappedNative",
          "type": "address"
        },
        {
          "internalType": "address",
          "name": "_feeManager",
          "type": "address"
        },
        {
          "internalType": "address",
          "name": "_feeCalculator",
          "type": "address"
        },
        {
          "internalType": "address",
          "name": "_nativeOracle",
          "type": "address"
        },
        {
          "components": [
            {
              "internalType": "address",
              "name": "strategy",
              "type": "address"
            },
            {
              "internalType": "address",
              "name": "depositToken",
              "type": "address"
            },
            {
              "internalType": "address",
              "name": "router",
              "type": "address"
            },
            {
              "internalType": "address",
              "name": "oracle",
              "type": "address"
            },
            {
              "internalType": "bool",
              "name": "isFortiFi",
              "type": "bool"
            },
            {
              "internalType": "bool",
              "name": "isSAMS",
              "type": "bool"
            },
            {
              "internalType": "uint16",
              "name": "bps",
              "type": "uint16"
            },
            {
              "internalType": "uint8",
              "name": "decimals",
              "type": "uint8"
            }
          ],
          "internalType": "struct IMASS.Strategy[]",
          "name": "_strategies",
          "type": "tuple[]"
        }
      ],
      "stateMutability": "nonpayable",
      "type": "constructor"
    },
    {
      "inputs": [],
      "name": "CantAddToReceipt",
      "type": "error"
    },
    {
      "inputs": [],
      "name": "CantWithdrawStrategyReceipts",
      "type": "error"
    },
    {
      "inputs": [],
      "name": "ContractPaused",
      "type": "error"
    },
    {
      "inputs": [],
      "name": "DuplicateStrategy",
      "type": "error"
    },
    {
      "inputs": [],
      "name": "FailedToRefund",
      "type": "error"
    },
    {
      "inputs": [],
      "name": "InvalidBps",
      "type": "error"
    },
    {
      "inputs": [],
      "name": "InvalidDeposit",
      "type": "error"
    },
    {
      "inputs": [],
      "name": "InvalidMinDeposit",
      "type": "error"
    },
    {
      "inputs": [],
      "name": "InvalidOracle",
      "type": "error"
    },
    {
      "inputs": [],
      "name": "InvalidSlippage",
      "type": "error"
    },
    {
      "inputs": [],
      "name": "NoStrategies",
      "type": "error"
    },
    {
      "inputs": [],
      "name": "NotTokenOwner",
      "type": "error"
    },
    {
      "inputs": [],
      "name": "SwapFailed",
      "type": "error"
    },
    {
      "inputs": [],
      "name": "TooManyStrategies",
      "type": "error"
    },
    {
      "inputs": [],
      "name": "ZeroAddress",
      "type": "error"
    },
    {
      "anonymous": false,
      "inputs": [
        {
          "indexed": true,
          "internalType": "address",
          "name": "depositor",
          "type": "address"
        },
        {
          "indexed": true,
          "internalType": "uint256",
          "name": "tokenId",
          "type": "uint256"
        },
        {
          "indexed": false,
          "internalType": "uint256",
          "name": "amount",
          "type": "uint256"
        },
        {
          "components": [
            {
              "internalType": "uint256",
              "name": "deposit",
              "type": "uint256"
            },
            {
              "components": [
                {
                  "components": [
                    {
                      "internalType": "address",
                      "name": "strategy",
                      "type": "address"
                    },
                    {
                      "internalType": "address",
                      "name": "depositToken",
                      "type": "address"
                    },
                    {
                      "internalType": "address",
                      "name": "router",
                      "type": "address"
                    },
                    {
                      "internalType": "address",
                      "name": "oracle",
                      "type": "address"
                    },
                    {
                      "internalType": "bool",
                      "name": "isFortiFi",
                      "type": "bool"
                    },
                    {
                      "internalType": "bool",
                      "name": "isSAMS",
                      "type": "bool"
                    },
                    {
                      "internalType": "uint16",
                      "name": "bps",
                      "type": "uint16"
                    },
                    {
                      "internalType": "uint8",
                      "name": "decimals",
                      "type": "uint8"
                    }
                  ],
                  "internalType": "struct IMASS.Strategy",
                  "name": "strategy",
                  "type": "tuple"
                },
                {
                  "internalType": "uint256",
                  "name": "receipt",
                  "type": "uint256"
                }
              ],
              "internalType": "struct IMASS.Position[]",
              "name": "positions",
              "type": "tuple[]"
            }
          ],
          "indexed": false,
          "internalType": "struct IMASS.TokenInfo",
          "name": "tokenInfo",
          "type": "tuple"
        }
      ],
      "name": "Add",
      "type": "event"
    },
    {
      "anonymous": false,
      "inputs": [
        {
          "indexed": true,
          "internalType": "address",
          "name": "account",
          "type": "address"
        },
        {
          "indexed": true,
          "internalType": "address",
          "name": "operator",
          "type": "address"
        },
        {
          "indexed": false,
          "internalType": "bool",
          "name": "approved",
          "type": "bool"
        }
      ],
      "name": "ApprovalForAll",
      "type": "event"
    },
    {
      "anonymous": false,
      "inputs": [],
      "name": "ApprovalsRefreshed",
      "type": "event"
    },
    {
      "anonymous": false,
      "inputs": [
        {
          "indexed": true,
          "internalType": "address",
          "name": "depositor",
          "type": "address"
        },
        {
          "indexed": true,
          "internalType": "uint256",
          "name": "tokenId",
          "type": "uint256"
        },
        {
          "indexed": false,
          "internalType": "uint256",
          "name": "amount",
          "type": "uint256"
        },
        {
          "components": [
            {
              "internalType": "uint256",
              "name": "deposit",
              "type": "uint256"
            },
            {
              "components": [
                {
                  "components": [
                    {
                      "internalType": "address",
                      "name": "strategy",
                      "type": "address"
                    },
                    {
                      "internalType": "address",
                      "name": "depositToken",
                      "type": "address"
                    },
                    {
                      "internalType": "address",
                      "name": "router",
                      "type": "address"
                    },
                    {
                      "internalType": "address",
                      "name": "oracle",
                      "type": "address"
                    },
                    {
                      "internalType": "bool",
                      "name": "isFortiFi",
                      "type": "bool"
                    },
                    {
                      "internalType": "bool",
                      "name": "isSAMS",
                      "type": "bool"
                    },
                    {
                      "internalType": "uint16",
                      "name": "bps",
                      "type": "uint16"
                    },
                    {
                      "internalType": "uint8",
                      "name": "decimals",
                      "type": "uint8"
                    }
                  ],
                  "internalType": "struct IMASS.Strategy",
                  "name": "strategy",
                  "type": "tuple"
                },
                {
                  "internalType": "uint256",
                  "name": "receipt",
                  "type": "uint256"
                }
              ],
              "internalType": "struct IMASS.Position[]",
              "name": "positions",
              "type": "tuple[]"
            }
          ],
          "indexed": false,
          "internalType": "struct IMASS.TokenInfo",
          "name": "tokenInfo",
          "type": "tuple"
        }
      ],
      "name": "Deposit",
      "type": "event"
    },
    {
      "anonymous": false,
      "inputs": [
        {
          "indexed": false,
          "internalType": "address",
          "name": "feeCalculator",
          "type": "address"
        }
      ],
      "name": "FeeCalculatorSet",
      "type": "event"
    },
    {
      "anonymous": false,
      "inputs": [
        {
          "indexed": false,
          "internalType": "address",
          "name": "feeManager",
          "type": "address"
        }
      ],
      "name": "FeeManagerSet",
      "type": "event"
    },
    {
      "anonymous": false,
      "inputs": [
        {
          "indexed": false,
          "internalType": "uint256",
          "name": "minAmount",
          "type": "uint256"
        }
      ],
      "name": "MinDepositSet",
      "type": "event"
    },
    {
      "anonymous": false,
      "inputs": [
        {
          "indexed": false,
          "internalType": "address",
          "name": "oracle",
          "type": "address"
        }
      ],
      "name": "NativeOracleSet",
      "type": "event"
    },
    {
      "anonymous": false,
      "inputs": [
        {
          "indexed": true,
          "internalType": "address",
          "name": "previousOwner",
          "type": "address"
        },
        {
          "indexed": true,
          "internalType": "address",
          "name": "newOwner",
          "type": "address"
        }
      ],
      "name": "OwnershipTransferred",
      "type": "event"
    },
    {
      "anonymous": false,
      "inputs": [
        {
          "indexed": false,
          "internalType": "bool",
          "name": "paused",
          "type": "bool"
        }
      ],
      "name": "PauseStateUpdated",
      "type": "event"
    },
    {
      "anonymous": false,
      "inputs": [
        {
          "indexed": true,
          "internalType": "uint256",
          "name": "tokenId",
          "type": "uint256"
        },
        {
          "indexed": false,
          "internalType": "uint256",
          "name": "amount",
          "type": "uint256"
        },
        {
          "components": [
            {
              "internalType": "uint256",
              "name": "deposit",
              "type": "uint256"
            },
            {
              "components": [
                {
                  "components": [
                    {
                      "internalType": "address",
                      "name": "strategy",
                      "type": "address"
                    },
                    {
                      "internalType": "address",
                      "name": "depositToken",
                      "type": "address"
                    },
                    {
                      "internalType": "address",
                      "name": "router",
                      "type": "address"
                    },
                    {
                      "internalType": "address",
                      "name": "oracle",
                      "type": "address"
                    },
                    {
                      "internalType": "bool",
                      "name": "isFortiFi",
                      "type": "bool"
                    },
                    {
                      "internalType": "bool",
                      "name": "isSAMS",
                      "type": "bool"
                    },
                    {
                      "internalType": "uint16",
                      "name": "bps",
                      "type": "uint16"
                    },
                    {
                      "internalType": "uint8",
                      "name": "decimals",
                      "type": "uint8"
                    }
                  ],
                  "internalType": "struct IMASS.Strategy",
                  "name": "strategy",
                  "type": "tuple"
                },
                {
                  "internalType": "uint256",
                  "name": "receipt",
                  "type": "uint256"
                }
              ],
              "internalType": "struct IMASS.Position[]",
              "name": "positions",
              "type": "tuple[]"
            }
          ],
          "indexed": false,
          "internalType": "struct IMASS.TokenInfo",
          "name": "tokenInfo",
          "type": "tuple"
        }
      ],
      "name": "Rebalance",
      "type": "event"
    },
    {
      "anonymous": false,
      "inputs": [
        {
          "indexed": false,
          "internalType": "uint16",
          "name": "slippage",
          "type": "uint16"
        }
      ],
      "name": "SlippageSet",
      "type": "event"
    },
    {
      "anonymous": false,
      "inputs": [
        {
          "components": [
            {
              "internalType": "address",
              "name": "strategy",
              "type": "address"
            },
            {
              "internalType": "address",
              "name": "depositToken",
              "type": "address"
            },
            {
              "internalType": "address",
              "name": "router",
              "type": "address"
            },
            {
              "internalType": "address",
              "name": "oracle",
              "type": "address"
            },
            {
              "internalType": "bool",
              "name": "isFortiFi",
              "type": "bool"
            },
            {
              "internalType": "bool",
              "name": "isSAMS",
              "type": "bool"
            },
            {
              "internalType": "uint16",
              "name": "bps",
              "type": "uint16"
            },
            {
              "internalType": "uint8",
              "name": "decimals",
              "type": "uint8"
            }
          ],
          "indexed": false,
          "internalType": "struct IMASS.Strategy[]",
          "name": "",
          "type": "tuple[]"
        }
      ],
      "name": "StrategiesSet",
      "type": "event"
    },
    {
      "anonymous": false,
      "inputs": [
        {
          "indexed": true,
          "internalType": "address",
          "name": "operator",
          "type": "address"
        },
        {
          "indexed": true,
          "internalType": "address",
          "name": "from",
          "type": "address"
        },
        {
          "indexed": true,
          "internalType": "address",
          "name": "to",
          "type": "address"
        },
        {
          "indexed": false,
          "internalType": "uint256[]",
          "name": "ids",
          "type": "uint256[]"
        },
        {
          "indexed": false,
          "internalType": "uint256[]",
          "name": "values",
          "type": "uint256[]"
        }
      ],
      "name": "TransferBatch",
      "type": "event"
    },
    {
      "anonymous": false,
      "inputs": [
        {
          "indexed": true,
          "internalType": "address",
          "name": "operator",
          "type": "address"
        },
        {
          "indexed": true,
          "internalType": "address",
          "name": "from",
          "type": "address"
        },
        {
          "indexed": true,
          "internalType": "address",
          "name": "to",
          "type": "address"
        },
        {
          "indexed": false,
          "internalType": "uint256",
          "name": "id",
          "type": "uint256"
        },
        {
          "indexed": false,
          "internalType": "uint256",
          "name": "value",
          "type": "uint256"
        }
      ],
      "name": "TransferSingle",
      "type": "event"
    },
    {
      "anonymous": false,
      "inputs": [
        {
          "indexed": false,
          "internalType": "string",
          "name": "value",
          "type": "string"
        },
        {
          "indexed": true,
          "internalType": "uint256",
          "name": "id",
          "type": "uint256"
        }
      ],
      "name": "URI",
      "type": "event"
    },
    {
      "anonymous": false,
      "inputs": [
        {
          "indexed": true,
          "internalType": "address",
          "name": "depositor",
          "type": "address"
        },
        {
          "indexed": true,
          "internalType": "uint256",
          "name": "tokenId",
          "type": "uint256"
        },
        {
          "indexed": false,
          "internalType": "uint256",
          "name": "amountWithdrawn",
          "type": "uint256"
        },
        {
          "indexed": false,
          "internalType": "uint256",
          "name": "profit",
          "type": "uint256"
        },
        {
          "indexed": false,
          "internalType": "uint256",
          "name": "fee",
          "type": "uint256"
        }
      ],
      "name": "Withdrawal",
      "type": "event"
    },
    {
      "inputs": [],
      "name": "BPS",
      "outputs": [
        {
          "internalType": "uint16",
          "name": "",
          "type": "uint16"
        }
      ],
      "stateMutability": "view",
      "type": "function"
    },
    {
      "inputs": [],
      "name": "SWAP_DEADLINE_BUFFER",
      "outputs": [
        {
          "internalType": "uint16",
          "name": "",
          "type": "uint16"
        }
      ],
      "stateMutability": "view",
      "type": "function"
    },
    {
      "inputs": [],
      "name": "WNATIVE_DECIMALS",
      "outputs": [
        {
          "internalType": "uint8",
          "name": "",
          "type": "uint8"
        }
      ],
      "stateMutability": "view",
      "type": "function"
    },
    {
      "inputs": [
        {
          "internalType": "uint256",
          "name": "_amount",
          "type": "uint256"
        },
        {
          "internalType": "uint256",
          "name": "_tokenId",
          "type": "uint256"
        }
      ],
      "name": "add",
      "outputs": [
        {
          "components": [
            {
              "internalType": "uint256",
              "name": "deposit",
              "type": "uint256"
            },
            {
              "components": [
                {
                  "components": [
                    {
                      "internalType": "address",
                      "name": "strategy",
                      "type": "address"
                    },
                    {
                      "internalType": "address",
                      "name": "depositToken",
                      "type": "address"
                    },
                    {
                      "internalType": "address",
                      "name": "router",
                      "type": "address"
                    },
                    {
                      "internalType": "address",
                      "name": "oracle",
                      "type": "address"
                    },
                    {
                      "internalType": "bool",
                      "name": "isFortiFi",
                      "type": "bool"
                    },
                    {
                      "internalType": "bool",
                      "name": "isSAMS",
                      "type": "bool"
                    },
                    {
                      "internalType": "uint16",
                      "name": "bps",
                      "type": "uint16"
                    },
                    {
                      "internalType": "uint8",
                      "name": "decimals",
                      "type": "uint8"
                    }
                  ],
                  "internalType": "struct IMASS.Strategy",
                  "name": "strategy",
                  "type": "tuple"
                },
                {
                  "internalType": "uint256",
                  "name": "receipt",
                  "type": "uint256"
                }
              ],
              "internalType": "struct IMASS.Position[]",
              "name": "positions",
              "type": "tuple[]"
            }
          ],
          "internalType": "struct IMASS.TokenInfo",
          "name": "_info",
          "type": "tuple"
        }
      ],
      "stateMutability": "nonpayable",
      "type": "function"
    },
    {
      "inputs": [
        {
          "internalType": "address",
          "name": "account",
          "type": "address"
        },
        {
          "internalType": "uint256",
          "name": "id",
          "type": "uint256"
        }
      ],
      "name": "balanceOf",
      "outputs": [
        {
          "internalType": "uint256",
          "name": "",
          "type": "uint256"
        }
      ],
      "stateMutability": "view",
      "type": "function"
    },
    {
      "inputs": [
        {
          "internalType": "address[]",
          "name": "accounts",
          "type": "address[]"
        },
        {
          "internalType": "uint256[]",
          "name": "ids",
          "type": "uint256[]"
        }
      ],
      "name": "balanceOfBatch",
      "outputs": [
        {
          "internalType": "uint256[]",
          "name": "",
          "type": "uint256[]"
        }
      ],
      "stateMutability": "view",
      "type": "function"
    },
    {
      "inputs": [
        {
          "internalType": "uint256",
          "name": "_amount",
          "type": "uint256"
        }
      ],
      "name": "deposit",
      "outputs": [
        {
          "internalType": "uint256",
          "name": "_tokenId",
          "type": "uint256"
        },
        {
          "components": [
            {
              "internalType": "uint256",
              "name": "deposit",
              "type": "uint256"
            },
            {
              "components": [
                {
                  "components": [
                    {
                      "internalType": "address",
                      "name": "strategy",
                      "type": "address"
                    },
                    {
                      "internalType": "address",
                      "name": "depositToken",
                      "type": "address"
                    },
                    {
                      "internalType": "address",
                      "name": "router",
                      "type": "address"
                    },
                    {
                      "internalType": "address",
                      "name": "oracle",
                      "type": "address"
                    },
                    {
                      "internalType": "bool",
                      "name": "isFortiFi",
                      "type": "bool"
                    },
                    {
                      "internalType": "bool",
                      "name": "isSAMS",
                      "type": "bool"
                    },
                    {
                      "internalType": "uint16",
                      "name": "bps",
                      "type": "uint16"
                    },
                    {
                      "internalType": "uint8",
                      "name": "decimals",
                      "type": "uint8"
                    }
                  ],
                  "internalType": "struct IMASS.Strategy",
                  "name": "strategy",
                  "type": "tuple"
                },
                {
                  "internalType": "uint256",
                  "name": "receipt",
                  "type": "uint256"
                }
              ],
              "internalType": "struct IMASS.Position[]",
              "name": "positions",
              "type": "tuple[]"
            }
          ],
          "internalType": "struct IMASS.TokenInfo",
          "name": "_info",
          "type": "tuple"
        }
      ],
      "stateMutability": "nonpayable",
      "type": "function"
    },
    {
      "inputs": [
        {
          "internalType": "uint256",
          "name": "id",
          "type": "uint256"
        }
      ],
      "name": "exists",
      "outputs": [
        {
          "internalType": "bool",
          "name": "",
          "type": "bool"
        }
      ],
      "stateMutability": "view",
      "type": "function"
    },
    {
      "inputs": [],
      "name": "feeCalc",
      "outputs": [
        {
          "internalType": "contract IFortiFiFeeCalculator",
          "name": "",
          "type": "address"
        }
      ],
      "stateMutability": "view",
      "type": "function"
    },
    {
      "inputs": [],
      "name": "feeMgr",
      "outputs": [
        {
          "internalType": "contract IFortiFiFeeManager",
          "name": "",
          "type": "address"
        }
      ],
      "stateMutability": "view",
      "type": "function"
    },
    {
      "inputs": [],
      "name": "flipPaused",
      "outputs": [],
      "stateMutability": "nonpayable",
      "type": "function"
    },
    {
      "inputs": [],
      "name": "getStrategies",
      "outputs": [
        {
          "components": [
            {
              "internalType": "address",
              "name": "strategy",
              "type": "address"
            },
            {
              "internalType": "address",
              "name": "depositToken",
              "type": "address"
            },
            {
              "internalType": "address",
              "name": "router",
              "type": "address"
            },
            {
              "internalType": "address",
              "name": "oracle",
              "type": "address"
            },
            {
              "internalType": "bool",
              "name": "isFortiFi",
              "type": "bool"
            },
            {
              "internalType": "bool",
              "name": "isSAMS",
              "type": "bool"
            },
            {
              "internalType": "uint16",
              "name": "bps",
              "type": "uint16"
            },
            {
              "internalType": "uint8",
              "name": "decimals",
              "type": "uint8"
            }
          ],
          "internalType": "struct IMASS.Strategy[]",
          "name": "",
          "type": "tuple[]"
        }
      ],
      "stateMutability": "view",
      "type": "function"
    },
    {
      "inputs": [
        {
          "internalType": "uint256",
          "name": "_tokenId",
          "type": "uint256"
        }
      ],
      "name": "getTokenInfo",
      "outputs": [
        {
          "components": [
            {
              "internalType": "uint256",
              "name": "deposit",
              "type": "uint256"
            },
            {
              "components": [
                {
                  "components": [
                    {
                      "internalType": "address",
                      "name": "strategy",
                      "type": "address"
                    },
                    {
                      "internalType": "address",
                      "name": "depositToken",
                      "type": "address"
                    },
                    {
                      "internalType": "address",
                      "name": "router",
                      "type": "address"
                    },
                    {
                      "internalType": "address",
                      "name": "oracle",
                      "type": "address"
                    },
                    {
                      "internalType": "bool",
                      "name": "isFortiFi",
                      "type": "bool"
                    },
                    {
                      "internalType": "bool",
                      "name": "isSAMS",
                      "type": "bool"
                    },
                    {
                      "internalType": "uint16",
                      "name": "bps",
                      "type": "uint16"
                    },
                    {
                      "internalType": "uint8",
                      "name": "decimals",
                      "type": "uint8"
                    }
                  ],
                  "internalType": "struct IMASS.Strategy",
                  "name": "strategy",
                  "type": "tuple"
                },
                {
                  "internalType": "uint256",
                  "name": "receipt",
                  "type": "uint256"
                }
              ],
              "internalType": "struct IMASS.Position[]",
              "name": "positions",
              "type": "tuple[]"
            }
          ],
          "internalType": "struct IMASS.TokenInfo",
          "name": "",
          "type": "tuple"
        }
      ],
      "stateMutability": "view",
      "type": "function"
    },
    {
      "inputs": [
        {
          "internalType": "address",
          "name": "account",
          "type": "address"
        },
        {
          "internalType": "address",
          "name": "operator",
          "type": "address"
        }
      ],
      "name": "isApprovedForAll",
      "outputs": [
        {
          "internalType": "bool",
          "name": "",
          "type": "bool"
        }
      ],
      "stateMutability": "view",
      "type": "function"
    },
    {
      "inputs": [],
      "name": "minDeposit",
      "outputs": [
        {
          "internalType": "uint256",
          "name": "",
          "type": "uint256"
        }
      ],
      "stateMutability": "view",
      "type": "function"
    },
    {
      "inputs": [],
      "name": "name",
      "outputs": [
        {
          "internalType": "string",
          "name": "",
          "type": "string"
        }
      ],
      "stateMutability": "view",
      "type": "function"
    },
    {
      "inputs": [],
      "name": "nativeOracle",
      "outputs": [
        {
          "internalType": "contract IFortiFiPriceOracle",
          "name": "",
          "type": "address"
        }
      ],
      "stateMutability": "view",
      "type": "function"
    },
    {
      "inputs": [],
      "name": "nextToken",
      "outputs": [
        {
          "internalType": "uint256",
          "name": "",
          "type": "uint256"
        }
      ],
      "stateMutability": "view",
      "type": "function"
    },
    {
      "inputs": [
        {
          "internalType": "address",
          "name": "",
          "type": "address"
        },
        {
          "internalType": "address",
          "name": "",
          "type": "address"
        },
        {
          "internalType": "uint256[]",
          "name": "",
          "type": "uint256[]"
        },
        {
          "internalType": "uint256[]",
          "name": "",
          "type": "uint256[]"
        },
        {
          "internalType": "bytes",
          "name": "",
          "type": "bytes"
        }
      ],
      "name": "onERC1155BatchReceived",
      "outputs": [
        {
          "internalType": "bytes4",
          "name": "",
          "type": "bytes4"
        }
      ],
      "stateMutability": "nonpayable",
      "type": "function"
    },
    {
      "inputs": [
        {
          "internalType": "address",
          "name": "",
          "type": "address"
        },
        {
          "internalType": "address",
          "name": "",
          "type": "address"
        },
        {
          "internalType": "uint256",
          "name": "",
          "type": "uint256"
        },
        {
          "internalType": "uint256",
          "name": "",
          "type": "uint256"
        },
        {
          "internalType": "bytes",
          "name": "",
          "type": "bytes"
        }
      ],
      "name": "onERC1155Received",
      "outputs": [
        {
          "internalType": "bytes4",
          "name": "",
          "type": "bytes4"
        }
      ],
      "stateMutability": "nonpayable",
      "type": "function"
    },
    {
      "inputs": [],
      "name": "owner",
      "outputs": [
        {
          "internalType": "address",
          "name": "",
          "type": "address"
        }
      ],
      "stateMutability": "view",
      "type": "function"
    },
    {
      "inputs": [],
      "name": "paused",
      "outputs": [
        {
          "internalType": "bool",
          "name": "",
          "type": "bool"
        }
      ],
      "stateMutability": "view",
      "type": "function"
    },
    {
      "inputs": [
        {
          "internalType": "uint256",
          "name": "_tokenId",
          "type": "uint256"
        }
      ],
      "name": "rebalance",
      "outputs": [
        {
          "components": [
            {
              "internalType": "uint256",
              "name": "deposit",
              "type": "uint256"
            },
            {
              "components": [
                {
                  "components": [
                    {
                      "internalType": "address",
                      "name": "strategy",
                      "type": "address"
                    },
                    {
                      "internalType": "address",
                      "name": "depositToken",
                      "type": "address"
                    },
                    {
                      "internalType": "address",
                      "name": "router",
                      "type": "address"
                    },
                    {
                      "internalType": "address",
                      "name": "oracle",
                      "type": "address"
                    },
                    {
                      "internalType": "bool",
                      "name": "isFortiFi",
                      "type": "bool"
                    },
                    {
                      "internalType": "bool",
                      "name": "isSAMS",
                      "type": "bool"
                    },
                    {
                      "internalType": "uint16",
                      "name": "bps",
                      "type": "uint16"
                    },
                    {
                      "internalType": "uint8",
                      "name": "decimals",
                      "type": "uint8"
                    }
                  ],
                  "internalType": "struct IMASS.Strategy",
                  "name": "strategy",
                  "type": "tuple"
                },
                {
                  "internalType": "uint256",
                  "name": "receipt",
                  "type": "uint256"
                }
              ],
              "internalType": "struct IMASS.Position[]",
              "name": "positions",
              "type": "tuple[]"
            }
          ],
          "internalType": "struct IMASS.TokenInfo",
          "name": "",
          "type": "tuple"
        }
      ],
      "stateMutability": "nonpayable",
      "type": "function"
    },
    {
      "inputs": [
        {
          "internalType": "address",
          "name": "_token",
          "type": "address"
        },
        {
          "internalType": "uint256",
          "name": "_amount",
          "type": "uint256"
        }
      ],
      "name": "recoverERC20",
      "outputs": [],
      "stateMutability": "nonpayable",
      "type": "function"
    },
    {
      "inputs": [],
      "name": "refreshApprovals",
      "outputs": [],
      "stateMutability": "nonpayable",
      "type": "function"
    },
    {
      "inputs": [],
      "name": "renounceOwnership",
      "outputs": [],
      "stateMutability": "nonpayable",
      "type": "function"
    },
    {
      "inputs": [
        {
          "internalType": "address",
          "name": "from",
          "type": "address"
        },
        {
          "internalType": "address",
          "name": "to",
          "type": "address"
        },
        {
          "internalType": "uint256[]",
          "name": "ids",
          "type": "uint256[]"
        },
        {
          "internalType": "uint256[]",
          "name": "amounts",
          "type": "uint256[]"
        },
        {
          "internalType": "bytes",
          "name": "data",
          "type": "bytes"
        }
      ],
      "name": "safeBatchTransferFrom",
      "outputs": [],
      "stateMutability": "nonpayable",
      "type": "function"
    },
    {
      "inputs": [
        {
          "internalType": "address",
          "name": "from",
          "type": "address"
        },
        {
          "internalType": "address",
          "name": "to",
          "type": "address"
        },
        {
          "internalType": "uint256",
          "name": "id",
          "type": "uint256"
        },
        {
          "internalType": "uint256",
          "name": "amount",
          "type": "uint256"
        },
        {
          "internalType": "bytes",
          "name": "data",
          "type": "bytes"
        }
      ],
      "name": "safeTransferFrom",
      "outputs": [],
      "stateMutability": "nonpayable",
      "type": "function"
    },
    {
      "inputs": [
        {
          "internalType": "address",
          "name": "operator",
          "type": "address"
        },
        {
          "internalType": "bool",
          "name": "approved",
          "type": "bool"
        }
      ],
      "name": "setApprovalForAll",
      "outputs": [],
      "stateMutability": "nonpayable",
      "type": "function"
    },
    {
      "inputs": [
        {
          "internalType": "address",
          "name": "_contract",
          "type": "address"
        }
      ],
      "name": "setFeeCalculator",
      "outputs": [],
      "stateMutability": "nonpayable",
      "type": "function"
    },
    {
      "inputs": [
        {
          "internalType": "address",
          "name": "_contract",
          "type": "address"
        }
      ],
      "name": "setFeeManager",
      "outputs": [],
      "stateMutability": "nonpayable",
      "type": "function"
    },
    {
      "inputs": [
        {
          "internalType": "uint256",
          "name": "_amount",
          "type": "uint256"
        }
      ],
      "name": "setMinDeposit",
      "outputs": [],
      "stateMutability": "nonpayable",
      "type": "function"
    },
    {
      "inputs": [
        {
          "internalType": "address",
          "name": "_contract",
          "type": "address"
        }
      ],
      "name": "setNativeOracle",
      "outputs": [],
      "stateMutability": "nonpayable",
      "type": "function"
    },
    {
      "inputs": [
        {
          "internalType": "uint16",
          "name": "_amount",
          "type": "uint16"
        }
      ],
      "name": "setSlippage",
      "outputs": [],
      "stateMutability": "nonpayable",
      "type": "function"
    },
    {
      "inputs": [
        {
          "components": [
            {
              "internalType": "address",
              "name": "strategy",
              "type": "address"
            },
            {
              "internalType": "address",
              "name": "depositToken",
              "type": "address"
            },
            {
              "internalType": "address",
              "name": "router",
              "type": "address"
            },
            {
              "internalType": "address",
              "name": "oracle",
              "type": "address"
            },
            {
              "internalType": "bool",
              "name": "isFortiFi",
              "type": "bool"
            },
            {
              "internalType": "bool",
              "name": "isSAMS",
              "type": "bool"
            },
            {
              "internalType": "uint16",
              "name": "bps",
              "type": "uint16"
            },
            {
              "internalType": "uint8",
              "name": "decimals",
              "type": "uint8"
            }
          ],
          "internalType": "struct IMASS.Strategy[]",
          "name": "_strategies",
          "type": "tuple[]"
        }
      ],
      "name": "setStrategies",
      "outputs": [],
      "stateMutability": "nonpayable",
      "type": "function"
    },
    {
      "inputs": [],
      "name": "slippageBps",
      "outputs": [
        {
          "internalType": "uint16",
          "name": "",
          "type": "uint16"
        }
      ],
      "stateMutability": "view",
      "type": "function"
    },
    {
      "inputs": [
        {
          "internalType": "uint256",
          "name": "",
          "type": "uint256"
        }
      ],
      "name": "strategies",
      "outputs": [
        {
          "internalType": "address",
          "name": "strategy",
          "type": "address"
        },
        {
          "internalType": "address",
          "name": "depositToken",
          "type": "address"
        },
        {
          "internalType": "address",
          "name": "router",
          "type": "address"
        },
        {
          "internalType": "address",
          "name": "oracle",
          "type": "address"
        },
        {
          "internalType": "bool",
          "name": "isFortiFi",
          "type": "bool"
        },
        {
          "internalType": "bool",
          "name": "isSAMS",
          "type": "bool"
        },
        {
          "internalType": "uint16",
          "name": "bps",
          "type": "uint16"
        },
        {
          "internalType": "uint8",
          "name": "decimals",
          "type": "uint8"
        }
      ],
      "stateMutability": "view",
      "type": "function"
    },
    {
      "inputs": [
        {
          "internalType": "bytes4",
          "name": "interfaceId",
          "type": "bytes4"
        }
      ],
      "name": "supportsInterface",
      "outputs": [
        {
          "internalType": "bool",
          "name": "",
          "type": "bool"
        }
      ],
      "stateMutability": "view",
      "type": "function"
    },
    {
      "inputs": [],
      "name": "symbol",
      "outputs": [
        {
          "internalType": "string",
          "name": "",
          "type": "string"
        }
      ],
      "stateMutability": "view",
      "type": "function"
    },
    {
      "inputs": [
        {
          "internalType": "uint256",
          "name": "id",
          "type": "uint256"
        }
      ],
      "name": "totalSupply",
      "outputs": [
        {
          "internalType": "uint256",
          "name": "",
          "type": "uint256"
        }
      ],
      "stateMutability": "view",
      "type": "function"
    },
    {
      "inputs": [
        {
          "internalType": "address",
          "name": "newOwner",
          "type": "address"
        }
      ],
      "name": "transferOwnership",
      "outputs": [],
      "stateMutability": "nonpayable",
      "type": "function"
    },
    {
      "inputs": [
        {
          "internalType": "uint256",
          "name": "",
          "type": "uint256"
        }
      ],
      "name": "uri",
      "outputs": [
        {
          "internalType": "string",
          "name": "",
          "type": "string"
        }
      ],
      "stateMutability": "view",
      "type": "function"
    },
    {
      "inputs": [
        {
          "internalType": "uint256",
          "name": "_tokenId",
          "type": "uint256"
        }
      ],
      "name": "withdraw",
      "outputs": [],
      "stateMutability": "nonpayable",
      "type": "function"
    },
    {
      "inputs": [],
      "name": "wrappedNative",
      "outputs": [
        {
          "internalType": "address",
          "name": "",
          "type": "address"
        }
      ],
      "stateMutability": "view",
      "type": "function"
    },
    {
      "stateMutability": "payable",
      "type": "receive"
    }
  ],
  "transactionHash": "0x1585953114c3aa17f1fde84b6c9aa8545a38ee0575d17bbe0794dc848a0e6e8c",
  "args": [
    "FortiFi WAVAX MASS Vault",
    "ffWAVAX",
    "ipfs://bafybeic35wrmxrotb2e2rnnqe6a3twakuoy4vxtlpu3yscqaj2g44s4cya/WAVAX.json",
    "0xB31f66AA3C1e785363F0875A1B74E27b85FD66c7",
    "0xf964894470AfC11037f6BCB38609f77e9EBA9851",
    "0xC15711C7C8DEAc7A360f9B8826E7c151088D0d8C",
    "0xdFABbc3d82b8234A88A9f64faAB1f514a857a3dF",
    [
      {
        "strategy": "0xb97D7C44cA03abA8d41FDaC81683312e4ACbba00",
        "depositToken": "0xB31f66AA3C1e785363F0875A1B74E27b85FD66c7",
        "router": "0x60aE616a2155Ee3d9A68541Ba4544862310933d4",
        "oracle": "0x0000000000000000000000000000000000000000",
        "isFortiFi": false,
        "isSAMS": false,
        "bps": 5500,
        "decimals": 18
      },
      {
        "strategy": "0x0A4BC64396EA683244Ce36a40114Ac6713aFC725",
        "depositToken": "0xB31f66AA3C1e785363F0875A1B74E27b85FD66c7",
        "router": "0x60aE616a2155Ee3d9A68541Ba4544862310933d4",
        "oracle": "0x0000000000000000000000000000000000000000",
        "isFortiFi": true,
        "isSAMS": false,
        "bps": 2250,
        "decimals": 18
      },
      {
        "strategy": "0xc8cEeA18c2E168C6e767422c8d144c55545D23e9",
        "depositToken": "0x2b2C81e08f1Af8835a78Bb2A90AE924ACE0eA4bE",
        "router": "0x60aE616a2155Ee3d9A68541Ba4544862310933d4",
        "oracle": "0x0C53b73EfDdE61874C945395a813253326dE8eEA",
        "isFortiFi": false,
        "isSAMS": false,
        "bps": 2250,
        "decimals": 18
      }
    ]
  ],
  "numDeployments": 3,
  "solcInputHash": "337b5c5be76b6cd9a7609cec22c38a80",
  "bytecode": "0x60a06040526008805461ffff191660641790556175306009556001600a819055600b805460ff191690911790553480156200003957600080fd5b506040516200712f3803806200712f8339810160408190526200005c9162000f86565b8562000068816200019e565b506200007433620001b0565b60016005556001600160a01b038516620000a15760405163d92e233d60e01b815260040160405180910390fd5b6001600160a01b038416620000c95760405163d92e233d60e01b815260040160405180910390fd5b6001600160a01b038316620000f15760405163d92e233d60e01b815260040160405180910390fd5b6001600160a01b038216620001195760405163d92e233d60e01b815260040160405180910390fd5b600662000127898262001119565b50600762000136888262001119565b506001600160a01b03858116608052600b8054610100600160a81b03191661010086841602179055600c80546001600160a01b031990811687841617909155600d8054909116918416919091179055620001908162000202565b50505050505050506200136e565b6002620001ac828262001119565b5050565b600480546001600160a01b038381166001600160a01b0319831681179093556040519116919082907f8be0079c531659141344cd1fd0a4f28419497f9722a3daafe3b4186f6b6457e090600090a35050565b6004546001600160a01b03163314620002615760405162461bcd60e51b815260206004820181905260248201527f4f776e61626c653a2063616c6c6572206973206e6f7420746865206f776e6572604482015260640160405180910390fd5b8051600081900362000286576040516356de305560e01b815260040160405180910390fd5b6004811115620002a95760405163607ed4ff60e11b815260040160405180910390fd5b6000816001600160401b03811115620002c657620002c662000d06565b604051908082528060200260200182016040528015620002f0578160200160208202803683370190505b5090506000805b838110156200034557848181518110620003155762000315620011e5565b602002602001015160c00151826200032e919062001211565b9150806200033c8162001236565b915050620002f7565b5061ffff8116612710146200036d5760405163c6cc5d7f60e01b815260040160405180910390fd5b6200037b600e600062000c92565b60005b83811015620008f35760006001600160a01b0316858281518110620003a757620003a7620011e5565b6020026020010151600001516001600160a01b031603620003db5760405163d92e233d60e01b815260040160405180910390fd5b60006001600160a01b0316858281518110620003fb57620003fb620011e5565b6020026020010151602001516001600160a01b0316036200042f5760405163d92e233d60e01b815260040160405180910390fd5b60006001600160a01b03168582815181106200044f576200044f620011e5565b6020026020010151604001516001600160a01b031603620004835760405163d92e233d60e01b815260040160405180910390fd5b6080516001600160a01b0316858281518110620004a457620004a4620011e5565b6020026020010151602001516001600160a01b031614158015620006ca575060006001600160a01b0316858281518110620004e357620004e3620011e5565b6020026020010151606001516001600160a01b03161480620005bb5750848181518110620005155762000515620011e5565b6020026020010151606001516001600160a01b031663fc0c546a6040518163ffffffff1660e01b8152600401602060405180830381865afa1580156200055f573d6000803e3d6000fd5b505050506040513d601f19601f8201168201806040525081019062000585919062001252565b6001600160a01b0316858281518110620005a357620005a3620011e5565b6020026020010151602001516001600160a01b031614155b80620006ca5750600d60009054906101000a90046001600160a01b03166001600160a01b031663313ce5676040518163ffffffff1660e01b8152600401602060405180830381865afa15801562000616573d6000803e3d6000fd5b505050506040513d601f19601f820116820180604052508101906200063c919062001277565b60ff16858281518110620006545762000654620011e5565b6020026020010151606001516001600160a01b031663313ce5676040518163ffffffff1660e01b8152600401602060405180830381865afa1580156200069e573d6000803e3d6000fd5b505050506040513d601f19601f82011682018060405250810190620006c4919062001277565b60ff1614155b15620006e957604051639589a27d60e01b815260040160405180910390fd5b60005b8181101562000779578582815181106200070a576200070a620011e5565b6020026020010151600001516001600160a01b0316848281518110620007345762000734620011e5565b60200260200101516001600160a01b031603620007645760405163cc5fde6960e01b815260040160405180910390fd5b80620007708162001236565b915050620006ec565b508481815181106200078f576200078f620011e5565b602002602001015160000151838281518110620007b057620007b0620011e5565b60200260200101906001600160a01b031690816001600160a01b031681525050600e858281518110620007e757620007e7620011e5565b602090810291909101810151825460018181018555600094855293839020825160049092020180546001600160a01b039283166001600160a01b03199182161782559383015194810180549583169585169590951790945560408201516002850180549183169190941617909255606081015160039093018054608083015160a084015160c085015160e09095015160ff16600160c01b0260ff60c01b1961ffff909616600160b01b0261ffff60b01b19921515600160a81b029290921662ffffff60a81b19931515600160a01b026001600160a81b03199095169890971697909717929092171693909317929092171691909117905580620008ea8162001236565b9150506200037e565b50620008fe6200093d565b7fe862432e937cd267ceb992c0e53d27a0d6127517fdff76f2977ef09b6f369e77846040516200092f919062001295565b60405180910390a150505050565b600e54608051600c5460405163095ea7b360e01b81526001600160a01b03918216600482015260001960248201529082169063095ea7b3906044016020604051808303816000875af115801562000998573d6000803e3d6000fd5b505050506040513d601f19601f82011682018060405250810190620009be919062001350565b5060005b8281101562000c6457600e8181548110620009e157620009e1620011e5565b906000526020600020906004020160010160009054906101000a90046001600160a01b03166001600160a01b031663095ea7b3600e838154811062000a2a5762000a2a620011e5565b600091825260209091206004918202015460405160e084901b6001600160e01b03191681526001600160a01b039091169181019190915260001960248201526044016020604051808303816000875af115801562000a8c573d6000803e3d6000fd5b505050506040513d601f19601f8201168201806040525081019062000ab2919062001350565b50600e818154811062000ac95762000ac9620011e5565b906000526020600020906004020160010160009054906101000a90046001600160a01b03166001600160a01b031663095ea7b3600e838154811062000b125762000b12620011e5565b600091825260209091206004918202016002015460405160e084901b6001600160e01b03191681526001600160a01b039091169181019190915260001960248201526044016020604051808303816000875af115801562000b77573d6000803e3d6000fd5b505050506040513d601f19601f8201168201806040525081019062000b9d919062001350565b50816001600160a01b031663095ea7b3600e838154811062000bc35762000bc3620011e5565b600091825260209091206004918202016002015460405160e084901b6001600160e01b03191681526001600160a01b039091169181019190915260001960248201526044016020604051808303816000875af115801562000c28573d6000803e3d6000fd5b505050506040513d601f19601f8201168201806040525081019062000c4e919062001350565b508062000c5b8162001236565b915050620009c2565b506040517f3aea0c7f8169b9836e3c3e201cc5e2994baa61ae616cd0681a60ae7c9df9c9a690600090a15050565b508054600082556004029060005260206000209081019062000cb5919062000cb8565b50565b5b8082111562000d025780546001600160a01b031990811682556001820180548216905560028201805490911690556003810180546001600160c81b031916905560040162000cb9565b5090565b634e487b7160e01b600052604160045260246000fd5b60405161010081016001600160401b038111828210171562000d425762000d4262000d06565b60405290565b604051601f8201601f191681016001600160401b038111828210171562000d735762000d7362000d06565b604052919050565b600082601f83011262000d8d57600080fd5b81516001600160401b0381111562000da95762000da962000d06565b602062000dbf601f8301601f1916820162000d48565b828152858284870101111562000dd457600080fd5b60005b8381101562000df457858101830151828201840152820162000dd7565b506000928101909101919091529392505050565b80516001600160a01b038116811462000e2057600080fd5b919050565b8051801515811462000e2057600080fd5b805160ff8116811462000e2057600080fd5b600082601f83011262000e5a57600080fd5b815160206001600160401b0382111562000e785762000e7862000d06565b62000e88818360051b0162000d48565b82815260089290921b8401810191818101908684111562000ea857600080fd5b8286015b8481101562000f7b57610100818903121562000ec85760008081fd5b62000ed262000d1c565b62000edd8262000e08565b815262000eec85830162000e08565b85820152604062000eff81840162000e08565b90820152606062000f1283820162000e08565b90820152608062000f2583820162000e25565b9082015260a062000f3883820162000e25565b9082015260c08281015161ffff8116811462000f545760008081fd5b9082015260e062000f6783820162000e36565b908201528352918301916101000162000eac565b509695505050505050565b600080600080600080600080610100898b03121562000fa457600080fd5b88516001600160401b038082111562000fbc57600080fd5b62000fca8c838d0162000d7b565b995060208b015191508082111562000fe157600080fd5b62000fef8c838d0162000d7b565b985060408b01519150808211156200100657600080fd5b620010148c838d0162000d7b565b97506200102460608c0162000e08565b96506200103460808c0162000e08565b95506200104460a08c0162000e08565b94506200105460c08c0162000e08565b935060e08b01519150808211156200106b57600080fd5b506200107a8b828c0162000e48565b9150509295985092959890939650565b600181811c908216806200109f57607f821691505b602082108103620010c057634e487b7160e01b600052602260045260246000fd5b50919050565b601f8211156200111457600081815260208120601f850160051c81016020861015620010ef5750805b601f850160051c820191505b818110156200111057828155600101620010fb565b5050505b505050565b81516001600160401b0381111562001135576200113562000d06565b6200114d816200114684546200108a565b84620010c6565b602080601f8311600181146200118557600084156200116c5750858301515b600019600386901b1c1916600185901b17855562001110565b600085815260208120601f198616915b82811015620011b65788860151825594840194600190910190840162001195565b5085821015620011d55787850151600019600388901b60f8161c191681555b5050505050600190811b01905550565b634e487b7160e01b600052603260045260246000fd5b634e487b7160e01b600052601160045260246000fd5b61ffff8181168382160190808211156200122f576200122f620011fb565b5092915050565b6000600182016200124b576200124b620011fb565b5060010190565b6000602082840312156200126557600080fd5b620012708262000e08565b9392505050565b6000602082840312156200128a57600080fd5b620012708262000e36565b602080825282518282018190526000919060409081850190868401855b828110156200134357815180516001600160a01b03908116865287820151811688870152868201511686860152606080820151620012fa828801826001600160a01b03169052565b505060808181015115159086015260a08082015115159086015260c08082015161ffff169086015260e09081015160ff16908501526101009093019290850190600101620012b2565b5091979650505050505050565b6000602082840312156200136357600080fd5b620012708262000e25565b608051615d3c620013f36000396000818161081101528181610c1901528181610ca101528181610ec40152818161151f01528181611c1d0152818161218c01528181612d9501528181612ed8015281816133a30152818161341e015281816139ad01528181613a4a01528181613ef00152818161413b01526144420152615d3c6000f3fe60806040526004361061026a5760003560e01c80638c66d04f11610144578063bd85b039116100b6578063f23a6e611161007a578063f23a6e6114610833578063f242432a1461085f578063f2fde38b1461087f578063f41d56611461089f578063f4993018146108bf578063f7c85469146108df57600080fd5b8063bd85b039146106fb578063cbb117a314610728578063d574ea3d1461073e578063e985e9c5146107b6578063eb6d3a11146107ff57600080fd5b806395d89b411161010857806395d89b4114610611578063a22cb46514610626578063ab37fbb714610646578063b49a60bb14610666578063b6b55f2514610688578063bc197c81146106b657600080fd5b80638c66d04f1461057d5780638c7a63ae1461059d5780638da5cb5b146105bd5780638fcc9cfb146105db5780639499ac54146105fb57600080fd5b8063472d35b9116101dd578063715018a6116101a1578063715018a6146104af57806372981aab146104c457806372a9ad2a146104e4578063771602f71461050b5780638980f11f146105385780638c4cc0df1461055857600080fd5b8063472d35b9146103fe5780634e1273f41461041e5780634f558e791461044b578063578c71d91461047a5780635c975abb1461049557600080fd5b8063249d39e91161022f578063249d39e9146103535780632e1a7d4d1461037c5780632eb2c2d61461039e578063333171bb146103be57806341b3d185146103d357806343d57a64146103e957600080fd5b8062fdd58e1461027657806301ffc9a7146102a957806306fdde03146102d95780630e89341c146102fb578063127fec131461031b57600080fd5b3661027157005b600080fd5b34801561028257600080fd5b50610296610291366004614c9e565b6108ff565b6040519081526020015b60405180910390f35b3480156102b557600080fd5b506102c96102c4366004614ce0565b610999565b60405190151581526020016102a0565b3480156102e557600080fd5b506102ee6109f4565b6040516102a09190614d4d565b34801561030757600080fd5b506102ee610316366004614d60565b610a82565b34801561032757600080fd5b50600d5461033b906001600160a01b031681565b6040516001600160a01b0390911681526020016102a0565b34801561035f57600080fd5b5061036961271081565b60405161ffff90911681526020016102a0565b34801561038857600080fd5b5061039c610397366004614d60565b610b16565b005b3480156103aa57600080fd5b5061039c6103b9366004614f26565b610d89565b3480156103ca57600080fd5b5061039c610e20565b3480156103df57600080fd5b5061029660095481565b3480156103f557600080fd5b5061039c610e97565b34801561040a57600080fd5b5061039c610419366004614fd3565b6111eb565b34801561042a57600080fd5b5061043e610439366004614ff0565b611291565b6040516102a091906150f7565b34801561045757600080fd5b506102c9610466366004614d60565b600090815260036020526040902054151590565b34801561048657600080fd5b506008546103699061ffff1681565b3480156104a157600080fd5b50600b546102c99060ff1681565b3480156104bb57600080fd5b5061039c6113ba565b3480156104d057600080fd5b5061039c6104df366004614fd3565b6113f0565b3480156104f057600080fd5b506104f9601281565b60405160ff90911681526020016102a0565b34801561051757600080fd5b5061052b61052636600461510a565b61148f565b6040516102a09190615201565b34801561054457600080fd5b5061039c610553366004614c9e565b6116e6565b34801561056457600080fd5b50600b5461033b9061010090046001600160a01b031681565b34801561058957600080fd5b5061039c610598366004614fd3565b61179a565b3480156105a957600080fd5b5061052b6105b8366004614d60565b611841565b3480156105c957600080fd5b506004546001600160a01b031661033b565b3480156105e757600080fd5b5061039c6105f6366004614d60565b61196b565b34801561060757600080fd5b50610296600a5481565b34801561061d57600080fd5b506102ee6119ed565b34801561063257600080fd5b5061039c61064136600461522d565b6119fa565b34801561065257600080fd5b5061039c610661366004615281565b611a09565b34801561067257600080fd5b5061067b611aad565b6040516102a0919061529e565b34801561069457600080fd5b506106a86106a3366004614d60565b611b83565b6040516102a09291906152ed565b3480156106c257600080fd5b506106e26106d1366004614f26565b63bc197c8160e01b95945050505050565b6040516001600160e01b031990911681526020016102a0565b34801561070757600080fd5b50610296610716366004614d60565b60009081526003602052604090205490565b34801561073457600080fd5b5061036961070881565b34801561074a57600080fd5b5061075e610759366004614d60565b611dc5565b604080516001600160a01b03998a16815297891660208901529588169587019590955295909216606085015215156080840152151560a083015261ffff90921660c082015260ff90911660e0820152610100016102a0565b3480156107c257600080fd5b506102c96107d1366004615306565b6001600160a01b03918216600090815260016020908152604080832093909416825291909152205460ff1690565b34801561080b57600080fd5b5061033b7f000000000000000000000000000000000000000000000000000000000000000081565b34801561083f57600080fd5b506106e261084e366004615334565b63f23a6e6160e01b95945050505050565b34801561086b57600080fd5b5061039c61087a366004615334565b611e3b565b34801561088b57600080fd5b5061039c61089a366004614fd3565b611ec2565b3480156108ab57600080fd5b5061039c6108ba3660046153b6565b611f5d565b3480156108cb57600080fd5b5061052b6108da366004614d60565b61262b565b3480156108eb57600080fd5b50600c5461033b906001600160a01b031681565b60006001600160a01b0383166109705760405162461bcd60e51b815260206004820152602b60248201527f455243313135353a2062616c616e636520717565727920666f7220746865207a60448201526a65726f206164647265737360a81b60648201526084015b60405180910390fd5b506000818152602081815260408083206001600160a01b03861684529091529020545b92915050565b60006001600160e01b03198216636cdb3d1360e11b14806109ca57506001600160e01b031982166303a24d0760e21b145b806109e557506001600160e01b03198216632bee9c0f60e21b145b80610993575061099382612855565b60068054610a01906154f0565b80601f0160208091040260200160405190810160405280929190818152602001828054610a2d906154f0565b8015610a7a5780601f10610a4f57610100808354040283529160200191610a7a565b820191906000526020600020905b815481529060010190602001808311610a5d57829003601f168201915b505050505081565b606060028054610a91906154f0565b80601f0160208091040260200160405190810160405280929190818152602001828054610abd906154f0565b8015610b0a5780601f10610adf57610100808354040283529160200191610b0a565b820191906000526020600020905b815481529060010190602001808311610aed57829003601f168201915b50505050509050919050565b600260055403610b385760405162461bcd60e51b81526004016109679061552a565b6002600555610b4733826108ff565b600003610b67576040516359dc379f60e01b815260040160405180910390fd5b610b73338260016128a5565b600080610b7f83612a1e565b600b54604051633becdb0560e21b8152336004820152602481018390529294509092506000916101009091046001600160a01b03169063efb36c1490604401602060405180830381865afa158015610bdb573d6000803e3d6000fd5b505050506040513d601f19601f82011682018060405250810190610bff9190615561565b600c5460405163280cff3560e21b81526001600160a01b037f0000000000000000000000000000000000000000000000000000000000000000811660048301526024820184905292935091169063a033fcd490604401600060405180830381600087803b158015610c6f57600080fd5b505af1158015610c83573d6000803e3d6000fd5b50505050610cc8338285610c979190615590565b6001600160a01b037f0000000000000000000000000000000000000000000000000000000000000000169190612f76565b4715610d3957604051600090339047908381818185875af1925050503d8060008114610d10576040519150601f19603f3d011682016040523d82523d6000602084013e610d15565b606091505b5050905080610d3757604051631d73cefb60e31b815260040160405180910390fd5b505b6040805184815260208101849052908101829052849033907f887e73c01568cecc3fe477a39c098f6599306a7592db9c8941dfc71ff9046d069060600160405180910390a3505060016005555050565b6001600160a01b038516331480610da55750610da585336107d1565b610e0c5760405162461bcd60e51b815260206004820152603260248201527f455243313135353a207472616e736665722063616c6c6572206973206e6f74206044820152711bdddb995c881b9bdc88185c1c1c9bdd995960721b6064820152608401610967565b610e198585858585612fd9565b5050505050565b6004546001600160a01b03163314610e4a5760405162461bcd60e51b8152600401610967906155a3565b600b805460ff8082161560ff1990921682179092556040519116151581527fb31006682779d0ac02864bee834675baf4592a679bfe75edd5e5847b52ef6f6e9060200160405180910390a1565b600e54600c5460405163095ea7b360e01b81526001600160a01b03918216600482015260001960248201527f00000000000000000000000000000000000000000000000000000000000000009182169063095ea7b3906044016020604051808303816000875af1158015610f0f573d6000803e3d6000fd5b505050506040513d601f19601f82011682018060405250810190610f3391906155d8565b5060005b828110156111bd57600e8181548110610f5257610f526155f5565b906000526020600020906004020160010160009054906101000a90046001600160a01b03166001600160a01b031663095ea7b3600e8381548110610f9857610f986155f5565b600091825260209091206004918202015460405160e084901b6001600160e01b03191681526001600160a01b039091169181019190915260001960248201526044016020604051808303816000875af1158015610ff9573d6000803e3d6000fd5b505050506040513d601f19601f8201168201806040525081019061101d91906155d8565b50600e8181548110611031576110316155f5565b906000526020600020906004020160010160009054906101000a90046001600160a01b03166001600160a01b031663095ea7b3600e8381548110611077576110776155f5565b600091825260209091206004918202016002015460405160e084901b6001600160e01b03191681526001600160a01b039091169181019190915260001960248201526044016020604051808303816000875af11580156110db573d6000803e3d6000fd5b505050506040513d601f19601f820116820180604052508101906110ff91906155d8565b50816001600160a01b031663095ea7b3600e8381548110611122576111226155f5565b600091825260209091206004918202016002015460405160e084901b6001600160e01b03191681526001600160a01b039091169181019190915260001960248201526044016020604051808303816000875af1158015611186573d6000803e3d6000fd5b505050506040513d601f19601f820116820180604052508101906111aa91906155d8565b50806111b58161560b565b915050610f37565b506040517f3aea0c7f8169b9836e3c3e201cc5e2994baa61ae616cd0681a60ae7c9df9c9a690600090a15050565b6004546001600160a01b031633146112155760405162461bcd60e51b8152600401610967906155a3565b6001600160a01b03811661123c5760405163d92e233d60e01b815260040160405180910390fd5b600c80546001600160a01b0319166001600160a01b0383169081179091556040519081527fbf5f580614969fb819b8af01f7cc62fe0e0146feaf98d7aee42e76bb0bee8e63906020015b60405180910390a150565b606081518351146112f65760405162461bcd60e51b815260206004820152602960248201527f455243313135353a206163636f756e747320616e6420696473206c656e677468604482015268040dad2e6dac2e8c6d60bb1b6064820152608401610967565b600083516001600160401b0381111561131157611311614d79565b60405190808252806020026020018201604052801561133a578160200160208202803683370190505b50905060005b84518110156113b25761138585828151811061135e5761135e6155f5565b6020026020010151858381518110611378576113786155f5565b60200260200101516108ff565b828281518110611397576113976155f5565b60209081029190910101526113ab8161560b565b9050611340565b509392505050565b6004546001600160a01b031633146113e45760405162461bcd60e51b8152600401610967906155a3565b6113ee60006131c4565b565b6004546001600160a01b0316331461141a5760405162461bcd60e51b8152600401610967906155a3565b6001600160a01b0381166114415760405163d92e233d60e01b815260040160405180910390fd5b600d80546001600160a01b0319166001600160a01b0383169081179091556040519081527fcd0529c079af8a237ba57f5ee5b8714708bb73cd54ec1669ef986cde7feecbc190602001611286565b6040805180820190915260008152606060208201526002600554036114c65760405162461bcd60e51b81526004016109679061552a565b6002600555600b5460ff16156114ef5760405163ab35696f60e01b815260040160405180910390fd5b60095483101561151257604051635972996f60e11b815260040160405180910390fd5b6115476001600160a01b037f000000000000000000000000000000000000000000000000000000000000000016333086613216565b61155133836108ff565b600003611571576040516359dc379f60e01b815260040160405180910390fd5b61157d83836001613254565b600f60008381526020019081526020016000206040518060400160405290816000820154815260200160018201805480602002602001604051908101604052809291908181526020016000905b8282101561168457600084815260209081902060408051610140810182526005860290920180546001600160a01b0390811692840192835260018083015482166060860152600283015482166080860152600383015491821660a086015260ff600160a01b83048116151560c0870152600160a81b83048116151560e087015261ffff600160b01b840416610100870152600160c01b909204909116610120850152918352600401548284015290835290920191016115ca565b5050505081525050905061169781613995565b81336001600160a01b03167fbc5fb7ab880388ee1f0cf8f1e0cd41d18d11761351afeeca7e258706436f194b85846040516116d39291906152ed565b60405180910390a3600160055592915050565b6004546001600160a01b031633146117105760405162461bcd60e51b8152600401610967906155a3565b600e5460005b8181101561178057600e8181548110611731576117316155f5565b60009182526020909120600490910201546001600160a01b039081169085160361176e5760405163118539e960e01b815260040160405180910390fd5b806117788161560b565b915050611716565b506117956001600160a01b0384163384612f76565b505050565b6004546001600160a01b031633146117c45760405162461bcd60e51b8152600401610967906155a3565b6001600160a01b0381166117eb5760405163d92e233d60e01b815260040160405180910390fd5b600b8054610100600160a81b0319166101006001600160a01b038416908102919091179091556040519081527fff482b94e6650f33ebd5a4b656f2524de0c552f315fb3270f47aeaef3d72a63e90602001611286565b604080518082019091526000815260606020820152600f60008381526020019081526020016000206040518060400160405290816000820154815260200160018201805480602002602001604051908101604052809291908181526020016000905b8282101561195d57600084815260209081902060408051610140810182526005860290920180546001600160a01b0390811692840192835260018083015482166060860152600283015482166080860152600383015491821660a086015260ff600160a01b83048116151560c0870152600160a81b83048116151560e087015261ffff600160b01b840416610100870152600160c01b909204909116610120850152918352600401548284015290835290920191016118a3565b505050915250909392505050565b6004546001600160a01b031633146119955760405162461bcd60e51b8152600401610967906155a3565b6175308110156119b857604051634f4940eb60e11b815260040160405180910390fd5b60098190556040518181527fc50a7f0bdf88c216b2541b0bdea26f22305460e39ffc672ec1a7501732c5ba8190602001611286565b60078054610a01906154f0565b611a05338383613ae0565b5050565b6004546001600160a01b03163314611a335760405162461bcd60e51b8152600401610967906155a3565b60648161ffff161080611a4b57506101f48161ffff16115b15611a695760405163334ee9a160e01b815260040160405180910390fd5b6008805461ffff191661ffff83169081179091556040519081527ff81c5fcf3aecd6806cef1d458fedb8ca3fb79150451dc8c8d1aef6215c4a82d890602001611286565b6060600e805480602002602001604051908101604052809291908181526020016000905b82821015611b7a57600084815260209081902060408051610100810182526004860290920180546001600160a01b0390811684526001808301548216858701526002830154821693850193909352600390910154908116606084015260ff600160a01b8204811615156080850152600160a81b82048116151560a085015261ffff600160b01b83041660c0850152600160c01b9091041660e08301529083529092019101611ad1565b50505050905090565b6000611ba2604051806040016040528060008152602001606081525090565b600260055403611bc45760405162461bcd60e51b81526004016109679061552a565b6002600555600b5460ff1615611bed5760405163ab35696f60e01b815260040160405180910390fd5b600954831015611c1057604051635972996f60e11b815260040160405180910390fd5b611c456001600160a01b037f000000000000000000000000000000000000000000000000000000000000000016333086613216565b611c4d613bc0565b9150611c5b83836000613254565b600f60008381526020019081526020016000206040518060400160405290816000820154815260200160018201805480602002602001604051908101604052809291908181526020016000905b82821015611d6257600084815260209081902060408051610140810182526005860290920180546001600160a01b0390811692840192835260018083015482166060860152600283015482166080860152600383015491821660a086015260ff600160a01b83048116151560c0870152600160a81b83048116151560e087015261ffff600160b01b840416610100870152600160c01b90920490911661012085015291835260040154828401529083529092019101611ca8565b50505050815250509050611d7581613995565b81336001600160a01b03167fa2f5e09d47150876983b7f4f0c3100d002901dcf94d43e590e285aca6bf691f08584604051611db19291906152ed565b60405180910390a360016005559092909150565b600e8181548110611dd557600080fd5b600091825260209091206004909102018054600182015460028301546003909301546001600160a01b0392831694509082169282169181169060ff600160a01b8204811691600160a81b810482169161ffff600160b01b83041691600160c01b90041688565b6001600160a01b038516331480611e575750611e5785336107d1565b611eb55760405162461bcd60e51b815260206004820152602960248201527f455243313135353a2063616c6c6572206973206e6f74206f776e6572206e6f7260448201526808185c1c1c9bdd995960ba1b6064820152608401610967565b610e198585858585613c00565b6004546001600160a01b03163314611eec5760405162461bcd60e51b8152600401610967906155a3565b6001600160a01b038116611f515760405162461bcd60e51b815260206004820152602660248201527f4f776e61626c653a206e6577206f776e657220697320746865207a65726f206160448201526564647265737360d01b6064820152608401610967565b611f5a816131c4565b50565b6004546001600160a01b03163314611f875760405162461bcd60e51b8152600401610967906155a3565b80516000819003611fab576040516356de305560e01b815260040160405180910390fd5b6004811115611fcd5760405163607ed4ff60e11b815260040160405180910390fd5b6000816001600160401b03811115611fe757611fe7614d79565b604051908082528060200260200182016040528015612010578160200160208202803683370190505b5090506000805b8381101561205c57848181518110612031576120316155f5565b602002602001015160c00151826120489190615624565b9150806120548161560b565b915050612017565b5061ffff8116612710146120835760405163c6cc5d7f60e01b815260040160405180910390fd5b61208f600e6000614b9c565b60005b838110156125e55760006001600160a01b03168582815181106120b7576120b76155f5565b6020026020010151600001516001600160a01b0316036120ea5760405163d92e233d60e01b815260040160405180910390fd5b60006001600160a01b0316858281518110612107576121076155f5565b6020026020010151602001516001600160a01b03160361213a5760405163d92e233d60e01b815260040160405180910390fd5b60006001600160a01b0316858281518110612157576121576155f5565b6020026020010151604001516001600160a01b03160361218a5760405163d92e233d60e01b815260040160405180910390fd5b7f00000000000000000000000000000000000000000000000000000000000000006001600160a01b03168582815181106121c6576121c66155f5565b6020026020010151602001516001600160a01b0316141580156123d4575060006001600160a01b0316858281518110612201576122016155f5565b6020026020010151606001516001600160a01b031614806122cf575084818151811061222f5761222f6155f5565b6020026020010151606001516001600160a01b031663fc0c546a6040518163ffffffff1660e01b8152600401602060405180830381865afa158015612278573d6000803e3d6000fd5b505050506040513d601f19601f8201168201806040525081019061229c9190615646565b6001600160a01b03168582815181106122b7576122b76155f5565b6020026020010151602001516001600160a01b031614155b806123d45750600d60009054906101000a90046001600160a01b03166001600160a01b031663313ce5676040518163ffffffff1660e01b8152600401602060405180830381865afa158015612328573d6000803e3d6000fd5b505050506040513d601f19601f8201168201806040525081019061234c9190615663565b60ff16858281518110612361576123616155f5565b6020026020010151606001516001600160a01b031663313ce5676040518163ffffffff1660e01b8152600401602060405180830381865afa1580156123aa573d6000803e3d6000fd5b505050506040513d601f19601f820116820180604052508101906123ce9190615663565b60ff1614155b156123f257604051639589a27d60e01b815260040160405180910390fd5b60005b818110156124775785828151811061240f5761240f6155f5565b6020026020010151600001516001600160a01b0316848281518110612436576124366155f5565b60200260200101516001600160a01b0316036124655760405163cc5fde6960e01b815260040160405180910390fd5b8061246f8161560b565b9150506123f5565b5084818151811061248a5761248a6155f5565b6020026020010151600001518382815181106124a8576124a86155f5565b60200260200101906001600160a01b031690816001600160a01b031681525050600e8582815181106124dc576124dc6155f5565b602090810291909101810151825460018181018555600094855293839020825160049092020180546001600160a01b039283166001600160a01b03199182161782559383015194810180549583169585169590951790945560408201516002850180549183169190941617909255606081015160039093018054608083015160a084015160c085015160e09095015160ff16600160c01b0260ff60c01b1961ffff909616600160b01b0261ffff60b01b19921515600160a81b029290921662ffffff60a81b19931515600160a01b026001600160a81b031990951698909716979097179290921716939093179290921716919091179055806125dd8161560b565b915050612092565b506125ee610e97565b7fe862432e937cd267ceb992c0e53d27a0d6127517fdff76f2977ef09b6f369e778460405161261d919061529e565b60405180910390a150505050565b6040805180820190915260008152606060208201526002600554036126625760405162461bcd60e51b81526004016109679061552a565b6002600555600b5460ff161561268b5760405163ab35696f60e01b815260040160405180910390fd5b61269533836108ff565b6000036126b5576040516359dc379f60e01b815260040160405180910390fd5b6000828152600f6020526040812054906126ce84612a1e565b506000858152600f602052604081208181559192506126f06001830182614bbd565b50506126fe81856000613254565b6000848152600f60209081526040808320858155815180830183528681526001820180548451818702810187019095528085529194929385840193909290879084015b828210156127fb57600084815260209081902060408051610140810182526005860290920180546001600160a01b0390811692840192835260018083015482166060860152600283015482166080860152600383015491821660a086015260ff600160a01b83048116151560c0870152600160a81b83048116151560e087015261ffff600160b01b840416610100870152600160c01b90920490911661012085015291835260040154828401529083529092019101612741565b5050505081525050905061280e81613995565b847fc54037560ab0b32bc339e4f0bedd21a5daefe3a944527ac3bb8c32d5d4647ca683836040516128409291906152ed565b60405180910390a26001600555949350505050565b60006001600160e01b03198216636cdb3d1360e11b148061288657506001600160e01b031982166303a24d0760e21b145b8061099357506301ffc9a760e01b6001600160e01b0319831614610993565b6001600160a01b0383166129075760405162461bcd60e51b815260206004820152602360248201527f455243313135353a206275726e2066726f6d20746865207a65726f206164647260448201526265737360e81b6064820152608401610967565b336129368185600061291887613d2c565b61292187613d2c565b60405180602001604052806000815250613d77565b6000838152602081815260408083206001600160a01b0388168452909152902054828110156129b35760405162461bcd60e51b8152602060048201526024808201527f455243313135353a206275726e20616d6f756e7420657863656564732062616c604482015263616e636560e01b6064820152608401610967565b6000848152602081815260408083206001600160a01b03898116808652918452828520888703905582518981529384018890529092908616917fc3d58168c5ae7397731d063d5bbf3d657854427343f4c083240f7aacaa2d0f62910160405180910390a45050505050565b6000806000600f60008581526020019081526020016000206040518060400160405290816000820154815260200160018201805480602002602001604051908101604052809291908181526020016000905b82821015612b2a57600084815260209081902060408051610140810182526005860290920180546001600160a01b0390811692840192835260018083015482166060860152600283015482166080860152600383015491821660a086015260ff600160a01b83048116151560c0870152600160a81b83048116151560e087015261ffff600160b01b840416610100870152600160c01b90920490911661012085015291835260040154828401529083529092019101612a70565b5050509152505060208101515160009450909150835b81811015612ec25782602001518181518110612b5e57612b5e6155f5565b60200260200101516000015160a0015115612c2457600083602001518281518110612b8b57612b8b6155f5565b602002602001015160000151600001519050806001600160a01b0316632e1a7d4d85602001518481518110612bc257612bc26155f5565b6020026020010151602001516040518263ffffffff1660e01b8152600401612bec91815260200190565b600060405180830381600087803b158015612c0657600080fd5b505af1158015612c1a573d6000803e3d6000fd5b5050505050612d93565b600083602001518281518110612c3c57612c3c6155f5565b60200260200101516000015160000151905083602001518281518110612c6457612c646155f5565b6020026020010151600001516080015115612d0f57806001600160a01b031663ba251fba85602001518481518110612c9e57612c9e6155f5565b60209081029190910181015101516040516001600160e01b031960e084901b1681526004810191909152336024820152604481018a9052606401600060405180830381600087803b158015612cf257600080fd5b505af1158015612d06573d6000803e3d6000fd5b50505050612d91565b806001600160a01b0316632e1a7d4d85602001518481518110612d3457612d346155f5565b6020026020010151602001516040518263ffffffff1660e01b8152600401612d5e91815260200190565b600060405180830381600087803b158015612d7857600080fd5b505af1158015612d8c573d6000803e3d6000fd5b505050505b505b7f00000000000000000000000000000000000000000000000000000000000000006001600160a01b031683602001518281518110612dd357612dd36155f5565b602002602001015160000151602001516001600160a01b031614612eb057600083602001518281518110612e0957612e096155f5565b6020908102919091018101515101516040516370a0823160e01b81523060048201526001600160a01b03909116906370a0823190602401602060405180830381865afa158015612e5d573d6000803e3d6000fd5b505050506040513d601f19601f82011682018060405250810190612e819190615561565b9050612eae8185602001518481518110612e9d57612e9d6155f5565b602002602001015160000151613e83565b505b80612eba8161560b565b915050612b40565b506040516370a0823160e01b81523060048201527f00000000000000000000000000000000000000000000000000000000000000006001600160a01b0316906370a0823190602401602060405180830381865afa158015612f27573d6000803e3d6000fd5b505050506040513d601f19601f82011682018060405250810190612f4b9190615561565b8251909450841115612f6a578151612f639085615590565b9250612f6f565b600092505b5050915091565b6040516001600160a01b03831660248201526044810182905261179590849063a9059cbb60e01b906064015b60408051601f198184030181529190526020810180516001600160e01b03166001600160e01b0319909316929092179091526141dd565b815183511461303b5760405162461bcd60e51b815260206004820152602860248201527f455243313135353a2069647320616e6420616d6f756e7473206c656e677468206044820152670dad2e6dac2e8c6d60c31b6064820152608401610967565b6001600160a01b0384166130615760405162461bcd60e51b815260040161096790615680565b33613070818787878787613d77565b60005b8451811015613156576000858281518110613090576130906155f5565b6020026020010151905060008583815181106130ae576130ae6155f5565b602090810291909101810151600084815280835260408082206001600160a01b038e1683529093529190912054909150818110156130fe5760405162461bcd60e51b8152600401610967906156c5565b6000838152602081815260408083206001600160a01b038e8116855292528083208585039055908b1682528120805484929061313b90849061570f565b925050819055505050508061314f9061560b565b9050613073565b50846001600160a01b0316866001600160a01b0316826001600160a01b03167f4a39dc06d4c0dbc64b70af90fd698a233a518aa5d07e595d983b8c0526c8f7fb87876040516131a6929190615722565b60405180910390a46131bc8187878787876142af565b505050505050565b600480546001600160a01b038381166001600160a01b0319831681179093556040519116919082907f8be0079c531659141344cd1fd0a4f28419497f9722a3daafe3b4186f6b6457e090600090a35050565b6040516001600160a01b038085166024830152831660448201526064810182905261324e9085906323b872dd60e01b90608401612fa2565b50505050565b6000828152600f60205260408120600e5490918591905b81811015613973576000600e8281548110613288576132886155f5565b60009182526020918290206040805161010081018252600490930290910180546001600160a01b0390811684526001820154811694840194909452600281015484169183019190915260030154918216606082015260ff600160a01b8304811615156080830152600160a81b83048116151560a083015261ffff600160b01b84041660c0830152600160c01b90920490911660e08201529050851561337a5784600101828154811061333c5761333c6155f5565b600091825260209091206005909102015481516001600160a01b0390811691161461337a576040516379c896e960e01b815260040160405180910390fd5b60a081015160008061338d600187615590565b85036133e85783602001516001600160a01b03167f00000000000000000000000000000000000000000000000000000000000000006001600160a01b0316146133e1576133da878561440a565b905061346e565b508561346e565b60c0840151600090612710906134029061ffff168e615750565b61340c9190615767565b905084602001516001600160a01b03167f00000000000000000000000000000000000000000000000000000000000000006001600160a01b03161461345c57613455818661440a565b9150613460565b8091505b61346a8189615590565b9750505b82156135d85788156134b4576134af8185600001518a6001018881548110613498576134986155f5565b906000526020600020906005020160040154614744565b61395c565b6134c28185600001516147d1565b60408051808201825286815260208082018481526001808e018054808301825560009182529084902094518051600590920290950180546001600160a01b039283166001600160a01b0319918216178255948601519281018054938316938616939093179092559484015160028201805491871691909416179092556060830151600383018054608086015160a087015160c088015160e09098015160ff16600160c01b0260ff60c01b1961ffff909916600160b01b0261ffff60b01b19921515600160a81b029290921662ffffff60a81b19931515600160a01b026001600160a81b031990951696909a169590951792909217169690961795909517939093169290921790925551600490910155915061395c565b83516040516370a0823160e01b81523060048201526000906001600160a01b038316906370a0823190602401602060405180830381865afa158015613621573d6000803e3d6000fd5b505050506040513d601f19601f820116820180604052508101906136459190615561565b90508560800151156136bd576040516329c9aa1960e01b815260048101849052336024820152604481018d90526001600160a01b038316906329c9aa1990606401600060405180830381600087803b1580156136a057600080fd5b505af11580156136b4573d6000803e3d6000fd5b50505050613718565b60405163b6b55f2560e01b8152600481018490526001600160a01b0383169063b6b55f2590602401600060405180830381600087803b1580156136ff57600080fd5b505af1158015613713573d6000803e3d6000fd5b505050505b8a156137d2576040516370a0823160e01b815230600482015281906001600160a01b038416906370a0823190602401602060405180830381865afa158015613764573d6000803e3d6000fd5b505050506040513d601f19601f820116820180604052508101906137889190615561565b6137929190615590565b8a60010188815481106137a7576137a76155f5565b906000526020600020906005020160040160008282546137c7919061570f565b909155506139599050565b60408051808201825287815290516370a0823160e01b815230600482015260018c019190602082019084906001600160a01b038716906370a0823190602401602060405180830381865afa15801561382e573d6000803e3d6000fd5b505050506040513d601f19601f820116820180604052508101906138529190615561565b61385c9190615590565b9052815460018181018455600093845260209384902083518051600590940290910180546001600160a01b039485166001600160a01b031991821617825582870151938201805494861694821694909417909355604082015160028201805491861691909416179092556060810151600383018054608084015160a085015160c086015160e09096015160ff16600160c01b0260ff60c01b1961ffff909716600160b01b0261ffff60b01b19921515600160a81b029290921662ffffff60a81b19931515600160a01b026001600160a81b031990951696909916959095179290921716959095179490941791909116179091559101516004909101555b50505b50505050808061396b9061560b565b91505061326b565b5085836000016000828254613988919061570f565b9091555050505050505050565b6040516370a0823160e01b81523060048201526000907f00000000000000000000000000000000000000000000000000000000000000006001600160a01b0316906370a0823190602401602060405180830381865afa1580156139fc573d6000803e3d6000fd5b505050506040513d601f19601f82011682018060405250810190613a209190615561565b90508015613a71578082600001818151613a3a9190615590565b905250613a716001600160a01b037f0000000000000000000000000000000000000000000000000000000000000000163383612f76565b4715611a0557604051600090339047908381818185875af1925050503d8060008114613ab9576040519150601f19603f3d011682016040523d82523d6000602084013e613abe565b606091505b505090508061179557604051631d73cefb60e31b815260040160405180910390fd5b816001600160a01b0316836001600160a01b031603613b535760405162461bcd60e51b815260206004820152602960248201527f455243313135353a2073657474696e6720617070726f76616c20737461747573604482015268103337b91039b2b63360b91b6064820152608401610967565b6001600160a01b03838116600081815260016020908152604080832094871680845294825291829020805460ff191686151590811790915591519182527f17307eab39ab6107e8899845ad3d59bd9653f200f220920489ca2b5937696c31910160405180910390a3505050565b6000600a549050613be33382600160405180602001604052806000815250614861565b6001600a6000828254613bf6919061570f565b9250508190555090565b6001600160a01b038416613c265760405162461bcd60e51b815260040161096790615680565b33613c45818787613c3688613d2c565b613c3f88613d2c565b87613d77565b6000848152602081815260408083206001600160a01b038a16845290915290205483811015613c865760405162461bcd60e51b8152600401610967906156c5565b6000858152602081815260408083206001600160a01b038b8116855292528083208785039055908816825281208054869290613cc390849061570f565b909155505060408051868152602081018690526001600160a01b03808916928a821692918616917fc3d58168c5ae7397731d063d5bbf3d657854427343f4c083240f7aacaa2d0f62910160405180910390a4613d2382888888888861495e565b50505050505050565b60408051600180825281830190925260609160009190602080830190803683370190505090508281600081518110613d6657613d666155f5565b602090810291909101015292915050565b6001600160a01b038516613dfe5760005b8351811015613dfc57828181518110613da357613da36155f5565b602002602001015160036000868481518110613dc157613dc16155f5565b602002602001015181526020019081526020016000206000828254613de6919061570f565b90915550613df590508161560b565b9050613d88565b505b6001600160a01b0384166131bc5760005b8351811015613d2357828181518110613e2a57613e2a6155f5565b602002602001015160036000868481518110613e4857613e486155f5565b602002602001015181526020019081526020016000206000828254613e6d9190615590565b90915550613e7c90508161560b565b9050613e0f565b602081015160408051600280825260608201909252600091816020016020820280368337505050604084015160608501518251929350909184908490600090613ece57613ece6155f5565b60200260200101906001600160a01b031690816001600160a01b0316815250507f000000000000000000000000000000000000000000000000000000000000000083600181518110613f2257613f226155f5565b6001600160a01b03928316602091820292909201810191909152600d5460408051634c6afee560e11b8152905160009492909216926398d5fdca926004808401938290030181865afa158015613f7c573d6000803e3d6000fd5b505050506040513d601f19601f82011682018060405250810190613fa09190615561565b90506000826001600160a01b03166398d5fdca6040518163ffffffff1660e01b8152600401602060405180830381865afa158015613fe2573d6000803e3d6000fd5b505050506040513d601f19601f820116820180604052508101906140069190615561565b905060008760e00151601261401b9190615789565b61402690600a615886565b83670de0b6b3a764000061403a858d615750565b6140449190615767565b61404e9190615767565b61406090670de0b6b3a7640000615750565b61406a9190615750565b6008549091506001600160a01b038616906338ed1739908b90612710906140959061ffff1682615895565b6140a39061ffff1686615750565b6140ad9190615767565b89306140bb6107084261570f565b6040518663ffffffff1660e01b81526004016140db9594939291906158b0565b6000604051808303816000875af11580156140fa573d6000803e3d6000fd5b505050506040513d6000823e601f3d908101601f191682016040526141229190810190615921565b506040516370a0823160e01b81523060048201526000907f00000000000000000000000000000000000000000000000000000000000000006001600160a01b0316906370a0823190602401602060405180830381865afa15801561418a573d6000803e3d6000fd5b505050506040513d601f19601f820116820180604052508101906141ae9190615561565b9050806000036141d15760405163081ceff360e41b815260040160405180910390fd5b50505050505050505050565b6000614232826040518060400160405280602081526020017f5361666545524332303a206c6f772d6c6576656c2063616c6c206661696c6564815250856001600160a01b0316614a199092919063ffffffff16565b805190915015611795578080602001905181019061425091906155d8565b6117955760405162461bcd60e51b815260206004820152602a60248201527f5361666545524332303a204552433230206f7065726174696f6e20646964206e6044820152691bdd081cdd58d8d9595960b21b6064820152608401610967565b6001600160a01b0384163b156131bc5760405163bc197c8160e01b81526001600160a01b0385169063bc197c81906142f390899089908890889088906004016159b1565b6020604051808303816000875af192505050801561432e575060408051601f3d908101601f1916820190925261432b91810190615a03565b60015b6143da5761433a615a20565b806308c379a003614373575061434e615a3c565b806143595750614375565b8060405162461bcd60e51b81526004016109679190614d4d565b505b60405162461bcd60e51b815260206004820152603460248201527f455243313135353a207472616e7366657220746f206e6f6e20455243313135356044820152732932b1b2b4bb32b91034b6b83632b6b2b73a32b960611b6064820152608401610967565b6001600160e01b0319811663bc197c8160e01b14613d235760405162461bcd60e51b815260040161096790615ac5565b6020818101516040805160028082526060820183526000948593908301908036833750505060408501516060860151825192935090917f0000000000000000000000000000000000000000000000000000000000000000908490600090614473576144736155f5565b60200260200101906001600160a01b031690816001600160a01b03168152505083836001815181106144a7576144a76155f5565b6001600160a01b03928316602091820292909201810191909152600d5460408051634c6afee560e11b8152905160009492909216926398d5fdca926004808401938290030181865afa158015614501573d6000803e3d6000fd5b505050506040513d601f19601f820116820180604052508101906145259190615561565b90506000826001600160a01b03166398d5fdca6040518163ffffffff1660e01b8152600401602060405180830381865afa158015614567573d6000803e3d6000fd5b505050506040513d601f19601f8201168201806040525081019061458b9190615561565b905060008860e0015160126145a09190615789565b6145ab90600a615886565b670de0b6b3a7640000836145bf868e615750565b6145d190670de0b6b3a7640000615750565b6145db9190615767565b6145e59190615767565b6145ef9190615767565b6008549091506001600160a01b038616906338ed1739908c906127109061461a9061ffff1682615895565b6146289061ffff1686615750565b6146329190615767565b89306146406107084261570f565b6040518663ffffffff1660e01b81526004016146609594939291906158b0565b6000604051808303816000875af115801561467f573d6000803e3d6000fd5b505050506040513d6000823e601f3d908101601f191682016040526146a79190810190615921565b506040516370a0823160e01b81523060048201526000906001600160a01b038916906370a0823190602401602060405180830381865afa1580156146ef573d6000803e3d6000fd5b505050506040513d601f19601f820116820180604052508101906147139190615561565b9050806000036147365760405163081ceff360e41b815260040160405180910390fd5b9a9950505050505050505050565b604080518082019091526000815260606020820152829060405163771602f760e01b815260048101869052602481018490526001600160a01b0383169063771602f7906044016000604051808303816000875af11580156147a9573d6000803e3d6000fd5b505050506040513d6000823e601f3d908101601f191682016040526131bc9190810190615c38565b604080518082018252600080825260606020830152915163b6b55f2560e01b8152600481018590528391906001600160a01b0383169063b6b55f25906024016000604051808303816000875af115801561482f573d6000803e3d6000fd5b505050506040513d6000823e601f3d908101601f191682016040526148579190810190615c74565b5095945050505050565b6001600160a01b0384166148c15760405162461bcd60e51b815260206004820152602160248201527f455243313135353a206d696e7420746f20746865207a65726f206164647265736044820152607360f81b6064820152608401610967565b336148d281600087613c3688613d2c565b6000848152602081815260408083206001600160a01b03891684529091528120805485929061490290849061570f565b909155505060408051858152602081018590526001600160a01b0380881692600092918516917fc3d58168c5ae7397731d063d5bbf3d657854427343f4c083240f7aacaa2d0f62910160405180910390a4610e19816000878787875b6001600160a01b0384163b156131bc5760405163f23a6e6160e01b81526001600160a01b0385169063f23a6e61906149a29089908990889088908890600401615cb0565b6020604051808303816000875af19250505080156149dd575060408051601f3d908101601f191682019092526149da91810190615a03565b60015b6149e95761433a615a20565b6001600160e01b0319811663f23a6e6160e01b14613d235760405162461bcd60e51b815260040161096790615ac5565b6060614a288484600085614a32565b90505b9392505050565b606082471015614a935760405162461bcd60e51b815260206004820152602660248201527f416464726573733a20696e73756666696369656e742062616c616e636520666f6044820152651c8818d85b1b60d21b6064820152608401610967565b6001600160a01b0385163b614aea5760405162461bcd60e51b815260206004820152601d60248201527f416464726573733a2063616c6c20746f206e6f6e2d636f6e74726163740000006044820152606401610967565b600080866001600160a01b03168587604051614b069190615cea565b60006040518083038185875af1925050503d8060008114614b43576040519150601f19603f3d011682016040523d82523d6000602084013e614b48565b606091505b5091509150614b58828286614b63565b979650505050505050565b60608315614b72575081614a2b565b825115614b825782518084602001fd5b8160405162461bcd60e51b81526004016109679190614d4d565b5080546000825560040290600052602060002090810190611f5a9190614bde565b5080546000825560050290600052602060002090810190611f5a9190614c2a565b5b80821115614c265780546001600160a01b031990811682556001820180548216905560028201805490911690556003810180546001600160c81b0319169055600401614bdf565b5090565b5b80821115614c265780546001600160a01b031990811682556001820180548216905560028201805490911690556003810180546001600160c81b031916905560006004820155600501614c2b565b6001600160a01b0381168114611f5a57600080fd5b8035614c9981614c79565b919050565b60008060408385031215614cb157600080fd5b8235614cbc81614c79565b946020939093013593505050565b6001600160e01b031981168114611f5a57600080fd5b600060208284031215614cf257600080fd5b8135614a2b81614cca565b60005b83811015614d18578181015183820152602001614d00565b50506000910152565b60008151808452614d39816020860160208601614cfd565b601f01601f19169290920160200192915050565b602081526000614a2b6020830184614d21565b600060208284031215614d7257600080fd5b5035919050565b634e487b7160e01b600052604160045260246000fd5b61010081018181106001600160401b0382111715614daf57614daf614d79565b60405250565b604081018181106001600160401b0382111715614daf57614daf614d79565b606081018181106001600160401b0382111715614daf57614daf614d79565b601f8201601f191681016001600160401b0381118282101715614e1857614e18614d79565b6040525050565b60006001600160401b03821115614e3857614e38614d79565b5060051b60200190565b600082601f830112614e5357600080fd5b81356020614e6082614e1f565b604051614e6d8282614df3565b83815260059390931b8501820192828101915086841115614e8d57600080fd5b8286015b84811015614ea85780358352918301918301614e91565b509695505050505050565b600082601f830112614ec457600080fd5b81356001600160401b03811115614edd57614edd614d79565b604051614ef4601f8301601f191660200182614df3565b818152846020838601011115614f0957600080fd5b816020850160208301376000918101602001919091529392505050565b600080600080600060a08688031215614f3e57600080fd5b8535614f4981614c79565b94506020860135614f5981614c79565b935060408601356001600160401b0380821115614f7557600080fd5b614f8189838a01614e42565b94506060880135915080821115614f9757600080fd5b614fa389838a01614e42565b93506080880135915080821115614fb957600080fd5b50614fc688828901614eb3565b9150509295509295909350565b600060208284031215614fe557600080fd5b8135614a2b81614c79565b6000806040838503121561500357600080fd5b82356001600160401b038082111561501a57600080fd5b818501915085601f83011261502e57600080fd5b8135602061503b82614e1f565b6040516150488282614df3565b83815260059390931b850182019282810191508984111561506857600080fd5b948201945b8386101561508f57853561508081614c79565b8252948201949082019061506d565b965050860135925050808211156150a557600080fd5b506150b285828601614e42565b9150509250929050565b600081518084526020808501945080840160005b838110156150ec578151875295820195908201906001016150d0565b509495945050505050565b602081526000614a2b60208301846150bc565b6000806040838503121561511d57600080fd5b50508035926020909101359150565b60018060a01b038082511683528060208301511660208401528060408301511660408401528060608301511660608401525060808101511515608083015260a0810151151560a083015260c081015161518b60c084018261ffff169052565b5060e081015161179560e084018260ff169052565b600060408301825184526020808401516040828701528281518085526060880191508383019450600092505b80831015614ea85784516151e183825161512c565b8401516101008301529383019360019290920191610120909101906151cc565b602081526000614a2b60208301846151a0565b8015158114611f5a57600080fd5b8035614c9981615214565b6000806040838503121561524057600080fd5b823561524b81614c79565b9150602083013561525b81615214565b809150509250929050565b61ffff81168114611f5a57600080fd5b8035614c9981615266565b60006020828403121561529357600080fd5b8135614a2b81615266565b6020808252825182820181905260009190848201906040850190845b818110156152e1576152cd83855161512c565b9284019261010092909201916001016152ba565b50909695505050505050565b828152604060208201526000614a2860408301846151a0565b6000806040838503121561531957600080fd5b823561532481614c79565b9150602083013561525b81614c79565b600080600080600060a0868803121561534c57600080fd5b853561535781614c79565b9450602086013561536781614c79565b9350604086013592506060860135915060808601356001600160401b0381111561539057600080fd5b614fc688828901614eb3565b60ff81168114611f5a57600080fd5b8035614c998161539c565b600060208083850312156153c957600080fd5b82356001600160401b038111156153df57600080fd5b8301601f810185136153f057600080fd5b80356153fb81614e1f565b604080516154098382614df3565b83815260089390931b840185019285810192508884111561542957600080fd5b938501935b838510156154e457610100858a0312156154485760008081fd5b815161545381614d8f565b61545c86614c8e565b8152615469878701614c8e565b87820152615478838701614c8e565b838201526060615489818801614c8e565b90820152608061549a878201615222565b9082015260a06154ab878201615222565b9082015260c06154bc878201615276565b9082015260e06154cd8782016153ab565b90820152835261010094909401939185019161542e565b98975050505050505050565b600181811c9082168061550457607f821691505b60208210810361552457634e487b7160e01b600052602260045260246000fd5b50919050565b6020808252601f908201527f5265656e7472616e637947756172643a207265656e7472616e742063616c6c00604082015260600190565b60006020828403121561557357600080fd5b5051919050565b634e487b7160e01b600052601160045260246000fd5b818103818111156109935761099361557a565b6020808252818101527f4f776e61626c653a2063616c6c6572206973206e6f7420746865206f776e6572604082015260600190565b6000602082840312156155ea57600080fd5b8151614a2b81615214565b634e487b7160e01b600052603260045260246000fd5b60006001820161561d5761561d61557a565b5060010190565b61ffff81811683821601908082111561563f5761563f61557a565b5092915050565b60006020828403121561565857600080fd5b8151614a2b81614c79565b60006020828403121561567557600080fd5b8151614a2b8161539c565b60208082526025908201527f455243313135353a207472616e7366657220746f20746865207a65726f206164604082015264647265737360d81b606082015260800190565b6020808252602a908201527f455243313135353a20696e73756666696369656e742062616c616e636520666f60408201526939103a3930b739b332b960b11b606082015260800190565b808201808211156109935761099361557a565b60408152600061573560408301856150bc565b828103602084015261574781856150bc565b95945050505050565b80820281158282048414176109935761099361557a565b60008261578457634e487b7160e01b600052601260045260246000fd5b500490565b60ff82811682821603908111156109935761099361557a565b600181815b808511156157dd5781600019048211156157c3576157c361557a565b808516156157d057918102915b93841c93908002906157a7565b509250929050565b6000826157f457506001610993565b8161580157506000610993565b816001811461581757600281146158215761583d565b6001915050610993565b60ff8411156158325761583261557a565b50506001821b610993565b5060208310610133831016604e8410600b8410161715615860575081810a610993565b61586a83836157a2565b806000190482111561587e5761587e61557a565b029392505050565b6000614a2b60ff8416836157e5565b61ffff82811682821603908082111561563f5761563f61557a565b600060a082018783526020878185015260a0604085015281875180845260c086019150828901935060005b818110156159005784516001600160a01b0316835293830193918301916001016158db565b50506001600160a01b03969096166060850152505050608001529392505050565b6000602080838503121561593457600080fd5b82516001600160401b0381111561594a57600080fd5b8301601f8101851361595b57600080fd5b805161596681614e1f565b6040516159738282614df3565b82815260059290921b830184019184810191508783111561599357600080fd5b928401925b82841015614b5857835182529284019290840190615998565b6001600160a01b0386811682528516602082015260a0604082018190526000906159dd908301866150bc565b82810360608401526159ef81866150bc565b905082810360808401526154e48185614d21565b600060208284031215615a1557600080fd5b8151614a2b81614cca565b600060033d1115615a395760046000803e5060005160e01c5b90565b600060443d1015615a4a5790565b6040516003193d81016004833e81513d6001600160401b038160248401118184111715615a7957505050505090565b8285019150815181811115615a915750505050505090565b843d8701016020828501011115615aab5750505050505090565b615aba60208286010187614df3565b509095945050505050565b60208082526028908201527f455243313135353a204552433131353552656365697665722072656a656374656040820152676420746f6b656e7360c01b606082015260800190565b60006040808385031215615b2057600080fd5b8051615b2b81614db5565b809250835181526020808501516001600160401b03811115615b4c57600080fd5b8501601f81018713615b5d57600080fd5b8051615b6881614e1f565b8551615b748282614df3565b82815260079290921b8301840191848101915089831115615b9457600080fd5b928401925b82841015615c2657838a036080811215615bb35760008081fd5b8751615bbe81614db5565b606080831215615bce5760008081fd5b89519250615bdb83614dd4565b8651615be681614c79565b835286880151615bf581615214565b83890152868a0151615c0681615266565b838b01529181529085015186820152825260809093019290840190615b99565b80858701525050505050505092915050565b600060208284031215615c4a57600080fd5b81516001600160401b03811115615c6057600080fd5b615c6c84828501615b0d565b949350505050565b60008060408385031215615c8757600080fd5b8251915060208301516001600160401b03811115615ca457600080fd5b6150b285828601615b0d565b6001600160a01b03868116825285166020820152604081018490526060810183905260a060808201819052600090614b5890830184614d21565b60008251615cfc818460208701614cfd565b919091019291505056fea2646970667358221220476380bf1c9277909c96cdb5a4caa05870f2758038b44bdab4a44ff8bc51e75464736f6c63430008150033",
  "devdoc": {
    "events": {
      "ApprovalForAll(address,address,bool)": {
        "details": "Emitted when `account` grants or revokes permission to `operator` to transfer their tokens, according to `approved`."
      },
      "TransferBatch(address,address,address,uint256[],uint256[])": {
        "details": "Equivalent to multiple {TransferSingle} events, where `operator`, `from` and `to` are the same for all transfers."
      },
      "TransferSingle(address,address,address,uint256,uint256)": {
        "details": "Emitted when `value` tokens of token type `id` are transferred from `from` to `to` by `operator`."
      },
      "URI(string,uint256)": {
        "details": "Emitted when the URI for token type `id` changes to `value`, if it is a non-programmatic URI. If an {URI} event was emitted for `id`, the standard https://eips.ethereum.org/EIPS/eip-1155#metadata-extensions[guarantees] that `value` will equal the value returned by {IERC1155MetadataURI-uri}."
      }
    },
    "kind": "dev",
    "methods": {
      "balanceOf(address,uint256)": {
        "details": "See {IERC1155-balanceOf}. Requirements: - `account` cannot be the zero address."
      },
      "balanceOfBatch(address[],uint256[])": {
        "details": "See {IERC1155-balanceOfBatch}. Requirements: - `accounts` and `ids` must have the same length."
      },
      "deposit(uint256)": {
        "details": "The user must deposit at least the minDeposit, and will receive an ERC1155 non-fungible receipt token.  The receipt token will be mapped to a TokenInfo containing the amount deposited as well as the strategy receipt  tokens received for later withdrawal."
      },
      "exists(uint256)": {
        "details": "Indicates whether any token exist with a given id, or not."
      },
      "isApprovedForAll(address,address)": {
        "details": "See {IERC1155-isApprovedForAll}."
      },
      "owner()": {
        "details": "Returns the address of the current owner."
      },
      "rebalance(uint256)": {
        "details": "This function utilizes the internal _deposit and _withdraw functions to rebalance based on  the strategies set in the contract. Since _deposit will set the TokenInfo.deposit to the total  deposited after the rebalance, we must store the original deposit and overwrite the TokenInfo before completing the transaction."
      },
      "refreshApprovals()": {
        "details": "Since contract never holds deposit tokens max approvals should not matter. "
      },
      "renounceOwnership()": {
        "details": "Leaves the contract without owner. It will not be possible to call `onlyOwner` functions anymore. Can only be called by the current owner. NOTE: Renouncing ownership will leave the contract without an owner, thereby removing any functionality that is only available to the owner."
      },
      "safeBatchTransferFrom(address,address,uint256[],uint256[],bytes)": {
        "details": "See {IERC1155-safeBatchTransferFrom}."
      },
      "safeTransferFrom(address,address,uint256,uint256,bytes)": {
        "details": "See {IERC1155-safeTransferFrom}."
      },
      "setApprovalForAll(address,bool)": {
        "details": "See {IERC1155-setApprovalForAll}."
      },
      "totalSupply(uint256)": {
        "details": "Total amount of tokens in with a given id."
      },
      "transferOwnership(address)": {
        "details": "Transfers ownership of the contract to a new account (`newOwner`). Can only be called by the current owner."
      },
      "uri(uint256)": {
        "details": "See {IERC1155MetadataURI-uri}. This implementation returns the same URI for *all* token types. It relies on the token type ID substitution mechanism https://eips.ethereum.org/EIPS/eip-1155#metadata[defined in the EIP]. Clients calling this function must replace the `\\{id\\}` substring with the actual token type ID."
      },
      "withdraw(uint256)": {
        "details": "Once all receipts are burned and deposit tokens received, the fee manager will calculate the fees due,  and the fee manager will distribute those fees before transfering the user their proceeds."
      }
    },
    "title": "Contract for FortiFi Wrapped Native MASS Vaults",
    "version": 1
  },
  "userdoc": {
    "errors": {
      "CantAddToReceipt()": [
        {
          "notice": "Error caused when strategies change and a receipt cannot be added to without rebalancing"
        }
      ],
      "CantWithdrawStrategyReceipts()": [
        {
          "notice": "Error caused by trying to use recoverERC20 to withdraw strategy receipt tokens"
        }
      ],
      "ContractPaused()": [
        {
          "notice": "Error caused when trying to transact with contract while paused"
        }
      ],
      "DuplicateStrategy()": [
        {
          "notice": "Error caused by trying to set a strategy more than once"
        }
      ],
      "FailedToRefund()": [
        {
          "notice": "Error thrown when refunding native token fails"
        }
      ],
      "InvalidBps()": [
        {
          "notice": "Error caused when bps does not equal 10_000"
        }
      ],
      "InvalidDeposit()": [
        {
          "notice": "Error caused by trying to deposit 0"
        }
      ],
      "InvalidMinDeposit()": [
        {
          "notice": "Error caused by trying to set minDeposit below BPS"
        }
      ],
      "InvalidOracle()": [
        {
          "notice": "Error caused when trying to set oracle to an invalid address"
        }
      ],
      "InvalidSlippage()": [
        {
          "notice": "Error caused by trying to set a slippage too high"
        }
      ],
      "NoStrategies()": [
        {
          "notice": "Error caused when strategies array is empty"
        }
      ],
      "NotTokenOwner()": [
        {
          "notice": "Error caused by trying to use a token not owned by user"
        }
      ],
      "SwapFailed()": [
        {
          "notice": "Error caused when swap fails"
        }
      ],
      "TooManyStrategies()": [
        {
          "notice": "Error caused by trying to set too many strategies"
        }
      ],
      "ZeroAddress()": [
        {
          "notice": "Error caused by using 0 address as a parameter"
        }
      ]
    },
    "kind": "user",
    "methods": {
      "add(uint256,uint256)": {
        "notice": "This function is used to add to a user's deposit when they already has a receipt (ERC1155). The user can add to their  deposit without needing to burn/withdraw first. "
      },
      "deposit(uint256)": {
        "notice": "This function is used when a user does not already have a receipt (ERC1155). "
      },
      "flipPaused()": {
        "notice": "Function to flip paused state"
      },
      "getStrategies()": {
        "notice": "View function that returns all strategies"
      },
      "getTokenInfo(uint256)": {
        "notice": "View function that returns tokenInfo"
      },
      "rebalance(uint256)": {
        "notice": "This function allows a user to rebalance a receipt (ERC1155) token's underlying assets. "
      },
      "recoverERC20(address,uint256)": {
        "notice": "Emergency function to recover stuck ERC20 tokens"
      },
      "refreshApprovals()": {
        "notice": "Function to set max approvals for router and strategies. "
      },
      "setFeeCalculator(address)": {
        "notice": "Function to set new FortiFiFeeCalculator contract"
      },
      "setFeeManager(address)": {
        "notice": "Function to set new FortiFiFeeManager contract"
      },
      "setMinDeposit(uint256)": {
        "notice": "Function to set minimum deposit"
      },
      "setNativeOracle(address)": {
        "notice": "Function to set new native oracle contract"
      },
      "setSlippage(uint16)": {
        "notice": "Function to set slippage used in swap functions. Must be 1-5% (100-500)"
      },
      "setStrategies((address,address,address,address,bool,bool,uint16,uint8)[])": {
        "notice": "This function sets up the underlying strategies used by the vault."
      },
      "supportsInterface(bytes4)": {
        "notice": "Override to allow FortiFiStrategy contracts to verify that specified vaults implement IMASS interface"
      },
      "withdraw(uint256)": {
        "notice": "This function is used to burn a receipt (ERC1155) and withdraw all underlying strategy receipt tokens. "
      }
    },
    "notice": "This contract allows for the deposit of wrapped native tokens, which is then swapped into various assets and deposited in to  multiple yield-bearing strategies. ",
    "version": 1
  },
  "storageLayout": {
    "storage": [
      {
        "astId": 170,
        "contract": "contracts/vaults/FortiFiWNativeMASSVault.sol:FortiFiWNativeMASSVault",
        "label": "_balances",
        "offset": 0,
        "slot": "0",
        "type": "t_mapping(t_uint256,t_mapping(t_address,t_uint256))"
      },
      {
        "astId": 176,
        "contract": "contracts/vaults/FortiFiWNativeMASSVault.sol:FortiFiWNativeMASSVault",
        "label": "_operatorApprovals",
        "offset": 0,
        "slot": "1",
        "type": "t_mapping(t_address,t_mapping(t_address,t_bool))"
      },
      {
        "astId": 178,
        "contract": "contracts/vaults/FortiFiWNativeMASSVault.sol:FortiFiWNativeMASSVault",
        "label": "_uri",
        "offset": 0,
        "slot": "2",
        "type": "t_string_storage"
      },
      {
        "astId": 1413,
        "contract": "contracts/vaults/FortiFiWNativeMASSVault.sol:FortiFiWNativeMASSVault",
        "label": "_totalSupply",
        "offset": 0,
        "slot": "3",
        "type": "t_mapping(t_uint256,t_uint256)"
      },
      {
        "astId": 7,
        "contract": "contracts/vaults/FortiFiWNativeMASSVault.sol:FortiFiWNativeMASSVault",
        "label": "_owner",
        "offset": 0,
        "slot": "4",
        "type": "t_address"
      },
      {
        "astId": 115,
        "contract": "contracts/vaults/FortiFiWNativeMASSVault.sol:FortiFiWNativeMASSVault",
        "label": "_status",
        "offset": 0,
        "slot": "5",
        "type": "t_uint256"
      },
      {
        "astId": 18394,
        "contract": "contracts/vaults/FortiFiWNativeMASSVault.sol:FortiFiWNativeMASSVault",
        "label": "name",
        "offset": 0,
        "slot": "6",
        "type": "t_string_storage"
      },
      {
        "astId": 18396,
        "contract": "contracts/vaults/FortiFiWNativeMASSVault.sol:FortiFiWNativeMASSVault",
        "label": "symbol",
        "offset": 0,
        "slot": "7",
        "type": "t_string_storage"
      },
      {
        "astId": 18410,
        "contract": "contracts/vaults/FortiFiWNativeMASSVault.sol:FortiFiWNativeMASSVault",
        "label": "slippageBps",
        "offset": 0,
        "slot": "8",
        "type": "t_uint16"
      },
      {
        "astId": 18413,
        "contract": "contracts/vaults/FortiFiWNativeMASSVault.sol:FortiFiWNativeMASSVault",
        "label": "minDeposit",
        "offset": 0,
        "slot": "9",
        "type": "t_uint256"
      },
      {
        "astId": 18416,
        "contract": "contracts/vaults/FortiFiWNativeMASSVault.sol:FortiFiWNativeMASSVault",
        "label": "nextToken",
        "offset": 0,
        "slot": "10",
        "type": "t_uint256"
      },
      {
        "astId": 18419,
        "contract": "contracts/vaults/FortiFiWNativeMASSVault.sol:FortiFiWNativeMASSVault",
        "label": "paused",
        "offset": 0,
        "slot": "11",
        "type": "t_bool"
      },
      {
        "astId": 18422,
        "contract": "contracts/vaults/FortiFiWNativeMASSVault.sol:FortiFiWNativeMASSVault",
        "label": "feeCalc",
        "offset": 1,
        "slot": "11",
        "type": "t_contract(IFortiFiFeeCalculator)4629"
      },
      {
        "astId": 18425,
        "contract": "contracts/vaults/FortiFiWNativeMASSVault.sol:FortiFiWNativeMASSVault",
        "label": "feeMgr",
        "offset": 0,
        "slot": "12",
        "type": "t_contract(IFortiFiFeeManager)4980"
      },
      {
        "astId": 18428,
        "contract": "contracts/vaults/FortiFiWNativeMASSVault.sol:FortiFiWNativeMASSVault",
        "label": "nativeOracle",
        "offset": 0,
        "slot": "13",
        "type": "t_contract(IFortiFiPriceOracle)7951"
      },
      {
        "astId": 18432,
        "contract": "contracts/vaults/FortiFiWNativeMASSVault.sol:FortiFiWNativeMASSVault",
        "label": "strategies",
        "offset": 0,
        "slot": "14",
        "type": "t_array(t_struct(Strategy)20458_storage)dyn_storage"
      },
      {
        "astId": 18437,
        "contract": "contracts/vaults/FortiFiWNativeMASSVault.sol:FortiFiWNativeMASSVault",
        "label": "tokenInfo",
        "offset": 0,
        "slot": "15",
        "type": "t_mapping(t_uint256,t_struct(TokenInfo)20471_storage)"
      }
    ],
    "types": {
      "t_address": {
        "encoding": "inplace",
        "label": "address",
        "numberOfBytes": "20"
      },
      "t_array(t_struct(Position)20464_storage)dyn_storage": {
        "base": "t_struct(Position)20464_storage",
        "encoding": "dynamic_array",
        "label": "struct IMASS.Position[]",
        "numberOfBytes": "32"
      },
      "t_array(t_struct(Strategy)20458_storage)dyn_storage": {
        "base": "t_struct(Strategy)20458_storage",
        "encoding": "dynamic_array",
        "label": "struct IMASS.Strategy[]",
        "numberOfBytes": "32"
      },
      "t_bool": {
        "encoding": "inplace",
        "label": "bool",
        "numberOfBytes": "1"
      },
      "t_contract(IFortiFiFeeCalculator)4629": {
        "encoding": "inplace",
        "label": "contract IFortiFiFeeCalculator",
        "numberOfBytes": "20"
      },
      "t_contract(IFortiFiFeeManager)4980": {
        "encoding": "inplace",
        "label": "contract IFortiFiFeeManager",
        "numberOfBytes": "20"
      },
      "t_contract(IFortiFiPriceOracle)7951": {
        "encoding": "inplace",
        "label": "contract IFortiFiPriceOracle",
        "numberOfBytes": "20"
      },
      "t_mapping(t_address,t_bool)": {
        "encoding": "mapping",
        "key": "t_address",
        "label": "mapping(address => bool)",
        "numberOfBytes": "32",
        "value": "t_bool"
      },
      "t_mapping(t_address,t_mapping(t_address,t_bool))": {
        "encoding": "mapping",
        "key": "t_address",
        "label": "mapping(address => mapping(address => bool))",
        "numberOfBytes": "32",
        "value": "t_mapping(t_address,t_bool)"
      },
      "t_mapping(t_address,t_uint256)": {
        "encoding": "mapping",
        "key": "t_address",
        "label": "mapping(address => uint256)",
        "numberOfBytes": "32",
        "value": "t_uint256"
      },
      "t_mapping(t_uint256,t_mapping(t_address,t_uint256))": {
        "encoding": "mapping",
        "key": "t_uint256",
        "label": "mapping(uint256 => mapping(address => uint256))",
        "numberOfBytes": "32",
        "value": "t_mapping(t_address,t_uint256)"
      },
      "t_mapping(t_uint256,t_struct(TokenInfo)20471_storage)": {
        "encoding": "mapping",
        "key": "t_uint256",
        "label": "mapping(uint256 => struct IMASS.TokenInfo)",
        "numberOfBytes": "32",
        "value": "t_struct(TokenInfo)20471_storage"
      },
      "t_mapping(t_uint256,t_uint256)": {
        "encoding": "mapping",
        "key": "t_uint256",
        "label": "mapping(uint256 => uint256)",
        "numberOfBytes": "32",
        "value": "t_uint256"
      },
      "t_string_storage": {
        "encoding": "bytes",
        "label": "string",
        "numberOfBytes": "32"
      },
      "t_struct(Position)20464_storage": {
        "encoding": "inplace",
        "label": "struct IMASS.Position",
        "members": [
          {
            "astId": 20461,
            "contract": "contracts/vaults/FortiFiWNativeMASSVault.sol:FortiFiWNativeMASSVault",
            "label": "strategy",
            "offset": 0,
            "slot": "0",
            "type": "t_struct(Strategy)20458_storage"
          },
          {
            "astId": 20463,
            "contract": "contracts/vaults/FortiFiWNativeMASSVault.sol:FortiFiWNativeMASSVault",
            "label": "receipt",
            "offset": 0,
            "slot": "4",
            "type": "t_uint256"
          }
        ],
        "numberOfBytes": "160"
      },
      "t_struct(Strategy)20458_storage": {
        "encoding": "inplace",
        "label": "struct IMASS.Strategy",
        "members": [
          {
            "astId": 20443,
            "contract": "contracts/vaults/FortiFiWNativeMASSVault.sol:FortiFiWNativeMASSVault",
            "label": "strategy",
            "offset": 0,
            "slot": "0",
            "type": "t_address"
          },
          {
            "astId": 20445,
            "contract": "contracts/vaults/FortiFiWNativeMASSVault.sol:FortiFiWNativeMASSVault",
            "label": "depositToken",
            "offset": 0,
            "slot": "1",
            "type": "t_address"
          },
          {
            "astId": 20447,
            "contract": "contracts/vaults/FortiFiWNativeMASSVault.sol:FortiFiWNativeMASSVault",
            "label": "router",
            "offset": 0,
            "slot": "2",
            "type": "t_address"
          },
          {
            "astId": 20449,
            "contract": "contracts/vaults/FortiFiWNativeMASSVault.sol:FortiFiWNativeMASSVault",
            "label": "oracle",
            "offset": 0,
            "slot": "3",
            "type": "t_address"
          },
          {
            "astId": 20451,
            "contract": "contracts/vaults/FortiFiWNativeMASSVault.sol:FortiFiWNativeMASSVault",
            "label": "isFortiFi",
            "offset": 20,
            "slot": "3",
            "type": "t_bool"
          },
          {
            "astId": 20453,
            "contract": "contracts/vaults/FortiFiWNativeMASSVault.sol:FortiFiWNativeMASSVault",
            "label": "isSAMS",
            "offset": 21,
            "slot": "3",
            "type": "t_bool"
          },
          {
            "astId": 20455,
            "contract": "contracts/vaults/FortiFiWNativeMASSVault.sol:FortiFiWNativeMASSVault",
            "label": "bps",
            "offset": 22,
            "slot": "3",
            "type": "t_uint16"
          },
          {
            "astId": 20457,
            "contract": "contracts/vaults/FortiFiWNativeMASSVault.sol:FortiFiWNativeMASSVault",
            "label": "decimals",
            "offset": 24,
            "slot": "3",
            "type": "t_uint8"
          }
        ],
        "numberOfBytes": "128"
      },
      "t_struct(TokenInfo)20471_storage": {
        "encoding": "inplace",
        "label": "struct IMASS.TokenInfo",
        "members": [
          {
            "astId": 20466,
            "contract": "contracts/vaults/FortiFiWNativeMASSVault.sol:FortiFiWNativeMASSVault",
            "label": "deposit",
            "offset": 0,
            "slot": "0",
            "type": "t_uint256"
          },
          {
            "astId": 20470,
            "contract": "contracts/vaults/FortiFiWNativeMASSVault.sol:FortiFiWNativeMASSVault",
            "label": "positions",
            "offset": 0,
            "slot": "1",
            "type": "t_array(t_struct(Position)20464_storage)dyn_storage"
          }
        ],
        "numberOfBytes": "64"
      },
      "t_uint16": {
        "encoding": "inplace",
        "label": "uint16",
        "numberOfBytes": "2"
      },
      "t_uint256": {
        "encoding": "inplace",
        "label": "uint256",
        "numberOfBytes": "32"
      },
      "t_uint8": {
        "encoding": "inplace",
        "label": "uint8",
        "numberOfBytes": "1"
      }
    }
  }
}