{
  "address": "0xfc7427AEb2c76487Aef5c20736C2197F139d898b",
  "abi": [
    {
      "inputs": [
        {
          "internalType": "address",
          "name": "_strategy",
          "type": "address"
        },
        {
          "internalType": "address",
          "name": "_wrappedNative",
          "type": "address"
        },
        {
          "internalType": "address",
          "name": "_feeManager",
          "type": "address"
        },
        {
          "internalType": "address",
          "name": "_feeCalculator",
          "type": "address"
        }
      ],
      "stateMutability": "nonpayable",
      "type": "constructor"
    },
    {
      "inputs": [],
      "name": "InvalidCaller",
      "type": "error"
    },
    {
      "inputs": [],
      "name": "InvalidDeposit",
      "type": "error"
    },
    {
      "inputs": [],
      "name": "InvalidVaultImplementation",
      "type": "error"
    },
    {
      "inputs": [],
      "name": "InvalidWithdrawal",
      "type": "error"
    },
    {
      "inputs": [],
      "name": "NoFortress",
      "type": "error"
    },
    {
      "inputs": [],
      "name": "StrategyBricked",
      "type": "error"
    },
    {
      "inputs": [],
      "name": "ZeroAddress",
      "type": "error"
    },
    {
      "anonymous": false,
      "inputs": [
        {
          "indexed": true,
          "internalType": "address",
          "name": "owner",
          "type": "address"
        },
        {
          "indexed": true,
          "internalType": "address",
          "name": "spender",
          "type": "address"
        },
        {
          "indexed": false,
          "internalType": "uint256",
          "name": "value",
          "type": "uint256"
        }
      ],
      "name": "Approval",
      "type": "event"
    },
    {
      "anonymous": false,
      "inputs": [
        {
          "indexed": true,
          "internalType": "address",
          "name": "vault",
          "type": "address"
        },
        {
          "indexed": true,
          "internalType": "address",
          "name": "user",
          "type": "address"
        },
        {
          "indexed": true,
          "internalType": "address",
          "name": "strategy",
          "type": "address"
        },
        {
          "indexed": false,
          "internalType": "uint256",
          "name": "amountDeposited",
          "type": "uint256"
        }
      ],
      "name": "DepositToFortress",
      "type": "event"
    },
    {
      "anonymous": false,
      "inputs": [
        {
          "indexed": true,
          "internalType": "address",
          "name": "token",
          "type": "address"
        },
        {
          "indexed": false,
          "internalType": "uint256",
          "name": "amount",
          "type": "uint256"
        }
      ],
      "name": "ERC20Recovered",
      "type": "event"
    },
    {
      "anonymous": false,
      "inputs": [
        {
          "indexed": true,
          "internalType": "address",
          "name": "fortress",
          "type": "address"
        },
        {
          "indexed": true,
          "internalType": "address",
          "name": "token",
          "type": "address"
        },
        {
          "indexed": false,
          "internalType": "uint256",
          "name": "amount",
          "type": "uint256"
        }
      ],
      "name": "ERC20RecoveredFromFortress",
      "type": "event"
    },
    {
      "anonymous": false,
      "inputs": [
        {
          "indexed": false,
          "internalType": "address[]",
          "name": "tokens",
          "type": "address[]"
        }
      ],
      "name": "ExtraTokensSet",
      "type": "event"
    },
    {
      "anonymous": false,
      "inputs": [
        {
          "indexed": false,
          "internalType": "address",
          "name": "feeCalculator",
          "type": "address"
        }
      ],
      "name": "FeeCalculatorSet",
      "type": "event"
    },
    {
      "anonymous": false,
      "inputs": [
        {
          "indexed": false,
          "internalType": "address",
          "name": "feeManager",
          "type": "address"
        }
      ],
      "name": "FeeManagerSet",
      "type": "event"
    },
    {
      "anonymous": false,
      "inputs": [
        {
          "indexed": true,
          "internalType": "address",
          "name": "vault",
          "type": "address"
        },
        {
          "indexed": false,
          "internalType": "uint256",
          "name": "tokenId",
          "type": "uint256"
        },
        {
          "indexed": true,
          "internalType": "address",
          "name": "strategy",
          "type": "address"
        }
      ],
      "name": "FortressCreated",
      "type": "event"
    },
    {
      "anonymous": false,
      "inputs": [
        {
          "indexed": true,
          "internalType": "address",
          "name": "previousOwner",
          "type": "address"
        },
        {
          "indexed": true,
          "internalType": "address",
          "name": "newOwner",
          "type": "address"
        }
      ],
      "name": "OwnershipTransferred",
      "type": "event"
    },
    {
      "anonymous": false,
      "inputs": [
        {
          "indexed": false,
          "internalType": "bool",
          "name": "isBricked",
          "type": "bool"
        }
      ],
      "name": "SetStrategyAsBricked",
      "type": "event"
    },
    {
      "anonymous": false,
      "inputs": [
        {
          "indexed": true,
          "internalType": "address",
          "name": "from",
          "type": "address"
        },
        {
          "indexed": true,
          "internalType": "address",
          "name": "to",
          "type": "address"
        },
        {
          "indexed": false,
          "internalType": "uint256",
          "name": "value",
          "type": "uint256"
        }
      ],
      "name": "Transfer",
      "type": "event"
    },
    {
      "anonymous": false,
      "inputs": [
        {
          "indexed": false,
          "internalType": "address",
          "name": "vault",
          "type": "address"
        },
        {
          "indexed": false,
          "internalType": "bool",
          "name": "approved",
          "type": "bool"
        }
      ],
      "name": "VaultSet",
      "type": "event"
    },
    {
      "anonymous": false,
      "inputs": [
        {
          "indexed": true,
          "internalType": "address",
          "name": "vault",
          "type": "address"
        },
        {
          "indexed": true,
          "internalType": "address",
          "name": "user",
          "type": "address"
        },
        {
          "indexed": true,
          "internalType": "address",
          "name": "strategy",
          "type": "address"
        },
        {
          "indexed": false,
          "internalType": "uint256",
          "name": "tokenId",
          "type": "uint256"
        }
      ],
      "name": "WithdrawBrickedFromFortress",
      "type": "event"
    },
    {
      "anonymous": false,
      "inputs": [
        {
          "indexed": true,
          "internalType": "address",
          "name": "vault",
          "type": "address"
        },
        {
          "indexed": true,
          "internalType": "address",
          "name": "user",
          "type": "address"
        },
        {
          "indexed": true,
          "internalType": "address",
          "name": "strategy",
          "type": "address"
        },
        {
          "indexed": false,
          "internalType": "uint256",
          "name": "tokenId",
          "type": "uint256"
        },
        {
          "indexed": false,
          "internalType": "uint256",
          "name": "amountReceived",
          "type": "uint256"
        }
      ],
      "name": "WithdrawFromFortress",
      "type": "event"
    },
    {
      "inputs": [],
      "name": "_strat",
      "outputs": [
        {
          "internalType": "address",
          "name": "",
          "type": "address"
        }
      ],
      "stateMutability": "view",
      "type": "function"
    },
    {
      "inputs": [],
      "name": "_wNative",
      "outputs": [
        {
          "internalType": "contract IERC20",
          "name": "",
          "type": "address"
        }
      ],
      "stateMutability": "view",
      "type": "function"
    },
    {
      "inputs": [
        {
          "internalType": "address",
          "name": "owner",
          "type": "address"
        },
        {
          "internalType": "address",
          "name": "spender",
          "type": "address"
        }
      ],
      "name": "allowance",
      "outputs": [
        {
          "internalType": "uint256",
          "name": "",
          "type": "uint256"
        }
      ],
      "stateMutability": "view",
      "type": "function"
    },
    {
      "inputs": [
        {
          "internalType": "address",
          "name": "spender",
          "type": "address"
        },
        {
          "internalType": "uint256",
          "name": "amount",
          "type": "uint256"
        }
      ],
      "name": "approve",
      "outputs": [
        {
          "internalType": "bool",
          "name": "",
          "type": "bool"
        }
      ],
      "stateMutability": "nonpayable",
      "type": "function"
    },
    {
      "inputs": [
        {
          "internalType": "address",
          "name": "account",
          "type": "address"
        }
      ],
      "name": "balanceOf",
      "outputs": [
        {
          "internalType": "uint256",
          "name": "",
          "type": "uint256"
        }
      ],
      "stateMutability": "view",
      "type": "function"
    },
    {
      "inputs": [],
      "name": "decimals",
      "outputs": [
        {
          "internalType": "uint8",
          "name": "",
          "type": "uint8"
        }
      ],
      "stateMutability": "view",
      "type": "function"
    },
    {
      "inputs": [
        {
          "internalType": "address",
          "name": "spender",
          "type": "address"
        },
        {
          "internalType": "uint256",
          "name": "subtractedValue",
          "type": "uint256"
        }
      ],
      "name": "decreaseAllowance",
      "outputs": [
        {
          "internalType": "bool",
          "name": "",
          "type": "bool"
        }
      ],
      "stateMutability": "nonpayable",
      "type": "function"
    },
    {
      "inputs": [
        {
          "internalType": "uint256",
          "name": "_amount",
          "type": "uint256"
        },
        {
          "internalType": "address",
          "name": "_user",
          "type": "address"
        },
        {
          "internalType": "uint256",
          "name": "_tokenId",
          "type": "uint256"
        }
      ],
      "name": "depositToFortress",
      "outputs": [],
      "stateMutability": "nonpayable",
      "type": "function"
    },
    {
      "inputs": [
        {
          "internalType": "uint256",
          "name": "",
          "type": "uint256"
        }
      ],
      "name": "extraTokens",
      "outputs": [
        {
          "internalType": "address",
          "name": "",
          "type": "address"
        }
      ],
      "stateMutability": "view",
      "type": "function"
    },
    {
      "inputs": [],
      "name": "feeCalc",
      "outputs": [
        {
          "internalType": "contract IFortiFiFeeCalculator",
          "name": "",
          "type": "address"
        }
      ],
      "stateMutability": "view",
      "type": "function"
    },
    {
      "inputs": [],
      "name": "feeMgr",
      "outputs": [
        {
          "internalType": "contract IFortiFiFeeManager",
          "name": "",
          "type": "address"
        }
      ],
      "stateMutability": "view",
      "type": "function"
    },
    {
      "inputs": [
        {
          "internalType": "address",
          "name": "spender",
          "type": "address"
        },
        {
          "internalType": "uint256",
          "name": "addedValue",
          "type": "uint256"
        }
      ],
      "name": "increaseAllowance",
      "outputs": [
        {
          "internalType": "bool",
          "name": "",
          "type": "bool"
        }
      ],
      "stateMutability": "nonpayable",
      "type": "function"
    },
    {
      "inputs": [
        {
          "internalType": "address",
          "name": "",
          "type": "address"
        }
      ],
      "name": "isFortiFiVault",
      "outputs": [
        {
          "internalType": "bool",
          "name": "",
          "type": "bool"
        }
      ],
      "stateMutability": "view",
      "type": "function"
    },
    {
      "inputs": [],
      "name": "name",
      "outputs": [
        {
          "internalType": "string",
          "name": "",
          "type": "string"
        }
      ],
      "stateMutability": "view",
      "type": "function"
    },
    {
      "inputs": [],
      "name": "owner",
      "outputs": [
        {
          "internalType": "address",
          "name": "",
          "type": "address"
        }
      ],
      "stateMutability": "view",
      "type": "function"
    },
    {
      "inputs": [
        {
          "internalType": "address",
          "name": "_token",
          "type": "address"
        },
        {
          "internalType": "uint256",
          "name": "_amount",
          "type": "uint256"
        }
      ],
      "name": "recoverERC20",
      "outputs": [],
      "stateMutability": "nonpayable",
      "type": "function"
    },
    {
      "inputs": [
        {
          "internalType": "address",
          "name": "_fortress",
          "type": "address"
        },
        {
          "internalType": "address",
          "name": "_token",
          "type": "address"
        },
        {
          "internalType": "uint256",
          "name": "_amount",
          "type": "uint256"
        }
      ],
      "name": "recoverFromFortress",
      "outputs": [],
      "stateMutability": "nonpayable",
      "type": "function"
    },
    {
      "inputs": [],
      "name": "renounceOwnership",
      "outputs": [],
      "stateMutability": "nonpayable",
      "type": "function"
    },
    {
      "inputs": [
        {
          "internalType": "address[]",
          "name": "_tokens",
          "type": "address[]"
        }
      ],
      "name": "setExtraTokens",
      "outputs": [],
      "stateMutability": "nonpayable",
      "type": "function"
    },
    {
      "inputs": [
        {
          "internalType": "address",
          "name": "_contract",
          "type": "address"
        }
      ],
      "name": "setFeeCalculator",
      "outputs": [],
      "stateMutability": "nonpayable",
      "type": "function"
    },
    {
      "inputs": [
        {
          "internalType": "address",
          "name": "_contract",
          "type": "address"
        }
      ],
      "name": "setFeeManager",
      "outputs": [],
      "stateMutability": "nonpayable",
      "type": "function"
    },
    {
      "inputs": [
        {
          "internalType": "bool",
          "name": "_isBricked",
          "type": "bool"
        }
      ],
      "name": "setStrategyBricked",
      "outputs": [],
      "stateMutability": "nonpayable",
      "type": "function"
    },
    {
      "inputs": [
        {
          "internalType": "address",
          "name": "_vault",
          "type": "address"
        },
        {
          "internalType": "bool",
          "name": "_approved",
          "type": "bool"
        }
      ],
      "name": "setVault",
      "outputs": [],
      "stateMutability": "nonpayable",
      "type": "function"
    },
    {
      "inputs": [],
      "name": "strategyIsBricked",
      "outputs": [
        {
          "internalType": "bool",
          "name": "",
          "type": "bool"
        }
      ],
      "stateMutability": "view",
      "type": "function"
    },
    {
      "inputs": [],
      "name": "symbol",
      "outputs": [
        {
          "internalType": "string",
          "name": "",
          "type": "string"
        }
      ],
      "stateMutability": "view",
      "type": "function"
    },
    {
      "inputs": [],
      "name": "totalSupply",
      "outputs": [
        {
          "internalType": "uint256",
          "name": "",
          "type": "uint256"
        }
      ],
      "stateMutability": "view",
      "type": "function"
    },
    {
      "inputs": [
        {
          "internalType": "address",
          "name": "to",
          "type": "address"
        },
        {
          "internalType": "uint256",
          "name": "amount",
          "type": "uint256"
        }
      ],
      "name": "transfer",
      "outputs": [
        {
          "internalType": "bool",
          "name": "",
          "type": "bool"
        }
      ],
      "stateMutability": "nonpayable",
      "type": "function"
    },
    {
      "inputs": [
        {
          "internalType": "address",
          "name": "from",
          "type": "address"
        },
        {
          "internalType": "address",
          "name": "to",
          "type": "address"
        },
        {
          "internalType": "uint256",
          "name": "amount",
          "type": "uint256"
        }
      ],
      "name": "transferFrom",
      "outputs": [
        {
          "internalType": "bool",
          "name": "",
          "type": "bool"
        }
      ],
      "stateMutability": "nonpayable",
      "type": "function"
    },
    {
      "inputs": [
        {
          "internalType": "address",
          "name": "newOwner",
          "type": "address"
        }
      ],
      "name": "transferOwnership",
      "outputs": [],
      "stateMutability": "nonpayable",
      "type": "function"
    },
    {
      "inputs": [
        {
          "internalType": "address",
          "name": "",
          "type": "address"
        },
        {
          "internalType": "uint256",
          "name": "",
          "type": "uint256"
        }
      ],
      "name": "vaultToTokenToFortress",
      "outputs": [
        {
          "internalType": "address",
          "name": "",
          "type": "address"
        }
      ],
      "stateMutability": "view",
      "type": "function"
    },
    {
      "inputs": [
        {
          "internalType": "uint256",
          "name": "_amount",
          "type": "uint256"
        },
        {
          "internalType": "address",
          "name": "_user",
          "type": "address"
        },
        {
          "internalType": "uint256",
          "name": "_tokenId",
          "type": "uint256"
        }
      ],
      "name": "withdrawFromFortress",
      "outputs": [],
      "stateMutability": "nonpayable",
      "type": "function"
    }
  ],
  "transactionHash": "0x1d698e7cc9f1697eaf9dd691cf5ccae7746bff18ae9e6b3c3f2fbcfe45469eee",
  "args": [
    "0x8B414448de8B609e96bd63Dcf2A8aDbd5ddf7fdd",
    "0xB31f66AA3C1e785363F0875A1B74E27b85FD66c7",
    "0xf964894470AfC11037f6BCB38609f77e9EBA9851",
    "0xC15711C7C8DEAc7A360f9B8826E7c151088D0d8C"
  ],
  "numDeployments": 2,
  "solcInputHash": "f8088298b6aa8b2794eaed3160e2ef8a",
  "bytecode": "0x60c06040523480156200001157600080fd5b5060405162003f6e38038062003f6e833981016040819052620000349162000221565b6040518060400160405280601881526020017f466f72746946692053747261746567792052656365697074000000000000000081525060405180604001604052806004815260200163232329a960e11b815250620000a16200009b620001b060201b60201c565b620001b4565b6004620000af838262000323565b506005620000be828262000323565b5050506001600160a01b038416620000e95760405163d92e233d60e01b815260040160405180910390fd5b6001600160a01b038316620001115760405163d92e233d60e01b815260040160405180910390fd5b6001600160a01b038216620001395760405163d92e233d60e01b815260040160405180910390fd5b6001600160a01b038116620001615760405163d92e233d60e01b815260040160405180910390fd5b6001600160a01b0393841660805291831660a05260068054610100600160a81b0319166101009385169390930292909217909155600780546001600160a01b03191691909216179055620003ef565b3390565b600080546001600160a01b038381166001600160a01b0319831681178455604051919092169283917f8be0079c531659141344cd1fd0a4f28419497f9722a3daafe3b4186f6b6457e09190a35050565b80516001600160a01b03811681146200021c57600080fd5b919050565b600080600080608085870312156200023857600080fd5b620002438562000204565b9350620002536020860162000204565b9250620002636040860162000204565b9150620002736060860162000204565b905092959194509250565b634e487b7160e01b600052604160045260246000fd5b600181811c90821680620002a957607f821691505b602082108103620002ca57634e487b7160e01b600052602260045260246000fd5b50919050565b601f8211156200031e57600081815260208120601f850160051c81016020861015620002f95750805b601f850160051c820191505b818110156200031a5782815560010162000305565b5050505b505050565b81516001600160401b038111156200033f576200033f6200027e565b620003578162000350845462000294565b84620002d0565b602080601f8311600181146200038f5760008415620003765750858301515b600019600386901b1c1916600185901b1785556200031a565b600085815260208120601f198616915b82811015620003c0578886015182559484019460019091019084016200039f565b5085821015620003df5787850151600019600388901b60f8161c191681555b5050505050600190811b01905550565b60805160a051613b0562000469600039600081816102fc01528181610778015281816107ef0152818161093801528181610a4901528181610ad60152818161123501526112bc015260008181610410015281816107ce0152818161089701528181610b0001528181611121015261150a0152613b056000f3fe60806040523480156200001157600080fd5b50600436106200020d5760003560e01c80638980f11f1162000125578063b9277d2a11620000af578063ded438f0116200007a578063ded438f014620004f0578063f2fde38b1462000507578063f7c85469146200051e578063fdad531d146200053257600080fd5b8063b9277d2a1462000460578063ba251fba1462000477578063cf950022146200048e578063dd62ed3e14620004b457600080fd5b806395d89b4111620000f057806395d89b411462000400578063963d7e91146200040a578063a457c2d71462000432578063a9059cbb146200044957600080fd5b80638980f11f14620003a75780638c4cc0df14620003be5780638c66d04f14620003d75780638da5cb5b14620003ee57600080fd5b8063313ce56711620001a7578063472d35b91162000172578063472d35b91462000343578063627f66c6146200035a57806370a082311462000371578063715018a6146200039d57600080fd5b8063313ce56714620002e6578063318d494e14620002f657806339509351146200031e578063408555b9146200033557600080fd5b806318160ddd11620001e857806318160ddd14620002755780631d6e077a146200028857806323b872dd14620002b857806329c9aa1914620002cf57600080fd5b806306fdde031462000212578063095ea7b314620002345780630f1cb792146200025c575b600080fd5b6200021c62000569565b6040516200022b9190620020c7565b60405180910390f35b6200024b6200024536600462002119565b62000603565b60405190151581526020016200022b565b620002736200026d36600462002155565b6200061f565b005b6003545b6040519081526020016200022b565b6200029f6200029936600462002175565b6200069d565b6040516001600160a01b0390911681526020016200022b565b6200024b620002c93660046200218f565b620006c8565b62000273620002e0366004620021d0565b620006f2565b604051601281526020016200022b565b6200029f7f000000000000000000000000000000000000000000000000000000000000000081565b6200024b6200032f36600462002119565b62000b7e565b6006546200024b9060ff1681565b6200027362000354366004620021f8565b62000bc1565b620002736200036b36600462002216565b62000c65565b6200027962000382366004620021f8565b6001600160a01b031660009081526001602052604090205490565b6200027362000d86565b62000273620003b836600462002119565b62000dc1565b6006546200029f9061010090046001600160a01b031681565b62000273620003e8366004620021f8565b62000e4c565b6000546001600160a01b03166200029f565b6200021c62000ef8565b6200029f7f000000000000000000000000000000000000000000000000000000000000000081565b6200024b6200044336600462002119565b62000f09565b6200024b6200045a36600462002119565b62000faa565b620002736200047136600462002252565b62000fba565b6200027362000488366004620021d0565b62001029565b6200024b6200049f366004620021f8565b60096020526000908152604090205460ff1681565b62000279620004c5366004620022cc565b6001600160a01b03918216600090815260026020908152604080832093909416825291909152205490565b62000273620005013660046200218f565b62001565565b6200027362000518366004620021f8565b6200164f565b6007546200029f906001600160a01b031681565b6200029f6200054336600462002119565b600a6020908152600092835260408084209091529082529020546001600160a01b031681565b6060600480546200057a9062002304565b80601f0160208091040260200160405190810160405280929190818152602001828054620005a89062002304565b8015620005f95780601f10620005cd57610100808354040283529160200191620005f9565b820191906000526020600020905b815481529060010190602001808311620005db57829003601f168201915b5050505050905090565b60003362000613818585620016f1565b60019150505b92915050565b6000546001600160a01b03163314620006555760405162461bcd60e51b81526004016200064c9062002340565b60405180910390fd5b6006805460ff19168215159081179091556040519081527fdd54532339942dad92de40994c97555cc95b2aceb99fdd85a412d20ee0a568b8906020015b60405180910390a150565b60088181548110620006ae57600080fd5b6000918252602090912001546001600160a01b0316905081565b600033620006d885828562001812565b620006e5858585620018a9565b60019150505b9392505050565b826000036200071457604051635972996f60e11b815260040160405180910390fd5b3360009081526009602052604090205460ff1662000745576040516348f5c3ed60e01b815260040160405180910390fd5b60065460ff16156200076a5760405163217ca11f60e21b815260040160405180910390fd5b620007a16001600160a01b037f00000000000000000000000000000000000000000000000000000000000000001633308662001a81565b336000908152600a602090815260408083208484529091528120546001600160a01b0316620008ec5760007f00000000000000000000000000000000000000000000000000000000000000007f00000000000000000000000000000000000000000000000000000000000000006040516200081c9062002014565b6001600160a01b03928316815291166020820152604001604051809103906000f08015801562000850573d6000803e3d6000fd5b50336000818152600a6020908152604080832088845282529182902080546001600160a01b0319166001600160a01b038681169190911790915591518781529395508594507f0000000000000000000000000000000000000000000000000000000000000000909116927fd54b6c27f4639f28e778312a36befbf189631a3587aeb73e182e99c434eb7705910160405180910390a35062000912565b50336000908152600a602090815260408083208484529091529020546001600160a01b03165b60405163095ea7b360e01b81526001600160a01b038281166004830152602482018690527f0000000000000000000000000000000000000000000000000000000000000000169063095ea7b3906044016020604051808303816000875af115801562000982573d6000803e3d6000fd5b505050506040513d601f19601f82011682018060405250810190620009a8919062002375565b50604051636e553f6560e01b8152600481018590526001600160a01b03848116602483015260009190831690636e553f65906044016020604051808303816000875af1158015620009fd573d6000803e3d6000fd5b505050506040513d601f19601f8201168201806040525081019062000a23919062002395565b905062000a31338262001aee565b6040516370a0823160e01b81523060048201526000907f00000000000000000000000000000000000000000000000000000000000000006001600160a01b0316906370a0823190602401602060405180830381865afa15801562000a99573d6000803e3d6000fd5b505050506040513d601f19601f8201168201806040525081019062000abf919062002395565b9050801562000afe5762000afe6001600160a01b037f000000000000000000000000000000000000000000000000000000000000000016338362001bd3565b7f00000000000000000000000000000000000000000000000000000000000000006001600160a01b0316856001600160a01b0316336001600160a01b03167fe15dc988e072c1d9d056206bf4c2ccd15513ea1197955bdb545e39a4a198f6278960405162000b6e91815260200190565b60405180910390a4505050505050565b3360008181526002602090815260408083206001600160a01b038716845290915281205490919062000613908290869062000bbb908790620023c5565b620016f1565b6000546001600160a01b0316331462000bee5760405162461bcd60e51b81526004016200064c9062002340565b6001600160a01b03811662000c165760405163d92e233d60e01b815260040160405180910390fd5b600780546001600160a01b0319166001600160a01b0383169081179091556040519081527fbf5f580614969fb819b8af01f7cc62fe0e0146feaf98d7aee42e76bb0bee8e639060200162000692565b6000546001600160a01b0316331462000c925760405162461bcd60e51b81526004016200064c9062002340565b6040516301ffc9a760e01b8152632bee9c0f60e21b60048201526001600160a01b038316906301ffc9a790602401602060405180830381865afa15801562000cde573d6000803e3d6000fd5b505050506040513d601f19601f8201168201806040525081019062000d04919062002375565b62000d2257604051632a4d0ad560e01b815260040160405180910390fd5b6001600160a01b038216600081815260096020908152604091829020805460ff19168515159081179091558251938452908301527f79a58dadb454da39ecff92b439454719a80ea78743990d0f0dd2343a7e7bb91a91015b60405180910390a15050565b6000546001600160a01b0316331462000db35760405162461bcd60e51b81526004016200064c9062002340565b62000dbf600062001c05565b565b6000546001600160a01b0316331462000dee5760405162461bcd60e51b81526004016200064c9062002340565b62000e046001600160a01b038316338362001bd3565b816001600160a01b03167f505b28e6941631badc363841ecbf8e1214b9379c643936458e87be718e1579998260405162000e4091815260200190565b60405180910390a25050565b6000546001600160a01b0316331462000e795760405162461bcd60e51b81526004016200064c9062002340565b6001600160a01b03811662000ea15760405163d92e233d60e01b815260040160405180910390fd5b60068054610100600160a81b0319166101006001600160a01b038416908102919091179091556040519081527fff482b94e6650f33ebd5a4b656f2524de0c552f315fb3270f47aeaef3d72a63e9060200162000692565b6060600580546200057a9062002304565b3360008181526002602090815260408083206001600160a01b03871684529091528120549091908381101562000f905760405162461bcd60e51b815260206004820152602560248201527f45524332303a2064656372656173656420616c6c6f77616e63652062656c6f77604482015264207a65726f60d81b60648201526084016200064c565b62000f9f8286868403620016f1565b506001949350505050565b60003362000613818585620018a9565b6000546001600160a01b0316331462000fe75760405162461bcd60e51b81526004016200064c9062002340565b62000ff56008838362002022565b507fe1a8a770bbbdcfcba3d04e555cd2aad13f5c7a91e126ee71f5f98bf7405dbecd828260405162000d7a929190620023db565b826000036200104b5760405163c945242d60e01b815260040160405180910390fd5b336000908152600a602090815260408083208484529091529020546001600160a01b03166200108d57604051636987969160e01b815260040160405180910390fd5b62001099338462001c55565b60065460ff16156200119c57336000908152600a60209081526040808320848452909152908190205490516329a5c05560e21b81526001600160a01b0384811660048301529091169063a697015490602401600060405180830381600087803b1580156200110657600080fd5b505af11580156200111b573d6000803e3d6000fd5b505050507f00000000000000000000000000000000000000000000000000000000000000006001600160a01b0316826001600160a01b0316336001600160a01b03167f4036930356ede44690c04fdae6fa8e587df3048b8fb1c7e71b2a1e4240d500bf846040516200118f91815260200190565b60405180910390a4505050565b336000908152600a60209081526040808320848452909152908190205490516329380a9b60e11b81526001600160a01b0390911690635270153690620011ea9085906008906004016200242b565b600060405180830381600087803b1580156200120557600080fd5b505af11580156200121a573d6000803e3d6000fd5b50506040516370a0823160e01b8152306004820152600092507f00000000000000000000000000000000000000000000000000000000000000006001600160a01b031691506370a0823190602401602060405180830381865afa15801562001286573d6000803e3d6000fd5b505050506040513d601f19601f82011682018060405250810190620012ac919062002395565b9050620012e46001600160a01b037f000000000000000000000000000000000000000000000000000000000000000016338362001bd3565b6008548015620014f25760005b81811015620014f0576000600882815481106200131257620013126200248c565b60009182526020822001546040516370a0823160e01b81523060048201526001600160a01b03909116925082906370a0823190602401602060405180830381865afa15801562001366573d6000803e3d6000fd5b505050506040513d601f19601f820116820180604052508101906200138c919062002395565b90508015620014d857600654604051633becdb0560e21b81526001600160a01b038981166004830152602482018490526000926101009004169063efb36c1490604401602060405180830381865afa158015620013ed573d6000803e3d6000fd5b505050506040513d601f19601f8201168201806040525081019062001413919062002395565b600754600880549293506001600160a01b039091169163a033fcd49190879081106200144357620014436200248c565b60009182526020909120015460405160e083901b6001600160e01b03191681526001600160a01b03909116600482015260248101849052604401600060405180830381600087803b1580156200149857600080fd5b505af1158015620014ad573d6000803e3d6000fd5b50505050620014d6888284620014c49190620024a2565b6001600160a01b038616919062001bd3565b505b50508080620014e790620024b8565b915050620012f1565b505b60408051848152602081018490526001600160a01b037f00000000000000000000000000000000000000000000000000000000000000008116929087169133917f64457f6870de47350bc5d046e00ce2360ff6c68a1596f7393a5a680146d38748910160405180910390a450505b505050565b6000546001600160a01b03163314620015925760405162461bcd60e51b81526004016200064c9062002340565b604051631171bda960e01b81523360048201526001600160a01b03838116602483015260448201839052841690631171bda990606401600060405180830381600087803b158015620015e357600080fd5b505af1158015620015f8573d6000803e3d6000fd5b50505050816001600160a01b0316836001600160a01b03167f135171f052c67d036683a0a465a3a0760075fb1402c9387fb0b9ad6e674c38d6836040516200164291815260200190565b60405180910390a3505050565b6000546001600160a01b031633146200167c5760405162461bcd60e51b81526004016200064c9062002340565b6001600160a01b038116620016e35760405162461bcd60e51b815260206004820152602660248201527f4f776e61626c653a206e6577206f776e657220697320746865207a65726f206160448201526564647265737360d01b60648201526084016200064c565b620016ee8162001c05565b50565b6001600160a01b038316620017555760405162461bcd60e51b8152602060048201526024808201527f45524332303a20617070726f76652066726f6d20746865207a65726f206164646044820152637265737360e01b60648201526084016200064c565b6001600160a01b038216620017b85760405162461bcd60e51b815260206004820152602260248201527f45524332303a20617070726f766520746f20746865207a65726f206164647265604482015261737360f01b60648201526084016200064c565b6001600160a01b0383811660008181526002602090815260408083209487168084529482529182902085905590518481527f8c5be1e5ebec7d5bd14f71427d1e84f3dd0314c0f7b2291e5b200ac8c7c3b925910162001642565b6001600160a01b038381166000908152600260209081526040808320938616835292905220546000198114620018a35781811015620018945760405162461bcd60e51b815260206004820152601d60248201527f45524332303a20696e73756666696369656e7420616c6c6f77616e636500000060448201526064016200064c565b620018a38484848403620016f1565b50505050565b6001600160a01b0383166200190f5760405162461bcd60e51b815260206004820152602560248201527f45524332303a207472616e736665722066726f6d20746865207a65726f206164604482015264647265737360d81b60648201526084016200064c565b6001600160a01b038216620019735760405162461bcd60e51b815260206004820152602360248201527f45524332303a207472616e7366657220746f20746865207a65726f206164647260448201526265737360e81b60648201526084016200064c565b6001600160a01b03831660009081526001602052604090205481811015620019ed5760405162461bcd60e51b815260206004820152602660248201527f45524332303a207472616e7366657220616d6f756e7420657863656564732062604482015265616c616e636560d01b60648201526084016200064c565b6001600160a01b0380851660009081526001602052604080822085850390559185168152908120805484929062001a26908490620023c5565b92505081905550826001600160a01b0316846001600160a01b03167fddf252ad1be2c89b69c2b068fc378daa952ba7f163c4a11628f55a4df523b3ef8460405162001a7391815260200190565b60405180910390a3620018a3565b6040516001600160a01b0380851660248301528316604482015260648101829052620018a39085906323b872dd60e01b906084015b60408051601f198184030181529190526020810180516001600160e01b03166001600160e01b03199093169290921790915262001da9565b6001600160a01b03821662001b465760405162461bcd60e51b815260206004820152601f60248201527f45524332303a206d696e7420746f20746865207a65726f20616464726573730060448201526064016200064c565b806003600082825462001b5a9190620023c5565b90915550506001600160a01b0382166000908152600160205260408120805483929062001b89908490620023c5565b90915550506040518181526001600160a01b038316906000907fddf252ad1be2c89b69c2b068fc378daa952ba7f163c4a11628f55a4df523b3ef9060200160405180910390a35050565b6040516001600160a01b0383166024820152604481018290526200156090849063a9059cbb60e01b9060640162001ab6565b600080546001600160a01b038381166001600160a01b0319831681178455604051919092169283917f8be0079c531659141344cd1fd0a4f28419497f9722a3daafe3b4186f6b6457e09190a35050565b6001600160a01b03821662001cb75760405162461bcd60e51b815260206004820152602160248201527f45524332303a206275726e2066726f6d20746865207a65726f206164647265736044820152607360f81b60648201526084016200064c565b6001600160a01b0382166000908152600160205260409020548181101562001d2d5760405162461bcd60e51b815260206004820152602260248201527f45524332303a206275726e20616d6f756e7420657863656564732062616c616e604482015261636560f01b60648201526084016200064c565b6001600160a01b038316600090815260016020526040812083830390556003805484929062001d5e908490620024a2565b90915550506040518281526000906001600160a01b038516907fddf252ad1be2c89b69c2b068fc378daa952ba7f163c4a11628f55a4df523b3ef9060200160405180910390a3505050565b600062001e00826040518060400160405280602081526020017f5361666545524332303a206c6f772d6c6576656c2063616c6c206661696c6564815250856001600160a01b031662001e829092919063ffffffff16565b80519091501562001560578080602001905181019062001e21919062002375565b620015605760405162461bcd60e51b815260206004820152602a60248201527f5361666545524332303a204552433230206f7065726174696f6e20646964206e6044820152691bdd081cdd58d8d9595960b21b60648201526084016200064c565b606062001e93848460008562001e9b565b949350505050565b60608247101562001efe5760405162461bcd60e51b815260206004820152602660248201527f416464726573733a20696e73756666696369656e742062616c616e636520666f6044820152651c8818d85b1b60d21b60648201526084016200064c565b6001600160a01b0385163b62001f575760405162461bcd60e51b815260206004820152601d60248201527f416464726573733a2063616c6c20746f206e6f6e2d636f6e747261637400000060448201526064016200064c565b600080866001600160a01b0316858760405162001f759190620024d4565b60006040518083038185875af1925050503d806000811462001fb4576040519150601f19603f3d011682016040523d82523d6000602084013e62001fb9565b606091505b509150915062001fcb82828662001fd6565b979650505050505050565b6060831562001fe7575081620006eb565b82511562001ff85782518084602001fd5b8160405162461bcd60e51b81526004016200064c9190620020c7565b6115dd80620024f383390190565b82805482825590600052602060002090810192821562002078579160200282015b82811115620020785781546001600160a01b0319166001600160a01b0384351617825560209092019160019091019062002043565b50620020869291506200208a565b5090565b5b808211156200208657600081556001016200208b565b60005b83811015620020be578181015183820152602001620020a4565b50506000910152565b6020815260008251806020840152620020e8816040850160208701620020a1565b601f01601f19169190910160400192915050565b80356001600160a01b03811681146200211457600080fd5b919050565b600080604083850312156200212d57600080fd5b6200213883620020fc565b946020939093013593505050565b8015158114620016ee57600080fd5b6000602082840312156200216857600080fd5b8135620006eb8162002146565b6000602082840312156200218857600080fd5b5035919050565b600080600060608486031215620021a557600080fd5b620021b084620020fc565b9250620021c060208501620020fc565b9150604084013590509250925092565b600080600060608486031215620021e657600080fd5b83359250620021c060208501620020fc565b6000602082840312156200220b57600080fd5b620006eb82620020fc565b600080604083850312156200222a57600080fd5b6200223583620020fc565b91506020830135620022478162002146565b809150509250929050565b600080602083850312156200226657600080fd5b823567ffffffffffffffff808211156200227f57600080fd5b818501915085601f8301126200229457600080fd5b813581811115620022a457600080fd5b8660208260051b8501011115620022ba57600080fd5b60209290920196919550909350505050565b60008060408385031215620022e057600080fd5b620022eb83620020fc565b9150620022fb60208401620020fc565b90509250929050565b600181811c908216806200231957607f821691505b6020821081036200233a57634e487b7160e01b600052602260045260246000fd5b50919050565b6020808252818101527f4f776e61626c653a2063616c6c6572206973206e6f7420746865206f776e6572604082015260600190565b6000602082840312156200238857600080fd5b8151620006eb8162002146565b600060208284031215620023a857600080fd5b5051919050565b634e487b7160e01b600052601160045260246000fd5b80820180821115620006195762000619620023af565b60208082528181018390526000908460408401835b8681101562002420576001600160a01b036200240c84620020fc565b1682529183019190830190600101620023f0565b509695505050505050565b60006040820160018060a01b03808616845260206040818601528286548085526060870191508760005282600020945060005b818110156200247e5785548516835260019586019592840192016200245e565b509098975050505050505050565b634e487b7160e01b600052603260045260246000fd5b81810381811115620006195762000619620023af565b600060018201620024cd57620024cd620023af565b5060010190565b60008251620024e8818460208701620020a1565b919091019291505056fe60c06040523480156200001157600080fd5b50604051620015dd380380620015dd833981016040819052620000349162000114565b6200003f33620000a7565b6001600160a01b038216620000675760405163d92e233d60e01b815260040160405180910390fd5b6001600160a01b0381166200008f5760405163d92e233d60e01b815260040160405180910390fd5b6001600160a01b039182166080521660a0526200014c565b600080546001600160a01b038381166001600160a01b0319831681178455604051919092169283917f8be0079c531659141344cd1fd0a4f28419497f9722a3daafe3b4186f6b6457e09190a35050565b80516001600160a01b03811681146200010f57600080fd5b919050565b600080604083850312156200012857600080fd5b6200013383620000f7565b91506200014360208401620000f7565b90509250929050565b60805160a0516113f5620001e86000396000818160ca015281816105060152818161058401528181610727015281816107f301528181610ce10152610d6901526000818161019c015281816102330152818161032b015281816103d70152818161044e015281816104d80152818161076701528181610859015281816108e001528181610a2c01528181610ad70152610b5f01526113f56000f3fe60806040526004361061008a5760003560e01c8063715018a611610059578063715018a6146101575780638da5cb5b1461016c578063963d7e911461018a578063a6970154146101be578063f2fde38b146101de57600080fd5b80631171bda914610096578063318d494e146100b857806352701536146101095780636e553f651461012957600080fd5b3661009157005b600080fd5b3480156100a257600080fd5b506100b66100b136600461110d565b6101fe565b005b3480156100c457600080fd5b506100ec7f000000000000000000000000000000000000000000000000000000000000000081565b6040516001600160a01b0390911681526020015b60405180910390f35b34801561011557600080fd5b506100b661012436600461115f565b6102e9565b34801561013557600080fd5b50610149610144366004611237565b6106ce565b604051908152602001610100565b34801561016357600080fd5b506100b66109b4565b34801561017857600080fd5b506000546001600160a01b03166100ec565b34801561019657600080fd5b506100ec7f000000000000000000000000000000000000000000000000000000000000000081565b3480156101ca57600080fd5b506100b66101d9366004611263565b6109ea565b3480156101ea57600080fd5b506100b66101f9366004611263565b610bc6565b6000546001600160a01b031633146102315760405162461bcd60e51b81526004016102289061127e565b60405180910390fd5b7f00000000000000000000000000000000000000000000000000000000000000006001600160a01b0316826001600160a01b0316036102835760405163118539e960e01b815260040160405180910390fd5b6102976001600160a01b0383168483610c61565b816001600160a01b0316836001600160a01b03167faca8fb252cde442184e5f10e0f2e6e4029e8cd7717cae63559079610702436aa836040516102dc91815260200190565b60405180910390a3505050565b6000546001600160a01b031633146103135760405162461bcd60e51b81526004016102289061127e565b6040516370a0823160e01b81523060048201526000907f00000000000000000000000000000000000000000000000000000000000000006001600160a01b0316906370a0823190602401602060405180830381865afa15801561037a573d6000803e3d6000fd5b505050506040513d601f19601f8201168201806040525081019061039e91906112b3565b9050806000036103c15760405163c945242d60e01b815260040160405180910390fd5b604051632e1a7d4d60e01b8152600481018290527f00000000000000000000000000000000000000000000000000000000000000006001600160a01b031690632e1a7d4d90602401600060405180830381600087803b15801561042357600080fd5b505af1158015610437573d6000803e3d6000fd5b50506040516370a0823160e01b81523060048201527f00000000000000000000000000000000000000000000000000000000000000006001600160a01b031692506370a082319150602401602060405180830381865afa15801561049f573d6000803e3d6000fd5b505050506040513d601f19601f820116820180604052508101906104c391906112b3565b905080156104ff576104ff6001600160a01b037f0000000000000000000000000000000000000000000000000000000000000000168483610c61565b60004790507f00000000000000000000000000000000000000000000000000000000000000006001600160a01b031663d0e30db0826040518263ffffffff1660e01b81526004016000604051808303818588803b15801561055f57600080fd5b505af1158015610573573d6000803e3d6000fd5b506105af9350506001600160a01b037f000000000000000000000000000000000000000000000000000000000000000016915033905083610c61565b825180156106825760005b818110156106805760008582815181106105d6576105d66112cc565b60209081029190910101516040516370a0823160e01b81523060048201529091506000906001600160a01b038316906370a0823190602401602060405180830381865afa15801561062b573d6000803e3d6000fd5b505050506040513d601f19601f8201168201806040525081019061064f91906112b3565b9050801561066b5761066b6001600160a01b0383163383610c61565b50508080610678906112f8565b9150506105ba565b505b61068b85610cc9565b6040516001600160a01b03861681527fd8dee34af5e5ded011300c086d6f9738abc8a1362f5a4c27eb0b5f5d9efd6add9060200160405180910390a15050505050565b600080546001600160a01b031633146106f95760405162461bcd60e51b81526004016102289061127e565b8260000361071a57604051635972996f60e11b815260040160405180910390fd5b61074f6001600160a01b037f000000000000000000000000000000000000000000000000000000000000000016333086610e0e565b6040516370a0823160e01b81523060048201526000907f00000000000000000000000000000000000000000000000000000000000000006001600160a01b0316906370a0823190602401602060405180830381865afa1580156107b6573d6000803e3d6000fd5b505050506040513d601f19601f820116820180604052508101906107da91906112b3565b604051632e1a7d4d60e01b8152600481018690529091507f00000000000000000000000000000000000000000000000000000000000000006001600160a01b031690632e1a7d4d90602401600060405180830381600087803b15801561083f57600080fd5b505af1158015610853573d6000803e3d6000fd5b505050507f00000000000000000000000000000000000000000000000000000000000000006001600160a01b031663d0e30db0856040518263ffffffff1660e01b81526004016000604051808303818588803b1580156108b257600080fd5b505af11580156108c6573d6000803e3d6000fd5b50506040516370a0823160e01b81523060048201528493507f00000000000000000000000000000000000000000000000000000000000000006001600160a01b031692506370a082319150602401602060405180830381865afa158015610931573d6000803e3d6000fd5b505050506040513d601f19601f8201168201806040525081019061095591906112b3565b61095f9190611311565b915061096a83610cc9565b826001600160a01b03167fd6dd599afd391d71910ff05250361e65405a896dc557e4e7bf5190b5abbb3816856040516109a591815260200190565b60405180910390a25092915050565b6000546001600160a01b031633146109de5760405162461bcd60e51b81526004016102289061127e565b6109e86000610e4c565b565b6000546001600160a01b03163314610a145760405162461bcd60e51b81526004016102289061127e565b6040516370a0823160e01b81523060048201526000907f00000000000000000000000000000000000000000000000000000000000000006001600160a01b0316906370a0823190602401602060405180830381865afa158015610a7b573d6000803e3d6000fd5b505050506040513d601f19601f82011682018060405250810190610a9f91906112b3565b905080600003610ac25760405163c945242d60e01b815260040160405180910390fd5b6040516370a0823160e01b81523060048201527f00000000000000000000000000000000000000000000000000000000000000006001600160a01b0316906370a0823190602401602060405180830381865afa158015610b26573d6000803e3d6000fd5b505050506040513d601f19601f82011682018060405250810190610b4a91906112b3565b90508015610b8657610b866001600160a01b037f0000000000000000000000000000000000000000000000000000000000000000168383610c61565b6040516001600160a01b03831681527fd8dee34af5e5ded011300c086d6f9738abc8a1362f5a4c27eb0b5f5d9efd6add9060200160405180910390a15050565b6000546001600160a01b03163314610bf05760405162461bcd60e51b81526004016102289061127e565b6001600160a01b038116610c555760405162461bcd60e51b815260206004820152602660248201527f4f776e61626c653a206e6577206f776e657220697320746865207a65726f206160448201526564647265737360d01b6064820152608401610228565b610c5e81610e4c565b50565b6040516001600160a01b038316602482015260448101829052610cc490849063a9059cbb60e01b906064015b60408051601f198184030181529190526020810180516001600160e01b03166001600160e01b031990931692909217909152610e9c565b505050565b6040516370a0823160e01b81523060048201526000907f00000000000000000000000000000000000000000000000000000000000000006001600160a01b0316906370a0823190602401602060405180830381865afa158015610d30573d6000803e3d6000fd5b505050506040513d601f19601f82011682018060405250810190610d5491906112b3565b90508015610d9057610d906001600160a01b037f0000000000000000000000000000000000000000000000000000000000000000168383610c61565b4715610e0a576000826001600160a01b03164760405160006040518083038185875af1925050503d8060008114610de3576040519150601f19603f3d011682016040523d82523d6000602084013e610de8565b606091505b5050905080610cc457604051631d73cefb60e31b815260040160405180910390fd5b5050565b6040516001600160a01b0380851660248301528316604482015260648101829052610e469085906323b872dd60e01b90608401610c8d565b50505050565b600080546001600160a01b038381166001600160a01b0319831681178455604051919092169283917f8be0079c531659141344cd1fd0a4f28419497f9722a3daafe3b4186f6b6457e09190a35050565b6000610ef1826040518060400160405280602081526020017f5361666545524332303a206c6f772d6c6576656c2063616c6c206661696c6564815250856001600160a01b0316610f6e9092919063ffffffff16565b805190915015610cc45780806020019051810190610f0f919061132a565b610cc45760405162461bcd60e51b815260206004820152602a60248201527f5361666545524332303a204552433230206f7065726174696f6e20646964206e6044820152691bdd081cdd58d8d9595960b21b6064820152608401610228565b6060610f7d8484600085610f87565b90505b9392505050565b606082471015610fe85760405162461bcd60e51b815260206004820152602660248201527f416464726573733a20696e73756666696369656e742062616c616e636520666f6044820152651c8818d85b1b60d21b6064820152608401610228565b6001600160a01b0385163b61103f5760405162461bcd60e51b815260206004820152601d60248201527f416464726573733a2063616c6c20746f206e6f6e2d636f6e74726163740000006044820152606401610228565b600080866001600160a01b0316858760405161105b9190611370565b60006040518083038185875af1925050503d8060008114611098576040519150601f19603f3d011682016040523d82523d6000602084013e61109d565b606091505b50915091506110ad8282866110b8565b979650505050505050565b606083156110c7575081610f80565b8251156110d75782518084602001fd5b8160405162461bcd60e51b8152600401610228919061138c565b80356001600160a01b038116811461110857600080fd5b919050565b60008060006060848603121561112257600080fd5b61112b846110f1565b9250611139602085016110f1565b9150604084013590509250925092565b634e487b7160e01b600052604160045260246000fd5b6000806040838503121561117257600080fd5b61117b836110f1565b915060208084013567ffffffffffffffff8082111561119957600080fd5b818601915086601f8301126111ad57600080fd5b8135818111156111bf576111bf611149565b8060051b604051601f19603f830116810181811085821117156111e4576111e4611149565b60405291825284820192508381018501918983111561120257600080fd5b938501935b8285101561122757611218856110f1565b84529385019392850192611207565b8096505050505050509250929050565b6000806040838503121561124a57600080fd5b8235915061125a602084016110f1565b90509250929050565b60006020828403121561127557600080fd5b610f80826110f1565b6020808252818101527f4f776e61626c653a2063616c6c6572206973206e6f7420746865206f776e6572604082015260600190565b6000602082840312156112c557600080fd5b5051919050565b634e487b7160e01b600052603260045260246000fd5b634e487b7160e01b600052601160045260246000fd5b60006001820161130a5761130a6112e2565b5060010190565b81810381811115611324576113246112e2565b92915050565b60006020828403121561133c57600080fd5b81518015158114610f8057600080fd5b60005b8381101561136757818101518382015260200161134f565b50506000910152565b6000825161138281846020870161134c565b9190910192915050565b60208152600082518060208401526113ab81604085016020870161134c565b601f01601f1916919091016040019291505056fea2646970667358221220ef7b54f281d2ad185262295ed251cb1504c3e2a8ae2e09f6f3a5b7372f52eb7e64736f6c63430008150033a2646970667358221220235d845ca75de639ede83686d43b23c9879387d80c425b1e73ada583cbdd0c0b64736f6c63430008150033",
  "devdoc": {
    "events": {
      "Approval(address,address,uint256)": {
        "details": "Emitted when the allowance of a `spender` for an `owner` is set by a call to {approve}. `value` is the new allowance."
      },
      "Transfer(address,address,uint256)": {
        "details": "Emitted when `value` tokens are moved from one account (`from`) to another (`to`). Note that `value` may be zero."
      }
    },
    "kind": "dev",
    "methods": {
      "allowance(address,address)": {
        "details": "See {IERC20-allowance}."
      },
      "approve(address,uint256)": {
        "details": "See {IERC20-approve}. NOTE: If `amount` is the maximum `uint256`, the allowance is not updated on `transferFrom`. This is semantically equivalent to an infinite approval. Requirements: - `spender` cannot be the zero address."
      },
      "balanceOf(address)": {
        "details": "See {IERC20-balanceOf}."
      },
      "decimals()": {
        "details": "Returns the number of decimals used to get its user representation. For example, if `decimals` equals `2`, a balance of `505` tokens should be displayed to a user as `5.05` (`505 / 10 ** 2`). Tokens usually opt for a value of 18, imitating the relationship between Ether and Wei. This is the value {ERC20} uses, unless this function is overridden; NOTE: This information is only used for _display_ purposes: it in no way affects any of the arithmetic of the contract, including {IERC20-balanceOf} and {IERC20-transfer}."
      },
      "decreaseAllowance(address,uint256)": {
        "details": "Atomically decreases the allowance granted to `spender` by the caller. This is an alternative to {approve} that can be used as a mitigation for problems described in {IERC20-approve}. Emits an {Approval} event indicating the updated allowance. Requirements: - `spender` cannot be the zero address. - `spender` must have allowance for the caller of at least `subtractedValue`."
      },
      "depositToFortress(uint256,address,uint256)": {
        "details": "If a user has not deposited previously, this function will deploy a FortiFiFortress contract to interact with the underlying strategy for a specific vault receipt token. This allows user deposits to be isolated as many strategies utilize special logic that is dependent on the balance of the address interacting with them."
      },
      "increaseAllowance(address,uint256)": {
        "details": "Atomically increases the allowance granted to `spender` by the caller. This is an alternative to {approve} that can be used as a mitigation for problems described in {IERC20-approve}. Emits an {Approval} event indicating the updated allowance. Requirements: - `spender` cannot be the zero address."
      },
      "name()": {
        "details": "Returns the name of the token."
      },
      "owner()": {
        "details": "Returns the address of the current owner."
      },
      "renounceOwnership()": {
        "details": "Leaves the contract without owner. It will not be possible to call `onlyOwner` functions anymore. Can only be called by the current owner. NOTE: Renouncing ownership will leave the contract without an owner, thereby removing any functionality that is only available to the owner."
      },
      "symbol()": {
        "details": "Returns the symbol of the token, usually a shorter version of the name."
      },
      "totalSupply()": {
        "details": "See {IERC20-totalSupply}."
      },
      "transfer(address,uint256)": {
        "details": "See {IERC20-transfer}. Requirements: - `to` cannot be the zero address. - the caller must have a balance of at least `amount`."
      },
      "transferFrom(address,address,uint256)": {
        "details": "See {IERC20-transferFrom}. Emits an {Approval} event indicating the updated allowance. This is not required by the EIP. See the note at the beginning of {ERC20}. NOTE: Does not update the allowance if the current allowance is the maximum `uint256`. Requirements: - `from` and `to` cannot be the zero address. - `from` must have a balance of at least `amount`. - the caller must have allowance for ``from``'s tokens of at least `amount`."
      },
      "transferOwnership(address)": {
        "details": "Transfers ownership of the contract to a new account (`newOwner`). Can only be called by the current owner."
      }
    },
    "title": "Base FortiFi Strategy contract for strategies that require native token deposits",
    "version": 1
  },
  "userdoc": {
    "errors": {
      "InvalidCaller()": [
        {
          "notice": "Error caused when calling address is not a valid vault "
        }
      ],
      "InvalidDeposit()": [
        {
          "notice": "Error caused by trying to deposit 0"
        }
      ],
      "InvalidVaultImplementation()": [
        {
          "notice": "Error when vault does not implement ISAMS or IMASS interface (0xafba703c)"
        }
      ],
      "InvalidWithdrawal()": [
        {
          "notice": "Error caused by trying to withdraw 0"
        }
      ],
      "NoFortress()": [
        {
          "notice": "Error caused when trying to withdraw from non-existent fortress"
        }
      ],
      "StrategyBricked()": [
        {
          "notice": "Error caused when trying to deposit to bricked strategy"
        }
      ],
      "ZeroAddress()": [
        {
          "notice": "Error caused by using 0 address as a parameter"
        }
      ]
    },
    "kind": "user",
    "methods": {
      "depositToFortress(uint256,address,uint256)": {
        "notice": "Function to deposit"
      },
      "recoverERC20(address,uint256)": {
        "notice": "Emergency function to recover stuck tokens"
      },
      "recoverFromFortress(address,address,uint256)": {
        "notice": "Emergency function to recover stuck tokens from Fortress"
      },
      "setExtraTokens(address[])": {
        "notice": "Set extra reward tokens for strategy"
      },
      "setFeeCalculator(address)": {
        "notice": "Function to set new FortiFiFeeCalculator contract"
      },
      "setFeeManager(address)": {
        "notice": "Function to set new FortiFiFeeManager contract"
      },
      "setStrategyBricked(bool)": {
        "notice": "Set strategy as bricked"
      },
      "setVault(address,bool)": {
        "notice": "Set valid vaults"
      },
      "withdrawFromFortress(uint256,address,uint256)": {
        "notice": "Function to withdraw"
      }
    },
    "notice": "This contract should be used when a yield strategy requires special logic beyond simple deposit(amount deposit token) and withdraw(receipt tokens to burn). These strategies are designed to only be called by FortiFi SAMS and MASS Vaults.",
    "version": 1
  },
  "storageLayout": {
    "storage": [
      {
        "astId": 7,
        "contract": "contracts/strategies/FortiFiNativeStrategy.sol:FortiFiNativeStrategy",
        "label": "_owner",
        "offset": 0,
        "slot": "0",
        "type": "t_address"
      },
      {
        "astId": 120,
        "contract": "contracts/strategies/FortiFiNativeStrategy.sol:FortiFiNativeStrategy",
        "label": "_balances",
        "offset": 0,
        "slot": "1",
        "type": "t_mapping(t_address,t_uint256)"
      },
      {
        "astId": 126,
        "contract": "contracts/strategies/FortiFiNativeStrategy.sol:FortiFiNativeStrategy",
        "label": "_allowances",
        "offset": 0,
        "slot": "2",
        "type": "t_mapping(t_address,t_mapping(t_address,t_uint256))"
      },
      {
        "astId": 128,
        "contract": "contracts/strategies/FortiFiNativeStrategy.sol:FortiFiNativeStrategy",
        "label": "_totalSupply",
        "offset": 0,
        "slot": "3",
        "type": "t_uint256"
      },
      {
        "astId": 130,
        "contract": "contracts/strategies/FortiFiNativeStrategy.sol:FortiFiNativeStrategy",
        "label": "_name",
        "offset": 0,
        "slot": "4",
        "type": "t_string_storage"
      },
      {
        "astId": 132,
        "contract": "contracts/strategies/FortiFiNativeStrategy.sol:FortiFiNativeStrategy",
        "label": "_symbol",
        "offset": 0,
        "slot": "5",
        "type": "t_string_storage"
      },
      {
        "astId": 1887,
        "contract": "contracts/strategies/FortiFiNativeStrategy.sol:FortiFiNativeStrategy",
        "label": "strategyIsBricked",
        "offset": 0,
        "slot": "6",
        "type": "t_bool"
      },
      {
        "astId": 1893,
        "contract": "contracts/strategies/FortiFiNativeStrategy.sol:FortiFiNativeStrategy",
        "label": "feeCalc",
        "offset": 1,
        "slot": "6",
        "type": "t_contract(IFortiFiFeeCalculator)1349"
      },
      {
        "astId": 1896,
        "contract": "contracts/strategies/FortiFiNativeStrategy.sol:FortiFiNativeStrategy",
        "label": "feeMgr",
        "offset": 0,
        "slot": "7",
        "type": "t_contract(IFortiFiFeeManager)1360"
      },
      {
        "astId": 1899,
        "contract": "contracts/strategies/FortiFiNativeStrategy.sol:FortiFiNativeStrategy",
        "label": "extraTokens",
        "offset": 0,
        "slot": "8",
        "type": "t_array(t_address)dyn_storage"
      },
      {
        "astId": 1903,
        "contract": "contracts/strategies/FortiFiNativeStrategy.sol:FortiFiNativeStrategy",
        "label": "isFortiFiVault",
        "offset": 0,
        "slot": "9",
        "type": "t_mapping(t_address,t_bool)"
      },
      {
        "astId": 1909,
        "contract": "contracts/strategies/FortiFiNativeStrategy.sol:FortiFiNativeStrategy",
        "label": "vaultToTokenToFortress",
        "offset": 0,
        "slot": "10",
        "type": "t_mapping(t_address,t_mapping(t_uint256,t_address))"
      }
    ],
    "types": {
      "t_address": {
        "encoding": "inplace",
        "label": "address",
        "numberOfBytes": "20"
      },
      "t_array(t_address)dyn_storage": {
        "base": "t_address",
        "encoding": "dynamic_array",
        "label": "address[]",
        "numberOfBytes": "32"
      },
      "t_bool": {
        "encoding": "inplace",
        "label": "bool",
        "numberOfBytes": "1"
      },
      "t_contract(IFortiFiFeeCalculator)1349": {
        "encoding": "inplace",
        "label": "contract IFortiFiFeeCalculator",
        "numberOfBytes": "20"
      },
      "t_contract(IFortiFiFeeManager)1360": {
        "encoding": "inplace",
        "label": "contract IFortiFiFeeManager",
        "numberOfBytes": "20"
      },
      "t_mapping(t_address,t_bool)": {
        "encoding": "mapping",
        "key": "t_address",
        "label": "mapping(address => bool)",
        "numberOfBytes": "32",
        "value": "t_bool"
      },
      "t_mapping(t_address,t_mapping(t_address,t_uint256))": {
        "encoding": "mapping",
        "key": "t_address",
        "label": "mapping(address => mapping(address => uint256))",
        "numberOfBytes": "32",
        "value": "t_mapping(t_address,t_uint256)"
      },
      "t_mapping(t_address,t_mapping(t_uint256,t_address))": {
        "encoding": "mapping",
        "key": "t_address",
        "label": "mapping(address => mapping(uint256 => address))",
        "numberOfBytes": "32",
        "value": "t_mapping(t_uint256,t_address)"
      },
      "t_mapping(t_address,t_uint256)": {
        "encoding": "mapping",
        "key": "t_address",
        "label": "mapping(address => uint256)",
        "numberOfBytes": "32",
        "value": "t_uint256"
      },
      "t_mapping(t_uint256,t_address)": {
        "encoding": "mapping",
        "key": "t_uint256",
        "label": "mapping(uint256 => address)",
        "numberOfBytes": "32",
        "value": "t_address"
      },
      "t_string_storage": {
        "encoding": "bytes",
        "label": "string",
        "numberOfBytes": "32"
      },
      "t_uint256": {
        "encoding": "inplace",
        "label": "uint256",
        "numberOfBytes": "32"
      }
    }
  }
}