{
  "address": "0x75F8330b90Aad64409f9b833fBeb88f6eA3579BD",
  "abi": [
    {
      "inputs": [
        {
          "internalType": "address",
          "name": "_strategy",
          "type": "address"
        },
        {
          "internalType": "address",
          "name": "_depositToken",
          "type": "address"
        },
        {
          "internalType": "address",
          "name": "_wrappedNative",
          "type": "address"
        },
        {
          "internalType": "address",
          "name": "_feeManager",
          "type": "address"
        },
        {
          "internalType": "address",
          "name": "_feeCalculator",
          "type": "address"
        }
      ],
      "stateMutability": "nonpayable",
      "type": "constructor"
    },
    {
      "inputs": [],
      "name": "InvalidDeposit",
      "type": "error"
    },
    {
      "inputs": [],
      "name": "InvalidSlippage",
      "type": "error"
    },
    {
      "inputs": [],
      "name": "InvalidVaultImplementation",
      "type": "error"
    },
    {
      "inputs": [],
      "name": "InvalidWithdrawal",
      "type": "error"
    },
    {
      "inputs": [],
      "name": "NoFortress",
      "type": "error"
    },
    {
      "inputs": [],
      "name": "StrategyBricked",
      "type": "error"
    },
    {
      "inputs": [],
      "name": "ZeroAddress",
      "type": "error"
    },
    {
      "anonymous": false,
      "inputs": [
        {
          "indexed": true,
          "internalType": "address",
          "name": "owner",
          "type": "address"
        },
        {
          "indexed": true,
          "internalType": "address",
          "name": "spender",
          "type": "address"
        },
        {
          "indexed": false,
          "internalType": "uint256",
          "name": "value",
          "type": "uint256"
        }
      ],
      "name": "Approval",
      "type": "event"
    },
    {
      "anonymous": false,
      "inputs": [],
      "name": "ApprovalsRefreshed",
      "type": "event"
    },
    {
      "anonymous": false,
      "inputs": [
        {
          "indexed": true,
          "internalType": "address",
          "name": "vault",
          "type": "address"
        },
        {
          "indexed": true,
          "internalType": "address",
          "name": "user",
          "type": "address"
        },
        {
          "indexed": true,
          "internalType": "address",
          "name": "strategy",
          "type": "address"
        },
        {
          "indexed": false,
          "internalType": "uint256",
          "name": "amountDeposited",
          "type": "uint256"
        }
      ],
      "name": "DepositToFortress",
      "type": "event"
    },
    {
      "anonymous": false,
      "inputs": [
        {
          "indexed": true,
          "internalType": "address",
          "name": "token",
          "type": "address"
        },
        {
          "indexed": false,
          "internalType": "uint256",
          "name": "amount",
          "type": "uint256"
        }
      ],
      "name": "ERC20Recovered",
      "type": "event"
    },
    {
      "anonymous": false,
      "inputs": [
        {
          "indexed": true,
          "internalType": "address",
          "name": "fortress",
          "type": "address"
        },
        {
          "indexed": true,
          "internalType": "address",
          "name": "token",
          "type": "address"
        },
        {
          "indexed": false,
          "internalType": "uint256",
          "name": "amount",
          "type": "uint256"
        }
      ],
      "name": "ERC20RecoveredFromFortress",
      "type": "event"
    },
    {
      "anonymous": false,
      "inputs": [
        {
          "indexed": false,
          "internalType": "address[]",
          "name": "tokens",
          "type": "address[]"
        }
      ],
      "name": "ExtraTokensSet",
      "type": "event"
    },
    {
      "anonymous": false,
      "inputs": [
        {
          "indexed": false,
          "internalType": "address",
          "name": "feeCalculator",
          "type": "address"
        }
      ],
      "name": "FeeCalculatorSet",
      "type": "event"
    },
    {
      "anonymous": false,
      "inputs": [
        {
          "indexed": false,
          "internalType": "address",
          "name": "feeManager",
          "type": "address"
        }
      ],
      "name": "FeeManagerSet",
      "type": "event"
    },
    {
      "anonymous": false,
      "inputs": [
        {
          "indexed": true,
          "internalType": "address",
          "name": "vault",
          "type": "address"
        },
        {
          "indexed": false,
          "internalType": "uint256",
          "name": "tokenId",
          "type": "uint256"
        },
        {
          "indexed": true,
          "internalType": "address",
          "name": "strategy",
          "type": "address"
        }
      ],
      "name": "FortressCreated",
      "type": "event"
    },
    {
      "anonymous": false,
      "inputs": [
        {
          "indexed": false,
          "internalType": "address",
          "name": "newManager",
          "type": "address"
        }
      ],
      "name": "GLPRewardRouterSet",
      "type": "event"
    },
    {
      "anonymous": false,
      "inputs": [
        {
          "indexed": true,
          "internalType": "address",
          "name": "previousOwner",
          "type": "address"
        },
        {
          "indexed": true,
          "internalType": "address",
          "name": "newOwner",
          "type": "address"
        }
      ],
      "name": "OwnershipTransferred",
      "type": "event"
    },
    {
      "anonymous": false,
      "inputs": [
        {
          "indexed": false,
          "internalType": "bool",
          "name": "isBricked",
          "type": "bool"
        }
      ],
      "name": "SetStrategyAsBricked",
      "type": "event"
    },
    {
      "anonymous": false,
      "inputs": [
        {
          "indexed": false,
          "internalType": "uint16",
          "name": "newSlippage",
          "type": "uint16"
        }
      ],
      "name": "SlippageSet",
      "type": "event"
    },
    {
      "anonymous": false,
      "inputs": [
        {
          "indexed": false,
          "internalType": "address",
          "name": "stakedGLP",
          "type": "address"
        }
      ],
      "name": "StakedGLPSet",
      "type": "event"
    },
    {
      "anonymous": false,
      "inputs": [
        {
          "indexed": true,
          "internalType": "address",
          "name": "from",
          "type": "address"
        },
        {
          "indexed": true,
          "internalType": "address",
          "name": "to",
          "type": "address"
        },
        {
          "indexed": false,
          "internalType": "uint256",
          "name": "value",
          "type": "uint256"
        }
      ],
      "name": "Transfer",
      "type": "event"
    },
    {
      "anonymous": false,
      "inputs": [
        {
          "indexed": false,
          "internalType": "address",
          "name": "vault",
          "type": "address"
        },
        {
          "indexed": false,
          "internalType": "bool",
          "name": "approved",
          "type": "bool"
        }
      ],
      "name": "VaultSet",
      "type": "event"
    },
    {
      "anonymous": false,
      "inputs": [
        {
          "indexed": true,
          "internalType": "address",
          "name": "vault",
          "type": "address"
        },
        {
          "indexed": true,
          "internalType": "address",
          "name": "user",
          "type": "address"
        },
        {
          "indexed": true,
          "internalType": "address",
          "name": "strategy",
          "type": "address"
        },
        {
          "indexed": false,
          "internalType": "uint256",
          "name": "tokenId",
          "type": "uint256"
        }
      ],
      "name": "WithdrawBrickedFromFortress",
      "type": "event"
    },
    {
      "anonymous": false,
      "inputs": [
        {
          "indexed": true,
          "internalType": "address",
          "name": "vault",
          "type": "address"
        },
        {
          "indexed": true,
          "internalType": "address",
          "name": "user",
          "type": "address"
        },
        {
          "indexed": true,
          "internalType": "address",
          "name": "strategy",
          "type": "address"
        },
        {
          "indexed": false,
          "internalType": "uint256",
          "name": "tokenId",
          "type": "uint256"
        },
        {
          "indexed": false,
          "internalType": "uint256",
          "name": "amountReceived",
          "type": "uint256"
        }
      ],
      "name": "WithdrawFromFortress",
      "type": "event"
    },
    {
      "inputs": [],
      "name": "BPS",
      "outputs": [
        {
          "internalType": "uint16",
          "name": "",
          "type": "uint16"
        }
      ],
      "stateMutability": "view",
      "type": "function"
    },
    {
      "inputs": [],
      "name": "_dToken",
      "outputs": [
        {
          "internalType": "contract IERC20",
          "name": "",
          "type": "address"
        }
      ],
      "stateMutability": "view",
      "type": "function"
    },
    {
      "inputs": [],
      "name": "_strat",
      "outputs": [
        {
          "internalType": "address",
          "name": "",
          "type": "address"
        }
      ],
      "stateMutability": "view",
      "type": "function"
    },
    {
      "inputs": [],
      "name": "_wNative",
      "outputs": [
        {
          "internalType": "address",
          "name": "",
          "type": "address"
        }
      ],
      "stateMutability": "view",
      "type": "function"
    },
    {
      "inputs": [
        {
          "internalType": "address",
          "name": "owner",
          "type": "address"
        },
        {
          "internalType": "address",
          "name": "spender",
          "type": "address"
        }
      ],
      "name": "allowance",
      "outputs": [
        {
          "internalType": "uint256",
          "name": "",
          "type": "uint256"
        }
      ],
      "stateMutability": "view",
      "type": "function"
    },
    {
      "inputs": [
        {
          "internalType": "address",
          "name": "spender",
          "type": "address"
        },
        {
          "internalType": "uint256",
          "name": "amount",
          "type": "uint256"
        }
      ],
      "name": "approve",
      "outputs": [
        {
          "internalType": "bool",
          "name": "",
          "type": "bool"
        }
      ],
      "stateMutability": "nonpayable",
      "type": "function"
    },
    {
      "inputs": [
        {
          "internalType": "address",
          "name": "account",
          "type": "address"
        }
      ],
      "name": "balanceOf",
      "outputs": [
        {
          "internalType": "uint256",
          "name": "",
          "type": "uint256"
        }
      ],
      "stateMutability": "view",
      "type": "function"
    },
    {
      "inputs": [],
      "name": "decimals",
      "outputs": [
        {
          "internalType": "uint8",
          "name": "",
          "type": "uint8"
        }
      ],
      "stateMutability": "view",
      "type": "function"
    },
    {
      "inputs": [
        {
          "internalType": "address",
          "name": "spender",
          "type": "address"
        },
        {
          "internalType": "uint256",
          "name": "subtractedValue",
          "type": "uint256"
        }
      ],
      "name": "decreaseAllowance",
      "outputs": [
        {
          "internalType": "bool",
          "name": "",
          "type": "bool"
        }
      ],
      "stateMutability": "nonpayable",
      "type": "function"
    },
    {
      "inputs": [
        {
          "internalType": "uint256",
          "name": "_amount",
          "type": "uint256"
        },
        {
          "internalType": "address",
          "name": "_user",
          "type": "address"
        },
        {
          "internalType": "uint256",
          "name": "_tokenId",
          "type": "uint256"
        }
      ],
      "name": "depositToFortress",
      "outputs": [],
      "stateMutability": "nonpayable",
      "type": "function"
    },
    {
      "inputs": [
        {
          "internalType": "uint256",
          "name": "",
          "type": "uint256"
        }
      ],
      "name": "extraTokens",
      "outputs": [
        {
          "internalType": "address",
          "name": "",
          "type": "address"
        }
      ],
      "stateMutability": "view",
      "type": "function"
    },
    {
      "inputs": [],
      "name": "feeCalc",
      "outputs": [
        {
          "internalType": "contract IFortiFiFeeCalculator",
          "name": "",
          "type": "address"
        }
      ],
      "stateMutability": "view",
      "type": "function"
    },
    {
      "inputs": [],
      "name": "feeMgr",
      "outputs": [
        {
          "internalType": "contract IFortiFiFeeManager",
          "name": "",
          "type": "address"
        }
      ],
      "stateMutability": "view",
      "type": "function"
    },
    {
      "inputs": [
        {
          "internalType": "address",
          "name": "spender",
          "type": "address"
        },
        {
          "internalType": "uint256",
          "name": "addedValue",
          "type": "uint256"
        }
      ],
      "name": "increaseAllowance",
      "outputs": [
        {
          "internalType": "bool",
          "name": "",
          "type": "bool"
        }
      ],
      "stateMutability": "nonpayable",
      "type": "function"
    },
    {
      "inputs": [
        {
          "internalType": "address",
          "name": "",
          "type": "address"
        }
      ],
      "name": "isFortiFiVault",
      "outputs": [
        {
          "internalType": "bool",
          "name": "",
          "type": "bool"
        }
      ],
      "stateMutability": "view",
      "type": "function"
    },
    {
      "inputs": [],
      "name": "name",
      "outputs": [
        {
          "internalType": "string",
          "name": "",
          "type": "string"
        }
      ],
      "stateMutability": "view",
      "type": "function"
    },
    {
      "inputs": [],
      "name": "owner",
      "outputs": [
        {
          "internalType": "address",
          "name": "",
          "type": "address"
        }
      ],
      "stateMutability": "view",
      "type": "function"
    },
    {
      "inputs": [
        {
          "internalType": "address",
          "name": "_token",
          "type": "address"
        },
        {
          "internalType": "uint256",
          "name": "_amount",
          "type": "uint256"
        }
      ],
      "name": "recoverERC20",
      "outputs": [],
      "stateMutability": "nonpayable",
      "type": "function"
    },
    {
      "inputs": [
        {
          "internalType": "address",
          "name": "_fortress",
          "type": "address"
        },
        {
          "internalType": "address",
          "name": "_token",
          "type": "address"
        },
        {
          "internalType": "uint256",
          "name": "_amount",
          "type": "uint256"
        }
      ],
      "name": "recoverFromFortress",
      "outputs": [],
      "stateMutability": "nonpayable",
      "type": "function"
    },
    {
      "inputs": [],
      "name": "renounceOwnership",
      "outputs": [],
      "stateMutability": "nonpayable",
      "type": "function"
    },
    {
      "inputs": [],
      "name": "rewardRouter",
      "outputs": [
        {
          "internalType": "address",
          "name": "",
          "type": "address"
        }
      ],
      "stateMutability": "view",
      "type": "function"
    },
    {
      "inputs": [
        {
          "internalType": "address[]",
          "name": "_tokens",
          "type": "address[]"
        }
      ],
      "name": "setExtraTokens",
      "outputs": [],
      "stateMutability": "nonpayable",
      "type": "function"
    },
    {
      "inputs": [
        {
          "internalType": "address",
          "name": "_contract",
          "type": "address"
        }
      ],
      "name": "setFeeCalculator",
      "outputs": [],
      "stateMutability": "nonpayable",
      "type": "function"
    },
    {
      "inputs": [
        {
          "internalType": "address",
          "name": "_contract",
          "type": "address"
        }
      ],
      "name": "setFeeManager",
      "outputs": [],
      "stateMutability": "nonpayable",
      "type": "function"
    },
    {
      "inputs": [
        {
          "internalType": "address",
          "name": "_newManager",
          "type": "address"
        }
      ],
      "name": "setGlpRewardRouter",
      "outputs": [],
      "stateMutability": "nonpayable",
      "type": "function"
    },
    {
      "inputs": [
        {
          "internalType": "address[]",
          "name": "_fortresses",
          "type": "address[]"
        }
      ],
      "name": "setRewardRouterForFortresses",
      "outputs": [],
      "stateMutability": "nonpayable",
      "type": "function"
    },
    {
      "inputs": [
        {
          "internalType": "uint16",
          "name": "_amount",
          "type": "uint16"
        }
      ],
      "name": "setSlippage",
      "outputs": [],
      "stateMutability": "nonpayable",
      "type": "function"
    },
    {
      "inputs": [
        {
          "internalType": "address[]",
          "name": "_fortresses",
          "type": "address[]"
        },
        {
          "internalType": "uint256",
          "name": "_amount",
          "type": "uint256"
        }
      ],
      "name": "setSlippageForFortresses",
      "outputs": [],
      "stateMutability": "nonpayable",
      "type": "function"
    },
    {
      "inputs": [
        {
          "internalType": "address",
          "name": "_newAddress",
          "type": "address"
        }
      ],
      "name": "setStakedGlp",
      "outputs": [],
      "stateMutability": "nonpayable",
      "type": "function"
    },
    {
      "inputs": [
        {
          "internalType": "address[]",
          "name": "_fortresses",
          "type": "address[]"
        }
      ],
      "name": "setStakedGlpForFortresses",
      "outputs": [],
      "stateMutability": "nonpayable",
      "type": "function"
    },
    {
      "inputs": [
        {
          "internalType": "bool",
          "name": "_isBricked",
          "type": "bool"
        }
      ],
      "name": "setStrategyBricked",
      "outputs": [],
      "stateMutability": "nonpayable",
      "type": "function"
    },
    {
      "inputs": [
        {
          "internalType": "address",
          "name": "_vault",
          "type": "address"
        },
        {
          "internalType": "bool",
          "name": "_approved",
          "type": "bool"
        }
      ],
      "name": "setVault",
      "outputs": [],
      "stateMutability": "nonpayable",
      "type": "function"
    },
    {
      "inputs": [],
      "name": "slippageBps",
      "outputs": [
        {
          "internalType": "uint16",
          "name": "",
          "type": "uint16"
        }
      ],
      "stateMutability": "view",
      "type": "function"
    },
    {
      "inputs": [],
      "name": "stakedGLP",
      "outputs": [
        {
          "internalType": "address",
          "name": "",
          "type": "address"
        }
      ],
      "stateMutability": "view",
      "type": "function"
    },
    {
      "inputs": [],
      "name": "strategyIsBricked",
      "outputs": [
        {
          "internalType": "bool",
          "name": "",
          "type": "bool"
        }
      ],
      "stateMutability": "view",
      "type": "function"
    },
    {
      "inputs": [],
      "name": "symbol",
      "outputs": [
        {
          "internalType": "string",
          "name": "",
          "type": "string"
        }
      ],
      "stateMutability": "view",
      "type": "function"
    },
    {
      "inputs": [],
      "name": "totalSupply",
      "outputs": [
        {
          "internalType": "uint256",
          "name": "",
          "type": "uint256"
        }
      ],
      "stateMutability": "view",
      "type": "function"
    },
    {
      "inputs": [
        {
          "internalType": "address",
          "name": "to",
          "type": "address"
        },
        {
          "internalType": "uint256",
          "name": "amount",
          "type": "uint256"
        }
      ],
      "name": "transfer",
      "outputs": [
        {
          "internalType": "bool",
          "name": "",
          "type": "bool"
        }
      ],
      "stateMutability": "nonpayable",
      "type": "function"
    },
    {
      "inputs": [
        {
          "internalType": "address",
          "name": "from",
          "type": "address"
        },
        {
          "internalType": "address",
          "name": "to",
          "type": "address"
        },
        {
          "internalType": "uint256",
          "name": "amount",
          "type": "uint256"
        }
      ],
      "name": "transferFrom",
      "outputs": [
        {
          "internalType": "bool",
          "name": "",
          "type": "bool"
        }
      ],
      "stateMutability": "nonpayable",
      "type": "function"
    },
    {
      "inputs": [
        {
          "internalType": "address",
          "name": "newOwner",
          "type": "address"
        }
      ],
      "name": "transferOwnership",
      "outputs": [],
      "stateMutability": "nonpayable",
      "type": "function"
    },
    {
      "inputs": [
        {
          "internalType": "address",
          "name": "",
          "type": "address"
        },
        {
          "internalType": "uint256",
          "name": "",
          "type": "uint256"
        }
      ],
      "name": "vaultToTokenToFortress",
      "outputs": [
        {
          "internalType": "address",
          "name": "",
          "type": "address"
        }
      ],
      "stateMutability": "view",
      "type": "function"
    },
    {
      "inputs": [
        {
          "internalType": "uint256",
          "name": "_amount",
          "type": "uint256"
        },
        {
          "internalType": "address",
          "name": "_user",
          "type": "address"
        },
        {
          "internalType": "uint256",
          "name": "_tokenId",
          "type": "uint256"
        }
      ],
      "name": "withdrawFromFortress",
      "outputs": [],
      "stateMutability": "nonpayable",
      "type": "function"
    }
  ],
  "transactionHash": "0x4b54fcb1e468f6af4cf4b300da294dffede97053f86601bb6614cafbbd6ec471",
  "args": [
    "0x9f637540149f922145c06e1aa3f38dcDc32Aff5C",
    "0xB97EF9Ef8734C71904D8002F8b6Bc66Dd9c48a6E",
    "0xB31f66AA3C1e785363F0875A1B74E27b85FD66c7",
    "0xf0F55E8C9E23c627b253876F3B4Bf1Ef3eBA4Db0",
    "0x92581e042d0A5029430562C0959aEbdFeCBfFd36"
  ],
  "numDeployments": 8,
  "solcInputHash": "e2f833d6a04f9ddc17b0d3914e52b153",
  "bytecode": "0x60e0604052600b8054755643f4b25e36478ee1e90418d5343cb6591bcb9d00646001600160b01b0319909116179055600c80546001600160a01b03191673b70b91ce0771d3f4c81d87660f71da31d48eb3b31790553480156200006157600080fd5b5060405162005588380380620055888339810160408190526200008491620002a9565b84848484846040518060400160405280601881526020017f466f72746946692053747261746567792052656365697074000000000000000081525060405180604001604052806004815260200163232329a960e11b815250620000f6620000f06200023860201b60201c565b6200023c565b6004620001048382620003be565b506005620001138282620003be565b5050506001600160a01b0385166200013e5760405163d92e233d60e01b815260040160405180910390fd5b6001600160a01b038416620001665760405163d92e233d60e01b815260040160405180910390fd5b6001600160a01b0383166200018e5760405163d92e233d60e01b815260040160405180910390fd5b6001600160a01b038216620001b65760405163d92e233d60e01b815260040160405180910390fd5b6001600160a01b038116620001de5760405163d92e233d60e01b815260040160405180910390fd5b6001600160a01b0394851660805291841660a05291831660c05260068054610100600160a81b03191661010092851692909202919091179055600780546001600160a01b03191691909216179055506200048a9350505050565b3390565b600080546001600160a01b038381166001600160a01b0319831681178455604051919092169283917f8be0079c531659141344cd1fd0a4f28419497f9722a3daafe3b4186f6b6457e09190a35050565b80516001600160a01b0381168114620002a457600080fd5b919050565b600080600080600060a08688031215620002c257600080fd5b620002cd866200028c565b9450620002dd602087016200028c565b9350620002ed604087016200028c565b9250620002fd606087016200028c565b91506200030d608087016200028c565b90509295509295909350565b634e487b7160e01b600052604160045260246000fd5b600181811c908216806200034457607f821691505b6020821081036200036557634e487b7160e01b600052602260045260246000fd5b50919050565b601f821115620003b957600081815260208120601f850160051c81016020861015620003945750805b601f850160051c820191505b81811015620003b557828155600101620003a0565b5050505b505050565b81516001600160401b03811115620003da57620003da62000319565b620003f281620003eb84546200032f565b846200036b565b602080601f8311600181146200042a5760008415620004115750858301515b600019600386901b1c1916600185901b178555620003b5565b600085815260208120601f198616915b828110156200045b578886015182559484019460019091019084016200043a565b50858210156200047a5787850151600019600388901b60f8161c191681555b5050505050600190811b01905550565b60805160a05160c0516150736200051560003960008181610573015281816108d80152818161096c01528181610aef01528181610c0001528181610c8d0152818161175701526117e501526000818161039e015261098e01526000818161054b0152818161093801528181610a4e01528181610cb7015281816116430152611a3301526150736000f3fe60806040523480156200001157600080fd5b5060043610620002915760003560e01c8063770540681162000161578063a9059cbb11620000d3578063d66cfc771162000092578063d66cfc77146200062e578063dd62ed3e1462000645578063ded438f01462000681578063f2fde38b1462000698578063f7c8546914620006af578063fdad531d14620006c357600080fd5b8063a9059cbb14620005ac578063ab37fbb714620005c3578063b9277d2a14620005da578063ba251fba14620005f1578063cf950022146200060857600080fd5b80638da5cb5b11620001205780638da5cb5b146200052957806395d89b41146200053b578063963d7e911462000545578063969066be146200056d578063a457c2d7146200059557600080fd5b80637705406814620004b457806381f6cf5314620004cb5780638980f11f14620004e25780638c4cc0df14620004f95780638c66d04f146200051257600080fd5b80633950935111620002075780635a3bb98911620001c65780635a3bb98914620004225780635a659d2614620004365780635b30cf55146200044d578063627f66c6146200046757806370a08231146200047e578063715018a614620004aa57600080fd5b80633950935114620003c0578063408555b914620003d7578063472d35b914620003e5578063525e669e14620003fc578063578c71d9146200041357600080fd5b806323b872dd116200025457806323b872dd146200033c578063249d39e9146200035357806329c9aa191462000371578063313ce5671462000388578063318d494e146200039857600080fd5b806306fdde031462000296578063095ea7b314620002b85780630f1cb79214620002e057806318160ddd14620002f95780631d6e077a146200030c575b600080fd5b620002a0620006fa565b604051620002af9190620026cc565b60405180910390f35b620002cf620002c93660046200271e565b62000794565b6040519015158152602001620002af565b620002f7620002f13660046200275a565b620007b0565b005b6003545b604051908152602001620002af565b620003236200031d3660046200277a565b6200082e565b6040516001600160a01b039091168152602001620002af565b620002cf6200034d36600462002794565b62000859565b6200035d61271081565b60405161ffff9091168152602001620002af565b620002f762000382366004620027d5565b62000883565b60405160128152602001620002af565b620003237f000000000000000000000000000000000000000000000000000000000000000081565b620002cf620003d13660046200271e565b62000d35565b600654620002cf9060ff1681565b620002f7620003f6366004620027fd565b62000d78565b620002f76200040d3660046200286a565b62000e1c565b600b546200035d9061ffff1681565b600c5462000323906001600160a01b031681565b620002f762000447366004620027fd565b62000f31565b600b5462000323906201000090046001600160a01b031681565b620002f762000478366004620028ba565b62000fad565b620002fd6200048f366004620027fd565b6001600160a01b031660009081526001602052604090205490565b620002f7620010ce565b620002f7620004c5366004620027fd565b62001109565b620002f7620004dc366004620028f6565b6200118f565b620002f7620004f33660046200271e565b62001271565b600654620003239061010090046001600160a01b031681565b620002f762000523366004620027fd565b620012fc565b6000546001600160a01b031662000323565b620002a0620013a8565b620003237f000000000000000000000000000000000000000000000000000000000000000081565b620003237f000000000000000000000000000000000000000000000000000000000000000081565b620002cf620005a63660046200271e565b620013b9565b620002cf620005bd3660046200271e565b6200145a565b620002f7620005d43660046200293c565b6200146a565b620002f7620005eb366004620028f6565b620014dc565b620002f762000602366004620027d5565b6200154b565b620002cf62000619366004620027fd565b60096020526000908152604090205460ff1681565b620002f76200063f366004620028f6565b62001a8e565b620002fd6200065636600462002962565b6001600160a01b03918216600090815260026020908152604080832093909416825291909152205490565b620002f76200069236600462002794565b62001b70565b620002f7620006a9366004620027fd565b62001c5a565b60075462000323906001600160a01b031681565b62000323620006d43660046200271e565b600a6020908152600092835260408084209091529082529020546001600160a01b031681565b6060600480546200070b906200299a565b80601f016020809104026020016040519081016040528092919081815260200182805462000739906200299a565b80156200078a5780601f106200075e576101008083540402835291602001916200078a565b820191906000526020600020905b8154815290600101906020018083116200076c57829003601f168201915b5050505050905090565b600033620007a481858562001cfc565b60019150505b92915050565b6000546001600160a01b03163314620007e65760405162461bcd60e51b8152600401620007dd90620029d6565b60405180910390fd5b6006805460ff19168215159081179091556040519081527fdd54532339942dad92de40994c97555cc95b2aceb99fdd85a412d20ee0a568b8906020015b60405180910390a150565b600881815481106200083f57600080fd5b6000918252602090912001546001600160a01b0316905081565b6000336200086985828562001e1d565b6200087685858562001eae565b60019150505b9392505050565b82600003620008a557604051635972996f60e11b815260040160405180910390fd5b60065460ff1615620008ca5760405163217ca11f60e21b815260040160405180910390fd5b620009016001600160a01b037f00000000000000000000000000000000000000000000000000000000000000001633308662002086565b336000908152600a602090815260408083208484529091528120546001600160a01b031662000aa357600b54600c546040516000927f0000000000000000000000000000000000000000000000000000000000000000926001600160a01b03620100009092048216927f0000000000000000000000000000000000000000000000000000000000000000927f0000000000000000000000000000000000000000000000000000000000000000921690620009bb9062002619565b6001600160a01b0395861681529385166020850152918416604084015283166060830152909116608082015260a001604051809103906000f08015801562000a07573d6000803e3d6000fd5b50336000818152600a6020908152604080832088845282529182902080546001600160a01b0319166001600160a01b038681169190911790915591518781529395508594507f0000000000000000000000000000000000000000000000000000000000000000909116927fd54b6c27f4639f28e778312a36befbf189631a3587aeb73e182e99c434eb7705910160405180910390a35062000ac9565b50336000908152600a602090815260408083208484529091529020546001600160a01b03165b60405163095ea7b360e01b81526001600160a01b038281166004830152602482018690527f0000000000000000000000000000000000000000000000000000000000000000169063095ea7b3906044016020604051808303816000875af115801562000b39573d6000803e3d6000fd5b505050506040513d601f19601f8201168201806040525081019062000b5f919062002a0b565b50604051636e553f6560e01b8152600481018590526001600160a01b03848116602483015260009190831690636e553f65906044016020604051808303816000875af115801562000bb4573d6000803e3d6000fd5b505050506040513d601f19601f8201168201806040525081019062000bda919062002a2b565b905062000be83382620020f3565b6040516370a0823160e01b81523060048201526000907f00000000000000000000000000000000000000000000000000000000000000006001600160a01b0316906370a0823190602401602060405180830381865afa15801562000c50573d6000803e3d6000fd5b505050506040513d601f19601f8201168201806040525081019062000c76919062002a2b565b9050801562000cb55762000cb56001600160a01b037f0000000000000000000000000000000000000000000000000000000000000000163383620021d8565b7f00000000000000000000000000000000000000000000000000000000000000006001600160a01b0316856001600160a01b0316336001600160a01b03167fe15dc988e072c1d9d056206bf4c2ccd15513ea1197955bdb545e39a4a198f6278960405162000d2591815260200190565b60405180910390a4505050505050565b3360008181526002602090815260408083206001600160a01b0387168452909152812054909190620007a4908290869062000d7290879062002a5b565b62001cfc565b6000546001600160a01b0316331462000da55760405162461bcd60e51b8152600401620007dd90620029d6565b6001600160a01b03811662000dcd5760405163d92e233d60e01b815260040160405180910390fd5b600780546001600160a01b0319166001600160a01b0383169081179091556040519081527fbf5f580614969fb819b8af01f7cc62fe0e0146feaf98d7aee42e76bb0bee8e639060200162000823565b6000546001600160a01b0316331462000e495760405162461bcd60e51b8152600401620007dd90620029d6565b6101f481118062000e5a5750600a81105b1562000e795760405163334ee9a160e01b815260040160405180910390fd5b8160005b8181101562000f2a5784848281811062000e9b5762000e9b62002a71565b905060200201602081019062000eb29190620027fd565b6001600160a01b031663f0fa55a9846040518263ffffffff1660e01b815260040162000ee091815260200190565b600060405180830381600087803b15801562000efb57600080fd5b505af115801562000f10573d6000803e3d6000fd5b50505050808062000f219062002a87565b91505062000e7d565b5050505050565b6000546001600160a01b0316331462000f5e5760405162461bcd60e51b8152600401620007dd90620029d6565b600c80546001600160a01b0319166001600160a01b0383169081179091556040519081527f37151257d8200a9481b623b7ea8cde3f94b92d731cda548bd5fbf63cc87db28c9060200162000823565b6000546001600160a01b0316331462000fda5760405162461bcd60e51b8152600401620007dd90620029d6565b6040516301ffc9a760e01b8152632bee9c0f60e21b60048201526001600160a01b038316906301ffc9a790602401602060405180830381865afa15801562001026573d6000803e3d6000fd5b505050506040513d601f19601f820116820180604052508101906200104c919062002a0b565b6200106a57604051632a4d0ad560e01b815260040160405180910390fd5b6001600160a01b038216600081815260096020908152604091829020805460ff19168515159081179091558251938452908301527f79a58dadb454da39ecff92b439454719a80ea78743990d0f0dd2343a7e7bb91a91015b60405180910390a15050565b6000546001600160a01b03163314620010fb5760405162461bcd60e51b8152600401620007dd90620029d6565b6200110760006200220a565b565b6000546001600160a01b03163314620011365760405162461bcd60e51b8152600401620007dd90620029d6565b600b805462010000600160b01b031916620100006001600160a01b038416908102919091179091556040519081527fd844f74196477aa31314eb2e4779aa16816bb19141ec64e6167696b2c68c908b9060200162000823565b6000546001600160a01b03163314620011bc5760405162461bcd60e51b8152600401620007dd90620029d6565b8060005b818110156200126b57838382818110620011de57620011de62002a71565b9050602002016020810190620011f59190620027fd565b600c5460405163977b91d760e01b81526001600160a01b03918216600482015291169063977b91d790602401600060405180830381600087803b1580156200123c57600080fd5b505af115801562001251573d6000803e3d6000fd5b505050508080620012629062002a87565b915050620011c0565b50505050565b6000546001600160a01b031633146200129e5760405162461bcd60e51b8152600401620007dd90620029d6565b620012b46001600160a01b0383163383620021d8565b816001600160a01b03167f505b28e6941631badc363841ecbf8e1214b9379c643936458e87be718e15799982604051620012f091815260200190565b60405180910390a25050565b6000546001600160a01b03163314620013295760405162461bcd60e51b8152600401620007dd90620029d6565b6001600160a01b038116620013515760405163d92e233d60e01b815260040160405180910390fd5b60068054610100600160a81b0319166101006001600160a01b038416908102919091179091556040519081527fff482b94e6650f33ebd5a4b656f2524de0c552f315fb3270f47aeaef3d72a63e9060200162000823565b6060600580546200070b906200299a565b3360008181526002602090815260408083206001600160a01b038716845290915281205490919083811015620014405760405162461bcd60e51b815260206004820152602560248201527f45524332303a2064656372656173656420616c6c6f77616e63652062656c6f77604482015264207a65726f60d81b6064820152608401620007dd565b6200144f828686840362001cfc565b506001949350505050565b600033620007a481858562001eae565b6000546001600160a01b03163314620014975760405162461bcd60e51b8152600401620007dd90620029d6565b600b805461ffff191661ffff83169081179091556040519081527ff81c5fcf3aecd6806cef1d458fedb8ca3fb79150451dc8c8d1aef6215c4a82d89060200162000823565b6000546001600160a01b03163314620015095760405162461bcd60e51b8152600401620007dd90620029d6565b620015176008838362002627565b507fe1a8a770bbbdcfcba3d04e555cd2aad13f5c7a91e126ee71f5f98bf7405dbecd8282604051620010c292919062002aa3565b826000036200156d5760405163c945242d60e01b815260040160405180910390fd5b336000908152600a602090815260408083208484529091529020546001600160a01b0316620015af57604051636987969160e01b815260040160405180910390fd5b620015bb33846200225a565b60065460ff1615620016be57336000908152600a60209081526040808320848452909152908190205490516329a5c05560e21b81526001600160a01b0384811660048301529091169063a697015490602401600060405180830381600087803b1580156200162857600080fd5b505af11580156200163d573d6000803e3d6000fd5b505050507f00000000000000000000000000000000000000000000000000000000000000006001600160a01b0316826001600160a01b0316336001600160a01b03167f4036930356ede44690c04fdae6fa8e587df3048b8fb1c7e71b2a1e4240d500bf84604051620016b191815260200190565b60405180910390a4505050565b336000908152600a60209081526040808320848452909152908190205490516329380a9b60e11b81526001600160a01b03909116906352701536906200170c90859060089060040162002af3565b600060405180830381600087803b1580156200172757600080fd5b505af11580156200173c573d6000803e3d6000fd5b50506040516370a0823160e01b8152306004820152600092507f00000000000000000000000000000000000000000000000000000000000000006001600160a01b031691506370a0823190602401602060405180830381865afa158015620017a8573d6000803e3d6000fd5b505050506040513d601f19601f82011682018060405250810190620017ce919062002a2b565b905080156200180d576200180d6001600160a01b037f0000000000000000000000000000000000000000000000000000000000000000163383620021d8565b600854801562001a1b5760005b8181101562001a19576000600882815481106200183b576200183b62002a71565b60009182526020822001546040516370a0823160e01b81523060048201526001600160a01b03909116925082906370a0823190602401602060405180830381865afa1580156200188f573d6000803e3d6000fd5b505050506040513d601f19601f82011682018060405250810190620018b5919062002a2b565b9050801562001a0157600654604051633becdb0560e21b81526001600160a01b038981166004830152602482018490526000926101009004169063efb36c1490604401602060405180830381865afa15801562001916573d6000803e3d6000fd5b505050506040513d601f19601f820116820180604052508101906200193c919062002a2b565b600754600880549293506001600160a01b039091169163a033fcd49190879081106200196c576200196c62002a71565b60009182526020909120015460405160e083901b6001600160e01b03191681526001600160a01b03909116600482015260248101849052604401600060405180830381600087803b158015620019c157600080fd5b505af1158015620019d6573d6000803e3d6000fd5b50505050620019ff888284620019ed919062002b54565b6001600160a01b0386169190620021d8565b505b5050808062001a109062002a87565b9150506200181a565b505b60408051848152602081018490526001600160a01b037f00000000000000000000000000000000000000000000000000000000000000008116929087169133917f64457f6870de47350bc5d046e00ce2360ff6c68a1596f7393a5a680146d38748910160405180910390a450505b505050565b6000546001600160a01b0316331462001abb5760405162461bcd60e51b8152600401620007dd90620029d6565b8060005b818110156200126b5783838281811062001add5762001add62002a71565b905060200201602081019062001af49190620027fd565b600b54604051630ee0a80d60e31b81526001600160a01b036201000090920482166004820152911690637705406890602401600060405180830381600087803b15801562001b4157600080fd5b505af115801562001b56573d6000803e3d6000fd5b50505050808062001b679062002a87565b91505062001abf565b6000546001600160a01b0316331462001b9d5760405162461bcd60e51b8152600401620007dd90620029d6565b604051631171bda960e01b81523360048201526001600160a01b03838116602483015260448201839052841690631171bda990606401600060405180830381600087803b15801562001bee57600080fd5b505af115801562001c03573d6000803e3d6000fd5b50505050816001600160a01b0316836001600160a01b03167f135171f052c67d036683a0a465a3a0760075fb1402c9387fb0b9ad6e674c38d68360405162001c4d91815260200190565b60405180910390a3505050565b6000546001600160a01b0316331462001c875760405162461bcd60e51b8152600401620007dd90620029d6565b6001600160a01b03811662001cee5760405162461bcd60e51b815260206004820152602660248201527f4f776e61626c653a206e6577206f776e657220697320746865207a65726f206160448201526564647265737360d01b6064820152608401620007dd565b62001cf9816200220a565b50565b6001600160a01b03831662001d605760405162461bcd60e51b8152602060048201526024808201527f45524332303a20617070726f76652066726f6d20746865207a65726f206164646044820152637265737360e01b6064820152608401620007dd565b6001600160a01b03821662001dc35760405162461bcd60e51b815260206004820152602260248201527f45524332303a20617070726f766520746f20746865207a65726f206164647265604482015261737360f01b6064820152608401620007dd565b6001600160a01b0383811660008181526002602090815260408083209487168084529482529182902085905590518481527f8c5be1e5ebec7d5bd14f71427d1e84f3dd0314c0f7b2291e5b200ac8c7c3b925910162001c4d565b6001600160a01b0383811660009081526002602090815260408083209386168352929052205460001981146200126b578181101562001e9f5760405162461bcd60e51b815260206004820152601d60248201527f45524332303a20696e73756666696369656e7420616c6c6f77616e63650000006044820152606401620007dd565b6200126b848484840362001cfc565b6001600160a01b03831662001f145760405162461bcd60e51b815260206004820152602560248201527f45524332303a207472616e736665722066726f6d20746865207a65726f206164604482015264647265737360d81b6064820152608401620007dd565b6001600160a01b03821662001f785760405162461bcd60e51b815260206004820152602360248201527f45524332303a207472616e7366657220746f20746865207a65726f206164647260448201526265737360e81b6064820152608401620007dd565b6001600160a01b0383166000908152600160205260409020548181101562001ff25760405162461bcd60e51b815260206004820152602660248201527f45524332303a207472616e7366657220616d6f756e7420657863656564732062604482015265616c616e636560d01b6064820152608401620007dd565b6001600160a01b038085166000908152600160205260408082208585039055918516815290812080548492906200202b90849062002a5b565b92505081905550826001600160a01b0316846001600160a01b03167fddf252ad1be2c89b69c2b068fc378daa952ba7f163c4a11628f55a4df523b3ef846040516200207891815260200190565b60405180910390a36200126b565b6040516001600160a01b03808516602483015283166044820152606481018290526200126b9085906323b872dd60e01b906084015b60408051601f198184030181529190526020810180516001600160e01b03166001600160e01b031990931692909217909152620023ae565b6001600160a01b0382166200214b5760405162461bcd60e51b815260206004820152601f60248201527f45524332303a206d696e7420746f20746865207a65726f2061646472657373006044820152606401620007dd565b80600360008282546200215f919062002a5b565b90915550506001600160a01b038216600090815260016020526040812080548392906200218e90849062002a5b565b90915550506040518181526001600160a01b038316906000907fddf252ad1be2c89b69c2b068fc378daa952ba7f163c4a11628f55a4df523b3ef9060200160405180910390a35050565b6040516001600160a01b03831660248201526044810182905262001a8990849063a9059cbb60e01b90606401620020bb565b600080546001600160a01b038381166001600160a01b0319831681178455604051919092169283917f8be0079c531659141344cd1fd0a4f28419497f9722a3daafe3b4186f6b6457e09190a35050565b6001600160a01b038216620022bc5760405162461bcd60e51b815260206004820152602160248201527f45524332303a206275726e2066726f6d20746865207a65726f206164647265736044820152607360f81b6064820152608401620007dd565b6001600160a01b03821660009081526001602052604090205481811015620023325760405162461bcd60e51b815260206004820152602260248201527f45524332303a206275726e20616d6f756e7420657863656564732062616c616e604482015261636560f01b6064820152608401620007dd565b6001600160a01b03831660009081526001602052604081208383039055600380548492906200236390849062002b54565b90915550506040518281526000906001600160a01b038516907fddf252ad1be2c89b69c2b068fc378daa952ba7f163c4a11628f55a4df523b3ef9060200160405180910390a3505050565b600062002405826040518060400160405280602081526020017f5361666545524332303a206c6f772d6c6576656c2063616c6c206661696c6564815250856001600160a01b0316620024879092919063ffffffff16565b80519091501562001a89578080602001905181019062002426919062002a0b565b62001a895760405162461bcd60e51b815260206004820152602a60248201527f5361666545524332303a204552433230206f7065726174696f6e20646964206e6044820152691bdd081cdd58d8d9595960b21b6064820152608401620007dd565b6060620024988484600085620024a0565b949350505050565b606082471015620025035760405162461bcd60e51b815260206004820152602660248201527f416464726573733a20696e73756666696369656e742062616c616e636520666f6044820152651c8818d85b1b60d21b6064820152608401620007dd565b6001600160a01b0385163b6200255c5760405162461bcd60e51b815260206004820152601d60248201527f416464726573733a2063616c6c20746f206e6f6e2d636f6e74726163740000006044820152606401620007dd565b600080866001600160a01b031685876040516200257a919062002b6a565b60006040518083038185875af1925050503d8060008114620025b9576040519150601f19603f3d011682016040523d82523d6000602084013e620025be565b606091505b5091509150620025d0828286620025db565b979650505050505050565b60608315620025ec5750816200087c565b825115620025fd5782518084602001fd5b8160405162461bcd60e51b8152600401620007dd9190620026cc565b6124b58062002b8983390190565b8280548282559060005260206000209081019282156200267d579160200282015b828111156200267d5781546001600160a01b0319166001600160a01b0384351617825560209092019160019091019062002648565b506200268b9291506200268f565b5090565b5b808211156200268b576000815560010162002690565b60005b83811015620026c3578181015183820152602001620026a9565b50506000910152565b6020815260008251806020840152620026ed816040850160208701620026a6565b601f01601f19169190910160400192915050565b80356001600160a01b03811681146200271957600080fd5b919050565b600080604083850312156200273257600080fd5b6200273d8362002701565b946020939093013593505050565b801515811462001cf957600080fd5b6000602082840312156200276d57600080fd5b81356200087c816200274b565b6000602082840312156200278d57600080fd5b5035919050565b600080600060608486031215620027aa57600080fd5b620027b58462002701565b9250620027c56020850162002701565b9150604084013590509250925092565b600080600060608486031215620027eb57600080fd5b83359250620027c56020850162002701565b6000602082840312156200281057600080fd5b6200087c8262002701565b60008083601f8401126200282e57600080fd5b50813567ffffffffffffffff8111156200284757600080fd5b6020830191508360208260051b85010111156200286357600080fd5b9250929050565b6000806000604084860312156200288057600080fd5b833567ffffffffffffffff8111156200289857600080fd5b620028a6868287016200281b565b909790965060209590950135949350505050565b60008060408385031215620028ce57600080fd5b620028d98362002701565b91506020830135620028eb816200274b565b809150509250929050565b600080602083850312156200290a57600080fd5b823567ffffffffffffffff8111156200292257600080fd5b62002930858286016200281b565b90969095509350505050565b6000602082840312156200294f57600080fd5b813561ffff811681146200087c57600080fd5b600080604083850312156200297657600080fd5b620029818362002701565b9150620029916020840162002701565b90509250929050565b600181811c90821680620029af57607f821691505b602082108103620029d057634e487b7160e01b600052602260045260246000fd5b50919050565b6020808252818101527f4f776e61626c653a2063616c6c6572206973206e6f7420746865206f776e6572604082015260600190565b60006020828403121562002a1e57600080fd5b81516200087c816200274b565b60006020828403121562002a3e57600080fd5b5051919050565b634e487b7160e01b600052601160045260246000fd5b80820180821115620007aa57620007aa62002a45565b634e487b7160e01b600052603260045260246000fd5b60006001820162002a9c5762002a9c62002a45565b5060010190565b60208082528181018390526000908460408401835b8681101562002ae8576001600160a01b0362002ad48462002701565b168252918301919083019060010162002ab8565b509695505050505050565b60006040820160018060a01b03808616845260206040818601528286548085526060870191508760005282600020945060005b8181101562002b4657855485168352600195860195928401920162002b26565b509098975050505050505050565b81810381811115620007aa57620007aa62002a45565b6000825162002b7e818460208701620026a6565b919091019291505056fe60e06040526000805461ffff60a01b1916601960a21b1790553480156200002557600080fd5b50604051620024b5380380620024b58339810160408190526200004891620003c3565b848383620000563362000356565b6001600160a01b0383166200007e5760405163d92e233d60e01b815260040160405180910390fd5b6001600160a01b038216620000a65760405163d92e233d60e01b815260040160405180910390fd5b6001600160a01b038116620000ce5760405163d92e233d60e01b815260040160405180910390fd5b6001600160a01b03838116608081905283821660a081905291831660c05260405163095ea7b360e01b81526004810191909152600019602482015263095ea7b3906044016020604051808303816000875af115801562000132573d6000803e3d6000fd5b505050506040513d601f19601f8201168201806040525081019062000158919062000433565b5050506001600160a01b0385169050620001855760405163d92e233d60e01b815260040160405180910390fd5b6001600160a01b038116620001ad5760405163d92e233d60e01b815260040160405180910390fd5b600180546001600160a01b03199081166001600160a01b03878116918217909355600280549092168484161790915560405163095ea7b360e01b8152918716600483015260001960248301529063095ea7b3906044016020604051808303816000875af115801562000223573d6000803e3d6000fd5b505050506040513d601f19601f8201168201806040525081019062000249919062000433565b5060a0516001600160a01b031663095ea7b3600260009054906101000a90046001600160a01b03166001600160a01b031663fa6db1bc6040518163ffffffff1660e01b8152600401602060405180830381865afa158015620002af573d6000803e3d6000fd5b505050506040513d601f19601f82011682018060405250810190620002d591906200045e565b6040516001600160e01b031960e084901b1681526001600160a01b03909116600482015260001960248201526044016020604051808303816000875af115801562000324573d6000803e3d6000fd5b505050506040513d601f19601f820116820180604052508101906200034a919062000433565b5050505050506200047c565b600080546001600160a01b038381166001600160a01b0319831681178455604051919092169283917f8be0079c531659141344cd1fd0a4f28419497f9722a3daafe3b4186f6b6457e09190a35050565b80516001600160a01b0381168114620003be57600080fd5b919050565b600080600080600060a08688031215620003dc57600080fd5b620003e786620003a6565b9450620003f760208701620003a6565b93506200040760408701620003a6565b92506200041760608701620003a6565b91506200042760808701620003a6565b90509295509295909350565b6000602082840312156200044657600080fd5b815180151581146200045757600080fd5b9392505050565b6000602082840312156200047157600080fd5b6200045782620003a6565b60805160a05160c051611f6162000554600039600081816101d10152818161179f015261182701526000818161031c015281816108b5015281816109a901528181610a1e01528181610bbf01528181610dac015281816113b0015281816114e5015281816116d801526117600152600081816102e80152818161043d01528181610535015281816105e101528181610658015281816106e201528181610bff01528181610e9601528181610f100152818161115501528181611200015281816112880152818161138001526114640152611f616000f3fe6080604052600436106101235760003560e01c80638da5cb5b116100a0578063a697015411610064578063a69701541461037e578063ab37fbb71461039e578063bf33a1f5146103be578063f27d1214146103d3578063f2fde38b146103e857600080fd5b80638da5cb5b146102b8578063963d7e91146102d6578063969066be1461030a578063977b91d71461033e578063a30272711461035e57600080fd5b8063578c71d9116100e7578063578c71d9146102135780635a3bb989146102355780636e553f6514610255578063715018a614610283578063770540681461029857600080fd5b80631171bda91461012f5780631afe84c814610151578063249d39e914610196578063318d494e146101bf57806352701536146101f357600080fd5b3661012a57005b600080fd5b34801561013b57600080fd5b5061014f61014a366004611bd0565b610408565b005b34801561015d57600080fd5b50610179739e295b5b976a184b14ad8cd72413ad846c29966081565b6040516001600160a01b0390911681526020015b60405180910390f35b3480156101a257600080fd5b506101ac61271081565b60405161ffff909116815260200161018d565b3480156101cb57600080fd5b506101797f000000000000000000000000000000000000000000000000000000000000000081565b3480156101ff57600080fd5b5061014f61020e366004611c27565b6104f3565b34801561021f57600080fd5b506000546101ac90600160a01b900461ffff1681565b34801561024157600080fd5b50600254610179906001600160a01b031681565b34801561026157600080fd5b50610275610270366004611d01565b610b66565b60405190815260200161018d565b34801561028f57600080fd5b5061014f610fe6565b3480156102a457600080fd5b5061014f6102b3366004611d31565b61101c565b3480156102c457600080fd5b506000546001600160a01b0316610179565b3480156102e257600080fd5b506101797f000000000000000000000000000000000000000000000000000000000000000081565b34801561031657600080fd5b506101797f000000000000000000000000000000000000000000000000000000000000000081565b34801561034a57600080fd5b5061014f610359366004611d31565b61109b565b34801561036a57600080fd5b50600154610179906001600160a01b031681565b34801561038a57600080fd5b5061014f610399366004611d31565b611113565b3480156103aa57600080fd5b5061014f6103b9366004611d4e565b6112ef565b3480156103ca57600080fd5b5061014f611369565b3480156103df57600080fd5b5061014f61144a565b3480156103f457600080fd5b5061014f610403366004611d31565b6115bd565b6000546001600160a01b0316331461043b5760405162461bcd60e51b815260040161043290611d72565b60405180910390fd5b7f00000000000000000000000000000000000000000000000000000000000000006001600160a01b0316826001600160a01b03160361048d5760405163118539e960e01b815260040160405180910390fd5b6104a16001600160a01b0383168483611658565b816001600160a01b0316836001600160a01b03167faca8fb252cde442184e5f10e0f2e6e4029e8cd7717cae63559079610702436aa836040516104e691815260200190565b60405180910390a3505050565b6000546001600160a01b0316331461051d5760405162461bcd60e51b815260040161043290611d72565b6040516370a0823160e01b81523060048201526000907f00000000000000000000000000000000000000000000000000000000000000006001600160a01b0316906370a0823190602401602060405180830381865afa158015610584573d6000803e3d6000fd5b505050506040513d601f19601f820116820180604052508101906105a89190611da7565b9050806000036105cb5760405163c945242d60e01b815260040160405180910390fd5b604051632e1a7d4d60e01b8152600481018290527f00000000000000000000000000000000000000000000000000000000000000006001600160a01b031690632e1a7d4d90602401600060405180830381600087803b15801561062d57600080fd5b505af1158015610641573d6000803e3d6000fd5b50506040516370a0823160e01b81523060048201527f00000000000000000000000000000000000000000000000000000000000000006001600160a01b031692506370a082319150602401602060405180830381865afa1580156106a9573d6000803e3d6000fd5b505050506040513d601f19601f820116820180604052508101906106cd9190611da7565b90508015610709576107096001600160a01b037f0000000000000000000000000000000000000000000000000000000000000000168483611658565b6040516370a0823160e01b8152306004820152600090739e295b5b976a184b14ad8cd72413ad846c299660906370a0823190602401602060405180830381865afa15801561075b573d6000803e3d6000fd5b505050506040513d601f19601f8201168201806040525081019061077f9190611da7565b90506000600260009054906101000a90046001600160a01b03166001600160a01b031663fa6db1bc6040518163ffffffff1660e01b8152600401602060405180830381865afa1580156107d6573d6000803e3d6000fd5b505050506040513d601f19601f820116820180604052508101906107fa9190611dc0565b60405163e245b5af60e01b8152600160048201526001600160a01b03919091169063e245b5af90602401602060405180830381865afa158015610841573d6000803e3d6000fd5b505050506040513d601f19601f820116820180604052508101906108659190611da7565b9050600069d3c21bcecceda1000000610886670de0b6b3a764000084611df3565b6108909085611e15565b61089a9190611df3565b6002546000549192506001600160a01b031690630f3aa554907f0000000000000000000000000000000000000000000000000000000000000000908690612710906108f090600160a01b900461ffff1682611e32565b6108fe9061ffff1687611e15565b6109089190611df3565b6040516001600160e01b031960e086901b1681526001600160a01b039093166004840152602483019190915260448201523360648201526084016020604051808303816000875af1158015610961573d6000803e3d6000fd5b505050506040513d601f19601f820116820180604052508101906109859190611da7565b506040516370a0823160e01b8152306004820152610a459033906001600160a01b037f000000000000000000000000000000000000000000000000000000000000000016906370a0823190602401602060405180830381865afa1580156109f0573d6000803e3d6000fd5b505050506040513d601f19601f82011682018060405250810190610a149190611da7565b6001600160a01b037f0000000000000000000000000000000000000000000000000000000000000000169190611658565b84518015610b185760005b81811015610b16576000878281518110610a6c57610a6c611e54565b60209081029190910101516040516370a0823160e01b81523060048201529091506000906001600160a01b038316906370a0823190602401602060405180830381865afa158015610ac1573d6000803e3d6000fd5b505050506040513d601f19601f82011682018060405250810190610ae59190611da7565b90508015610b0157610b016001600160a01b0383163383611658565b50508080610b0e90611e6a565b915050610a50565b505b610b21876116c0565b6040516001600160a01b03881681527fd8dee34af5e5ded011300c086d6f9738abc8a1362f5a4c27eb0b5f5d9efd6add9060200160405180910390a150505050505050565b600080546001600160a01b03163314610b915760405162461bcd60e51b815260040161043290611d72565b82600003610bb257604051635972996f60e11b815260040160405180910390fd5b610be76001600160a01b037f0000000000000000000000000000000000000000000000000000000000000000163330866118ce565b6040516370a0823160e01b81523060048201526000907f00000000000000000000000000000000000000000000000000000000000000006001600160a01b0316906370a0823190602401602060405180830381865afa158015610c4e573d6000803e3d6000fd5b505050506040513d601f19601f82011682018060405250810190610c729190611da7565b90506000600260009054906101000a90046001600160a01b03166001600160a01b031663fa6db1bc6040518163ffffffff1660e01b8152600401602060405180830381865afa158015610cc9573d6000803e3d6000fd5b505050506040513d601f19601f82011682018060405250810190610ced9190611dc0565b60405163e245b5af60e01b8152600160048201526001600160a01b03919091169063e245b5af90602401602060405180830381865afa158015610d34573d6000803e3d6000fd5b505050506040513d601f19601f82011682018060405250810190610d589190611da7565b9050600081610d6f87670de0b6b3a7640000611e15565b610d799190611df3565b610d8d9069d3c21bcecceda1000000611e15565b60025460008054929350916001600160a01b039091169063364e2311907f0000000000000000000000000000000000000000000000000000000000000000908a90859061271090610de990600160a01b900461ffff1682611e32565b610df79061ffff1689611e15565b610e019190611df3565b6040516001600160e01b031960e087901b1681526001600160a01b0390941660048501526024840192909252604483015260648201526084016020604051808303816000875af1158015610e59573d6000803e3d6000fd5b505050506040513d601f19601f82011682018060405250810190610e7d9190611da7565b60405163b6b55f2560e01b8152600481018290529091507f00000000000000000000000000000000000000000000000000000000000000006001600160a01b03169063b6b55f2590602401600060405180830381600087803b158015610ee257600080fd5b505af1158015610ef6573d6000803e3d6000fd5b50506040516370a0823160e01b81523060048201528692507f00000000000000000000000000000000000000000000000000000000000000006001600160a01b031691506370a0823190602401602060405180830381865afa158015610f60573d6000803e3d6000fd5b505050506040513d601f19601f82011682018060405250810190610f849190611da7565b610f8e9190611e83565b9450610f99866116c0565b856001600160a01b03167fd6dd599afd391d71910ff05250361e65405a896dc557e4e7bf5190b5abbb381688604051610fd491815260200190565b60405180910390a25050505092915050565b6000546001600160a01b031633146110105760405162461bcd60e51b815260040161043290611d72565b61101a6000611906565b565b6000546001600160a01b031633146110465760405162461bcd60e51b815260040161043290611d72565b600180546001600160a01b0319166001600160a01b0383169081179091556040519081527fd844f74196477aa31314eb2e4779aa16816bb19141ec64e6167696b2c68c908b906020015b60405180910390a150565b6000546001600160a01b031633146110c55760405162461bcd60e51b815260040161043290611d72565b600280546001600160a01b0319166001600160a01b0383169081179091556040519081527f37151257d8200a9481b623b7ea8cde3f94b92d731cda548bd5fbf63cc87db28c90602001611090565b6000546001600160a01b0316331461113d5760405162461bcd60e51b815260040161043290611d72565b6040516370a0823160e01b81523060048201526000907f00000000000000000000000000000000000000000000000000000000000000006001600160a01b0316906370a0823190602401602060405180830381865afa1580156111a4573d6000803e3d6000fd5b505050506040513d601f19601f820116820180604052508101906111c89190611da7565b9050806000036111eb5760405163c945242d60e01b815260040160405180910390fd5b6040516370a0823160e01b81523060048201527f00000000000000000000000000000000000000000000000000000000000000006001600160a01b0316906370a0823190602401602060405180830381865afa15801561124f573d6000803e3d6000fd5b505050506040513d601f19601f820116820180604052508101906112739190611da7565b905080156112af576112af6001600160a01b037f0000000000000000000000000000000000000000000000000000000000000000168383611658565b6040516001600160a01b03831681527fd8dee34af5e5ded011300c086d6f9738abc8a1362f5a4c27eb0b5f5d9efd6add9060200160405180910390a15050565b6000546001600160a01b031633146113195760405162461bcd60e51b815260040161043290611d72565b6000805461ffff60a01b1916600160a01b61ffff8416908102919091179091556040519081527f1a89170b7100a37f2e1a8bca9d866cd3f6d666800bfb0fa8dd82f0b2193c926f90602001611090565b60405163095ea7b360e01b81526001600160a01b037f00000000000000000000000000000000000000000000000000000000000000008116600483015260001960248301527f0000000000000000000000000000000000000000000000000000000000000000169063095ea7b3906044015b6020604051808303816000875af11580156113fa573d6000803e3d6000fd5b505050506040513d601f19601f8201168201806040525081019061141e9190611e96565b506040517f3aea0c7f8169b9836e3c3e201cc5e2994baa61ae616cd0681a60ae7c9df9c9a690600090a1565b60015460405163095ea7b360e01b81526001600160a01b037f00000000000000000000000000000000000000000000000000000000000000008116600483015260001960248301529091169063095ea7b3906044016020604051808303816000875af11580156114be573d6000803e3d6000fd5b505050506040513d601f19601f820116820180604052508101906114e29190611e96565b507f00000000000000000000000000000000000000000000000000000000000000006001600160a01b031663095ea7b3600260009054906101000a90046001600160a01b03166001600160a01b031663fa6db1bc6040518163ffffffff1660e01b8152600401602060405180830381865afa158015611565573d6000803e3d6000fd5b505050506040513d601f19601f820116820180604052508101906115899190611dc0565b6040516001600160e01b031960e084901b1681526001600160a01b03909116600482015260001960248201526044016113db565b6000546001600160a01b031633146115e75760405162461bcd60e51b815260040161043290611d72565b6001600160a01b03811661164c5760405162461bcd60e51b815260206004820152602660248201527f4f776e61626c653a206e6577206f776e657220697320746865207a65726f206160448201526564647265737360d01b6064820152608401610432565b61165581611906565b50565b6040516001600160a01b0383166024820152604481018290526116bb90849063a9059cbb60e01b906064015b60408051601f198184030181529190526020810180516001600160e01b03166001600160e01b031990931692909217909152611956565b505050565b6040516370a0823160e01b81523060048201526000907f00000000000000000000000000000000000000000000000000000000000000006001600160a01b0316906370a0823190602401602060405180830381865afa158015611727573d6000803e3d6000fd5b505050506040513d601f19601f8201168201806040525081019061174b9190611da7565b90508015611787576117876001600160a01b037f0000000000000000000000000000000000000000000000000000000000000000163383611658565b6040516370a0823160e01b81523060048201526000907f00000000000000000000000000000000000000000000000000000000000000006001600160a01b0316906370a0823190602401602060405180830381865afa1580156117ee573d6000803e3d6000fd5b505050506040513d601f19601f820116820180604052508101906118129190611da7565b9050801561184e5761184e6001600160a01b037f0000000000000000000000000000000000000000000000000000000000000000168483611658565b47156116bb576000836001600160a01b03164760405160006040518083038185875af1925050503d80600081146118a1576040519150601f19603f3d011682016040523d82523d6000602084013e6118a6565b606091505b50509050806118c857604051631d73cefb60e31b815260040160405180910390fd5b50505050565b6040516001600160a01b03808516602483015283166044820152606481018290526118c89085906323b872dd60e01b90608401611684565b600080546001600160a01b038381166001600160a01b0319831681178455604051919092169283917f8be0079c531659141344cd1fd0a4f28419497f9722a3daafe3b4186f6b6457e09190a35050565b60006119ab826040518060400160405280602081526020017f5361666545524332303a206c6f772d6c6576656c2063616c6c206661696c6564815250856001600160a01b0316611a289092919063ffffffff16565b8051909150156116bb57808060200190518101906119c99190611e96565b6116bb5760405162461bcd60e51b815260206004820152602a60248201527f5361666545524332303a204552433230206f7065726174696f6e20646964206e6044820152691bdd081cdd58d8d9595960b21b6064820152608401610432565b6060611a378484600085611a41565b90505b9392505050565b606082471015611aa25760405162461bcd60e51b815260206004820152602660248201527f416464726573733a20696e73756666696369656e742062616c616e636520666f6044820152651c8818d85b1b60d21b6064820152608401610432565b6001600160a01b0385163b611af95760405162461bcd60e51b815260206004820152601d60248201527f416464726573733a2063616c6c20746f206e6f6e2d636f6e74726163740000006044820152606401610432565b600080866001600160a01b03168587604051611b159190611edc565b60006040518083038185875af1925050503d8060008114611b52576040519150601f19603f3d011682016040523d82523d6000602084013e611b57565b606091505b5091509150611b67828286611b72565b979650505050505050565b60608315611b81575081611a3a565b825115611b915782518084602001fd5b8160405162461bcd60e51b81526004016104329190611ef8565b6001600160a01b038116811461165557600080fd5b8035611bcb81611bab565b919050565b600080600060608486031215611be557600080fd5b8335611bf081611bab565b92506020840135611c0081611bab565b929592945050506040919091013590565b634e487b7160e01b600052604160045260246000fd5b60008060408385031215611c3a57600080fd5b8235611c4581611bab565b915060208381013567ffffffffffffffff80821115611c6357600080fd5b818601915086601f830112611c7757600080fd5b813581811115611c8957611c89611c11565b8060051b604051601f19603f83011681018181108582111715611cae57611cae611c11565b604052918252848201925083810185019189831115611ccc57600080fd5b938501935b82851015611cf157611ce285611bc0565b84529385019392850192611cd1565b8096505050505050509250929050565b60008060408385031215611d1457600080fd5b823591506020830135611d2681611bab565b809150509250929050565b600060208284031215611d4357600080fd5b8135611a3a81611bab565b600060208284031215611d6057600080fd5b813561ffff81168114611a3a57600080fd5b6020808252818101527f4f776e61626c653a2063616c6c6572206973206e6f7420746865206f776e6572604082015260600190565b600060208284031215611db957600080fd5b5051919050565b600060208284031215611dd257600080fd5b8151611a3a81611bab565b634e487b7160e01b600052601160045260246000fd5b600082611e1057634e487b7160e01b600052601260045260246000fd5b500490565b8082028115828204841417611e2c57611e2c611ddd565b92915050565b61ffff828116828216039080821115611e4d57611e4d611ddd565b5092915050565b634e487b7160e01b600052603260045260246000fd5b600060018201611e7c57611e7c611ddd565b5060010190565b81810381811115611e2c57611e2c611ddd565b600060208284031215611ea857600080fd5b81518015158114611a3a57600080fd5b60005b83811015611ed3578181015183820152602001611ebb565b50506000910152565b60008251611eee818460208701611eb8565b9190910192915050565b6020815260008251806020840152611f17816040850160208701611eb8565b601f01601f1916919091016040019291505056fea26469706673582212200cb1d5b538ec45c97a2651fcff4d01442d1ef5a009ffc0b9a1cd77316958e6c864736f6c63430008150033a26469706673582212202fe110dbcfd0568f14c8ac09baf03a615e7b464484db6014ace44300dfc9779664736f6c63430008150033",
  "devdoc": {
    "events": {
      "Approval(address,address,uint256)": {
        "details": "Emitted when the allowance of a `spender` for an `owner` is set by a call to {approve}. `value` is the new allowance."
      },
      "Transfer(address,address,uint256)": {
        "details": "Emitted when `value` tokens are moved from one account (`from`) to another (`to`). Note that `value` may be zero."
      }
    },
    "kind": "dev",
    "methods": {
      "allowance(address,address)": {
        "details": "See {IERC20-allowance}."
      },
      "approve(address,uint256)": {
        "details": "See {IERC20-approve}. NOTE: If `amount` is the maximum `uint256`, the allowance is not updated on `transferFrom`. This is semantically equivalent to an infinite approval. Requirements: - `spender` cannot be the zero address."
      },
      "balanceOf(address)": {
        "details": "See {IERC20-balanceOf}."
      },
      "decimals()": {
        "details": "Returns the number of decimals used to get its user representation. For example, if `decimals` equals `2`, a balance of `505` tokens should be displayed to a user as `5.05` (`505 / 10 ** 2`). Tokens usually opt for a value of 18, imitating the relationship between Ether and Wei. This is the value {ERC20} uses, unless this function is overridden; NOTE: This information is only used for _display_ purposes: it in no way affects any of the arithmetic of the contract, including {IERC20-balanceOf} and {IERC20-transfer}."
      },
      "decreaseAllowance(address,uint256)": {
        "details": "Atomically decreases the allowance granted to `spender` by the caller. This is an alternative to {approve} that can be used as a mitigation for problems described in {IERC20-approve}. Emits an {Approval} event indicating the updated allowance. Requirements: - `spender` cannot be the zero address. - `spender` must have allowance for the caller of at least `subtractedValue`."
      },
      "depositToFortress(uint256,address,uint256)": {
        "details": "If a user has not deposited previously, this function will deploy a FortiFiVectorFortress contract instead of the base FortiFiFortress contract"
      },
      "increaseAllowance(address,uint256)": {
        "details": "Atomically increases the allowance granted to `spender` by the caller. This is an alternative to {approve} that can be used as a mitigation for problems described in {IERC20-approve}. Emits an {Approval} event indicating the updated allowance. Requirements: - `spender` cannot be the zero address."
      },
      "name()": {
        "details": "Returns the name of the token."
      },
      "owner()": {
        "details": "Returns the address of the current owner."
      },
      "renounceOwnership()": {
        "details": "Leaves the contract without owner. It will not be possible to call `onlyOwner` functions anymore. Can only be called by the current owner. NOTE: Renouncing ownership will leave the contract without an owner, thereby removing any functionality that is only available to the owner."
      },
      "setRewardRouterForFortresses(address[])": {
        "details": "This function uses the address of the current rewardRouter variable for strategy. Update that first if necessary."
      },
      "setStakedGlpForFortresses(address[])": {
        "details": "This function uses the address of the current stakedGLP variable for strategy. Update that first if necessary."
      },
      "symbol()": {
        "details": "Returns the symbol of the token, usually a shorter version of the name."
      },
      "totalSupply()": {
        "details": "See {IERC20-totalSupply}."
      },
      "transfer(address,uint256)": {
        "details": "See {IERC20-transfer}. Requirements: - `to` cannot be the zero address. - the caller must have a balance of at least `amount`."
      },
      "transferFrom(address,address,uint256)": {
        "details": "See {IERC20-transferFrom}. Emits an {Approval} event indicating the updated allowance. This is not required by the EIP. See the note at the beginning of {ERC20}. NOTE: Does not update the allowance if the current allowance is the maximum `uint256`. Requirements: - `from` and `to` cannot be the zero address. - `from` must have a balance of at least `amount`. - the caller must have allowance for ``from``'s tokens of at least `amount`."
      },
      "transferOwnership(address)": {
        "details": "Transfers ownership of the contract to a new account (`newOwner`). Can only be called by the current owner."
      },
      "withdrawFromFortress(uint256,address,uint256)": {
        "details": "Override is required because Vector Fortresses need slippage passed in to withdrawal function"
      }
    },
    "title": "GLP FortiFi Strategy contract",
    "version": 1
  },
  "userdoc": {
    "errors": {
      "InvalidDeposit()": [
        {
          "notice": "Error caused by trying to deposit 0"
        }
      ],
      "InvalidSlippage()": [
        {
          "notice": "Error caused when trying to set slippage to invalid value"
        }
      ],
      "InvalidVaultImplementation()": [
        {
          "notice": "Error when vault does not implement ISAMS or IMASS interface (0xafba703c)"
        }
      ],
      "InvalidWithdrawal()": [
        {
          "notice": "Error caused by trying to withdraw 0"
        }
      ],
      "NoFortress()": [
        {
          "notice": "Error caused when trying to withdraw from non-existent fortress"
        }
      ],
      "StrategyBricked()": [
        {
          "notice": "Error caused when trying to deposit to bricked strategy"
        }
      ],
      "ZeroAddress()": [
        {
          "notice": "Error caused by using 0 address as a parameter"
        }
      ]
    },
    "kind": "user",
    "methods": {
      "depositToFortress(uint256,address,uint256)": {
        "notice": "Function to deposit"
      },
      "recoverERC20(address,uint256)": {
        "notice": "Emergency function to recover stuck tokens"
      },
      "recoverFromFortress(address,address,uint256)": {
        "notice": "Emergency function to recover stuck tokens from Fortress"
      },
      "setExtraTokens(address[])": {
        "notice": "Set extra reward tokens for strategy"
      },
      "setFeeCalculator(address)": {
        "notice": "Function to set new FortiFiFeeCalculator contract"
      },
      "setFeeManager(address)": {
        "notice": "Function to set new FortiFiFeeManager contract"
      },
      "setGlpRewardRouter(address)": {
        "notice": "Function to set the GLP Reward Manager"
      },
      "setRewardRouterForFortresses(address[])": {
        "notice": "Function to set the GLP Reward Router Contract in FortiFiGLPFortress contracts. "
      },
      "setSlippage(uint16)": {
        "notice": "Function to set the slippage if 1% is not sufficient"
      },
      "setSlippageForFortresses(address[],uint256)": {
        "notice": "Function to set slippage for FortiFiFortress contracts"
      },
      "setStakedGlp(address)": {
        "notice": "Function to set the Staked GLP Contract"
      },
      "setStakedGlpForFortresses(address[])": {
        "notice": "Function to set the Staked GLP Contract in FortiFiGLPFortress contracts. "
      },
      "setStrategyBricked(bool)": {
        "notice": "Set strategy as bricked"
      },
      "setVault(address,bool)": {
        "notice": "Set valid vaults"
      },
      "withdrawFromFortress(uint256,address,uint256)": {
        "notice": "Function to withdraw"
      }
    },
    "notice": "This contract allows for FortiFi vaults to utilize GLP strategies by minting GLP with USDC and depositing into a  simple vault like Yield Yak",
    "version": 1
  },
  "storageLayout": {
    "storage": [
      {
        "astId": 7,
        "contract": "contracts/strategies/FortiFiGLPStrategy.sol:FortiFiGLPStrategy",
        "label": "_owner",
        "offset": 0,
        "slot": "0",
        "type": "t_address"
      },
      {
        "astId": 120,
        "contract": "contracts/strategies/FortiFiGLPStrategy.sol:FortiFiGLPStrategy",
        "label": "_balances",
        "offset": 0,
        "slot": "1",
        "type": "t_mapping(t_address,t_uint256)"
      },
      {
        "astId": 126,
        "contract": "contracts/strategies/FortiFiGLPStrategy.sol:FortiFiGLPStrategy",
        "label": "_allowances",
        "offset": 0,
        "slot": "2",
        "type": "t_mapping(t_address,t_mapping(t_address,t_uint256))"
      },
      {
        "astId": 128,
        "contract": "contracts/strategies/FortiFiGLPStrategy.sol:FortiFiGLPStrategy",
        "label": "_totalSupply",
        "offset": 0,
        "slot": "3",
        "type": "t_uint256"
      },
      {
        "astId": 130,
        "contract": "contracts/strategies/FortiFiGLPStrategy.sol:FortiFiGLPStrategy",
        "label": "_name",
        "offset": 0,
        "slot": "4",
        "type": "t_string_storage"
      },
      {
        "astId": 132,
        "contract": "contracts/strategies/FortiFiGLPStrategy.sol:FortiFiGLPStrategy",
        "label": "_symbol",
        "offset": 0,
        "slot": "5",
        "type": "t_string_storage"
      },
      {
        "astId": 3094,
        "contract": "contracts/strategies/FortiFiGLPStrategy.sol:FortiFiGLPStrategy",
        "label": "strategyIsBricked",
        "offset": 0,
        "slot": "6",
        "type": "t_bool"
      },
      {
        "astId": 3100,
        "contract": "contracts/strategies/FortiFiGLPStrategy.sol:FortiFiGLPStrategy",
        "label": "feeCalc",
        "offset": 1,
        "slot": "6",
        "type": "t_contract(IFortiFiFeeCalculator)1349"
      },
      {
        "astId": 3103,
        "contract": "contracts/strategies/FortiFiGLPStrategy.sol:FortiFiGLPStrategy",
        "label": "feeMgr",
        "offset": 0,
        "slot": "7",
        "type": "t_contract(IFortiFiFeeManager)1360"
      },
      {
        "astId": 3106,
        "contract": "contracts/strategies/FortiFiGLPStrategy.sol:FortiFiGLPStrategy",
        "label": "extraTokens",
        "offset": 0,
        "slot": "8",
        "type": "t_array(t_address)dyn_storage"
      },
      {
        "astId": 3110,
        "contract": "contracts/strategies/FortiFiGLPStrategy.sol:FortiFiGLPStrategy",
        "label": "isFortiFiVault",
        "offset": 0,
        "slot": "9",
        "type": "t_mapping(t_address,t_bool)"
      },
      {
        "astId": 3116,
        "contract": "contracts/strategies/FortiFiGLPStrategy.sol:FortiFiGLPStrategy",
        "label": "vaultToTokenToFortress",
        "offset": 0,
        "slot": "10",
        "type": "t_mapping(t_address,t_mapping(t_uint256,t_address))"
      },
      {
        "astId": 2480,
        "contract": "contracts/strategies/FortiFiGLPStrategy.sol:FortiFiGLPStrategy",
        "label": "slippageBps",
        "offset": 0,
        "slot": "11",
        "type": "t_uint16"
      },
      {
        "astId": 2486,
        "contract": "contracts/strategies/FortiFiGLPStrategy.sol:FortiFiGLPStrategy",
        "label": "stakedGLP",
        "offset": 2,
        "slot": "11",
        "type": "t_address"
      },
      {
        "astId": 2489,
        "contract": "contracts/strategies/FortiFiGLPStrategy.sol:FortiFiGLPStrategy",
        "label": "rewardRouter",
        "offset": 0,
        "slot": "12",
        "type": "t_address"
      }
    ],
    "types": {
      "t_address": {
        "encoding": "inplace",
        "label": "address",
        "numberOfBytes": "20"
      },
      "t_array(t_address)dyn_storage": {
        "base": "t_address",
        "encoding": "dynamic_array",
        "label": "address[]",
        "numberOfBytes": "32"
      },
      "t_bool": {
        "encoding": "inplace",
        "label": "bool",
        "numberOfBytes": "1"
      },
      "t_contract(IFortiFiFeeCalculator)1349": {
        "encoding": "inplace",
        "label": "contract IFortiFiFeeCalculator",
        "numberOfBytes": "20"
      },
      "t_contract(IFortiFiFeeManager)1360": {
        "encoding": "inplace",
        "label": "contract IFortiFiFeeManager",
        "numberOfBytes": "20"
      },
      "t_mapping(t_address,t_bool)": {
        "encoding": "mapping",
        "key": "t_address",
        "label": "mapping(address => bool)",
        "numberOfBytes": "32",
        "value": "t_bool"
      },
      "t_mapping(t_address,t_mapping(t_address,t_uint256))": {
        "encoding": "mapping",
        "key": "t_address",
        "label": "mapping(address => mapping(address => uint256))",
        "numberOfBytes": "32",
        "value": "t_mapping(t_address,t_uint256)"
      },
      "t_mapping(t_address,t_mapping(t_uint256,t_address))": {
        "encoding": "mapping",
        "key": "t_address",
        "label": "mapping(address => mapping(uint256 => address))",
        "numberOfBytes": "32",
        "value": "t_mapping(t_uint256,t_address)"
      },
      "t_mapping(t_address,t_uint256)": {
        "encoding": "mapping",
        "key": "t_address",
        "label": "mapping(address => uint256)",
        "numberOfBytes": "32",
        "value": "t_uint256"
      },
      "t_mapping(t_uint256,t_address)": {
        "encoding": "mapping",
        "key": "t_uint256",
        "label": "mapping(uint256 => address)",
        "numberOfBytes": "32",
        "value": "t_address"
      },
      "t_string_storage": {
        "encoding": "bytes",
        "label": "string",
        "numberOfBytes": "32"
      },
      "t_uint16": {
        "encoding": "inplace",
        "label": "uint16",
        "numberOfBytes": "2"
      },
      "t_uint256": {
        "encoding": "inplace",
        "label": "uint256",
        "numberOfBytes": "32"
      }
    }
  }
}