{
  "address": "0x8f4086F1BDb412723B45Ed78676A49de3cd5a13F",
  "abi": [
    {
      "inputs": [
        {
          "internalType": "address",
          "name": "_token",
          "type": "address"
        },
        {
          "internalType": "address",
          "name": "_feed",
          "type": "address"
        }
      ],
      "stateMutability": "nonpayable",
      "type": "constructor"
    },
    {
      "inputs": [],
      "name": "InvalidPrice",
      "type": "error"
    },
    {
      "inputs": [],
      "name": "StalePrice",
      "type": "error"
    },
    {
      "inputs": [],
      "name": "decimals",
      "outputs": [
        {
          "internalType": "uint8",
          "name": "",
          "type": "uint8"
        }
      ],
      "stateMutability": "view",
      "type": "function"
    },
    {
      "inputs": [],
      "name": "feed",
      "outputs": [
        {
          "internalType": "address",
          "name": "",
          "type": "address"
        }
      ],
      "stateMutability": "view",
      "type": "function"
    },
    {
      "inputs": [],
      "name": "getPrice",
      "outputs": [
        {
          "internalType": "uint256",
          "name": "",
          "type": "uint256"
        }
      ],
      "stateMutability": "view",
      "type": "function"
    },
    {
      "inputs": [],
      "name": "token",
      "outputs": [
        {
          "internalType": "address",
          "name": "",
          "type": "address"
        }
      ],
      "stateMutability": "view",
      "type": "function"
    }
  ],
  "transactionHash": "0xce1ddabdc9c95d36c8d7c4a8fcfdd7f6229f14d106c4283f48f9a0ff3fa4a1e3",
  "args": [
    "0x152b9d0FdC40C096757F570A51E494bd4b943E50",
    "0x2779D32d5166BAaa2B2b658333bA7e6Ec0C65743"
  ],
  "numDeployments": 2,
  "solcInputHash": "35515155b9fc8f1d7fd86cf51f1142dc",
  "bytecode": "0x60c060405234801561001057600080fd5b5060405161041a38038061041a83398101604081905261002f91610062565b6001600160a01b039182166080521660a052610095565b80516001600160a01b038116811461005d57600080fd5b919050565b6000806040838503121561007557600080fd5b61007e83610046565b915061008c60208401610046565b90509250929050565b60805160a0516103556100c56000396000818160750152818160f1015261017f0152600060ca01526103556000f3fe608060405234801561001057600080fd5b506004361061004c5760003560e01c8063313ce5671461005157806337a7b7d81461007057806398d5fdca146100af578063fc0c546a146100c5575b600080fd5b6100596100ec565b60405160ff90911681526020015b60405180910390f35b6100977f000000000000000000000000000000000000000000000000000000000000000081565b6040516001600160a01b039091168152602001610067565b6100b761017a565b604051908152602001610067565b6100977f000000000000000000000000000000000000000000000000000000000000000081565b6000807f00000000000000000000000000000000000000000000000000000000000000009050806001600160a01b031663313ce5676040518163ffffffff1660e01b8152600401602060405180830381865afa158015610150573d6000803e3d6000fd5b505050506040513d601f19601f82011682018060405250810190610174919061025f565b91505090565b6000807f00000000000000000000000000000000000000000000000000000000000000009050600080826001600160a01b031663feaf968c6040518163ffffffff1660e01b815260040160a060405180830381865afa1580156101e1573d6000803e3d6000fd5b505050506040513d601f19601f8201168201806040525081019061020591906102a8565b509350509250506000821361022c5760405162bfc92160e01b815260040160405180910390fd5b610238611194426102f8565b81101561025857604051630cd5fa0760e11b815260040160405180910390fd5b5092915050565b60006020828403121561027157600080fd5b815160ff8116811461028257600080fd5b9392505050565b805169ffffffffffffffffffff811681146102a357600080fd5b919050565b600080600080600060a086880312156102c057600080fd5b6102c986610289565b94506020860151935060408601519250606086015191506102ec60808701610289565b90509295509295909350565b8181038181111561031957634e487b7160e01b600052601160045260246000fd5b9291505056fea2646970667358221220f22c20ccc089ec0ffcb9473447b84f0dd2244376d84854b87db573cc46a221ad64736f6c63430008150033",
  "devdoc": {
    "kind": "dev",
    "methods": {},
    "title": "FortiFiPriceOracle",
    "version": 1
  },
  "userdoc": {
    "errors": {
      "InvalidPrice()": [
        {
          "notice": "Error caused by negative price returned from oracle"
        }
      ],
      "StalePrice()": [
        {
          "notice": "Error caused by stale price returned from oracle"
        }
      ]
    },
    "kind": "user",
    "methods": {},
    "notice": "This contract is used as a flexible interface to provide prices to FortiFiMASSVault implementations. This base version is meant to use Chainlink on-chain price feeds, and can be inherited and modified to  support other oracles.",
    "version": 1
  },
  "storageLayout": {
    "storage": [],
    "types": null
  }
}