{
  "address": "0x26585c835227aB31b00D1e696bfd2318004ed414",
  "abi": [
    {
      "inputs": [
        {
          "internalType": "string",
          "name": "_name",
          "type": "string"
        },
        {
          "internalType": "string",
          "name": "_symbol",
          "type": "string"
        },
        {
          "internalType": "string",
          "name": "_metadata",
          "type": "string"
        },
        {
          "internalType": "address",
          "name": "_wrappedNative",
          "type": "address"
        },
        {
          "internalType": "address",
          "name": "_depositToken",
          "type": "address"
        },
        {
          "internalType": "address",
          "name": "_feeManager",
          "type": "address"
        },
        {
          "internalType": "address",
          "name": "_feeCalculator",
          "type": "address"
        },
        {
          "components": [
            {
              "internalType": "address",
              "name": "strategy",
              "type": "address"
            },
            {
              "internalType": "address",
              "name": "depositToken",
              "type": "address"
            },
            {
              "internalType": "address",
              "name": "router",
              "type": "address"
            },
            {
              "internalType": "address",
              "name": "oracle",
              "type": "address"
            },
            {
              "internalType": "bool",
              "name": "isFortiFi",
              "type": "bool"
            },
            {
              "internalType": "bool",
              "name": "isSAMS",
              "type": "bool"
            },
            {
              "internalType": "uint16",
              "name": "bps",
              "type": "uint16"
            },
            {
              "internalType": "uint8",
              "name": "decimals",
              "type": "uint8"
            }
          ],
          "internalType": "struct IMASS.Strategy[]",
          "name": "_strategies",
          "type": "tuple[]"
        }
      ],
      "stateMutability": "nonpayable",
      "type": "constructor"
    },
    {
      "anonymous": false,
      "inputs": [
        {
          "indexed": true,
          "internalType": "address",
          "name": "depositor",
          "type": "address"
        },
        {
          "indexed": true,
          "internalType": "uint256",
          "name": "tokenId",
          "type": "uint256"
        },
        {
          "indexed": false,
          "internalType": "uint256",
          "name": "amount",
          "type": "uint256"
        },
        {
          "components": [
            {
              "internalType": "uint256",
              "name": "deposit",
              "type": "uint256"
            },
            {
              "components": [
                {
                  "components": [
                    {
                      "internalType": "address",
                      "name": "strategy",
                      "type": "address"
                    },
                    {
                      "internalType": "address",
                      "name": "depositToken",
                      "type": "address"
                    },
                    {
                      "internalType": "address",
                      "name": "router",
                      "type": "address"
                    },
                    {
                      "internalType": "address",
                      "name": "oracle",
                      "type": "address"
                    },
                    {
                      "internalType": "bool",
                      "name": "isFortiFi",
                      "type": "bool"
                    },
                    {
                      "internalType": "bool",
                      "name": "isSAMS",
                      "type": "bool"
                    },
                    {
                      "internalType": "uint16",
                      "name": "bps",
                      "type": "uint16"
                    },
                    {
                      "internalType": "uint8",
                      "name": "decimals",
                      "type": "uint8"
                    }
                  ],
                  "internalType": "struct IMASS.Strategy",
                  "name": "strategy",
                  "type": "tuple"
                },
                {
                  "internalType": "uint256",
                  "name": "receipt",
                  "type": "uint256"
                }
              ],
              "internalType": "struct IMASS.Position[]",
              "name": "positions",
              "type": "tuple[]"
            }
          ],
          "indexed": false,
          "internalType": "struct IMASS.TokenInfo",
          "name": "tokenInfo",
          "type": "tuple"
        }
      ],
      "name": "Add",
      "type": "event"
    },
    {
      "anonymous": false,
      "inputs": [
        {
          "indexed": true,
          "internalType": "address",
          "name": "account",
          "type": "address"
        },
        {
          "indexed": true,
          "internalType": "address",
          "name": "operator",
          "type": "address"
        },
        {
          "indexed": false,
          "internalType": "bool",
          "name": "approved",
          "type": "bool"
        }
      ],
      "name": "ApprovalForAll",
      "type": "event"
    },
    {
      "anonymous": false,
      "inputs": [
        {
          "indexed": true,
          "internalType": "address",
          "name": "depositor",
          "type": "address"
        },
        {
          "indexed": true,
          "internalType": "uint256",
          "name": "tokenId",
          "type": "uint256"
        },
        {
          "indexed": false,
          "internalType": "uint256",
          "name": "amount",
          "type": "uint256"
        },
        {
          "components": [
            {
              "internalType": "uint256",
              "name": "deposit",
              "type": "uint256"
            },
            {
              "components": [
                {
                  "components": [
                    {
                      "internalType": "address",
                      "name": "strategy",
                      "type": "address"
                    },
                    {
                      "internalType": "address",
                      "name": "depositToken",
                      "type": "address"
                    },
                    {
                      "internalType": "address",
                      "name": "router",
                      "type": "address"
                    },
                    {
                      "internalType": "address",
                      "name": "oracle",
                      "type": "address"
                    },
                    {
                      "internalType": "bool",
                      "name": "isFortiFi",
                      "type": "bool"
                    },
                    {
                      "internalType": "bool",
                      "name": "isSAMS",
                      "type": "bool"
                    },
                    {
                      "internalType": "uint16",
                      "name": "bps",
                      "type": "uint16"
                    },
                    {
                      "internalType": "uint8",
                      "name": "decimals",
                      "type": "uint8"
                    }
                  ],
                  "internalType": "struct IMASS.Strategy",
                  "name": "strategy",
                  "type": "tuple"
                },
                {
                  "internalType": "uint256",
                  "name": "receipt",
                  "type": "uint256"
                }
              ],
              "internalType": "struct IMASS.Position[]",
              "name": "positions",
              "type": "tuple[]"
            }
          ],
          "indexed": false,
          "internalType": "struct IMASS.TokenInfo",
          "name": "tokenInfo",
          "type": "tuple"
        }
      ],
      "name": "Deposit",
      "type": "event"
    },
    {
      "anonymous": false,
      "inputs": [
        {
          "indexed": true,
          "internalType": "address",
          "name": "previousOwner",
          "type": "address"
        },
        {
          "indexed": true,
          "internalType": "address",
          "name": "newOwner",
          "type": "address"
        }
      ],
      "name": "OwnershipTransferred",
      "type": "event"
    },
    {
      "anonymous": false,
      "inputs": [
        {
          "indexed": true,
          "internalType": "uint256",
          "name": "tokenId",
          "type": "uint256"
        },
        {
          "indexed": false,
          "internalType": "uint256",
          "name": "amount",
          "type": "uint256"
        },
        {
          "components": [
            {
              "internalType": "uint256",
              "name": "deposit",
              "type": "uint256"
            },
            {
              "components": [
                {
                  "components": [
                    {
                      "internalType": "address",
                      "name": "strategy",
                      "type": "address"
                    },
                    {
                      "internalType": "address",
                      "name": "depositToken",
                      "type": "address"
                    },
                    {
                      "internalType": "address",
                      "name": "router",
                      "type": "address"
                    },
                    {
                      "internalType": "address",
                      "name": "oracle",
                      "type": "address"
                    },
                    {
                      "internalType": "bool",
                      "name": "isFortiFi",
                      "type": "bool"
                    },
                    {
                      "internalType": "bool",
                      "name": "isSAMS",
                      "type": "bool"
                    },
                    {
                      "internalType": "uint16",
                      "name": "bps",
                      "type": "uint16"
                    },
                    {
                      "internalType": "uint8",
                      "name": "decimals",
                      "type": "uint8"
                    }
                  ],
                  "internalType": "struct IMASS.Strategy",
                  "name": "strategy",
                  "type": "tuple"
                },
                {
                  "internalType": "uint256",
                  "name": "receipt",
                  "type": "uint256"
                }
              ],
              "internalType": "struct IMASS.Position[]",
              "name": "positions",
              "type": "tuple[]"
            }
          ],
          "indexed": false,
          "internalType": "struct IMASS.TokenInfo",
          "name": "tokenInfo",
          "type": "tuple"
        }
      ],
      "name": "Rebalance",
      "type": "event"
    },
    {
      "anonymous": false,
      "inputs": [
        {
          "indexed": true,
          "internalType": "address",
          "name": "operator",
          "type": "address"
        },
        {
          "indexed": true,
          "internalType": "address",
          "name": "from",
          "type": "address"
        },
        {
          "indexed": true,
          "internalType": "address",
          "name": "to",
          "type": "address"
        },
        {
          "indexed": false,
          "internalType": "uint256[]",
          "name": "ids",
          "type": "uint256[]"
        },
        {
          "indexed": false,
          "internalType": "uint256[]",
          "name": "values",
          "type": "uint256[]"
        }
      ],
      "name": "TransferBatch",
      "type": "event"
    },
    {
      "anonymous": false,
      "inputs": [
        {
          "indexed": true,
          "internalType": "address",
          "name": "operator",
          "type": "address"
        },
        {
          "indexed": true,
          "internalType": "address",
          "name": "from",
          "type": "address"
        },
        {
          "indexed": true,
          "internalType": "address",
          "name": "to",
          "type": "address"
        },
        {
          "indexed": false,
          "internalType": "uint256",
          "name": "id",
          "type": "uint256"
        },
        {
          "indexed": false,
          "internalType": "uint256",
          "name": "value",
          "type": "uint256"
        }
      ],
      "name": "TransferSingle",
      "type": "event"
    },
    {
      "anonymous": false,
      "inputs": [
        {
          "indexed": false,
          "internalType": "string",
          "name": "value",
          "type": "string"
        },
        {
          "indexed": true,
          "internalType": "uint256",
          "name": "id",
          "type": "uint256"
        }
      ],
      "name": "URI",
      "type": "event"
    },
    {
      "anonymous": false,
      "inputs": [
        {
          "indexed": true,
          "internalType": "address",
          "name": "depositor",
          "type": "address"
        },
        {
          "indexed": true,
          "internalType": "uint256",
          "name": "tokenId",
          "type": "uint256"
        },
        {
          "indexed": false,
          "internalType": "uint256",
          "name": "amountWithdrawn",
          "type": "uint256"
        },
        {
          "indexed": false,
          "internalType": "uint256",
          "name": "profit",
          "type": "uint256"
        },
        {
          "indexed": false,
          "internalType": "uint256",
          "name": "fee",
          "type": "uint256"
        }
      ],
      "name": "Withdrawal",
      "type": "event"
    },
    {
      "inputs": [],
      "name": "BPS",
      "outputs": [
        {
          "internalType": "uint16",
          "name": "",
          "type": "uint16"
        }
      ],
      "stateMutability": "view",
      "type": "function"
    },
    {
      "inputs": [],
      "name": "DECIMALS",
      "outputs": [
        {
          "internalType": "uint8",
          "name": "",
          "type": "uint8"
        }
      ],
      "stateMutability": "view",
      "type": "function"
    },
    {
      "inputs": [
        {
          "internalType": "uint256",
          "name": "_amount",
          "type": "uint256"
        },
        {
          "internalType": "uint256",
          "name": "_tokenId",
          "type": "uint256"
        }
      ],
      "name": "add",
      "outputs": [
        {
          "components": [
            {
              "internalType": "uint256",
              "name": "deposit",
              "type": "uint256"
            },
            {
              "components": [
                {
                  "components": [
                    {
                      "internalType": "address",
                      "name": "strategy",
                      "type": "address"
                    },
                    {
                      "internalType": "address",
                      "name": "depositToken",
                      "type": "address"
                    },
                    {
                      "internalType": "address",
                      "name": "router",
                      "type": "address"
                    },
                    {
                      "internalType": "address",
                      "name": "oracle",
                      "type": "address"
                    },
                    {
                      "internalType": "bool",
                      "name": "isFortiFi",
                      "type": "bool"
                    },
                    {
                      "internalType": "bool",
                      "name": "isSAMS",
                      "type": "bool"
                    },
                    {
                      "internalType": "uint16",
                      "name": "bps",
                      "type": "uint16"
                    },
                    {
                      "internalType": "uint8",
                      "name": "decimals",
                      "type": "uint8"
                    }
                  ],
                  "internalType": "struct IMASS.Strategy",
                  "name": "strategy",
                  "type": "tuple"
                },
                {
                  "internalType": "uint256",
                  "name": "receipt",
                  "type": "uint256"
                }
              ],
              "internalType": "struct IMASS.Position[]",
              "name": "positions",
              "type": "tuple[]"
            }
          ],
          "internalType": "struct IMASS.TokenInfo",
          "name": "_info",
          "type": "tuple"
        }
      ],
      "stateMutability": "nonpayable",
      "type": "function"
    },
    {
      "inputs": [
        {
          "internalType": "address",
          "name": "account",
          "type": "address"
        },
        {
          "internalType": "uint256",
          "name": "id",
          "type": "uint256"
        }
      ],
      "name": "balanceOf",
      "outputs": [
        {
          "internalType": "uint256",
          "name": "",
          "type": "uint256"
        }
      ],
      "stateMutability": "view",
      "type": "function"
    },
    {
      "inputs": [
        {
          "internalType": "address[]",
          "name": "accounts",
          "type": "address[]"
        },
        {
          "internalType": "uint256[]",
          "name": "ids",
          "type": "uint256[]"
        }
      ],
      "name": "balanceOfBatch",
      "outputs": [
        {
          "internalType": "uint256[]",
          "name": "",
          "type": "uint256[]"
        }
      ],
      "stateMutability": "view",
      "type": "function"
    },
    {
      "inputs": [
        {
          "internalType": "uint256",
          "name": "_amount",
          "type": "uint256"
        }
      ],
      "name": "deposit",
      "outputs": [
        {
          "internalType": "uint256",
          "name": "_tokenId",
          "type": "uint256"
        },
        {
          "components": [
            {
              "internalType": "uint256",
              "name": "deposit",
              "type": "uint256"
            },
            {
              "components": [
                {
                  "components": [
                    {
                      "internalType": "address",
                      "name": "strategy",
                      "type": "address"
                    },
                    {
                      "internalType": "address",
                      "name": "depositToken",
                      "type": "address"
                    },
                    {
                      "internalType": "address",
                      "name": "router",
                      "type": "address"
                    },
                    {
                      "internalType": "address",
                      "name": "oracle",
                      "type": "address"
                    },
                    {
                      "internalType": "bool",
                      "name": "isFortiFi",
                      "type": "bool"
                    },
                    {
                      "internalType": "bool",
                      "name": "isSAMS",
                      "type": "bool"
                    },
                    {
                      "internalType": "uint16",
                      "name": "bps",
                      "type": "uint16"
                    },
                    {
                      "internalType": "uint8",
                      "name": "decimals",
                      "type": "uint8"
                    }
                  ],
                  "internalType": "struct IMASS.Strategy",
                  "name": "strategy",
                  "type": "tuple"
                },
                {
                  "internalType": "uint256",
                  "name": "receipt",
                  "type": "uint256"
                }
              ],
              "internalType": "struct IMASS.Position[]",
              "name": "positions",
              "type": "tuple[]"
            }
          ],
          "internalType": "struct IMASS.TokenInfo",
          "name": "_info",
          "type": "tuple"
        }
      ],
      "stateMutability": "nonpayable",
      "type": "function"
    },
    {
      "inputs": [],
      "name": "depositToken",
      "outputs": [
        {
          "internalType": "address",
          "name": "",
          "type": "address"
        }
      ],
      "stateMutability": "view",
      "type": "function"
    },
    {
      "inputs": [
        {
          "internalType": "uint256",
          "name": "id",
          "type": "uint256"
        }
      ],
      "name": "exists",
      "outputs": [
        {
          "internalType": "bool",
          "name": "",
          "type": "bool"
        }
      ],
      "stateMutability": "view",
      "type": "function"
    },
    {
      "inputs": [],
      "name": "feeCalc",
      "outputs": [
        {
          "internalType": "contract IFortiFiFeeCalculator",
          "name": "",
          "type": "address"
        }
      ],
      "stateMutability": "view",
      "type": "function"
    },
    {
      "inputs": [],
      "name": "feeMgr",
      "outputs": [
        {
          "internalType": "contract IFortiFiFeeManager",
          "name": "",
          "type": "address"
        }
      ],
      "stateMutability": "view",
      "type": "function"
    },
    {
      "inputs": [],
      "name": "flipPaused",
      "outputs": [],
      "stateMutability": "nonpayable",
      "type": "function"
    },
    {
      "inputs": [],
      "name": "getStrategies",
      "outputs": [
        {
          "components": [
            {
              "internalType": "address",
              "name": "strategy",
              "type": "address"
            },
            {
              "internalType": "address",
              "name": "depositToken",
              "type": "address"
            },
            {
              "internalType": "address",
              "name": "router",
              "type": "address"
            },
            {
              "internalType": "address",
              "name": "oracle",
              "type": "address"
            },
            {
              "internalType": "bool",
              "name": "isFortiFi",
              "type": "bool"
            },
            {
              "internalType": "bool",
              "name": "isSAMS",
              "type": "bool"
            },
            {
              "internalType": "uint16",
              "name": "bps",
              "type": "uint16"
            },
            {
              "internalType": "uint8",
              "name": "decimals",
              "type": "uint8"
            }
          ],
          "internalType": "struct IMASS.Strategy[]",
          "name": "",
          "type": "tuple[]"
        }
      ],
      "stateMutability": "view",
      "type": "function"
    },
    {
      "inputs": [
        {
          "internalType": "uint256",
          "name": "_tokenId",
          "type": "uint256"
        }
      ],
      "name": "getTokenInfo",
      "outputs": [
        {
          "components": [
            {
              "internalType": "uint256",
              "name": "deposit",
              "type": "uint256"
            },
            {
              "components": [
                {
                  "components": [
                    {
                      "internalType": "address",
                      "name": "strategy",
                      "type": "address"
                    },
                    {
                      "internalType": "address",
                      "name": "depositToken",
                      "type": "address"
                    },
                    {
                      "internalType": "address",
                      "name": "router",
                      "type": "address"
                    },
                    {
                      "internalType": "address",
                      "name": "oracle",
                      "type": "address"
                    },
                    {
                      "internalType": "bool",
                      "name": "isFortiFi",
                      "type": "bool"
                    },
                    {
                      "internalType": "bool",
                      "name": "isSAMS",
                      "type": "bool"
                    },
                    {
                      "internalType": "uint16",
                      "name": "bps",
                      "type": "uint16"
                    },
                    {
                      "internalType": "uint8",
                      "name": "decimals",
                      "type": "uint8"
                    }
                  ],
                  "internalType": "struct IMASS.Strategy",
                  "name": "strategy",
                  "type": "tuple"
                },
                {
                  "internalType": "uint256",
                  "name": "receipt",
                  "type": "uint256"
                }
              ],
              "internalType": "struct IMASS.Position[]",
              "name": "positions",
              "type": "tuple[]"
            }
          ],
          "internalType": "struct IMASS.TokenInfo",
          "name": "",
          "type": "tuple"
        }
      ],
      "stateMutability": "view",
      "type": "function"
    },
    {
      "inputs": [
        {
          "internalType": "address",
          "name": "account",
          "type": "address"
        },
        {
          "internalType": "address",
          "name": "operator",
          "type": "address"
        }
      ],
      "name": "isApprovedForAll",
      "outputs": [
        {
          "internalType": "bool",
          "name": "",
          "type": "bool"
        }
      ],
      "stateMutability": "view",
      "type": "function"
    },
    {
      "inputs": [],
      "name": "minDeposit",
      "outputs": [
        {
          "internalType": "uint256",
          "name": "",
          "type": "uint256"
        }
      ],
      "stateMutability": "view",
      "type": "function"
    },
    {
      "inputs": [],
      "name": "name",
      "outputs": [
        {
          "internalType": "string",
          "name": "",
          "type": "string"
        }
      ],
      "stateMutability": "view",
      "type": "function"
    },
    {
      "inputs": [],
      "name": "nextToken",
      "outputs": [
        {
          "internalType": "uint256",
          "name": "",
          "type": "uint256"
        }
      ],
      "stateMutability": "view",
      "type": "function"
    },
    {
      "inputs": [
        {
          "internalType": "address",
          "name": "",
          "type": "address"
        },
        {
          "internalType": "address",
          "name": "",
          "type": "address"
        },
        {
          "internalType": "uint256[]",
          "name": "",
          "type": "uint256[]"
        },
        {
          "internalType": "uint256[]",
          "name": "",
          "type": "uint256[]"
        },
        {
          "internalType": "bytes",
          "name": "",
          "type": "bytes"
        }
      ],
      "name": "onERC1155BatchReceived",
      "outputs": [
        {
          "internalType": "bytes4",
          "name": "",
          "type": "bytes4"
        }
      ],
      "stateMutability": "nonpayable",
      "type": "function"
    },
    {
      "inputs": [
        {
          "internalType": "address",
          "name": "",
          "type": "address"
        },
        {
          "internalType": "address",
          "name": "",
          "type": "address"
        },
        {
          "internalType": "uint256",
          "name": "",
          "type": "uint256"
        },
        {
          "internalType": "uint256",
          "name": "",
          "type": "uint256"
        },
        {
          "internalType": "bytes",
          "name": "",
          "type": "bytes"
        }
      ],
      "name": "onERC1155Received",
      "outputs": [
        {
          "internalType": "bytes4",
          "name": "",
          "type": "bytes4"
        }
      ],
      "stateMutability": "nonpayable",
      "type": "function"
    },
    {
      "inputs": [],
      "name": "owner",
      "outputs": [
        {
          "internalType": "address",
          "name": "",
          "type": "address"
        }
      ],
      "stateMutability": "view",
      "type": "function"
    },
    {
      "inputs": [],
      "name": "paused",
      "outputs": [
        {
          "internalType": "bool",
          "name": "",
          "type": "bool"
        }
      ],
      "stateMutability": "view",
      "type": "function"
    },
    {
      "inputs": [
        {
          "internalType": "uint256",
          "name": "_tokenId",
          "type": "uint256"
        }
      ],
      "name": "rebalance",
      "outputs": [
        {
          "components": [
            {
              "internalType": "uint256",
              "name": "deposit",
              "type": "uint256"
            },
            {
              "components": [
                {
                  "components": [
                    {
                      "internalType": "address",
                      "name": "strategy",
                      "type": "address"
                    },
                    {
                      "internalType": "address",
                      "name": "depositToken",
                      "type": "address"
                    },
                    {
                      "internalType": "address",
                      "name": "router",
                      "type": "address"
                    },
                    {
                      "internalType": "address",
                      "name": "oracle",
                      "type": "address"
                    },
                    {
                      "internalType": "bool",
                      "name": "isFortiFi",
                      "type": "bool"
                    },
                    {
                      "internalType": "bool",
                      "name": "isSAMS",
                      "type": "bool"
                    },
                    {
                      "internalType": "uint16",
                      "name": "bps",
                      "type": "uint16"
                    },
                    {
                      "internalType": "uint8",
                      "name": "decimals",
                      "type": "uint8"
                    }
                  ],
                  "internalType": "struct IMASS.Strategy",
                  "name": "strategy",
                  "type": "tuple"
                },
                {
                  "internalType": "uint256",
                  "name": "receipt",
                  "type": "uint256"
                }
              ],
              "internalType": "struct IMASS.Position[]",
              "name": "positions",
              "type": "tuple[]"
            }
          ],
          "internalType": "struct IMASS.TokenInfo",
          "name": "",
          "type": "tuple"
        }
      ],
      "stateMutability": "nonpayable",
      "type": "function"
    },
    {
      "inputs": [
        {
          "internalType": "address",
          "name": "_token",
          "type": "address"
        },
        {
          "internalType": "uint256[]",
          "name": "_tokenIds",
          "type": "uint256[]"
        },
        {
          "internalType": "uint256[]",
          "name": "_amounts",
          "type": "uint256[]"
        }
      ],
      "name": "recoverERC1155",
      "outputs": [],
      "stateMutability": "nonpayable",
      "type": "function"
    },
    {
      "inputs": [
        {
          "internalType": "address",
          "name": "_token",
          "type": "address"
        },
        {
          "internalType": "uint256",
          "name": "_amount",
          "type": "uint256"
        }
      ],
      "name": "recoverERC20",
      "outputs": [],
      "stateMutability": "nonpayable",
      "type": "function"
    },
    {
      "inputs": [],
      "name": "refreshApprovals",
      "outputs": [],
      "stateMutability": "nonpayable",
      "type": "function"
    },
    {
      "inputs": [],
      "name": "renounceOwnership",
      "outputs": [],
      "stateMutability": "nonpayable",
      "type": "function"
    },
    {
      "inputs": [
        {
          "internalType": "address",
          "name": "from",
          "type": "address"
        },
        {
          "internalType": "address",
          "name": "to",
          "type": "address"
        },
        {
          "internalType": "uint256[]",
          "name": "ids",
          "type": "uint256[]"
        },
        {
          "internalType": "uint256[]",
          "name": "amounts",
          "type": "uint256[]"
        },
        {
          "internalType": "bytes",
          "name": "data",
          "type": "bytes"
        }
      ],
      "name": "safeBatchTransferFrom",
      "outputs": [],
      "stateMutability": "nonpayable",
      "type": "function"
    },
    {
      "inputs": [
        {
          "internalType": "address",
          "name": "from",
          "type": "address"
        },
        {
          "internalType": "address",
          "name": "to",
          "type": "address"
        },
        {
          "internalType": "uint256",
          "name": "id",
          "type": "uint256"
        },
        {
          "internalType": "uint256",
          "name": "amount",
          "type": "uint256"
        },
        {
          "internalType": "bytes",
          "name": "data",
          "type": "bytes"
        }
      ],
      "name": "safeTransferFrom",
      "outputs": [],
      "stateMutability": "nonpayable",
      "type": "function"
    },
    {
      "inputs": [
        {
          "internalType": "address",
          "name": "operator",
          "type": "address"
        },
        {
          "internalType": "bool",
          "name": "approved",
          "type": "bool"
        }
      ],
      "name": "setApprovalForAll",
      "outputs": [],
      "stateMutability": "nonpayable",
      "type": "function"
    },
    {
      "inputs": [
        {
          "internalType": "address",
          "name": "_contract",
          "type": "address"
        }
      ],
      "name": "setFeeCalculator",
      "outputs": [],
      "stateMutability": "nonpayable",
      "type": "function"
    },
    {
      "inputs": [
        {
          "internalType": "address",
          "name": "_contract",
          "type": "address"
        }
      ],
      "name": "setFeeManager",
      "outputs": [],
      "stateMutability": "nonpayable",
      "type": "function"
    },
    {
      "inputs": [
        {
          "internalType": "uint256",
          "name": "_amount",
          "type": "uint256"
        }
      ],
      "name": "setMinDeposit",
      "outputs": [],
      "stateMutability": "nonpayable",
      "type": "function"
    },
    {
      "inputs": [
        {
          "internalType": "uint16",
          "name": "_amount",
          "type": "uint16"
        }
      ],
      "name": "setSlippage",
      "outputs": [],
      "stateMutability": "nonpayable",
      "type": "function"
    },
    {
      "inputs": [
        {
          "components": [
            {
              "internalType": "address",
              "name": "strategy",
              "type": "address"
            },
            {
              "internalType": "address",
              "name": "depositToken",
              "type": "address"
            },
            {
              "internalType": "address",
              "name": "router",
              "type": "address"
            },
            {
              "internalType": "address",
              "name": "oracle",
              "type": "address"
            },
            {
              "internalType": "bool",
              "name": "isFortiFi",
              "type": "bool"
            },
            {
              "internalType": "bool",
              "name": "isSAMS",
              "type": "bool"
            },
            {
              "internalType": "uint16",
              "name": "bps",
              "type": "uint16"
            },
            {
              "internalType": "uint8",
              "name": "decimals",
              "type": "uint8"
            }
          ],
          "internalType": "struct IMASS.Strategy[]",
          "name": "_strategies",
          "type": "tuple[]"
        }
      ],
      "name": "setStrategies",
      "outputs": [],
      "stateMutability": "nonpayable",
      "type": "function"
    },
    {
      "inputs": [],
      "name": "slippageBps",
      "outputs": [
        {
          "internalType": "uint16",
          "name": "",
          "type": "uint16"
        }
      ],
      "stateMutability": "view",
      "type": "function"
    },
    {
      "inputs": [
        {
          "internalType": "uint256",
          "name": "",
          "type": "uint256"
        }
      ],
      "name": "strategies",
      "outputs": [
        {
          "internalType": "address",
          "name": "strategy",
          "type": "address"
        },
        {
          "internalType": "address",
          "name": "depositToken",
          "type": "address"
        },
        {
          "internalType": "address",
          "name": "router",
          "type": "address"
        },
        {
          "internalType": "address",
          "name": "oracle",
          "type": "address"
        },
        {
          "internalType": "bool",
          "name": "isFortiFi",
          "type": "bool"
        },
        {
          "internalType": "bool",
          "name": "isSAMS",
          "type": "bool"
        },
        {
          "internalType": "uint16",
          "name": "bps",
          "type": "uint16"
        },
        {
          "internalType": "uint8",
          "name": "decimals",
          "type": "uint8"
        }
      ],
      "stateMutability": "view",
      "type": "function"
    },
    {
      "inputs": [
        {
          "internalType": "bytes4",
          "name": "interfaceId",
          "type": "bytes4"
        }
      ],
      "name": "supportsInterface",
      "outputs": [
        {
          "internalType": "bool",
          "name": "",
          "type": "bool"
        }
      ],
      "stateMutability": "view",
      "type": "function"
    },
    {
      "inputs": [],
      "name": "symbol",
      "outputs": [
        {
          "internalType": "string",
          "name": "",
          "type": "string"
        }
      ],
      "stateMutability": "view",
      "type": "function"
    },
    {
      "inputs": [
        {
          "internalType": "uint256",
          "name": "id",
          "type": "uint256"
        }
      ],
      "name": "totalSupply",
      "outputs": [
        {
          "internalType": "uint256",
          "name": "",
          "type": "uint256"
        }
      ],
      "stateMutability": "view",
      "type": "function"
    },
    {
      "inputs": [
        {
          "internalType": "address",
          "name": "newOwner",
          "type": "address"
        }
      ],
      "name": "transferOwnership",
      "outputs": [],
      "stateMutability": "nonpayable",
      "type": "function"
    },
    {
      "inputs": [
        {
          "internalType": "uint256",
          "name": "",
          "type": "uint256"
        }
      ],
      "name": "uri",
      "outputs": [
        {
          "internalType": "string",
          "name": "",
          "type": "string"
        }
      ],
      "stateMutability": "view",
      "type": "function"
    },
    {
      "inputs": [
        {
          "internalType": "uint256",
          "name": "_tokenId",
          "type": "uint256"
        }
      ],
      "name": "withdraw",
      "outputs": [],
      "stateMutability": "nonpayable",
      "type": "function"
    },
    {
      "inputs": [],
      "name": "wrappedNative",
      "outputs": [
        {
          "internalType": "address",
          "name": "",
          "type": "address"
        }
      ],
      "stateMutability": "view",
      "type": "function"
    },
    {
      "stateMutability": "payable",
      "type": "receive"
    }
  ],
  "transactionHash": "0xb7310507995310423300fe3af2c63aaee26875565a5aafd21558d105c5fe1009",
  "args": [
    "Test MASS - BTCb-USDC",
    "tmBTCbUSDC",
    "https://ipfs.io/ipfs/bafybeign4hbi6desilmocupj3hlxj3t3eiodr2sro5bgw7ld7vcznttuja/SAMS_BTCb.png",
    "0xB31f66AA3C1e785363F0875A1B74E27b85FD66c7",
    "0xB97EF9Ef8734C71904D8002F8b6Bc66Dd9c48a6E",
    "0xf0F55E8C9E23c627b253876F3B4Bf1Ef3eBA4Db0",
    "0x03d8137b35206Dda7d6313Ba0FDE02EC4c265414",
    [
      {
        "strategy": "0xf9cD4Db17a3FB8bc9ec0CbB34780C91cE13ce767",
        "depositToken": "0x152b9d0FdC40C096757F570A51E494bd4b943E50",
        "router": "0x60aE616a2155Ee3d9A68541Ba4544862310933d4",
        "oracle": "0x2779D32d5166BAaa2B2b658333bA7e6Ec0C65743",
        "isFortiFi": false,
        "isSAMS": false,
        "bps": 5000,
        "decimals": 8
      },
      {
        "strategy": "0x33aB93b73d45d680f6Ffb6c7915cf20fbac9a11D",
        "depositToken": "0xB97EF9Ef8734C71904D8002F8b6Bc66Dd9c48a6E",
        "router": "0x60aE616a2155Ee3d9A68541Ba4544862310933d4",
        "oracle": "0x0000000000000000000000000000000000000000",
        "isFortiFi": false,
        "isSAMS": true,
        "bps": 5000,
        "decimals": 6
      }
    ]
  ],
  "numDeployments": 8,
  "solcInputHash": "421c85a92c219a14690c15fb57a5fc7d",
  "bytecode": "0x60c06040526008805461ffff191660641790556175306009556001600a819055600b805460ff191690911790553480156200003957600080fd5b506040516200706e3803806200706e8339810160408190526200005c9162000e82565b85620000688162000258565b5062000074336200026a565b60016005556001600160a01b038516620000d55760405162461bcd60e51b815260206004820152601d60248201527f466f72746946693a20496e76616c6964206e617469766520746f6b656e00000060448201526064015b60405180910390fd5b6001600160a01b0384166200012d5760405162461bcd60e51b815260206004820152601e60248201527f466f72746946693a20496e76616c6964206465706f73697420746f6b656e00006044820152606401620000cc565b6001600160a01b038316620001855760405162461bcd60e51b815260206004820152601b60248201527f466f72746946693a20496e76616c6964206665654d616e6167657200000000006044820152606401620000cc565b6001600160a01b038216620001dd5760405162461bcd60e51b815260206004820152601e60248201527f466f72746946693a20496e76616c69642066656543616c63756c61746f7200006044820152606401620000cc565b6006620001eb898262001014565b506007620001fa888262001014565b506001600160a01b0385811660a052848116608052600b8054610100600160a81b03191661010085841602179055600c80546001600160a01b0319169185169190911790556200024a81620002bc565b505050505050505062001172565b600262000266828262001014565b5050565b600480546001600160a01b038381166001600160a01b0319831681179093556040519116919082907f8be0079c531659141344cd1fd0a4f28419497f9722a3daafe3b4186f6b6457e090600090a35050565b6004546001600160a01b03163314620003185760405162461bcd60e51b815260206004820181905260248201527f4f776e61626c653a2063616c6c6572206973206e6f7420746865206f776e65726044820152606401620000cc565b805180620003695760405162461bcd60e51b815260206004820152601660248201527f466f72746946693a204e6f2073747261746567696573000000000000000000006044820152606401620000cc565b6000805b82811015620003bb578381815181106200038b576200038b620010e0565b602002602001015160c0015182620003a491906200110c565b915080620003b28162001131565b9150506200036d565b5061ffff811661271014620004135760405162461bcd60e51b815260206004820152601a60248201527f466f72746946693a20496e76616c696420746f74616c206270730000000000006044820152606401620000cc565b62000421600d600062000b8e565b60005b82811015620008575760006001600160a01b03168482815181106200044d576200044d620010e0565b6020026020010151600001516001600160a01b031603620004b15760405162461bcd60e51b815260206004820152601e60248201527f466f72746946693a20496e76616c6964207374726174206164647265737300006044820152606401620000cc565b60006001600160a01b0316848281518110620004d157620004d1620010e0565b6020026020010151602001516001600160a01b031603620005355760405162461bcd60e51b815260206004820152601e60248201527f466f72746946693a20496e76616c6964204552433230206164647265737300006044820152606401620000cc565b60006001600160a01b0316848281518110620005555762000555620010e0565b6020026020010151604001516001600160a01b031603620005b95760405162461bcd60e51b815260206004820152601f60248201527f466f72746946693a20496e76616c696420726f757465722061646472657373006044820152606401620000cc565b60006001600160a01b0316848281518110620005d957620005d9620010e0565b6020026020010151606001516001600160a01b03161415806200062f57506080516001600160a01b0316848281518110620006185762000618620010e0565b6020026020010151602001516001600160a01b0316145b6200067d5760405162461bcd60e51b815260206004820152601f60248201527f466f72746946693a20496e76616c6964206f7261636c652061646472657373006044820152606401620000cc565b600660ff16848281518110620006975762000697620010e0565b602002602001015160e0015160ff161180620006e657506080516001600160a01b0316848281518110620006cf57620006cf620010e0565b6020026020010151602001516001600160a01b0316145b620007345760405162461bcd60e51b815260206004820152601f60248201527f466f72746946693a20496e76616c696420737472617420646563696d616c73006044820152606401620000cc565b600d8482815181106200074b576200074b620010e0565b602090810291909101810151825460018181018555600094855293839020825160049092020180546001600160a01b039283166001600160a01b03199182161782559383015194810180549583169585169590951790945560408201516002850180549183169190941617909255606081015160039093018054608083015160a084015160c085015160e09095015160ff16600160c01b0260ff60c01b1961ffff909616600160b01b0261ffff60b01b19921515600160a81b029290921662ffffff60a81b19931515600160a01b026001600160a81b031990951698909716979097179290921716939093179290921716919091179055806200084e8162001131565b91505062000424565b506200086262000867565b505050565b600d54608051600c5460405163095ea7b360e01b81526001600160a01b03918216600482015260001960248201529082169063095ea7b3906044016020604051808303816000875af1158015620008c2573d6000803e3d6000fd5b505050506040513d601f19601f82011682018060405250810190620008e891906200114d565b5060005b828110156200086257600d81815481106200090b576200090b620010e0565b906000526020600020906004020160010160009054906101000a90046001600160a01b03166001600160a01b031663095ea7b3600d8381548110620009545762000954620010e0565b600091825260209091206004918202015460405160e084901b6001600160e01b03191681526001600160a01b039091169181019190915260001960248201526044016020604051808303816000875af1158015620009b6573d6000803e3d6000fd5b505050506040513d601f19601f82011682018060405250810190620009dc91906200114d565b50600d8181548110620009f357620009f3620010e0565b906000526020600020906004020160010160009054906101000a90046001600160a01b03166001600160a01b031663095ea7b3600d838154811062000a3c5762000a3c620010e0565b600091825260209091206004918202016002015460405160e084901b6001600160e01b03191681526001600160a01b039091169181019190915260001960248201526044016020604051808303816000875af115801562000aa1573d6000803e3d6000fd5b505050506040513d601f19601f8201168201806040525081019062000ac791906200114d565b50816001600160a01b031663095ea7b3600d838154811062000aed5762000aed620010e0565b600091825260209091206004918202016002015460405160e084901b6001600160e01b03191681526001600160a01b039091169181019190915260001960248201526044016020604051808303816000875af115801562000b52573d6000803e3d6000fd5b505050506040513d601f19601f8201168201806040525081019062000b7891906200114d565b508062000b858162001131565b915050620008ec565b508054600082556004029060005260206000209081019062000bb1919062000bb4565b50565b5b8082111562000bfe5780546001600160a01b031990811682556001820180548216905560028201805490911690556003810180546001600160c81b031916905560040162000bb5565b5090565b634e487b7160e01b600052604160045260246000fd5b60405161010081016001600160401b038111828210171562000c3e5762000c3e62000c02565b60405290565b604051601f8201601f191681016001600160401b038111828210171562000c6f5762000c6f62000c02565b604052919050565b600082601f83011262000c8957600080fd5b81516001600160401b0381111562000ca55762000ca562000c02565b602062000cbb601f8301601f1916820162000c44565b828152858284870101111562000cd057600080fd5b60005b8381101562000cf057858101830151828201840152820162000cd3565b506000928101909101919091529392505050565b80516001600160a01b038116811462000d1c57600080fd5b919050565b8051801515811462000d1c57600080fd5b805160ff8116811462000d1c57600080fd5b600082601f83011262000d5657600080fd5b815160206001600160401b0382111562000d745762000d7462000c02565b62000d84818360051b0162000c44565b82815260089290921b8401810191818101908684111562000da457600080fd5b8286015b8481101562000e7757610100818903121562000dc45760008081fd5b62000dce62000c18565b62000dd98262000d04565b815262000de885830162000d04565b85820152604062000dfb81840162000d04565b90820152606062000e0e83820162000d04565b90820152608062000e2183820162000d21565b9082015260a062000e3483820162000d21565b9082015260c08281015161ffff8116811462000e505760008081fd5b9082015260e062000e6383820162000d32565b908201528352918301916101000162000da8565b509695505050505050565b600080600080600080600080610100898b03121562000ea057600080fd5b88516001600160401b038082111562000eb857600080fd5b62000ec68c838d0162000c77565b995060208b015191508082111562000edd57600080fd5b62000eeb8c838d0162000c77565b985060408b015191508082111562000f0257600080fd5b62000f108c838d0162000c77565b975062000f2060608c0162000d04565b965062000f3060808c0162000d04565b955062000f4060a08c0162000d04565b945062000f5060c08c0162000d04565b935060e08b015191508082111562000f6757600080fd5b5062000f768b828c0162000d44565b9150509295985092959890939650565b600181811c9082168062000f9b57607f821691505b60208210810362000fbc57634e487b7160e01b600052602260045260246000fd5b50919050565b601f8211156200086257600081815260208120601f850160051c8101602086101562000feb5750805b601f850160051c820191505b818110156200100c5782815560010162000ff7565b505050505050565b81516001600160401b0381111562001030576200103062000c02565b620010488162001041845462000f86565b8462000fc2565b602080601f831160018114620010805760008415620010675750858301515b600019600386901b1c1916600185901b1785556200100c565b600085815260208120601f198616915b82811015620010b15788860151825594840194600190910190840162001090565b5085821015620010d05787850151600019600388901b60f8161c191681555b5050505050600190811b01905550565b634e487b7160e01b600052603260045260246000fd5b634e487b7160e01b600052601160045260246000fd5b61ffff8181168382160190808211156200112a576200112a620010f6565b5092915050565b600060018201620011465762001146620010f6565b5060010190565b6000602082840312156200116057600080fd5b6200116b8262000d21565b9392505050565b60805160a051615e4a620012246000396000818161080401528181613b1601528181613ba8015281816140c2015261459201526000818161070f01528181610c6201528181610cc001528181610f500152818161153201528181611d5601528181612413015281816124df01528181612deb01528181612f2e01528181613387015281816134020152818161399101528181613a3801528181614116015281816142eb015261453f0152615e4a6000f3fe60806040526004361061025f5760003560e01c80638c7a63ae11610144578063bd85b039116100b6578063f23a6e611161007a578063f23a6e6114610826578063f242432a14610852578063f2fde38b14610872578063f41d566114610892578063f4993018146108b2578063f7c85469146108d257600080fd5b8063bd85b039146106d0578063c89039c5146106fd578063d574ea3d14610731578063e985e9c5146107a9578063eb6d3a11146107f257600080fd5b806395d89b411161010857806395d89b41146105e6578063a22cb465146105fb578063ab37fbb71461061b578063b49a60bb1461063b578063b6b55f251461065d578063bc197c811461068b57600080fd5b80638c7a63ae146105525780638da5cb5b146105725780638fcc9cfb1461059057806390f46a1c146105b05780639499ac54146105d057600080fd5b806343d57a64116101dd5780635c975abb116101a15780635c975abb14610479578063715018a614610493578063771602f7146104a85780638980f11f146104d55780638c4cc0df146104f55780638c66d04f1461053257600080fd5b806343d57a64146103cd578063472d35b9146103e25780634e1273f4146104025780634f558e791461042f578063578c71d91461045e57600080fd5b80632e0f2625116102245780632e0f2625146103395780632e1a7d4d146103605780632eb2c2d614610382578063333171bb146103a257806341b3d185146103b757600080fd5b8062fdd58e1461026b57806301ffc9a71461029e57806306fdde03146102ce5780630e89341c146102f0578063249d39e91461031057600080fd5b3661026657005b600080fd5b34801561027757600080fd5b5061028b610286366004614c20565b6108f2565b6040519081526020015b60405180910390f35b3480156102aa57600080fd5b506102be6102b9366004614c62565b61098c565b6040519015158152602001610295565b3480156102da57600080fd5b506102e36109dc565b6040516102959190614ccc565b3480156102fc57600080fd5b506102e361030b366004614cdf565b610a6a565b34801561031c57600080fd5b5061032661271081565b60405161ffff9091168152602001610295565b34801561034557600080fd5b5061034e600681565b60405160ff9091168152602001610295565b34801561036c57600080fd5b5061038061037b366004614cdf565b610afe565b005b34801561038e57600080fd5b5061038061039d366004614ea5565b610e66565b3480156103ae57600080fd5b50610380610efd565b3480156103c357600080fd5b5061028b60095481565b3480156103d957600080fd5b50610380610f3b565b3480156103ee57600080fd5b506103806103fd366004614f52565b611263565b34801561040e57600080fd5b5061042261041d366004614f6f565b611301565b6040516102959190615076565b34801561043b57600080fd5b506102be61044a366004614cdf565b600090815260036020526040902054151590565b34801561046a57600080fd5b506008546103269061ffff1681565b34801561048557600080fd5b50600b546102be9060ff1681565b34801561049f57600080fd5b5061038061142a565b3480156104b457600080fd5b506104c86104c3366004615089565b611460565b6040516102959190615180565b3480156104e157600080fd5b506103806104f0366004614c20565b6117c4565b34801561050157600080fd5b50600b5461051a9061010090046001600160a01b031681565b6040516001600160a01b039091168152602001610295565b34801561053e57600080fd5b5061038061054d366004614f52565b61185f565b34801561055e57600080fd5b506104c861056d366004614cdf565b611903565b34801561057e57600080fd5b506004546001600160a01b031661051a565b34801561059c57600080fd5b506103806105ab366004614cdf565b611a2d565b3480156105bc57600080fd5b506103806105cb3660046151de565b611aad565b3480156105dc57600080fd5b5061028b600a5481565b3480156105f257600080fd5b506102e3611b46565b34801561060757600080fd5b50610380610616366004615279565b611b53565b34801561062757600080fd5b506103806106363660046152cd565b611b62565b34801561064757600080fd5b50610650611ba4565b60405161029591906152ea565b34801561066957600080fd5b5061067d610678366004614cdf565b611c7a565b604051610295929190615339565b34801561069757600080fd5b506106b76106a6366004614ea5565b63bc197c8160e01b95945050505050565b6040516001600160e01b03199091168152602001610295565b3480156106dc57600080fd5b5061028b6106eb366004614cdf565b60009081526003602052604090205490565b34801561070957600080fd5b5061051a7f000000000000000000000000000000000000000000000000000000000000000081565b34801561073d57600080fd5b5061075161074c366004614cdf565b611f9a565b604080516001600160a01b03998a16815297891660208901529588169587019590955295909216606085015215156080840152151560a083015261ffff90921660c082015260ff90911660e082015261010001610295565b3480156107b557600080fd5b506102be6107c436600461535a565b6001600160a01b03918216600090815260016020908152604080832093909416825291909152205460ff1690565b3480156107fe57600080fd5b5061051a7f000000000000000000000000000000000000000000000000000000000000000081565b34801561083257600080fd5b506106b7610841366004615388565b63f23a6e6160e01b95945050505050565b34801561085e57600080fd5b5061038061086d366004615388565b612010565b34801561087e57600080fd5b5061038061088d366004614f52565b612097565b34801561089e57600080fd5b506103806108ad366004615401565b612132565b3480156108be57600080fd5b506104c86108cd366004614cdf565b6126a2565b3480156108de57600080fd5b50600c5461051a906001600160a01b031681565b60006001600160a01b0383166109635760405162461bcd60e51b815260206004820152602b60248201527f455243313135353a2062616c616e636520717565727920666f7220746865207a60448201526a65726f206164647265737360a81b60648201526084015b60405180910390fd5b506000818152602081815260408083206001600160a01b03861684529091529020545b92915050565b60006001600160e01b03198216636cdb3d1360e11b14806109bd57506001600160e01b031982166303a24d0760e21b145b8061098657506301ffc9a760e01b6001600160e01b0319831614610986565b600680546109e99061553b565b80601f0160208091040260200160405190810160405280929190818152602001828054610a159061553b565b8015610a625780601f10610a3757610100808354040283529160200191610a62565b820191906000526020600020905b815481529060010190602001808311610a4557829003601f168201915b505050505081565b606060028054610a799061553b565b80601f0160208091040260200160405190810160405280929190818152602001828054610aa59061553b565b8015610af25780601f10610ac757610100808354040283529160200191610af2565b820191906000526020600020905b815481529060010190602001808311610ad557829003601f168201915b50505050509050919050565b600260055403610b205760405162461bcd60e51b815260040161095a90615575565b6002600555600b5460ff1615610b485760405162461bcd60e51b815260040161095a906155ac565b6000610b5433836108f2565b11610ba15760405162461bcd60e51b815260206004820152601f60248201527f466f72746946693a204e6f7420746865206f776e6572206f6620746f6b656e00604482015260640161095a565b610bad338260016128fb565b600080610bb983612a74565b600b54604051633becdb0560e21b81529294509092506000916101009091046001600160a01b03169063efb36c1490610bf890339086906004016155e3565b602060405180830381865afa158015610c15573d6000803e3d6000fd5b505050506040513d601f19601f82011682018060405250810190610c3991906155fc565b600c5460405163280cff3560e21b81529192506001600160a01b03169063a033fcd490610c8c907f00000000000000000000000000000000000000000000000000000000000000009085906004016155e3565b600060405180830381600087803b158015610ca657600080fd5b505af1158015610cba573d6000803e3d6000fd5b505050507f00000000000000000000000000000000000000000000000000000000000000006001600160a01b031663a9059cbb338386610cfa919061562b565b6040518363ffffffff1660e01b8152600401610d179291906155e3565b6020604051808303816000875af1158015610d36573d6000803e3d6000fd5b505050506040513d601f19601f82011682018060405250810190610d5a919061563e565b610da65760405162461bcd60e51b815260206004820181905260248201527f466f72746946693a204661696c656420746f2073656e642070726f6365656473604482015260640161095a565b4715610e1657604051600090339047908381818185875af1925050503d8060008114610dee576040519150601f19603f3d011682016040523d82523d6000602084013e610df3565b606091505b5050905080610e145760405162461bcd60e51b815260040161095a9061565b565b505b6040805184815260208101849052908101829052849033907f887e73c01568cecc3fe477a39c098f6599306a7592db9c8941dfc71ff9046d069060600160405180910390a3505060016005555050565b6001600160a01b038516331480610e825750610e8285336107c4565b610ee95760405162461bcd60e51b815260206004820152603260248201527f455243313135353a207472616e736665722063616c6c6572206973206e6f74206044820152711bdddb995c881b9bdc88185c1c1c9bdd995960721b606482015260840161095a565b610ef68585858585612fcc565b5050505050565b6004546001600160a01b03163314610f275760405162461bcd60e51b815260040161095a90615690565b600b805460ff19811660ff90911615179055565b600d54600c5460405163095ea7b360e01b81527f0000000000000000000000000000000000000000000000000000000000000000916001600160a01b038084169263095ea7b392610f94921690600019906004016155e3565b6020604051808303816000875af1158015610fb3573d6000803e3d6000fd5b505050506040513d601f19601f82011682018060405250810190610fd7919061563e565b5060005b8281101561125e57600d8181548110610ff657610ff66156c5565b906000526020600020906004020160010160009054906101000a90046001600160a01b03166001600160a01b031663095ea7b3600d838154811061103c5761103c6156c5565b60009182526020909120600491820201546040516001600160e01b031960e085901b16815261107b926001600160a01b039092169160001991016155e3565b6020604051808303816000875af115801561109a573d6000803e3d6000fd5b505050506040513d601f19601f820116820180604052508101906110be919061563e565b50600d81815481106110d2576110d26156c5565b906000526020600020906004020160010160009054906101000a90046001600160a01b03166001600160a01b031663095ea7b3600d8381548110611118576111186156c5565b906000526020600020906004020160020160009054906101000a90046001600160a01b03166000196040518363ffffffff1660e01b815260040161115d9291906155e3565b6020604051808303816000875af115801561117c573d6000803e3d6000fd5b505050506040513d601f19601f820116820180604052508101906111a0919061563e565b50816001600160a01b031663095ea7b3600d83815481106111c3576111c36156c5565b906000526020600020906004020160020160009054906101000a90046001600160a01b03166000196040518363ffffffff1660e01b81526004016112089291906155e3565b6020604051808303816000875af1158015611227573d6000803e3d6000fd5b505050506040513d601f19601f8201168201806040525081019061124b919061563e565b5080611256816156db565b915050610fdb565b505050565b6004546001600160a01b0316331461128d5760405162461bcd60e51b815260040161095a90615690565b6001600160a01b0381166112df5760405162461bcd60e51b8152602060048201526019602482015278119bdc9d1a519a4e88125b9d985b1a590818dbdb9d1c9858dd603a1b604482015260640161095a565b600c80546001600160a01b0319166001600160a01b0392909216919091179055565b606081518351146113665760405162461bcd60e51b815260206004820152602960248201527f455243313135353a206163636f756e747320616e6420696473206c656e677468604482015268040dad2e6dac2e8c6d60bb1b606482015260840161095a565b600083516001600160401b0381111561138157611381614cf8565b6040519080825280602002602001820160405280156113aa578160200160208202803683370190505b50905060005b8451811015611422576113f58582815181106113ce576113ce6156c5565b60200260200101518583815181106113e8576113e86156c5565b60200260200101516108f2565b828281518110611407576114076156c5565b602090810291909101015261141b816156db565b90506113b0565b509392505050565b6004546001600160a01b031633146114545760405162461bcd60e51b815260040161095a90615690565b61145e60006131b7565b565b6040805180820190915260008152606060208201526002600554036114975760405162461bcd60e51b815260040161095a90615575565b6002600555600b5460ff16156114bf5760405162461bcd60e51b815260040161095a906155ac565b60095483116115105760405162461bcd60e51b815260206004820152601f60248201527f466f72746946693a20496e76616c6964206465706f73697420616d6f756e7400604482015260640161095a565b6040516323b872dd60e01b8152336004820152306024820152604481018490527f0000000000000000000000000000000000000000000000000000000000000000906001600160a01b038216906323b872dd906064016020604051808303816000875af1158015611585573d6000803e3d6000fd5b505050506040513d601f19601f820116820180604052508101906115a9919061563e565b6115f55760405162461bcd60e51b815260206004820152601f60248201527f466f72746946693a204661696c656420746f2078666572206465706f73697400604482015260640161095a565b600061160133856108f2565b1161164e5760405162461bcd60e51b815260206004820152601f60248201527f466f72746946693a204e6f7420746865206f776e6572206f6620746f6b656e00604482015260640161095a565b61165a84846001613209565b600e60008481526020019081526020016000206040518060400160405290816000820154815260200160018201805480602002602001604051908101604052809291908181526020016000905b8282101561176157600084815260209081902060408051610140810182526005860290920180546001600160a01b0390811692840192835260018083015482166060860152600283015482166080860152600383015491821660a086015260ff600160a01b83048116151560c0870152600160a81b83048116151560e087015261ffff600160b01b840416610100870152600160c01b909204909116610120850152918352600401548284015290835290920191016116a7565b5050505081525050915061177482613979565b82336001600160a01b03167fbc5fb7ab880388ee1f0cf8f1e0cd41d18d11761351afeeca7e258706436f194b86856040516117b0929190615339565b60405180910390a350600160055592915050565b6004546001600160a01b031633146117ee5760405162461bcd60e51b815260040161095a90615690565b60405163a9059cbb60e01b81526001600160a01b0383169063a9059cbb9061181c90339085906004016155e3565b6020604051808303816000875af115801561183b573d6000803e3d6000fd5b505050506040513d601f19601f8201168201806040525081019061125e919061563e565b6004546001600160a01b031633146118895760405162461bcd60e51b815260040161095a90615690565b6001600160a01b0381166118db5760405162461bcd60e51b8152602060048201526019602482015278119bdc9d1a519a4e88125b9d985b1a590818dbdb9d1c9858dd603a1b604482015260640161095a565b600b80546001600160a01b0390921661010002610100600160a81b0319909216919091179055565b604080518082019091526000815260606020820152600e60008381526020019081526020016000206040518060400160405290816000820154815260200160018201805480602002602001604051908101604052809291908181526020016000905b82821015611a1f57600084815260209081902060408051610140810182526005860290920180546001600160a01b0390811692840192835260018083015482166060860152600283015482166080860152600383015491821660a086015260ff600160a01b83048116151560c0870152600160a81b83048116151560e087015261ffff600160b01b840416610100870152600160c01b90920490911661012085015291835260040154828401529083529092019101611965565b505050915250909392505050565b6004546001600160a01b03163314611a575760405162461bcd60e51b815260040161095a90615690565b6175308111611aa85760405162461bcd60e51b815260206004820152601760248201527f466f72746946693a20496e76616c696420616d6f756e74000000000000000000604482015260640161095a565b600955565b6004546001600160a01b03163314611ad75760405162461bcd60e51b815260040161095a90615690565b604051631759616b60e11b81526001600160a01b03861690632eb2c2d690611b0d90309033908990899089908990600401615726565b600060405180830381600087803b158015611b2757600080fd5b505af1158015611b3b573d6000803e3d6000fd5b505050505050505050565b600780546109e99061553b565b611b5e338383613cb2565b5050565b6004546001600160a01b03163314611b8c5760405162461bcd60e51b815260040161095a90615690565b6008805461ffff191661ffff92909216919091179055565b6060600d805480602002602001604051908101604052809291908181526020016000905b82821015611c7157600084815260209081902060408051610100810182526004860290920180546001600160a01b0390811684526001808301548216858701526002830154821693850193909352600390910154908116606084015260ff600160a01b8204811615156080850152600160a81b82048116151560a085015261ffff600160b01b83041660c0850152600160c01b9091041660e08301529083529092019101611bc8565b50505050905090565b6000611c99604051806040016040528060008152602001606081525090565b600260055403611cbb5760405162461bcd60e51b815260040161095a90615575565b6002600555600b5460ff1615611ce35760405162461bcd60e51b815260040161095a906155ac565b6009548311611d345760405162461bcd60e51b815260206004820152601f60248201527f466f72746946693a20496e76616c6964206465706f73697420616d6f756e7400604482015260640161095a565b6040516323b872dd60e01b8152336004820152306024820152604481018490527f0000000000000000000000000000000000000000000000000000000000000000906001600160a01b038216906323b872dd906064016020604051808303816000875af1158015611da9573d6000803e3d6000fd5b505050506040513d601f19601f82011682018060405250810190611dcd919061563e565b611e195760405162461bcd60e51b815260206004820152601f60248201527f466f72746946693a204661696c656420746f2078666572206465706f73697400604482015260640161095a565b611e21613d92565b9250611e2f84846000613209565b600e60008481526020019081526020016000206040518060400160405290816000820154815260200160018201805480602002602001604051908101604052809291908181526020016000905b82821015611f3657600084815260209081902060408051610140810182526005860290920180546001600160a01b0390811692840192835260018083015482166060860152600283015482166080860152600383015491821660a086015260ff600160a01b83048116151560c0870152600160a81b83048116151560e087015261ffff600160b01b840416610100870152600160c01b90920490911661012085015291835260040154828401529083529092019101611e7c565b50505050815250509150611f4982613979565b82336001600160a01b03167fa2f5e09d47150876983b7f4f0c3100d002901dcf94d43e590e285aca6bf691f08685604051611f85929190615339565b60405180910390a35060016005559092909150565b600d8181548110611faa57600080fd5b600091825260209091206004909102018054600182015460028301546003909301546001600160a01b0392831694509082169282169181169060ff600160a01b8204811691600160a81b810482169161ffff600160b01b83041691600160c01b90041688565b6001600160a01b03851633148061202c575061202c85336107c4565b61208a5760405162461bcd60e51b815260206004820152602960248201527f455243313135353a2063616c6c6572206973206e6f74206f776e6572206e6f7260448201526808185c1c1c9bdd995960ba1b606482015260840161095a565b610ef68585858585613dd2565b6004546001600160a01b031633146120c15760405162461bcd60e51b815260040161095a90615690565b6001600160a01b0381166121265760405162461bcd60e51b815260206004820152602660248201527f4f776e61626c653a206e6577206f776e657220697320746865207a65726f206160448201526564647265737360d01b606482015260840161095a565b61212f816131b7565b50565b6004546001600160a01b0316331461215c5760405162461bcd60e51b815260040161095a90615690565b8051806121a45760405162461bcd60e51b8152602060048201526016602482015275466f72746946693a204e6f207374726174656769657360501b604482015260640161095a565b6000805b828110156121ed578381815181106121c2576121c26156c5565b602002602001015160c00151826121d99190615785565b9150806121e5816156db565b9150506121a8565b5061ffff8116612710146122435760405162461bcd60e51b815260206004820152601a60248201527f466f72746946693a20496e76616c696420746f74616c20627073000000000000604482015260640161095a565b61224f600d6000614b1e565b60005b828110156126995760006001600160a01b0316848281518110612277576122776156c5565b6020026020010151600001516001600160a01b0316036122d95760405162461bcd60e51b815260206004820152601e60248201527f466f72746946693a20496e76616c696420737472617420616464726573730000604482015260640161095a565b60006001600160a01b03168482815181106122f6576122f66156c5565b6020026020010151602001516001600160a01b0316036123585760405162461bcd60e51b815260206004820152601e60248201527f466f72746946693a20496e76616c696420455243323020616464726573730000604482015260640161095a565b60006001600160a01b0316848281518110612375576123756156c5565b6020026020010151604001516001600160a01b0316036123d75760405162461bcd60e51b815260206004820152601f60248201527f466f72746946693a20496e76616c696420726f75746572206164647265737300604482015260640161095a565b60006001600160a01b03168482815181106123f4576123f46156c5565b6020026020010151606001516001600160a01b031614158061246457507f00000000000000000000000000000000000000000000000000000000000000006001600160a01b031684828151811061244d5761244d6156c5565b6020026020010151602001516001600160a01b0316145b6124b05760405162461bcd60e51b815260206004820152601f60248201527f466f72746946693a20496e76616c6964206f7261636c65206164647265737300604482015260640161095a565b600660ff168482815181106124c7576124c76156c5565b602002602001015160e0015160ff16118061253057507f00000000000000000000000000000000000000000000000000000000000000006001600160a01b0316848281518110612519576125196156c5565b6020026020010151602001516001600160a01b0316145b61257c5760405162461bcd60e51b815260206004820152601f60248201527f466f72746946693a20496e76616c696420737472617420646563696d616c7300604482015260640161095a565b600d848281518110612590576125906156c5565b602090810291909101810151825460018181018555600094855293839020825160049092020180546001600160a01b039283166001600160a01b03199182161782559383015194810180549583169585169590951790945560408201516002850180549183169190941617909255606081015160039093018054608083015160a084015160c085015160e09095015160ff16600160c01b0260ff60c01b1961ffff909616600160b01b0261ffff60b01b19921515600160a81b029290921662ffffff60a81b19931515600160a01b026001600160a81b03199095169890971697909717929092171693909317929092171691909117905580612691816156db565b915050612252565b5061125e610f3b565b6040805180820190915260008152606060208201526002600554036126d95760405162461bcd60e51b815260040161095a90615575565b600260055560006126ea33846108f2565b1180156126fa5750600b5460ff16155b8061270f57506004546001600160a01b031633145b61275b5760405162461bcd60e51b815260206004820152601f60248201527f466f72746946693a20496e76616c6964206d6573736167652073656e64657200604482015260640161095a565b6000828152600e60205260408120549061277484612a74565b506000858152600e602052604081208181559192506127966001830182614b3f565b50506127a481856000613209565b6000848152600e60209081526040808320858155815180830183528681526001820180548451818702810187019095528085529194929385840193909290879084015b828210156128a157600084815260209081902060408051610140810182526005860290920180546001600160a01b0390811692840192835260018083015482166060860152600283015482166080860152600383015491821660a086015260ff600160a01b83048116151560c0870152600160a81b83048116151560e087015261ffff600160b01b840416610100870152600160c01b909204909116610120850152918352600401548284015290835290920191016127e7565b505050508152505090506128b481613979565b847fc54037560ab0b32bc339e4f0bedd21a5daefe3a944527ac3bb8c32d5d4647ca683836040516128e6929190615339565b60405180910390a26001600555949350505050565b6001600160a01b03831661295d5760405162461bcd60e51b815260206004820152602360248201527f455243313135353a206275726e2066726f6d20746865207a65726f206164647260448201526265737360e81b606482015260840161095a565b3361298c8185600061296e87613efe565b61297787613efe565b60405180602001604052806000815250613f49565b6000838152602081815260408083206001600160a01b038816845290915290205482811015612a095760405162461bcd60e51b8152602060048201526024808201527f455243313135353a206275726e20616d6f756e7420657863656564732062616c604482015263616e636560e01b606482015260840161095a565b6000848152602081815260408083206001600160a01b03898116808652918452828520888703905582518981529384018890529092908616917fc3d58168c5ae7397731d063d5bbf3d657854427343f4c083240f7aacaa2d0f62910160405180910390a45050505050565b6000806000600e60008581526020019081526020016000206040518060400160405290816000820154815260200160018201805480602002602001604051908101604052809291908181526020016000905b82821015612b8057600084815260209081902060408051610140810182526005860290920180546001600160a01b0390811692840192835260018083015482166060860152600283015482166080860152600383015491821660a086015260ff600160a01b83048116151560c0870152600160a81b83048116151560e087015261ffff600160b01b840416610100870152600160c01b90920490911661012085015291835260040154828401529083529092019101612ac6565b5050509152505060208101515160009450909150835b81811015612f185782602001518181518110612bb457612bb46156c5565b60200260200101516000015160a0015115612c7a57600083602001518281518110612be157612be16156c5565b602002602001015160000151600001519050806001600160a01b0316632e1a7d4d85602001518481518110612c1857612c186156c5565b6020026020010151602001516040518263ffffffff1660e01b8152600401612c4291815260200190565b600060405180830381600087803b158015612c5c57600080fd5b505af1158015612c70573d6000803e3d6000fd5b5050505050612de9565b600083602001518281518110612c9257612c926156c5565b60200260200101516000015160000151905083602001518281518110612cba57612cba6156c5565b6020026020010151600001516080015115612d6557806001600160a01b031663ba251fba85602001518481518110612cf457612cf46156c5565b60209081029190910181015101516040516001600160e01b031960e084901b1681526004810191909152336024820152604481018a9052606401600060405180830381600087803b158015612d4857600080fd5b505af1158015612d5c573d6000803e3d6000fd5b50505050612de7565b806001600160a01b0316632e1a7d4d85602001518481518110612d8a57612d8a6156c5565b6020026020010151602001516040518263ffffffff1660e01b8152600401612db491815260200190565b600060405180830381600087803b158015612dce57600080fd5b505af1158015612de2573d6000803e3d6000fd5b505050505b505b7f00000000000000000000000000000000000000000000000000000000000000006001600160a01b031683602001518281518110612e2957612e296156c5565b602002602001015160000151602001516001600160a01b031614612f0657600083602001518281518110612e5f57612e5f6156c5565b6020908102919091018101515101516040516370a0823160e01b81523060048201526001600160a01b03909116906370a0823190602401602060405180830381865afa158015612eb3573d6000803e3d6000fd5b505050506040513d601f19601f82011682018060405250810190612ed791906155fc565b9050612f048185602001518481518110612ef357612ef36156c5565b602002602001015160000151614055565b505b80612f10816156db565b915050612b96565b506040516370a0823160e01b81523060048201527f00000000000000000000000000000000000000000000000000000000000000006001600160a01b0316906370a0823190602401602060405180830381865afa158015612f7d573d6000803e3d6000fd5b505050506040513d601f19601f82011682018060405250810190612fa191906155fc565b8251909450841115612fc0578151612fb9908561562b565b9250612fc5565b600092505b5050915091565b815183511461302e5760405162461bcd60e51b815260206004820152602860248201527f455243313135353a2069647320616e6420616d6f756e7473206c656e677468206044820152670dad2e6dac2e8c6d60c31b606482015260840161095a565b6001600160a01b0384166130545760405162461bcd60e51b815260040161095a906157a7565b33613063818787878787613f49565b60005b8451811015613149576000858281518110613083576130836156c5565b6020026020010151905060008583815181106130a1576130a16156c5565b602090810291909101810151600084815280835260408082206001600160a01b038e1683529093529190912054909150818110156130f15760405162461bcd60e51b815260040161095a906157ec565b6000838152602081815260408083206001600160a01b038e8116855292528083208585039055908b1682528120805484929061312e908490615836565b9250508190555050505080613142906156db565b9050613066565b50846001600160a01b0316866001600160a01b0316826001600160a01b03167f4a39dc06d4c0dbc64b70af90fd698a233a518aa5d07e595d983b8c0526c8f7fb8787604051613199929190615849565b60405180910390a46131af8187878787876143aa565b505050505050565b600480546001600160a01b038381166001600160a01b0319831681179093556040519116919082907f8be0079c531659141344cd1fd0a4f28419497f9722a3daafe3b4186f6b6457e090600090a35050565b6000828152600e60205260408120600d5490918591905b81811015613957576000600d828154811061323d5761323d6156c5565b60009182526020918290206040805161010081018252600490930290910180546001600160a01b0390811684526001820154811694840194909452600281015484169183019190915260030154918216606082015260ff600160a01b8304811615156080830152600160a81b83048116151560a083015261ffff600160b01b84041660c0830152600160c01b90920490911660e08201529050851561335e578460010182815481106132f1576132f16156c5565b600091825260209091206005909102015481516001600160a01b0390811691161461335e5760405162461bcd60e51b815260206004820152601d60248201527f466f72746946693a2043616e27742061646420746f2072656365697074000000604482015260640161095a565b60a081015160008061337160018761562b565b85036133cc5783602001516001600160a01b03167f00000000000000000000000000000000000000000000000000000000000000006001600160a01b0316146133c5576133be8785614505565b9050613452565b5085613452565b60c0840151600090612710906133e69061ffff168e615877565b6133f0919061588e565b905084602001516001600160a01b03167f00000000000000000000000000000000000000000000000000000000000000006001600160a01b031614613440576134398186614505565b9150613444565b8091505b61344e818961562b565b9750505b82156135bc578815613498576134938185600001518a600101888154811061347c5761347c6156c5565b906000526020600020906005020160040154614849565b613940565b6134a68185600001516148d6565b60408051808201825286815260208082018481526001808e018054808301825560009182529084902094518051600590920290950180546001600160a01b039283166001600160a01b0319918216178255948601519281018054938316938616939093179092559484015160028201805491871691909416179092556060830151600383018054608086015160a087015160c088015160e09098015160ff16600160c01b0260ff60c01b1961ffff909916600160b01b0261ffff60b01b19921515600160a81b029290921662ffffff60a81b19931515600160a01b026001600160a81b031990951696909a1695909517929092171696909617959095179390931692909217909255516004909101559150613940565b83516040516370a0823160e01b81523060048201526000906001600160a01b038316906370a0823190602401602060405180830381865afa158015613605573d6000803e3d6000fd5b505050506040513d601f19601f8201168201806040525081019061362991906155fc565b90508560800151156136a1576040516329c9aa1960e01b815260048101849052336024820152604481018d90526001600160a01b038316906329c9aa1990606401600060405180830381600087803b15801561368457600080fd5b505af1158015613698573d6000803e3d6000fd5b505050506136fc565b60405163b6b55f2560e01b8152600481018490526001600160a01b0383169063b6b55f2590602401600060405180830381600087803b1580156136e357600080fd5b505af11580156136f7573d6000803e3d6000fd5b505050505b8a156137b6576040516370a0823160e01b815230600482015281906001600160a01b038416906370a0823190602401602060405180830381865afa158015613748573d6000803e3d6000fd5b505050506040513d601f19601f8201168201806040525081019061376c91906155fc565b613776919061562b565b8a600101888154811061378b5761378b6156c5565b906000526020600020906005020160040160008282546137ab9190615836565b9091555061393d9050565b60408051808201825287815290516370a0823160e01b815230600482015260018c019190602082019084906001600160a01b038716906370a0823190602401602060405180830381865afa158015613812573d6000803e3d6000fd5b505050506040513d601f19601f8201168201806040525081019061383691906155fc565b613840919061562b565b9052815460018181018455600093845260209384902083518051600590940290910180546001600160a01b039485166001600160a01b031991821617825582870151938201805494861694821694909417909355604082015160028201805491861691909416179092556060810151600383018054608084015160a085015160c086015160e09096015160ff16600160c01b0260ff60c01b1961ffff909716600160b01b0261ffff60b01b19921515600160a81b029290921662ffffff60a81b19931515600160a01b026001600160a81b031990951696909916959095179290921716959095179490941791909116179091559101516004909101555b50505b50505050808061394f906156db565b915050613220565b508583600001600082825461396c9190615836565b9091555050505050505050565b6040516370a0823160e01b81523060048201526000907f00000000000000000000000000000000000000000000000000000000000000006001600160a01b0316906370a0823190602401602060405180830381865afa1580156139e0573d6000803e3d6000fd5b505050506040513d601f19601f82011682018060405250810190613a0491906155fc565b90508015613afe578082600001818151613a1e919061562b565b90525060405163a9059cbb60e01b81526001600160a01b037f0000000000000000000000000000000000000000000000000000000000000000169063a9059cbb90613a6f90339085906004016155e3565b6020604051808303816000875af1158015613a8e573d6000803e3d6000fd5b505050506040513d601f19601f82011682018060405250810190613ab2919061563e565b613afe5760405162461bcd60e51b815260206004820152601f60248201527f466f72746946693a204661696c656420746f20726566756e6420455243323000604482015260640161095a565b6040516370a0823160e01b81523060048201526000907f00000000000000000000000000000000000000000000000000000000000000006001600160a01b0316906370a0823190602401602060405180830381865afa158015613b65573d6000803e3d6000fd5b505050506040513d601f19601f82011682018060405250810190613b8991906155fc565b90508015613c3e5760405163a9059cbb60e01b81526001600160a01b037f0000000000000000000000000000000000000000000000000000000000000000169063a9059cbb90613bdf90339085906004016155e3565b6020604051808303816000875af1158015613bfe573d6000803e3d6000fd5b505050506040513d601f19601f82011682018060405250810190613c22919061563e565b613c3e5760405162461bcd60e51b815260040161095a9061565b565b471561125e57604051600090339047908381818185875af1925050503d8060008114613c86576040519150601f19603f3d011682016040523d82523d6000602084013e613c8b565b606091505b5050905080613cac5760405162461bcd60e51b815260040161095a9061565b565b50505050565b816001600160a01b0316836001600160a01b031603613d255760405162461bcd60e51b815260206004820152602960248201527f455243313135353a2073657474696e6720617070726f76616c20737461747573604482015268103337b91039b2b63360b91b606482015260840161095a565b6001600160a01b03838116600081815260016020908152604080832094871680845294825291829020805460ff191686151590811790915591519182527f17307eab39ab6107e8899845ad3d59bd9653f200f220920489ca2b5937696c31910160405180910390a3505050565b6000600a549050613db53382600160405180602001604052806000815250614966565b6001600a6000828254613dc89190615836565b9250508190555090565b6001600160a01b038416613df85760405162461bcd60e51b815260040161095a906157a7565b33613e17818787613e0888613efe565b613e1188613efe565b87613f49565b6000848152602081815260408083206001600160a01b038a16845290915290205483811015613e585760405162461bcd60e51b815260040161095a906157ec565b6000858152602081815260408083206001600160a01b038b8116855292528083208785039055908816825281208054869290613e95908490615836565b909155505060408051868152602081018690526001600160a01b03808916928a821692918616917fc3d58168c5ae7397731d063d5bbf3d657854427343f4c083240f7aacaa2d0f62910160405180910390a4613ef5828888888888614a63565b50505050505050565b60408051600180825281830190925260609160009190602080830190803683370190505090508281600081518110613f3857613f386156c5565b602090810291909101015292915050565b6001600160a01b038516613fd05760005b8351811015613fce57828181518110613f7557613f756156c5565b602002602001015160036000868481518110613f9357613f936156c5565b602002602001015181526020019081526020016000206000828254613fb89190615836565b90915550613fc79050816156db565b9050613f5a565b505b6001600160a01b0384166131af5760005b8351811015613ef557828181518110613ffc57613ffc6156c5565b60200260200101516003600086848151811061401a5761401a6156c5565b60200260200101518152602001908152602001600020600082825461403f919061562b565b9091555061404e9050816156db565b9050613fe1565b6020810151604080516003808252608082019092526000918160200160208202803683375050506040840151606085015182519293509091849084906000906140a0576140a06156c5565b60200260200101906001600160a01b031690816001600160a01b0316815250507f0000000000000000000000000000000000000000000000000000000000000000836001815181106140f4576140f46156c5565b60200260200101906001600160a01b031690816001600160a01b0316815250507f000000000000000000000000000000000000000000000000000000000000000083600281518110614148576141486156c5565b60200260200101906001600160a01b031690816001600160a01b0316815250506000816001600160a01b03166350d25bcd6040518163ffffffff1660e01b8152600401602060405180830381865afa1580156141a8573d6000803e3d6000fd5b505050506040513d601f19601f820116820180604052508101906141cc91906155fc565b9050600060068760e001516141e191906158b0565b6141ec90600a6159ad565b60e08801516141fc90600a6159ad565b614206908461588e565b614210908a615877565b61421a919061588e565b6008549091506001600160a01b038516906338ed1739908a90612710906142459061ffff16826159bc565b6142539061ffff1686615877565b61425d919061588e565b883061426b42610708615836565b6040518663ffffffff1660e01b815260040161428b9594939291906159d7565b6000604051808303816000875af11580156142aa573d6000803e3d6000fd5b505050506040513d6000823e601f3d908101601f191682016040526142d29190810190615a48565b506040516370a0823160e01b81523060048201526000907f00000000000000000000000000000000000000000000000000000000000000006001600160a01b0316906370a0823190602401602060405180830381865afa15801561433a573d6000803e3d6000fd5b505050506040513d601f19601f8201168201806040525081019061435e91906155fc565b905060008111611b3b5760405162461bcd60e51b81526020600482015260176024820152760466f72746946693a204661696c656420746f207377617604c1b604482015260640161095a565b6001600160a01b0384163b156131af5760405163bc197c8160e01b81526001600160a01b0385169063bc197c81906143ee9089908990889088908890600401615ae3565b6020604051808303816000875af1925050508015614429575060408051601f3d908101601f1916820190925261442691810190615b35565b60015b6144d557614435615b52565b806308c379a00361446e5750614449615b6e565b806144545750614470565b8060405162461bcd60e51b815260040161095a9190614ccc565b505b60405162461bcd60e51b815260206004820152603460248201527f455243313135353a207472616e7366657220746f206e6f6e20455243313135356044820152732932b1b2b4bb32b91034b6b83632b6b2b73a32b960611b606482015260840161095a565b6001600160e01b0319811663bc197c8160e01b14613ef55760405162461bcd60e51b815260040161095a90615bf7565b60208181015160408051600380825260808201909252600093849290820160608036833750505060408501516060860151825192935090917f0000000000000000000000000000000000000000000000000000000000000000908490600090614570576145706156c5565b60200260200101906001600160a01b031690816001600160a01b0316815250507f0000000000000000000000000000000000000000000000000000000000000000836001815181106145c4576145c46156c5565b60200260200101906001600160a01b031690816001600160a01b03168152505083836002815181106145f8576145f86156c5565b60200260200101906001600160a01b031690816001600160a01b0316815250506000816001600160a01b03166350d25bcd6040518163ffffffff1660e01b8152600401602060405180830381865afa158015614658573d6000803e3d6000fd5b505050506040513d601f19601f8201168201806040525081019061467c91906155fc565b9050600060068860e0015161469191906158b0565b61469c90600a6159ad565b828960e00151600a6146ae91906159ad565b6146b8908c615877565b6146c2919061588e565b6146cc9190615877565b6008549091506001600160a01b038516906338ed1739908b90612710906146f79061ffff16826159bc565b6147059061ffff1686615877565b61470f919061588e565b883061471d42610708615836565b6040518663ffffffff1660e01b815260040161473d9594939291906159d7565b6000604051808303816000875af115801561475c573d6000803e3d6000fd5b505050506040513d6000823e601f3d908101601f191682016040526147849190810190615a48565b506040516370a0823160e01b81523060048201526000906001600160a01b038816906370a0823190602401602060405180830381865afa1580156147cc573d6000803e3d6000fd5b505050506040513d601f19601f820116820180604052508101906147f091906155fc565b90506000811161483c5760405162461bcd60e51b81526020600482015260176024820152760466f72746946693a204661696c656420746f207377617604c1b604482015260640161095a565b9998505050505050505050565b604080518082019091526000815260606020820152829060405163771602f760e01b815260048101869052602481018490526001600160a01b0383169063771602f7906044016000604051808303816000875af11580156148ae573d6000803e3d6000fd5b505050506040513d6000823e601f3d908101601f191682016040526131af9190810190615d6a565b604080518082018252600080825260606020830152915163b6b55f2560e01b8152600481018590528391906001600160a01b0383169063b6b55f25906024016000604051808303816000875af1158015614934573d6000803e3d6000fd5b505050506040513d6000823e601f3d908101601f1916820160405261495c9190810190615d9e565b5095945050505050565b6001600160a01b0384166149c65760405162461bcd60e51b815260206004820152602160248201527f455243313135353a206d696e7420746f20746865207a65726f206164647265736044820152607360f81b606482015260840161095a565b336149d781600087613e0888613efe565b6000848152602081815260408083206001600160a01b038916845290915281208054859290614a07908490615836565b909155505060408051858152602081018590526001600160a01b0380881692600092918516917fc3d58168c5ae7397731d063d5bbf3d657854427343f4c083240f7aacaa2d0f62910160405180910390a4610ef6816000878787875b6001600160a01b0384163b156131af5760405163f23a6e6160e01b81526001600160a01b0385169063f23a6e6190614aa79089908990889088908890600401615dda565b6020604051808303816000875af1925050508015614ae2575060408051601f3d908101601f19168201909252614adf91810190615b35565b60015b614aee57614435615b52565b6001600160e01b0319811663f23a6e6160e01b14613ef55760405162461bcd60e51b815260040161095a90615bf7565b508054600082556004029060005260206000209081019061212f9190614b60565b508054600082556005029060005260206000209081019061212f9190614bac565b5b80821115614ba85780546001600160a01b031990811682556001820180548216905560028201805490911690556003810180546001600160c81b0319169055600401614b61565b5090565b5b80821115614ba85780546001600160a01b031990811682556001820180548216905560028201805490911690556003810180546001600160c81b031916905560006004820155600501614bad565b6001600160a01b038116811461212f57600080fd5b8035614c1b81614bfb565b919050565b60008060408385031215614c3357600080fd5b8235614c3e81614bfb565b946020939093013593505050565b6001600160e01b03198116811461212f57600080fd5b600060208284031215614c7457600080fd5b8135614c7f81614c4c565b9392505050565b6000815180845260005b81811015614cac57602081850181015186830182015201614c90565b506000602082860101526020601f19601f83011685010191505092915050565b602081526000614c7f6020830184614c86565b600060208284031215614cf157600080fd5b5035919050565b634e487b7160e01b600052604160045260246000fd5b61010081018181106001600160401b0382111715614d2e57614d2e614cf8565b60405250565b604081018181106001600160401b0382111715614d2e57614d2e614cf8565b606081018181106001600160401b0382111715614d2e57614d2e614cf8565b601f8201601f191681016001600160401b0381118282101715614d9757614d97614cf8565b6040525050565b60006001600160401b03821115614db757614db7614cf8565b5060051b60200190565b600082601f830112614dd257600080fd5b81356020614ddf82614d9e565b604051614dec8282614d72565b83815260059390931b8501820192828101915086841115614e0c57600080fd5b8286015b84811015614e275780358352918301918301614e10565b509695505050505050565b600082601f830112614e4357600080fd5b81356001600160401b03811115614e5c57614e5c614cf8565b604051614e73601f8301601f191660200182614d72565b818152846020838601011115614e8857600080fd5b816020850160208301376000918101602001919091529392505050565b600080600080600060a08688031215614ebd57600080fd5b8535614ec881614bfb565b94506020860135614ed881614bfb565b935060408601356001600160401b0380821115614ef457600080fd5b614f0089838a01614dc1565b94506060880135915080821115614f1657600080fd5b614f2289838a01614dc1565b93506080880135915080821115614f3857600080fd5b50614f4588828901614e32565b9150509295509295909350565b600060208284031215614f6457600080fd5b8135614c7f81614bfb565b60008060408385031215614f8257600080fd5b82356001600160401b0380821115614f9957600080fd5b818501915085601f830112614fad57600080fd5b81356020614fba82614d9e565b604051614fc78282614d72565b83815260059390931b8501820192828101915089841115614fe757600080fd5b948201945b8386101561500e578535614fff81614bfb565b82529482019490820190614fec565b9650508601359250508082111561502457600080fd5b5061503185828601614dc1565b9150509250929050565b600081518084526020808501945080840160005b8381101561506b5781518752958201959082019060010161504f565b509495945050505050565b602081526000614c7f602083018461503b565b6000806040838503121561509c57600080fd5b50508035926020909101359150565b60018060a01b038082511683528060208301511660208401528060408301511660408401528060608301511660608401525060808101511515608083015260a0810151151560a083015260c081015161510a60c084018261ffff169052565b5060e081015161125e60e084018260ff169052565b600060408301825184526020808401516040828701528281518085526060880191508383019450600092505b80831015614e275784516151608382516150ab565b84015161010083015293830193600192909201916101209091019061514b565b602081526000614c7f602083018461511f565b60008083601f8401126151a557600080fd5b5081356001600160401b038111156151bc57600080fd5b6020830191508360208260051b85010111156151d757600080fd5b9250929050565b6000806000806000606086880312156151f657600080fd5b853561520181614bfb565b945060208601356001600160401b038082111561521d57600080fd5b61522989838a01615193565b9096509450604088013591508082111561524257600080fd5b5061524f88828901615193565b969995985093965092949392505050565b801515811461212f57600080fd5b8035614c1b81615260565b6000806040838503121561528c57600080fd5b823561529781614bfb565b915060208301356152a781615260565b809150509250929050565b61ffff8116811461212f57600080fd5b8035614c1b816152b2565b6000602082840312156152df57600080fd5b8135614c7f816152b2565b6020808252825182820181905260009190848201906040850190845b8181101561532d576153198385516150ab565b928401926101009290920191600101615306565b50909695505050505050565b828152604060208201526000615352604083018461511f565b949350505050565b6000806040838503121561536d57600080fd5b823561537881614bfb565b915060208301356152a781614bfb565b600080600080600060a086880312156153a057600080fd5b85356153ab81614bfb565b945060208601356153bb81614bfb565b9350604086013592506060860135915060808601356001600160401b038111156153e457600080fd5b614f4588828901614e32565b803560ff81168114614c1b57600080fd5b6000602080838503121561541457600080fd5b82356001600160401b0381111561542a57600080fd5b8301601f8101851361543b57600080fd5b803561544681614d9e565b604080516154548382614d72565b83815260089390931b840185019285810192508884111561547457600080fd5b938501935b8385101561552f57610100858a0312156154935760008081fd5b815161549e81614d0e565b6154a786614c10565b81526154b4878701614c10565b878201526154c3838701614c10565b8382015260606154d4818801614c10565b9082015260806154e587820161526e565b9082015260a06154f687820161526e565b9082015260c06155078782016152c2565b9082015260e06155188782016153f0565b908201528352610100949094019391850191615479565b98975050505050505050565b600181811c9082168061554f57607f821691505b60208210810361556f57634e487b7160e01b600052602260045260246000fd5b50919050565b6020808252601f908201527f5265656e7472616e637947756172643a207265656e7472616e742063616c6c00604082015260600190565b60208082526018908201527f466f72746946693a20436f6e7472616374207061757365640000000000000000604082015260600190565b6001600160a01b03929092168252602082015260400190565b60006020828403121561560e57600080fd5b5051919050565b634e487b7160e01b600052601160045260246000fd5b8181038181111561098657610986615615565b60006020828403121561565057600080fd5b8151614c7f81615260565b6020808252818101527f466f72746946693a204661696c656420746f20726566756e64206e6174697665604082015260600190565b6020808252818101527f4f776e61626c653a2063616c6c6572206973206e6f7420746865206f776e6572604082015260600190565b634e487b7160e01b600052603260045260246000fd5b6000600182016156ed576156ed615615565b5060010190565b81835260006001600160fb1b0383111561570d57600080fd5b8260051b80836020870137939093016020019392505050565b6001600160a01b0387811682528616602082015260a06040820181905260009061575390830186886156f4565b82810360608401526157668185876156f4565b8381036080909401939093525050600081526020019695505050505050565b61ffff8181168382160190808211156157a0576157a0615615565b5092915050565b60208082526025908201527f455243313135353a207472616e7366657220746f20746865207a65726f206164604082015264647265737360d81b606082015260800190565b6020808252602a908201527f455243313135353a20696e73756666696369656e742062616c616e636520666f60408201526939103a3930b739b332b960b11b606082015260800190565b8082018082111561098657610986615615565b60408152600061585c604083018561503b565b828103602084015261586e818561503b565b95945050505050565b808202811582820484141761098657610986615615565b6000826158ab57634e487b7160e01b600052601260045260246000fd5b500490565b60ff828116828216039081111561098657610986615615565b600181815b808511156159045781600019048211156158ea576158ea615615565b808516156158f757918102915b93841c93908002906158ce565b509250929050565b60008261591b57506001610986565b8161592857506000610986565b816001811461593e576002811461594857615964565b6001915050610986565b60ff84111561595957615959615615565b50506001821b610986565b5060208310610133831016604e8410600b8410161715615987575081810a610986565b61599183836158c9565b80600019048211156159a5576159a5615615565b029392505050565b6000614c7f60ff84168361590c565b61ffff8281168282160390808211156157a0576157a0615615565b600060a082018783526020878185015260a0604085015281875180845260c086019150828901935060005b81811015615a275784516001600160a01b031683529383019391830191600101615a02565b50506001600160a01b03969096166060850152505050608001529392505050565b60006020808385031215615a5b57600080fd5b82516001600160401b03811115615a7157600080fd5b8301601f81018513615a8257600080fd5b8051615a8d81614d9e565b604051615a9a8282614d72565b82815260059290921b8301840191848101915087831115615aba57600080fd5b928401925b82841015615ad857835182529284019290840190615abf565b979650505050505050565b6001600160a01b0386811682528516602082015260a060408201819052600090615b0f9083018661503b565b8281036060840152615b21818661503b565b9050828103608084015261552f8185614c86565b600060208284031215615b4757600080fd5b8151614c7f81614c4c565b600060033d1115615b6b5760046000803e5060005160e01c5b90565b600060443d1015615b7c5790565b6040516003193d81016004833e81513d6001600160401b038160248401118184111715615bab57505050505090565b8285019150815181811115615bc35750505050505090565b843d8701016020828501011115615bdd5750505050505090565b615bec60208286010187614d72565b509095945050505050565b60208082526028908201527f455243313135353a204552433131353552656365697665722072656a656374656040820152676420746f6b656e7360c01b606082015260800190565b60006040808385031215615c5257600080fd5b8051615c5d81614d34565b809250835181526020808501516001600160401b03811115615c7e57600080fd5b8501601f81018713615c8f57600080fd5b8051615c9a81614d9e565b8551615ca68282614d72565b82815260079290921b8301840191848101915089831115615cc657600080fd5b928401925b82841015615d5857838a036080811215615ce55760008081fd5b8751615cf081614d34565b606080831215615d005760008081fd5b89519250615d0d83614d53565b8651615d1881614bfb565b835286880151615d2781615260565b83890152868a0151615d38816152b2565b838b01529181529085015186820152825260809093019290840190615ccb565b80858701525050505050505092915050565b600060208284031215615d7c57600080fd5b81516001600160401b03811115615d9257600080fd5b61535284828501615c3f565b60008060408385031215615db157600080fd5b8251915060208301516001600160401b03811115615dce57600080fd5b61503185828601615c3f565b6001600160a01b03868116825285166020820152604081018490526060810183905260a060808201819052600090615ad890830184614c8656fea2646970667358221220b206ccca7cb25e07d1496da9127051ad2a514d0b00b91ac0583ea181ca0cb73264736f6c63430008120033",
  "devdoc": {
    "events": {
      "ApprovalForAll(address,address,bool)": {
        "details": "Emitted when `account` grants or revokes permission to `operator` to transfer their tokens, according to `approved`."
      },
      "TransferBatch(address,address,address,uint256[],uint256[])": {
        "details": "Equivalent to multiple {TransferSingle} events, where `operator`, `from` and `to` are the same for all transfers."
      },
      "TransferSingle(address,address,address,uint256,uint256)": {
        "details": "Emitted when `value` tokens of token type `id` are transferred from `from` to `to` by `operator`."
      },
      "URI(string,uint256)": {
        "details": "Emitted when the URI for token type `id` changes to `value`, if it is a non-programmatic URI. If an {URI} event was emitted for `id`, the standard https://eips.ethereum.org/EIPS/eip-1155#metadata-extensions[guarantees] that `value` will equal the value returned by {IERC1155MetadataURI-uri}."
      }
    },
    "kind": "dev",
    "methods": {
      "balanceOf(address,uint256)": {
        "details": "See {IERC1155-balanceOf}. Requirements: - `account` cannot be the zero address."
      },
      "balanceOfBatch(address[],uint256[])": {
        "details": "See {IERC1155-balanceOfBatch}. Requirements: - `accounts` and `ids` must have the same length."
      },
      "deposit(uint256)": {
        "details": "The user must deposit at least the minDeposit, and will receive an ERC1155 non-fungible receipt token.  The receipt token will be mapped to a TokenInfo containing the amount deposited as well as the strategy receipt  tokens received for later withdrawal."
      },
      "exists(uint256)": {
        "details": "Indicates whether any token exist with a given id, or not."
      },
      "isApprovedForAll(address,address)": {
        "details": "See {IERC1155-isApprovedForAll}."
      },
      "owner()": {
        "details": "Returns the address of the current owner."
      },
      "rebalance(uint256)": {
        "details": "This function utilizes the internal _deposit and _withdraw functions to rebalance based on  the strategies set in the contract. Since _deposit will set the TokenInfo.deposit to the total  deposited after the rebalance, we must store the original deposit and overwrite the TokenInfo before completing the transaction."
      },
      "refreshApprovals()": {
        "details": "Since contract never holds deposit tokens max approvals should not matter. "
      },
      "renounceOwnership()": {
        "details": "Leaves the contract without owner. It will not be possible to call `onlyOwner` functions anymore. Can only be called by the current owner. NOTE: Renouncing ownership will leave the contract without an owner, thereby removing any functionality that is only available to the owner."
      },
      "safeBatchTransferFrom(address,address,uint256[],uint256[],bytes)": {
        "details": "See {IERC1155-safeBatchTransferFrom}."
      },
      "safeTransferFrom(address,address,uint256,uint256,bytes)": {
        "details": "See {IERC1155-safeTransferFrom}."
      },
      "setApprovalForAll(address,bool)": {
        "details": "See {IERC1155-setApprovalForAll}."
      },
      "supportsInterface(bytes4)": {
        "details": "See {IERC165-supportsInterface}."
      },
      "totalSupply(uint256)": {
        "details": "Total amount of tokens in with a given id."
      },
      "transferOwnership(address)": {
        "details": "Transfers ownership of the contract to a new account (`newOwner`). Can only be called by the current owner."
      },
      "uri(uint256)": {
        "details": "See {IERC1155MetadataURI-uri}. This implementation returns the same URI for *all* token types. It relies on the token type ID substitution mechanism https://eips.ethereum.org/EIPS/eip-1155#metadata[defined in the EIP]. Clients calling this function must replace the `\\{id\\}` substring with the actual token type ID."
      },
      "withdraw(uint256)": {
        "details": "Once all receipts are burned and deposit tokens received, the fee manager will calculate the fees due,  and the fee manager will distribute those fees before transfering the user their proceeds."
      }
    },
    "title": "Contract for FortiFi MASS Vaults",
    "version": 1
  },
  "userdoc": {
    "kind": "user",
    "methods": {
      "add(uint256,uint256)": {
        "notice": "This function is used to add to a user's deposit when they already has a receipt (ERC1155). The user can add to their  deposit without needing to burn/withdraw first. "
      },
      "deposit(uint256)": {
        "notice": "This function is used when a user does not already have a receipt (ERC1155). "
      },
      "flipPaused()": {
        "notice": "Function to flip paused state"
      },
      "getStrategies()": {
        "notice": "View function that returns all strategies"
      },
      "getTokenInfo(uint256)": {
        "notice": "View function to get token information"
      },
      "rebalance(uint256)": {
        "notice": "This function allows a user to rebalance a receipt (ERC1155) token's underlying assets. "
      },
      "recoverERC1155(address,uint256[],uint256[])": {
        "notice": "Emergency function to recover stuck ERC1155 tokens"
      },
      "recoverERC20(address,uint256)": {
        "notice": "Emergency function to recover stuck ERC20 tokens"
      },
      "refreshApprovals()": {
        "notice": "Function to set max approvals for router and strategies. "
      },
      "setFeeCalculator(address)": {
        "notice": "Function to set new FortiFiFeeCalculator contract"
      },
      "setFeeManager(address)": {
        "notice": "Function to set new FortiFiFeeManager contract"
      },
      "setMinDeposit(uint256)": {
        "notice": "Function to set minimum deposit"
      },
      "setSlippage(uint16)": {
        "notice": "Function to set slippage used in swap functions"
      },
      "setStrategies((address,address,address,address,bool,bool,uint16,uint8)[])": {
        "notice": "This function sets up the underlying strategies used by the vault."
      },
      "withdraw(uint256)": {
        "notice": "This function is used to burn a receipt (ERC1155) and withdraw all underlying strategy receipt tokens. "
      }
    },
    "notice": "This contract allows for the deposit of a single asset, which is then swapped into various assets and deposited in to  multiple yield-bearing strategies. ",
    "version": 1
  },
  "storageLayout": {
    "storage": [
      {
        "astId": 170,
        "contract": "contracts/vaults/FortiFiMASSVault.sol:FortiFiMASSVault",
        "label": "_balances",
        "offset": 0,
        "slot": "0",
        "type": "t_mapping(t_uint256,t_mapping(t_address,t_uint256))"
      },
      {
        "astId": 176,
        "contract": "contracts/vaults/FortiFiMASSVault.sol:FortiFiMASSVault",
        "label": "_operatorApprovals",
        "offset": 0,
        "slot": "1",
        "type": "t_mapping(t_address,t_mapping(t_address,t_bool))"
      },
      {
        "astId": 178,
        "contract": "contracts/vaults/FortiFiMASSVault.sol:FortiFiMASSVault",
        "label": "_uri",
        "offset": 0,
        "slot": "2",
        "type": "t_string_storage"
      },
      {
        "astId": 1413,
        "contract": "contracts/vaults/FortiFiMASSVault.sol:FortiFiMASSVault",
        "label": "_totalSupply",
        "offset": 0,
        "slot": "3",
        "type": "t_mapping(t_uint256,t_uint256)"
      },
      {
        "astId": 7,
        "contract": "contracts/vaults/FortiFiMASSVault.sol:FortiFiMASSVault",
        "label": "_owner",
        "offset": 0,
        "slot": "4",
        "type": "t_address"
      },
      {
        "astId": 115,
        "contract": "contracts/vaults/FortiFiMASSVault.sol:FortiFiMASSVault",
        "label": "_status",
        "offset": 0,
        "slot": "5",
        "type": "t_uint256"
      },
      {
        "astId": 2171,
        "contract": "contracts/vaults/FortiFiMASSVault.sol:FortiFiMASSVault",
        "label": "name",
        "offset": 0,
        "slot": "6",
        "type": "t_string_storage"
      },
      {
        "astId": 2173,
        "contract": "contracts/vaults/FortiFiMASSVault.sol:FortiFiMASSVault",
        "label": "symbol",
        "offset": 0,
        "slot": "7",
        "type": "t_string_storage"
      },
      {
        "astId": 2186,
        "contract": "contracts/vaults/FortiFiMASSVault.sol:FortiFiMASSVault",
        "label": "slippageBps",
        "offset": 0,
        "slot": "8",
        "type": "t_uint16"
      },
      {
        "astId": 2189,
        "contract": "contracts/vaults/FortiFiMASSVault.sol:FortiFiMASSVault",
        "label": "minDeposit",
        "offset": 0,
        "slot": "9",
        "type": "t_uint256"
      },
      {
        "astId": 2192,
        "contract": "contracts/vaults/FortiFiMASSVault.sol:FortiFiMASSVault",
        "label": "nextToken",
        "offset": 0,
        "slot": "10",
        "type": "t_uint256"
      },
      {
        "astId": 2195,
        "contract": "contracts/vaults/FortiFiMASSVault.sol:FortiFiMASSVault",
        "label": "paused",
        "offset": 0,
        "slot": "11",
        "type": "t_bool"
      },
      {
        "astId": 2198,
        "contract": "contracts/vaults/FortiFiMASSVault.sol:FortiFiMASSVault",
        "label": "feeCalc",
        "offset": 1,
        "slot": "11",
        "type": "t_contract(IFortiFiFeeCalculator)1995"
      },
      {
        "astId": 2201,
        "contract": "contracts/vaults/FortiFiMASSVault.sol:FortiFiMASSVault",
        "label": "feeMgr",
        "offset": 0,
        "slot": "12",
        "type": "t_contract(IFortiFiFeeManager)2006"
      },
      {
        "astId": 2205,
        "contract": "contracts/vaults/FortiFiMASSVault.sol:FortiFiMASSVault",
        "label": "strategies",
        "offset": 0,
        "slot": "13",
        "type": "t_array(t_struct(Strategy)4092_storage)dyn_storage"
      },
      {
        "astId": 2210,
        "contract": "contracts/vaults/FortiFiMASSVault.sol:FortiFiMASSVault",
        "label": "tokenInfo",
        "offset": 0,
        "slot": "14",
        "type": "t_mapping(t_uint256,t_struct(TokenInfo)4105_storage)"
      }
    ],
    "types": {
      "t_address": {
        "encoding": "inplace",
        "label": "address",
        "numberOfBytes": "20"
      },
      "t_array(t_struct(Position)4098_storage)dyn_storage": {
        "base": "t_struct(Position)4098_storage",
        "encoding": "dynamic_array",
        "label": "struct IMASS.Position[]",
        "numberOfBytes": "32"
      },
      "t_array(t_struct(Strategy)4092_storage)dyn_storage": {
        "base": "t_struct(Strategy)4092_storage",
        "encoding": "dynamic_array",
        "label": "struct IMASS.Strategy[]",
        "numberOfBytes": "32"
      },
      "t_bool": {
        "encoding": "inplace",
        "label": "bool",
        "numberOfBytes": "1"
      },
      "t_contract(IFortiFiFeeCalculator)1995": {
        "encoding": "inplace",
        "label": "contract IFortiFiFeeCalculator",
        "numberOfBytes": "20"
      },
      "t_contract(IFortiFiFeeManager)2006": {
        "encoding": "inplace",
        "label": "contract IFortiFiFeeManager",
        "numberOfBytes": "20"
      },
      "t_mapping(t_address,t_bool)": {
        "encoding": "mapping",
        "key": "t_address",
        "label": "mapping(address => bool)",
        "numberOfBytes": "32",
        "value": "t_bool"
      },
      "t_mapping(t_address,t_mapping(t_address,t_bool))": {
        "encoding": "mapping",
        "key": "t_address",
        "label": "mapping(address => mapping(address => bool))",
        "numberOfBytes": "32",
        "value": "t_mapping(t_address,t_bool)"
      },
      "t_mapping(t_address,t_uint256)": {
        "encoding": "mapping",
        "key": "t_address",
        "label": "mapping(address => uint256)",
        "numberOfBytes": "32",
        "value": "t_uint256"
      },
      "t_mapping(t_uint256,t_mapping(t_address,t_uint256))": {
        "encoding": "mapping",
        "key": "t_uint256",
        "label": "mapping(uint256 => mapping(address => uint256))",
        "numberOfBytes": "32",
        "value": "t_mapping(t_address,t_uint256)"
      },
      "t_mapping(t_uint256,t_struct(TokenInfo)4105_storage)": {
        "encoding": "mapping",
        "key": "t_uint256",
        "label": "mapping(uint256 => struct IMASS.TokenInfo)",
        "numberOfBytes": "32",
        "value": "t_struct(TokenInfo)4105_storage"
      },
      "t_mapping(t_uint256,t_uint256)": {
        "encoding": "mapping",
        "key": "t_uint256",
        "label": "mapping(uint256 => uint256)",
        "numberOfBytes": "32",
        "value": "t_uint256"
      },
      "t_string_storage": {
        "encoding": "bytes",
        "label": "string",
        "numberOfBytes": "32"
      },
      "t_struct(Position)4098_storage": {
        "encoding": "inplace",
        "label": "struct IMASS.Position",
        "members": [
          {
            "astId": 4095,
            "contract": "contracts/vaults/FortiFiMASSVault.sol:FortiFiMASSVault",
            "label": "strategy",
            "offset": 0,
            "slot": "0",
            "type": "t_struct(Strategy)4092_storage"
          },
          {
            "astId": 4097,
            "contract": "contracts/vaults/FortiFiMASSVault.sol:FortiFiMASSVault",
            "label": "receipt",
            "offset": 0,
            "slot": "4",
            "type": "t_uint256"
          }
        ],
        "numberOfBytes": "160"
      },
      "t_struct(Strategy)4092_storage": {
        "encoding": "inplace",
        "label": "struct IMASS.Strategy",
        "members": [
          {
            "astId": 4077,
            "contract": "contracts/vaults/FortiFiMASSVault.sol:FortiFiMASSVault",
            "label": "strategy",
            "offset": 0,
            "slot": "0",
            "type": "t_address"
          },
          {
            "astId": 4079,
            "contract": "contracts/vaults/FortiFiMASSVault.sol:FortiFiMASSVault",
            "label": "depositToken",
            "offset": 0,
            "slot": "1",
            "type": "t_address"
          },
          {
            "astId": 4081,
            "contract": "contracts/vaults/FortiFiMASSVault.sol:FortiFiMASSVault",
            "label": "router",
            "offset": 0,
            "slot": "2",
            "type": "t_address"
          },
          {
            "astId": 4083,
            "contract": "contracts/vaults/FortiFiMASSVault.sol:FortiFiMASSVault",
            "label": "oracle",
            "offset": 0,
            "slot": "3",
            "type": "t_address"
          },
          {
            "astId": 4085,
            "contract": "contracts/vaults/FortiFiMASSVault.sol:FortiFiMASSVault",
            "label": "isFortiFi",
            "offset": 20,
            "slot": "3",
            "type": "t_bool"
          },
          {
            "astId": 4087,
            "contract": "contracts/vaults/FortiFiMASSVault.sol:FortiFiMASSVault",
            "label": "isSAMS",
            "offset": 21,
            "slot": "3",
            "type": "t_bool"
          },
          {
            "astId": 4089,
            "contract": "contracts/vaults/FortiFiMASSVault.sol:FortiFiMASSVault",
            "label": "bps",
            "offset": 22,
            "slot": "3",
            "type": "t_uint16"
          },
          {
            "astId": 4091,
            "contract": "contracts/vaults/FortiFiMASSVault.sol:FortiFiMASSVault",
            "label": "decimals",
            "offset": 24,
            "slot": "3",
            "type": "t_uint8"
          }
        ],
        "numberOfBytes": "128"
      },
      "t_struct(TokenInfo)4105_storage": {
        "encoding": "inplace",
        "label": "struct IMASS.TokenInfo",
        "members": [
          {
            "astId": 4100,
            "contract": "contracts/vaults/FortiFiMASSVault.sol:FortiFiMASSVault",
            "label": "deposit",
            "offset": 0,
            "slot": "0",
            "type": "t_uint256"
          },
          {
            "astId": 4104,
            "contract": "contracts/vaults/FortiFiMASSVault.sol:FortiFiMASSVault",
            "label": "positions",
            "offset": 0,
            "slot": "1",
            "type": "t_array(t_struct(Position)4098_storage)dyn_storage"
          }
        ],
        "numberOfBytes": "64"
      },
      "t_uint16": {
        "encoding": "inplace",
        "label": "uint16",
        "numberOfBytes": "2"
      },
      "t_uint256": {
        "encoding": "inplace",
        "label": "uint256",
        "numberOfBytes": "32"
      },
      "t_uint8": {
        "encoding": "inplace",
        "label": "uint8",
        "numberOfBytes": "1"
      }
    }
  }
}