{
  "address": "0x3158FCed590D82dDCefD3De5DA3B04d5BAD56D7E",
  "abi": [
    {
      "inputs": [
        {
          "internalType": "string",
          "name": "_name",
          "type": "string"
        },
        {
          "internalType": "string",
          "name": "_symbol",
          "type": "string"
        },
        {
          "internalType": "string",
          "name": "_metadata",
          "type": "string"
        },
        {
          "internalType": "address",
          "name": "_wrappedNative",
          "type": "address"
        },
        {
          "internalType": "address",
          "name": "_depositToken",
          "type": "address"
        },
        {
          "internalType": "address",
          "name": "_feeManager",
          "type": "address"
        },
        {
          "internalType": "address",
          "name": "_feeCalculator",
          "type": "address"
        },
        {
          "components": [
            {
              "internalType": "address",
              "name": "strategy",
              "type": "address"
            },
            {
              "internalType": "address",
              "name": "depositToken",
              "type": "address"
            },
            {
              "internalType": "address",
              "name": "router",
              "type": "address"
            },
            {
              "internalType": "bool",
              "name": "isFortiFi",
              "type": "bool"
            },
            {
              "internalType": "bool",
              "name": "isSAMS",
              "type": "bool"
            },
            {
              "internalType": "uint16",
              "name": "bps",
              "type": "uint16"
            }
          ],
          "internalType": "struct IMASS.Strategy[]",
          "name": "_strategies",
          "type": "tuple[]"
        }
      ],
      "stateMutability": "nonpayable",
      "type": "constructor"
    },
    {
      "anonymous": false,
      "inputs": [
        {
          "indexed": true,
          "internalType": "address",
          "name": "depositor",
          "type": "address"
        },
        {
          "indexed": true,
          "internalType": "uint256",
          "name": "tokenId",
          "type": "uint256"
        },
        {
          "indexed": false,
          "internalType": "uint256",
          "name": "amount",
          "type": "uint256"
        },
        {
          "components": [
            {
              "internalType": "uint256",
              "name": "deposit",
              "type": "uint256"
            },
            {
              "components": [
                {
                  "components": [
                    {
                      "internalType": "address",
                      "name": "strategy",
                      "type": "address"
                    },
                    {
                      "internalType": "address",
                      "name": "depositToken",
                      "type": "address"
                    },
                    {
                      "internalType": "address",
                      "name": "router",
                      "type": "address"
                    },
                    {
                      "internalType": "bool",
                      "name": "isFortiFi",
                      "type": "bool"
                    },
                    {
                      "internalType": "bool",
                      "name": "isSAMS",
                      "type": "bool"
                    },
                    {
                      "internalType": "uint16",
                      "name": "bps",
                      "type": "uint16"
                    }
                  ],
                  "internalType": "struct IMASS.Strategy",
                  "name": "strategy",
                  "type": "tuple"
                },
                {
                  "internalType": "uint256",
                  "name": "receipt",
                  "type": "uint256"
                }
              ],
              "internalType": "struct IMASS.Position[]",
              "name": "positions",
              "type": "tuple[]"
            }
          ],
          "indexed": false,
          "internalType": "struct IMASS.TokenInfo",
          "name": "tokenInfo",
          "type": "tuple"
        }
      ],
      "name": "Add",
      "type": "event"
    },
    {
      "anonymous": false,
      "inputs": [
        {
          "indexed": true,
          "internalType": "address",
          "name": "account",
          "type": "address"
        },
        {
          "indexed": true,
          "internalType": "address",
          "name": "operator",
          "type": "address"
        },
        {
          "indexed": false,
          "internalType": "bool",
          "name": "approved",
          "type": "bool"
        }
      ],
      "name": "ApprovalForAll",
      "type": "event"
    },
    {
      "anonymous": false,
      "inputs": [
        {
          "indexed": true,
          "internalType": "address",
          "name": "depositor",
          "type": "address"
        },
        {
          "indexed": true,
          "internalType": "uint256",
          "name": "tokenId",
          "type": "uint256"
        },
        {
          "indexed": false,
          "internalType": "uint256",
          "name": "amount",
          "type": "uint256"
        },
        {
          "components": [
            {
              "internalType": "uint256",
              "name": "deposit",
              "type": "uint256"
            },
            {
              "components": [
                {
                  "components": [
                    {
                      "internalType": "address",
                      "name": "strategy",
                      "type": "address"
                    },
                    {
                      "internalType": "address",
                      "name": "depositToken",
                      "type": "address"
                    },
                    {
                      "internalType": "address",
                      "name": "router",
                      "type": "address"
                    },
                    {
                      "internalType": "bool",
                      "name": "isFortiFi",
                      "type": "bool"
                    },
                    {
                      "internalType": "bool",
                      "name": "isSAMS",
                      "type": "bool"
                    },
                    {
                      "internalType": "uint16",
                      "name": "bps",
                      "type": "uint16"
                    }
                  ],
                  "internalType": "struct IMASS.Strategy",
                  "name": "strategy",
                  "type": "tuple"
                },
                {
                  "internalType": "uint256",
                  "name": "receipt",
                  "type": "uint256"
                }
              ],
              "internalType": "struct IMASS.Position[]",
              "name": "positions",
              "type": "tuple[]"
            }
          ],
          "indexed": false,
          "internalType": "struct IMASS.TokenInfo",
          "name": "tokenInfo",
          "type": "tuple"
        }
      ],
      "name": "Deposit",
      "type": "event"
    },
    {
      "anonymous": false,
      "inputs": [
        {
          "indexed": true,
          "internalType": "address",
          "name": "previousOwner",
          "type": "address"
        },
        {
          "indexed": true,
          "internalType": "address",
          "name": "newOwner",
          "type": "address"
        }
      ],
      "name": "OwnershipTransferred",
      "type": "event"
    },
    {
      "anonymous": false,
      "inputs": [
        {
          "indexed": true,
          "internalType": "uint256",
          "name": "tokenId",
          "type": "uint256"
        },
        {
          "indexed": false,
          "internalType": "uint256",
          "name": "amount",
          "type": "uint256"
        },
        {
          "components": [
            {
              "internalType": "uint256",
              "name": "deposit",
              "type": "uint256"
            },
            {
              "components": [
                {
                  "components": [
                    {
                      "internalType": "address",
                      "name": "strategy",
                      "type": "address"
                    },
                    {
                      "internalType": "address",
                      "name": "depositToken",
                      "type": "address"
                    },
                    {
                      "internalType": "address",
                      "name": "router",
                      "type": "address"
                    },
                    {
                      "internalType": "bool",
                      "name": "isFortiFi",
                      "type": "bool"
                    },
                    {
                      "internalType": "bool",
                      "name": "isSAMS",
                      "type": "bool"
                    },
                    {
                      "internalType": "uint16",
                      "name": "bps",
                      "type": "uint16"
                    }
                  ],
                  "internalType": "struct IMASS.Strategy",
                  "name": "strategy",
                  "type": "tuple"
                },
                {
                  "internalType": "uint256",
                  "name": "receipt",
                  "type": "uint256"
                }
              ],
              "internalType": "struct IMASS.Position[]",
              "name": "positions",
              "type": "tuple[]"
            }
          ],
          "indexed": false,
          "internalType": "struct IMASS.TokenInfo",
          "name": "tokenInfo",
          "type": "tuple"
        }
      ],
      "name": "Rebalance",
      "type": "event"
    },
    {
      "anonymous": false,
      "inputs": [
        {
          "indexed": true,
          "internalType": "address",
          "name": "operator",
          "type": "address"
        },
        {
          "indexed": true,
          "internalType": "address",
          "name": "from",
          "type": "address"
        },
        {
          "indexed": true,
          "internalType": "address",
          "name": "to",
          "type": "address"
        },
        {
          "indexed": false,
          "internalType": "uint256[]",
          "name": "ids",
          "type": "uint256[]"
        },
        {
          "indexed": false,
          "internalType": "uint256[]",
          "name": "values",
          "type": "uint256[]"
        }
      ],
      "name": "TransferBatch",
      "type": "event"
    },
    {
      "anonymous": false,
      "inputs": [
        {
          "indexed": true,
          "internalType": "address",
          "name": "operator",
          "type": "address"
        },
        {
          "indexed": true,
          "internalType": "address",
          "name": "from",
          "type": "address"
        },
        {
          "indexed": true,
          "internalType": "address",
          "name": "to",
          "type": "address"
        },
        {
          "indexed": false,
          "internalType": "uint256",
          "name": "id",
          "type": "uint256"
        },
        {
          "indexed": false,
          "internalType": "uint256",
          "name": "value",
          "type": "uint256"
        }
      ],
      "name": "TransferSingle",
      "type": "event"
    },
    {
      "anonymous": false,
      "inputs": [
        {
          "indexed": false,
          "internalType": "string",
          "name": "value",
          "type": "string"
        },
        {
          "indexed": true,
          "internalType": "uint256",
          "name": "id",
          "type": "uint256"
        }
      ],
      "name": "URI",
      "type": "event"
    },
    {
      "anonymous": false,
      "inputs": [
        {
          "indexed": true,
          "internalType": "address",
          "name": "depositor",
          "type": "address"
        },
        {
          "indexed": true,
          "internalType": "uint256",
          "name": "tokenId",
          "type": "uint256"
        },
        {
          "indexed": false,
          "internalType": "uint256",
          "name": "amountWithdrawn",
          "type": "uint256"
        },
        {
          "indexed": false,
          "internalType": "uint256",
          "name": "profit",
          "type": "uint256"
        },
        {
          "indexed": false,
          "internalType": "uint256",
          "name": "fee",
          "type": "uint256"
        }
      ],
      "name": "Withdrawal",
      "type": "event"
    },
    {
      "inputs": [],
      "name": "BPS",
      "outputs": [
        {
          "internalType": "uint16",
          "name": "",
          "type": "uint16"
        }
      ],
      "stateMutability": "view",
      "type": "function"
    },
    {
      "inputs": [
        {
          "internalType": "uint256",
          "name": "_amount",
          "type": "uint256"
        },
        {
          "internalType": "uint256",
          "name": "_tokenId",
          "type": "uint256"
        }
      ],
      "name": "add",
      "outputs": [
        {
          "components": [
            {
              "internalType": "uint256",
              "name": "deposit",
              "type": "uint256"
            },
            {
              "components": [
                {
                  "components": [
                    {
                      "internalType": "address",
                      "name": "strategy",
                      "type": "address"
                    },
                    {
                      "internalType": "address",
                      "name": "depositToken",
                      "type": "address"
                    },
                    {
                      "internalType": "address",
                      "name": "router",
                      "type": "address"
                    },
                    {
                      "internalType": "bool",
                      "name": "isFortiFi",
                      "type": "bool"
                    },
                    {
                      "internalType": "bool",
                      "name": "isSAMS",
                      "type": "bool"
                    },
                    {
                      "internalType": "uint16",
                      "name": "bps",
                      "type": "uint16"
                    }
                  ],
                  "internalType": "struct IMASS.Strategy",
                  "name": "strategy",
                  "type": "tuple"
                },
                {
                  "internalType": "uint256",
                  "name": "receipt",
                  "type": "uint256"
                }
              ],
              "internalType": "struct IMASS.Position[]",
              "name": "positions",
              "type": "tuple[]"
            }
          ],
          "internalType": "struct IMASS.TokenInfo",
          "name": "_info",
          "type": "tuple"
        }
      ],
      "stateMutability": "nonpayable",
      "type": "function"
    },
    {
      "inputs": [
        {
          "internalType": "address",
          "name": "account",
          "type": "address"
        },
        {
          "internalType": "uint256",
          "name": "id",
          "type": "uint256"
        }
      ],
      "name": "balanceOf",
      "outputs": [
        {
          "internalType": "uint256",
          "name": "",
          "type": "uint256"
        }
      ],
      "stateMutability": "view",
      "type": "function"
    },
    {
      "inputs": [
        {
          "internalType": "address[]",
          "name": "accounts",
          "type": "address[]"
        },
        {
          "internalType": "uint256[]",
          "name": "ids",
          "type": "uint256[]"
        }
      ],
      "name": "balanceOfBatch",
      "outputs": [
        {
          "internalType": "uint256[]",
          "name": "",
          "type": "uint256[]"
        }
      ],
      "stateMutability": "view",
      "type": "function"
    },
    {
      "inputs": [
        {
          "internalType": "uint256",
          "name": "_amount",
          "type": "uint256"
        }
      ],
      "name": "deposit",
      "outputs": [
        {
          "internalType": "uint256",
          "name": "_tokenId",
          "type": "uint256"
        },
        {
          "components": [
            {
              "internalType": "uint256",
              "name": "deposit",
              "type": "uint256"
            },
            {
              "components": [
                {
                  "components": [
                    {
                      "internalType": "address",
                      "name": "strategy",
                      "type": "address"
                    },
                    {
                      "internalType": "address",
                      "name": "depositToken",
                      "type": "address"
                    },
                    {
                      "internalType": "address",
                      "name": "router",
                      "type": "address"
                    },
                    {
                      "internalType": "bool",
                      "name": "isFortiFi",
                      "type": "bool"
                    },
                    {
                      "internalType": "bool",
                      "name": "isSAMS",
                      "type": "bool"
                    },
                    {
                      "internalType": "uint16",
                      "name": "bps",
                      "type": "uint16"
                    }
                  ],
                  "internalType": "struct IMASS.Strategy",
                  "name": "strategy",
                  "type": "tuple"
                },
                {
                  "internalType": "uint256",
                  "name": "receipt",
                  "type": "uint256"
                }
              ],
              "internalType": "struct IMASS.Position[]",
              "name": "positions",
              "type": "tuple[]"
            }
          ],
          "internalType": "struct IMASS.TokenInfo",
          "name": "_info",
          "type": "tuple"
        }
      ],
      "stateMutability": "nonpayable",
      "type": "function"
    },
    {
      "inputs": [],
      "name": "depositToken",
      "outputs": [
        {
          "internalType": "address",
          "name": "",
          "type": "address"
        }
      ],
      "stateMutability": "view",
      "type": "function"
    },
    {
      "inputs": [
        {
          "internalType": "uint256",
          "name": "id",
          "type": "uint256"
        }
      ],
      "name": "exists",
      "outputs": [
        {
          "internalType": "bool",
          "name": "",
          "type": "bool"
        }
      ],
      "stateMutability": "view",
      "type": "function"
    },
    {
      "inputs": [],
      "name": "feeCalc",
      "outputs": [
        {
          "internalType": "contract IFortiFiFeeCalculator",
          "name": "",
          "type": "address"
        }
      ],
      "stateMutability": "view",
      "type": "function"
    },
    {
      "inputs": [],
      "name": "feeMgr",
      "outputs": [
        {
          "internalType": "contract IFortiFiFeeManager",
          "name": "",
          "type": "address"
        }
      ],
      "stateMutability": "view",
      "type": "function"
    },
    {
      "inputs": [],
      "name": "flipPaused",
      "outputs": [],
      "stateMutability": "nonpayable",
      "type": "function"
    },
    {
      "inputs": [],
      "name": "getStrategies",
      "outputs": [
        {
          "components": [
            {
              "internalType": "address",
              "name": "strategy",
              "type": "address"
            },
            {
              "internalType": "address",
              "name": "depositToken",
              "type": "address"
            },
            {
              "internalType": "address",
              "name": "router",
              "type": "address"
            },
            {
              "internalType": "bool",
              "name": "isFortiFi",
              "type": "bool"
            },
            {
              "internalType": "bool",
              "name": "isSAMS",
              "type": "bool"
            },
            {
              "internalType": "uint16",
              "name": "bps",
              "type": "uint16"
            }
          ],
          "internalType": "struct IMASS.Strategy[]",
          "name": "",
          "type": "tuple[]"
        }
      ],
      "stateMutability": "view",
      "type": "function"
    },
    {
      "inputs": [
        {
          "internalType": "uint256",
          "name": "_tokenId",
          "type": "uint256"
        }
      ],
      "name": "getTokenInfo",
      "outputs": [
        {
          "components": [
            {
              "internalType": "uint256",
              "name": "deposit",
              "type": "uint256"
            },
            {
              "components": [
                {
                  "components": [
                    {
                      "internalType": "address",
                      "name": "strategy",
                      "type": "address"
                    },
                    {
                      "internalType": "address",
                      "name": "depositToken",
                      "type": "address"
                    },
                    {
                      "internalType": "address",
                      "name": "router",
                      "type": "address"
                    },
                    {
                      "internalType": "bool",
                      "name": "isFortiFi",
                      "type": "bool"
                    },
                    {
                      "internalType": "bool",
                      "name": "isSAMS",
                      "type": "bool"
                    },
                    {
                      "internalType": "uint16",
                      "name": "bps",
                      "type": "uint16"
                    }
                  ],
                  "internalType": "struct IMASS.Strategy",
                  "name": "strategy",
                  "type": "tuple"
                },
                {
                  "internalType": "uint256",
                  "name": "receipt",
                  "type": "uint256"
                }
              ],
              "internalType": "struct IMASS.Position[]",
              "name": "positions",
              "type": "tuple[]"
            }
          ],
          "internalType": "struct IMASS.TokenInfo",
          "name": "",
          "type": "tuple"
        }
      ],
      "stateMutability": "view",
      "type": "function"
    },
    {
      "inputs": [
        {
          "internalType": "address",
          "name": "account",
          "type": "address"
        },
        {
          "internalType": "address",
          "name": "operator",
          "type": "address"
        }
      ],
      "name": "isApprovedForAll",
      "outputs": [
        {
          "internalType": "bool",
          "name": "",
          "type": "bool"
        }
      ],
      "stateMutability": "view",
      "type": "function"
    },
    {
      "inputs": [],
      "name": "minDeposit",
      "outputs": [
        {
          "internalType": "uint256",
          "name": "",
          "type": "uint256"
        }
      ],
      "stateMutability": "view",
      "type": "function"
    },
    {
      "inputs": [],
      "name": "name",
      "outputs": [
        {
          "internalType": "string",
          "name": "",
          "type": "string"
        }
      ],
      "stateMutability": "view",
      "type": "function"
    },
    {
      "inputs": [],
      "name": "nextToken",
      "outputs": [
        {
          "internalType": "uint256",
          "name": "",
          "type": "uint256"
        }
      ],
      "stateMutability": "view",
      "type": "function"
    },
    {
      "inputs": [
        {
          "internalType": "address",
          "name": "",
          "type": "address"
        },
        {
          "internalType": "address",
          "name": "",
          "type": "address"
        },
        {
          "internalType": "uint256[]",
          "name": "",
          "type": "uint256[]"
        },
        {
          "internalType": "uint256[]",
          "name": "",
          "type": "uint256[]"
        },
        {
          "internalType": "bytes",
          "name": "",
          "type": "bytes"
        }
      ],
      "name": "onERC1155BatchReceived",
      "outputs": [
        {
          "internalType": "bytes4",
          "name": "",
          "type": "bytes4"
        }
      ],
      "stateMutability": "nonpayable",
      "type": "function"
    },
    {
      "inputs": [
        {
          "internalType": "address",
          "name": "",
          "type": "address"
        },
        {
          "internalType": "address",
          "name": "",
          "type": "address"
        },
        {
          "internalType": "uint256",
          "name": "",
          "type": "uint256"
        },
        {
          "internalType": "uint256",
          "name": "",
          "type": "uint256"
        },
        {
          "internalType": "bytes",
          "name": "",
          "type": "bytes"
        }
      ],
      "name": "onERC1155Received",
      "outputs": [
        {
          "internalType": "bytes4",
          "name": "",
          "type": "bytes4"
        }
      ],
      "stateMutability": "nonpayable",
      "type": "function"
    },
    {
      "inputs": [],
      "name": "owner",
      "outputs": [
        {
          "internalType": "address",
          "name": "",
          "type": "address"
        }
      ],
      "stateMutability": "view",
      "type": "function"
    },
    {
      "inputs": [],
      "name": "paused",
      "outputs": [
        {
          "internalType": "bool",
          "name": "",
          "type": "bool"
        }
      ],
      "stateMutability": "view",
      "type": "function"
    },
    {
      "inputs": [
        {
          "internalType": "uint256",
          "name": "_tokenId",
          "type": "uint256"
        }
      ],
      "name": "rebalance",
      "outputs": [
        {
          "components": [
            {
              "internalType": "uint256",
              "name": "deposit",
              "type": "uint256"
            },
            {
              "components": [
                {
                  "components": [
                    {
                      "internalType": "address",
                      "name": "strategy",
                      "type": "address"
                    },
                    {
                      "internalType": "address",
                      "name": "depositToken",
                      "type": "address"
                    },
                    {
                      "internalType": "address",
                      "name": "router",
                      "type": "address"
                    },
                    {
                      "internalType": "bool",
                      "name": "isFortiFi",
                      "type": "bool"
                    },
                    {
                      "internalType": "bool",
                      "name": "isSAMS",
                      "type": "bool"
                    },
                    {
                      "internalType": "uint16",
                      "name": "bps",
                      "type": "uint16"
                    }
                  ],
                  "internalType": "struct IMASS.Strategy",
                  "name": "strategy",
                  "type": "tuple"
                },
                {
                  "internalType": "uint256",
                  "name": "receipt",
                  "type": "uint256"
                }
              ],
              "internalType": "struct IMASS.Position[]",
              "name": "positions",
              "type": "tuple[]"
            }
          ],
          "internalType": "struct IMASS.TokenInfo",
          "name": "",
          "type": "tuple"
        }
      ],
      "stateMutability": "nonpayable",
      "type": "function"
    },
    {
      "inputs": [
        {
          "internalType": "address",
          "name": "_token",
          "type": "address"
        },
        {
          "internalType": "uint256[]",
          "name": "_tokenIds",
          "type": "uint256[]"
        },
        {
          "internalType": "uint256[]",
          "name": "_amounts",
          "type": "uint256[]"
        }
      ],
      "name": "recoverERC1155",
      "outputs": [],
      "stateMutability": "nonpayable",
      "type": "function"
    },
    {
      "inputs": [
        {
          "internalType": "address",
          "name": "_token",
          "type": "address"
        },
        {
          "internalType": "uint256",
          "name": "_amount",
          "type": "uint256"
        }
      ],
      "name": "recoverERC20",
      "outputs": [],
      "stateMutability": "nonpayable",
      "type": "function"
    },
    {
      "inputs": [],
      "name": "refreshApprovals",
      "outputs": [],
      "stateMutability": "nonpayable",
      "type": "function"
    },
    {
      "inputs": [],
      "name": "renounceOwnership",
      "outputs": [],
      "stateMutability": "nonpayable",
      "type": "function"
    },
    {
      "inputs": [
        {
          "internalType": "address",
          "name": "from",
          "type": "address"
        },
        {
          "internalType": "address",
          "name": "to",
          "type": "address"
        },
        {
          "internalType": "uint256[]",
          "name": "ids",
          "type": "uint256[]"
        },
        {
          "internalType": "uint256[]",
          "name": "amounts",
          "type": "uint256[]"
        },
        {
          "internalType": "bytes",
          "name": "data",
          "type": "bytes"
        }
      ],
      "name": "safeBatchTransferFrom",
      "outputs": [],
      "stateMutability": "nonpayable",
      "type": "function"
    },
    {
      "inputs": [
        {
          "internalType": "address",
          "name": "from",
          "type": "address"
        },
        {
          "internalType": "address",
          "name": "to",
          "type": "address"
        },
        {
          "internalType": "uint256",
          "name": "id",
          "type": "uint256"
        },
        {
          "internalType": "uint256",
          "name": "amount",
          "type": "uint256"
        },
        {
          "internalType": "bytes",
          "name": "data",
          "type": "bytes"
        }
      ],
      "name": "safeTransferFrom",
      "outputs": [],
      "stateMutability": "nonpayable",
      "type": "function"
    },
    {
      "inputs": [
        {
          "internalType": "address",
          "name": "operator",
          "type": "address"
        },
        {
          "internalType": "bool",
          "name": "approved",
          "type": "bool"
        }
      ],
      "name": "setApprovalForAll",
      "outputs": [],
      "stateMutability": "nonpayable",
      "type": "function"
    },
    {
      "inputs": [
        {
          "internalType": "address",
          "name": "_contract",
          "type": "address"
        }
      ],
      "name": "setFeeCalculator",
      "outputs": [],
      "stateMutability": "nonpayable",
      "type": "function"
    },
    {
      "inputs": [
        {
          "internalType": "address",
          "name": "_contract",
          "type": "address"
        }
      ],
      "name": "setFeeManager",
      "outputs": [],
      "stateMutability": "nonpayable",
      "type": "function"
    },
    {
      "inputs": [
        {
          "internalType": "uint256",
          "name": "_amount",
          "type": "uint256"
        }
      ],
      "name": "setMinDeposit",
      "outputs": [],
      "stateMutability": "nonpayable",
      "type": "function"
    },
    {
      "inputs": [
        {
          "internalType": "uint16",
          "name": "_amount",
          "type": "uint16"
        }
      ],
      "name": "setSlippage",
      "outputs": [],
      "stateMutability": "nonpayable",
      "type": "function"
    },
    {
      "inputs": [
        {
          "components": [
            {
              "internalType": "address",
              "name": "strategy",
              "type": "address"
            },
            {
              "internalType": "address",
              "name": "depositToken",
              "type": "address"
            },
            {
              "internalType": "address",
              "name": "router",
              "type": "address"
            },
            {
              "internalType": "bool",
              "name": "isFortiFi",
              "type": "bool"
            },
            {
              "internalType": "bool",
              "name": "isSAMS",
              "type": "bool"
            },
            {
              "internalType": "uint16",
              "name": "bps",
              "type": "uint16"
            }
          ],
          "internalType": "struct IMASS.Strategy[]",
          "name": "_strategies",
          "type": "tuple[]"
        }
      ],
      "name": "setStrategies",
      "outputs": [],
      "stateMutability": "nonpayable",
      "type": "function"
    },
    {
      "inputs": [],
      "name": "slippageBps",
      "outputs": [
        {
          "internalType": "uint16",
          "name": "",
          "type": "uint16"
        }
      ],
      "stateMutability": "view",
      "type": "function"
    },
    {
      "inputs": [
        {
          "internalType": "uint256",
          "name": "",
          "type": "uint256"
        }
      ],
      "name": "strategies",
      "outputs": [
        {
          "internalType": "address",
          "name": "strategy",
          "type": "address"
        },
        {
          "internalType": "address",
          "name": "depositToken",
          "type": "address"
        },
        {
          "internalType": "address",
          "name": "router",
          "type": "address"
        },
        {
          "internalType": "bool",
          "name": "isFortiFi",
          "type": "bool"
        },
        {
          "internalType": "bool",
          "name": "isSAMS",
          "type": "bool"
        },
        {
          "internalType": "uint16",
          "name": "bps",
          "type": "uint16"
        }
      ],
      "stateMutability": "view",
      "type": "function"
    },
    {
      "inputs": [
        {
          "internalType": "bytes4",
          "name": "interfaceId",
          "type": "bytes4"
        }
      ],
      "name": "supportsInterface",
      "outputs": [
        {
          "internalType": "bool",
          "name": "",
          "type": "bool"
        }
      ],
      "stateMutability": "view",
      "type": "function"
    },
    {
      "inputs": [],
      "name": "symbol",
      "outputs": [
        {
          "internalType": "string",
          "name": "",
          "type": "string"
        }
      ],
      "stateMutability": "view",
      "type": "function"
    },
    {
      "inputs": [
        {
          "internalType": "uint256",
          "name": "id",
          "type": "uint256"
        }
      ],
      "name": "totalSupply",
      "outputs": [
        {
          "internalType": "uint256",
          "name": "",
          "type": "uint256"
        }
      ],
      "stateMutability": "view",
      "type": "function"
    },
    {
      "inputs": [
        {
          "internalType": "address",
          "name": "newOwner",
          "type": "address"
        }
      ],
      "name": "transferOwnership",
      "outputs": [],
      "stateMutability": "nonpayable",
      "type": "function"
    },
    {
      "inputs": [
        {
          "internalType": "uint256",
          "name": "",
          "type": "uint256"
        }
      ],
      "name": "uri",
      "outputs": [
        {
          "internalType": "string",
          "name": "",
          "type": "string"
        }
      ],
      "stateMutability": "view",
      "type": "function"
    },
    {
      "inputs": [
        {
          "internalType": "uint256",
          "name": "_tokenId",
          "type": "uint256"
        }
      ],
      "name": "withdraw",
      "outputs": [],
      "stateMutability": "nonpayable",
      "type": "function"
    },
    {
      "inputs": [],
      "name": "wrappedNative",
      "outputs": [
        {
          "internalType": "address",
          "name": "",
          "type": "address"
        }
      ],
      "stateMutability": "view",
      "type": "function"
    },
    {
      "stateMutability": "payable",
      "type": "receive"
    }
  ],
  "transactionHash": "0x1739c4f37d3f3d491cd1de5e4de245cfd199b98feaa9a38a317a9546416bcee2",
  "args": [
    "Test MASS - BTCb-USDC",
    "tmBTCbUSDC",
    "https://ipfs.io/ipfs/bafybeign4hbi6desilmocupj3hlxj3t3eiodr2sro5bgw7ld7vcznttuja/SAMS_BTCb.png",
    "0xB31f66AA3C1e785363F0875A1B74E27b85FD66c7",
    "0xB97EF9Ef8734C71904D8002F8b6Bc66Dd9c48a6E",
    "0xf0F55E8C9E23c627b253876F3B4Bf1Ef3eBA4Db0",
    "0x03d8137b35206Dda7d6313Ba0FDE02EC4c265414",
    [
      {
        "strategy": "0xf9cD4Db17a3FB8bc9ec0CbB34780C91cE13ce767",
        "depositToken": "0x152b9d0FdC40C096757F570A51E494bd4b943E50",
        "router": "0x60aE616a2155Ee3d9A68541Ba4544862310933d4",
        "isFortiFi": false,
        "isSAMS": false,
        "bps": 5000
      },
      {
        "strategy": "0x33aB93b73d45d680f6Ffb6c7915cf20fbac9a11D",
        "depositToken": "0xB97EF9Ef8734C71904D8002F8b6Bc66Dd9c48a6E",
        "router": "0x60aE616a2155Ee3d9A68541Ba4544862310933d4",
        "isFortiFi": false,
        "isSAMS": true,
        "bps": 5000
      }
    ]
  ],
  "numDeployments": 7,
  "solcInputHash": "ad2ec584915e04d3196f7ecea5992ba8",
  "bytecode": "0x60c06040526008805461ffff191660641790556175306009556001600a819055600b805460ff191690911790553480156200003957600080fd5b5060405162006a1c38038062006a1c8339810160408190526200005c9162000cbc565b85620000688162000258565b5062000074336200026a565b60016005556001600160a01b038516620000d55760405162461bcd60e51b815260206004820152601d60248201527f466f72746946693a20496e76616c6964206e617469766520746f6b656e00000060448201526064015b60405180910390fd5b6001600160a01b0384166200012d5760405162461bcd60e51b815260206004820152601e60248201527f466f72746946693a20496e76616c6964206465706f73697420746f6b656e00006044820152606401620000cc565b6001600160a01b038316620001855760405162461bcd60e51b815260206004820152601b60248201527f466f72746946693a20496e76616c6964206665654d616e6167657200000000006044820152606401620000cc565b6001600160a01b038216620001dd5760405162461bcd60e51b815260206004820152601e60248201527f466f72746946693a20496e76616c69642066656543616c63756c61746f7200006044820152606401620000cc565b6006620001eb898262000e4e565b506007620001fa888262000e4e565b506001600160a01b0385811660a052848116608052600b8054610100600160a81b03191661010085841602179055600c80546001600160a01b0319169185169190911790556200024a81620002bc565b505050505050505062000fb2565b600262000266828262000e4e565b5050565b600480546001600160a01b038381166001600160a01b0319831681179093556040519116919082907f8be0079c531659141344cd1fd0a4f28419497f9722a3daafe3b4186f6b6457e090600090a35050565b6004546001600160a01b03163314620003185760405162461bcd60e51b815260206004820181905260248201527f4f776e61626c653a2063616c6c6572206973206e6f7420746865206f776e65726044820152606401620000cc565b805160ff81166200036c5760405162461bcd60e51b815260206004820152601660248201527f466f72746946693a204e6f2073747261746567696573000000000000000000006044820152606401620000cc565b6000805b8260ff168160ff161015620003c757838160ff168151811062000397576200039762000f1a565b602002602001015160a0015182620003b0919062000f46565b915080620003be8162000f6b565b91505062000370565b5061ffff8116612710146200041f5760405162461bcd60e51b815260206004820152601a60248201527f466f72746946693a20496e76616c696420746f74616c206270730000000000006044820152606401620000cc565b6200042d600d600062000a0d565b60005b8260ff168160ff161015620006c75760006001600160a01b0316848260ff168151811062000462576200046262000f1a565b6020026020010151600001516001600160a01b031603620004c65760405162461bcd60e51b815260206004820152601e60248201527f466f72746946693a20496e76616c6964207374726174206164647265737300006044820152606401620000cc565b60006001600160a01b0316848260ff1681518110620004e957620004e962000f1a565b6020026020010151602001516001600160a01b0316036200054d5760405162461bcd60e51b815260206004820152601e60248201527f466f72746946693a20496e76616c6964204552433230206164647265737300006044820152606401620000cc565b60006001600160a01b0316848260ff168151811062000570576200057062000f1a565b6020026020010151604001516001600160a01b031603620005d45760405162461bcd60e51b815260206004820152601f60248201527f466f72746946693a20496e76616c696420726f757465722061646472657373006044820152606401620000cc565b600d848260ff1681518110620005ee57620005ee62000f1a565b602090810291909101810151825460018181018555600094855293839020825160039092020180546001600160a01b039283166001600160a01b031991821617825593830151948101805495831695909416949094179092556040810151600290930180546060830151608084015160a09094015161ffff16600160b01b0261ffff60b01b19941515600160a81b029490941662ffffff60a81b19911515600160a01b026001600160a81b0319909316969095169590951717939093169190911717905580620006be8162000f6b565b91505062000430565b50620006d2620006d7565b505050565b600d54608051600c5460405163095ea7b360e01b81526001600160a01b03918216600482015260001960248201529082169063095ea7b3906044016020604051808303816000875af115801562000732573d6000803e3d6000fd5b505050506040513d601f19601f8201168201806040525081019062000758919062000f8d565b5060005b8260ff168160ff161015620006d257600d8160ff168154811062000784576200078462000f1a565b906000526020600020906003020160010160009054906101000a90046001600160a01b03166001600160a01b031663095ea7b3600d8360ff1681548110620007d057620007d062000f1a565b600091825260209091206003909102015460405160e083901b6001600160e01b03191681526001600160a01b03909116600482015260001960248201526044016020604051808303816000875af115801562000830573d6000803e3d6000fd5b505050506040513d601f19601f8201168201806040525081019062000856919062000f8d565b50600d8160ff168154811062000870576200087062000f1a565b906000526020600020906003020160010160009054906101000a90046001600160a01b03166001600160a01b031663095ea7b3600d8360ff1681548110620008bc57620008bc62000f1a565b600091825260209091206003909102016002015460405160e083901b6001600160e01b03191681526001600160a01b03909116600482015260001960248201526044016020604051808303816000875af11580156200091f573d6000803e3d6000fd5b505050506040513d601f19601f8201168201806040525081019062000945919062000f8d565b50816001600160a01b031663095ea7b3600d8360ff16815481106200096e576200096e62000f1a565b600091825260209091206003909102016002015460405160e083901b6001600160e01b03191681526001600160a01b03909116600482015260001960248201526044016020604051808303816000875af1158015620009d1573d6000803e3d6000fd5b505050506040513d601f19601f82011682018060405250810190620009f7919062000f8d565b508062000a048162000f6b565b9150506200075c565b508054600082556003029060005260206000209081019062000a30919062000a33565b50565b5b8082111562000a735780546001600160a01b0319908116825560018201805490911690556002810180546001600160c01b031916905560030162000a34565b5090565b634e487b7160e01b600052604160045260246000fd5b60405160c081016001600160401b038111828210171562000ab25762000ab262000a77565b60405290565b604051601f8201601f191681016001600160401b038111828210171562000ae35762000ae362000a77565b604052919050565b600082601f83011262000afd57600080fd5b81516001600160401b0381111562000b195762000b1962000a77565b602062000b2f601f8301601f1916820162000ab8565b828152858284870101111562000b4457600080fd5b60005b8381101562000b6457858101830151828201840152820162000b47565b506000928101909101919091529392505050565b80516001600160a01b038116811462000b9057600080fd5b919050565b8051801515811462000b9057600080fd5b600082601f83011262000bb857600080fd5b815160206001600160401b0382111562000bd65762000bd662000a77565b62000be6818360051b0162000ab8565b82815260c0928302850182019282820191908785111562000c0657600080fd5b8387015b8581101562000caf5781818a03121562000c245760008081fd5b62000c2e62000a8d565b62000c398262000b78565b815262000c4886830162000b78565b86820152604062000c5b81840162000b78565b90820152606062000c6e83820162000b95565b90820152608062000c8183820162000b95565b9082015260a08281015161ffff8116811462000c9d5760008081fd5b90820152845292840192810162000c0a565b5090979650505050505050565b600080600080600080600080610100898b03121562000cda57600080fd5b88516001600160401b038082111562000cf257600080fd5b62000d008c838d0162000aeb565b995060208b015191508082111562000d1757600080fd5b62000d258c838d0162000aeb565b985060408b015191508082111562000d3c57600080fd5b62000d4a8c838d0162000aeb565b975062000d5a60608c0162000b78565b965062000d6a60808c0162000b78565b955062000d7a60a08c0162000b78565b945062000d8a60c08c0162000b78565b935060e08b015191508082111562000da157600080fd5b5062000db08b828c0162000ba6565b9150509295985092959890939650565b600181811c9082168062000dd557607f821691505b60208210810362000df657634e487b7160e01b600052602260045260246000fd5b50919050565b601f821115620006d257600081815260208120601f850160051c8101602086101562000e255750805b601f850160051c820191505b8181101562000e465782815560010162000e31565b505050505050565b81516001600160401b0381111562000e6a5762000e6a62000a77565b62000e828162000e7b845462000dc0565b8462000dfc565b602080601f83116001811462000eba576000841562000ea15750858301515b600019600386901b1c1916600185901b17855562000e46565b600085815260208120601f198616915b8281101562000eeb5788860151825594840194600190910190840162000eca565b508582101562000f0a5787850151600019600388901b60f8161c191681555b5050505050600190811b01905550565b634e487b7160e01b600052603260045260246000fd5b634e487b7160e01b600052601160045260246000fd5b61ffff81811683821601908082111562000f645762000f6462000f30565b5092915050565b600060ff821660ff810362000f845762000f8462000f30565b60010192915050565b60006020828403121562000fa057600080fd5b62000fab8262000b95565b9392505050565b60805160a0516159c662001056600039600081816107df01528181613824015281816138b601528181613dcc01526142710152600081816106fd01528181610c1d01528181610c7b01528181610f0b015281816118b20152818161208201528181612b5d01528181612ca9015281816130f6015281816131710152818161369f0152818161374601528181613e2001528181613fce015261421d01526159c66000f3fe6080604052600436106102545760003560e01c80638c7a63ae11610139578063bc197c81116100b6578063eb6d3a111161007a578063eb6d3a11146107cd578063f23a6e6114610801578063f242432a1461082d578063f2fde38b1461084d578063f49930181461086d578063f7c854691461088d57600080fd5b8063bc197c8114610679578063bd85b039146106be578063c89039c5146106eb578063d574ea3d1461071f578063e985e9c51461078457600080fd5b806395d89b41116100fd57806395d89b41146105d4578063a22cb465146105e9578063ab37fbb714610609578063b49a60bb14610629578063b6b55f251461064b57600080fd5b80638c7a63ae146105405780638da5cb5b146105605780638fcc9cfb1461057e57806390f46a1c1461059e5780639499ac54146105be57600080fd5b8063472d35b9116101d257806363f4229f1161019657806363f4229f14610461578063715018a614610481578063771602f7146104965780638980f11f146104c35780638c4cc0df146104e35780638c66d04f1461052057600080fd5b8063472d35b9146103b05780634e1273f4146103d05780634f558e79146103fd578063578c71d91461042c5780635c975abb1461044757600080fd5b80632e1a7d4d116102195780632e1a7d4d1461032e5780632eb2c2d614610350578063333171bb1461037057806341b3d1851461038557806343d57a641461039b57600080fd5b8062fdd58e1461026057806301ffc9a71461029357806306fdde03146102c35780630e89341c146102e5578063249d39e91461030557600080fd5b3661025b57005b600080fd5b34801561026c57600080fd5b5061028061027b3660046148b0565b6108ad565b6040519081526020015b60405180910390f35b34801561029f57600080fd5b506102b36102ae3660046148f2565b610947565b604051901515815260200161028a565b3480156102cf57600080fd5b506102d8610997565b60405161028a919061495c565b3480156102f157600080fd5b506102d861030036600461496f565b610a25565b34801561031157600080fd5b5061031b61271081565b60405161ffff909116815260200161028a565b34801561033a57600080fd5b5061034e61034936600461496f565b610ab9565b005b34801561035c57600080fd5b5061034e61036b366004614b34565b610e21565b34801561037c57600080fd5b5061034e610eb8565b34801561039157600080fd5b5061028060095481565b3480156103a757600080fd5b5061034e610ef6565b3480156103bc57600080fd5b5061034e6103cb366004614be1565b61122d565b3480156103dc57600080fd5b506103f06103eb366004614bfe565b6112cb565b60405161028a9190614d05565b34801561040957600080fd5b506102b361041836600461496f565b600090815260036020526040902054151590565b34801561043857600080fd5b5060085461031b9061ffff1681565b34801561045357600080fd5b50600b546102b39060ff1681565b34801561046d57600080fd5b5061034e61047c366004614d46565b6113f4565b34801561048d57600080fd5b5061034e6117aa565b3480156104a257600080fd5b506104b66104b1366004614e62565b6117e0565b60405161028a9190614f32565b3480156104cf57600080fd5b5061034e6104de3660046148b0565b611b27565b3480156104ef57600080fd5b50600b546105089061010090046001600160a01b031681565b6040516001600160a01b03909116815260200161028a565b34801561052c57600080fd5b5061034e61053b366004614be1565b611bc2565b34801561054c57600080fd5b506104b661055b36600461496f565b611c66565b34801561056c57600080fd5b506004546001600160a01b0316610508565b34801561058a57600080fd5b5061034e61059936600461496f565b611d73565b3480156105aa57600080fd5b5061034e6105b9366004614f90565b611df3565b3480156105ca57600080fd5b50610280600a5481565b3480156105e057600080fd5b506102d8611e8c565b3480156105f557600080fd5b5061034e610604366004615012565b611e99565b34801561061557600080fd5b5061034e61062436600461504b565b611ea8565b34801561063557600080fd5b5061063e611eea565b60405161028a9190615068565b34801561065757600080fd5b5061066b61066636600461496f565b611fa6565b60405161028a9291906150b6565b34801561068557600080fd5b506106a5610694366004614b34565b63bc197c8160e01b95945050505050565b6040516001600160e01b0319909116815260200161028a565b3480156106ca57600080fd5b506102806106d936600461496f565b60009081526003602052604090205490565b3480156106f757600080fd5b506105087f000000000000000000000000000000000000000000000000000000000000000081565b34801561072b57600080fd5b5061073f61073a36600461496f565b6122a9565b604080516001600160a01b03978816815295871660208701529390951692840192909252151560608301521515608082015261ffff90911660a082015260c00161028a565b34801561079057600080fd5b506102b361079f3660046150d7565b6001600160a01b03918216600090815260016020908152604080832093909416825291909152205460ff1690565b3480156107d957600080fd5b506105087f000000000000000000000000000000000000000000000000000000000000000081565b34801561080d57600080fd5b506106a561081c366004615105565b63f23a6e6160e01b95945050505050565b34801561083957600080fd5b5061034e610848366004615105565b612311565b34801561085957600080fd5b5061034e610868366004614be1565b612398565b34801561087957600080fd5b506104b661088836600461496f565b612433565b34801561089957600080fd5b50600c54610508906001600160a01b031681565b60006001600160a01b03831661091e5760405162461bcd60e51b815260206004820152602b60248201527f455243313135353a2062616c616e636520717565727920666f7220746865207a60448201526a65726f206164647265737360a81b60648201526084015b60405180910390fd5b506000818152602081815260408083206001600160a01b03861684529091529020545b92915050565b60006001600160e01b03198216636cdb3d1360e11b148061097857506001600160e01b031982166303a24d0760e21b145b8061094157506301ffc9a760e01b6001600160e01b0319831614610941565b600680546109a49061516d565b80601f01602080910402602001604051908101604052809291908181526020018280546109d09061516d565b8015610a1d5780601f106109f257610100808354040283529160200191610a1d565b820191906000526020600020905b815481529060010190602001808311610a0057829003601f168201915b505050505081565b606060028054610a349061516d565b80601f0160208091040260200160405190810160405280929190818152602001828054610a609061516d565b8015610aad5780601f10610a8257610100808354040283529160200191610aad565b820191906000526020600020905b815481529060010190602001808311610a9057829003601f168201915b50505050509050919050565b600260055403610adb5760405162461bcd60e51b8152600401610915906151a7565b6002600555600b5460ff1615610b035760405162461bcd60e51b8152600401610915906151de565b6000610b0f33836108ad565b11610b5c5760405162461bcd60e51b815260206004820152601f60248201527f466f72746946693a204e6f7420746865206f776e6572206f6620746f6b656e006044820152606401610915565b610b683382600161266f565b600080610b74836127e8565b600b54604051633becdb0560e21b81529294509092506000916101009091046001600160a01b03169063efb36c1490610bb39033908690600401615215565b602060405180830381865afa158015610bd0573d6000803e3d6000fd5b505050506040513d601f19601f82011682018060405250810190610bf4919061522e565b600c5460405163280cff3560e21b81529192506001600160a01b03169063a033fcd490610c47907f0000000000000000000000000000000000000000000000000000000000000000908590600401615215565b600060405180830381600087803b158015610c6157600080fd5b505af1158015610c75573d6000803e3d6000fd5b505050507f00000000000000000000000000000000000000000000000000000000000000006001600160a01b031663a9059cbb338386610cb5919061525d565b6040518363ffffffff1660e01b8152600401610cd2929190615215565b6020604051808303816000875af1158015610cf1573d6000803e3d6000fd5b505050506040513d601f19601f82011682018060405250810190610d159190615270565b610d615760405162461bcd60e51b815260206004820181905260248201527f466f72746946693a204661696c656420746f2073656e642070726f63656564736044820152606401610915565b4715610dd157604051600090339047908381818185875af1925050503d8060008114610da9576040519150601f19603f3d011682016040523d82523d6000602084013e610dae565b606091505b5050905080610dcf5760405162461bcd60e51b81526004016109159061528d565b505b6040805184815260208101849052908101829052849033907f887e73c01568cecc3fe477a39c098f6599306a7592db9c8941dfc71ff9046d069060600160405180910390a3505060016005555050565b6001600160a01b038516331480610e3d5750610e3d853361079f565b610ea45760405162461bcd60e51b815260206004820152603260248201527f455243313135353a207472616e736665722063616c6c6572206973206e6f74206044820152711bdddb995c881b9bdc88185c1c1c9bdd995960721b6064820152608401610915565b610eb18585858585612d47565b5050505050565b6004546001600160a01b03163314610ee25760405162461bcd60e51b8152600401610915906152c2565b600b805460ff19811660ff90911615179055565b600d54600c5460405163095ea7b360e01b81527f0000000000000000000000000000000000000000000000000000000000000000916001600160a01b038084169263095ea7b392610f4f92169060001990600401615215565b6020604051808303816000875af1158015610f6e573d6000803e3d6000fd5b505050506040513d601f19601f82011682018060405250810190610f929190615270565b5060005b8260ff168160ff16101561122857600d8160ff1681548110610fba57610fba6152f7565b906000526020600020906003020160010160009054906101000a90046001600160a01b03166001600160a01b031663095ea7b3600d8360ff1681548110611003576110036152f7565b60009182526020909120600390910201546040516001600160e01b031960e084901b168152611042916001600160a01b03169060001990600401615215565b6020604051808303816000875af1158015611061573d6000803e3d6000fd5b505050506040513d601f19601f820116820180604052508101906110859190615270565b50600d8160ff168154811061109c5761109c6152f7565b906000526020600020906003020160010160009054906101000a90046001600160a01b03166001600160a01b031663095ea7b3600d8360ff16815481106110e5576110e56152f7565b60009182526020909120600260039092020101546040516001600160e01b031960e084901b168152611127916001600160a01b03169060001990600401615215565b6020604051808303816000875af1158015611146573d6000803e3d6000fd5b505050506040513d601f19601f8201168201806040525081019061116a9190615270565b50816001600160a01b031663095ea7b3600d8360ff1681548110611190576111906152f7565b60009182526020909120600260039092020101546040516001600160e01b031960e084901b1681526111d2916001600160a01b03169060001990600401615215565b6020604051808303816000875af11580156111f1573d6000803e3d6000fd5b505050506040513d601f19601f820116820180604052508101906112159190615270565b50806112208161530d565b915050610f96565b505050565b6004546001600160a01b031633146112575760405162461bcd60e51b8152600401610915906152c2565b6001600160a01b0381166112a95760405162461bcd60e51b8152602060048201526019602482015278119bdc9d1a519a4e88125b9d985b1a590818dbdb9d1c9858dd603a1b6044820152606401610915565b600c80546001600160a01b0319166001600160a01b0392909216919091179055565b606081518351146113305760405162461bcd60e51b815260206004820152602960248201527f455243313135353a206163636f756e747320616e6420696473206c656e677468604482015268040dad2e6dac2e8c6d60bb1b6064820152608401610915565b600083516001600160401b0381111561134b5761134b614988565b604051908082528060200260200182016040528015611374578160200160208202803683370190505b50905060005b84518110156113ec576113bf858281518110611398576113986152f7565b60200260200101518583815181106113b2576113b26152f7565b60200260200101516108ad565b8282815181106113d1576113d16152f7565b60209081029190910101526113e58161532c565b905061137a565b509392505050565b6004546001600160a01b0316331461141e5760405162461bcd60e51b8152600401610915906152c2565b805160ff81166114695760405162461bcd60e51b8152602060048201526016602482015275466f72746946693a204e6f207374726174656769657360501b6044820152606401610915565b6000805b8260ff168160ff1610156114bb57838160ff1681518110611490576114906152f7565b602002602001015160a00151826114a79190615345565b9150806114b38161530d565b91505061146d565b5061ffff8116612710146115115760405162461bcd60e51b815260206004820152601a60248201527f466f72746946693a20496e76616c696420746f74616c206270730000000000006044820152606401610915565b61151d600d60006147d2565b60005b8260ff168160ff1610156117a15760006001600160a01b0316848260ff168151811061154e5761154e6152f7565b6020026020010151600001516001600160a01b0316036115b05760405162461bcd60e51b815260206004820152601e60248201527f466f72746946693a20496e76616c6964207374726174206164647265737300006044820152606401610915565b60006001600160a01b0316848260ff16815181106115d0576115d06152f7565b6020026020010151602001516001600160a01b0316036116325760405162461bcd60e51b815260206004820152601e60248201527f466f72746946693a20496e76616c6964204552433230206164647265737300006044820152606401610915565b60006001600160a01b0316848260ff1681518110611652576116526152f7565b6020026020010151604001516001600160a01b0316036116b45760405162461bcd60e51b815260206004820152601f60248201527f466f72746946693a20496e76616c696420726f757465722061646472657373006044820152606401610915565b600d848260ff16815181106116cb576116cb6152f7565b602090810291909101810151825460018181018555600094855293839020825160039092020180546001600160a01b039283166001600160a01b031991821617825593830151948101805495831695909416949094179092556040810151600290930180546060830151608084015160a09094015161ffff16600160b01b0261ffff60b01b19941515600160a81b029490941662ffffff60a81b19911515600160a01b026001600160a81b03199093169690951695909517179390931691909117179055806117998161530d565b915050611520565b50611228610ef6565b6004546001600160a01b031633146117d45760405162461bcd60e51b8152600401610915906152c2565b6117de6000612f32565b565b6040805180820190915260008152606060208201526002600554036118175760405162461bcd60e51b8152600401610915906151a7565b6002600555600b5460ff161561183f5760405162461bcd60e51b8152600401610915906151de565b60095483116118905760405162461bcd60e51b815260206004820152601f60248201527f466f72746946693a20496e76616c6964206465706f73697420616d6f756e74006044820152606401610915565b6040516323b872dd60e01b8152336004820152306024820152604481018490527f0000000000000000000000000000000000000000000000000000000000000000906001600160a01b038216906323b872dd906064016020604051808303816000875af1158015611905573d6000803e3d6000fd5b505050506040513d601f19601f820116820180604052508101906119299190615270565b6119755760405162461bcd60e51b815260206004820152601f60248201527f466f72746946693a204661696c656420746f2078666572206465706f736974006044820152606401610915565b600061198133856108ad565b116119ce5760405162461bcd60e51b815260206004820152601f60248201527f466f72746946693a204e6f7420746865206f776e6572206f6620746f6b656e006044820152606401610915565b6119da84846001612f84565b600e60008481526020019081526020016000206040518060400160405290816000820154815260200160018201805480602002602001604051908101604052809291908181526020016000905b82821015611ac457600084815260209081902060408051610100810182526004860290920180546001600160a01b039081169284019283526001808301548216606086015260028301549182166080860152600160a01b820460ff908116151560a0870152600160a81b830416151560c0860152600160b01b90910461ffff1660e085015291835260030154828401529083529092019101611a27565b50505050815250509150611ad782613687565b82336001600160a01b03167fb050eebe1982ef863f34c665746c99cd7085098cd036aa2d444b3d9efaaeacac8685604051611b139291906150b6565b60405180910390a350600160055592915050565b6004546001600160a01b03163314611b515760405162461bcd60e51b8152600401610915906152c2565b60405163a9059cbb60e01b81526001600160a01b0383169063a9059cbb90611b7f9033908590600401615215565b6020604051808303816000875af1158015611b9e573d6000803e3d6000fd5b505050506040513d601f19601f820116820180604052508101906112289190615270565b6004546001600160a01b03163314611bec5760405162461bcd60e51b8152600401610915906152c2565b6001600160a01b038116611c3e5760405162461bcd60e51b8152602060048201526019602482015278119bdc9d1a519a4e88125b9d985b1a590818dbdb9d1c9858dd603a1b6044820152606401610915565b600b80546001600160a01b0390921661010002610100600160a81b0319909216919091179055565b604080518082019091526000815260606020820152600e60008381526020019081526020016000206040518060400160405290816000820154815260200160018201805480602002602001604051908101604052809291908181526020016000905b82821015611d6557600084815260209081902060408051610100810182526004860290920180546001600160a01b039081169284019283526001808301548216606086015260028301549182166080860152600160a01b820460ff908116151560a0870152600160a81b830416151560c0860152600160b01b90910461ffff1660e085015291835260030154828401529083529092019101611cc8565b505050915250909392505050565b6004546001600160a01b03163314611d9d5760405162461bcd60e51b8152600401610915906152c2565b6175308111611dee5760405162461bcd60e51b815260206004820152601760248201527f466f72746946693a20496e76616c696420616d6f756e740000000000000000006044820152606401610915565b600955565b6004546001600160a01b03163314611e1d5760405162461bcd60e51b8152600401610915906152c2565b604051631759616b60e11b81526001600160a01b03861690632eb2c2d690611e5390309033908990899089908990600401615399565b600060405180830381600087803b158015611e6d57600080fd5b505af1158015611e81573d6000803e3d6000fd5b505050505050505050565b600780546109a49061516d565b611ea43383836139c0565b5050565b6004546001600160a01b03163314611ed25760405162461bcd60e51b8152600401610915906152c2565b6008805461ffff191661ffff92909216919091179055565b6060600d805480602002602001604051908101604052809291908181526020016000905b82821015611f9d5760008481526020908190206040805160c0810182526003860290920180546001600160a01b03908116845260018083015482168587015260029092015490811692840192909252600160a01b820460ff90811615156060850152600160a81b83041615156080840152600160b01b90910461ffff1660a08301529083529092019101611f0e565b50505050905090565b6000611fc5604051806040016040528060008152602001606081525090565b600260055403611fe75760405162461bcd60e51b8152600401610915906151a7565b6002600555600b5460ff161561200f5760405162461bcd60e51b8152600401610915906151de565b60095483116120605760405162461bcd60e51b815260206004820152601f60248201527f466f72746946693a20496e76616c6964206465706f73697420616d6f756e74006044820152606401610915565b6040516323b872dd60e01b8152336004820152306024820152604481018490527f0000000000000000000000000000000000000000000000000000000000000000906001600160a01b038216906323b872dd906064016020604051808303816000875af11580156120d5573d6000803e3d6000fd5b505050506040513d601f19601f820116820180604052508101906120f99190615270565b6121455760405162461bcd60e51b815260206004820152601f60248201527f466f72746946693a204661696c656420746f2078666572206465706f736974006044820152606401610915565b61214d613aa0565b925061215b84846000612f84565b600e60008481526020019081526020016000206040518060400160405290816000820154815260200160018201805480602002602001604051908101604052809291908181526020016000905b8282101561224557600084815260209081902060408051610100810182526004860290920180546001600160a01b039081169284019283526001808301548216606086015260028301549182166080860152600160a01b820460ff908116151560a0870152600160a81b830416151560c0860152600160b01b90910461ffff1660e0850152918352600301548284015290835290920191016121a8565b5050505081525050915061225882613687565b82336001600160a01b03167f58fdb039fd8bd547e29fb3f7ab7c07ada66f5e079af23d14a20db185e2116ac686856040516122949291906150b6565b60405180910390a35060016005559092909150565b600d81815481106122b957600080fd5b60009182526020909120600390910201805460018201546002909201546001600160a01b039182169350918116919081169060ff600160a01b8204811691600160a81b81049091169061ffff600160b01b9091041686565b6001600160a01b03851633148061232d575061232d853361079f565b61238b5760405162461bcd60e51b815260206004820152602960248201527f455243313135353a2063616c6c6572206973206e6f74206f776e6572206e6f7260448201526808185c1c1c9bdd995960ba1b6064820152608401610915565b610eb18585858585613ae0565b6004546001600160a01b031633146123c25760405162461bcd60e51b8152600401610915906152c2565b6001600160a01b0381166124275760405162461bcd60e51b815260206004820152602660248201527f4f776e61626c653a206e6577206f776e657220697320746865207a65726f206160448201526564647265737360d01b6064820152608401610915565b61243081612f32565b50565b60408051808201909152600081526060602082015260026005540361246a5760405162461bcd60e51b8152600401610915906151a7565b6002600555600061247b33846108ad565b11801561248b5750600b5460ff16155b806124a057506004546001600160a01b031633145b6124ec5760405162461bcd60e51b815260206004820152601f60248201527f466f72746946693a20496e76616c6964206d6573736167652073656e646572006044820152606401610915565b6000828152600e602052604081205490612505846127e8565b506000858152600e6020526040812081815591925061252760018301826147f3565b505061253581856000612f84565b6000848152600e60209081526040808320858155815180830183528681526001820180548451818702810187019095528085529194929385840193909290879084015b8282101561261557600084815260209081902060408051610100810182526004860290920180546001600160a01b039081169284019283526001808301548216606086015260028301549182166080860152600160a01b820460ff908116151560a0870152600160a81b830416151560c0860152600160b01b90910461ffff1660e085015291835260030154828401529083529092019101612578565b5050505081525050905061262881613687565b847f38893552d79ebd71dda5859f518700ada5546badd29c35cfd78bd5948e6e847a838360405161265a9291906150b6565b60405180910390a26001600555949350505050565b6001600160a01b0383166126d15760405162461bcd60e51b815260206004820152602360248201527f455243313135353a206275726e2066726f6d20746865207a65726f206164647260448201526265737360e81b6064820152608401610915565b33612700818560006126e287613c0c565b6126eb87613c0c565b60405180602001604052806000815250613c57565b6000838152602081815260408083206001600160a01b03881684529091529020548281101561277d5760405162461bcd60e51b8152602060048201526024808201527f455243313135353a206275726e20616d6f756e7420657863656564732062616c604482015263616e636560e01b6064820152608401610915565b6000848152602081815260408083206001600160a01b03898116808652918452828520888703905582518981529384018890529092908616917fc3d58168c5ae7397731d063d5bbf3d657854427343f4c083240f7aacaa2d0f62910160405180910390a45050505050565b6000806000600e60008581526020019081526020016000206040518060400160405290816000820154815260200160018201805480602002602001604051908101604052809291908181526020016000905b828210156128d757600084815260209081902060408051610100810182526004860290920180546001600160a01b039081169284019283526001808301548216606086015260028301549182166080860152600160a01b820460ff908116151560a0870152600160a81b830416151560c0860152600160b01b90910461ffff1660e08501529183526003015482840152908352909201910161283a565b5050509152505060208101515160009450909150835b8160ff168160ff161015612c935782602001518160ff1681518110612914576129146152f7565b60200260200101516000015160800151156129e057600083602001518260ff1681518110612944576129446152f7565b602002602001015160000151600001519050806001600160a01b0316632e1a7d4d85602001518460ff168151811061297e5761297e6152f7565b6020026020010151602001516040518263ffffffff1660e01b81526004016129a891815260200190565b600060405180830381600087803b1580156129c257600080fd5b505af11580156129d6573d6000803e3d6000fd5b5050505050612b5b565b600083602001518260ff16815181106129fb576129fb6152f7565b60200260200101516000015160000151905083602001518260ff1681518110612a2657612a266152f7565b6020026020010151600001516060015115612ad457806001600160a01b031663ba251fba85602001518460ff1681518110612a6357612a636152f7565b60209081029190910181015101516040516001600160e01b031960e084901b1681526004810191909152336024820152604481018a9052606401600060405180830381600087803b158015612ab757600080fd5b505af1158015612acb573d6000803e3d6000fd5b50505050612b59565b806001600160a01b0316632e1a7d4d85602001518460ff1681518110612afc57612afc6152f7565b6020026020010151602001516040518263ffffffff1660e01b8152600401612b2691815260200190565b600060405180830381600087803b158015612b4057600080fd5b505af1158015612b54573d6000803e3d6000fd5b505050505b505b7f00000000000000000000000000000000000000000000000000000000000000006001600160a01b031683602001518260ff1681518110612b9e57612b9e6152f7565b602002602001015160000151602001516001600160a01b031614612c8157600083602001518260ff1681518110612bd757612bd76152f7565b6020908102919091018101515101516040516370a0823160e01b81523060048201526001600160a01b03909116906370a0823190602401602060405180830381865afa158015612c2b573d6000803e3d6000fd5b505050506040513d601f19601f82011682018060405250810190612c4f919061522e565b9050612c7f8185602001518460ff1681518110612c6e57612c6e6152f7565b602002602001015160000151613d63565b505b80612c8b8161530d565b9150506128ed565b506040516370a0823160e01b81523060048201527f00000000000000000000000000000000000000000000000000000000000000006001600160a01b0316906370a0823190602401602060405180830381865afa158015612cf8573d6000803e3d6000fd5b505050506040513d601f19601f82011682018060405250810190612d1c919061522e565b8251909450841115612d3b578151612d34908561525d565b9250612d40565b600092505b5050915091565b8151835114612da95760405162461bcd60e51b815260206004820152602860248201527f455243313135353a2069647320616e6420616d6f756e7473206c656e677468206044820152670dad2e6dac2e8c6d60c31b6064820152608401610915565b6001600160a01b038416612dcf5760405162461bcd60e51b8152600401610915906153f8565b33612dde818787878787613c57565b60005b8451811015612ec4576000858281518110612dfe57612dfe6152f7565b602002602001015190506000858381518110612e1c57612e1c6152f7565b602090810291909101810151600084815280835260408082206001600160a01b038e168352909352919091205490915081811015612e6c5760405162461bcd60e51b81526004016109159061543d565b6000838152602081815260408083206001600160a01b038e8116855292528083208585039055908b16825281208054849290612ea9908490615487565b9250508190555050505080612ebd9061532c565b9050612de1565b50846001600160a01b0316866001600160a01b0316826001600160a01b03167f4a39dc06d4c0dbc64b70af90fd698a233a518aa5d07e595d983b8c0526c8f7fb8787604051612f1492919061549a565b60405180910390a4612f2a81878787878761408d565b505050505050565b600480546001600160a01b038381166001600160a01b0319831681179093556040519116919082907f8be0079c531659141344cd1fd0a4f28419497f9722a3daafe3b4186f6b6457e090600090a35050565b6000828152600e60205260408120600d5490918591905b8160ff168160ff161015613665576000600d8260ff1681548110612fc157612fc16152f7565b60009182526020918290206040805160c08101825260039390930290910180546001600160a01b03908116845260018201548116948401949094526002015492831690820152600160a01b820460ff90811615156060830152600160a81b83041615156080820152600160b01b90910461ffff1660a0820152905085156130c757846001018260ff168154811061305a5761305a6152f7565b600091825260209091206004909102015481516001600160a01b039081169116146130c75760405162461bcd60e51b815260206004820152601d60248201527f466f72746946693a2043616e27742061646420746f20726563656970740000006044820152606401610915565b60808101516000806130da6001876154c8565b60ff168560ff160361313b5783602001516001600160a01b03167f00000000000000000000000000000000000000000000000000000000000000006001600160a01b0316146131345761312d87856141e8565b90506131c1565b50856131c1565b60a0840151600090612710906131559061ffff168e6154e1565b61315f91906154f8565b905084602001516001600160a01b03167f00000000000000000000000000000000000000000000000000000000000000006001600160a01b0316146131af576131a881866141e8565b91506131b3565b8091505b6131bd818961525d565b9750505b82156132fa57881561320a576132058185600001518a6001018860ff16815481106131ee576131ee6152f7565b9060005260206000209060040201600301546144fd565b61364e565b61321881856000015161458a565b60408051808201825286815260208082018481526001808e018054808301825560009182529084902094518051600490920290950180546001600160a01b039283166001600160a01b03199182161782559486015192810180549383169390951692909217909355938301516002850180546060860151608087015160a09097015161ffff16600160b01b0261ffff60b01b19971515600160a81b029790971662ffffff60a81b19911515600160a01b026001600160a81b0319909316949096169390931717919091169290921792909217905551600390910155915061364e565b83516040516370a0823160e01b81523060048201526000906001600160a01b038316906370a0823190602401602060405180830381865afa158015613343573d6000803e3d6000fd5b505050506040513d601f19601f82011682018060405250810190613367919061522e565b90508560600151156133df576040516329c9aa1960e01b815260048101849052336024820152604481018d90526001600160a01b038316906329c9aa1990606401600060405180830381600087803b1580156133c257600080fd5b505af11580156133d6573d6000803e3d6000fd5b5050505061343a565b60405163b6b55f2560e01b8152600481018490526001600160a01b0383169063b6b55f2590602401600060405180830381600087803b15801561342157600080fd5b505af1158015613435573d6000803e3d6000fd5b505050505b8a156134f7576040516370a0823160e01b815230600482015281906001600160a01b038416906370a0823190602401602060405180830381865afa158015613486573d6000803e3d6000fd5b505050506040513d601f19601f820116820180604052508101906134aa919061522e565b6134b4919061525d565b8a6001018860ff16815481106134cc576134cc6152f7565b906000526020600020906004020160030160008282546134ec9190615487565b9091555061364b9050565b60408051808201825287815290516370a0823160e01b815230600482015260018c019190602082019084906001600160a01b038716906370a0823190602401602060405180830381865afa158015613553573d6000803e3d6000fd5b505050506040513d601f19601f82011682018060405250810190613577919061522e565b613581919061525d565b9052815460018181018455600093845260209384902083518051600490940290910180546001600160a01b039485166001600160a01b0319918216178255828701519382018054948616949091169390931790925560408101516002830180546060840151608085015160a09095015161ffff16600160b01b0261ffff60b01b19951515600160a81b029590951662ffffff60a81b19911515600160a01b026001600160a81b03199093169490971693909317179190911693909317179091559101516003909101555b50505b50505050808061365d9061530d565b915050612f9b565b508583600001600082825461367a9190615487565b9091555050505050505050565b6040516370a0823160e01b81523060048201526000907f00000000000000000000000000000000000000000000000000000000000000006001600160a01b0316906370a0823190602401602060405180830381865afa1580156136ee573d6000803e3d6000fd5b505050506040513d601f19601f82011682018060405250810190613712919061522e565b9050801561380c57808260000181815161372c919061525d565b90525060405163a9059cbb60e01b81526001600160a01b037f0000000000000000000000000000000000000000000000000000000000000000169063a9059cbb9061377d9033908590600401615215565b6020604051808303816000875af115801561379c573d6000803e3d6000fd5b505050506040513d601f19601f820116820180604052508101906137c09190615270565b61380c5760405162461bcd60e51b815260206004820152601f60248201527f466f72746946693a204661696c656420746f20726566756e64204552433230006044820152606401610915565b6040516370a0823160e01b81523060048201526000907f00000000000000000000000000000000000000000000000000000000000000006001600160a01b0316906370a0823190602401602060405180830381865afa158015613873573d6000803e3d6000fd5b505050506040513d601f19601f82011682018060405250810190613897919061522e565b9050801561394c5760405163a9059cbb60e01b81526001600160a01b037f0000000000000000000000000000000000000000000000000000000000000000169063a9059cbb906138ed9033908590600401615215565b6020604051808303816000875af115801561390c573d6000803e3d6000fd5b505050506040513d601f19601f820116820180604052508101906139309190615270565b61394c5760405162461bcd60e51b81526004016109159061528d565b471561122857604051600090339047908381818185875af1925050503d8060008114613994576040519150601f19603f3d011682016040523d82523d6000602084013e613999565b606091505b50509050806139ba5760405162461bcd60e51b81526004016109159061528d565b50505050565b816001600160a01b0316836001600160a01b031603613a335760405162461bcd60e51b815260206004820152602960248201527f455243313135353a2073657474696e6720617070726f76616c20737461747573604482015268103337b91039b2b63360b91b6064820152608401610915565b6001600160a01b03838116600081815260016020908152604080832094871680845294825291829020805460ff191686151590811790915591519182527f17307eab39ab6107e8899845ad3d59bd9653f200f220920489ca2b5937696c31910160405180910390a3505050565b6000600a549050613ac3338260016040518060200160405280600081525061461a565b6001600a6000828254613ad69190615487565b9250508190555090565b6001600160a01b038416613b065760405162461bcd60e51b8152600401610915906153f8565b33613b25818787613b1688613c0c565b613b1f88613c0c565b87613c57565b6000848152602081815260408083206001600160a01b038a16845290915290205483811015613b665760405162461bcd60e51b81526004016109159061543d565b6000858152602081815260408083206001600160a01b038b8116855292528083208785039055908816825281208054869290613ba3908490615487565b909155505060408051868152602081018690526001600160a01b03808916928a821692918616917fc3d58168c5ae7397731d063d5bbf3d657854427343f4c083240f7aacaa2d0f62910160405180910390a4613c03828888888888614717565b50505050505050565b60408051600180825281830190925260609160009190602080830190803683370190505090508281600081518110613c4657613c466152f7565b602090810291909101015292915050565b6001600160a01b038516613cde5760005b8351811015613cdc57828181518110613c8357613c836152f7565b602002602001015160036000868481518110613ca157613ca16152f7565b602002602001015181526020019081526020016000206000828254613cc69190615487565b90915550613cd590508161532c565b9050613c68565b505b6001600160a01b038416612f2a5760005b8351811015613c0357828181518110613d0a57613d0a6152f7565b602002602001015160036000868481518110613d2857613d286152f7565b602002602001015181526020019081526020016000206000828254613d4d919061525d565b90915550613d5c90508161532c565b9050613cef565b6020810151604080516003808252608082019092526000918160200160208202803683370190505090506000836040015190508282600081518110613daa57613daa6152f7565b60200260200101906001600160a01b031690816001600160a01b0316815250507f000000000000000000000000000000000000000000000000000000000000000082600181518110613dfe57613dfe6152f7565b60200260200101906001600160a01b031690816001600160a01b0316815250507f000000000000000000000000000000000000000000000000000000000000000082600281518110613e5257613e526152f7565b6001600160a01b03928316602091820292909201015260405163d06ca61f60e01b815260009183169063d06ca61f90613e919089908790600401615553565b600060405180830381865afa158015613eae573d6000803e3d6000fd5b505050506040513d6000823e601f3d908101601f19168201604052613ed6919081019061556c565b6008549091506001600160a01b038316906338ed173990889061271090613f019061ffff16826155fc565b61ffff168560018751613f14919061525d565b81518110613f2457613f246152f7565b6020026020010151613f3691906154e1565b613f4091906154f8565b8630613f4e42610708615487565b6040518663ffffffff1660e01b8152600401613f6e959493929190615617565b6000604051808303816000875af1158015613f8d573d6000803e3d6000fd5b505050506040513d6000823e601f3d908101601f19168201604052613fb5919081019061556c565b506040516370a0823160e01b81523060048201526000907f00000000000000000000000000000000000000000000000000000000000000006001600160a01b0316906370a0823190602401602060405180830381865afa15801561401d573d6000803e3d6000fd5b505050506040513d601f19601f82011682018060405250810190614041919061522e565b905060008111613c035760405162461bcd60e51b81526020600482015260176024820152760466f72746946693a204661696c656420746f207377617604c1b6044820152606401610915565b6001600160a01b0384163b15612f2a5760405163bc197c8160e01b81526001600160a01b0385169063bc197c81906140d19089908990889088908890600401615653565b6020604051808303816000875af192505050801561410c575060408051601f3d908101601f19168201909252614109918101906156b1565b60015b6141b8576141186156ce565b806308c379a003614151575061412c6156ea565b806141375750614153565b8060405162461bcd60e51b8152600401610915919061495c565b505b60405162461bcd60e51b815260206004820152603460248201527f455243313135353a207472616e7366657220746f206e6f6e20455243313135356044820152732932b1b2b4bb32b91034b6b83632b6b2b73a32b960611b6064820152608401610915565b6001600160e01b0319811663bc197c8160e01b14613c035760405162461bcd60e51b815260040161091590615773565b6020818101516040805160038082526080820190925260009384929082016060803683370190505090506000846040015190507f00000000000000000000000000000000000000000000000000000000000000008260008151811061424f5761424f6152f7565b60200260200101906001600160a01b031690816001600160a01b0316815250507f0000000000000000000000000000000000000000000000000000000000000000826001815181106142a3576142a36152f7565b60200260200101906001600160a01b031690816001600160a01b03168152505082826002815181106142d7576142d76152f7565b6001600160a01b03928316602091820292909201015260405163d06ca61f60e01b815260009183169063d06ca61f90614316908a908790600401615553565b600060405180830381865afa158015614333573d6000803e3d6000fd5b505050506040513d6000823e601f3d908101601f1916820160405261435b919081019061556c565b6008549091506001600160a01b038316906338ed1739908990612710906143869061ffff16826155fc565b61ffff168560018751614399919061525d565b815181106143a9576143a96152f7565b60200260200101516143bb91906154e1565b6143c591906154f8565b86306143d342610708615487565b6040518663ffffffff1660e01b81526004016143f3959493929190615617565b6000604051808303816000875af1158015614412573d6000803e3d6000fd5b505050506040513d6000823e601f3d908101601f1916820160405261443a919081019061556c565b506040516370a0823160e01b81523060048201526000906001600160a01b038616906370a0823190602401602060405180830381865afa158015614482573d6000803e3d6000fd5b505050506040513d601f19601f820116820180604052508101906144a6919061522e565b9050600081116144f25760405162461bcd60e51b81526020600482015260176024820152760466f72746946693a204661696c656420746f207377617604c1b6044820152606401610915565b979650505050505050565b604080518082019091526000815260606020820152829060405163771602f760e01b815260048101869052602481018490526001600160a01b0383169063771602f7906044016000604051808303816000875af1158015614562573d6000803e3d6000fd5b505050506040513d6000823e601f3d908101601f19168201604052612f2a91908101906158e6565b604080518082018252600080825260606020830152915163b6b55f2560e01b8152600481018590528391906001600160a01b0383169063b6b55f25906024016000604051808303816000875af11580156145e8573d6000803e3d6000fd5b505050506040513d6000823e601f3d908101601f19168201604052614610919081019061591a565b5095945050505050565b6001600160a01b03841661467a5760405162461bcd60e51b815260206004820152602160248201527f455243313135353a206d696e7420746f20746865207a65726f206164647265736044820152607360f81b6064820152608401610915565b3361468b81600087613b1688613c0c565b6000848152602081815260408083206001600160a01b0389168452909152812080548592906146bb908490615487565b909155505060408051858152602081018590526001600160a01b0380881692600092918516917fc3d58168c5ae7397731d063d5bbf3d657854427343f4c083240f7aacaa2d0f62910160405180910390a4610eb1816000878787875b6001600160a01b0384163b15612f2a5760405163f23a6e6160e01b81526001600160a01b0385169063f23a6e619061475b9089908990889088908890600401615956565b6020604051808303816000875af1925050508015614796575060408051601f3d908101601f19168201909252614793918101906156b1565b60015b6147a2576141186156ce565b6001600160e01b0319811663f23a6e6160e01b14613c035760405162461bcd60e51b815260040161091590615773565b50805460008255600302906000526020600020908101906124309190614814565b50805460008255600402906000526020600020908101906124309190614856565b5b808211156148525780546001600160a01b0319908116825560018201805490911690556002810180546001600160c01b0319169055600301614815565b5090565b5b808211156148525780546001600160a01b0319908116825560018201805490911690556002810180546001600160c01b031916905560006003820155600401614857565b6001600160a01b038116811461243057600080fd5b600080604083850312156148c357600080fd5b82356148ce8161489b565b946020939093013593505050565b6001600160e01b03198116811461243057600080fd5b60006020828403121561490457600080fd5b813561490f816148dc565b9392505050565b6000815180845260005b8181101561493c57602081850181015186830182015201614920565b506000602082860101526020601f19601f83011685010191505092915050565b60208152600061490f6020830184614916565b60006020828403121561498157600080fd5b5035919050565b634e487b7160e01b600052604160045260246000fd5b60c081018181106001600160401b03821117156149bd576149bd614988565b60405250565b604081018181106001600160401b03821117156149bd576149bd614988565b606081018181106001600160401b03821117156149bd576149bd614988565b601f8201601f191681016001600160401b0381118282101715614a2657614a26614988565b6040525050565b60006001600160401b03821115614a4657614a46614988565b5060051b60200190565b600082601f830112614a6157600080fd5b81356020614a6e82614a2d565b604051614a7b8282614a01565b83815260059390931b8501820192828101915086841115614a9b57600080fd5b8286015b84811015614ab65780358352918301918301614a9f565b509695505050505050565b600082601f830112614ad257600080fd5b81356001600160401b03811115614aeb57614aeb614988565b604051614b02601f8301601f191660200182614a01565b818152846020838601011115614b1757600080fd5b816020850160208301376000918101602001919091529392505050565b600080600080600060a08688031215614b4c57600080fd5b8535614b578161489b565b94506020860135614b678161489b565b935060408601356001600160401b0380821115614b8357600080fd5b614b8f89838a01614a50565b94506060880135915080821115614ba557600080fd5b614bb189838a01614a50565b93506080880135915080821115614bc757600080fd5b50614bd488828901614ac1565b9150509295509295909350565b600060208284031215614bf357600080fd5b813561490f8161489b565b60008060408385031215614c1157600080fd5b82356001600160401b0380821115614c2857600080fd5b818501915085601f830112614c3c57600080fd5b81356020614c4982614a2d565b604051614c568282614a01565b83815260059390931b8501820192828101915089841115614c7657600080fd5b948201945b83861015614c9d578535614c8e8161489b565b82529482019490820190614c7b565b96505086013592505080821115614cb357600080fd5b50614cc085828601614a50565b9150509250929050565b600081518084526020808501945080840160005b83811015614cfa57815187529582019590820190600101614cde565b509495945050505050565b60208152600061490f6020830184614cca565b801515811461243057600080fd5b61ffff8116811461243057600080fd5b8035614d4181614d26565b919050565b60006020808385031215614d5957600080fd5b82356001600160401b03811115614d6f57600080fd5b8301601f81018513614d8057600080fd5b8035614d8b81614a2d565b60408051614d998382614a01565b83815260c09384028501860193868201935089851115614db857600080fd5b948601945b84861015614e555780868b031215614dd55760008081fd5b8251614de08161499e565b8635614deb8161489b565b815286880135614dfa8161489b565b8189015286840135614e0b8161489b565b81850152606087810135614e1e81614d18565b90820152608087810135614e3181614d18565b9082015260a0614e42888201614d36565b9082015284529485019492860192614dbd565b5098975050505050505050565b60008060408385031215614e7557600080fd5b50508035926020909101359150565b80516001600160a01b0390811683526020808301518216908401526040808301519091169083015260608082015115159083015260808082015115159083015260a09081015161ffff16910152565b600060408301825184526020808401516040828701528281518085526060880191508383019450600092505b80831015614ab6578451614f14838251614e84565b84015160c0830152938301936001929092019160e090910190614eff565b60208152600061490f6020830184614ed3565b60008083601f840112614f5757600080fd5b5081356001600160401b03811115614f6e57600080fd5b6020830191508360208260051b8501011115614f8957600080fd5b9250929050565b600080600080600060608688031215614fa857600080fd5b8535614fb38161489b565b945060208601356001600160401b0380821115614fcf57600080fd5b614fdb89838a01614f45565b90965094506040880135915080821115614ff457600080fd5b5061500188828901614f45565b969995985093965092949392505050565b6000806040838503121561502557600080fd5b82356150308161489b565b9150602083013561504081614d18565b809150509250929050565b60006020828403121561505d57600080fd5b813561490f81614d26565b6020808252825182820181905260009190848201906040850190845b818110156150aa57615097838551614e84565b9284019260c09290920191600101615084565b50909695505050505050565b8281526040602082015260006150cf6040830184614ed3565b949350505050565b600080604083850312156150ea57600080fd5b82356150f58161489b565b915060208301356150408161489b565b600080600080600060a0868803121561511d57600080fd5b85356151288161489b565b945060208601356151388161489b565b9350604086013592506060860135915060808601356001600160401b0381111561516157600080fd5b614bd488828901614ac1565b600181811c9082168061518157607f821691505b6020821081036151a157634e487b7160e01b600052602260045260246000fd5b50919050565b6020808252601f908201527f5265656e7472616e637947756172643a207265656e7472616e742063616c6c00604082015260600190565b60208082526018908201527f466f72746946693a20436f6e7472616374207061757365640000000000000000604082015260600190565b6001600160a01b03929092168252602082015260400190565b60006020828403121561524057600080fd5b5051919050565b634e487b7160e01b600052601160045260246000fd5b8181038181111561094157610941615247565b60006020828403121561528257600080fd5b815161490f81614d18565b6020808252818101527f466f72746946693a204661696c656420746f20726566756e64206e6174697665604082015260600190565b6020808252818101527f4f776e61626c653a2063616c6c6572206973206e6f7420746865206f776e6572604082015260600190565b634e487b7160e01b600052603260045260246000fd5b600060ff821660ff810361532357615323615247565b60010192915050565b60006001820161533e5761533e615247565b5060010190565b61ffff81811683821601908082111561536057615360615247565b5092915050565b81835260006001600160fb1b0383111561538057600080fd5b8260051b80836020870137939093016020019392505050565b6001600160a01b0387811682528616602082015260a0604082018190526000906153c69083018688615367565b82810360608401526153d9818587615367565b8381036080909401939093525050600081526020019695505050505050565b60208082526025908201527f455243313135353a207472616e7366657220746f20746865207a65726f206164604082015264647265737360d81b606082015260800190565b6020808252602a908201527f455243313135353a20696e73756666696369656e742062616c616e636520666f60408201526939103a3930b739b332b960b11b606082015260800190565b8082018082111561094157610941615247565b6040815260006154ad6040830185614cca565b82810360208401526154bf8185614cca565b95945050505050565b60ff828116828216039081111561094157610941615247565b808202811582820484141761094157610941615247565b60008261551557634e487b7160e01b600052601260045260246000fd5b500490565b600081518084526020808501945080840160005b83811015614cfa5781516001600160a01b03168752958201959082019060010161552e565b8281526040602082015260006150cf604083018461551a565b6000602080838503121561557f57600080fd5b82516001600160401b0381111561559557600080fd5b8301601f810185136155a657600080fd5b80516155b181614a2d565b6040516155be8282614a01565b82815260059290921b83018401918481019150878311156155de57600080fd5b928401925b828410156144f2578351825292840192908401906155e3565b61ffff82811682821603908082111561536057615360615247565b85815284602082015260a06040820152600061563660a083018661551a565b6001600160a01b0394909416606083015250608001529392505050565b6001600160a01b0386811682528516602082015260a06040820181905260009061567f90830186614cca565b82810360608401526156918186614cca565b905082810360808401526156a58185614916565b98975050505050505050565b6000602082840312156156c357600080fd5b815161490f816148dc565b600060033d11156156e75760046000803e5060005160e01c5b90565b600060443d10156156f85790565b6040516003193d81016004833e81513d6001600160401b03816024840111818411171561572757505050505090565b828501915081518181111561573f5750505050505090565b843d87010160208285010111156157595750505050505090565b61576860208286010187614a01565b509095945050505050565b60208082526028908201527f455243313135353a204552433131353552656365697665722072656a656374656040820152676420746f6b656e7360c01b606082015260800190565b600060408083850312156157ce57600080fd5b80516157d9816149c3565b809250835181526020808501516001600160401b038111156157fa57600080fd5b8501601f8101871361580b57600080fd5b805161581681614a2d565b85516158228282614a01565b82815260079290921b830184019184810191508983111561584257600080fd5b928401925b828410156158d457838a0360808112156158615760008081fd5b875161586c816149c3565b60608083121561587c5760008081fd5b89519250615889836149e2565b86516158948161489b565b8352868801516158a381614d18565b83890152868a01516158b481614d26565b838b01529181529085015186820152825260809093019290840190615847565b80858701525050505050505092915050565b6000602082840312156158f857600080fd5b81516001600160401b0381111561590e57600080fd5b6150cf848285016157bb565b6000806040838503121561592d57600080fd5b8251915060208301516001600160401b0381111561594a57600080fd5b614cc0858286016157bb565b6001600160a01b03868116825285166020820152604081018490526060810183905260a0608082018190526000906144f29083018461491656fea264697066735822122073067dcb5379d2d34e59b597b337a8b84702bc8d721ce1f557b95204c2a42ce764736f6c63430008120033",
  "devdoc": {
    "events": {
      "ApprovalForAll(address,address,bool)": {
        "details": "Emitted when `account` grants or revokes permission to `operator` to transfer their tokens, according to `approved`."
      },
      "TransferBatch(address,address,address,uint256[],uint256[])": {
        "details": "Equivalent to multiple {TransferSingle} events, where `operator`, `from` and `to` are the same for all transfers."
      },
      "TransferSingle(address,address,address,uint256,uint256)": {
        "details": "Emitted when `value` tokens of token type `id` are transferred from `from` to `to` by `operator`."
      },
      "URI(string,uint256)": {
        "details": "Emitted when the URI for token type `id` changes to `value`, if it is a non-programmatic URI. If an {URI} event was emitted for `id`, the standard https://eips.ethereum.org/EIPS/eip-1155#metadata-extensions[guarantees] that `value` will equal the value returned by {IERC1155MetadataURI-uri}."
      }
    },
    "kind": "dev",
    "methods": {
      "balanceOf(address,uint256)": {
        "details": "See {IERC1155-balanceOf}. Requirements: - `account` cannot be the zero address."
      },
      "balanceOfBatch(address[],uint256[])": {
        "details": "See {IERC1155-balanceOfBatch}. Requirements: - `accounts` and `ids` must have the same length."
      },
      "deposit(uint256)": {
        "details": "The user must deposit at least the minDeposit, and will receive an ERC1155 non-fungible receipt token.  The receipt token will be mapped to a TokenInfo containing the amount deposited as well as the strategy receipt  tokens received for later withdrawal."
      },
      "exists(uint256)": {
        "details": "Indicates whether any token exist with a given id, or not."
      },
      "isApprovedForAll(address,address)": {
        "details": "See {IERC1155-isApprovedForAll}."
      },
      "owner()": {
        "details": "Returns the address of the current owner."
      },
      "rebalance(uint256)": {
        "details": "This function utilizes the internal _deposit and _withdraw functions to rebalance based on  the strategies set in the contract. Since _deposit will set the TokenInfo.deposit to the total  deposited after the rebalance, we must store the original deposit and overwrite the TokenInfo before completing the transaction."
      },
      "refreshApprovals()": {
        "details": "Since contract never holds deposit tokens max approvals should not matter. "
      },
      "renounceOwnership()": {
        "details": "Leaves the contract without owner. It will not be possible to call `onlyOwner` functions anymore. Can only be called by the current owner. NOTE: Renouncing ownership will leave the contract without an owner, thereby removing any functionality that is only available to the owner."
      },
      "safeBatchTransferFrom(address,address,uint256[],uint256[],bytes)": {
        "details": "See {IERC1155-safeBatchTransferFrom}."
      },
      "safeTransferFrom(address,address,uint256,uint256,bytes)": {
        "details": "See {IERC1155-safeTransferFrom}."
      },
      "setApprovalForAll(address,bool)": {
        "details": "See {IERC1155-setApprovalForAll}."
      },
      "supportsInterface(bytes4)": {
        "details": "See {IERC165-supportsInterface}."
      },
      "totalSupply(uint256)": {
        "details": "Total amount of tokens in with a given id."
      },
      "transferOwnership(address)": {
        "details": "Transfers ownership of the contract to a new account (`newOwner`). Can only be called by the current owner."
      },
      "uri(uint256)": {
        "details": "See {IERC1155MetadataURI-uri}. This implementation returns the same URI for *all* token types. It relies on the token type ID substitution mechanism https://eips.ethereum.org/EIPS/eip-1155#metadata[defined in the EIP]. Clients calling this function must replace the `\\{id\\}` substring with the actual token type ID."
      },
      "withdraw(uint256)": {
        "details": "Once all receipts are burned and deposit tokens received, the fee manager will calculate the fees due,  and the fee manager will distribute those fees before transfering the user their proceeds."
      }
    },
    "title": "Contract for FortiFi MASS Vaults",
    "version": 1
  },
  "userdoc": {
    "kind": "user",
    "methods": {
      "add(uint256,uint256)": {
        "notice": "This function is used to add to a user's deposit when they already has a receipt (ERC1155). The user can add to their  deposit without needing to burn/withdraw first. "
      },
      "deposit(uint256)": {
        "notice": "This function is used when a user does not already have a receipt (ERC1155). "
      },
      "flipPaused()": {
        "notice": "Function to flip paused state"
      },
      "getStrategies()": {
        "notice": "View function that returns all strategies"
      },
      "getTokenInfo(uint256)": {
        "notice": "View function to get token information"
      },
      "rebalance(uint256)": {
        "notice": "This function allows a user to rebalance a receipt (ERC1155) token's underlying assets. "
      },
      "recoverERC1155(address,uint256[],uint256[])": {
        "notice": "Emergency function to recover stuck ERC1155 tokens"
      },
      "recoverERC20(address,uint256)": {
        "notice": "Emergency function to recover stuck ERC20 tokens"
      },
      "refreshApprovals()": {
        "notice": "Function to set max approvals for router and strategies. "
      },
      "setFeeCalculator(address)": {
        "notice": "Function to set new FortiFiFeeCalculator contract"
      },
      "setFeeManager(address)": {
        "notice": "Function to set new FortiFiFeeManager contract"
      },
      "setMinDeposit(uint256)": {
        "notice": "Function to set minimum deposit"
      },
      "setSlippage(uint16)": {
        "notice": "Function to set slippage used in swap functions"
      },
      "setStrategies((address,address,address,bool,bool,uint16)[])": {
        "notice": "This function sets up the underlying strategies used by the vault."
      },
      "withdraw(uint256)": {
        "notice": "This function is used to burn a receipt (ERC1155) and withdraw all underlying strategy receipt tokens. "
      }
    },
    "notice": "This contract allows for the deposit of a single asset, which is then swapped into various assets and deposited in to  multiple yield-bearing strategies. ",
    "version": 1
  },
  "storageLayout": {
    "storage": [
      {
        "astId": 170,
        "contract": "contracts/vaults/FortiFiMASSVault.sol:FortiFiMASSVault",
        "label": "_balances",
        "offset": 0,
        "slot": "0",
        "type": "t_mapping(t_uint256,t_mapping(t_address,t_uint256))"
      },
      {
        "astId": 176,
        "contract": "contracts/vaults/FortiFiMASSVault.sol:FortiFiMASSVault",
        "label": "_operatorApprovals",
        "offset": 0,
        "slot": "1",
        "type": "t_mapping(t_address,t_mapping(t_address,t_bool))"
      },
      {
        "astId": 178,
        "contract": "contracts/vaults/FortiFiMASSVault.sol:FortiFiMASSVault",
        "label": "_uri",
        "offset": 0,
        "slot": "2",
        "type": "t_string_storage"
      },
      {
        "astId": 1413,
        "contract": "contracts/vaults/FortiFiMASSVault.sol:FortiFiMASSVault",
        "label": "_totalSupply",
        "offset": 0,
        "slot": "3",
        "type": "t_mapping(t_uint256,t_uint256)"
      },
      {
        "astId": 7,
        "contract": "contracts/vaults/FortiFiMASSVault.sol:FortiFiMASSVault",
        "label": "_owner",
        "offset": 0,
        "slot": "4",
        "type": "t_address"
      },
      {
        "astId": 115,
        "contract": "contracts/vaults/FortiFiMASSVault.sol:FortiFiMASSVault",
        "label": "_status",
        "offset": 0,
        "slot": "5",
        "type": "t_uint256"
      },
      {
        "astId": 2165,
        "contract": "contracts/vaults/FortiFiMASSVault.sol:FortiFiMASSVault",
        "label": "name",
        "offset": 0,
        "slot": "6",
        "type": "t_string_storage"
      },
      {
        "astId": 2167,
        "contract": "contracts/vaults/FortiFiMASSVault.sol:FortiFiMASSVault",
        "label": "symbol",
        "offset": 0,
        "slot": "7",
        "type": "t_string_storage"
      },
      {
        "astId": 2177,
        "contract": "contracts/vaults/FortiFiMASSVault.sol:FortiFiMASSVault",
        "label": "slippageBps",
        "offset": 0,
        "slot": "8",
        "type": "t_uint16"
      },
      {
        "astId": 2180,
        "contract": "contracts/vaults/FortiFiMASSVault.sol:FortiFiMASSVault",
        "label": "minDeposit",
        "offset": 0,
        "slot": "9",
        "type": "t_uint256"
      },
      {
        "astId": 2183,
        "contract": "contracts/vaults/FortiFiMASSVault.sol:FortiFiMASSVault",
        "label": "nextToken",
        "offset": 0,
        "slot": "10",
        "type": "t_uint256"
      },
      {
        "astId": 2186,
        "contract": "contracts/vaults/FortiFiMASSVault.sol:FortiFiMASSVault",
        "label": "paused",
        "offset": 0,
        "slot": "11",
        "type": "t_bool"
      },
      {
        "astId": 2189,
        "contract": "contracts/vaults/FortiFiMASSVault.sol:FortiFiMASSVault",
        "label": "feeCalc",
        "offset": 1,
        "slot": "11",
        "type": "t_contract(IFortiFiFeeCalculator)1995"
      },
      {
        "astId": 2192,
        "contract": "contracts/vaults/FortiFiMASSVault.sol:FortiFiMASSVault",
        "label": "feeMgr",
        "offset": 0,
        "slot": "12",
        "type": "t_contract(IFortiFiFeeManager)2006"
      },
      {
        "astId": 2196,
        "contract": "contracts/vaults/FortiFiMASSVault.sol:FortiFiMASSVault",
        "label": "strategies",
        "offset": 0,
        "slot": "13",
        "type": "t_array(t_struct(Strategy)4012_storage)dyn_storage"
      },
      {
        "astId": 2201,
        "contract": "contracts/vaults/FortiFiMASSVault.sol:FortiFiMASSVault",
        "label": "tokenInfo",
        "offset": 0,
        "slot": "14",
        "type": "t_mapping(t_uint256,t_struct(TokenInfo)4025_storage)"
      }
    ],
    "types": {
      "t_address": {
        "encoding": "inplace",
        "label": "address",
        "numberOfBytes": "20"
      },
      "t_array(t_struct(Position)4018_storage)dyn_storage": {
        "base": "t_struct(Position)4018_storage",
        "encoding": "dynamic_array",
        "label": "struct IMASS.Position[]",
        "numberOfBytes": "32"
      },
      "t_array(t_struct(Strategy)4012_storage)dyn_storage": {
        "base": "t_struct(Strategy)4012_storage",
        "encoding": "dynamic_array",
        "label": "struct IMASS.Strategy[]",
        "numberOfBytes": "32"
      },
      "t_bool": {
        "encoding": "inplace",
        "label": "bool",
        "numberOfBytes": "1"
      },
      "t_contract(IFortiFiFeeCalculator)1995": {
        "encoding": "inplace",
        "label": "contract IFortiFiFeeCalculator",
        "numberOfBytes": "20"
      },
      "t_contract(IFortiFiFeeManager)2006": {
        "encoding": "inplace",
        "label": "contract IFortiFiFeeManager",
        "numberOfBytes": "20"
      },
      "t_mapping(t_address,t_bool)": {
        "encoding": "mapping",
        "key": "t_address",
        "label": "mapping(address => bool)",
        "numberOfBytes": "32",
        "value": "t_bool"
      },
      "t_mapping(t_address,t_mapping(t_address,t_bool))": {
        "encoding": "mapping",
        "key": "t_address",
        "label": "mapping(address => mapping(address => bool))",
        "numberOfBytes": "32",
        "value": "t_mapping(t_address,t_bool)"
      },
      "t_mapping(t_address,t_uint256)": {
        "encoding": "mapping",
        "key": "t_address",
        "label": "mapping(address => uint256)",
        "numberOfBytes": "32",
        "value": "t_uint256"
      },
      "t_mapping(t_uint256,t_mapping(t_address,t_uint256))": {
        "encoding": "mapping",
        "key": "t_uint256",
        "label": "mapping(uint256 => mapping(address => uint256))",
        "numberOfBytes": "32",
        "value": "t_mapping(t_address,t_uint256)"
      },
      "t_mapping(t_uint256,t_struct(TokenInfo)4025_storage)": {
        "encoding": "mapping",
        "key": "t_uint256",
        "label": "mapping(uint256 => struct IMASS.TokenInfo)",
        "numberOfBytes": "32",
        "value": "t_struct(TokenInfo)4025_storage"
      },
      "t_mapping(t_uint256,t_uint256)": {
        "encoding": "mapping",
        "key": "t_uint256",
        "label": "mapping(uint256 => uint256)",
        "numberOfBytes": "32",
        "value": "t_uint256"
      },
      "t_string_storage": {
        "encoding": "bytes",
        "label": "string",
        "numberOfBytes": "32"
      },
      "t_struct(Position)4018_storage": {
        "encoding": "inplace",
        "label": "struct IMASS.Position",
        "members": [
          {
            "astId": 4015,
            "contract": "contracts/vaults/FortiFiMASSVault.sol:FortiFiMASSVault",
            "label": "strategy",
            "offset": 0,
            "slot": "0",
            "type": "t_struct(Strategy)4012_storage"
          },
          {
            "astId": 4017,
            "contract": "contracts/vaults/FortiFiMASSVault.sol:FortiFiMASSVault",
            "label": "receipt",
            "offset": 0,
            "slot": "3",
            "type": "t_uint256"
          }
        ],
        "numberOfBytes": "128"
      },
      "t_struct(Strategy)4012_storage": {
        "encoding": "inplace",
        "label": "struct IMASS.Strategy",
        "members": [
          {
            "astId": 4001,
            "contract": "contracts/vaults/FortiFiMASSVault.sol:FortiFiMASSVault",
            "label": "strategy",
            "offset": 0,
            "slot": "0",
            "type": "t_address"
          },
          {
            "astId": 4003,
            "contract": "contracts/vaults/FortiFiMASSVault.sol:FortiFiMASSVault",
            "label": "depositToken",
            "offset": 0,
            "slot": "1",
            "type": "t_address"
          },
          {
            "astId": 4005,
            "contract": "contracts/vaults/FortiFiMASSVault.sol:FortiFiMASSVault",
            "label": "router",
            "offset": 0,
            "slot": "2",
            "type": "t_address"
          },
          {
            "astId": 4007,
            "contract": "contracts/vaults/FortiFiMASSVault.sol:FortiFiMASSVault",
            "label": "isFortiFi",
            "offset": 20,
            "slot": "2",
            "type": "t_bool"
          },
          {
            "astId": 4009,
            "contract": "contracts/vaults/FortiFiMASSVault.sol:FortiFiMASSVault",
            "label": "isSAMS",
            "offset": 21,
            "slot": "2",
            "type": "t_bool"
          },
          {
            "astId": 4011,
            "contract": "contracts/vaults/FortiFiMASSVault.sol:FortiFiMASSVault",
            "label": "bps",
            "offset": 22,
            "slot": "2",
            "type": "t_uint16"
          }
        ],
        "numberOfBytes": "96"
      },
      "t_struct(TokenInfo)4025_storage": {
        "encoding": "inplace",
        "label": "struct IMASS.TokenInfo",
        "members": [
          {
            "astId": 4020,
            "contract": "contracts/vaults/FortiFiMASSVault.sol:FortiFiMASSVault",
            "label": "deposit",
            "offset": 0,
            "slot": "0",
            "type": "t_uint256"
          },
          {
            "astId": 4024,
            "contract": "contracts/vaults/FortiFiMASSVault.sol:FortiFiMASSVault",
            "label": "positions",
            "offset": 0,
            "slot": "1",
            "type": "t_array(t_struct(Position)4018_storage)dyn_storage"
          }
        ],
        "numberOfBytes": "64"
      },
      "t_uint16": {
        "encoding": "inplace",
        "label": "uint16",
        "numberOfBytes": "2"
      },
      "t_uint256": {
        "encoding": "inplace",
        "label": "uint256",
        "numberOfBytes": "32"
      }
    }
  }
}