{
  "address": "0x7022aDf08c3599efB9b98dD0D3672Dce7BEB1CC0",
  "abi": [
    {
      "inputs": [
        {
          "internalType": "address[]",
          "name": "_nftContracts",
          "type": "address[]"
        },
        {
          "internalType": "uint8[]",
          "name": "_tokenAmounts",
          "type": "uint8[]"
        },
        {
          "internalType": "uint16[]",
          "name": "_threshholdBps",
          "type": "uint16[]"
        },
        {
          "internalType": "bool",
          "name": "_combineHoldings",
          "type": "bool"
        }
      ],
      "stateMutability": "nonpayable",
      "type": "constructor"
    },
    {
      "anonymous": false,
      "inputs": [
        {
          "indexed": true,
          "internalType": "address",
          "name": "previousOwner",
          "type": "address"
        },
        {
          "indexed": true,
          "internalType": "address",
          "name": "newOwner",
          "type": "address"
        }
      ],
      "name": "OwnershipTransferred",
      "type": "event"
    },
    {
      "inputs": [],
      "name": "BPS",
      "outputs": [
        {
          "internalType": "uint16",
          "name": "",
          "type": "uint16"
        }
      ],
      "stateMutability": "view",
      "type": "function"
    },
    {
      "inputs": [],
      "name": "combineNftHoldings",
      "outputs": [
        {
          "internalType": "bool",
          "name": "",
          "type": "bool"
        }
      ],
      "stateMutability": "view",
      "type": "function"
    },
    {
      "inputs": [
        {
          "internalType": "address",
          "name": "_user",
          "type": "address"
        },
        {
          "internalType": "uint256",
          "name": "_amount",
          "type": "uint256"
        }
      ],
      "name": "getFees",
      "outputs": [
        {
          "internalType": "uint256",
          "name": "",
          "type": "uint256"
        }
      ],
      "stateMutability": "view",
      "type": "function"
    },
    {
      "inputs": [
        {
          "internalType": "uint256",
          "name": "",
          "type": "uint256"
        }
      ],
      "name": "nftContracts",
      "outputs": [
        {
          "internalType": "address",
          "name": "",
          "type": "address"
        }
      ],
      "stateMutability": "view",
      "type": "function"
    },
    {
      "inputs": [],
      "name": "owner",
      "outputs": [
        {
          "internalType": "address",
          "name": "",
          "type": "address"
        }
      ],
      "stateMutability": "view",
      "type": "function"
    },
    {
      "inputs": [],
      "name": "renounceOwnership",
      "outputs": [],
      "stateMutability": "nonpayable",
      "type": "function"
    },
    {
      "inputs": [
        {
          "internalType": "bool",
          "name": "_bool",
          "type": "bool"
        }
      ],
      "name": "setCombine",
      "outputs": [],
      "stateMutability": "nonpayable",
      "type": "function"
    },
    {
      "inputs": [
        {
          "internalType": "address[]",
          "name": "_nftContracts",
          "type": "address[]"
        },
        {
          "internalType": "uint8[]",
          "name": "_tokenAmounts",
          "type": "uint8[]"
        },
        {
          "internalType": "uint16[]",
          "name": "_threshholdBps",
          "type": "uint16[]"
        }
      ],
      "name": "setFees",
      "outputs": [],
      "stateMutability": "nonpayable",
      "type": "function"
    },
    {
      "inputs": [
        {
          "internalType": "uint256",
          "name": "",
          "type": "uint256"
        }
      ],
      "name": "threshholdBps",
      "outputs": [
        {
          "internalType": "uint16",
          "name": "",
          "type": "uint16"
        }
      ],
      "stateMutability": "view",
      "type": "function"
    },
    {
      "inputs": [
        {
          "internalType": "uint256",
          "name": "",
          "type": "uint256"
        }
      ],
      "name": "tokenAmounts",
      "outputs": [
        {
          "internalType": "uint8",
          "name": "",
          "type": "uint8"
        }
      ],
      "stateMutability": "view",
      "type": "function"
    },
    {
      "inputs": [
        {
          "internalType": "address",
          "name": "newOwner",
          "type": "address"
        }
      ],
      "name": "transferOwnership",
      "outputs": [],
      "stateMutability": "nonpayable",
      "type": "function"
    }
  ],
  "transactionHash": "0x2007ce474bcc9aa3392ad82901aeb3768998619ea7deb20c867950bc0ebe22f6",
  "args": [
    [
      "0x13d933EB47F41cBC0687376622D03A8Da10fEaB6"
    ],
    [
      0,
      1,
      3,
      5,
      7,
      10
    ],
    [
      800,
      600,
      550,
      500,
      450,
      400
    ],
    false
  ],
  "numDeployments": 4,
  "solcInputHash": "601197036e8da4e0c71f9b260e14958d",
  "bytecode": "0x60806040523480156200001157600080fd5b5060405162001ecb38038062001ecb8339810160408190526200003491620007d9565b6200003f3362000072565b6200004c848484620000c2565b60008054911515600160a01b0260ff60a01b1990921691909117905550620009cc915050565b600080546001600160a01b038381166001600160a01b0319831681178455604051919092169283917f8be0079c531659141344cd1fd0a4f28419497f9722a3daafe3b4186f6b6457e09190a35050565b6000546001600160a01b03163314620001225760405162461bcd60e51b815260206004820181905260248201527f4f776e61626c653a2063616c6c6572206973206e6f7420746865206f776e657260448201526064015b60405180910390fd5b825160ff8116620001765760405162461bcd60e51b815260206004820152601a60248201527f466f72746946693a20496e76616c6964204e4654206172726179000000000000604482015260640162000119565b60005b8160ff168160ff1610156200022d5760006001600160a01b0316858260ff1681518110620001b757634e487b7160e01b600052603260045260246000fd5b60200260200101516001600160a01b03161415620002185760405162461bcd60e51b815260206004820152601c60248201527f466f72746946693a20496e76616c6964204e4654206164647265737300000000604482015260640162000119565b8062000224816200097d565b91505062000179565b5081518351148015620002475750620002478383620002dd565b620002955760405162461bcd60e51b815260206004820152601f60248201527f466f72746946693a20496e76616c696420616d6f756e7473206f722062707300604482015260640162000119565b8351620002aa9060039060208701906200050a565b508251620002c090600190602086019062000574565b508151620002d69060029060208501906200061c565b5050505050565b60008083511180156200031c5750826000815181106200030d57634e487b7160e01b600052603260045260246000fd5b602002602001015160ff166000145b6200036a5760405162461bcd60e51b815260206004820152601e60248201527f466f72746946693a20496e76616c696420616d6f756e74732061727261790000604482015260640162000119565b815160005b8160ff16811015620004ff578015620004ea57836200039060018362000945565b81518110620003af57634e487b7160e01b600052603260045260246000fd5b602002602001015161ffff16848281518110620003dc57634e487b7160e01b600052603260045260246000fd5b602002602001015161ffff1610620004375760405162461bcd60e51b815260206004820152601a60248201527f466f72746946693a20496e76616c696420627073206172726179000000000000604482015260640162000119565b846200044560018362000945565b815181106200046457634e487b7160e01b600052603260045260246000fd5b602002602001015160ff168582815181106200049057634e487b7160e01b600052603260045260246000fd5b602002602001015160ff1611620004ea5760405162461bcd60e51b815260206004820152601e60248201527f466f72746946693a20496e76616c696420616d6f756e742076616c7565730000604482015260640162000119565b80620004f6816200095f565b9150506200036f565b506001949350505050565b82805482825590600052602060002090810192821562000562579160200282015b828111156200056257825182546001600160a01b0319166001600160a01b039091161782556020909201916001909101906200052b565b5062000570929150620006b8565b5090565b82805482825590600052602060002090601f01602090048101928215620005625791602002820160005b83821115620005de57835183826101000a81548160ff021916908360ff16021790555092602001926001016020816000010492830192600103026200059e565b80156200060d5782816101000a81549060ff0219169055600101602081600001049283019260010302620005de565b505062000570929150620006b8565b82805482825590600052602060002090600f01601090048101928215620005625791602002820160005b838211156200068857835183826101000a81548161ffff021916908361ffff160217905550926020019260020160208160010104928301926001030262000646565b80156200060d5782816101000a81549061ffff021916905560020160208160010104928301926001030262000688565b5b80821115620005705760008155600101620006b9565b600082601f830112620006e0578081fd5b81516020620006f9620006f3836200091f565b620008ec565b828152818101908583018385028701840188101562000716578586fd5b855b858110156200074657815161ffff8116811462000733578788fd5b8452928401929084019060010162000718565b5090979650505050505050565b600082601f83011262000764578081fd5b8151602062000777620006f3836200091f565b828152818101908583018385028701840188101562000794578586fd5b855b858110156200074657815160ff81168114620007b0578788fd5b8452928401929084019060010162000796565b80518015158114620007d457600080fd5b919050565b60008060008060808587031215620007ef578384fd5b84516001600160401b038082111562000806578586fd5b818701915087601f8301126200081a578586fd5b815160206200082d620006f3836200091f565b82815281810190858301838502870184018d10156200084a578a8bfd5b8a96505b84871015620008835780516001600160a01b03811681146200086e578b8cfd5b8352600196909601959183019183016200084e565b50918a01519198509093505050808211156200089d578485fd5b620008ab8883890162000753565b94506040870151915080821115620008c1578384fd5b50620008d087828801620006cf565b925050620008e160608601620007c3565b905092959194509250565b604051601f8201601f191681016001600160401b0381118282101715620009175762000917620009b6565b604052919050565b60006001600160401b038211156200093b576200093b620009b6565b5060209081020190565b6000828210156200095a576200095a620009a0565b500390565b6000600019821415620009765762000976620009a0565b5060010190565b600060ff821660ff811415620009975762000997620009a0565b60010192915050565b634e487b7160e01b600052601160045260246000fd5b634e487b7160e01b600052604160045260246000fd5b6114ef80620009dc6000396000f3fe608060405234801561001057600080fd5b50600436106100c95760003560e01c80638da5cb5b11610081578063e604a5051161005b578063e604a50514610193578063efb36c14146101b7578063f2fde38b146101d8576100c9565b80638da5cb5b1461014a5780639ad280c01461015b5780639b52401b14610180576100c9565b8063249d39e9116100b2578063249d39e914610124578063715018a61461012d57806383df57c814610137576100c9565b80630bb4d82a146100ce5780631fd248d9146100fe575b600080fd5b6100e16100dc36600461133c565b6101eb565b6040516001600160a01b0390911681526020015b60405180910390f35b61011161010c36600461133c565b610215565b60405161ffff90911681526020016100f5565b61011161271081565b61013561024d565b005b610135610145366004611315565b6102b8565b6000546001600160a01b03166100e1565b61016e61016936600461133c565b61034b565b60405160ff90911681526020016100f5565b61013561018e366004611234565b61037f565b6000546101a790600160a01b900460ff1681565b60405190151581526020016100f5565b6101ca6101c536600461120b565b610580565b6040519081526020016100f5565b6101356101e63660046111f1565b6105b7565b600381815481106101fb57600080fd5b6000918252602090912001546001600160a01b0316905081565b6002818154811061022557600080fd5b9060005260206000209060109182820401919006600202915054906101000a900461ffff1681565b6000546001600160a01b031633146102ac5760405162461bcd60e51b815260206004820181905260248201527f4f776e61626c653a2063616c6c6572206973206e6f7420746865206f776e657260448201526064015b60405180910390fd5b6102b66000610699565b565b6000546001600160a01b031633146103125760405162461bcd60e51b815260206004820181905260248201527f4f776e61626c653a2063616c6c6572206973206e6f7420746865206f776e657260448201526064016102a3565b60008054911515600160a01b027fffffffffffffffffffffff00ffffffffffffffffffffffffffffffffffffffff909216919091179055565b6001818154811061035b57600080fd5b9060005260206000209060209182820401919006915054906101000a900460ff1681565b6000546001600160a01b031633146103d95760405162461bcd60e51b815260206004820181905260248201527f4f776e61626c653a2063616c6c6572206973206e6f7420746865206f776e657260448201526064016102a3565b825160ff811661042b5760405162461bcd60e51b815260206004820152601a60248201527f466f72746946693a20496e76616c6964204e465420617272617900000000000060448201526064016102a3565b60005b8160ff168160ff1610156104db5760006001600160a01b0316858260ff168151811061046a57634e487b7160e01b600052603260045260246000fd5b60200260200101516001600160a01b031614156104c95760405162461bcd60e51b815260206004820152601c60248201527f466f72746946693a20496e76616c6964204e465420616464726573730000000060448201526064016102a3565b806104d38161146d565b91505061042e565b50815183511480156104f257506104f283836106f6565b61053e5760405162461bcd60e51b815260206004820152601f60248201527f466f72746946693a20496e76616c696420616d6f756e7473206f72206270730060448201526064016102a3565b8351610551906003906020870190610f33565b508251610565906001906020860190610fa5565b508151610579906002906020850190611046565b5050505050565b60008054600160a01b900460ff16156105a45761059d838361090e565b90506105b1565b6105ae8383610c27565b90505b92915050565b6000546001600160a01b031633146106115760405162461bcd60e51b815260206004820181905260248201527f4f776e61626c653a2063616c6c6572206973206e6f7420746865206f776e657260448201526064016102a3565b6001600160a01b03811661068d5760405162461bcd60e51b815260206004820152602660248201527f4f776e61626c653a206e6577206f776e657220697320746865207a65726f206160448201527f646472657373000000000000000000000000000000000000000000000000000060648201526084016102a3565b61069681610699565b50565b600080546001600160a01b0383811673ffffffffffffffffffffffffffffffffffffffff19831681178455604051919092169283917f8be0079c531659141344cd1fd0a4f28419497f9722a3daafe3b4186f6b6457e09190a35050565b600080835111801561073357508260008151811061072457634e487b7160e01b600052603260045260246000fd5b602002602001015160ff166000145b61077f5760405162461bcd60e51b815260206004820152601e60248201527f466f72746946693a20496e76616c696420616d6f756e7473206172726179000060448201526064016102a3565b815160005b8160ff168110156109035780156108f157836107a1600183611418565b815181106107bf57634e487b7160e01b600052603260045260246000fd5b602002602001015161ffff168482815181106107eb57634e487b7160e01b600052603260045260246000fd5b602002602001015161ffff16106108445760405162461bcd60e51b815260206004820152601a60248201527f466f72746946693a20496e76616c69642062707320617272617900000000000060448201526064016102a3565b84610850600183611418565b8151811061086e57634e487b7160e01b600052603260045260246000fd5b602002602001015160ff1685828151811061089957634e487b7160e01b600052603260045260246000fd5b602002602001015160ff16116108f15760405162461bcd60e51b815260206004820152601e60248201527f466f72746946693a20496e76616c696420616d6f756e742076616c756573000060448201526064016102a3565b806108fb81611452565b915050610784565b506001949350505050565b6003546001546002805460009392918491829061093b57634e487b7160e01b600052603260045260246000fd5b600091825260208220601082040154600f9091166002026101000a900461ffff169150805b8460ff168160ff161015610a3d57600060038260ff168154811061099457634e487b7160e01b600052603260045260246000fd5b6000918252602090912001546040516370a0823160e01b81526001600160a01b038b81166004830152909116915081906370a082319060240160206040518083038186803b1580156109e557600080fd5b505afa1580156109f9573d6000803e3d6000fd5b505050506040513d601f19601f82011682018060405250810190610a1d9190611354565b610a2790846113c1565b9250508080610a359061146d565b915050610960565b508015610bdd5760015b8360ff168160ff161015610bdb5760018160ff1681548110610a7957634e487b7160e01b600052603260045260246000fd5b60009182526020918290209181049091015460ff601f9092166101000a900416821015610b095760006002610aaf60018461142f565b60ff1681548110610ad057634e487b7160e01b600052603260045260246000fd5b60009182526020909120601082040154600f9091166002026101000a900461ffff90811691508416811015610b03578093505b50610bdb565b60018160ff1681548110610b2d57634e487b7160e01b600052603260045260246000fd5b60009182526020918290209181049091015460ff601f9092166101000a900416821480610b695750610b6060018561142f565b60ff168160ff16145b15610bc957600060028260ff1681548110610b9457634e487b7160e01b600052603260045260246000fd5b60009182526020909120601082040154600f9091166002026101000a900461ffff90811691508416811015610bc7578093505b505b80610bd38161146d565b915050610a47565b505b612710610bee61ffff8416886113f9565b1015610c015760009450505050506105b1565b612710610c1261ffff8416886113f9565b610c1c91906113d9565b979650505050505050565b60035460015460028054600093929184918290610c5457634e487b7160e01b600052603260045260246000fd5b600091825260208220601082040154600f9091166002026101000a900461ffff1691505b8360ff168160ff161015610eea57600060038260ff1681548110610cac57634e487b7160e01b600052603260045260246000fd5b60009182526020822001546040516370a0823160e01b81526001600160a01b038b81166004830152909116925082906370a082319060240160206040518083038186803b158015610cfc57600080fd5b505afa158015610d10573d6000803e3d6000fd5b505050506040513d601f19601f82011682018060405250810190610d349190611354565b90508015610ed55760015b8560ff168160ff161015610ed35760018160ff1681548110610d7157634e487b7160e01b600052603260045260246000fd5b60009182526020918290209181049091015460ff601f9092166101000a900416821015610e015760006002610da760018461142f565b60ff1681548110610dc857634e487b7160e01b600052603260045260246000fd5b60009182526020909120601082040154600f9091166002026101000a900461ffff90811691508616811015610dfb578095505b50610ed3565b60018160ff1681548110610e2557634e487b7160e01b600052603260045260246000fd5b60009182526020918290209181049091015460ff601f9092166101000a900416821480610e615750610e5860018761142f565b60ff168160ff16145b15610ec157600060028260ff1681548110610e8c57634e487b7160e01b600052603260045260246000fd5b60009182526020909120601082040154600f9091166002026101000a900461ffff90811691508616811015610ebf578095505b505b80610ecb8161146d565b915050610d3f565b505b50508080610ee29061146d565b915050610c78565b50612710610efc61ffff8316876113f9565b1015610f0e57600093505050506105b1565b612710610f1f61ffff8316876113f9565b610f2991906113d9565b9695505050505050565b828054828255906000526020600020908101928215610f95579160200282015b82811115610f95578251825473ffffffffffffffffffffffffffffffffffffffff19166001600160a01b03909116178255602090920191600190910190610f53565b50610fa19291506110dd565b5090565b82805482825590600052602060002090601f01602090048101928215610f955791602002820160005b8382111561100c57835183826101000a81548160ff021916908360ff1602179055509260200192600101602081600001049283019260010302610fce565b80156110395782816101000a81549060ff021916905560010160208160000104928301926001030261100c565b5050610fa19291506110dd565b82805482825590600052602060002090600f01601090048101928215610f955791602002820160005b838211156110af57835183826101000a81548161ffff021916908361ffff160217905550926020019260020160208160010104928301926001030261106f565b80156110395782816101000a81549061ffff02191690556002016020816001010492830192600103026110af565b5b80821115610fa157600081556001016110de565b80356001600160a01b038116811461110957600080fd5b919050565b600082601f83011261111e578081fd5b8135602061113361112e8361139d565b61136c565b828152818101908583018385028701840188101561114f578586fd5b855b8581101561117c57813561ffff8116811461116a578788fd5b84529284019290840190600101611151565b5090979650505050505050565b600082601f830112611199578081fd5b813560206111a961112e8361139d565b82815281810190858301838502870184018810156111c5578586fd5b855b8581101561117c57813560ff811681146111df578788fd5b845292840192908401906001016111c7565b600060208284031215611202578081fd5b6105ae826110f2565b6000806040838503121561121d578081fd5b611226836110f2565b946020939093013593505050565b600080600060608486031215611248578081fd5b833567ffffffffffffffff8082111561125f578283fd5b818601915086601f830112611272578283fd5b8135602061128261112e8361139d565b82815281810190858301838502870184018c101561129e578788fd5b8796505b848710156112c7576112b3816110f2565b8352600196909601959183019183016112a2565b50975050870135925050808211156112dd578283fd5b6112e987838801611189565b935060408601359150808211156112fe578283fd5b5061130b8682870161110e565b9150509250925092565b600060208284031215611326578081fd5b81358015158114611335578182fd5b9392505050565b60006020828403121561134d578081fd5b5035919050565b600060208284031215611365578081fd5b5051919050565b604051601f8201601f1916810167ffffffffffffffff81118282101715611395576113956114a3565b604052919050565b600067ffffffffffffffff8211156113b7576113b76114a3565b5060209081020190565b600082198211156113d4576113d461148d565b500190565b6000826113f457634e487b7160e01b81526012600452602481fd5b500490565b60008160001904831182151516156114135761141361148d565b500290565b60008282101561142a5761142a61148d565b500390565b600060ff821660ff8416808210156114495761144961148d565b90039392505050565b60006000198214156114665761146661148d565b5060010190565b600060ff821660ff8114156114845761148461148d565b60010192915050565b634e487b7160e01b600052601160045260246000fd5b634e487b7160e01b600052604160045260246000fdfea2646970667358221220c73521ab76e6191afcaee2e8f948a3e8e5490caa81b517dccb443d5c0123073f64736f6c63430008020033",
  "devdoc": {
    "details": "When combineNftHoldings is true the contract will combine the user's balance across all NFT contracts in the nftContracts array when determining fees. Otherwise, the contract will only take  the user's highest balance out of the nftContracts.",
    "kind": "dev",
    "methods": {
      "owner()": {
        "details": "Returns the address of the current owner."
      },
      "renounceOwnership()": {
        "details": "Leaves the contract without owner. It will not be possible to call `onlyOwner` functions anymore. Can only be called by the current owner. NOTE: Renouncing ownership will leave the contract without an owner, thereby removing any functionality that is only available to the owner."
      },
      "setCombine(bool)": {
        "details": "When true, holdings across all specified collections in nftContracts will be combined to set the NFT count that is used when determining the _feeBps in _getFees."
      },
      "setFees(address[],uint8[],uint16[])": {
        "details": "Each amount in _tokenAmounts must have a corresponding bps value in _threshholdBps. Bps values should  decrease at each index, and token amounts should increase at each index. This maintains that the more NFTs a user holds, the lower the fee bps."
      },
      "transferOwnership(address)": {
        "details": "Transfers ownership of the contract to a new account (`newOwner`). Can only be called by the current owner."
      }
    },
    "title": "Contract to calculate fees for FortiFi Vaults",
    "version": 1
  },
  "userdoc": {
    "kind": "user",
    "methods": {
      "getFees(address,uint256)": {
        "notice": "Function to determine fees due based on a user's NFT holdings and amount of profit"
      },
      "setCombine(bool)": {
        "notice": "Function to set combineNFTHoldings state variable. "
      },
      "setFees(address[],uint8[],uint16[])": {
        "notice": "Function to set new values for NFT contracts, threshhold amounts, and threshholdBps"
      }
    },
    "notice": "This contract is used by FortiFi Vaults to calculate fees based on a user's NFT holdings. ",
    "version": 1
  },
  "storageLayout": {
    "storage": [
      {
        "astId": 7,
        "contract": "contracts/fee-calculators/FortiFiFeeCalculator.sol:FortiFiFeeCalculator",
        "label": "_owner",
        "offset": 0,
        "slot": "0",
        "type": "t_address"
      },
      {
        "astId": 3840,
        "contract": "contracts/fee-calculators/FortiFiFeeCalculator.sol:FortiFiFeeCalculator",
        "label": "combineNftHoldings",
        "offset": 20,
        "slot": "0",
        "type": "t_bool"
      },
      {
        "astId": 3843,
        "contract": "contracts/fee-calculators/FortiFiFeeCalculator.sol:FortiFiFeeCalculator",
        "label": "tokenAmounts",
        "offset": 0,
        "slot": "1",
        "type": "t_array(t_uint8)dyn_storage"
      },
      {
        "astId": 3846,
        "contract": "contracts/fee-calculators/FortiFiFeeCalculator.sol:FortiFiFeeCalculator",
        "label": "threshholdBps",
        "offset": 0,
        "slot": "2",
        "type": "t_array(t_uint16)dyn_storage"
      },
      {
        "astId": 3849,
        "contract": "contracts/fee-calculators/FortiFiFeeCalculator.sol:FortiFiFeeCalculator",
        "label": "nftContracts",
        "offset": 0,
        "slot": "3",
        "type": "t_array(t_address)dyn_storage"
      }
    ],
    "types": {
      "t_address": {
        "encoding": "inplace",
        "label": "address",
        "numberOfBytes": "20"
      },
      "t_array(t_address)dyn_storage": {
        "base": "t_address",
        "encoding": "dynamic_array",
        "label": "address[]",
        "numberOfBytes": "32"
      },
      "t_array(t_uint16)dyn_storage": {
        "base": "t_uint16",
        "encoding": "dynamic_array",
        "label": "uint16[]",
        "numberOfBytes": "32"
      },
      "t_array(t_uint8)dyn_storage": {
        "base": "t_uint8",
        "encoding": "dynamic_array",
        "label": "uint8[]",
        "numberOfBytes": "32"
      },
      "t_bool": {
        "encoding": "inplace",
        "label": "bool",
        "numberOfBytes": "1"
      },
      "t_uint16": {
        "encoding": "inplace",
        "label": "uint16",
        "numberOfBytes": "2"
      },
      "t_uint8": {
        "encoding": "inplace",
        "label": "uint8",
        "numberOfBytes": "1"
      }
    }
  }
}