{
  "address": "0x14517a26005f3F92AEa60b6619aC0e10E3A718d1",
  "abi": [
    {
      "inputs": [
        {
          "internalType": "address",
          "name": "_strategy",
          "type": "address"
        },
        {
          "internalType": "address",
          "name": "_depositToken",
          "type": "address"
        },
        {
          "internalType": "address",
          "name": "_wrappedNative",
          "type": "address"
        }
      ],
      "stateMutability": "nonpayable",
      "type": "constructor"
    },
    {
      "anonymous": false,
      "inputs": [
        {
          "indexed": true,
          "internalType": "address",
          "name": "owner",
          "type": "address"
        },
        {
          "indexed": true,
          "internalType": "address",
          "name": "spender",
          "type": "address"
        },
        {
          "indexed": false,
          "internalType": "uint256",
          "name": "value",
          "type": "uint256"
        }
      ],
      "name": "Approval",
      "type": "event"
    },
    {
      "anonymous": false,
      "inputs": [
        {
          "indexed": true,
          "internalType": "address",
          "name": "vault",
          "type": "address"
        },
        {
          "indexed": true,
          "internalType": "address",
          "name": "user",
          "type": "address"
        },
        {
          "indexed": true,
          "internalType": "address",
          "name": "strategy",
          "type": "address"
        },
        {
          "indexed": false,
          "internalType": "uint256",
          "name": "amountDeposited",
          "type": "uint256"
        }
      ],
      "name": "DepositToFortress",
      "type": "event"
    },
    {
      "anonymous": false,
      "inputs": [
        {
          "indexed": true,
          "internalType": "address",
          "name": "vault",
          "type": "address"
        },
        {
          "indexed": false,
          "internalType": "uint256",
          "name": "tokenId",
          "type": "uint256"
        },
        {
          "indexed": true,
          "internalType": "address",
          "name": "strategy",
          "type": "address"
        }
      ],
      "name": "FortressCreated",
      "type": "event"
    },
    {
      "anonymous": false,
      "inputs": [
        {
          "indexed": true,
          "internalType": "address",
          "name": "previousOwner",
          "type": "address"
        },
        {
          "indexed": true,
          "internalType": "address",
          "name": "newOwner",
          "type": "address"
        }
      ],
      "name": "OwnershipTransferred",
      "type": "event"
    },
    {
      "anonymous": false,
      "inputs": [
        {
          "indexed": true,
          "internalType": "address",
          "name": "from",
          "type": "address"
        },
        {
          "indexed": true,
          "internalType": "address",
          "name": "to",
          "type": "address"
        },
        {
          "indexed": false,
          "internalType": "uint256",
          "name": "value",
          "type": "uint256"
        }
      ],
      "name": "Transfer",
      "type": "event"
    },
    {
      "anonymous": false,
      "inputs": [
        {
          "indexed": true,
          "internalType": "address",
          "name": "vault",
          "type": "address"
        },
        {
          "indexed": true,
          "internalType": "address",
          "name": "user",
          "type": "address"
        },
        {
          "indexed": true,
          "internalType": "address",
          "name": "strategy",
          "type": "address"
        },
        {
          "indexed": false,
          "internalType": "uint256",
          "name": "amountReceived",
          "type": "uint256"
        }
      ],
      "name": "WithdrawFromFortress",
      "type": "event"
    },
    {
      "inputs": [
        {
          "internalType": "address",
          "name": "owner",
          "type": "address"
        },
        {
          "internalType": "address",
          "name": "spender",
          "type": "address"
        }
      ],
      "name": "allowance",
      "outputs": [
        {
          "internalType": "uint256",
          "name": "",
          "type": "uint256"
        }
      ],
      "stateMutability": "view",
      "type": "function"
    },
    {
      "inputs": [
        {
          "internalType": "address",
          "name": "spender",
          "type": "address"
        },
        {
          "internalType": "uint256",
          "name": "amount",
          "type": "uint256"
        }
      ],
      "name": "approve",
      "outputs": [
        {
          "internalType": "bool",
          "name": "",
          "type": "bool"
        }
      ],
      "stateMutability": "nonpayable",
      "type": "function"
    },
    {
      "inputs": [
        {
          "internalType": "address",
          "name": "account",
          "type": "address"
        }
      ],
      "name": "balanceOf",
      "outputs": [
        {
          "internalType": "uint256",
          "name": "",
          "type": "uint256"
        }
      ],
      "stateMutability": "view",
      "type": "function"
    },
    {
      "inputs": [],
      "name": "decimals",
      "outputs": [
        {
          "internalType": "uint8",
          "name": "",
          "type": "uint8"
        }
      ],
      "stateMutability": "view",
      "type": "function"
    },
    {
      "inputs": [
        {
          "internalType": "address",
          "name": "spender",
          "type": "address"
        },
        {
          "internalType": "uint256",
          "name": "subtractedValue",
          "type": "uint256"
        }
      ],
      "name": "decreaseAllowance",
      "outputs": [
        {
          "internalType": "bool",
          "name": "",
          "type": "bool"
        }
      ],
      "stateMutability": "nonpayable",
      "type": "function"
    },
    {
      "inputs": [
        {
          "internalType": "uint256",
          "name": "_amount",
          "type": "uint256"
        },
        {
          "internalType": "address",
          "name": "_user",
          "type": "address"
        },
        {
          "internalType": "uint256",
          "name": "_tokenId",
          "type": "uint256"
        }
      ],
      "name": "depositToFortress",
      "outputs": [],
      "stateMutability": "nonpayable",
      "type": "function"
    },
    {
      "inputs": [],
      "name": "depositToken",
      "outputs": [
        {
          "internalType": "address",
          "name": "",
          "type": "address"
        }
      ],
      "stateMutability": "view",
      "type": "function"
    },
    {
      "inputs": [
        {
          "internalType": "address",
          "name": "spender",
          "type": "address"
        },
        {
          "internalType": "uint256",
          "name": "addedValue",
          "type": "uint256"
        }
      ],
      "name": "increaseAllowance",
      "outputs": [
        {
          "internalType": "bool",
          "name": "",
          "type": "bool"
        }
      ],
      "stateMutability": "nonpayable",
      "type": "function"
    },
    {
      "inputs": [
        {
          "internalType": "address",
          "name": "",
          "type": "address"
        }
      ],
      "name": "isFortiFiVault",
      "outputs": [
        {
          "internalType": "bool",
          "name": "",
          "type": "bool"
        }
      ],
      "stateMutability": "view",
      "type": "function"
    },
    {
      "inputs": [],
      "name": "name",
      "outputs": [
        {
          "internalType": "string",
          "name": "",
          "type": "string"
        }
      ],
      "stateMutability": "view",
      "type": "function"
    },
    {
      "inputs": [],
      "name": "owner",
      "outputs": [
        {
          "internalType": "address",
          "name": "",
          "type": "address"
        }
      ],
      "stateMutability": "view",
      "type": "function"
    },
    {
      "inputs": [
        {
          "internalType": "address",
          "name": "_token",
          "type": "address"
        },
        {
          "internalType": "uint256",
          "name": "_amount",
          "type": "uint256"
        }
      ],
      "name": "recoverERC20",
      "outputs": [],
      "stateMutability": "nonpayable",
      "type": "function"
    },
    {
      "inputs": [
        {
          "internalType": "address",
          "name": "_fortress",
          "type": "address"
        },
        {
          "internalType": "address",
          "name": "_token",
          "type": "address"
        },
        {
          "internalType": "uint256",
          "name": "_amount",
          "type": "uint256"
        }
      ],
      "name": "recoverFromFortress",
      "outputs": [],
      "stateMutability": "nonpayable",
      "type": "function"
    },
    {
      "inputs": [],
      "name": "renounceOwnership",
      "outputs": [],
      "stateMutability": "nonpayable",
      "type": "function"
    },
    {
      "inputs": [
        {
          "internalType": "address",
          "name": "_strategy",
          "type": "address"
        },
        {
          "internalType": "bool",
          "name": "_approved",
          "type": "bool"
        }
      ],
      "name": "setVault",
      "outputs": [],
      "stateMutability": "nonpayable",
      "type": "function"
    },
    {
      "inputs": [],
      "name": "strategy",
      "outputs": [
        {
          "internalType": "address",
          "name": "",
          "type": "address"
        }
      ],
      "stateMutability": "view",
      "type": "function"
    },
    {
      "inputs": [],
      "name": "symbol",
      "outputs": [
        {
          "internalType": "string",
          "name": "",
          "type": "string"
        }
      ],
      "stateMutability": "view",
      "type": "function"
    },
    {
      "inputs": [],
      "name": "totalSupply",
      "outputs": [
        {
          "internalType": "uint256",
          "name": "",
          "type": "uint256"
        }
      ],
      "stateMutability": "view",
      "type": "function"
    },
    {
      "inputs": [
        {
          "internalType": "address",
          "name": "to",
          "type": "address"
        },
        {
          "internalType": "uint256",
          "name": "amount",
          "type": "uint256"
        }
      ],
      "name": "transfer",
      "outputs": [
        {
          "internalType": "bool",
          "name": "",
          "type": "bool"
        }
      ],
      "stateMutability": "nonpayable",
      "type": "function"
    },
    {
      "inputs": [
        {
          "internalType": "address",
          "name": "from",
          "type": "address"
        },
        {
          "internalType": "address",
          "name": "to",
          "type": "address"
        },
        {
          "internalType": "uint256",
          "name": "amount",
          "type": "uint256"
        }
      ],
      "name": "transferFrom",
      "outputs": [
        {
          "internalType": "bool",
          "name": "",
          "type": "bool"
        }
      ],
      "stateMutability": "nonpayable",
      "type": "function"
    },
    {
      "inputs": [
        {
          "internalType": "address",
          "name": "newOwner",
          "type": "address"
        }
      ],
      "name": "transferOwnership",
      "outputs": [],
      "stateMutability": "nonpayable",
      "type": "function"
    },
    {
      "inputs": [
        {
          "internalType": "address",
          "name": "",
          "type": "address"
        },
        {
          "internalType": "uint256",
          "name": "",
          "type": "uint256"
        }
      ],
      "name": "vaultToTokenToFortress",
      "outputs": [
        {
          "internalType": "address",
          "name": "",
          "type": "address"
        }
      ],
      "stateMutability": "view",
      "type": "function"
    },
    {
      "inputs": [
        {
          "internalType": "uint256",
          "name": "_amount",
          "type": "uint256"
        },
        {
          "internalType": "address",
          "name": "_user",
          "type": "address"
        },
        {
          "internalType": "uint256",
          "name": "_tokenId",
          "type": "uint256"
        }
      ],
      "name": "withdrawFromFortress",
      "outputs": [],
      "stateMutability": "nonpayable",
      "type": "function"
    },
    {
      "inputs": [],
      "name": "wrappedNativeToken",
      "outputs": [
        {
          "internalType": "address",
          "name": "",
          "type": "address"
        }
      ],
      "stateMutability": "view",
      "type": "function"
    }
  ],
  "transactionHash": "0x87d70b9b2c8baf2258a79b0371d594d5060c93e954786b3754bc38b5edffd5e5",
  "args": [
    "0x2323dac85c6ab9bd6a8b5fb75b0581e31232d12b",
    "0xB97EF9Ef8734C71904D8002F8b6Bc66Dd9c48a6E",
    "0xB31f66AA3C1e785363F0875A1B74E27b85FD66c7"
  ],
  "numDeployments": 5,
  "solcInputHash": "80d871474ab22031d5d53294046de2a3",
  "bytecode": "0x60e06040523480156200001157600080fd5b506040516200386e3803806200386e833981016040819052620000349162000262565b8282826040518060400160405280601881526020017f466f72746946692053747261746567792052656365697074000000000000000081525060405180604001604052806004815260200163232329a960e11b815250620000a46200009e620001f160201b60201c565b620001f5565b6004620000b2838262000351565b506005620000c1828262000351565b5050506001600160a01b038316620001205760405162461bcd60e51b815260206004820152601960248201527f466f72746946693a20496e76616c69642073747261746567790000000000000060448201526064015b60405180910390fd5b6001600160a01b038216620001785760405162461bcd60e51b815260206004820152601e60248201527f466f72746946693a20496e76616c6964206465706f73697420746f6b656e0000604482015260640162000117565b6001600160a01b038116620001d05760405162461bcd60e51b815260206004820152601d60248201527f466f72746946693a20496e76616c6964206e617469766520746f6b656e000000604482015260640162000117565b6001600160a01b03928316608052821660a0521660c052506200041d915050565b3390565b600080546001600160a01b038381166001600160a01b0319831681178455604051919092169283917f8be0079c531659141344cd1fd0a4f28419497f9722a3daafe3b4186f6b6457e09190a35050565b80516001600160a01b03811681146200025d57600080fd5b919050565b6000806000606084860312156200027857600080fd5b620002838462000245565b9250620002936020850162000245565b9150620002a36040850162000245565b90509250925092565b634e487b7160e01b600052604160045260246000fd5b600181811c90821680620002d757607f821691505b602082108103620002f857634e487b7160e01b600052602260045260246000fd5b50919050565b601f8211156200034c57600081815260208120601f850160051c81016020861015620003275750805b601f850160051c820191505b81811015620003485782815560010162000333565b5050505b505050565b81516001600160401b038111156200036d576200036d620002ac565b62000385816200037e8454620002c2565b84620002fe565b602080601f831160018114620003bd5760008415620003a45750858301515b600019600386901b1c1916600185901b17855562000348565b600085815260208120601f198616915b82811015620003ee57888601518255948401946001909101908401620003cd565b50858210156200040d5787850151600019600388901b60f8161c191681555b5050505050600190811b01905550565b60805160a05160c0516133cd620004a16000396000818161039b015281816106570152818161076b0152818161090d01528181610a3701528181610ad20152818161106a015261110001526000818161020a015261078c0152600081816103460152818161074a0152818161085301528181610b9a01526111c801526133cd6000f3fe60806040523480156200001157600080fd5b5060043610620001b95760003560e01c80638da5cb5b11620000f5578063c89039c51162000097578063ded438f0116200006e578063ded438f01462000422578063f2fde38b1462000439578063fdad531d146200045057600080fd5b8063c89039c51462000399578063cf95002214620003c0578063dd62ed3e14620003e657600080fd5b8063a8c62e7611620000cc578063a8c62e761462000344578063a9059cbb146200036b578063ba251fba146200038257600080fd5b80638da5cb5b146200031157806395d89b411462000323578063a457c2d7146200032d57600080fd5b8063313ce567116200015f57806370a08231116200013657806370a0823114620002c4578063715018a614620002f05780638980f11f14620002fa57600080fd5b8063313ce5671462000286578063395093511462000296578063627f66c614620002ad57600080fd5b806318160ddd116200019457806318160ddd146200024357806323b872dd146200025657806329c9aa19146200026d57600080fd5b806306fdde0314620001be578063095ea7b314620001e057806317fcb39b1462000208575b600080fd5b620001c862000487565b604051620001d7919062001aff565b60405180910390f35b620001f7620001f136600462001b6c565b62000521565b6040519015158152602001620001d7565b7f00000000000000000000000000000000000000000000000000000000000000005b6040516001600160a01b039091168152602001620001d7565b6003545b604051908152602001620001d7565b620001f76200026736600462001b99565b6200053d565b620002846200027e36600462001bda565b62000565565b005b60405160128152602001620001d7565b620001f7620002a736600462001b6c565b62000c18565b62000284620002be36600462001c11565b62000c5b565b62000247620002d536600462001c4d565b6001600160a01b031660009081526001602052604090205490565b6200028462000ce2565b620002846200030b36600462001b6c565b62000d4c565b6000546001600160a01b03166200022a565b620001c862000e21565b620001f76200033e36600462001b6c565b62000e32565b7f00000000000000000000000000000000000000000000000000000000000000006200022a565b620001f76200037c36600462001b6c565b62000ee0565b620002846200039336600462001bda565b62000ef0565b7f00000000000000000000000000000000000000000000000000000000000000006200022a565b620001f7620003d136600462001c4d565b60066020526000908152604090205460ff1681565b62000247620003f736600462001c72565b6001600160a01b03918216600090815260026020908152604080832093909416825291909152205490565b620002846200043336600462001b99565b62001244565b620002846200044a36600462001c4d565b62001328565b6200022a6200046136600462001b6c565b60076020908152600092835260408084209091529082529020546001600160a01b031681565b606060048054620004989062001caa565b80601f0160208091040260200160405190810160405280929190818152602001828054620004c69062001caa565b8015620005175780601f10620004eb5761010080835404028352916020019162000517565b820191906000526020600020905b815481529060010190602001808311620004f957829003601f168201915b5050505050905090565b6000336200053181858562001410565b60019150505b92915050565b6000336200054d8582856200156c565b6200055a85858562001603565b506001949350505050565b60008311620005bb5760405162461bcd60e51b815260206004820152601260248201527f466f72746946693a2030206465706f736974000000000000000000000000000060448201526064015b60405180910390fd5b3360009081526006602052604090205460ff166200061c5760405162461bcd60e51b815260206004820152601660248201527f466f72746946693a20496e76616c6964207661756c74000000000000000000006044820152606401620005b2565b6040517f23b872dd000000000000000000000000000000000000000000000000000000008152336004820152306024820152604481018490527f00000000000000000000000000000000000000000000000000000000000000006001600160a01b0316906323b872dd906064016020604051808303816000875af1158015620006a9573d6000803e3d6000fd5b505050506040513d601f19601f82011682018060405250810190620006cf919062001ce6565b6200071d5760405162461bcd60e51b815260206004820181905260248201527f466f72746946693a204661696c656420746f207472616e73666572206465702e6044820152606401620005b2565b3360009081526007602090815260408083208484529091528120546001600160a01b0316620008a85760007f00000000000000000000000000000000000000000000000000000000000000007f00000000000000000000000000000000000000000000000000000000000000007f000000000000000000000000000000000000000000000000000000000000000030604051620007ba9062001af1565b6001600160a01b039485168152928416602084015290831660408301529091166060820152608001604051809103906000f080158015620007ff573d6000803e3d6000fd5b50336000818152600760209081526040808320888452825291829020805473ffffffffffffffffffffffffffffffffffffffff19166001600160a01b038681169190911790915591518781529395508594507f0000000000000000000000000000000000000000000000000000000000000000909116927fd54b6c27f4639f28e778312a36befbf189631a3587aeb73e182e99c434eb7705910160405180910390a350620008ce565b503360009081526007602090815260408083208484529091529020546001600160a01b03165b6040517f095ea7b30000000000000000000000000000000000000000000000000000000081526001600160a01b038281166004830152602482018690527f0000000000000000000000000000000000000000000000000000000000000000169063095ea7b3906044016020604051808303816000875af115801562000957573d6000803e3d6000fd5b505050506040513d601f19601f820116820180604052508101906200097d919062001ce6565b506040517f6e553f65000000000000000000000000000000000000000000000000000000008152600481018590526001600160a01b03848116602483015260009190831690636e553f65906044016020604051808303816000875af1158015620009eb573d6000803e3d6000fd5b505050506040513d601f19601f8201168201806040525081019062000a11919062001d06565b905062000a1f338262001824565b6040516370a0823160e01b81523060048201526000907f00000000000000000000000000000000000000000000000000000000000000006001600160a01b0316906370a0823190602401602060405180830381865afa15801562000a87573d6000803e3d6000fd5b505050506040513d601f19601f8201168201806040525081019062000aad919062001d06565b9050801562000b985760405163a9059cbb60e01b8152336004820152602481018290527f00000000000000000000000000000000000000000000000000000000000000006001600160a01b03169063a9059cbb906044016020604051808303816000875af115801562000b24573d6000803e3d6000fd5b505050506040513d601f19601f8201168201806040525081019062000b4a919062001ce6565b62000b985760405162461bcd60e51b815260206004820152601f60248201527f466f72746946693a204661696c656420746f20726566756e64204552433230006044820152606401620005b2565b7f00000000000000000000000000000000000000000000000000000000000000006001600160a01b0316856001600160a01b0316336001600160a01b03167fe15dc988e072c1d9d056206bf4c2ccd15513ea1197955bdb545e39a4a198f6278960405162000c0891815260200190565b60405180910390a4505050505050565b3360008181526002602090815260408083206001600160a01b038716845290915281205490919062000531908290869062000c5590879062001d36565b62001410565b6000546001600160a01b0316331462000cb75760405162461bcd60e51b815260206004820181905260248201527f4f776e61626c653a2063616c6c6572206973206e6f7420746865206f776e65726044820152606401620005b2565b6001600160a01b03919091166000908152600660205260409020805460ff1916911515919091179055565b6000546001600160a01b0316331462000d3e5760405162461bcd60e51b815260206004820181905260248201527f4f776e61626c653a2063616c6c6572206973206e6f7420746865206f776e65726044820152606401620005b2565b62000d4a600062001909565b565b6000546001600160a01b0316331462000da85760405162461bcd60e51b815260206004820181905260248201527f4f776e61626c653a2063616c6c6572206973206e6f7420746865206f776e65726044820152606401620005b2565b60405163a9059cbb60e01b8152336004820152602481018290526001600160a01b0383169063a9059cbb906044016020604051808303816000875af115801562000df6573d6000803e3d6000fd5b505050506040513d601f19601f8201168201806040525081019062000e1c919062001ce6565b505050565b606060058054620004989062001caa565b3360008181526002602090815260408083206001600160a01b03871684529091528120549091908381101562000ed15760405162461bcd60e51b815260206004820152602560248201527f45524332303a2064656372656173656420616c6c6f77616e63652062656c6f7760448201527f207a65726f0000000000000000000000000000000000000000000000000000006064820152608401620005b2565b6200055a828686840362001410565b6000336200053181858562001603565b6000831162000f425760405162461bcd60e51b815260206004820152601360248201527f466f72746946693a2030207769746864726177000000000000000000000000006044820152606401620005b2565b3360009081526007602090815260408083208484529091529020546001600160a01b031662000fb45760405162461bcd60e51b815260206004820152601460248201527f466f72746946693a204e6f20666f7274726573730000000000000000000000006044820152606401620005b2565b62000fc0338462001966565b336000908152600760209081526040808320848452909152908190205490517f51cff8d90000000000000000000000000000000000000000000000000000000081526001600160a01b038481166004830152909116906351cff8d990602401600060405180830381600087803b1580156200103a57600080fd5b505af11580156200104f573d6000803e3d6000fd5b50506040516370a0823160e01b8152306004820152600092507f00000000000000000000000000000000000000000000000000000000000000006001600160a01b031691506370a0823190602401602060405180830381865afa158015620010bb573d6000803e3d6000fd5b505050506040513d601f19601f82011682018060405250810190620010e1919062001d06565b60405163a9059cbb60e01b8152336004820152602481018290529091507f00000000000000000000000000000000000000000000000000000000000000006001600160a01b03169063a9059cbb906044016020604051808303816000875af115801562001152573d6000803e3d6000fd5b505050506040513d601f19601f8201168201806040525081019062001178919062001ce6565b620011c65760405162461bcd60e51b815260206004820181905260248201527f466f72746946693a204661696c656420746f207472616e73666572206465702e6044820152606401620005b2565b7f00000000000000000000000000000000000000000000000000000000000000006001600160a01b0316836001600160a01b0316336001600160a01b03167f59d5a9a5eed4e45e6bfdfe1c924db07498829117e5af1e2726e482451690624d846040516200123691815260200190565b60405180910390a450505050565b6000546001600160a01b03163314620012a05760405162461bcd60e51b815260206004820181905260248201527f4f776e61626c653a2063616c6c6572206973206e6f7420746865206f776e65726044820152606401620005b2565b6040517f1171bda90000000000000000000000000000000000000000000000000000000081523360048201526001600160a01b03838116602483015260448201839052841690631171bda990606401600060405180830381600087803b1580156200130a57600080fd5b505af11580156200131f573d6000803e3d6000fd5b50505050505050565b6000546001600160a01b03163314620013845760405162461bcd60e51b815260206004820181905260248201527f4f776e61626c653a2063616c6c6572206973206e6f7420746865206f776e65726044820152606401620005b2565b6001600160a01b038116620014025760405162461bcd60e51b815260206004820152602660248201527f4f776e61626c653a206e6577206f776e657220697320746865207a65726f206160448201527f64647265737300000000000000000000000000000000000000000000000000006064820152608401620005b2565b6200140d8162001909565b50565b6001600160a01b0383166200148d5760405162461bcd60e51b8152602060048201526024808201527f45524332303a20617070726f76652066726f6d20746865207a65726f2061646460448201527f72657373000000000000000000000000000000000000000000000000000000006064820152608401620005b2565b6001600160a01b0382166200150b5760405162461bcd60e51b815260206004820152602260248201527f45524332303a20617070726f766520746f20746865207a65726f20616464726560448201527f73730000000000000000000000000000000000000000000000000000000000006064820152608401620005b2565b6001600160a01b0383811660008181526002602090815260408083209487168084529482529182902085905590518481527f8c5be1e5ebec7d5bd14f71427d1e84f3dd0314c0f7b2291e5b200ac8c7c3b925910160405180910390a3505050565b6001600160a01b038381166000908152600260209081526040808320938616835292905220546000198114620015fd5781811015620015ee5760405162461bcd60e51b815260206004820152601d60248201527f45524332303a20696e73756666696369656e7420616c6c6f77616e63650000006044820152606401620005b2565b620015fd848484840362001410565b50505050565b6001600160a01b038316620016815760405162461bcd60e51b815260206004820152602560248201527f45524332303a207472616e736665722066726f6d20746865207a65726f20616460448201527f64726573730000000000000000000000000000000000000000000000000000006064820152608401620005b2565b6001600160a01b038216620016ff5760405162461bcd60e51b815260206004820152602360248201527f45524332303a207472616e7366657220746f20746865207a65726f206164647260448201527f65737300000000000000000000000000000000000000000000000000000000006064820152608401620005b2565b6001600160a01b03831660009081526001602052604090205481811015620017905760405162461bcd60e51b815260206004820152602660248201527f45524332303a207472616e7366657220616d6f756e742065786365656473206260448201527f616c616e636500000000000000000000000000000000000000000000000000006064820152608401620005b2565b6001600160a01b03808516600090815260016020526040808220858503905591851681529081208054849290620017c990849062001d36565b92505081905550826001600160a01b0316846001600160a01b03167fddf252ad1be2c89b69c2b068fc378daa952ba7f163c4a11628f55a4df523b3ef846040516200181691815260200190565b60405180910390a3620015fd565b6001600160a01b0382166200187c5760405162461bcd60e51b815260206004820152601f60248201527f45524332303a206d696e7420746f20746865207a65726f2061646472657373006044820152606401620005b2565b806003600082825462001890919062001d36565b90915550506001600160a01b03821660009081526001602052604081208054839290620018bf90849062001d36565b90915550506040518181526001600160a01b038316906000907fddf252ad1be2c89b69c2b068fc378daa952ba7f163c4a11628f55a4df523b3ef9060200160405180910390a35050565b600080546001600160a01b0383811673ffffffffffffffffffffffffffffffffffffffff19831681178455604051919092169283917f8be0079c531659141344cd1fd0a4f28419497f9722a3daafe3b4186f6b6457e09190a35050565b6001600160a01b038216620019e45760405162461bcd60e51b815260206004820152602160248201527f45524332303a206275726e2066726f6d20746865207a65726f2061646472657360448201527f73000000000000000000000000000000000000000000000000000000000000006064820152608401620005b2565b6001600160a01b0382166000908152600160205260409020548181101562001a755760405162461bcd60e51b815260206004820152602260248201527f45524332303a206275726e20616d6f756e7420657863656564732062616c616e60448201527f63650000000000000000000000000000000000000000000000000000000000006064820152608401620005b2565b6001600160a01b038316600090815260016020526040812083830390556003805484929062001aa690849062001d4c565b90915550506040518281526000906001600160a01b038516907fddf252ad1be2c89b69c2b068fc378daa952ba7f163c4a11628f55a4df523b3ef9060200160405180910390a3505050565b6116358062001d6383390190565b600060208083528351808285015260005b8181101562001b2e5785810183015185820160400152820162001b10565b506000604082860101526040601f19601f8301168501019250505092915050565b80356001600160a01b038116811462001b6757600080fd5b919050565b6000806040838503121562001b8057600080fd5b62001b8b8362001b4f565b946020939093013593505050565b60008060006060848603121562001baf57600080fd5b62001bba8462001b4f565b925062001bca6020850162001b4f565b9150604084013590509250925092565b60008060006060848603121562001bf057600080fd5b8335925062001bca6020850162001b4f565b80151581146200140d57600080fd5b6000806040838503121562001c2557600080fd5b62001c308362001b4f565b9150602083013562001c428162001c02565b809150509250929050565b60006020828403121562001c6057600080fd5b62001c6b8262001b4f565b9392505050565b6000806040838503121562001c8657600080fd5b62001c918362001b4f565b915062001ca16020840162001b4f565b90509250929050565b600181811c9082168062001cbf57607f821691505b60208210810362001ce057634e487b7160e01b600052602260045260246000fd5b50919050565b60006020828403121562001cf957600080fd5b815162001c6b8162001c02565b60006020828403121562001d1957600080fd5b5051919050565b634e487b7160e01b600052601160045260246000fd5b8082018082111562000537576200053762001d20565b8181038181111562000537576200053762001d2056fe60e06040523480156200001157600080fd5b5060405162001635380380620016358339810160408190526200003491620002b8565b8383838362000043336200024b565b6001600160a01b0384166200009f5760405162461bcd60e51b815260206004820152601960248201527f466f72746946693a20496e76616c69642073747261746567790000000000000060448201526064015b60405180910390fd5b6001600160a01b038316620000f75760405162461bcd60e51b815260206004820152601e60248201527f466f72746946693a20496e76616c6964206465706f73697420746f6b656e0000604482015260640162000096565b6001600160a01b0382166200014f5760405162461bcd60e51b815260206004820152601d60248201527f466f72746946693a20496e76616c6964206e617469766520746f6b656e000000604482015260640162000096565b6001600160a01b038116620001a75760405162461bcd60e51b815260206004820152601660248201527f466f72746946693a20496e76616c6964206f776e657200000000000000000000604482015260640162000096565b6001600160a01b03848116608081905284821660a081905291841660c05260405163095ea7b360e01b81526004810191909152600019602482015263095ea7b3906044016020604051808303816000875af11580156200020b573d6000803e3d6000fd5b505050506040513d601f19601f8201168201806040525081019062000231919062000315565b506200023d816200024b565b505050505050505062000340565b600080546001600160a01b038381166001600160a01b0319831681178455604051919092169283917f8be0079c531659141344cd1fd0a4f28419497f9722a3daafe3b4186f6b6457e09190a35050565b80516001600160a01b0381168114620002b357600080fd5b919050565b60008060008060808587031215620002cf57600080fd5b620002da856200029b565b9350620002ea602086016200029b565b9250620002fa604086016200029b565b91506200030a606086016200029b565b905092959194509250565b6000602082840312156200032857600080fd5b815180151581146200033957600080fd5b9392505050565b60805160a05160c05161125d620003d86000396000818160f201528181610e960152610f370152600081816102070152818161062e0152818161087101528181610bbf01528181610d260152610dbd0152600081816101bf015281816103950152818161048901528181610500015281816105a30152818161094a015281816109ef01528181610a690152610b8f015261125d6000f3fe6080604052600436106100b55760003560e01c80638da5cb5b11610069578063bf33a1f51161004e578063bf33a1f5146101e3578063c89039c5146101f8578063f2fde38b1461022b57600080fd5b80638da5cb5b14610192578063a8c62e76146101b057600080fd5b806351cff8d91161009a57806351cff8d91461012f5780636e553f651461014f578063715018a61461017d57600080fd5b80631171bda9146100c157806317fcb39b146100e357600080fd5b366100bc57005b600080fd5b3480156100cd57600080fd5b506100e16100dc366004611122565b61024b565b005b3480156100ef57600080fd5b507f00000000000000000000000000000000000000000000000000000000000000005b6040516001600160a01b0390911681526020015b60405180910390f35b34801561013b57600080fd5b506100e161014a36600461115e565b610323565b34801561015b57600080fd5b5061016f61016a366004611180565b61078b565b604051908152602001610126565b34801561018957600080fd5b506100e1610af9565b34801561019e57600080fd5b506000546001600160a01b0316610112565b3480156101bc57600080fd5b507f0000000000000000000000000000000000000000000000000000000000000000610112565b3480156101ef57600080fd5b506100e1610b5f565b34801561020457600080fd5b507f0000000000000000000000000000000000000000000000000000000000000000610112565b34801561023757600080fd5b506100e161024636600461115e565b610c2f565b6000546001600160a01b031633146102aa5760405162461bcd60e51b815260206004820181905260248201527f4f776e61626c653a2063616c6c6572206973206e6f7420746865206f776e657260448201526064015b60405180910390fd5b60405163a9059cbb60e01b81526001600160a01b0384811660048301526024820183905283169063a9059cbb906044016020604051808303816000875af11580156102f9573d6000803e3d6000fd5b505050506040513d601f19601f8201168201806040525081019061031d91906111ac565b50505050565b6000546001600160a01b0316331461037d5760405162461bcd60e51b815260206004820181905260248201527f4f776e61626c653a2063616c6c6572206973206e6f7420746865206f776e657260448201526064016102a1565b6040516370a0823160e01b81523060048201526000907f00000000000000000000000000000000000000000000000000000000000000006001600160a01b0316906370a0823190602401602060405180830381865afa1580156103e4573d6000803e3d6000fd5b505050506040513d601f19601f8201168201806040525081019061040891906111ce565b90506000811161045a5760405162461bcd60e51b815260206004820152601360248201527f466f72746946693a20302077697468647261770000000000000000000000000060448201526064016102a1565b6040517f2e1a7d4d000000000000000000000000000000000000000000000000000000008152600481018290527f00000000000000000000000000000000000000000000000000000000000000006001600160a01b031690632e1a7d4d90602401600060405180830381600087803b1580156104d557600080fd5b505af11580156104e9573d6000803e3d6000fd5b50506040516370a0823160e01b81523060048201527f00000000000000000000000000000000000000000000000000000000000000006001600160a01b031692506370a082319150602401602060405180830381865afa158015610551573d6000803e3d6000fd5b505050506040513d601f19601f8201168201806040525081019061057591906111ce565b905080156106195760405163a9059cbb60e01b81526001600160a01b038381166004830152602482018390527f0000000000000000000000000000000000000000000000000000000000000000169063a9059cbb906044016020604051808303816000875af11580156105ec573d6000803e3d6000fd5b505050506040513d601f19601f8201168201806040525081019061061091906111ac565b61061957600080fd5b6040516370a0823160e01b81523060048201527f00000000000000000000000000000000000000000000000000000000000000006001600160a01b03169063a9059cbb90339083906370a0823190602401602060405180830381865afa158015610687573d6000803e3d6000fd5b505050506040513d601f19601f820116820180604052508101906106ab91906111ce565b6040517fffffffff0000000000000000000000000000000000000000000000000000000060e085901b1681526001600160a01b03909216600483015260248201526044016020604051808303816000875af115801561070e573d6000803e3d6000fd5b505050506040513d601f19601f8201168201806040525081019061073291906111ac565b61077e5760405162461bcd60e51b815260206004820181905260248201527f466f72746946693a204661696c656420746f207472616e73666572206465702e60448201526064016102a1565b61078782610d0e565b5050565b600080546001600160a01b031633146107e65760405162461bcd60e51b815260206004820181905260248201527f4f776e61626c653a2063616c6c6572206973206e6f7420746865206f776e657260448201526064016102a1565b600083116108365760405162461bcd60e51b815260206004820152601260248201527f466f72746946693a2030206465706f736974000000000000000000000000000060448201526064016102a1565b6040517f23b872dd000000000000000000000000000000000000000000000000000000008152336004820152306024820152604481018490527f00000000000000000000000000000000000000000000000000000000000000006001600160a01b0316906323b872dd906064016020604051808303816000875af11580156108c2573d6000803e3d6000fd5b505050506040513d601f19601f820116820180604052508101906108e691906111ac565b6109325760405162461bcd60e51b815260206004820181905260248201527f466f72746946693a204661696c656420746f207472616e73666572206465702e60448201526064016102a1565b6040516370a0823160e01b81523060048201526000907f00000000000000000000000000000000000000000000000000000000000000006001600160a01b0316906370a0823190602401602060405180830381865afa158015610999573d6000803e3d6000fd5b505050506040513d601f19601f820116820180604052508101906109bd91906111ce565b6040517fb6b55f25000000000000000000000000000000000000000000000000000000008152600481018690529091507f00000000000000000000000000000000000000000000000000000000000000006001600160a01b03169063b6b55f2590602401600060405180830381600087803b158015610a3b57600080fd5b505af1158015610a4f573d6000803e3d6000fd5b50506040516370a0823160e01b81523060048201528392507f00000000000000000000000000000000000000000000000000000000000000006001600160a01b031691506370a0823190602401602060405180830381865afa158015610ab9573d6000803e3d6000fd5b505050506040513d601f19601f82011682018060405250810190610add91906111ce565b610ae791906111e7565b9150610af283610d0e565b5092915050565b6000546001600160a01b03163314610b535760405162461bcd60e51b815260206004820181905260248201527f4f776e61626c653a2063616c6c6572206973206e6f7420746865206f776e657260448201526064016102a1565b610b5d600061109e565b565b6040517f095ea7b30000000000000000000000000000000000000000000000000000000081526001600160a01b037f00000000000000000000000000000000000000000000000000000000000000008116600483015260001960248301527f0000000000000000000000000000000000000000000000000000000000000000169063095ea7b3906044016020604051808303816000875af1158015610c08573d6000803e3d6000fd5b505050506040513d601f19601f82011682018060405250810190610c2c91906111ac565b50565b6000546001600160a01b03163314610c895760405162461bcd60e51b815260206004820181905260248201527f4f776e61626c653a2063616c6c6572206973206e6f7420746865206f776e657260448201526064016102a1565b6001600160a01b038116610d055760405162461bcd60e51b815260206004820152602660248201527f4f776e61626c653a206e6577206f776e657220697320746865207a65726f206160448201527f646472657373000000000000000000000000000000000000000000000000000060648201526084016102a1565b610c2c8161109e565b6040516370a0823160e01b81523060048201526000907f00000000000000000000000000000000000000000000000000000000000000006001600160a01b0316906370a0823190602401602060405180830381865afa158015610d75573d6000803e3d6000fd5b505050506040513d601f19601f82011682018060405250810190610d9991906111ce565b90508015610e7e5760405163a9059cbb60e01b8152336004820152602481018290527f00000000000000000000000000000000000000000000000000000000000000006001600160a01b03169063a9059cbb906044016020604051808303816000875af1158015610e0e573d6000803e3d6000fd5b505050506040513d601f19601f82011682018060405250810190610e3291906111ac565b610e7e5760405162461bcd60e51b815260206004820152601f60248201527f466f72746946693a204661696c656420746f20726566756e642045524332300060448201526064016102a1565b6040516370a0823160e01b81523060048201526000907f00000000000000000000000000000000000000000000000000000000000000006001600160a01b0316906370a0823190602401602060405180830381865afa158015610ee5573d6000803e3d6000fd5b505050506040513d601f19601f82011682018060405250810190610f0991906111ce565b90508015610ff05760405163a9059cbb60e01b81526001600160a01b038481166004830152602482018390527f0000000000000000000000000000000000000000000000000000000000000000169063a9059cbb906044016020604051808303816000875af1158015610f80573d6000803e3d6000fd5b505050506040513d601f19601f82011682018060405250810190610fa491906111ac565b610ff05760405162461bcd60e51b815260206004820181905260248201527f466f72746946693a204661696c656420746f20726566756e64206e617469766560448201526064016102a1565b4715611099576000836001600160a01b03164760405160006040518083038185875af1925050503d8060008114611043576040519150601f19603f3d011682016040523d82523d6000602084013e611048565b606091505b505090508061031d5760405162461bcd60e51b815260206004820181905260248201527f466f72746946693a204661696c656420746f20726566756e64206e617469766560448201526064016102a1565b505050565b600080546001600160a01b038381167fffffffffffffffffffffffff0000000000000000000000000000000000000000831681178455604051919092169283917f8be0079c531659141344cd1fd0a4f28419497f9722a3daafe3b4186f6b6457e09190a35050565b80356001600160a01b038116811461111d57600080fd5b919050565b60008060006060848603121561113757600080fd5b61114084611106565b925061114e60208501611106565b9150604084013590509250925092565b60006020828403121561117057600080fd5b61117982611106565b9392505050565b6000806040838503121561119357600080fd5b823591506111a360208401611106565b90509250929050565b6000602082840312156111be57600080fd5b8151801515811461117957600080fd5b6000602082840312156111e057600080fd5b5051919050565b81810381811115611221577f4e487b7100000000000000000000000000000000000000000000000000000000600052601160045260246000fd5b9291505056fea2646970667358221220669b9f43789529c2ec674f38e5de07e7fe171f116c611bd51217193f89939bf564736f6c63430008120033a26469706673582212204d65c4e63354960d60051b110f0a080d4d665a95b91e0308304be7bf37803ddd64736f6c63430008120033",
  "devdoc": {
    "events": {
      "Approval(address,address,uint256)": {
        "details": "Emitted when the allowance of a `spender` for an `owner` is set by a call to {approve}. `value` is the new allowance."
      },
      "Transfer(address,address,uint256)": {
        "details": "Emitted when `value` tokens are moved from one account (`from`) to another (`to`). Note that `value` may be zero."
      }
    },
    "kind": "dev",
    "methods": {
      "allowance(address,address)": {
        "details": "See {IERC20-allowance}."
      },
      "approve(address,uint256)": {
        "details": "See {IERC20-approve}. NOTE: If `amount` is the maximum `uint256`, the allowance is not updated on `transferFrom`. This is semantically equivalent to an infinite approval. Requirements: - `spender` cannot be the zero address."
      },
      "balanceOf(address)": {
        "details": "See {IERC20-balanceOf}."
      },
      "decimals()": {
        "details": "Returns the number of decimals used to get its user representation. For example, if `decimals` equals `2`, a balance of `505` tokens should be displayed to a user as `5.05` (`505 / 10 ** 2`). Tokens usually opt for a value of 18, imitating the relationship between Ether and Wei. This is the value {ERC20} uses, unless this function is overridden; NOTE: This information is only used for _display_ purposes: it in no way affects any of the arithmetic of the contract, including {IERC20-balanceOf} and {IERC20-transfer}."
      },
      "decreaseAllowance(address,uint256)": {
        "details": "Atomically decreases the allowance granted to `spender` by the caller. This is an alternative to {approve} that can be used as a mitigation for problems described in {IERC20-approve}. Emits an {Approval} event indicating the updated allowance. Requirements: - `spender` cannot be the zero address. - `spender` must have allowance for the caller of at least `subtractedValue`."
      },
      "depositToFortress(uint256,address,uint256)": {
        "details": "If a user has not deposited previously, this function will deploy a FortiFiDPFortress contract instead of the base FortiFiFortress contract"
      },
      "increaseAllowance(address,uint256)": {
        "details": "Atomically increases the allowance granted to `spender` by the caller. This is an alternative to {approve} that can be used as a mitigation for problems described in {IERC20-approve}. Emits an {Approval} event indicating the updated allowance. Requirements: - `spender` cannot be the zero address."
      },
      "name()": {
        "details": "Returns the name of the token."
      },
      "owner()": {
        "details": "Returns the address of the current owner."
      },
      "renounceOwnership()": {
        "details": "Leaves the contract without owner. It will not be possible to call `onlyOwner` functions anymore. Can only be called by the current owner. NOTE: Renouncing ownership will leave the contract without an owner, thereby removing any functionality that is only available to the owner."
      },
      "symbol()": {
        "details": "Returns the symbol of the token, usually a shorter version of the name."
      },
      "totalSupply()": {
        "details": "See {IERC20-totalSupply}."
      },
      "transfer(address,uint256)": {
        "details": "See {IERC20-transfer}. Requirements: - `to` cannot be the zero address. - the caller must have a balance of at least `amount`."
      },
      "transferFrom(address,address,uint256)": {
        "details": "See {IERC20-transferFrom}. Emits an {Approval} event indicating the updated allowance. This is not required by the EIP. See the note at the beginning of {ERC20}. NOTE: Does not update the allowance if the current allowance is the maximum `uint256`. Requirements: - `from` and `to` cannot be the zero address. - `from` must have a balance of at least `amount`. - the caller must have allowance for ``from``'s tokens of at least `amount`."
      },
      "transferOwnership(address)": {
        "details": "Transfers ownership of the contract to a new account (`newOwner`). Can only be called by the current owner."
      }
    },
    "title": "Delta Prime FortiFi Strategy contract",
    "version": 1
  },
  "userdoc": {
    "kind": "user",
    "methods": {
      "depositToFortress(uint256,address,uint256)": {
        "notice": "Function to deposit"
      },
      "depositToken()": {
        "notice": "View function to return specified deposit token address"
      },
      "recoverERC20(address,uint256)": {
        "notice": "Emergency function to recover stuck tokens"
      },
      "recoverFromFortress(address,address,uint256)": {
        "notice": "Emergency function to recover stuck tokens from Fortress"
      },
      "setVault(address,bool)": {
        "notice": "Set valid vaults"
      },
      "strategy()": {
        "notice": "View function to return specified underlying strategy address"
      },
      "withdrawFromFortress(uint256,address,uint256)": {
        "notice": "Function to withdraw"
      },
      "wrappedNativeToken()": {
        "notice": "View function to return specified wrapped native token address"
      }
    },
    "notice": "This contract allows for FortiFi vaults to utilize Delta Prime strategies. ",
    "version": 1
  },
  "storageLayout": {
    "storage": [
      {
        "astId": 7,
        "contract": "contracts/strategies/FortiFiDPStrategy.sol:FortiFiDPStrategy",
        "label": "_owner",
        "offset": 0,
        "slot": "0",
        "type": "t_address"
      },
      {
        "astId": 1567,
        "contract": "contracts/strategies/FortiFiDPStrategy.sol:FortiFiDPStrategy",
        "label": "_balances",
        "offset": 0,
        "slot": "1",
        "type": "t_mapping(t_address,t_uint256)"
      },
      {
        "astId": 1573,
        "contract": "contracts/strategies/FortiFiDPStrategy.sol:FortiFiDPStrategy",
        "label": "_allowances",
        "offset": 0,
        "slot": "2",
        "type": "t_mapping(t_address,t_mapping(t_address,t_uint256))"
      },
      {
        "astId": 1575,
        "contract": "contracts/strategies/FortiFiDPStrategy.sol:FortiFiDPStrategy",
        "label": "_totalSupply",
        "offset": 0,
        "slot": "3",
        "type": "t_uint256"
      },
      {
        "astId": 1577,
        "contract": "contracts/strategies/FortiFiDPStrategy.sol:FortiFiDPStrategy",
        "label": "_name",
        "offset": 0,
        "slot": "4",
        "type": "t_string_storage"
      },
      {
        "astId": 1579,
        "contract": "contracts/strategies/FortiFiDPStrategy.sol:FortiFiDPStrategy",
        "label": "_symbol",
        "offset": 0,
        "slot": "5",
        "type": "t_string_storage"
      },
      {
        "astId": 7422,
        "contract": "contracts/strategies/FortiFiDPStrategy.sol:FortiFiDPStrategy",
        "label": "isFortiFiVault",
        "offset": 0,
        "slot": "6",
        "type": "t_mapping(t_address,t_bool)"
      },
      {
        "astId": 7428,
        "contract": "contracts/strategies/FortiFiDPStrategy.sol:FortiFiDPStrategy",
        "label": "vaultToTokenToFortress",
        "offset": 0,
        "slot": "7",
        "type": "t_mapping(t_address,t_mapping(t_uint256,t_address))"
      }
    ],
    "types": {
      "t_address": {
        "encoding": "inplace",
        "label": "address",
        "numberOfBytes": "20"
      },
      "t_bool": {
        "encoding": "inplace",
        "label": "bool",
        "numberOfBytes": "1"
      },
      "t_mapping(t_address,t_bool)": {
        "encoding": "mapping",
        "key": "t_address",
        "label": "mapping(address => bool)",
        "numberOfBytes": "32",
        "value": "t_bool"
      },
      "t_mapping(t_address,t_mapping(t_address,t_uint256))": {
        "encoding": "mapping",
        "key": "t_address",
        "label": "mapping(address => mapping(address => uint256))",
        "numberOfBytes": "32",
        "value": "t_mapping(t_address,t_uint256)"
      },
      "t_mapping(t_address,t_mapping(t_uint256,t_address))": {
        "encoding": "mapping",
        "key": "t_address",
        "label": "mapping(address => mapping(uint256 => address))",
        "numberOfBytes": "32",
        "value": "t_mapping(t_uint256,t_address)"
      },
      "t_mapping(t_address,t_uint256)": {
        "encoding": "mapping",
        "key": "t_address",
        "label": "mapping(address => uint256)",
        "numberOfBytes": "32",
        "value": "t_uint256"
      },
      "t_mapping(t_uint256,t_address)": {
        "encoding": "mapping",
        "key": "t_uint256",
        "label": "mapping(uint256 => address)",
        "numberOfBytes": "32",
        "value": "t_address"
      },
      "t_string_storage": {
        "encoding": "bytes",
        "label": "string",
        "numberOfBytes": "32"
      },
      "t_uint256": {
        "encoding": "inplace",
        "label": "uint256",
        "numberOfBytes": "32"
      }
    }
  }
}