{
  "address": "0xA513625fA60917F70279681Da983Ba860DDa9a5c",
  "abi": [
    {
      "inputs": [
        {
          "internalType": "string",
          "name": "_name",
          "type": "string"
        },
        {
          "internalType": "string",
          "name": "_symbol",
          "type": "string"
        },
        {
          "internalType": "string",
          "name": "_metadata",
          "type": "string"
        },
        {
          "internalType": "address",
          "name": "_wrappedNative",
          "type": "address"
        },
        {
          "internalType": "address",
          "name": "_depositToken",
          "type": "address"
        },
        {
          "internalType": "address",
          "name": "_feeManager",
          "type": "address"
        },
        {
          "internalType": "address",
          "name": "_feeCalculator",
          "type": "address"
        },
        {
          "components": [
            {
              "internalType": "address",
              "name": "strategy",
              "type": "address"
            },
            {
              "internalType": "address",
              "name": "depositToken",
              "type": "address"
            },
            {
              "internalType": "address",
              "name": "router",
              "type": "address"
            },
            {
              "internalType": "address",
              "name": "oracle",
              "type": "address"
            },
            {
              "internalType": "bool",
              "name": "isFortiFi",
              "type": "bool"
            },
            {
              "internalType": "bool",
              "name": "isSAMS",
              "type": "bool"
            },
            {
              "internalType": "uint16",
              "name": "bps",
              "type": "uint16"
            },
            {
              "internalType": "uint8",
              "name": "decimals",
              "type": "uint8"
            }
          ],
          "internalType": "struct IMASS.Strategy[]",
          "name": "_strategies",
          "type": "tuple[]"
        }
      ],
      "stateMutability": "nonpayable",
      "type": "constructor"
    },
    {
      "inputs": [],
      "name": "CantAddToReceipt",
      "type": "error"
    },
    {
      "inputs": [],
      "name": "CantWithdrawStrategyReceipts",
      "type": "error"
    },
    {
      "inputs": [],
      "name": "ContractPaused",
      "type": "error"
    },
    {
      "inputs": [],
      "name": "DuplicateStrategy",
      "type": "error"
    },
    {
      "inputs": [],
      "name": "FailedToRefund",
      "type": "error"
    },
    {
      "inputs": [],
      "name": "InvalidArrayLength",
      "type": "error"
    },
    {
      "inputs": [],
      "name": "InvalidBps",
      "type": "error"
    },
    {
      "inputs": [],
      "name": "InvalidDeposit",
      "type": "error"
    },
    {
      "inputs": [],
      "name": "InvalidMinDeposit",
      "type": "error"
    },
    {
      "inputs": [],
      "name": "InvalidOracle",
      "type": "error"
    },
    {
      "inputs": [],
      "name": "InvalidSlippage",
      "type": "error"
    },
    {
      "inputs": [],
      "name": "NoStrategies",
      "type": "error"
    },
    {
      "inputs": [],
      "name": "NotTokenOwner",
      "type": "error"
    },
    {
      "inputs": [],
      "name": "SwapFailed",
      "type": "error"
    },
    {
      "inputs": [],
      "name": "TooManyStrategies",
      "type": "error"
    },
    {
      "inputs": [],
      "name": "ZeroAddress",
      "type": "error"
    },
    {
      "anonymous": false,
      "inputs": [
        {
          "indexed": true,
          "internalType": "address",
          "name": "depositor",
          "type": "address"
        },
        {
          "indexed": true,
          "internalType": "uint256",
          "name": "tokenId",
          "type": "uint256"
        },
        {
          "indexed": false,
          "internalType": "uint256",
          "name": "amount",
          "type": "uint256"
        },
        {
          "components": [
            {
              "internalType": "uint256",
              "name": "deposit",
              "type": "uint256"
            },
            {
              "components": [
                {
                  "components": [
                    {
                      "internalType": "address",
                      "name": "strategy",
                      "type": "address"
                    },
                    {
                      "internalType": "address",
                      "name": "depositToken",
                      "type": "address"
                    },
                    {
                      "internalType": "address",
                      "name": "router",
                      "type": "address"
                    },
                    {
                      "internalType": "address",
                      "name": "oracle",
                      "type": "address"
                    },
                    {
                      "internalType": "bool",
                      "name": "isFortiFi",
                      "type": "bool"
                    },
                    {
                      "internalType": "bool",
                      "name": "isSAMS",
                      "type": "bool"
                    },
                    {
                      "internalType": "uint16",
                      "name": "bps",
                      "type": "uint16"
                    },
                    {
                      "internalType": "uint8",
                      "name": "decimals",
                      "type": "uint8"
                    }
                  ],
                  "internalType": "struct IMASS.Strategy",
                  "name": "strategy",
                  "type": "tuple"
                },
                {
                  "internalType": "uint256",
                  "name": "receipt",
                  "type": "uint256"
                }
              ],
              "internalType": "struct IMASS.Position[]",
              "name": "positions",
              "type": "tuple[]"
            }
          ],
          "indexed": false,
          "internalType": "struct IMASS.TokenInfo",
          "name": "tokenInfo",
          "type": "tuple"
        }
      ],
      "name": "Add",
      "type": "event"
    },
    {
      "anonymous": false,
      "inputs": [
        {
          "indexed": true,
          "internalType": "address",
          "name": "account",
          "type": "address"
        },
        {
          "indexed": true,
          "internalType": "address",
          "name": "operator",
          "type": "address"
        },
        {
          "indexed": false,
          "internalType": "bool",
          "name": "approved",
          "type": "bool"
        }
      ],
      "name": "ApprovalForAll",
      "type": "event"
    },
    {
      "anonymous": false,
      "inputs": [
        {
          "indexed": true,
          "internalType": "address",
          "name": "depositor",
          "type": "address"
        },
        {
          "indexed": true,
          "internalType": "uint256",
          "name": "tokenId",
          "type": "uint256"
        },
        {
          "indexed": false,
          "internalType": "uint256",
          "name": "amount",
          "type": "uint256"
        },
        {
          "components": [
            {
              "internalType": "uint256",
              "name": "deposit",
              "type": "uint256"
            },
            {
              "components": [
                {
                  "components": [
                    {
                      "internalType": "address",
                      "name": "strategy",
                      "type": "address"
                    },
                    {
                      "internalType": "address",
                      "name": "depositToken",
                      "type": "address"
                    },
                    {
                      "internalType": "address",
                      "name": "router",
                      "type": "address"
                    },
                    {
                      "internalType": "address",
                      "name": "oracle",
                      "type": "address"
                    },
                    {
                      "internalType": "bool",
                      "name": "isFortiFi",
                      "type": "bool"
                    },
                    {
                      "internalType": "bool",
                      "name": "isSAMS",
                      "type": "bool"
                    },
                    {
                      "internalType": "uint16",
                      "name": "bps",
                      "type": "uint16"
                    },
                    {
                      "internalType": "uint8",
                      "name": "decimals",
                      "type": "uint8"
                    }
                  ],
                  "internalType": "struct IMASS.Strategy",
                  "name": "strategy",
                  "type": "tuple"
                },
                {
                  "internalType": "uint256",
                  "name": "receipt",
                  "type": "uint256"
                }
              ],
              "internalType": "struct IMASS.Position[]",
              "name": "positions",
              "type": "tuple[]"
            }
          ],
          "indexed": false,
          "internalType": "struct IMASS.TokenInfo",
          "name": "tokenInfo",
          "type": "tuple"
        }
      ],
      "name": "Deposit",
      "type": "event"
    },
    {
      "anonymous": false,
      "inputs": [
        {
          "indexed": true,
          "internalType": "address",
          "name": "previousOwner",
          "type": "address"
        },
        {
          "indexed": true,
          "internalType": "address",
          "name": "newOwner",
          "type": "address"
        }
      ],
      "name": "OwnershipTransferred",
      "type": "event"
    },
    {
      "anonymous": false,
      "inputs": [
        {
          "indexed": true,
          "internalType": "uint256",
          "name": "tokenId",
          "type": "uint256"
        },
        {
          "indexed": false,
          "internalType": "uint256",
          "name": "amount",
          "type": "uint256"
        },
        {
          "components": [
            {
              "internalType": "uint256",
              "name": "deposit",
              "type": "uint256"
            },
            {
              "components": [
                {
                  "components": [
                    {
                      "internalType": "address",
                      "name": "strategy",
                      "type": "address"
                    },
                    {
                      "internalType": "address",
                      "name": "depositToken",
                      "type": "address"
                    },
                    {
                      "internalType": "address",
                      "name": "router",
                      "type": "address"
                    },
                    {
                      "internalType": "address",
                      "name": "oracle",
                      "type": "address"
                    },
                    {
                      "internalType": "bool",
                      "name": "isFortiFi",
                      "type": "bool"
                    },
                    {
                      "internalType": "bool",
                      "name": "isSAMS",
                      "type": "bool"
                    },
                    {
                      "internalType": "uint16",
                      "name": "bps",
                      "type": "uint16"
                    },
                    {
                      "internalType": "uint8",
                      "name": "decimals",
                      "type": "uint8"
                    }
                  ],
                  "internalType": "struct IMASS.Strategy",
                  "name": "strategy",
                  "type": "tuple"
                },
                {
                  "internalType": "uint256",
                  "name": "receipt",
                  "type": "uint256"
                }
              ],
              "internalType": "struct IMASS.Position[]",
              "name": "positions",
              "type": "tuple[]"
            }
          ],
          "indexed": false,
          "internalType": "struct IMASS.TokenInfo",
          "name": "tokenInfo",
          "type": "tuple"
        }
      ],
      "name": "Rebalance",
      "type": "event"
    },
    {
      "anonymous": false,
      "inputs": [
        {
          "components": [
            {
              "internalType": "address",
              "name": "strategy",
              "type": "address"
            },
            {
              "internalType": "address",
              "name": "depositToken",
              "type": "address"
            },
            {
              "internalType": "address",
              "name": "router",
              "type": "address"
            },
            {
              "internalType": "address",
              "name": "oracle",
              "type": "address"
            },
            {
              "internalType": "bool",
              "name": "isFortiFi",
              "type": "bool"
            },
            {
              "internalType": "bool",
              "name": "isSAMS",
              "type": "bool"
            },
            {
              "internalType": "uint16",
              "name": "bps",
              "type": "uint16"
            },
            {
              "internalType": "uint8",
              "name": "decimals",
              "type": "uint8"
            }
          ],
          "indexed": false,
          "internalType": "struct IMASS.Strategy[]",
          "name": "",
          "type": "tuple[]"
        }
      ],
      "name": "StrategiesSet",
      "type": "event"
    },
    {
      "anonymous": false,
      "inputs": [
        {
          "indexed": true,
          "internalType": "address",
          "name": "operator",
          "type": "address"
        },
        {
          "indexed": true,
          "internalType": "address",
          "name": "from",
          "type": "address"
        },
        {
          "indexed": true,
          "internalType": "address",
          "name": "to",
          "type": "address"
        },
        {
          "indexed": false,
          "internalType": "uint256[]",
          "name": "ids",
          "type": "uint256[]"
        },
        {
          "indexed": false,
          "internalType": "uint256[]",
          "name": "values",
          "type": "uint256[]"
        }
      ],
      "name": "TransferBatch",
      "type": "event"
    },
    {
      "anonymous": false,
      "inputs": [
        {
          "indexed": true,
          "internalType": "address",
          "name": "operator",
          "type": "address"
        },
        {
          "indexed": true,
          "internalType": "address",
          "name": "from",
          "type": "address"
        },
        {
          "indexed": true,
          "internalType": "address",
          "name": "to",
          "type": "address"
        },
        {
          "indexed": false,
          "internalType": "uint256",
          "name": "id",
          "type": "uint256"
        },
        {
          "indexed": false,
          "internalType": "uint256",
          "name": "value",
          "type": "uint256"
        }
      ],
      "name": "TransferSingle",
      "type": "event"
    },
    {
      "anonymous": false,
      "inputs": [
        {
          "indexed": false,
          "internalType": "string",
          "name": "value",
          "type": "string"
        },
        {
          "indexed": true,
          "internalType": "uint256",
          "name": "id",
          "type": "uint256"
        }
      ],
      "name": "URI",
      "type": "event"
    },
    {
      "anonymous": false,
      "inputs": [
        {
          "indexed": true,
          "internalType": "address",
          "name": "depositor",
          "type": "address"
        },
        {
          "indexed": true,
          "internalType": "uint256",
          "name": "tokenId",
          "type": "uint256"
        },
        {
          "indexed": false,
          "internalType": "uint256",
          "name": "amountWithdrawn",
          "type": "uint256"
        },
        {
          "indexed": false,
          "internalType": "uint256",
          "name": "profit",
          "type": "uint256"
        },
        {
          "indexed": false,
          "internalType": "uint256",
          "name": "fee",
          "type": "uint256"
        }
      ],
      "name": "Withdrawal",
      "type": "event"
    },
    {
      "inputs": [],
      "name": "BPS",
      "outputs": [
        {
          "internalType": "uint16",
          "name": "",
          "type": "uint16"
        }
      ],
      "stateMutability": "view",
      "type": "function"
    },
    {
      "inputs": [],
      "name": "SWAP_DEADLINE_BUFFER",
      "outputs": [
        {
          "internalType": "uint16",
          "name": "",
          "type": "uint16"
        }
      ],
      "stateMutability": "view",
      "type": "function"
    },
    {
      "inputs": [],
      "name": "USDC_DECIMALS",
      "outputs": [
        {
          "internalType": "uint8",
          "name": "",
          "type": "uint8"
        }
      ],
      "stateMutability": "view",
      "type": "function"
    },
    {
      "inputs": [
        {
          "internalType": "uint256",
          "name": "_amount",
          "type": "uint256"
        },
        {
          "internalType": "uint256",
          "name": "_tokenId",
          "type": "uint256"
        }
      ],
      "name": "add",
      "outputs": [
        {
          "components": [
            {
              "internalType": "uint256",
              "name": "deposit",
              "type": "uint256"
            },
            {
              "components": [
                {
                  "components": [
                    {
                      "internalType": "address",
                      "name": "strategy",
                      "type": "address"
                    },
                    {
                      "internalType": "address",
                      "name": "depositToken",
                      "type": "address"
                    },
                    {
                      "internalType": "address",
                      "name": "router",
                      "type": "address"
                    },
                    {
                      "internalType": "address",
                      "name": "oracle",
                      "type": "address"
                    },
                    {
                      "internalType": "bool",
                      "name": "isFortiFi",
                      "type": "bool"
                    },
                    {
                      "internalType": "bool",
                      "name": "isSAMS",
                      "type": "bool"
                    },
                    {
                      "internalType": "uint16",
                      "name": "bps",
                      "type": "uint16"
                    },
                    {
                      "internalType": "uint8",
                      "name": "decimals",
                      "type": "uint8"
                    }
                  ],
                  "internalType": "struct IMASS.Strategy",
                  "name": "strategy",
                  "type": "tuple"
                },
                {
                  "internalType": "uint256",
                  "name": "receipt",
                  "type": "uint256"
                }
              ],
              "internalType": "struct IMASS.Position[]",
              "name": "positions",
              "type": "tuple[]"
            }
          ],
          "internalType": "struct IMASS.TokenInfo",
          "name": "_info",
          "type": "tuple"
        }
      ],
      "stateMutability": "nonpayable",
      "type": "function"
    },
    {
      "inputs": [
        {
          "internalType": "address",
          "name": "account",
          "type": "address"
        },
        {
          "internalType": "uint256",
          "name": "id",
          "type": "uint256"
        }
      ],
      "name": "balanceOf",
      "outputs": [
        {
          "internalType": "uint256",
          "name": "",
          "type": "uint256"
        }
      ],
      "stateMutability": "view",
      "type": "function"
    },
    {
      "inputs": [
        {
          "internalType": "address[]",
          "name": "accounts",
          "type": "address[]"
        },
        {
          "internalType": "uint256[]",
          "name": "ids",
          "type": "uint256[]"
        }
      ],
      "name": "balanceOfBatch",
      "outputs": [
        {
          "internalType": "uint256[]",
          "name": "",
          "type": "uint256[]"
        }
      ],
      "stateMutability": "view",
      "type": "function"
    },
    {
      "inputs": [
        {
          "internalType": "uint256",
          "name": "_amount",
          "type": "uint256"
        }
      ],
      "name": "deposit",
      "outputs": [
        {
          "internalType": "uint256",
          "name": "_tokenId",
          "type": "uint256"
        },
        {
          "components": [
            {
              "internalType": "uint256",
              "name": "deposit",
              "type": "uint256"
            },
            {
              "components": [
                {
                  "components": [
                    {
                      "internalType": "address",
                      "name": "strategy",
                      "type": "address"
                    },
                    {
                      "internalType": "address",
                      "name": "depositToken",
                      "type": "address"
                    },
                    {
                      "internalType": "address",
                      "name": "router",
                      "type": "address"
                    },
                    {
                      "internalType": "address",
                      "name": "oracle",
                      "type": "address"
                    },
                    {
                      "internalType": "bool",
                      "name": "isFortiFi",
                      "type": "bool"
                    },
                    {
                      "internalType": "bool",
                      "name": "isSAMS",
                      "type": "bool"
                    },
                    {
                      "internalType": "uint16",
                      "name": "bps",
                      "type": "uint16"
                    },
                    {
                      "internalType": "uint8",
                      "name": "decimals",
                      "type": "uint8"
                    }
                  ],
                  "internalType": "struct IMASS.Strategy",
                  "name": "strategy",
                  "type": "tuple"
                },
                {
                  "internalType": "uint256",
                  "name": "receipt",
                  "type": "uint256"
                }
              ],
              "internalType": "struct IMASS.Position[]",
              "name": "positions",
              "type": "tuple[]"
            }
          ],
          "internalType": "struct IMASS.TokenInfo",
          "name": "_info",
          "type": "tuple"
        }
      ],
      "stateMutability": "nonpayable",
      "type": "function"
    },
    {
      "inputs": [],
      "name": "depositToken",
      "outputs": [
        {
          "internalType": "address",
          "name": "",
          "type": "address"
        }
      ],
      "stateMutability": "view",
      "type": "function"
    },
    {
      "inputs": [
        {
          "internalType": "uint256",
          "name": "id",
          "type": "uint256"
        }
      ],
      "name": "exists",
      "outputs": [
        {
          "internalType": "bool",
          "name": "",
          "type": "bool"
        }
      ],
      "stateMutability": "view",
      "type": "function"
    },
    {
      "inputs": [],
      "name": "feeCalc",
      "outputs": [
        {
          "internalType": "contract IFortiFiFeeCalculator",
          "name": "",
          "type": "address"
        }
      ],
      "stateMutability": "view",
      "type": "function"
    },
    {
      "inputs": [],
      "name": "feeMgr",
      "outputs": [
        {
          "internalType": "contract IFortiFiFeeManager",
          "name": "",
          "type": "address"
        }
      ],
      "stateMutability": "view",
      "type": "function"
    },
    {
      "inputs": [],
      "name": "flipPaused",
      "outputs": [],
      "stateMutability": "nonpayable",
      "type": "function"
    },
    {
      "inputs": [],
      "name": "getStrategies",
      "outputs": [
        {
          "components": [
            {
              "internalType": "address",
              "name": "strategy",
              "type": "address"
            },
            {
              "internalType": "address",
              "name": "depositToken",
              "type": "address"
            },
            {
              "internalType": "address",
              "name": "router",
              "type": "address"
            },
            {
              "internalType": "address",
              "name": "oracle",
              "type": "address"
            },
            {
              "internalType": "bool",
              "name": "isFortiFi",
              "type": "bool"
            },
            {
              "internalType": "bool",
              "name": "isSAMS",
              "type": "bool"
            },
            {
              "internalType": "uint16",
              "name": "bps",
              "type": "uint16"
            },
            {
              "internalType": "uint8",
              "name": "decimals",
              "type": "uint8"
            }
          ],
          "internalType": "struct IMASS.Strategy[]",
          "name": "",
          "type": "tuple[]"
        }
      ],
      "stateMutability": "view",
      "type": "function"
    },
    {
      "inputs": [
        {
          "internalType": "address",
          "name": "account",
          "type": "address"
        },
        {
          "internalType": "address",
          "name": "operator",
          "type": "address"
        }
      ],
      "name": "isApprovedForAll",
      "outputs": [
        {
          "internalType": "bool",
          "name": "",
          "type": "bool"
        }
      ],
      "stateMutability": "view",
      "type": "function"
    },
    {
      "inputs": [],
      "name": "minDeposit",
      "outputs": [
        {
          "internalType": "uint256",
          "name": "",
          "type": "uint256"
        }
      ],
      "stateMutability": "view",
      "type": "function"
    },
    {
      "inputs": [],
      "name": "name",
      "outputs": [
        {
          "internalType": "string",
          "name": "",
          "type": "string"
        }
      ],
      "stateMutability": "view",
      "type": "function"
    },
    {
      "inputs": [],
      "name": "nextToken",
      "outputs": [
        {
          "internalType": "uint256",
          "name": "",
          "type": "uint256"
        }
      ],
      "stateMutability": "view",
      "type": "function"
    },
    {
      "inputs": [
        {
          "internalType": "address",
          "name": "",
          "type": "address"
        },
        {
          "internalType": "address",
          "name": "",
          "type": "address"
        },
        {
          "internalType": "uint256[]",
          "name": "",
          "type": "uint256[]"
        },
        {
          "internalType": "uint256[]",
          "name": "",
          "type": "uint256[]"
        },
        {
          "internalType": "bytes",
          "name": "",
          "type": "bytes"
        }
      ],
      "name": "onERC1155BatchReceived",
      "outputs": [
        {
          "internalType": "bytes4",
          "name": "",
          "type": "bytes4"
        }
      ],
      "stateMutability": "nonpayable",
      "type": "function"
    },
    {
      "inputs": [
        {
          "internalType": "address",
          "name": "",
          "type": "address"
        },
        {
          "internalType": "address",
          "name": "",
          "type": "address"
        },
        {
          "internalType": "uint256",
          "name": "",
          "type": "uint256"
        },
        {
          "internalType": "uint256",
          "name": "",
          "type": "uint256"
        },
        {
          "internalType": "bytes",
          "name": "",
          "type": "bytes"
        }
      ],
      "name": "onERC1155Received",
      "outputs": [
        {
          "internalType": "bytes4",
          "name": "",
          "type": "bytes4"
        }
      ],
      "stateMutability": "nonpayable",
      "type": "function"
    },
    {
      "inputs": [],
      "name": "owner",
      "outputs": [
        {
          "internalType": "address",
          "name": "",
          "type": "address"
        }
      ],
      "stateMutability": "view",
      "type": "function"
    },
    {
      "inputs": [],
      "name": "paused",
      "outputs": [
        {
          "internalType": "bool",
          "name": "",
          "type": "bool"
        }
      ],
      "stateMutability": "view",
      "type": "function"
    },
    {
      "inputs": [
        {
          "internalType": "uint256",
          "name": "_tokenId",
          "type": "uint256"
        }
      ],
      "name": "rebalance",
      "outputs": [
        {
          "components": [
            {
              "internalType": "uint256",
              "name": "deposit",
              "type": "uint256"
            },
            {
              "components": [
                {
                  "components": [
                    {
                      "internalType": "address",
                      "name": "strategy",
                      "type": "address"
                    },
                    {
                      "internalType": "address",
                      "name": "depositToken",
                      "type": "address"
                    },
                    {
                      "internalType": "address",
                      "name": "router",
                      "type": "address"
                    },
                    {
                      "internalType": "address",
                      "name": "oracle",
                      "type": "address"
                    },
                    {
                      "internalType": "bool",
                      "name": "isFortiFi",
                      "type": "bool"
                    },
                    {
                      "internalType": "bool",
                      "name": "isSAMS",
                      "type": "bool"
                    },
                    {
                      "internalType": "uint16",
                      "name": "bps",
                      "type": "uint16"
                    },
                    {
                      "internalType": "uint8",
                      "name": "decimals",
                      "type": "uint8"
                    }
                  ],
                  "internalType": "struct IMASS.Strategy",
                  "name": "strategy",
                  "type": "tuple"
                },
                {
                  "internalType": "uint256",
                  "name": "receipt",
                  "type": "uint256"
                }
              ],
              "internalType": "struct IMASS.Position[]",
              "name": "positions",
              "type": "tuple[]"
            }
          ],
          "internalType": "struct IMASS.TokenInfo",
          "name": "",
          "type": "tuple"
        }
      ],
      "stateMutability": "nonpayable",
      "type": "function"
    },
    {
      "inputs": [
        {
          "internalType": "address",
          "name": "_token",
          "type": "address"
        },
        {
          "internalType": "uint256",
          "name": "_amount",
          "type": "uint256"
        }
      ],
      "name": "recoverERC20",
      "outputs": [],
      "stateMutability": "nonpayable",
      "type": "function"
    },
    {
      "inputs": [],
      "name": "refreshApprovals",
      "outputs": [],
      "stateMutability": "nonpayable",
      "type": "function"
    },
    {
      "inputs": [],
      "name": "renounceOwnership",
      "outputs": [],
      "stateMutability": "nonpayable",
      "type": "function"
    },
    {
      "inputs": [
        {
          "internalType": "address",
          "name": "from",
          "type": "address"
        },
        {
          "internalType": "address",
          "name": "to",
          "type": "address"
        },
        {
          "internalType": "uint256[]",
          "name": "ids",
          "type": "uint256[]"
        },
        {
          "internalType": "uint256[]",
          "name": "amounts",
          "type": "uint256[]"
        },
        {
          "internalType": "bytes",
          "name": "data",
          "type": "bytes"
        }
      ],
      "name": "safeBatchTransferFrom",
      "outputs": [],
      "stateMutability": "nonpayable",
      "type": "function"
    },
    {
      "inputs": [
        {
          "internalType": "address",
          "name": "from",
          "type": "address"
        },
        {
          "internalType": "address",
          "name": "to",
          "type": "address"
        },
        {
          "internalType": "uint256",
          "name": "id",
          "type": "uint256"
        },
        {
          "internalType": "uint256",
          "name": "amount",
          "type": "uint256"
        },
        {
          "internalType": "bytes",
          "name": "data",
          "type": "bytes"
        }
      ],
      "name": "safeTransferFrom",
      "outputs": [],
      "stateMutability": "nonpayable",
      "type": "function"
    },
    {
      "inputs": [
        {
          "internalType": "address",
          "name": "operator",
          "type": "address"
        },
        {
          "internalType": "bool",
          "name": "approved",
          "type": "bool"
        }
      ],
      "name": "setApprovalForAll",
      "outputs": [],
      "stateMutability": "nonpayable",
      "type": "function"
    },
    {
      "inputs": [
        {
          "internalType": "uint16[]",
          "name": "_bps",
          "type": "uint16[]"
        }
      ],
      "name": "setBpsForStrategies",
      "outputs": [],
      "stateMutability": "nonpayable",
      "type": "function"
    },
    {
      "inputs": [
        {
          "internalType": "address",
          "name": "_token",
          "type": "address"
        },
        {
          "internalType": "bool",
          "name": "_bool",
          "type": "bool"
        }
      ],
      "name": "setDirectSwapFor",
      "outputs": [],
      "stateMutability": "nonpayable",
      "type": "function"
    },
    {
      "inputs": [
        {
          "internalType": "address",
          "name": "_contract",
          "type": "address"
        }
      ],
      "name": "setFeeCalculator",
      "outputs": [],
      "stateMutability": "nonpayable",
      "type": "function"
    },
    {
      "inputs": [
        {
          "internalType": "address",
          "name": "_contract",
          "type": "address"
        }
      ],
      "name": "setFeeManager",
      "outputs": [],
      "stateMutability": "nonpayable",
      "type": "function"
    },
    {
      "inputs": [
        {
          "internalType": "uint256",
          "name": "_amount",
          "type": "uint256"
        }
      ],
      "name": "setMinDeposit",
      "outputs": [],
      "stateMutability": "nonpayable",
      "type": "function"
    },
    {
      "inputs": [
        {
          "internalType": "uint16",
          "name": "_amount",
          "type": "uint16"
        }
      ],
      "name": "setSlippage",
      "outputs": [],
      "stateMutability": "nonpayable",
      "type": "function"
    },
    {
      "inputs": [
        {
          "components": [
            {
              "internalType": "address",
              "name": "strategy",
              "type": "address"
            },
            {
              "internalType": "address",
              "name": "depositToken",
              "type": "address"
            },
            {
              "internalType": "address",
              "name": "router",
              "type": "address"
            },
            {
              "internalType": "address",
              "name": "oracle",
              "type": "address"
            },
            {
              "internalType": "bool",
              "name": "isFortiFi",
              "type": "bool"
            },
            {
              "internalType": "bool",
              "name": "isSAMS",
              "type": "bool"
            },
            {
              "internalType": "uint16",
              "name": "bps",
              "type": "uint16"
            },
            {
              "internalType": "uint8",
              "name": "decimals",
              "type": "uint8"
            }
          ],
          "internalType": "struct IMASS.Strategy[]",
          "name": "_strategies",
          "type": "tuple[]"
        }
      ],
      "name": "setStrategies",
      "outputs": [],
      "stateMutability": "nonpayable",
      "type": "function"
    },
    {
      "inputs": [],
      "name": "slippageBps",
      "outputs": [
        {
          "internalType": "uint16",
          "name": "",
          "type": "uint16"
        }
      ],
      "stateMutability": "view",
      "type": "function"
    },
    {
      "inputs": [
        {
          "internalType": "uint256",
          "name": "",
          "type": "uint256"
        }
      ],
      "name": "strategies",
      "outputs": [
        {
          "internalType": "address",
          "name": "strategy",
          "type": "address"
        },
        {
          "internalType": "address",
          "name": "depositToken",
          "type": "address"
        },
        {
          "internalType": "address",
          "name": "router",
          "type": "address"
        },
        {
          "internalType": "address",
          "name": "oracle",
          "type": "address"
        },
        {
          "internalType": "bool",
          "name": "isFortiFi",
          "type": "bool"
        },
        {
          "internalType": "bool",
          "name": "isSAMS",
          "type": "bool"
        },
        {
          "internalType": "uint16",
          "name": "bps",
          "type": "uint16"
        },
        {
          "internalType": "uint8",
          "name": "decimals",
          "type": "uint8"
        }
      ],
      "stateMutability": "view",
      "type": "function"
    },
    {
      "inputs": [
        {
          "internalType": "bytes4",
          "name": "interfaceId",
          "type": "bytes4"
        }
      ],
      "name": "supportsInterface",
      "outputs": [
        {
          "internalType": "bool",
          "name": "",
          "type": "bool"
        }
      ],
      "stateMutability": "view",
      "type": "function"
    },
    {
      "inputs": [],
      "name": "symbol",
      "outputs": [
        {
          "internalType": "string",
          "name": "",
          "type": "string"
        }
      ],
      "stateMutability": "view",
      "type": "function"
    },
    {
      "inputs": [
        {
          "internalType": "uint256",
          "name": "",
          "type": "uint256"
        }
      ],
      "name": "tokenInfo",
      "outputs": [
        {
          "internalType": "uint256",
          "name": "deposit",
          "type": "uint256"
        }
      ],
      "stateMutability": "view",
      "type": "function"
    },
    {
      "inputs": [
        {
          "internalType": "uint256",
          "name": "id",
          "type": "uint256"
        }
      ],
      "name": "totalSupply",
      "outputs": [
        {
          "internalType": "uint256",
          "name": "",
          "type": "uint256"
        }
      ],
      "stateMutability": "view",
      "type": "function"
    },
    {
      "inputs": [
        {
          "internalType": "address",
          "name": "newOwner",
          "type": "address"
        }
      ],
      "name": "transferOwnership",
      "outputs": [],
      "stateMutability": "nonpayable",
      "type": "function"
    },
    {
      "inputs": [
        {
          "internalType": "uint256",
          "name": "",
          "type": "uint256"
        }
      ],
      "name": "uri",
      "outputs": [
        {
          "internalType": "string",
          "name": "",
          "type": "string"
        }
      ],
      "stateMutability": "view",
      "type": "function"
    },
    {
      "inputs": [
        {
          "internalType": "address",
          "name": "",
          "type": "address"
        }
      ],
      "name": "useDirectSwap",
      "outputs": [
        {
          "internalType": "bool",
          "name": "",
          "type": "bool"
        }
      ],
      "stateMutability": "view",
      "type": "function"
    },
    {
      "inputs": [
        {
          "internalType": "uint256",
          "name": "_tokenId",
          "type": "uint256"
        }
      ],
      "name": "withdraw",
      "outputs": [],
      "stateMutability": "nonpayable",
      "type": "function"
    },
    {
      "inputs": [],
      "name": "wrappedNative",
      "outputs": [
        {
          "internalType": "address",
          "name": "",
          "type": "address"
        }
      ],
      "stateMutability": "view",
      "type": "function"
    },
    {
      "stateMutability": "payable",
      "type": "receive"
    }
  ],
  "transactionHash": "0x0460921c4ed8b7ffe5913f098ae68caf5d44cd853bc8776494a6b5d4fb66a51d",
  "args": [
    "FortiFi AVAX Stability Vault",
    "ffAvaSV",
    "ipfs://bafybeic35wrmxrotb2e2rnnqe6a3twakuoy4vxtlpu3yscqaj2g44s4cya/avaSV.json",
    "0xB31f66AA3C1e785363F0875A1B74E27b85FD66c7",
    "0xB97EF9Ef8734C71904D8002F8b6Bc66Dd9c48a6E",
    "0xf964894470AfC11037f6BCB38609f77e9EBA9851",
    "0x97F9fE54Aa908Ac0E8B2D10244bd4bba87D51160",
    [
      {
        "strategy": "0xb97AFc8d6d6F100358E21D6Ab3A3aa3Ec1435731",
        "depositToken": "0xB97EF9Ef8734C71904D8002F8b6Bc66Dd9c48a6E",
        "router": "0x60aE616a2155Ee3d9A68541Ba4544862310933d4",
        "oracle": "0x0000000000000000000000000000000000000000",
        "isFortiFi": true,
        "isSAMS": false,
        "bps": 2500,
        "decimals": 6
      },
      {
        "strategy": "0x68D8108f6FB797e7eb0C8d9524ba08D98BF27Bcb",
        "depositToken": "0xB97EF9Ef8734C71904D8002F8b6Bc66Dd9c48a6E",
        "router": "0x60aE616a2155Ee3d9A68541Ba4544862310933d4",
        "oracle": "0x0000000000000000000000000000000000000000",
        "isFortiFi": false,
        "isSAMS": false,
        "bps": 3000,
        "decimals": 6
      },
      {
        "strategy": "0xFB692D03BBEA21D8665035779dd3082c2B1622d0",
        "depositToken": "0xB97EF9Ef8734C71904D8002F8b6Bc66Dd9c48a6E",
        "router": "0x60aE616a2155Ee3d9A68541Ba4544862310933d4",
        "oracle": "0x0000000000000000000000000000000000000000",
        "isFortiFi": false,
        "isSAMS": false,
        "bps": 3000,
        "decimals": 6
      },
      {
        "strategy": "0x701792A64Cea365a2cBd8e3F2e544654dc3307eF",
        "depositToken": "0x9702230A8Ea53601f5cD2dc00fDBc13d4dF4A8c7",
        "router": "0x60aE616a2155Ee3d9A68541Ba4544862310933d4",
        "oracle": "0xDC655E3Dc8f36096c779294D03C62b3af15De8b0",
        "isFortiFi": false,
        "isSAMS": false,
        "bps": 1500,
        "decimals": 6
      }
    ]
  ],
  "numDeployments": 9,
  "solcInputHash": "7136e0a68bffcb237a405144d388c734",
  "bytecode": "0x60c06040526008805461ffff191660641790556175306009556001600a819055600b805460ff191690911790553480156200003957600080fd5b506040516200736e3803806200736e8339810160408190526200005c9162000ed8565b85620000688162000194565b506200007433620001a6565b60016005556001600160a01b038516620000a15760405163d92e233d60e01b815260040160405180910390fd5b6001600160a01b038416620000c95760405163d92e233d60e01b815260040160405180910390fd5b6001600160a01b038316620000f15760405163d92e233d60e01b815260040160405180910390fd5b6001600160a01b038216620001195760405163d92e233d60e01b815260040160405180910390fd5b60066200012789826200106a565b5060076200013688826200106a565b506001600160a01b0385811660a052848116608052600b8054610100600160a81b03191661010085841602179055600c80546001600160a01b0319169185169190911790556200018681620001f8565b5050505050505050620012bf565b6002620001a282826200106a565b5050565b600480546001600160a01b038381166001600160a01b0319831681179093556040519116919082907f8be0079c531659141344cd1fd0a4f28419497f9722a3daafe3b4186f6b6457e090600090a35050565b6004546001600160a01b03163314620002575760405162461bcd60e51b815260206004820181905260248201527f4f776e61626c653a2063616c6c6572206973206e6f7420746865206f776e6572604482015260640160405180910390fd5b805160008190036200027c576040516356de305560e01b815260040160405180910390fd5b60048111156200029f5760405163607ed4ff60e11b815260040160405180910390fd5b6000816001600160401b03811115620002bc57620002bc62000c58565b604051908082528060200260200182016040528015620002e6578160200160208202803683370190505b5090506000805b838110156200033b578481815181106200030b576200030b62001136565b602002602001015160c001518262000324919062001162565b915080620003328162001187565b915050620002ed565b5061ffff811661271014620003635760405163c6cc5d7f60e01b815260040160405180910390fd5b62000371600d600062000be4565b60005b838110156200086e5760006001600160a01b03168582815181106200039d576200039d62001136565b6020026020010151600001516001600160a01b031603620003d15760405163d92e233d60e01b815260040160405180910390fd5b60006001600160a01b0316858281518110620003f157620003f162001136565b6020026020010151602001516001600160a01b031603620004255760405163d92e233d60e01b815260040160405180910390fd5b60006001600160a01b031685828151811062000445576200044562001136565b6020026020010151604001516001600160a01b031603620004795760405163d92e233d60e01b815260040160405180910390fd5b6080516001600160a01b03168582815181106200049a576200049a62001136565b6020026020010151602001516001600160a01b03161415801562000645575060006001600160a01b0316858281518110620004d957620004d962001136565b6020026020010151606001516001600160a01b03161480620005b157508481815181106200050b576200050b62001136565b6020026020010151606001516001600160a01b031663fc0c546a6040518163ffffffff1660e01b8152600401602060405180830381865afa15801562000555573d6000803e3d6000fd5b505050506040513d601f19601f820116820180604052508101906200057b9190620011a3565b6001600160a01b031685828151811062000599576200059962001136565b6020026020010151602001516001600160a01b031614155b80620006455750848181518110620005cd57620005cd62001136565b6020026020010151606001516001600160a01b031663313ce5676040518163ffffffff1660e01b8152600401602060405180830381865afa15801562000617573d6000803e3d6000fd5b505050506040513d601f19601f820116820180604052508101906200063d9190620011c8565b60ff16600814155b156200066457604051639589a27d60e01b815260040160405180910390fd5b60005b81811015620006f45785828151811062000685576200068562001136565b6020026020010151600001516001600160a01b0316848281518110620006af57620006af62001136565b60200260200101516001600160a01b031603620006df5760405163cc5fde6960e01b815260040160405180910390fd5b80620006eb8162001187565b91505062000667565b508481815181106200070a576200070a62001136565b6020026020010151600001518382815181106200072b576200072b62001136565b60200260200101906001600160a01b031690816001600160a01b031681525050600d85828151811062000762576200076262001136565b602090810291909101810151825460018181018555600094855293839020825160049092020180546001600160a01b039283166001600160a01b03199182161782559383015194810180549583169585169590951790945560408201516002850180549183169190941617909255606081015160039093018054608083015160a084015160c085015160e09095015160ff16600160c01b0260ff60c01b1961ffff909616600160b01b0261ffff60b01b19921515600160a81b029290921662ffffff60a81b19931515600160a01b026001600160a81b03199095169890971697909717929092171693909317929092171691909117905580620008658162001187565b91505062000374565b5062000879620008b8565b7fe862432e937cd267ceb992c0e53d27a0d6127517fdff76f2977ef09b6f369e7784604051620008aa9190620011e6565b60405180910390a150505050565b600d54608051600c5460405163095ea7b360e01b81526001600160a01b03918216600482015260001960248201529082169063095ea7b3906044016020604051808303816000875af115801562000913573d6000803e3d6000fd5b505050506040513d601f19601f82011682018060405250810190620009399190620012a1565b5060005b8281101562000bdf57600d81815481106200095c576200095c62001136565b906000526020600020906004020160010160009054906101000a90046001600160a01b03166001600160a01b031663095ea7b3600d8381548110620009a557620009a562001136565b600091825260209091206004918202015460405160e084901b6001600160e01b03191681526001600160a01b039091169181019190915260001960248201526044016020604051808303816000875af115801562000a07573d6000803e3d6000fd5b505050506040513d601f19601f8201168201806040525081019062000a2d9190620012a1565b50600d818154811062000a445762000a4462001136565b906000526020600020906004020160010160009054906101000a90046001600160a01b03166001600160a01b031663095ea7b3600d838154811062000a8d5762000a8d62001136565b600091825260209091206004918202016002015460405160e084901b6001600160e01b03191681526001600160a01b039091169181019190915260001960248201526044016020604051808303816000875af115801562000af2573d6000803e3d6000fd5b505050506040513d601f19601f8201168201806040525081019062000b189190620012a1565b50816001600160a01b031663095ea7b3600d838154811062000b3e5762000b3e62001136565b600091825260209091206004918202016002015460405160e084901b6001600160e01b03191681526001600160a01b039091169181019190915260001960248201526044016020604051808303816000875af115801562000ba3573d6000803e3d6000fd5b505050506040513d601f19601f8201168201806040525081019062000bc99190620012a1565b508062000bd68162001187565b9150506200093d565b505050565b508054600082556004029060005260206000209081019062000c07919062000c0a565b50565b5b8082111562000c545780546001600160a01b031990811682556001820180548216905560028201805490911690556003810180546001600160c81b031916905560040162000c0b565b5090565b634e487b7160e01b600052604160045260246000fd5b60405161010081016001600160401b038111828210171562000c945762000c9462000c58565b60405290565b604051601f8201601f191681016001600160401b038111828210171562000cc55762000cc562000c58565b604052919050565b600082601f83011262000cdf57600080fd5b81516001600160401b0381111562000cfb5762000cfb62000c58565b602062000d11601f8301601f1916820162000c9a565b828152858284870101111562000d2657600080fd5b60005b8381101562000d4657858101830151828201840152820162000d29565b506000928101909101919091529392505050565b80516001600160a01b038116811462000d7257600080fd5b919050565b8051801515811462000d7257600080fd5b805160ff8116811462000d7257600080fd5b600082601f83011262000dac57600080fd5b815160206001600160401b0382111562000dca5762000dca62000c58565b62000dda818360051b0162000c9a565b82815260089290921b8401810191818101908684111562000dfa57600080fd5b8286015b8481101562000ecd57610100818903121562000e1a5760008081fd5b62000e2462000c6e565b62000e2f8262000d5a565b815262000e3e85830162000d5a565b85820152604062000e5181840162000d5a565b90820152606062000e6483820162000d5a565b90820152608062000e7783820162000d77565b9082015260a062000e8a83820162000d77565b9082015260c08281015161ffff8116811462000ea65760008081fd5b9082015260e062000eb983820162000d88565b908201528352918301916101000162000dfe565b509695505050505050565b600080600080600080600080610100898b03121562000ef657600080fd5b88516001600160401b038082111562000f0e57600080fd5b62000f1c8c838d0162000ccd565b995060208b015191508082111562000f3357600080fd5b62000f418c838d0162000ccd565b985060408b015191508082111562000f5857600080fd5b62000f668c838d0162000ccd565b975062000f7660608c0162000d5a565b965062000f8660808c0162000d5a565b955062000f9660a08c0162000d5a565b945062000fa660c08c0162000d5a565b935060e08b015191508082111562000fbd57600080fd5b5062000fcc8b828c0162000d9a565b9150509295985092959890939650565b600181811c9082168062000ff157607f821691505b6020821081036200101257634e487b7160e01b600052602260045260246000fd5b50919050565b601f82111562000bdf57600081815260208120601f850160051c81016020861015620010415750805b601f850160051c820191505b8181101562001062578281556001016200104d565b505050505050565b81516001600160401b0381111562001086576200108662000c58565b6200109e8162001097845462000fdc565b8462001018565b602080601f831160018114620010d65760008415620010bd5750858301515b600019600386901b1c1916600185901b17855562001062565b600085815260208120601f198616915b828110156200110757888601518255948401946001909101908401620010e6565b5085821015620011265787850151600019600388901b60f8161c191681555b5050505050600190811b01905550565b634e487b7160e01b600052603260045260246000fd5b634e487b7160e01b600052601160045260246000fd5b61ffff8181168382160190808211156200118057620011806200114c565b5092915050565b6000600182016200119c576200119c6200114c565b5060010190565b600060208284031215620011b657600080fd5b620011c18262000d5a565b9392505050565b600060208284031215620011db57600080fd5b620011c18262000d88565b602080825282518282018190526000919060409081850190868401855b828110156200129457815180516001600160a01b039081168652878201518116888701528682015116868601526060808201516200124b828801826001600160a01b03169052565b505060808181015115159086015260a08082015115159086015260c08082015161ffff169086015260e09081015160ff1690850152610100909301929085019060010162001203565b5091979650505050505050565b600060208284031215620012b457600080fd5b620011c18262000d77565b60805160a051615ff6620013786000396000818161089801528181613a3401528181613abc01528181614240015261484001526000818161076001528181610cf501528181610d7d01528181610f67015281816114c701528181611a0c015281816120e301528181612c6601528181612e23015281816132ee0152818161339901528181613958015281816139f501528181613f6201528181614132015281816142940152818161452b01526147ed0152615ff66000f3fe6080604052600436106102805760003560e01c80638fcc9cfb1161014f578063c89039c5116100c1578063f23a6e611161007a578063f23a6e61146108ba578063f242432a146108e6578063f2fde38b14610906578063f41d566114610926578063f499301814610946578063f7c854691461096657600080fd5b8063c89039c51461074e578063cbb117a314610782578063cc33c87514610798578063d574ea3d146107c5578063e985e9c51461083d578063eb6d3a111461088657600080fd5b8063b49a60bb11610113578063b49a60bb14610645578063b6b55f2514610667578063bc197c8114610695578063bd85b039146106da578063bf2c700114610707578063c1419def1461072757600080fd5b80638fcc9cfb146105ba5780639499ac54146105da57806395d89b41146105f0578063a22cb46514610605578063ab37fbb71461062557600080fd5b8063472d35b9116101f3578063715018a6116101ac578063715018a6146104dd578063771602f7146104f25780638980f11f1461051f5780638c4cc0df1461053f5780638c66d04f1461057c5780638da5cb5b1461059c57600080fd5b8063472d35b9146103fc5780634e1273f41461041c5780634f558e7914610449578063578c71d9146104785780635c975abb146104935780635ff2c8d2146104ad57600080fd5b8063249d39e911610245578063249d39e9146103535780632e1a7d4d1461037c5780632eb2c2d61461039c578063333171bb146103bc57806341b3d185146103d157806343d57a64146103e757600080fd5b8062fdd58e1461028c57806301ffc9a7146102bf57806306fdde03146102ef5780630e89341c14610311578063210a813c1461033157600080fd5b3661028757005b600080fd5b34801561029857600080fd5b506102ac6102a7366004614e00565b610986565b6040519081526020015b60405180910390f35b3480156102cb57600080fd5b506102df6102da366004614e42565b610a20565b60405190151581526020016102b6565b3480156102fb57600080fd5b50610304610a7b565b6040516102b69190614eaf565b34801561031d57600080fd5b5061030461032c366004614ec2565b610b09565b34801561033d57600080fd5b5061035161034c366004614ef4565b610b9d565b005b34801561035f57600080fd5b5061036961271081565b60405161ffff90911681526020016102b6565b34801561038857600080fd5b50610351610397366004614ec2565b610bf2565b3480156103a857600080fd5b506103516103b73660046150da565b610e65565b3480156103c857600080fd5b50610351610efc565b3480156103dd57600080fd5b506102ac60095481565b3480156103f357600080fd5b50610351610f3a565b34801561040857600080fd5b50610351610417366004615187565b611265565b34801561042857600080fd5b5061043c6104373660046151a4565b6112d8565b6040516102b691906152ab565b34801561045557600080fd5b506102df610464366004614ec2565b600090815260036020526040902054151590565b34801561048457600080fd5b506008546103699061ffff1681565b34801561049f57600080fd5b50600b546102df9060ff1681565b3480156104b957600080fd5b506102df6104c8366004615187565b600f6020526000908152604090205460ff1681565b3480156104e957600080fd5b50610351611401565b3480156104fe57600080fd5b5061051261050d3660046152be565b611437565b6040516102b691906153b5565b34801561052b57600080fd5b5061035161053a366004614e00565b61168e565b34801561054b57600080fd5b50600b546105649061010090046001600160a01b031681565b6040516001600160a01b0390911681526020016102b6565b34801561058857600080fd5b50610351610597366004615187565b61173d565b3480156105a857600080fd5b506004546001600160a01b0316610564565b3480156105c657600080fd5b506103516105d5366004614ec2565b6117b6565b3480156105e657600080fd5b506102ac600a5481565b3480156105fc57600080fd5b50610304611808565b34801561061157600080fd5b50610351610620366004614ef4565b611815565b34801561063157600080fd5b506103516106403660046153e3565b611824565b34801561065157600080fd5b5061065a61189c565b6040516102b69190615400565b34801561067357600080fd5b50610687610682366004614ec2565b611972565b6040516102b692919061544f565b3480156106a157600080fd5b506106c16106b03660046150da565b63bc197c8160e01b95945050505050565b6040516001600160e01b031990911681526020016102b6565b3480156106e657600080fd5b506102ac6106f5366004614ec2565b60009081526003602052604090205490565b34801561071357600080fd5b50610351610722366004615468565b611bb4565b34801561073357600080fd5b5061073c600681565b60405160ff90911681526020016102b6565b34801561075a57600080fd5b506105647f000000000000000000000000000000000000000000000000000000000000000081565b34801561078e57600080fd5b5061036961070881565b3480156107a457600080fd5b506102ac6107b3366004614ec2565b600e6020526000908152604090205481565b3480156107d157600080fd5b506107e56107e0366004614ec2565b611d1c565b604080516001600160a01b03998a16815297891660208901529588169587019590955295909216606085015215156080840152151560a083015261ffff90921660c082015260ff90911660e0820152610100016102b6565b34801561084957600080fd5b506102df6108583660046154dc565b6001600160a01b03918216600090815260016020908152604080832093909416825291909152205460ff1690565b34801561089257600080fd5b506105647f000000000000000000000000000000000000000000000000000000000000000081565b3480156108c657600080fd5b506106c16108d536600461550a565b63f23a6e6160e01b95945050505050565b3480156108f257600080fd5b5061035161090136600461550a565b611d92565b34801561091257600080fd5b50610351610921366004615187565b611e19565b34801561093257600080fd5b5061035161094136600461558c565b611eb4565b34801561095257600080fd5b50610512610961366004614ec2565b6124fc565b34801561097257600080fd5b50600c54610564906001600160a01b031681565b60006001600160a01b0383166109f75760405162461bcd60e51b815260206004820152602b60248201527f455243313135353a2062616c616e636520717565727920666f7220746865207a60448201526a65726f206164647265737360a81b60648201526084015b60405180910390fd5b506000818152602081815260408083206001600160a01b03861684529091529020545b92915050565b60006001600160e01b03198216636cdb3d1360e11b1480610a5157506001600160e01b031982166303a24d0760e21b145b80610a6c57506001600160e01b03198216632bee9c0f60e21b145b80610a1a5750610a1a82612726565b60068054610a88906156c6565b80601f0160208091040260200160405190810160405280929190818152602001828054610ab4906156c6565b8015610b015780601f10610ad657610100808354040283529160200191610b01565b820191906000526020600020905b815481529060010190602001808311610ae457829003601f168201915b505050505081565b606060028054610b18906156c6565b80601f0160208091040260200160405190810160405280929190818152602001828054610b44906156c6565b8015610b915780601f10610b6657610100808354040283529160200191610b91565b820191906000526020600020905b815481529060010190602001808311610b7457829003601f168201915b50505050509050919050565b6004546001600160a01b03163314610bc75760405162461bcd60e51b81526004016109ee90615700565b6001600160a01b03919091166000908152600f60205260409020805460ff1916911515919091179055565b600260055403610c145760405162461bcd60e51b81526004016109ee90615735565b6002600555610c233382610986565b600003610c43576040516359dc379f60e01b815260040160405180910390fd5b610c4f33826001612776565b600080610c5b836128ef565b600b54604051633becdb0560e21b8152336004820152602481018390529294509092506000916101009091046001600160a01b03169063efb36c1490604401602060405180830381865afa158015610cb7573d6000803e3d6000fd5b505050506040513d601f19601f82011682018060405250810190610cdb919061576c565b600c5460405163280cff3560e21b81526001600160a01b037f0000000000000000000000000000000000000000000000000000000000000000811660048301526024820184905292935091169063a033fcd490604401600060405180830381600087803b158015610d4b57600080fd5b505af1158015610d5f573d6000803e3d6000fd5b50505050610da4338285610d73919061579b565b6001600160a01b037f0000000000000000000000000000000000000000000000000000000000000000169190612ec1565b4715610e1557604051600090339047908381818185875af1925050503d8060008114610dec576040519150601f19603f3d011682016040523d82523d6000602084013e610df1565b606091505b5050905080610e1357604051631d73cefb60e31b815260040160405180910390fd5b505b6040805184815260208101849052908101829052849033907f887e73c01568cecc3fe477a39c098f6599306a7592db9c8941dfc71ff9046d069060600160405180910390a3505060016005555050565b6001600160a01b038516331480610e815750610e818533610858565b610ee85760405162461bcd60e51b815260206004820152603260248201527f455243313135353a207472616e736665722063616c6c6572206973206e6f74206044820152711bdddb995c881b9bdc88185c1c1c9bdd995960721b60648201526084016109ee565b610ef58585858585612f24565b5050505050565b6004546001600160a01b03163314610f265760405162461bcd60e51b81526004016109ee90615700565b600b805460ff19811660ff90911615179055565b600d54600c5460405163095ea7b360e01b81526001600160a01b03918216600482015260001960248201527f00000000000000000000000000000000000000000000000000000000000000009182169063095ea7b3906044016020604051808303816000875af1158015610fb2573d6000803e3d6000fd5b505050506040513d601f19601f82011682018060405250810190610fd691906157ae565b5060005b8281101561126057600d8181548110610ff557610ff56157cb565b906000526020600020906004020160010160009054906101000a90046001600160a01b03166001600160a01b031663095ea7b3600d838154811061103b5761103b6157cb565b600091825260209091206004918202015460405160e084901b6001600160e01b03191681526001600160a01b039091169181019190915260001960248201526044016020604051808303816000875af115801561109c573d6000803e3d6000fd5b505050506040513d601f19601f820116820180604052508101906110c091906157ae565b50600d81815481106110d4576110d46157cb565b906000526020600020906004020160010160009054906101000a90046001600160a01b03166001600160a01b031663095ea7b3600d838154811061111a5761111a6157cb565b600091825260209091206004918202016002015460405160e084901b6001600160e01b03191681526001600160a01b039091169181019190915260001960248201526044016020604051808303816000875af115801561117e573d6000803e3d6000fd5b505050506040513d601f19601f820116820180604052508101906111a291906157ae565b50816001600160a01b031663095ea7b3600d83815481106111c5576111c56157cb565b600091825260209091206004918202016002015460405160e084901b6001600160e01b03191681526001600160a01b039091169181019190915260001960248201526044016020604051808303816000875af1158015611229573d6000803e3d6000fd5b505050506040513d601f19601f8201168201806040525081019061124d91906157ae565b5080611258816157e1565b915050610fda565b505050565b6004546001600160a01b0316331461128f5760405162461bcd60e51b81526004016109ee90615700565b6001600160a01b0381166112b65760405163d92e233d60e01b815260040160405180910390fd5b600c80546001600160a01b0319166001600160a01b0392909216919091179055565b6060815183511461133d5760405162461bcd60e51b815260206004820152602960248201527f455243313135353a206163636f756e747320616e6420696473206c656e677468604482015268040dad2e6dac2e8c6d60bb1b60648201526084016109ee565b600083516001600160401b0381111561135857611358614f2d565b604051908082528060200260200182016040528015611381578160200160208202803683370190505b50905060005b84518110156113f9576113cc8582815181106113a5576113a56157cb565b60200260200101518583815181106113bf576113bf6157cb565b6020026020010151610986565b8282815181106113de576113de6157cb565b60209081029190910101526113f2816157e1565b9050611387565b509392505050565b6004546001600160a01b0316331461142b5760405162461bcd60e51b81526004016109ee90615700565b611435600061310f565b565b60408051808201909152600081526060602082015260026005540361146e5760405162461bcd60e51b81526004016109ee90615735565b6002600555600b5460ff16156114975760405163ab35696f60e01b815260040160405180910390fd5b6009548310156114ba57604051635972996f60e11b815260040160405180910390fd5b6114ef6001600160a01b037f000000000000000000000000000000000000000000000000000000000000000016333086613161565b6114f93383610986565b600003611519576040516359dc379f60e01b815260040160405180910390fd5b6115258383600161319f565b600e60008381526020019081526020016000206040518060400160405290816000820154815260200160018201805480602002602001604051908101604052809291908181526020016000905b8282101561162c57600084815260209081902060408051610140810182526005860290920180546001600160a01b0390811692840192835260018083015482166060860152600283015482166080860152600383015491821660a086015260ff600160a01b83048116151560c0870152600160a81b83048116151560e087015261ffff600160b01b840416610100870152600160c01b90920490911661012085015291835260040154828401529083529092019101611572565b5050505081525050905061163f81613940565b81336001600160a01b03167fbc5fb7ab880388ee1f0cf8f1e0cd41d18d11761351afeeca7e258706436f194b858460405161167b92919061544f565b60405180910390a3600160055592915050565b6004546001600160a01b031633146116b85760405162461bcd60e51b81526004016109ee90615700565b600d5460005b8181101561172857600d81815481106116d9576116d96157cb565b60009182526020909120600490910201546001600160a01b03908116908516036117165760405163118539e960e01b815260040160405180910390fd5b80611720816157e1565b9150506116be565b506112606001600160a01b0384163384612ec1565b6004546001600160a01b031633146117675760405162461bcd60e51b81526004016109ee90615700565b6001600160a01b03811661178e5760405163d92e233d60e01b815260040160405180910390fd5b600b80546001600160a01b0390921661010002610100600160a81b0319909216919091179055565b6004546001600160a01b031633146117e05760405162461bcd60e51b81526004016109ee90615700565b61753081101561180357604051634f4940eb60e11b815260040160405180910390fd5b600955565b60078054610a88906156c6565b611820338383613b52565b5050565b6004546001600160a01b0316331461184e5760405162461bcd60e51b81526004016109ee90615700565b60648161ffff16108061186657506101f48161ffff16115b156118845760405163334ee9a160e01b815260040160405180910390fd5b6008805461ffff191661ffff92909216919091179055565b6060600d805480602002602001604051908101604052809291908181526020016000905b8282101561196957600084815260209081902060408051610100810182526004860290920180546001600160a01b0390811684526001808301548216858701526002830154821693850193909352600390910154908116606084015260ff600160a01b8204811615156080850152600160a81b82048116151560a085015261ffff600160b01b83041660c0850152600160c01b9091041660e083015290835290920191016118c0565b50505050905090565b6000611991604051806040016040528060008152602001606081525090565b6002600554036119b35760405162461bcd60e51b81526004016109ee90615735565b6002600555600b5460ff16156119dc5760405163ab35696f60e01b815260040160405180910390fd5b6009548310156119ff57604051635972996f60e11b815260040160405180910390fd5b611a346001600160a01b037f000000000000000000000000000000000000000000000000000000000000000016333086613161565b611a3c613c32565b9150611a4a8383600061319f565b600e60008381526020019081526020016000206040518060400160405290816000820154815260200160018201805480602002602001604051908101604052809291908181526020016000905b82821015611b5157600084815260209081902060408051610140810182526005860290920180546001600160a01b0390811692840192835260018083015482166060860152600283015482166080860152600383015491821660a086015260ff600160a01b83048116151560c0870152600160a81b83048116151560e087015261ffff600160b01b840416610100870152600160c01b90920490911661012085015291835260040154828401529083529092019101611a97565b50505050815250509050611b6481613940565b81336001600160a01b03167fa2f5e09d47150876983b7f4f0c3100d002901dcf94d43e590e285aca6bf691f08584604051611ba092919061544f565b60405180910390a360016005559092909150565b6004546001600160a01b03163314611bde5760405162461bcd60e51b81526004016109ee90615700565b600d54818114611c0157604051634ec4810560e11b815260040160405180910390fd5b6000805b82811015611cbb57848482818110611c1f57611c1f6157cb565b9050602002016020810190611c3491906153e3565b600d8281548110611c4757611c476157cb565b906000526020600020906004020160030160166101000a81548161ffff021916908361ffff160217905550848482818110611c8457611c846157cb565b9050602002016020810190611c9991906153e3565b611ca79061ffff16836157fa565b915080611cb3816157e1565b915050611c05565b506127108114611cde5760405163c6cc5d7f60e01b815260040160405180910390fd5b7fe862432e937cd267ceb992c0e53d27a0d6127517fdff76f2977ef09b6f369e77600d604051611d0e919061580d565b60405180910390a150505050565b600d8181548110611d2c57600080fd5b600091825260209091206004909102018054600182015460028301546003909301546001600160a01b0392831694509082169282169181169060ff600160a01b8204811691600160a81b810482169161ffff600160b01b83041691600160c01b90041688565b6001600160a01b038516331480611dae5750611dae8533610858565b611e0c5760405162461bcd60e51b815260206004820152602960248201527f455243313135353a2063616c6c6572206973206e6f74206f776e6572206e6f7260448201526808185c1c1c9bdd995960ba1b60648201526084016109ee565b610ef58585858585613c72565b6004546001600160a01b03163314611e435760405162461bcd60e51b81526004016109ee90615700565b6001600160a01b038116611ea85760405162461bcd60e51b815260206004820152602660248201527f4f776e61626c653a206e6577206f776e657220697320746865207a65726f206160448201526564647265737360d01b60648201526084016109ee565b611eb18161310f565b50565b6004546001600160a01b03163314611ede5760405162461bcd60e51b81526004016109ee90615700565b80516000819003611f02576040516356de305560e01b815260040160405180910390fd5b6004811115611f245760405163607ed4ff60e11b815260040160405180910390fd5b6000816001600160401b03811115611f3e57611f3e614f2d565b604051908082528060200260200182016040528015611f67578160200160208202803683370190505b5090506000805b83811015611fb357848181518110611f8857611f886157cb565b602002602001015160c0015182611f9f91906158f1565b915080611fab816157e1565b915050611f6e565b5061ffff811661271014611fda5760405163c6cc5d7f60e01b815260040160405180910390fd5b611fe6600d6000614cfe565b60005b838110156124c45760006001600160a01b031685828151811061200e5761200e6157cb565b6020026020010151600001516001600160a01b0316036120415760405163d92e233d60e01b815260040160405180910390fd5b60006001600160a01b031685828151811061205e5761205e6157cb565b6020026020010151602001516001600160a01b0316036120915760405163d92e233d60e01b815260040160405180910390fd5b60006001600160a01b03168582815181106120ae576120ae6157cb565b6020026020010151604001516001600160a01b0316036120e15760405163d92e233d60e01b815260040160405180910390fd5b7f00000000000000000000000000000000000000000000000000000000000000006001600160a01b031685828151811061211d5761211d6157cb565b6020026020010151602001516001600160a01b0316141580156122b3575060006001600160a01b0316858281518110612158576121586157cb565b6020026020010151606001516001600160a01b031614806122265750848181518110612186576121866157cb565b6020026020010151606001516001600160a01b031663fc0c546a6040518163ffffffff1660e01b8152600401602060405180830381865afa1580156121cf573d6000803e3d6000fd5b505050506040513d601f19601f820116820180604052508101906121f39190615913565b6001600160a01b031685828151811061220e5761220e6157cb565b6020026020010151602001516001600160a01b031614155b806122b3575084818151811061223e5761223e6157cb565b6020026020010151606001516001600160a01b031663313ce5676040518163ffffffff1660e01b8152600401602060405180830381865afa158015612287573d6000803e3d6000fd5b505050506040513d601f19601f820116820180604052508101906122ab9190615930565b60ff16600814155b156122d157604051639589a27d60e01b815260040160405180910390fd5b60005b81811015612356578582815181106122ee576122ee6157cb565b6020026020010151600001516001600160a01b0316848281518110612315576123156157cb565b60200260200101516001600160a01b0316036123445760405163cc5fde6960e01b815260040160405180910390fd5b8061234e816157e1565b9150506122d4565b50848181518110612369576123696157cb565b602002602001015160000151838281518110612387576123876157cb565b60200260200101906001600160a01b031690816001600160a01b031681525050600d8582815181106123bb576123bb6157cb565b602090810291909101810151825460018181018555600094855293839020825160049092020180546001600160a01b039283166001600160a01b03199182161782559383015194810180549583169585169590951790945560408201516002850180549183169190941617909255606081015160039093018054608083015160a084015160c085015160e09095015160ff16600160c01b0260ff60c01b1961ffff909616600160b01b0261ffff60b01b19921515600160a81b029290921662ffffff60a81b19931515600160a01b026001600160a81b031990951698909716979097179290921716939093179290921716919091179055806124bc816157e1565b915050611fe9565b506124cd610f3a565b7fe862432e937cd267ceb992c0e53d27a0d6127517fdff76f2977ef09b6f369e7784604051611d0e9190615400565b6040805180820190915260008152606060208201526002600554036125335760405162461bcd60e51b81526004016109ee90615735565b6002600555600b5460ff161561255c5760405163ab35696f60e01b815260040160405180910390fd5b6125663383610986565b600003612586576040516359dc379f60e01b815260040160405180910390fd5b6000828152600e60205260408120549061259f846128ef565b506000858152600e602052604081208181559192506125c16001830182614d1f565b50506125cf8185600061319f565b6000848152600e60209081526040808320858155815180830183528681526001820180548451818702810187019095528085529194929385840193909290879084015b828210156126cc57600084815260209081902060408051610140810182526005860290920180546001600160a01b0390811692840192835260018083015482166060860152600283015482166080860152600383015491821660a086015260ff600160a01b83048116151560c0870152600160a81b83048116151560e087015261ffff600160b01b840416610100870152600160c01b90920490911661012085015291835260040154828401529083529092019101612612565b505050508152505090506126df81613940565b847fc54037560ab0b32bc339e4f0bedd21a5daefe3a944527ac3bb8c32d5d4647ca6838360405161271192919061544f565b60405180910390a26001600555949350505050565b60006001600160e01b03198216636cdb3d1360e11b148061275757506001600160e01b031982166303a24d0760e21b145b80610a1a57506301ffc9a760e01b6001600160e01b0319831614610a1a565b6001600160a01b0383166127d85760405162461bcd60e51b815260206004820152602360248201527f455243313135353a206275726e2066726f6d20746865207a65726f206164647260448201526265737360e81b60648201526084016109ee565b33612807818560006127e987613d9e565b6127f287613d9e565b60405180602001604052806000815250613de9565b6000838152602081815260408083206001600160a01b0388168452909152902054828110156128845760405162461bcd60e51b8152602060048201526024808201527f455243313135353a206275726e20616d6f756e7420657863656564732062616c604482015263616e636560e01b60648201526084016109ee565b6000848152602081815260408083206001600160a01b03898116808652918452828520888703905582518981529384018890529092908616917fc3d58168c5ae7397731d063d5bbf3d657854427343f4c083240f7aacaa2d0f62910160405180910390a45050505050565b6000806000600e60008581526020019081526020016000206040518060400160405290816000820154815260200160018201805480602002602001604051908101604052809291908181526020016000905b828210156129fb57600084815260209081902060408051610140810182526005860290920180546001600160a01b0390811692840192835260018083015482166060860152600283015482166080860152600383015491821660a086015260ff600160a01b83048116151560c0870152600160a81b83048116151560e087015261ffff600160b01b840416610100870152600160c01b90920490911661012085015291835260040154828401529083529092019101612941565b5050509152505060208101515160009450909150835b81811015612e0d5782602001518181518110612a2f57612a2f6157cb565b60200260200101516000015160a0015115612af557600083602001518281518110612a5c57612a5c6157cb565b602002602001015160000151600001519050806001600160a01b0316632e1a7d4d85602001518481518110612a9357612a936157cb565b6020026020010151602001516040518263ffffffff1660e01b8152600401612abd91815260200190565b600060405180830381600087803b158015612ad757600080fd5b505af1158015612aeb573d6000803e3d6000fd5b5050505050612c64565b600083602001518281518110612b0d57612b0d6157cb565b60200260200101516000015160000151905083602001518281518110612b3557612b356157cb565b6020026020010151600001516080015115612be057806001600160a01b031663ba251fba85602001518481518110612b6f57612b6f6157cb565b60209081029190910181015101516040516001600160e01b031960e084901b1681526004810191909152336024820152604481018a9052606401600060405180830381600087803b158015612bc357600080fd5b505af1158015612bd7573d6000803e3d6000fd5b50505050612c62565b806001600160a01b0316632e1a7d4d85602001518481518110612c0557612c056157cb565b6020026020010151602001516040518263ffffffff1660e01b8152600401612c2f91815260200190565b600060405180830381600087803b158015612c4957600080fd5b505af1158015612c5d573d6000803e3d6000fd5b505050505b505b7f00000000000000000000000000000000000000000000000000000000000000006001600160a01b031683602001518281518110612ca457612ca46157cb565b602002602001015160000151602001516001600160a01b031614612dfb57600083602001518281518110612cda57612cda6157cb565b6020908102919091018101515101516040516370a0823160e01b81523060048201526001600160a01b03909116906370a0823190602401602060405180830381865afa158015612d2e573d6000803e3d6000fd5b505050506040513d601f19601f82011682018060405250810190612d52919061576c565b9050600f600085602001518481518110612d6e57612d6e6157cb565b602090810291909101810151518101516001600160a01b031682528101919091526040016000205460ff1615612dce57612dc98185602001518481518110612db857612db86157cb565b602002602001015160000151613ef5565b612df9565b612df98185602001518481518110612de857612de86157cb565b6020026020010151600001516141d3565b505b80612e05816157e1565b915050612a11565b506040516370a0823160e01b81523060048201527f00000000000000000000000000000000000000000000000000000000000000006001600160a01b0316906370a0823190602401602060405180830381865afa158015612e72573d6000803e3d6000fd5b505050506040513d601f19601f82011682018060405250810190612e96919061576c565b8251909450841115612eb5578151612eae908561579b565b9250612eba565b600092505b5050915091565b6040516001600160a01b03831660248201526044810182905261126090849063a9059cbb60e01b906064015b60408051601f198184030181529190526020810180516001600160e01b03166001600160e01b0319909316929092179091526142c6565b8151835114612f865760405162461bcd60e51b815260206004820152602860248201527f455243313135353a2069647320616e6420616d6f756e7473206c656e677468206044820152670dad2e6dac2e8c6d60c31b60648201526084016109ee565b6001600160a01b038416612fac5760405162461bcd60e51b81526004016109ee9061594d565b33612fbb818787878787613de9565b60005b84518110156130a1576000858281518110612fdb57612fdb6157cb565b602002602001015190506000858381518110612ff957612ff96157cb565b602090810291909101810151600084815280835260408082206001600160a01b038e1683529093529190912054909150818110156130495760405162461bcd60e51b81526004016109ee90615992565b6000838152602081815260408083206001600160a01b038e8116855292528083208585039055908b168252812080548492906130869084906157fa565b925050819055505050508061309a906157e1565b9050612fbe565b50846001600160a01b0316866001600160a01b0316826001600160a01b03167f4a39dc06d4c0dbc64b70af90fd698a233a518aa5d07e595d983b8c0526c8f7fb87876040516130f19291906159dc565b60405180910390a4613107818787878787614398565b505050505050565b600480546001600160a01b038381166001600160a01b0319831681179093556040519116919082907f8be0079c531659141344cd1fd0a4f28419497f9722a3daafe3b4186f6b6457e090600090a35050565b6040516001600160a01b03808516602483015283166044820152606481018290526131999085906323b872dd60e01b90608401612eed565b50505050565b6000828152600e60205260408120600d5490918591905b8181101561391e576000600d82815481106131d3576131d36157cb565b60009182526020918290206040805161010081018252600490930290910180546001600160a01b0390811684526001820154811694840194909452600281015484169183019190915260030154918216606082015260ff600160a01b8304811615156080830152600160a81b83048116151560a083015261ffff600160b01b84041660c0830152600160c01b90920490911660e0820152905085156132c557846001018281548110613287576132876157cb565b600091825260209091206005909102015481516001600160a01b039081169116146132c5576040516379c896e960e01b815260040160405180910390fd5b60a08101516000806132d860018761579b565b85036133635783602001516001600160a01b03167f00000000000000000000000000000000000000000000000000000000000000006001600160a01b03161461335c576020808501516001600160a01b03166000908152600f909152604090205460ff16156133525761334b87856144f3565b9050613419565b61334b87856147b3565b5085613419565b60c08401516000906127109061337d9061ffff168e615a0a565b6133879190615a21565b905084602001516001600160a01b03167f00000000000000000000000000000000000000000000000000000000000000006001600160a01b031614613407576020808601516001600160a01b03166000908152600f909152604090205460ff16156133fd576133f681866144f3565b915061340b565b6133f681866147b3565b8091505b613415818961579b565b9750505b821561358357881561345f5761345a8185600001518a6001018881548110613443576134436157cb565b9060005260206000209060050201600401546148a6565b613907565b61346d818560000151614933565b60408051808201825286815260208082018481526001808e018054808301825560009182529084902094518051600590920290950180546001600160a01b039283166001600160a01b0319918216178255948601519281018054938316938616939093179092559484015160028201805491871691909416179092556060830151600383018054608086015160a087015160c088015160e09098015160ff16600160c01b0260ff60c01b1961ffff909916600160b01b0261ffff60b01b19921515600160a81b029290921662ffffff60a81b19931515600160a01b026001600160a81b031990951696909a1695909517929092171696909617959095179390931692909217909255516004909101559150613907565b83516040516370a0823160e01b81523060048201526000906001600160a01b038316906370a0823190602401602060405180830381865afa1580156135cc573d6000803e3d6000fd5b505050506040513d601f19601f820116820180604052508101906135f0919061576c565b9050856080015115613668576040516329c9aa1960e01b815260048101849052336024820152604481018d90526001600160a01b038316906329c9aa1990606401600060405180830381600087803b15801561364b57600080fd5b505af115801561365f573d6000803e3d6000fd5b505050506136c3565b60405163b6b55f2560e01b8152600481018490526001600160a01b0383169063b6b55f2590602401600060405180830381600087803b1580156136aa57600080fd5b505af11580156136be573d6000803e3d6000fd5b505050505b8a1561377d576040516370a0823160e01b815230600482015281906001600160a01b038416906370a0823190602401602060405180830381865afa15801561370f573d6000803e3d6000fd5b505050506040513d601f19601f82011682018060405250810190613733919061576c565b61373d919061579b565b8a6001018881548110613752576137526157cb565b9060005260206000209060050201600401600082825461377291906157fa565b909155506139049050565b60408051808201825287815290516370a0823160e01b815230600482015260018c019190602082019084906001600160a01b038716906370a0823190602401602060405180830381865afa1580156137d9573d6000803e3d6000fd5b505050506040513d601f19601f820116820180604052508101906137fd919061576c565b613807919061579b565b9052815460018181018455600093845260209384902083518051600590940290910180546001600160a01b039485166001600160a01b031991821617825582870151938201805494861694821694909417909355604082015160028201805491861691909416179092556060810151600383018054608084015160a085015160c086015160e09096015160ff16600160c01b0260ff60c01b1961ffff909716600160b01b0261ffff60b01b19921515600160a81b029290921662ffffff60a81b19931515600160a01b026001600160a81b031990951696909916959095179290921716959095179490941791909116179091559101516004909101555b50505b505050508080613916906157e1565b9150506131b6565b508583600001600082825461393391906157fa565b9091555050505050505050565b6040516370a0823160e01b81523060048201526000907f00000000000000000000000000000000000000000000000000000000000000006001600160a01b0316906370a0823190602401602060405180830381865afa1580156139a7573d6000803e3d6000fd5b505050506040513d601f19601f820116820180604052508101906139cb919061576c565b90508015613a1c5780826000018181516139e5919061579b565b905250613a1c6001600160a01b037f0000000000000000000000000000000000000000000000000000000000000000163383612ec1565b6040516370a0823160e01b81523060048201526000907f00000000000000000000000000000000000000000000000000000000000000006001600160a01b0316906370a0823190602401602060405180830381865afa158015613a83573d6000803e3d6000fd5b505050506040513d601f19601f82011682018060405250810190613aa7919061576c565b90508015613ae357613ae36001600160a01b037f0000000000000000000000000000000000000000000000000000000000000000163383612ec1565b471561126057604051600090339047908381818185875af1925050503d8060008114613b2b576040519150601f19603f3d011682016040523d82523d6000602084013e613b30565b606091505b505090508061319957604051631d73cefb60e31b815260040160405180910390fd5b816001600160a01b0316836001600160a01b031603613bc55760405162461bcd60e51b815260206004820152602960248201527f455243313135353a2073657474696e6720617070726f76616c20737461747573604482015268103337b91039b2b63360b91b60648201526084016109ee565b6001600160a01b03838116600081815260016020908152604080832094871680845294825291829020805460ff191686151590811790915591519182527f17307eab39ab6107e8899845ad3d59bd9653f200f220920489ca2b5937696c31910160405180910390a3505050565b6000600a549050613c5533826001604051806020016040528060008152506149c3565b6001600a6000828254613c6891906157fa565b9250508190555090565b6001600160a01b038416613c985760405162461bcd60e51b81526004016109ee9061594d565b33613cb7818787613ca888613d9e565b613cb188613d9e565b87613de9565b6000848152602081815260408083206001600160a01b038a16845290915290205483811015613cf85760405162461bcd60e51b81526004016109ee90615992565b6000858152602081815260408083206001600160a01b038b8116855292528083208785039055908816825281208054869290613d359084906157fa565b909155505060408051868152602081018690526001600160a01b03808916928a821692918616917fc3d58168c5ae7397731d063d5bbf3d657854427343f4c083240f7aacaa2d0f62910160405180910390a4613d95828888888888614ac0565b50505050505050565b60408051600180825281830190925260609160009190602080830190803683370190505090508281600081518110613dd857613dd86157cb565b602090810291909101015292915050565b6001600160a01b038516613e705760005b8351811015613e6e57828181518110613e1557613e156157cb565b602002602001015160036000868481518110613e3357613e336157cb565b602002602001015181526020019081526020016000206000828254613e5891906157fa565b90915550613e679050816157e1565b9050613dfa565b505b6001600160a01b0384166131075760005b8351811015613d9557828181518110613e9c57613e9c6157cb565b602002602001015160036000868481518110613eba57613eba6157cb565b602002602001015181526020019081526020016000206000828254613edf919061579b565b90915550613eee9050816157e1565b9050613e81565b602081015160408051600280825260608201909252600091816020016020820280368337505050604084015160608501518251929350909184908490600090613f4057613f406157cb565b60200260200101906001600160a01b031690816001600160a01b0316815250507f000000000000000000000000000000000000000000000000000000000000000083600181518110613f9457613f946157cb565b60200260200101906001600160a01b031690816001600160a01b0316815250506000816001600160a01b03166398d5fdca6040518163ffffffff1660e01b8152600401602060405180830381865afa158015613ff4573d6000803e3d6000fd5b505050506040513d601f19601f82011682018060405250810190614018919061576c565b9050600061402860066008615a43565b61403390600a615b40565b60e088015161404390600a615b40565b61404d9084615a21565b614057908a615a0a565b6140619190615a21565b6008549091506001600160a01b038516906338ed1739908a906127109061408c9061ffff1682615b4f565b61409a9061ffff1686615a0a565b6140a49190615a21565b88306140b2610708426157fa565b6040518663ffffffff1660e01b81526004016140d2959493929190615b6a565b6000604051808303816000875af11580156140f1573d6000803e3d6000fd5b505050506040513d6000823e601f3d908101601f191682016040526141199190810190615bdb565b506040516370a0823160e01b81523060048201526000907f00000000000000000000000000000000000000000000000000000000000000006001600160a01b0316906370a0823190602401602060405180830381865afa158015614181573d6000803e3d6000fd5b505050506040513d601f19601f820116820180604052508101906141a5919061576c565b9050806000036141c85760405163081ceff360e41b815260040160405180910390fd5b505050505050505050565b60208101516040805160038082526080820190925260009181602001602082028036833750505060408401516060850151825192935090918490849060009061421e5761421e6157cb565b60200260200101906001600160a01b031690816001600160a01b0316815250507f000000000000000000000000000000000000000000000000000000000000000083600181518110614272576142726157cb565b60200260200101906001600160a01b031690816001600160a01b0316815250507f000000000000000000000000000000000000000000000000000000000000000083600281518110613f9457613f946157cb565b600061431b826040518060400160405280602081526020017f5361666545524332303a206c6f772d6c6576656c2063616c6c206661696c6564815250856001600160a01b0316614b7b9092919063ffffffff16565b805190915015611260578080602001905181019061433991906157ae565b6112605760405162461bcd60e51b815260206004820152602a60248201527f5361666545524332303a204552433230206f7065726174696f6e20646964206e6044820152691bdd081cdd58d8d9595960b21b60648201526084016109ee565b6001600160a01b0384163b156131075760405163bc197c8160e01b81526001600160a01b0385169063bc197c81906143dc9089908990889088908890600401615c6b565b6020604051808303816000875af1925050508015614417575060408051601f3d908101601f1916820190925261441491810190615cbd565b60015b6144c357614423615cda565b806308c379a00361445c5750614437615cf6565b80614442575061445e565b8060405162461bcd60e51b81526004016109ee9190614eaf565b505b60405162461bcd60e51b815260206004820152603460248201527f455243313135353a207472616e7366657220746f206e6f6e20455243313135356044820152732932b1b2b4bb32b91034b6b83632b6b2b73a32b960611b60648201526084016109ee565b6001600160e01b0319811663bc197c8160e01b14613d955760405162461bcd60e51b81526004016109ee90615d7f565b6020818101516040805160028082526060820183526000948593908301908036833750505060408501516060860151825192935090917f000000000000000000000000000000000000000000000000000000000000000090849060009061455c5761455c6157cb565b60200260200101906001600160a01b031690816001600160a01b0316815250508383600181518110614590576145906157cb565b60200260200101906001600160a01b031690816001600160a01b0316815250506000816001600160a01b03166398d5fdca6040518163ffffffff1660e01b8152600401602060405180830381865afa1580156145f0573d6000803e3d6000fd5b505050506040513d601f19601f82011682018060405250810190614614919061576c565b9050600061462460066008615a43565b61462f90600a615b40565b828960e00151600a6146419190615b40565b61464b908c615a0a565b6146559190615a21565b61465f9190615a0a565b6008549091506001600160a01b038516906338ed1739908b906127109061468a9061ffff1682615b4f565b6146989061ffff1686615a0a565b6146a29190615a21565b88306146b0610708426157fa565b6040518663ffffffff1660e01b81526004016146d0959493929190615b6a565b6000604051808303816000875af11580156146ef573d6000803e3d6000fd5b505050506040513d6000823e601f3d908101601f191682016040526147179190810190615bdb565b506040516370a0823160e01b81523060048201526000906001600160a01b038816906370a0823190602401602060405180830381865afa15801561475f573d6000803e3d6000fd5b505050506040513d601f19601f82011682018060405250810190614783919061576c565b9050806000036147a65760405163081ceff360e41b815260040160405180910390fd5b9998505050505050505050565b60208181015160408051600380825260808201909252600093849290820160608036833750505060408501516060860151825192935090917f000000000000000000000000000000000000000000000000000000000000000090849060009061481e5761481e6157cb565b60200260200101906001600160a01b031690816001600160a01b0316815250507f000000000000000000000000000000000000000000000000000000000000000083600181518110614872576148726157cb565b60200260200101906001600160a01b031690816001600160a01b0316815250508383600281518110614590576145906157cb565b604080518082019091526000815260606020820152829060405163771602f760e01b815260048101869052602481018490526001600160a01b0383169063771602f7906044016000604051808303816000875af115801561490b573d6000803e3d6000fd5b505050506040513d6000823e601f3d908101601f191682016040526131079190810190615ef2565b604080518082018252600080825260606020830152915163b6b55f2560e01b8152600481018590528391906001600160a01b0383169063b6b55f25906024016000604051808303816000875af1158015614991573d6000803e3d6000fd5b505050506040513d6000823e601f3d908101601f191682016040526149b99190810190615f2e565b5095945050505050565b6001600160a01b038416614a235760405162461bcd60e51b815260206004820152602160248201527f455243313135353a206d696e7420746f20746865207a65726f206164647265736044820152607360f81b60648201526084016109ee565b33614a3481600087613ca888613d9e565b6000848152602081815260408083206001600160a01b038916845290915281208054859290614a649084906157fa565b909155505060408051858152602081018590526001600160a01b0380881692600092918516917fc3d58168c5ae7397731d063d5bbf3d657854427343f4c083240f7aacaa2d0f62910160405180910390a4610ef5816000878787875b6001600160a01b0384163b156131075760405163f23a6e6160e01b81526001600160a01b0385169063f23a6e6190614b049089908990889088908890600401615f6a565b6020604051808303816000875af1925050508015614b3f575060408051601f3d908101601f19168201909252614b3c91810190615cbd565b60015b614b4b57614423615cda565b6001600160e01b0319811663f23a6e6160e01b14613d955760405162461bcd60e51b81526004016109ee90615d7f565b6060614b8a8484600085614b94565b90505b9392505050565b606082471015614bf55760405162461bcd60e51b815260206004820152602660248201527f416464726573733a20696e73756666696369656e742062616c616e636520666f6044820152651c8818d85b1b60d21b60648201526084016109ee565b6001600160a01b0385163b614c4c5760405162461bcd60e51b815260206004820152601d60248201527f416464726573733a2063616c6c20746f206e6f6e2d636f6e747261637400000060448201526064016109ee565b600080866001600160a01b03168587604051614c689190615fa4565b60006040518083038185875af1925050503d8060008114614ca5576040519150601f19603f3d011682016040523d82523d6000602084013e614caa565b606091505b5091509150614cba828286614cc5565b979650505050505050565b60608315614cd4575081614b8d565b825115614ce45782518084602001fd5b8160405162461bcd60e51b81526004016109ee9190614eaf565b5080546000825560040290600052602060002090810190611eb19190614d40565b5080546000825560050290600052602060002090810190611eb19190614d8c565b5b80821115614d885780546001600160a01b031990811682556001820180548216905560028201805490911690556003810180546001600160c81b0319169055600401614d41565b5090565b5b80821115614d885780546001600160a01b031990811682556001820180548216905560028201805490911690556003810180546001600160c81b031916905560006004820155600501614d8d565b6001600160a01b0381168114611eb157600080fd5b8035614dfb81614ddb565b919050565b60008060408385031215614e1357600080fd5b8235614e1e81614ddb565b946020939093013593505050565b6001600160e01b031981168114611eb157600080fd5b600060208284031215614e5457600080fd5b8135614b8d81614e2c565b60005b83811015614e7a578181015183820152602001614e62565b50506000910152565b60008151808452614e9b816020860160208601614e5f565b601f01601f19169290920160200192915050565b602081526000614b8d6020830184614e83565b600060208284031215614ed457600080fd5b5035919050565b8015158114611eb157600080fd5b8035614dfb81614edb565b60008060408385031215614f0757600080fd5b8235614f1281614ddb565b91506020830135614f2281614edb565b809150509250929050565b634e487b7160e01b600052604160045260246000fd5b61010081018181106001600160401b0382111715614f6357614f63614f2d565b60405250565b604081018181106001600160401b0382111715614f6357614f63614f2d565b606081018181106001600160401b0382111715614f6357614f63614f2d565b601f8201601f191681016001600160401b0381118282101715614fcc57614fcc614f2d565b6040525050565b60006001600160401b03821115614fec57614fec614f2d565b5060051b60200190565b600082601f83011261500757600080fd5b8135602061501482614fd3565b6040516150218282614fa7565b83815260059390931b850182019282810191508684111561504157600080fd5b8286015b8481101561505c5780358352918301918301615045565b509695505050505050565b600082601f83011261507857600080fd5b81356001600160401b0381111561509157615091614f2d565b6040516150a8601f8301601f191660200182614fa7565b8181528460208386010111156150bd57600080fd5b816020850160208301376000918101602001919091529392505050565b600080600080600060a086880312156150f257600080fd5b85356150fd81614ddb565b9450602086013561510d81614ddb565b935060408601356001600160401b038082111561512957600080fd5b61513589838a01614ff6565b9450606088013591508082111561514b57600080fd5b61515789838a01614ff6565b9350608088013591508082111561516d57600080fd5b5061517a88828901615067565b9150509295509295909350565b60006020828403121561519957600080fd5b8135614b8d81614ddb565b600080604083850312156151b757600080fd5b82356001600160401b03808211156151ce57600080fd5b818501915085601f8301126151e257600080fd5b813560206151ef82614fd3565b6040516151fc8282614fa7565b83815260059390931b850182019282810191508984111561521c57600080fd5b948201945b8386101561524357853561523481614ddb565b82529482019490820190615221565b9650508601359250508082111561525957600080fd5b5061526685828601614ff6565b9150509250929050565b600081518084526020808501945080840160005b838110156152a057815187529582019590820190600101615284565b509495945050505050565b602081526000614b8d6020830184615270565b600080604083850312156152d157600080fd5b50508035926020909101359150565b60018060a01b038082511683528060208301511660208401528060408301511660408401528060608301511660608401525060808101511515608083015260a0810151151560a083015260c081015161533f60c084018261ffff169052565b5060e081015161126060e084018260ff169052565b600060408301825184526020808401516040828701528281518085526060880191508383019450600092505b8083101561505c5784516153958382516152e0565b840151610100830152938301936001929092019161012090910190615380565b602081526000614b8d6020830184615354565b61ffff81168114611eb157600080fd5b8035614dfb816153c8565b6000602082840312156153f557600080fd5b8135614b8d816153c8565b6020808252825182820181905260009190848201906040850190845b818110156154435761542f8385516152e0565b92840192610100929092019160010161541c565b50909695505050505050565b828152604060208201526000614b8a6040830184615354565b6000806020838503121561547b57600080fd5b82356001600160401b038082111561549257600080fd5b818501915085601f8301126154a657600080fd5b8135818111156154b557600080fd5b8660208260051b85010111156154ca57600080fd5b60209290920196919550909350505050565b600080604083850312156154ef57600080fd5b82356154fa81614ddb565b91506020830135614f2281614ddb565b600080600080600060a0868803121561552257600080fd5b853561552d81614ddb565b9450602086013561553d81614ddb565b9350604086013592506060860135915060808601356001600160401b0381111561556657600080fd5b61517a88828901615067565b60ff81168114611eb157600080fd5b8035614dfb81615572565b6000602080838503121561559f57600080fd5b82356001600160401b038111156155b557600080fd5b8301601f810185136155c657600080fd5b80356155d181614fd3565b604080516155df8382614fa7565b83815260089390931b84018501928581019250888411156155ff57600080fd5b938501935b838510156156ba57610100858a03121561561e5760008081fd5b815161562981614f43565b61563286614df0565b815261563f878701614df0565b8782015261564e838701614df0565b83820152606061565f818801614df0565b908201526080615670878201614ee9565b9082015260a0615681878201614ee9565b9082015260c06156928782016153d8565b9082015260e06156a3878201615581565b908201528352610100949094019391850191615604565b98975050505050505050565b600181811c908216806156da57607f821691505b6020821081036156fa57634e487b7160e01b600052602260045260246000fd5b50919050565b6020808252818101527f4f776e61626c653a2063616c6c6572206973206e6f7420746865206f776e6572604082015260600190565b6020808252601f908201527f5265656e7472616e637947756172643a207265656e7472616e742063616c6c00604082015260600190565b60006020828403121561577e57600080fd5b5051919050565b634e487b7160e01b600052601160045260246000fd5b81810381811115610a1a57610a1a615785565b6000602082840312156157c057600080fd5b8151614b8d81614edb565b634e487b7160e01b600052603260045260246000fd5b6000600182016157f3576157f3615785565b5060010190565b80820180821115610a1a57610a1a615785565b60006020808301818452808554808352604092508286019150866000528360002060005b828110156158e45761585b8461584e84546001600160a01b031690565b6001600160a01b03169052565b60018201546001600160a01b039081168588015260028301548116868601526003830154908116606086015260ff60a082811c8216151560808801526158a9818801838560a81c1615159052565b5060c06158c281880161ffff8560b01c1661ffff169052565b60ff92901c161660e08501526101009093019260049190910190600101615831565b5091979650505050505050565b61ffff81811683821601908082111561590c5761590c615785565b5092915050565b60006020828403121561592557600080fd5b8151614b8d81614ddb565b60006020828403121561594257600080fd5b8151614b8d81615572565b60208082526025908201527f455243313135353a207472616e7366657220746f20746865207a65726f206164604082015264647265737360d81b606082015260800190565b6020808252602a908201527f455243313135353a20696e73756666696369656e742062616c616e636520666f60408201526939103a3930b739b332b960b11b606082015260800190565b6040815260006159ef6040830185615270565b8281036020840152615a018185615270565b95945050505050565b8082028115828204841417610a1a57610a1a615785565b600082615a3e57634e487b7160e01b600052601260045260246000fd5b500490565b60ff8281168282160390811115610a1a57610a1a615785565b600181815b80851115615a97578160001904821115615a7d57615a7d615785565b80851615615a8a57918102915b93841c9390800290615a61565b509250929050565b600082615aae57506001610a1a565b81615abb57506000610a1a565b8160018114615ad15760028114615adb57615af7565b6001915050610a1a565b60ff841115615aec57615aec615785565b50506001821b610a1a565b5060208310610133831016604e8410600b8410161715615b1a575081810a610a1a565b615b248383615a5c565b8060001904821115615b3857615b38615785565b029392505050565b6000614b8d60ff841683615a9f565b61ffff82811682821603908082111561590c5761590c615785565b600060a082018783526020878185015260a0604085015281875180845260c086019150828901935060005b81811015615bba5784516001600160a01b031683529383019391830191600101615b95565b50506001600160a01b03969096166060850152505050608001529392505050565b60006020808385031215615bee57600080fd5b82516001600160401b03811115615c0457600080fd5b8301601f81018513615c1557600080fd5b8051615c2081614fd3565b604051615c2d8282614fa7565b82815260059290921b8301840191848101915087831115615c4d57600080fd5b928401925b82841015614cba57835182529284019290840190615c52565b6001600160a01b0386811682528516602082015260a060408201819052600090615c9790830186615270565b8281036060840152615ca98186615270565b905082810360808401526156ba8185614e83565b600060208284031215615ccf57600080fd5b8151614b8d81614e2c565b600060033d1115615cf35760046000803e5060005160e01c5b90565b600060443d1015615d045790565b6040516003193d81016004833e81513d6001600160401b038160248401118184111715615d3357505050505090565b8285019150815181811115615d4b5750505050505090565b843d8701016020828501011115615d655750505050505090565b615d7460208286010187614fa7565b509095945050505050565b60208082526028908201527f455243313135353a204552433131353552656365697665722072656a656374656040820152676420746f6b656e7360c01b606082015260800190565b60006040808385031215615dda57600080fd5b8051615de581614f69565b809250835181526020808501516001600160401b03811115615e0657600080fd5b8501601f81018713615e1757600080fd5b8051615e2281614fd3565b8551615e2e8282614fa7565b82815260079290921b8301840191848101915089831115615e4e57600080fd5b928401925b82841015615ee057838a036080811215615e6d5760008081fd5b8751615e7881614f69565b606080831215615e885760008081fd5b89519250615e9583614f88565b8651615ea081614ddb565b835286880151615eaf81614edb565b83890152868a0151615ec0816153c8565b838b01529181529085015186820152825260809093019290840190615e53565b80858701525050505050505092915050565b600060208284031215615f0457600080fd5b81516001600160401b03811115615f1a57600080fd5b615f2684828501615dc7565b949350505050565b60008060408385031215615f4157600080fd5b8251915060208301516001600160401b03811115615f5e57600080fd5b61526685828601615dc7565b6001600160a01b03868116825285166020820152604081018490526060810183905260a060808201819052600090614cba90830184614e83565b60008251615fb6818460208701614e5f565b919091019291505056fea2646970667358221220d69741db42983bbcaf7cd201988d13cf9b6dab7d1bdaef996ac644d92d8983c364736f6c63430008150033",
  "devdoc": {
    "events": {
      "ApprovalForAll(address,address,bool)": {
        "details": "Emitted when `account` grants or revokes permission to `operator` to transfer their tokens, according to `approved`."
      },
      "TransferBatch(address,address,address,uint256[],uint256[])": {
        "details": "Equivalent to multiple {TransferSingle} events, where `operator`, `from` and `to` are the same for all transfers."
      },
      "TransferSingle(address,address,address,uint256,uint256)": {
        "details": "Emitted when `value` tokens of token type `id` are transferred from `from` to `to` by `operator`."
      },
      "URI(string,uint256)": {
        "details": "Emitted when the URI for token type `id` changes to `value`, if it is a non-programmatic URI. If an {URI} event was emitted for `id`, the standard https://eips.ethereum.org/EIPS/eip-1155#metadata-extensions[guarantees] that `value` will equal the value returned by {IERC1155MetadataURI-uri}."
      }
    },
    "kind": "dev",
    "methods": {
      "balanceOf(address,uint256)": {
        "details": "See {IERC1155-balanceOf}. Requirements: - `account` cannot be the zero address."
      },
      "balanceOfBatch(address[],uint256[])": {
        "details": "See {IERC1155-balanceOfBatch}. Requirements: - `accounts` and `ids` must have the same length."
      },
      "deposit(uint256)": {
        "details": "The user must deposit at least the minDeposit, and will receive an ERC1155 non-fungible receipt token.  The receipt token will be mapped to a TokenInfo containing the amount deposited as well as the strategy receipt  tokens received for later withdrawal."
      },
      "exists(uint256)": {
        "details": "Indicates whether any token exist with a given id, or not."
      },
      "isApprovedForAll(address,address)": {
        "details": "See {IERC1155-isApprovedForAll}."
      },
      "owner()": {
        "details": "Returns the address of the current owner."
      },
      "rebalance(uint256)": {
        "details": "This function utilizes the internal _deposit and _withdraw functions to rebalance based on  the strategies set in the contract. Since _deposit will set the TokenInfo.deposit to the total  deposited after the rebalance, we must store the original deposit and overwrite the TokenInfo before completing the transaction."
      },
      "refreshApprovals()": {
        "details": "Since contract never holds deposit tokens max approvals should not matter. "
      },
      "renounceOwnership()": {
        "details": "Leaves the contract without owner. It will not be possible to call `onlyOwner` functions anymore. Can only be called by the current owner. NOTE: Renouncing ownership will leave the contract without an owner, thereby removing any functionality that is only available to the owner."
      },
      "safeBatchTransferFrom(address,address,uint256[],uint256[],bytes)": {
        "details": "See {IERC1155-safeBatchTransferFrom}."
      },
      "safeTransferFrom(address,address,uint256,uint256,bytes)": {
        "details": "See {IERC1155-safeTransferFrom}."
      },
      "setApprovalForAll(address,bool)": {
        "details": "See {IERC1155-setApprovalForAll}."
      },
      "setDirectSwapFor(address,bool)": {
        "details": "This can be used when there is sufficient USDC/strategyDepositToken liquidity"
      },
      "totalSupply(uint256)": {
        "details": "Total amount of tokens in with a given id."
      },
      "transferOwnership(address)": {
        "details": "Transfers ownership of the contract to a new account (`newOwner`). Can only be called by the current owner."
      },
      "uri(uint256)": {
        "details": "See {IERC1155MetadataURI-uri}. This implementation returns the same URI for *all* token types. It relies on the token type ID substitution mechanism https://eips.ethereum.org/EIPS/eip-1155#metadata[defined in the EIP]. Clients calling this function must replace the `\\{id\\}` substring with the actual token type ID."
      },
      "withdraw(uint256)": {
        "details": "Once all receipts are burned and deposit tokens received, the fee manager will calculate the fees due,  and the fee manager will distribute those fees before transfering the user their proceeds."
      }
    },
    "title": "Contract for FortiFi MASS Vaults",
    "version": 1
  },
  "userdoc": {
    "errors": {
      "CantAddToReceipt()": [
        {
          "notice": "Error caused when strategies change and a receipt cannot be added to without rebalancing"
        }
      ],
      "CantWithdrawStrategyReceipts()": [
        {
          "notice": "Error caused by trying to use recoverERC20 to withdraw strategy receipt tokens"
        }
      ],
      "ContractPaused()": [
        {
          "notice": "Error caused when trying to transact with contract while paused"
        }
      ],
      "DuplicateStrategy()": [
        {
          "notice": "Error caused by trying to set a strategy more than once"
        }
      ],
      "FailedToRefund()": [
        {
          "notice": "Error thrown when refunding native token fails"
        }
      ],
      "InvalidArrayLength()": [
        {
          "notice": "Error caused by mismatching array lengths"
        }
      ],
      "InvalidBps()": [
        {
          "notice": "Error caused when bps does not equal 10_000"
        }
      ],
      "InvalidDeposit()": [
        {
          "notice": "Error caused by trying to deposit 0"
        }
      ],
      "InvalidMinDeposit()": [
        {
          "notice": "Error caused by trying to set minDeposit below BPS"
        }
      ],
      "InvalidOracle()": [
        {
          "notice": "Error caused when trying to set oracle to an invalid address"
        }
      ],
      "InvalidSlippage()": [
        {
          "notice": "Error caused by trying to set a slippage too high"
        }
      ],
      "NoStrategies()": [
        {
          "notice": "Error caused when strategies array is empty"
        }
      ],
      "NotTokenOwner()": [
        {
          "notice": "Error caused by trying to use a token not owned by user"
        }
      ],
      "SwapFailed()": [
        {
          "notice": "Error caused when swap fails"
        }
      ],
      "TooManyStrategies()": [
        {
          "notice": "Error caused by trying to set too many strategies"
        }
      ],
      "ZeroAddress()": [
        {
          "notice": "Error caused by using 0 address as a parameter"
        }
      ]
    },
    "kind": "user",
    "methods": {
      "add(uint256,uint256)": {
        "notice": "This function is used to add to a user's deposit when they already has a receipt (ERC1155). The user can add to their  deposit without needing to burn/withdraw first. "
      },
      "deposit(uint256)": {
        "notice": "This function is used when a user does not already have a receipt (ERC1155). "
      },
      "flipPaused()": {
        "notice": "Function to flip paused state"
      },
      "getStrategies()": {
        "notice": "View function that returns all strategies"
      },
      "rebalance(uint256)": {
        "notice": "This function allows a user to rebalance a receipt (ERC1155) token's underlying assets. "
      },
      "recoverERC20(address,uint256)": {
        "notice": "Emergency function to recover stuck ERC20 tokens"
      },
      "refreshApprovals()": {
        "notice": "Function to set max approvals for router and strategies. "
      },
      "setBpsForStrategies(uint16[])": {
        "notice": "This function allows for changing the allocations of current strategies"
      },
      "setDirectSwapFor(address,bool)": {
        "notice": "Function to set a direct swap path for a specific token"
      },
      "setFeeCalculator(address)": {
        "notice": "Function to set new FortiFiFeeCalculator contract"
      },
      "setFeeManager(address)": {
        "notice": "Function to set new FortiFiFeeManager contract"
      },
      "setMinDeposit(uint256)": {
        "notice": "Function to set minimum deposit"
      },
      "setSlippage(uint16)": {
        "notice": "Function to set slippage used in swap functions. Must be 1-5% (100-500)"
      },
      "setStrategies((address,address,address,address,bool,bool,uint16,uint8)[])": {
        "notice": "This function sets up the underlying strategies used by the vault."
      },
      "supportsInterface(bytes4)": {
        "notice": "Override to allow FortiFiStrategy contracts to verify that specified vaults implement IMASS interface"
      },
      "withdraw(uint256)": {
        "notice": "This function is used to burn a receipt (ERC1155) and withdraw all underlying strategy receipt tokens. "
      }
    },
    "notice": "This contract allows for the deposit of a single asset, which is then swapped into various assets and deposited in to  multiple yield-bearing strategies. ",
    "version": 1
  },
  "storageLayout": {
    "storage": [
      {
        "astId": 170,
        "contract": "contracts/vaults/FortiFiMASSVault.sol:FortiFiMASSVault",
        "label": "_balances",
        "offset": 0,
        "slot": "0",
        "type": "t_mapping(t_uint256,t_mapping(t_address,t_uint256))"
      },
      {
        "astId": 176,
        "contract": "contracts/vaults/FortiFiMASSVault.sol:FortiFiMASSVault",
        "label": "_operatorApprovals",
        "offset": 0,
        "slot": "1",
        "type": "t_mapping(t_address,t_mapping(t_address,t_bool))"
      },
      {
        "astId": 178,
        "contract": "contracts/vaults/FortiFiMASSVault.sol:FortiFiMASSVault",
        "label": "_uri",
        "offset": 0,
        "slot": "2",
        "type": "t_string_storage"
      },
      {
        "astId": 1413,
        "contract": "contracts/vaults/FortiFiMASSVault.sol:FortiFiMASSVault",
        "label": "_totalSupply",
        "offset": 0,
        "slot": "3",
        "type": "t_mapping(t_uint256,t_uint256)"
      },
      {
        "astId": 7,
        "contract": "contracts/vaults/FortiFiMASSVault.sol:FortiFiMASSVault",
        "label": "_owner",
        "offset": 0,
        "slot": "4",
        "type": "t_address"
      },
      {
        "astId": 115,
        "contract": "contracts/vaults/FortiFiMASSVault.sol:FortiFiMASSVault",
        "label": "_status",
        "offset": 0,
        "slot": "5",
        "type": "t_uint256"
      },
      {
        "astId": 2383,
        "contract": "contracts/vaults/FortiFiMASSVault.sol:FortiFiMASSVault",
        "label": "name",
        "offset": 0,
        "slot": "6",
        "type": "t_string_storage"
      },
      {
        "astId": 2385,
        "contract": "contracts/vaults/FortiFiMASSVault.sol:FortiFiMASSVault",
        "label": "symbol",
        "offset": 0,
        "slot": "7",
        "type": "t_string_storage"
      },
      {
        "astId": 2401,
        "contract": "contracts/vaults/FortiFiMASSVault.sol:FortiFiMASSVault",
        "label": "slippageBps",
        "offset": 0,
        "slot": "8",
        "type": "t_uint16"
      },
      {
        "astId": 2404,
        "contract": "contracts/vaults/FortiFiMASSVault.sol:FortiFiMASSVault",
        "label": "minDeposit",
        "offset": 0,
        "slot": "9",
        "type": "t_uint256"
      },
      {
        "astId": 2407,
        "contract": "contracts/vaults/FortiFiMASSVault.sol:FortiFiMASSVault",
        "label": "nextToken",
        "offset": 0,
        "slot": "10",
        "type": "t_uint256"
      },
      {
        "astId": 2410,
        "contract": "contracts/vaults/FortiFiMASSVault.sol:FortiFiMASSVault",
        "label": "paused",
        "offset": 0,
        "slot": "11",
        "type": "t_bool"
      },
      {
        "astId": 2413,
        "contract": "contracts/vaults/FortiFiMASSVault.sol:FortiFiMASSVault",
        "label": "feeCalc",
        "offset": 1,
        "slot": "11",
        "type": "t_contract(IFortiFiFeeCalculator)2219"
      },
      {
        "astId": 2416,
        "contract": "contracts/vaults/FortiFiMASSVault.sol:FortiFiMASSVault",
        "label": "feeMgr",
        "offset": 0,
        "slot": "12",
        "type": "t_contract(IFortiFiFeeManager)2230"
      },
      {
        "astId": 2420,
        "contract": "contracts/vaults/FortiFiMASSVault.sol:FortiFiMASSVault",
        "label": "strategies",
        "offset": 0,
        "slot": "13",
        "type": "t_array(t_struct(Strategy)4748_storage)dyn_storage"
      },
      {
        "astId": 2425,
        "contract": "contracts/vaults/FortiFiMASSVault.sol:FortiFiMASSVault",
        "label": "tokenInfo",
        "offset": 0,
        "slot": "14",
        "type": "t_mapping(t_uint256,t_struct(TokenInfo)4761_storage)"
      },
      {
        "astId": 2429,
        "contract": "contracts/vaults/FortiFiMASSVault.sol:FortiFiMASSVault",
        "label": "useDirectSwap",
        "offset": 0,
        "slot": "15",
        "type": "t_mapping(t_address,t_bool)"
      }
    ],
    "types": {
      "t_address": {
        "encoding": "inplace",
        "label": "address",
        "numberOfBytes": "20"
      },
      "t_array(t_struct(Position)4754_storage)dyn_storage": {
        "base": "t_struct(Position)4754_storage",
        "encoding": "dynamic_array",
        "label": "struct IMASS.Position[]",
        "numberOfBytes": "32"
      },
      "t_array(t_struct(Strategy)4748_storage)dyn_storage": {
        "base": "t_struct(Strategy)4748_storage",
        "encoding": "dynamic_array",
        "label": "struct IMASS.Strategy[]",
        "numberOfBytes": "32"
      },
      "t_bool": {
        "encoding": "inplace",
        "label": "bool",
        "numberOfBytes": "1"
      },
      "t_contract(IFortiFiFeeCalculator)2219": {
        "encoding": "inplace",
        "label": "contract IFortiFiFeeCalculator",
        "numberOfBytes": "20"
      },
      "t_contract(IFortiFiFeeManager)2230": {
        "encoding": "inplace",
        "label": "contract IFortiFiFeeManager",
        "numberOfBytes": "20"
      },
      "t_mapping(t_address,t_bool)": {
        "encoding": "mapping",
        "key": "t_address",
        "label": "mapping(address => bool)",
        "numberOfBytes": "32",
        "value": "t_bool"
      },
      "t_mapping(t_address,t_mapping(t_address,t_bool))": {
        "encoding": "mapping",
        "key": "t_address",
        "label": "mapping(address => mapping(address => bool))",
        "numberOfBytes": "32",
        "value": "t_mapping(t_address,t_bool)"
      },
      "t_mapping(t_address,t_uint256)": {
        "encoding": "mapping",
        "key": "t_address",
        "label": "mapping(address => uint256)",
        "numberOfBytes": "32",
        "value": "t_uint256"
      },
      "t_mapping(t_uint256,t_mapping(t_address,t_uint256))": {
        "encoding": "mapping",
        "key": "t_uint256",
        "label": "mapping(uint256 => mapping(address => uint256))",
        "numberOfBytes": "32",
        "value": "t_mapping(t_address,t_uint256)"
      },
      "t_mapping(t_uint256,t_struct(TokenInfo)4761_storage)": {
        "encoding": "mapping",
        "key": "t_uint256",
        "label": "mapping(uint256 => struct IMASS.TokenInfo)",
        "numberOfBytes": "32",
        "value": "t_struct(TokenInfo)4761_storage"
      },
      "t_mapping(t_uint256,t_uint256)": {
        "encoding": "mapping",
        "key": "t_uint256",
        "label": "mapping(uint256 => uint256)",
        "numberOfBytes": "32",
        "value": "t_uint256"
      },
      "t_string_storage": {
        "encoding": "bytes",
        "label": "string",
        "numberOfBytes": "32"
      },
      "t_struct(Position)4754_storage": {
        "encoding": "inplace",
        "label": "struct IMASS.Position",
        "members": [
          {
            "astId": 4751,
            "contract": "contracts/vaults/FortiFiMASSVault.sol:FortiFiMASSVault",
            "label": "strategy",
            "offset": 0,
            "slot": "0",
            "type": "t_struct(Strategy)4748_storage"
          },
          {
            "astId": 4753,
            "contract": "contracts/vaults/FortiFiMASSVault.sol:FortiFiMASSVault",
            "label": "receipt",
            "offset": 0,
            "slot": "4",
            "type": "t_uint256"
          }
        ],
        "numberOfBytes": "160"
      },
      "t_struct(Strategy)4748_storage": {
        "encoding": "inplace",
        "label": "struct IMASS.Strategy",
        "members": [
          {
            "astId": 4733,
            "contract": "contracts/vaults/FortiFiMASSVault.sol:FortiFiMASSVault",
            "label": "strategy",
            "offset": 0,
            "slot": "0",
            "type": "t_address"
          },
          {
            "astId": 4735,
            "contract": "contracts/vaults/FortiFiMASSVault.sol:FortiFiMASSVault",
            "label": "depositToken",
            "offset": 0,
            "slot": "1",
            "type": "t_address"
          },
          {
            "astId": 4737,
            "contract": "contracts/vaults/FortiFiMASSVault.sol:FortiFiMASSVault",
            "label": "router",
            "offset": 0,
            "slot": "2",
            "type": "t_address"
          },
          {
            "astId": 4739,
            "contract": "contracts/vaults/FortiFiMASSVault.sol:FortiFiMASSVault",
            "label": "oracle",
            "offset": 0,
            "slot": "3",
            "type": "t_address"
          },
          {
            "astId": 4741,
            "contract": "contracts/vaults/FortiFiMASSVault.sol:FortiFiMASSVault",
            "label": "isFortiFi",
            "offset": 20,
            "slot": "3",
            "type": "t_bool"
          },
          {
            "astId": 4743,
            "contract": "contracts/vaults/FortiFiMASSVault.sol:FortiFiMASSVault",
            "label": "isSAMS",
            "offset": 21,
            "slot": "3",
            "type": "t_bool"
          },
          {
            "astId": 4745,
            "contract": "contracts/vaults/FortiFiMASSVault.sol:FortiFiMASSVault",
            "label": "bps",
            "offset": 22,
            "slot": "3",
            "type": "t_uint16"
          },
          {
            "astId": 4747,
            "contract": "contracts/vaults/FortiFiMASSVault.sol:FortiFiMASSVault",
            "label": "decimals",
            "offset": 24,
            "slot": "3",
            "type": "t_uint8"
          }
        ],
        "numberOfBytes": "128"
      },
      "t_struct(TokenInfo)4761_storage": {
        "encoding": "inplace",
        "label": "struct IMASS.TokenInfo",
        "members": [
          {
            "astId": 4756,
            "contract": "contracts/vaults/FortiFiMASSVault.sol:FortiFiMASSVault",
            "label": "deposit",
            "offset": 0,
            "slot": "0",
            "type": "t_uint256"
          },
          {
            "astId": 4760,
            "contract": "contracts/vaults/FortiFiMASSVault.sol:FortiFiMASSVault",
            "label": "positions",
            "offset": 0,
            "slot": "1",
            "type": "t_array(t_struct(Position)4754_storage)dyn_storage"
          }
        ],
        "numberOfBytes": "64"
      },
      "t_uint16": {
        "encoding": "inplace",
        "label": "uint16",
        "numberOfBytes": "2"
      },
      "t_uint256": {
        "encoding": "inplace",
        "label": "uint256",
        "numberOfBytes": "32"
      },
      "t_uint8": {
        "encoding": "inplace",
        "label": "uint8",
        "numberOfBytes": "1"
      }
    }
  }
}