{
  "address": "0x5DFEe593b135AD1467C4870719d562F6D8132921",
  "abi": [
    {
      "inputs": [
        {
          "internalType": "address",
          "name": "_strategy",
          "type": "address"
        },
        {
          "internalType": "address",
          "name": "_depositToken",
          "type": "address"
        },
        {
          "internalType": "address",
          "name": "_wrappedNative",
          "type": "address"
        }
      ],
      "stateMutability": "nonpayable",
      "type": "constructor"
    },
    {
      "anonymous": false,
      "inputs": [
        {
          "indexed": true,
          "internalType": "address",
          "name": "owner",
          "type": "address"
        },
        {
          "indexed": true,
          "internalType": "address",
          "name": "spender",
          "type": "address"
        },
        {
          "indexed": false,
          "internalType": "uint256",
          "name": "value",
          "type": "uint256"
        }
      ],
      "name": "Approval",
      "type": "event"
    },
    {
      "anonymous": false,
      "inputs": [
        {
          "indexed": true,
          "internalType": "address",
          "name": "previousOwner",
          "type": "address"
        },
        {
          "indexed": true,
          "internalType": "address",
          "name": "newOwner",
          "type": "address"
        }
      ],
      "name": "OwnershipTransferred",
      "type": "event"
    },
    {
      "anonymous": false,
      "inputs": [
        {
          "indexed": true,
          "internalType": "address",
          "name": "from",
          "type": "address"
        },
        {
          "indexed": true,
          "internalType": "address",
          "name": "to",
          "type": "address"
        },
        {
          "indexed": false,
          "internalType": "uint256",
          "name": "value",
          "type": "uint256"
        }
      ],
      "name": "Transfer",
      "type": "event"
    },
    {
      "inputs": [
        {
          "internalType": "address",
          "name": "owner",
          "type": "address"
        },
        {
          "internalType": "address",
          "name": "spender",
          "type": "address"
        }
      ],
      "name": "allowance",
      "outputs": [
        {
          "internalType": "uint256",
          "name": "",
          "type": "uint256"
        }
      ],
      "stateMutability": "view",
      "type": "function"
    },
    {
      "inputs": [
        {
          "internalType": "address",
          "name": "spender",
          "type": "address"
        },
        {
          "internalType": "uint256",
          "name": "amount",
          "type": "uint256"
        }
      ],
      "name": "approve",
      "outputs": [
        {
          "internalType": "bool",
          "name": "",
          "type": "bool"
        }
      ],
      "stateMutability": "nonpayable",
      "type": "function"
    },
    {
      "inputs": [
        {
          "internalType": "address",
          "name": "account",
          "type": "address"
        }
      ],
      "name": "balanceOf",
      "outputs": [
        {
          "internalType": "uint256",
          "name": "",
          "type": "uint256"
        }
      ],
      "stateMutability": "view",
      "type": "function"
    },
    {
      "inputs": [],
      "name": "decimals",
      "outputs": [
        {
          "internalType": "uint8",
          "name": "",
          "type": "uint8"
        }
      ],
      "stateMutability": "view",
      "type": "function"
    },
    {
      "inputs": [
        {
          "internalType": "address",
          "name": "spender",
          "type": "address"
        },
        {
          "internalType": "uint256",
          "name": "subtractedValue",
          "type": "uint256"
        }
      ],
      "name": "decreaseAllowance",
      "outputs": [
        {
          "internalType": "bool",
          "name": "",
          "type": "bool"
        }
      ],
      "stateMutability": "nonpayable",
      "type": "function"
    },
    {
      "inputs": [
        {
          "internalType": "uint256",
          "name": "_amount",
          "type": "uint256"
        },
        {
          "internalType": "address",
          "name": "_user",
          "type": "address"
        }
      ],
      "name": "depositToFortress",
      "outputs": [],
      "stateMutability": "nonpayable",
      "type": "function"
    },
    {
      "inputs": [
        {
          "internalType": "address",
          "name": "spender",
          "type": "address"
        },
        {
          "internalType": "uint256",
          "name": "addedValue",
          "type": "uint256"
        }
      ],
      "name": "increaseAllowance",
      "outputs": [
        {
          "internalType": "bool",
          "name": "",
          "type": "bool"
        }
      ],
      "stateMutability": "nonpayable",
      "type": "function"
    },
    {
      "inputs": [],
      "name": "name",
      "outputs": [
        {
          "internalType": "string",
          "name": "",
          "type": "string"
        }
      ],
      "stateMutability": "view",
      "type": "function"
    },
    {
      "inputs": [],
      "name": "owner",
      "outputs": [
        {
          "internalType": "address",
          "name": "",
          "type": "address"
        }
      ],
      "stateMutability": "view",
      "type": "function"
    },
    {
      "inputs": [
        {
          "internalType": "address",
          "name": "_token",
          "type": "address"
        },
        {
          "internalType": "uint256",
          "name": "_amount",
          "type": "uint256"
        }
      ],
      "name": "recoverERC20",
      "outputs": [],
      "stateMutability": "nonpayable",
      "type": "function"
    },
    {
      "inputs": [
        {
          "internalType": "address",
          "name": "_fortress",
          "type": "address"
        },
        {
          "internalType": "address",
          "name": "_token",
          "type": "address"
        },
        {
          "internalType": "uint256",
          "name": "_amount",
          "type": "uint256"
        }
      ],
      "name": "recoverFromFortress",
      "outputs": [],
      "stateMutability": "nonpayable",
      "type": "function"
    },
    {
      "inputs": [],
      "name": "renounceOwnership",
      "outputs": [],
      "stateMutability": "nonpayable",
      "type": "function"
    },
    {
      "inputs": [],
      "name": "symbol",
      "outputs": [
        {
          "internalType": "string",
          "name": "",
          "type": "string"
        }
      ],
      "stateMutability": "view",
      "type": "function"
    },
    {
      "inputs": [],
      "name": "totalSupply",
      "outputs": [
        {
          "internalType": "uint256",
          "name": "",
          "type": "uint256"
        }
      ],
      "stateMutability": "view",
      "type": "function"
    },
    {
      "inputs": [
        {
          "internalType": "address",
          "name": "to",
          "type": "address"
        },
        {
          "internalType": "uint256",
          "name": "amount",
          "type": "uint256"
        }
      ],
      "name": "transfer",
      "outputs": [
        {
          "internalType": "bool",
          "name": "",
          "type": "bool"
        }
      ],
      "stateMutability": "nonpayable",
      "type": "function"
    },
    {
      "inputs": [
        {
          "internalType": "address",
          "name": "from",
          "type": "address"
        },
        {
          "internalType": "address",
          "name": "to",
          "type": "address"
        },
        {
          "internalType": "uint256",
          "name": "amount",
          "type": "uint256"
        }
      ],
      "name": "transferFrom",
      "outputs": [
        {
          "internalType": "bool",
          "name": "",
          "type": "bool"
        }
      ],
      "stateMutability": "nonpayable",
      "type": "function"
    },
    {
      "inputs": [
        {
          "internalType": "address",
          "name": "newOwner",
          "type": "address"
        }
      ],
      "name": "transferOwnership",
      "outputs": [],
      "stateMutability": "nonpayable",
      "type": "function"
    },
    {
      "inputs": [
        {
          "internalType": "address",
          "name": "",
          "type": "address"
        }
      ],
      "name": "userToFortress",
      "outputs": [
        {
          "internalType": "address",
          "name": "",
          "type": "address"
        }
      ],
      "stateMutability": "view",
      "type": "function"
    },
    {
      "inputs": [
        {
          "internalType": "uint256",
          "name": "_amount",
          "type": "uint256"
        },
        {
          "internalType": "address",
          "name": "_user",
          "type": "address"
        }
      ],
      "name": "withdrawFromFortress",
      "outputs": [],
      "stateMutability": "nonpayable",
      "type": "function"
    },
    {
      "stateMutability": "payable",
      "type": "receive"
    }
  ],
  "transactionHash": "0x06a302c7d6b68dbb2cdd50b48c4f7675b2e9f899bff6934bb99434b5090209df",
  "args": [
    "0x2323dac85c6ab9bd6a8b5fb75b0581e31232d12b",
    "0xB97EF9Ef8734C71904D8002F8b6Bc66Dd9c48a6E",
    "0xB31f66AA3C1e785363F0875A1B74E27b85FD66c7"
  ],
  "numDeployments": 4,
  "solcInputHash": "fe0c4f2129bac9083c549995f6b24374",
  "bytecode": "0x60806040523480156200001157600080fd5b50604051620046e8380380620046e8833981016040819052620000349162000474565b8282826040518060400160405280601881526020017f466f72746946692053747261746567792052656365697074000000000000000081525060405180604001604052806004815260200163232329a960e11b815250620000a46200009e6200035d60201b60201c565b62000361565b8151620000b9906004906020850190620003b1565b508051620000cf906005906020840190620003b1565b5050506001600160a01b0383166200012e5760405162461bcd60e51b815260206004820152601960248201527f466f72746946693a20496e76616c69642073747261746567790000000000000060448201526064015b60405180910390fd5b6001600160a01b038216620001865760405162461bcd60e51b815260206004820152601e60248201527f466f72746946693a20496e76616c6964206465706f73697420746f6b656e0000604482015260640162000125565b6001600160a01b038116620001de5760405162461bcd60e51b815260206004820152601d60248201527f466f72746946693a20496e76616c6964206e617469766520746f6b656e000000604482015260640162000125565b600680546001600160a01b03199081166001600160a01b0395861617909155600780548216938516939093179092556008805490921690831617905583166200026a5760405162461bcd60e51b815260206004820152601960248201527f466f72746946693a20496e76616c696420737472617465677900000000000000604482015260640162000125565b6001600160a01b038216620002c25760405162461bcd60e51b815260206004820152601e60248201527f466f72746946693a20496e76616c6964206465706f73697420746f6b656e0000604482015260640162000125565b6001600160a01b0381166200031a5760405162461bcd60e51b815260206004820152601d60248201527f466f72746946693a20496e76616c6964206e617469766520746f6b656e000000604482015260640162000125565b600a80546001600160a01b039485166001600160a01b031991821617909155600b805493851693821693909317909255600c8054919093169116179055620004fa565b3390565b600080546001600160a01b038381166001600160a01b0319831681178455604051919092169283917f8be0079c531659141344cd1fd0a4f28419497f9722a3daafe3b4186f6b6457e09190a35050565b828054620003bf90620004bd565b90600052602060002090601f016020900481019282620003e357600085556200042e565b82601f10620003fe57805160ff19168380011785556200042e565b828001600101855582156200042e579182015b828111156200042e57825182559160200191906001019062000411565b506200043c92915062000440565b5090565b5b808211156200043c576000815560010162000441565b80516001600160a01b03811681146200046f57600080fd5b919050565b60008060006060848603121562000489578283fd5b620004948462000457565b9250620004a46020850162000457565b9150620004b46040850162000457565b90509250925092565b600281046001821680620004d257607f821691505b60208210811415620004f457634e487b7160e01b600052602260045260246000fd5b50919050565b6141de806200050a6000396000f3fe608060405260043610620001695760003560e01c8063821a156b11620000d3578063a9059cbb116200007f578063ded438f01162000061578063ded438f014620003f3578063e642f26b1462000418578063f2fde38b14620004525762000171565b8063a9059cbb1462000384578063dd62ed3e14620003a95762000171565b80638da5cb5b11620000b55780638da5cb5b146200031357806395d89b411462000347578063a457c2d7146200035f5762000171565b8063821a156b14620002c95780638980f11f14620002ee5762000171565b8063313ce56711620001335780636e44a6eb11620001155780636e44a6eb146200026557806370a08231146200028c578063715018a614620002b15762000171565b8063313ce56714620002225780633950935114620002405762000171565b806306fdde031462000176578063095ea7b314620001a657806318160ddd14620001dc57806323b872dd14620001fd5762000171565b366200017157005b600080fd5b3480156200018357600080fd5b506200018e62000477565b6040516200019d919062001c7a565b60405180910390f35b348015620001b357600080fd5b50620001cb620001c536600462001bee565b62000511565b60405190151581526020016200019d565b348015620001e957600080fd5b506003545b6040519081526020016200019d565b3480156200020a57600080fd5b50620001cb6200021c36600462001bae565b6200052b565b3480156200022f57600080fd5b50604051601281526020016200019d565b3480156200024d57600080fd5b50620001cb6200025f36600462001bee565b62000553565b3480156200027257600080fd5b506200028a6200028436600462001c55565b62000596565b005b3480156200029957600080fd5b50620001ee620002ab36600462001b53565b62000868565b348015620002be57600080fd5b506200028a62000887565b348015620002d657600080fd5b506200028a620002e836600462001c55565b620008f1565b348015620002fb57600080fd5b506200028a6200030d36600462001bee565b62000d6e565b3480156200032057600080fd5b506000546001600160a01b03165b6040516001600160a01b0390911681526020016200019d565b3480156200035457600080fd5b506200018e62000e53565b3480156200036c57600080fd5b50620001cb6200037e36600462001bee565b62000e64565b3480156200039157600080fd5b50620001cb620003a336600462001bee565b62000f12565b348015620003b657600080fd5b50620001ee620003c836600462001b77565b6001600160a01b03918216600090815260026020908152604080832093909416825291909152205490565b3480156200040057600080fd5b506200028a6200041236600462001bae565b62000f22565b3480156200042557600080fd5b506200032e6200043736600462001b53565b6009602052600090815260409020546001600160a01b031681565b3480156200045f57600080fd5b506200028a6200047136600462001b53565b62001006565b606060048054620004889062001d05565b80601f0160208091040260200160405190810160405280929190818152602001828054620004b69062001d05565b8015620005075780601f10620004db5761010080835404028352916020019162000507565b820191906000526020600020905b815481529060010190602001808311620004e957829003601f168201915b5050505050905090565b60003362000521818585620010ee565b5060019392505050565b6000336200053b8582856200124a565b62000548858585620012db565b506001949350505050565b3360008181526002602090815260408083206001600160a01b03871684529091528120549091906200052190829086906200059090879062001cd0565b620010ee565b60008211620005ec5760405162461bcd60e51b815260206004820152601360248201527f466f72746946693a20302077697468647261770000000000000000000000000060448201526064015b60405180910390fd5b6001600160a01b0381811660009081526009602052604090205416620006555760405162461bcd60e51b815260206004820152601460248201527f466f72746946693a204e6f20666f7274726573730000000000000000000000006044820152606401620005e3565b620006613383620014fc565b6001600160a01b03818116600090815260096020526040908190205490517f2e1a7d4d00000000000000000000000000000000000000000000000000000000815260048101859052911690632e1a7d4d90602401600060405180830381600087803b158015620006d057600080fd5b505af1158015620006e5573d6000803e3d6000fd5b50506007546040516370a0823160e01b81523060048201526001600160a01b03909116925063a9059cbb9150339083906370a082319060240160206040518083038186803b1580156200073757600080fd5b505afa1580156200074c573d6000803e3d6000fd5b505050506040513d601f19601f8201168201806040525081019062000772919062001c3c565b6040517fffffffff0000000000000000000000000000000000000000000000000000000060e085901b1681526001600160a01b0390921660048301526024820152604401602060405180830381600087803b158015620007d157600080fd5b505af1158015620007e6573d6000803e3d6000fd5b505050506040513d601f19601f820116820180604052508101906200080c919062001c1a565b6200085a5760405162461bcd60e51b815260206004820181905260248201527f466f72746946693a204661696c656420746f207472616e73666572206465702e6044820152606401620005e3565b6200086462001688565b5050565b6001600160a01b0381166000908152600160205260409020545b919050565b6000546001600160a01b03163314620008e35760405162461bcd60e51b815260206004820181905260248201527f4f776e61626c653a2063616c6c6572206973206e6f7420746865206f776e65726044820152606401620005e3565b620008ef6000620019e9565b565b60008211620009435760405162461bcd60e51b815260206004820152601260248201527f466f72746946693a2030206465706f73697400000000000000000000000000006044820152606401620005e3565b600b546040517f23b872dd000000000000000000000000000000000000000000000000000000008152336004820152306024820152604481018490526001600160a01b03909116906323b872dd90606401602060405180830381600087803b158015620009af57600080fd5b505af1158015620009c4573d6000803e3d6000fd5b505050506040513d601f19601f82011682018060405250810190620009ea919062001c1a565b62000a385760405162461bcd60e51b815260206004820181905260248201527f466f72746946693a204661696c656420746f207472616e73666572206465702e6044820152606401620005e3565b6001600160a01b0381811660009081526009602052604081205490911662000b1257600a54600b54600c546040516000936001600160a01b03908116938116921690309062000a879062001b2d565b6001600160a01b039485168152928416602084015290831660408301529091166060820152608001604051809103906000f08015801562000acc573d6000803e3d6000fd5b506001600160a01b038481166000908152600960205260409020805473ffffffffffffffffffffffffffffffffffffffff1916918316919091179055915062000b2f9050565b506001600160a01b03808216600090815260096020526040902054165b6040516370a0823160e01b81523060048201526000906001600160a01b038316906370a082319060240160206040518083038186803b15801562000b7257600080fd5b505afa15801562000b87573d6000803e3d6000fd5b505050506040513d601f19601f8201168201806040525081019062000bad919062001c3c565b600b546040517f095ea7b30000000000000000000000000000000000000000000000000000000081526001600160a01b0385811660048301526024820188905292935091169063095ea7b390604401602060405180830381600087803b15801562000c1757600080fd5b505af115801562000c2c573d6000803e3d6000fd5b505050506040513d601f19601f8201168201806040525081019062000c52919062001c1a565b506040517fb6b55f25000000000000000000000000000000000000000000000000000000008152600481018590526001600160a01b0383169063b6b55f2590602401600060405180830381600087803b15801562000caf57600080fd5b505af115801562000cc4573d6000803e3d6000fd5b50506040516370a0823160e01b815230600482015262000d5e925033915083906001600160a01b038616906370a082319060240160206040518083038186803b15801562000d1157600080fd5b505afa15801562000d26573d6000803e3d6000fd5b505050506040513d601f19601f8201168201806040525081019062000d4c919062001c3c565b62000d58919062001ceb565b62001a46565b62000d6862001688565b50505050565b6000546001600160a01b0316331462000dca5760405162461bcd60e51b815260206004820181905260248201527f4f776e61626c653a2063616c6c6572206973206e6f7420746865206f776e65726044820152606401620005e3565b60405163a9059cbb60e01b8152336004820152602481018290526001600160a01b0383169063a9059cbb90604401602060405180830381600087803b15801562000e1357600080fd5b505af115801562000e28573d6000803e3d6000fd5b505050506040513d601f19601f8201168201806040525081019062000e4e919062001c1a565b505050565b606060058054620004889062001d05565b3360008181526002602090815260408083206001600160a01b03871684529091528120549091908381101562000f035760405162461bcd60e51b815260206004820152602560248201527f45524332303a2064656372656173656420616c6c6f77616e63652062656c6f7760448201527f207a65726f0000000000000000000000000000000000000000000000000000006064820152608401620005e3565b620005488286868403620010ee565b60003362000521818585620012db565b6000546001600160a01b0316331462000f7e5760405162461bcd60e51b815260206004820181905260248201527f4f776e61626c653a2063616c6c6572206973206e6f7420746865206f776e65726044820152606401620005e3565b6040517f1171bda90000000000000000000000000000000000000000000000000000000081523360048201526001600160a01b03838116602483015260448201839052841690631171bda990606401600060405180830381600087803b15801562000fe857600080fd5b505af115801562000ffd573d6000803e3d6000fd5b50505050505050565b6000546001600160a01b03163314620010625760405162461bcd60e51b815260206004820181905260248201527f4f776e61626c653a2063616c6c6572206973206e6f7420746865206f776e65726044820152606401620005e3565b6001600160a01b038116620010e05760405162461bcd60e51b815260206004820152602660248201527f4f776e61626c653a206e6577206f776e657220697320746865207a65726f206160448201527f64647265737300000000000000000000000000000000000000000000000000006064820152608401620005e3565b620010eb81620019e9565b50565b6001600160a01b0383166200116b5760405162461bcd60e51b8152602060048201526024808201527f45524332303a20617070726f76652066726f6d20746865207a65726f2061646460448201527f72657373000000000000000000000000000000000000000000000000000000006064820152608401620005e3565b6001600160a01b038216620011e95760405162461bcd60e51b815260206004820152602260248201527f45524332303a20617070726f766520746f20746865207a65726f20616464726560448201527f73730000000000000000000000000000000000000000000000000000000000006064820152608401620005e3565b6001600160a01b0383811660008181526002602090815260408083209487168084529482529182902085905590518481527f8c5be1e5ebec7d5bd14f71427d1e84f3dd0314c0f7b2291e5b200ac8c7c3b925910160405180910390a3505050565b6001600160a01b03838116600090815260026020908152604080832093861683529290522054600019811462000d685781811015620012cc5760405162461bcd60e51b815260206004820152601d60248201527f45524332303a20696e73756666696369656e7420616c6c6f77616e63650000006044820152606401620005e3565b62000d688484848403620010ee565b6001600160a01b038316620013595760405162461bcd60e51b815260206004820152602560248201527f45524332303a207472616e736665722066726f6d20746865207a65726f20616460448201527f64726573730000000000000000000000000000000000000000000000000000006064820152608401620005e3565b6001600160a01b038216620013d75760405162461bcd60e51b815260206004820152602360248201527f45524332303a207472616e7366657220746f20746865207a65726f206164647260448201527f65737300000000000000000000000000000000000000000000000000000000006064820152608401620005e3565b6001600160a01b03831660009081526001602052604090205481811015620014685760405162461bcd60e51b815260206004820152602660248201527f45524332303a207472616e7366657220616d6f756e742065786365656473206260448201527f616c616e636500000000000000000000000000000000000000000000000000006064820152608401620005e3565b6001600160a01b03808516600090815260016020526040808220858503905591851681529081208054849290620014a190849062001cd0565b92505081905550826001600160a01b0316846001600160a01b03167fddf252ad1be2c89b69c2b068fc378daa952ba7f163c4a11628f55a4df523b3ef84604051620014ee91815260200190565b60405180910390a362000d68565b6001600160a01b0382166200157a5760405162461bcd60e51b815260206004820152602160248201527f45524332303a206275726e2066726f6d20746865207a65726f2061646472657360448201527f73000000000000000000000000000000000000000000000000000000000000006064820152608401620005e3565b6001600160a01b038216600090815260016020526040902054818110156200160b5760405162461bcd60e51b815260206004820152602260248201527f45524332303a206275726e20616d6f756e7420657863656564732062616c616e60448201527f63650000000000000000000000000000000000000000000000000000000000006064820152608401620005e3565b6001600160a01b03831660009081526001602052604081208383039055600380548492906200163c90849062001ceb565b90915550506040518281526000906001600160a01b038516907fddf252ad1be2c89b69c2b068fc378daa952ba7f163c4a11628f55a4df523b3ef9060200160405180910390a362000e4e565b6007546040516370a0823160e01b81523060048201526000916001600160a01b0316906370a082319060240160206040518083038186803b158015620016cd57600080fd5b505afa158015620016e2573d6000803e3d6000fd5b505050506040513d601f19601f8201168201806040525081019062001708919062001c3c565b90508015620017e75760075460405163a9059cbb60e01b8152336004820152602481018390526001600160a01b039091169063a9059cbb90604401602060405180830381600087803b1580156200175e57600080fd5b505af115801562001773573d6000803e3d6000fd5b505050506040513d601f19601f8201168201806040525081019062001799919062001c1a565b620017e75760405162461bcd60e51b815260206004820152601f60248201527f466f72746946693a204661696c656420746f20726566756e64204552433230006044820152606401620005e3565b6008546040516370a0823160e01b81523060048201526000916001600160a01b0316906370a082319060240160206040518083038186803b1580156200182c57600080fd5b505afa15801562001841573d6000803e3d6000fd5b505050506040513d601f19601f8201168201806040525081019062001867919062001c3c565b90508015620019465760085460405163a9059cbb60e01b8152336004820152602481018390526001600160a01b039091169063a9059cbb90604401602060405180830381600087803b158015620018bd57600080fd5b505af1158015620018d2573d6000803e3d6000fd5b505050506040513d601f19601f82011682018060405250810190620018f8919062001c1a565b620019465760405162461bcd60e51b815260206004820181905260248201527f466f72746946693a204661696c656420746f20726566756e64206e61746976656044820152606401620005e3565b47156200086457604051600090339047908381818185875af1925050503d806000811462001991576040519150601f19603f3d011682016040523d82523d6000602084013e62001996565b606091505b505090508062000e4e5760405162461bcd60e51b815260206004820181905260248201527f466f72746946693a204661696c656420746f20726566756e64206e61746976656044820152606401620005e3565b600080546001600160a01b0383811673ffffffffffffffffffffffffffffffffffffffff19831681178455604051919092169283917f8be0079c531659141344cd1fd0a4f28419497f9722a3daafe3b4186f6b6457e09190a35050565b6001600160a01b03821662001a9e5760405162461bcd60e51b815260206004820152601f60248201527f45524332303a206d696e7420746f20746865207a65726f2061646472657373006044820152606401620005e3565b806003600082825462001ab2919062001cd0565b90915550506001600160a01b0382166000908152600160205260408120805483929062001ae190849062001cd0565b90915550506040518181526001600160a01b038316906000907fddf252ad1be2c89b69c2b068fc378daa952ba7f163c4a11628f55a4df523b3ef9060200160405180910390a362000864565b6124508062001d5983390190565b80356001600160a01b03811681146200088257600080fd5b60006020828403121562001b65578081fd5b62001b708262001b3b565b9392505050565b6000806040838503121562001b8a578081fd5b62001b958362001b3b565b915062001ba56020840162001b3b565b90509250929050565b60008060006060848603121562001bc3578081fd5b62001bce8462001b3b565b925062001bde6020850162001b3b565b9150604084013590509250925092565b6000806040838503121562001c01578182fd5b62001c0c8362001b3b565b946020939093013593505050565b60006020828403121562001c2c578081fd5b8151801515811462001b70578182fd5b60006020828403121562001c4e578081fd5b5051919050565b6000806040838503121562001c68578182fd5b8235915062001ba56020840162001b3b565b6000602080835283518082850152825b8181101562001ca85785810183015185820160400152820162001c8a565b8181111562001cba5783604083870101525b50601f01601f1916929092016040019392505050565b6000821982111562001ce65762001ce662001d42565b500190565b60008282101562001d005762001d0062001d42565b500390565b60028104600182168062001d1a57607f821691505b6020821081141562001d3c57634e487b7160e01b600052602260045260246000fd5b50919050565b634e487b7160e01b600052601160045260246000fdfe60806040523480156200001157600080fd5b50604051620024503803806200245083398101604081905262000034916200064c565b838383836040518060400160405280601881526020017f466f727469466920466f72747265737320526563656970740000000000000000815250604051806040016040528060048152602001632323232960e11b815250620000a56200009f6200053560201b60201c565b62000539565b8151620000ba90600490602085019062000589565b508051620000d090600590602084019062000589565b5050506001600160a01b0384166200012f5760405162461bcd60e51b815260206004820152601960248201527f466f72746946693a20496e76616c69642073747261746567790000000000000060448201526064015b60405180910390fd5b6001600160a01b038316620001875760405162461bcd60e51b815260206004820152601e60248201527f466f72746946693a20496e76616c6964206465706f73697420746f6b656e0000604482015260640162000126565b6001600160a01b038216620001df5760405162461bcd60e51b815260206004820152601d60248201527f466f72746946693a20496e76616c6964206e617469766520746f6b656e000000604482015260640162000126565b6001600160a01b038116620002375760405162461bcd60e51b815260206004820152601660248201527f466f72746946693a20496e76616c6964206f776e657200000000000000000000604482015260640162000126565b600680546001600160a01b03199081166001600160a01b038781169182179093556007805483168785161790819055600880549093168685161790925560405163095ea7b360e01b81526004810191909152600019602482015291169063095ea7b390604401602060405180830381600087803b158015620002b857600080fd5b505af1158015620002cd573d6000803e3d6000fd5b505050506040513d601f19601f82011682018060405250810190620002f39190620006a8565b50620002ff8162000539565b505050506001600160a01b0384166200035b5760405162461bcd60e51b815260206004820152601960248201527f466f72746946693a20496e76616c696420737472617465677900000000000000604482015260640162000126565b6001600160a01b038316620003b35760405162461bcd60e51b815260206004820152601e60248201527f466f72746946693a20496e76616c6964206465706f73697420746f6b656e0000604482015260640162000126565b6001600160a01b0382166200040b5760405162461bcd60e51b815260206004820152601d60248201527f466f72746946693a20496e76616c6964206e617469766520746f6b656e000000604482015260640162000126565b6001600160a01b038116620004635760405162461bcd60e51b815260206004820152601660248201527f466f72746946693a20496e76616c6964206f776e657200000000000000000000604482015260640162000126565b600980546001600160a01b03199081166001600160a01b03878116918217909355600a805483168785161790819055600b80549093168685161790925560405163095ea7b360e01b81526004810191909152600019602482015291169063095ea7b390604401602060405180830381600087803b158015620004e457600080fd5b505af1158015620004f9573d6000803e3d6000fd5b505050506040513d601f19601f820116820180604052508101906200051f9190620006a8565b506200052b8162000539565b505050506200070e565b3390565b600080546001600160a01b038381166001600160a01b0319831681178455604051919092169283917f8be0079c531659141344cd1fd0a4f28419497f9722a3daafe3b4186f6b6457e09190a35050565b8280546200059790620006d1565b90600052602060002090601f016020900481019282620005bb576000855562000606565b82601f10620005d657805160ff191683800117855562000606565b8280016001018555821562000606579182015b8281111562000606578251825591602001919060010190620005e9565b506200061492915062000618565b5090565b5b8082111562000614576000815560010162000619565b80516001600160a01b03811681146200064757600080fd5b919050565b6000806000806080858703121562000662578384fd5b6200066d856200062f565b93506200067d602086016200062f565b92506200068d604086016200062f565b91506200069d606086016200062f565b905092959194509250565b600060208284031215620006ba578081fd5b81518015158114620006ca578182fd5b9392505050565b600281046001821680620006e657607f821691505b602082108114156200070857634e487b7160e01b600052602260045260246000fd5b50919050565b611d32806200071e6000396000f3fe6080604052600436106101635760003560e01c80638da5cb5b116100c0578063b6b55f2511610074578063c89039c511610059578063c89039c514610396578063dd62ed3e146103b4578063f2fde38b146103fa5761016a565b8063b6b55f2514610361578063bf33a1f5146103815761016a565b8063a457c2d7116100a5578063a457c2d714610303578063a8c62e7614610323578063a9059cbb146103415761016a565b80638da5cb5b146102bc57806395d89b41146102ee5761016a565b80632e1a7d4d1161011757806339509351116100fc578063395093511461026757806370a0823114610287578063715018a6146102a75761016a565b80632e1a7d4d1461022b578063313ce5671461024b5761016a565b80631171bda9116101485780631171bda9146101ca57806318160ddd146101ec57806323b872dd1461020b5761016a565b806306fdde031461016f578063095ea7b31461019a5761016a565b3661016a57005b600080fd5b34801561017b57600080fd5b5061018461041a565b6040516101919190611c29565b60405180910390f35b3480156101a657600080fd5b506101ba6101b5366004611bb0565b6104ac565b6040519015158152602001610191565b3480156101d657600080fd5b506101ea6101e5366004611b75565b6104c4565b005b3480156101f857600080fd5b506003545b604051908152602001610191565b34801561021757600080fd5b506101ba610226366004611b75565b6105ab565b34801561023757600080fd5b506101ea610246366004611bf9565b6105cf565b34801561025757600080fd5b5060405160128152602001610191565b34801561027357600080fd5b506101ba610282366004611bb0565b610ad3565b34801561029357600080fd5b506101fd6102a2366004611b22565b610b12565b3480156102b357600080fd5b506101ea610b31565b3480156102c857600080fd5b506000546001600160a01b03165b6040516001600160a01b039091168152602001610191565b3480156102fa57600080fd5b50610184610b97565b34801561030f57600080fd5b506101ba61031e366004611bb0565b610ba6565b34801561032f57600080fd5b506006546001600160a01b03166102d6565b34801561034d57600080fd5b506101ba61035c366004611bb0565b610c50565b34801561036d57600080fd5b506101ea61037c366004611bf9565b610c5e565b34801561038d57600080fd5b506101ea610f7b565b3480156103a257600080fd5b506007546001600160a01b03166102d6565b3480156103c057600080fd5b506101fd6103cf366004611b43565b6001600160a01b03918216600090815260026020908152604080832093909416825291909152205490565b34801561040657600080fd5b506101ea610415366004611b22565b611020565b60606004805461042990611cab565b80601f016020809104026020016040519081016040528092919081815260200182805461045590611cab565b80156104a25780601f10610477576101008083540402835291602001916104a2565b820191906000526020600020905b81548152906001019060200180831161048557829003601f168201915b5050505050905090565b6000336104ba8185856110ff565b5060019392505050565b6000546001600160a01b031633146105235760405162461bcd60e51b815260206004820181905260248201527f4f776e61626c653a2063616c6c6572206973206e6f7420746865206f776e657260448201526064015b60405180910390fd5b60405163a9059cbb60e01b81526001600160a01b0384811660048301526024820183905283169063a9059cbb90604401602060405180830381600087803b15801561056d57600080fd5b505af1158015610581573d6000803e3d6000fd5b505050506040513d601f19601f820116820180604052508101906105a59190611bd9565b50505050565b6000336105b9858285611258565b6105c48585856112e4565b506001949350505050565b6000546001600160a01b031633146106295760405162461bcd60e51b815260206004820181905260248201527f4f776e61626c653a2063616c6c6572206973206e6f7420746865206f776e6572604482015260640161051a565b600081116106795760405162461bcd60e51b815260206004820152601360248201527f466f72746946693a203020776974686472617700000000000000000000000000604482015260640161051a565b61068333826114fb565b6009546040516370a0823160e01b81523060048201526000916001600160a01b0316906370a082319060240160206040518083038186803b1580156106c757600080fd5b505afa1580156106db573d6000803e3d6000fd5b505050506040513d601f19601f820116820180604052508101906106ff9190611c11565b6009546040517f2e1a7d4d000000000000000000000000000000000000000000000000000000008152600481018390529192506001600160a01b031690632e1a7d4d90602401600060405180830381600087803b15801561075f57600080fd5b505af1158015610773573d6000803e3d6000fd5b5050600a546040516370a0823160e01b81523060048201526001600160a01b03909116925063a9059cbb9150339083906370a082319060240160206040518083038186803b1580156107c457600080fd5b505afa1580156107d8573d6000803e3d6000fd5b505050506040513d601f19601f820116820180604052508101906107fc9190611c11565b6040517fffffffff0000000000000000000000000000000000000000000000000000000060e085901b1681526001600160a01b0390921660048301526024820152604401602060405180830381600087803b15801561085a57600080fd5b505af115801561086e573d6000803e3d6000fd5b505050506040513d601f19601f820116820180604052508101906108929190611bd9565b6108de5760405162461bcd60e51b815260206004820181905260248201527f466f72746946693a204661696c656420746f207472616e73666572206465702e604482015260640161051a565b6009546040516370a0823160e01b81523060048201526000916001600160a01b0316906370a082319060240160206040518083038186803b15801561092257600080fd5b505afa158015610936573d6000803e3d6000fd5b505050506040513d601f19601f8201168201806040525081019061095a9190611c11565b1115610ac7576009546040516370a0823160e01b81523060048201526001600160a01b039091169063a9059cbb90339083906370a082319060240160206040518083038186803b1580156109ad57600080fd5b505afa1580156109c1573d6000803e3d6000fd5b505050506040513d601f19601f820116820180604052508101906109e59190611c11565b6040517fffffffff0000000000000000000000000000000000000000000000000000000060e085901b1681526001600160a01b0390921660048301526024820152604401602060405180830381600087803b158015610a4357600080fd5b505af1158015610a57573d6000803e3d6000fd5b505050506040513d601f19601f82011682018060405250810190610a7b9190611bd9565b610ac75760405162461bcd60e51b815260206004820152601960248201527f466f72746946693a204661696c656420746f20726566756e6400000000000000604482015260640161051a565b610acf61167d565b5050565b3360008181526002602090815260408083206001600160a01b03871684529091528120549091906104ba9082908690610b0d908790611c7c565b6110ff565b6001600160a01b0381166000908152600160205260409020545b919050565b6000546001600160a01b03163314610b8b5760405162461bcd60e51b815260206004820181905260248201527f4f776e61626c653a2063616c6c6572206973206e6f7420746865206f776e6572604482015260640161051a565b610b9560006119c3565b565b60606005805461042990611cab565b3360008181526002602090815260408083206001600160a01b038716845290915281205490919083811015610c435760405162461bcd60e51b815260206004820152602560248201527f45524332303a2064656372656173656420616c6c6f77616e63652062656c6f7760448201527f207a65726f000000000000000000000000000000000000000000000000000000606482015260840161051a565b6105c482868684036110ff565b6000336104ba8185856112e4565b6000546001600160a01b03163314610cb85760405162461bcd60e51b815260206004820181905260248201527f4f776e61626c653a2063616c6c6572206973206e6f7420746865206f776e6572604482015260640161051a565b60008111610d085760405162461bcd60e51b815260206004820152601260248201527f466f72746946693a2030206465706f7369740000000000000000000000000000604482015260640161051a565b6007546040517f23b872dd000000000000000000000000000000000000000000000000000000008152336004820152306024820152604481018390526001600160a01b03909116906323b872dd90606401602060405180830381600087803b158015610d7357600080fd5b505af1158015610d87573d6000803e3d6000fd5b505050506040513d601f19601f82011682018060405250810190610dab9190611bd9565b610df75760405162461bcd60e51b815260206004820181905260248201527f466f72746946693a204661696c656420746f207472616e73666572206465702e604482015260640161051a565b6006546040516370a0823160e01b81523060048201526000916001600160a01b0316906370a082319060240160206040518083038186803b158015610e3b57600080fd5b505afa158015610e4f573d6000803e3d6000fd5b505050506040513d601f19601f82011682018060405250810190610e739190611c11565b6006546040517fb6b55f25000000000000000000000000000000000000000000000000000000008152600481018590529192506001600160a01b03169063b6b55f2590602401600060405180830381600087803b158015610ed357600080fd5b505af1158015610ee7573d6000803e3d6000fd5b50506006546040516370a0823160e01b8152306004820152610ac7935033925084916001600160a01b0316906370a082319060240160206040518083038186803b158015610f3457600080fd5b505afa158015610f48573d6000803e3d6000fd5b505050506040513d601f19601f82011682018060405250810190610f6c9190611c11565b610f769190611c94565b611a2b565b6007546006546040517f095ea7b30000000000000000000000000000000000000000000000000000000081526001600160a01b039182166004820152600019602482015291169063095ea7b390604401602060405180830381600087803b158015610fe557600080fd5b505af1158015610ff9573d6000803e3d6000fd5b505050506040513d601f19601f8201168201806040525081019061101d9190611bd9565b50565b6000546001600160a01b0316331461107a5760405162461bcd60e51b815260206004820181905260248201527f4f776e61626c653a2063616c6c6572206973206e6f7420746865206f776e6572604482015260640161051a565b6001600160a01b0381166110f65760405162461bcd60e51b815260206004820152602660248201527f4f776e61626c653a206e6577206f776e657220697320746865207a65726f206160448201527f6464726573730000000000000000000000000000000000000000000000000000606482015260840161051a565b61101d816119c3565b6001600160a01b03831661117a5760405162461bcd60e51b8152602060048201526024808201527f45524332303a20617070726f76652066726f6d20746865207a65726f2061646460448201527f7265737300000000000000000000000000000000000000000000000000000000606482015260840161051a565b6001600160a01b0382166111f65760405162461bcd60e51b815260206004820152602260248201527f45524332303a20617070726f766520746f20746865207a65726f20616464726560448201527f7373000000000000000000000000000000000000000000000000000000000000606482015260840161051a565b6001600160a01b0383811660008181526002602090815260408083209487168084529482529182902085905590518481527f8c5be1e5ebec7d5bd14f71427d1e84f3dd0314c0f7b2291e5b200ac8c7c3b92591015b60405180910390a3505050565b6001600160a01b0383811660009081526002602090815260408083209386168352929052205460001981146105a557818110156112d75760405162461bcd60e51b815260206004820152601d60248201527f45524332303a20696e73756666696369656e7420616c6c6f77616e6365000000604482015260640161051a565b6105a584848484036110ff565b6001600160a01b0383166113605760405162461bcd60e51b815260206004820152602560248201527f45524332303a207472616e736665722066726f6d20746865207a65726f20616460448201527f6472657373000000000000000000000000000000000000000000000000000000606482015260840161051a565b6001600160a01b0382166113dc5760405162461bcd60e51b815260206004820152602360248201527f45524332303a207472616e7366657220746f20746865207a65726f206164647260448201527f6573730000000000000000000000000000000000000000000000000000000000606482015260840161051a565b6001600160a01b0383166000908152600160205260409020548181101561146b5760405162461bcd60e51b815260206004820152602660248201527f45524332303a207472616e7366657220616d6f756e742065786365656473206260448201527f616c616e63650000000000000000000000000000000000000000000000000000606482015260840161051a565b6001600160a01b038085166000908152600160205260408082208585039055918516815290812080548492906114a2908490611c7c565b92505081905550826001600160a01b0316846001600160a01b03167fddf252ad1be2c89b69c2b068fc378daa952ba7f163c4a11628f55a4df523b3ef846040516114ee91815260200190565b60405180910390a36105a5565b6001600160a01b0382166115775760405162461bcd60e51b815260206004820152602160248201527f45524332303a206275726e2066726f6d20746865207a65726f2061646472657360448201527f7300000000000000000000000000000000000000000000000000000000000000606482015260840161051a565b6001600160a01b038216600090815260016020526040902054818110156116065760405162461bcd60e51b815260206004820152602260248201527f45524332303a206275726e20616d6f756e7420657863656564732062616c616e60448201527f6365000000000000000000000000000000000000000000000000000000000000606482015260840161051a565b6001600160a01b0383166000908152600160205260408120838303905560038054849290611635908490611c94565b90915550506040518281526000906001600160a01b038516907fddf252ad1be2c89b69c2b068fc378daa952ba7f163c4a11628f55a4df523b3ef9060200161124b565b505050565b6007546040516370a0823160e01b81523060048201526000916001600160a01b0316906370a082319060240160206040518083038186803b1580156116c157600080fd5b505afa1580156116d5573d6000803e3d6000fd5b505050506040513d601f19601f820116820180604052508101906116f99190611c11565b905080156117d15760075460405163a9059cbb60e01b8152336004820152602481018390526001600160a01b039091169063a9059cbb90604401602060405180830381600087803b15801561174d57600080fd5b505af1158015611761573d6000803e3d6000fd5b505050506040513d601f19601f820116820180604052508101906117859190611bd9565b6117d15760405162461bcd60e51b815260206004820152601f60248201527f466f72746946693a204661696c656420746f20726566756e6420455243323000604482015260640161051a565b6008546040516370a0823160e01b81523060048201526000916001600160a01b0316906370a082319060240160206040518083038186803b15801561181557600080fd5b505afa158015611829573d6000803e3d6000fd5b505050506040513d601f19601f8201168201806040525081019061184d9190611c11565b905080156119255760085460405163a9059cbb60e01b8152336004820152602481018390526001600160a01b039091169063a9059cbb90604401602060405180830381600087803b1580156118a157600080fd5b505af11580156118b5573d6000803e3d6000fd5b505050506040513d601f19601f820116820180604052508101906118d99190611bd9565b6119255760405162461bcd60e51b815260206004820181905260248201527f466f72746946693a204661696c656420746f20726566756e64206e6174697665604482015260640161051a565b4715610acf57604051600090339047908381818185875af1925050503d806000811461196d576040519150601f19603f3d011682016040523d82523d6000602084013e611972565b606091505b50509050806116785760405162461bcd60e51b815260206004820181905260248201527f466f72746946693a204661696c656420746f20726566756e64206e6174697665604482015260640161051a565b600080546001600160a01b038381167fffffffffffffffffffffffff0000000000000000000000000000000000000000831681178455604051919092169283917f8be0079c531659141344cd1fd0a4f28419497f9722a3daafe3b4186f6b6457e09190a35050565b6001600160a01b038216611a815760405162461bcd60e51b815260206004820152601f60248201527f45524332303a206d696e7420746f20746865207a65726f206164647265737300604482015260640161051a565b8060036000828254611a939190611c7c565b90915550506001600160a01b03821660009081526001602052604081208054839290611ac0908490611c7c565b90915550506040518181526001600160a01b038316906000907fddf252ad1be2c89b69c2b068fc378daa952ba7f163c4a11628f55a4df523b3ef9060200160405180910390a3610acf565b80356001600160a01b0381168114610b2c57600080fd5b600060208284031215611b33578081fd5b611b3c82611b0b565b9392505050565b60008060408385031215611b55578081fd5b611b5e83611b0b565b9150611b6c60208401611b0b565b90509250929050565b600080600060608486031215611b89578081fd5b611b9284611b0b565b9250611ba060208501611b0b565b9150604084013590509250925092565b60008060408385031215611bc2578182fd5b611bcb83611b0b565b946020939093013593505050565b600060208284031215611bea578081fd5b81518015158114611b3c578182fd5b600060208284031215611c0a578081fd5b5035919050565b600060208284031215611c22578081fd5b5051919050565b6000602080835283518082850152825b81811015611c5557858101830151858201604001528201611c39565b81811115611c665783604083870101525b50601f01601f1916929092016040019392505050565b60008219821115611c8f57611c8f611ce6565b500190565b600082821015611ca657611ca6611ce6565b500390565b600281046001821680611cbf57607f821691505b60208210811415611ce057634e487b7160e01b600052602260045260246000fd5b50919050565b634e487b7160e01b600052601160045260246000fdfea26469706673582212205b9e676d86db81b6454d606e9cd006e5eec0176aaf7bdb24d7de0fa03b86e64264736f6c63430008020033a2646970667358221220449c3b9b072964bad35039f429ecf588169d333d28efb8b4a39df29eaf8010a364736f6c63430008020033",
  "devdoc": {
    "kind": "dev",
    "methods": {
      "allowance(address,address)": {
        "details": "See {IERC20-allowance}."
      },
      "approve(address,uint256)": {
        "details": "See {IERC20-approve}. NOTE: If `amount` is the maximum `uint256`, the allowance is not updated on `transferFrom`. This is semantically equivalent to an infinite approval. Requirements: - `spender` cannot be the zero address."
      },
      "balanceOf(address)": {
        "details": "See {IERC20-balanceOf}."
      },
      "decimals()": {
        "details": "Returns the number of decimals used to get its user representation. For example, if `decimals` equals `2`, a balance of `505` tokens should be displayed to a user as `5.05` (`505 / 10 ** 2`). Tokens usually opt for a value of 18, imitating the relationship between Ether and Wei. This is the value {ERC20} uses, unless this function is overridden; NOTE: This information is only used for _display_ purposes: it in no way affects any of the arithmetic of the contract, including {IERC20-balanceOf} and {IERC20-transfer}."
      },
      "decreaseAllowance(address,uint256)": {
        "details": "Atomically decreases the allowance granted to `spender` by the caller. This is an alternative to {approve} that can be used as a mitigation for problems described in {IERC20-approve}. Emits an {Approval} event indicating the updated allowance. Requirements: - `spender` cannot be the zero address. - `spender` must have allowance for the caller of at least `subtractedValue`."
      },
      "increaseAllowance(address,uint256)": {
        "details": "Atomically increases the allowance granted to `spender` by the caller. This is an alternative to {approve} that can be used as a mitigation for problems described in {IERC20-approve}. Emits an {Approval} event indicating the updated allowance. Requirements: - `spender` cannot be the zero address."
      },
      "name()": {
        "details": "Returns the name of the token."
      },
      "owner()": {
        "details": "Returns the address of the current owner."
      },
      "renounceOwnership()": {
        "details": "Leaves the contract without owner. It will not be possible to call `onlyOwner` functions anymore. Can only be called by the current owner. NOTE: Renouncing ownership will leave the contract without an owner, thereby removing any functionality that is only available to the owner."
      },
      "symbol()": {
        "details": "Returns the symbol of the token, usually a shorter version of the name."
      },
      "totalSupply()": {
        "details": "See {IERC20-totalSupply}."
      },
      "transfer(address,uint256)": {
        "details": "See {IERC20-transfer}. Requirements: - `to` cannot be the zero address. - the caller must have a balance of at least `amount`."
      },
      "transferFrom(address,address,uint256)": {
        "details": "See {IERC20-transferFrom}. Emits an {Approval} event indicating the updated allowance. This is not required by the EIP. See the note at the beginning of {ERC20}. NOTE: Does not update the allowance if the current allowance is the maximum `uint256`. Requirements: - `from` and `to` cannot be the zero address. - `from` must have a balance of at least `amount`. - the caller must have allowance for ``from``'s tokens of at least `amount`."
      },
      "transferOwnership(address)": {
        "details": "Transfers ownership of the contract to a new account (`newOwner`). Can only be called by the current owner."
      }
    },
    "version": 1
  },
  "userdoc": {
    "kind": "user",
    "methods": {},
    "version": 1
  },
  "storageLayout": {
    "storage": [
      {
        "astId": 7,
        "contract": "contracts/strategies/FortiFiDPStrategy.sol:FortiFiDPStrategy",
        "label": "_owner",
        "offset": 0,
        "slot": "0",
        "type": "t_address"
      },
      {
        "astId": 120,
        "contract": "contracts/strategies/FortiFiDPStrategy.sol:FortiFiDPStrategy",
        "label": "_balances",
        "offset": 0,
        "slot": "1",
        "type": "t_mapping(t_address,t_uint256)"
      },
      {
        "astId": 126,
        "contract": "contracts/strategies/FortiFiDPStrategy.sol:FortiFiDPStrategy",
        "label": "_allowances",
        "offset": 0,
        "slot": "2",
        "type": "t_mapping(t_address,t_mapping(t_address,t_uint256))"
      },
      {
        "astId": 128,
        "contract": "contracts/strategies/FortiFiDPStrategy.sol:FortiFiDPStrategy",
        "label": "_totalSupply",
        "offset": 0,
        "slot": "3",
        "type": "t_uint256"
      },
      {
        "astId": 130,
        "contract": "contracts/strategies/FortiFiDPStrategy.sol:FortiFiDPStrategy",
        "label": "_name",
        "offset": 0,
        "slot": "4",
        "type": "t_string_storage"
      },
      {
        "astId": 132,
        "contract": "contracts/strategies/FortiFiDPStrategy.sol:FortiFiDPStrategy",
        "label": "_symbol",
        "offset": 0,
        "slot": "5",
        "type": "t_string_storage"
      },
      {
        "astId": 1607,
        "contract": "contracts/strategies/FortiFiDPStrategy.sol:FortiFiDPStrategy",
        "label": "_strat",
        "offset": 0,
        "slot": "6",
        "type": "t_address"
      },
      {
        "astId": 1610,
        "contract": "contracts/strategies/FortiFiDPStrategy.sol:FortiFiDPStrategy",
        "label": "_dToken",
        "offset": 0,
        "slot": "7",
        "type": "t_contract(IERC20)770"
      },
      {
        "astId": 1613,
        "contract": "contracts/strategies/FortiFiDPStrategy.sol:FortiFiDPStrategy",
        "label": "_wNative",
        "offset": 0,
        "slot": "8",
        "type": "t_contract(IERC20)770"
      },
      {
        "astId": 1617,
        "contract": "contracts/strategies/FortiFiDPStrategy.sol:FortiFiDPStrategy",
        "label": "userToFortress",
        "offset": 0,
        "slot": "9",
        "type": "t_mapping(t_address,t_address)"
      },
      {
        "astId": 1023,
        "contract": "contracts/strategies/FortiFiDPStrategy.sol:FortiFiDPStrategy",
        "label": "_strat",
        "offset": 0,
        "slot": "10",
        "type": "t_address"
      },
      {
        "astId": 1026,
        "contract": "contracts/strategies/FortiFiDPStrategy.sol:FortiFiDPStrategy",
        "label": "_dToken",
        "offset": 0,
        "slot": "11",
        "type": "t_contract(IERC20)770"
      },
      {
        "astId": 1029,
        "contract": "contracts/strategies/FortiFiDPStrategy.sol:FortiFiDPStrategy",
        "label": "_wNative",
        "offset": 0,
        "slot": "12",
        "type": "t_contract(IERC20)770"
      }
    ],
    "types": {
      "t_address": {
        "encoding": "inplace",
        "label": "address",
        "numberOfBytes": "20"
      },
      "t_contract(IERC20)770": {
        "encoding": "inplace",
        "label": "contract IERC20",
        "numberOfBytes": "20"
      },
      "t_mapping(t_address,t_address)": {
        "encoding": "mapping",
        "key": "t_address",
        "label": "mapping(address => address)",
        "numberOfBytes": "32",
        "value": "t_address"
      },
      "t_mapping(t_address,t_mapping(t_address,t_uint256))": {
        "encoding": "mapping",
        "key": "t_address",
        "label": "mapping(address => mapping(address => uint256))",
        "numberOfBytes": "32",
        "value": "t_mapping(t_address,t_uint256)"
      },
      "t_mapping(t_address,t_uint256)": {
        "encoding": "mapping",
        "key": "t_address",
        "label": "mapping(address => uint256)",
        "numberOfBytes": "32",
        "value": "t_uint256"
      },
      "t_string_storage": {
        "encoding": "bytes",
        "label": "string",
        "numberOfBytes": "32"
      },
      "t_uint256": {
        "encoding": "inplace",
        "label": "uint256",
        "numberOfBytes": "32"
      }
    }
  }
}