{
  "address": "0x33aB93b73d45d680f6Ffb6c7915cf20fbac9a11D",
  "abi": [
    {
      "inputs": [
        {
          "internalType": "string",
          "name": "_name",
          "type": "string"
        },
        {
          "internalType": "string",
          "name": "_symbol",
          "type": "string"
        },
        {
          "internalType": "string",
          "name": "_metadata",
          "type": "string"
        },
        {
          "internalType": "address",
          "name": "_wrappedNative",
          "type": "address"
        },
        {
          "internalType": "address",
          "name": "_depositToken",
          "type": "address"
        },
        {
          "internalType": "address",
          "name": "_feeManager",
          "type": "address"
        },
        {
          "internalType": "address",
          "name": "_feeCalculator",
          "type": "address"
        },
        {
          "internalType": "uint256",
          "name": "_minDeposit",
          "type": "uint256"
        },
        {
          "components": [
            {
              "internalType": "address",
              "name": "strategy",
              "type": "address"
            },
            {
              "internalType": "bool",
              "name": "isFortiFi",
              "type": "bool"
            },
            {
              "internalType": "uint16",
              "name": "bps",
              "type": "uint16"
            }
          ],
          "internalType": "struct ISAMS.Strategy[]",
          "name": "_strategies",
          "type": "tuple[]"
        }
      ],
      "stateMutability": "nonpayable",
      "type": "constructor"
    },
    {
      "anonymous": false,
      "inputs": [
        {
          "indexed": true,
          "internalType": "address",
          "name": "depositor",
          "type": "address"
        },
        {
          "indexed": true,
          "internalType": "uint256",
          "name": "tokenId",
          "type": "uint256"
        },
        {
          "indexed": false,
          "internalType": "uint256",
          "name": "amount",
          "type": "uint256"
        },
        {
          "components": [
            {
              "internalType": "uint256",
              "name": "deposit",
              "type": "uint256"
            },
            {
              "components": [
                {
                  "components": [
                    {
                      "internalType": "address",
                      "name": "strategy",
                      "type": "address"
                    },
                    {
                      "internalType": "bool",
                      "name": "isFortiFi",
                      "type": "bool"
                    },
                    {
                      "internalType": "uint16",
                      "name": "bps",
                      "type": "uint16"
                    }
                  ],
                  "internalType": "struct ISAMS.Strategy",
                  "name": "strategy",
                  "type": "tuple"
                },
                {
                  "internalType": "uint256",
                  "name": "receipt",
                  "type": "uint256"
                }
              ],
              "internalType": "struct ISAMS.Position[]",
              "name": "positions",
              "type": "tuple[]"
            }
          ],
          "indexed": false,
          "internalType": "struct ISAMS.TokenInfo",
          "name": "tokenInfo",
          "type": "tuple"
        }
      ],
      "name": "Add",
      "type": "event"
    },
    {
      "anonymous": false,
      "inputs": [
        {
          "indexed": true,
          "internalType": "address",
          "name": "account",
          "type": "address"
        },
        {
          "indexed": true,
          "internalType": "address",
          "name": "operator",
          "type": "address"
        },
        {
          "indexed": false,
          "internalType": "bool",
          "name": "approved",
          "type": "bool"
        }
      ],
      "name": "ApprovalForAll",
      "type": "event"
    },
    {
      "anonymous": false,
      "inputs": [
        {
          "indexed": true,
          "internalType": "address",
          "name": "depositor",
          "type": "address"
        },
        {
          "indexed": true,
          "internalType": "uint256",
          "name": "tokenId",
          "type": "uint256"
        },
        {
          "indexed": false,
          "internalType": "uint256",
          "name": "amount",
          "type": "uint256"
        },
        {
          "components": [
            {
              "internalType": "uint256",
              "name": "deposit",
              "type": "uint256"
            },
            {
              "components": [
                {
                  "components": [
                    {
                      "internalType": "address",
                      "name": "strategy",
                      "type": "address"
                    },
                    {
                      "internalType": "bool",
                      "name": "isFortiFi",
                      "type": "bool"
                    },
                    {
                      "internalType": "uint16",
                      "name": "bps",
                      "type": "uint16"
                    }
                  ],
                  "internalType": "struct ISAMS.Strategy",
                  "name": "strategy",
                  "type": "tuple"
                },
                {
                  "internalType": "uint256",
                  "name": "receipt",
                  "type": "uint256"
                }
              ],
              "internalType": "struct ISAMS.Position[]",
              "name": "positions",
              "type": "tuple[]"
            }
          ],
          "indexed": false,
          "internalType": "struct ISAMS.TokenInfo",
          "name": "tokenInfo",
          "type": "tuple"
        }
      ],
      "name": "Deposit",
      "type": "event"
    },
    {
      "anonymous": false,
      "inputs": [
        {
          "indexed": true,
          "internalType": "address",
          "name": "previousOwner",
          "type": "address"
        },
        {
          "indexed": true,
          "internalType": "address",
          "name": "newOwner",
          "type": "address"
        }
      ],
      "name": "OwnershipTransferred",
      "type": "event"
    },
    {
      "anonymous": false,
      "inputs": [
        {
          "indexed": true,
          "internalType": "uint256",
          "name": "tokenId",
          "type": "uint256"
        },
        {
          "indexed": false,
          "internalType": "uint256",
          "name": "amount",
          "type": "uint256"
        },
        {
          "components": [
            {
              "internalType": "uint256",
              "name": "deposit",
              "type": "uint256"
            },
            {
              "components": [
                {
                  "components": [
                    {
                      "internalType": "address",
                      "name": "strategy",
                      "type": "address"
                    },
                    {
                      "internalType": "bool",
                      "name": "isFortiFi",
                      "type": "bool"
                    },
                    {
                      "internalType": "uint16",
                      "name": "bps",
                      "type": "uint16"
                    }
                  ],
                  "internalType": "struct ISAMS.Strategy",
                  "name": "strategy",
                  "type": "tuple"
                },
                {
                  "internalType": "uint256",
                  "name": "receipt",
                  "type": "uint256"
                }
              ],
              "internalType": "struct ISAMS.Position[]",
              "name": "positions",
              "type": "tuple[]"
            }
          ],
          "indexed": false,
          "internalType": "struct ISAMS.TokenInfo",
          "name": "tokenInfo",
          "type": "tuple"
        }
      ],
      "name": "Rebalance",
      "type": "event"
    },
    {
      "anonymous": false,
      "inputs": [
        {
          "indexed": true,
          "internalType": "address",
          "name": "operator",
          "type": "address"
        },
        {
          "indexed": true,
          "internalType": "address",
          "name": "from",
          "type": "address"
        },
        {
          "indexed": true,
          "internalType": "address",
          "name": "to",
          "type": "address"
        },
        {
          "indexed": false,
          "internalType": "uint256[]",
          "name": "ids",
          "type": "uint256[]"
        },
        {
          "indexed": false,
          "internalType": "uint256[]",
          "name": "values",
          "type": "uint256[]"
        }
      ],
      "name": "TransferBatch",
      "type": "event"
    },
    {
      "anonymous": false,
      "inputs": [
        {
          "indexed": true,
          "internalType": "address",
          "name": "operator",
          "type": "address"
        },
        {
          "indexed": true,
          "internalType": "address",
          "name": "from",
          "type": "address"
        },
        {
          "indexed": true,
          "internalType": "address",
          "name": "to",
          "type": "address"
        },
        {
          "indexed": false,
          "internalType": "uint256",
          "name": "id",
          "type": "uint256"
        },
        {
          "indexed": false,
          "internalType": "uint256",
          "name": "value",
          "type": "uint256"
        }
      ],
      "name": "TransferSingle",
      "type": "event"
    },
    {
      "anonymous": false,
      "inputs": [
        {
          "indexed": false,
          "internalType": "string",
          "name": "value",
          "type": "string"
        },
        {
          "indexed": true,
          "internalType": "uint256",
          "name": "id",
          "type": "uint256"
        }
      ],
      "name": "URI",
      "type": "event"
    },
    {
      "anonymous": false,
      "inputs": [
        {
          "indexed": true,
          "internalType": "address",
          "name": "depositor",
          "type": "address"
        },
        {
          "indexed": true,
          "internalType": "uint256",
          "name": "tokenId",
          "type": "uint256"
        },
        {
          "indexed": false,
          "internalType": "uint256",
          "name": "amountWithdrawn",
          "type": "uint256"
        },
        {
          "indexed": false,
          "internalType": "uint256",
          "name": "profit",
          "type": "uint256"
        },
        {
          "indexed": false,
          "internalType": "uint256",
          "name": "fee",
          "type": "uint256"
        }
      ],
      "name": "Withdrawal",
      "type": "event"
    },
    {
      "inputs": [],
      "name": "BPS",
      "outputs": [
        {
          "internalType": "uint16",
          "name": "",
          "type": "uint16"
        }
      ],
      "stateMutability": "view",
      "type": "function"
    },
    {
      "inputs": [
        {
          "internalType": "uint256",
          "name": "_amount",
          "type": "uint256"
        },
        {
          "internalType": "uint256",
          "name": "_tokenId",
          "type": "uint256"
        }
      ],
      "name": "add",
      "outputs": [
        {
          "components": [
            {
              "internalType": "uint256",
              "name": "deposit",
              "type": "uint256"
            },
            {
              "components": [
                {
                  "components": [
                    {
                      "internalType": "address",
                      "name": "strategy",
                      "type": "address"
                    },
                    {
                      "internalType": "bool",
                      "name": "isFortiFi",
                      "type": "bool"
                    },
                    {
                      "internalType": "uint16",
                      "name": "bps",
                      "type": "uint16"
                    }
                  ],
                  "internalType": "struct ISAMS.Strategy",
                  "name": "strategy",
                  "type": "tuple"
                },
                {
                  "internalType": "uint256",
                  "name": "receipt",
                  "type": "uint256"
                }
              ],
              "internalType": "struct ISAMS.Position[]",
              "name": "positions",
              "type": "tuple[]"
            }
          ],
          "internalType": "struct ISAMS.TokenInfo",
          "name": "_info",
          "type": "tuple"
        }
      ],
      "stateMutability": "nonpayable",
      "type": "function"
    },
    {
      "inputs": [
        {
          "internalType": "address",
          "name": "account",
          "type": "address"
        },
        {
          "internalType": "uint256",
          "name": "id",
          "type": "uint256"
        }
      ],
      "name": "balanceOf",
      "outputs": [
        {
          "internalType": "uint256",
          "name": "",
          "type": "uint256"
        }
      ],
      "stateMutability": "view",
      "type": "function"
    },
    {
      "inputs": [
        {
          "internalType": "address[]",
          "name": "accounts",
          "type": "address[]"
        },
        {
          "internalType": "uint256[]",
          "name": "ids",
          "type": "uint256[]"
        }
      ],
      "name": "balanceOfBatch",
      "outputs": [
        {
          "internalType": "uint256[]",
          "name": "",
          "type": "uint256[]"
        }
      ],
      "stateMutability": "view",
      "type": "function"
    },
    {
      "inputs": [
        {
          "internalType": "uint256",
          "name": "_amount",
          "type": "uint256"
        }
      ],
      "name": "deposit",
      "outputs": [
        {
          "internalType": "uint256",
          "name": "_tokenId",
          "type": "uint256"
        },
        {
          "components": [
            {
              "internalType": "uint256",
              "name": "deposit",
              "type": "uint256"
            },
            {
              "components": [
                {
                  "components": [
                    {
                      "internalType": "address",
                      "name": "strategy",
                      "type": "address"
                    },
                    {
                      "internalType": "bool",
                      "name": "isFortiFi",
                      "type": "bool"
                    },
                    {
                      "internalType": "uint16",
                      "name": "bps",
                      "type": "uint16"
                    }
                  ],
                  "internalType": "struct ISAMS.Strategy",
                  "name": "strategy",
                  "type": "tuple"
                },
                {
                  "internalType": "uint256",
                  "name": "receipt",
                  "type": "uint256"
                }
              ],
              "internalType": "struct ISAMS.Position[]",
              "name": "positions",
              "type": "tuple[]"
            }
          ],
          "internalType": "struct ISAMS.TokenInfo",
          "name": "_info",
          "type": "tuple"
        }
      ],
      "stateMutability": "nonpayable",
      "type": "function"
    },
    {
      "inputs": [],
      "name": "depositToken",
      "outputs": [
        {
          "internalType": "address",
          "name": "",
          "type": "address"
        }
      ],
      "stateMutability": "view",
      "type": "function"
    },
    {
      "inputs": [
        {
          "internalType": "uint256",
          "name": "id",
          "type": "uint256"
        }
      ],
      "name": "exists",
      "outputs": [
        {
          "internalType": "bool",
          "name": "",
          "type": "bool"
        }
      ],
      "stateMutability": "view",
      "type": "function"
    },
    {
      "inputs": [],
      "name": "feeCalc",
      "outputs": [
        {
          "internalType": "contract IFortiFiFeeCalculator",
          "name": "",
          "type": "address"
        }
      ],
      "stateMutability": "view",
      "type": "function"
    },
    {
      "inputs": [],
      "name": "feeMgr",
      "outputs": [
        {
          "internalType": "contract IFortiFiFeeManager",
          "name": "",
          "type": "address"
        }
      ],
      "stateMutability": "view",
      "type": "function"
    },
    {
      "inputs": [],
      "name": "flipPaused",
      "outputs": [],
      "stateMutability": "nonpayable",
      "type": "function"
    },
    {
      "inputs": [],
      "name": "getStrategies",
      "outputs": [
        {
          "components": [
            {
              "internalType": "address",
              "name": "strategy",
              "type": "address"
            },
            {
              "internalType": "bool",
              "name": "isFortiFi",
              "type": "bool"
            },
            {
              "internalType": "uint16",
              "name": "bps",
              "type": "uint16"
            }
          ],
          "internalType": "struct ISAMS.Strategy[]",
          "name": "",
          "type": "tuple[]"
        }
      ],
      "stateMutability": "view",
      "type": "function"
    },
    {
      "inputs": [
        {
          "internalType": "uint256",
          "name": "_tokenId",
          "type": "uint256"
        }
      ],
      "name": "getTokenInfo",
      "outputs": [
        {
          "components": [
            {
              "internalType": "uint256",
              "name": "deposit",
              "type": "uint256"
            },
            {
              "components": [
                {
                  "components": [
                    {
                      "internalType": "address",
                      "name": "strategy",
                      "type": "address"
                    },
                    {
                      "internalType": "bool",
                      "name": "isFortiFi",
                      "type": "bool"
                    },
                    {
                      "internalType": "uint16",
                      "name": "bps",
                      "type": "uint16"
                    }
                  ],
                  "internalType": "struct ISAMS.Strategy",
                  "name": "strategy",
                  "type": "tuple"
                },
                {
                  "internalType": "uint256",
                  "name": "receipt",
                  "type": "uint256"
                }
              ],
              "internalType": "struct ISAMS.Position[]",
              "name": "positions",
              "type": "tuple[]"
            }
          ],
          "internalType": "struct ISAMS.TokenInfo",
          "name": "",
          "type": "tuple"
        }
      ],
      "stateMutability": "view",
      "type": "function"
    },
    {
      "inputs": [
        {
          "internalType": "address",
          "name": "account",
          "type": "address"
        },
        {
          "internalType": "address",
          "name": "operator",
          "type": "address"
        }
      ],
      "name": "isApprovedForAll",
      "outputs": [
        {
          "internalType": "bool",
          "name": "",
          "type": "bool"
        }
      ],
      "stateMutability": "view",
      "type": "function"
    },
    {
      "inputs": [],
      "name": "minDeposit",
      "outputs": [
        {
          "internalType": "uint256",
          "name": "",
          "type": "uint256"
        }
      ],
      "stateMutability": "view",
      "type": "function"
    },
    {
      "inputs": [],
      "name": "name",
      "outputs": [
        {
          "internalType": "string",
          "name": "",
          "type": "string"
        }
      ],
      "stateMutability": "view",
      "type": "function"
    },
    {
      "inputs": [],
      "name": "nextToken",
      "outputs": [
        {
          "internalType": "uint256",
          "name": "",
          "type": "uint256"
        }
      ],
      "stateMutability": "view",
      "type": "function"
    },
    {
      "inputs": [
        {
          "internalType": "address",
          "name": "",
          "type": "address"
        }
      ],
      "name": "noFeesFor",
      "outputs": [
        {
          "internalType": "bool",
          "name": "",
          "type": "bool"
        }
      ],
      "stateMutability": "view",
      "type": "function"
    },
    {
      "inputs": [],
      "name": "owner",
      "outputs": [
        {
          "internalType": "address",
          "name": "",
          "type": "address"
        }
      ],
      "stateMutability": "view",
      "type": "function"
    },
    {
      "inputs": [],
      "name": "paused",
      "outputs": [
        {
          "internalType": "bool",
          "name": "",
          "type": "bool"
        }
      ],
      "stateMutability": "view",
      "type": "function"
    },
    {
      "inputs": [
        {
          "internalType": "uint256",
          "name": "_tokenId",
          "type": "uint256"
        }
      ],
      "name": "rebalance",
      "outputs": [
        {
          "components": [
            {
              "internalType": "uint256",
              "name": "deposit",
              "type": "uint256"
            },
            {
              "components": [
                {
                  "components": [
                    {
                      "internalType": "address",
                      "name": "strategy",
                      "type": "address"
                    },
                    {
                      "internalType": "bool",
                      "name": "isFortiFi",
                      "type": "bool"
                    },
                    {
                      "internalType": "uint16",
                      "name": "bps",
                      "type": "uint16"
                    }
                  ],
                  "internalType": "struct ISAMS.Strategy",
                  "name": "strategy",
                  "type": "tuple"
                },
                {
                  "internalType": "uint256",
                  "name": "receipt",
                  "type": "uint256"
                }
              ],
              "internalType": "struct ISAMS.Position[]",
              "name": "positions",
              "type": "tuple[]"
            }
          ],
          "internalType": "struct ISAMS.TokenInfo",
          "name": "",
          "type": "tuple"
        }
      ],
      "stateMutability": "nonpayable",
      "type": "function"
    },
    {
      "inputs": [
        {
          "internalType": "address",
          "name": "_token",
          "type": "address"
        },
        {
          "internalType": "uint256",
          "name": "_amount",
          "type": "uint256"
        }
      ],
      "name": "recoverERC20",
      "outputs": [],
      "stateMutability": "nonpayable",
      "type": "function"
    },
    {
      "inputs": [],
      "name": "refreshApprovals",
      "outputs": [],
      "stateMutability": "nonpayable",
      "type": "function"
    },
    {
      "inputs": [],
      "name": "renounceOwnership",
      "outputs": [],
      "stateMutability": "nonpayable",
      "type": "function"
    },
    {
      "inputs": [
        {
          "internalType": "address",
          "name": "from",
          "type": "address"
        },
        {
          "internalType": "address",
          "name": "to",
          "type": "address"
        },
        {
          "internalType": "uint256[]",
          "name": "ids",
          "type": "uint256[]"
        },
        {
          "internalType": "uint256[]",
          "name": "amounts",
          "type": "uint256[]"
        },
        {
          "internalType": "bytes",
          "name": "data",
          "type": "bytes"
        }
      ],
      "name": "safeBatchTransferFrom",
      "outputs": [],
      "stateMutability": "nonpayable",
      "type": "function"
    },
    {
      "inputs": [
        {
          "internalType": "address",
          "name": "from",
          "type": "address"
        },
        {
          "internalType": "address",
          "name": "to",
          "type": "address"
        },
        {
          "internalType": "uint256",
          "name": "id",
          "type": "uint256"
        },
        {
          "internalType": "uint256",
          "name": "amount",
          "type": "uint256"
        },
        {
          "internalType": "bytes",
          "name": "data",
          "type": "bytes"
        }
      ],
      "name": "safeTransferFrom",
      "outputs": [],
      "stateMutability": "nonpayable",
      "type": "function"
    },
    {
      "inputs": [
        {
          "internalType": "address",
          "name": "operator",
          "type": "address"
        },
        {
          "internalType": "bool",
          "name": "approved",
          "type": "bool"
        }
      ],
      "name": "setApprovalForAll",
      "outputs": [],
      "stateMutability": "nonpayable",
      "type": "function"
    },
    {
      "inputs": [
        {
          "internalType": "address",
          "name": "_contract",
          "type": "address"
        }
      ],
      "name": "setFeeCalculator",
      "outputs": [],
      "stateMutability": "nonpayable",
      "type": "function"
    },
    {
      "inputs": [
        {
          "internalType": "address",
          "name": "_contract",
          "type": "address"
        }
      ],
      "name": "setFeeManager",
      "outputs": [],
      "stateMutability": "nonpayable",
      "type": "function"
    },
    {
      "inputs": [
        {
          "internalType": "uint256",
          "name": "_amount",
          "type": "uint256"
        }
      ],
      "name": "setMinDeposit",
      "outputs": [],
      "stateMutability": "nonpayable",
      "type": "function"
    },
    {
      "inputs": [
        {
          "internalType": "address",
          "name": "_contract",
          "type": "address"
        },
        {
          "internalType": "bool",
          "name": "_fees",
          "type": "bool"
        }
      ],
      "name": "setNoFeesFor",
      "outputs": [],
      "stateMutability": "nonpayable",
      "type": "function"
    },
    {
      "inputs": [
        {
          "components": [
            {
              "internalType": "address",
              "name": "strategy",
              "type": "address"
            },
            {
              "internalType": "bool",
              "name": "isFortiFi",
              "type": "bool"
            },
            {
              "internalType": "uint16",
              "name": "bps",
              "type": "uint16"
            }
          ],
          "internalType": "struct ISAMS.Strategy[]",
          "name": "_strategies",
          "type": "tuple[]"
        }
      ],
      "name": "setStrategies",
      "outputs": [],
      "stateMutability": "nonpayable",
      "type": "function"
    },
    {
      "inputs": [
        {
          "internalType": "uint256",
          "name": "",
          "type": "uint256"
        }
      ],
      "name": "strategies",
      "outputs": [
        {
          "internalType": "address",
          "name": "strategy",
          "type": "address"
        },
        {
          "internalType": "bool",
          "name": "isFortiFi",
          "type": "bool"
        },
        {
          "internalType": "uint16",
          "name": "bps",
          "type": "uint16"
        }
      ],
      "stateMutability": "view",
      "type": "function"
    },
    {
      "inputs": [
        {
          "internalType": "bytes4",
          "name": "interfaceId",
          "type": "bytes4"
        }
      ],
      "name": "supportsInterface",
      "outputs": [
        {
          "internalType": "bool",
          "name": "",
          "type": "bool"
        }
      ],
      "stateMutability": "view",
      "type": "function"
    },
    {
      "inputs": [],
      "name": "symbol",
      "outputs": [
        {
          "internalType": "string",
          "name": "",
          "type": "string"
        }
      ],
      "stateMutability": "view",
      "type": "function"
    },
    {
      "inputs": [
        {
          "internalType": "uint256",
          "name": "id",
          "type": "uint256"
        }
      ],
      "name": "totalSupply",
      "outputs": [
        {
          "internalType": "uint256",
          "name": "",
          "type": "uint256"
        }
      ],
      "stateMutability": "view",
      "type": "function"
    },
    {
      "inputs": [
        {
          "internalType": "address",
          "name": "newOwner",
          "type": "address"
        }
      ],
      "name": "transferOwnership",
      "outputs": [],
      "stateMutability": "nonpayable",
      "type": "function"
    },
    {
      "inputs": [
        {
          "internalType": "uint256",
          "name": "",
          "type": "uint256"
        }
      ],
      "name": "uri",
      "outputs": [
        {
          "internalType": "string",
          "name": "",
          "type": "string"
        }
      ],
      "stateMutability": "view",
      "type": "function"
    },
    {
      "inputs": [
        {
          "internalType": "uint256",
          "name": "_tokenId",
          "type": "uint256"
        }
      ],
      "name": "withdraw",
      "outputs": [],
      "stateMutability": "nonpayable",
      "type": "function"
    },
    {
      "inputs": [],
      "name": "wrappedNative",
      "outputs": [
        {
          "internalType": "address",
          "name": "",
          "type": "address"
        }
      ],
      "stateMutability": "view",
      "type": "function"
    },
    {
      "stateMutability": "payable",
      "type": "receive"
    }
  ],
  "transactionHash": "0xa57fd837e9eb01cfc426c7e5d63b1dca973cb16c0798fbaac187faaafbe246d5",
  "args": [
    "Test SAMS - USDC",
    "tsUSDC",
    "https://ipfs.io/ipfs/bafybeign4hbi6desilmocupj3hlxj3t3eiodr2sro5bgw7ld7vcznttuja/SAMS_USDC.png",
    "0xB31f66AA3C1e785363F0875A1B74E27b85FD66c7",
    "0xB97EF9Ef8734C71904D8002F8b6Bc66Dd9c48a6E",
    "0xf0F55E8C9E23c627b253876F3B4Bf1Ef3eBA4Db0",
    "0x92581e042d0A5029430562C0959aEbdFeCBfFd36",
    10000,
    [
      {
        "strategy": "0x14517a26005f3F92AEa60b6619aC0e10E3A718d1",
        "isFortiFi": true,
        "bps": 2000
      },
      {
        "strategy": "0xFB692D03BBEA21D8665035779dd3082c2B1622d0",
        "isFortiFi": false,
        "bps": 4000
      },
      {
        "strategy": "0x45C53FB370CA5066D93FE64913e24B886322bE3B",
        "isFortiFi": true,
        "bps": 4000
      }
    ]
  ],
  "numDeployments": 11,
  "solcInputHash": "80d871474ab22031d5d53294046de2a3",
  "bytecode": "0x60c060405260016009819055600a805460ff191690911790553480156200002557600080fd5b50604051620055463803806200554683398101604081905262000048916200095f565b8662000054816200029e565b506200006033620002b0565b60016005556001600160a01b038616620000c15760405162461bcd60e51b815260206004820152601d60248201527f466f72746946693a20496e76616c6964206e617469766520746f6b656e00000060448201526064015b60405180910390fd5b6001600160a01b038516620001195760405162461bcd60e51b815260206004820152601e60248201527f466f72746946693a20496e76616c6964206465706f73697420746f6b656e00006044820152606401620000b8565b6001600160a01b038416620001715760405162461bcd60e51b815260206004820152601b60248201527f466f72746946693a20496e76616c6964206665654d616e6167657200000000006044820152606401620000b8565b6001600160a01b038316620001c95760405162461bcd60e51b815260206004820152601e60248201527f466f72746946693a20496e76616c69642066656543616c63756c61746f7200006044820152606401620000b8565b6127108210156200021d5760405162461bcd60e51b815260206004820152601c60248201527f466f72746946693a20496e76616c6964206d696e206465706f736974000000006044820152606401620000b8565b60066200022b8a8262000afb565b5060076200023a898262000afb565b5060088290556001600160a01b0386811660a052858116608052600a8054610100600160a81b03191661010086841602179055600b80546001600160a01b0319169186169190911790556200028f8162000302565b50505050505050505062000c5f565b6002620002ac828262000afb565b5050565b600480546001600160a01b038381166001600160a01b0319831681179093556040519116919082907f8be0079c531659141344cd1fd0a4f28419497f9722a3daafe3b4186f6b6457e090600090a35050565b6004546001600160a01b031633146200035e5760405162461bcd60e51b815260206004820181905260248201527f4f776e61626c653a2063616c6c6572206973206e6f7420746865206f776e65726044820152606401620000b8565b805160ff8116620003b25760405162461bcd60e51b815260206004820152601660248201527f466f72746946693a204e6f2073747261746567696573000000000000000000006044820152606401620000b8565b6000805b8260ff168160ff1610156200040d57838160ff1681518110620003dd57620003dd62000bc7565b60200260200101516040015182620003f6919062000bf3565b915080620004048162000c18565b915050620003b6565b5061ffff811661271014620004655760405162461bcd60e51b815260206004820152601a60248201527f466f72746946693a20496e76616c696420746f74616c206270730000000000006044820152606401620000b8565b62000473600c60006200070b565b60005b8260ff168160ff161015620005a85760006001600160a01b0316848260ff1681518110620004a857620004a862000bc7565b6020026020010151600001516001600160a01b0316036200050c5760405162461bcd60e51b815260206004820152601e60248201527f466f72746946693a20496e76616c6964207374726174206164647265737300006044820152606401620000b8565b600c848260ff168151811062000526576200052662000bc7565b60209081029190910181015182546001810184556000938452928290208151930180549282015160409092015161ffff16600160a81b0261ffff60a81b19921515600160a01b026001600160a81b03199094166001600160a01b03909516949094179290921716919091179055806200059f8162000c18565b91505062000476565b50620005b3620005b8565b505050565b608051600c5460005b8160ff168160ff1610156200068f57826001600160a01b031663095ea7b3600c8360ff1681548110620005f857620005f862000bc7565b60009182526020909120015460405160e083901b6001600160e01b03191681526001600160a01b03909116600482015260001960248201526044016020604051808303816000875af115801562000653573d6000803e3d6000fd5b505050506040513d601f19601f8201168201806040525081019062000679919062000c3a565b5080620006868162000c18565b915050620005c1565b50600b5460405163095ea7b360e01b81526001600160a01b03918216600482015260001960248201529083169063095ea7b3906044016020604051808303816000875af1158015620006e5573d6000803e3d6000fd5b505050506040513d601f19601f82011682018060405250810190620005b3919062000c3a565b50805460008255906000526020600020908101906200072b91906200072e565b50565b5b808211156200074f5780546001600160b81b03191681556001016200072f565b5090565b634e487b7160e01b600052604160045260246000fd5b604051606081016001600160401b03811182821017156200078e576200078e62000753565b60405290565b604051601f8201601f191681016001600160401b0381118282101715620007bf57620007bf62000753565b604052919050565b600082601f830112620007d957600080fd5b81516001600160401b03811115620007f557620007f562000753565b60206200080b601f8301601f1916820162000794565b82815285828487010111156200082057600080fd5b60005b838110156200084057858101830151828201840152820162000823565b506000928101909101919091529392505050565b80516001600160a01b03811681146200086c57600080fd5b919050565b805180151581146200086c57600080fd5b600082601f8301126200089457600080fd5b815160206001600160401b03821115620008b257620008b262000753565b620008c2818360051b0162000794565b82815260609283028501820192828201919087851115620008e257600080fd5b8387015b85811015620009525781818a031215620009005760008081fd5b6200090a62000769565b620009158262000854565b81526200092486830162000871565b8682015260408083015161ffff81168114620009405760008081fd5b908201528452928401928101620008e6565b5090979650505050505050565b60008060008060008060008060006101208a8c0312156200097f57600080fd5b89516001600160401b03808211156200099757600080fd5b620009a58d838e01620007c7565b9a5060208c0151915080821115620009bc57600080fd5b620009ca8d838e01620007c7565b995060408c0151915080821115620009e157600080fd5b620009ef8d838e01620007c7565b9850620009ff60608d0162000854565b975062000a0f60808d0162000854565b965062000a1f60a08d0162000854565b955062000a2f60c08d0162000854565b945060e08c015193506101008c015191508082111562000a4e57600080fd5b5062000a5d8c828d0162000882565b9150509295985092959850929598565b600181811c9082168062000a8257607f821691505b60208210810362000aa357634e487b7160e01b600052602260045260246000fd5b50919050565b601f821115620005b357600081815260208120601f850160051c8101602086101562000ad25750805b601f850160051c820191505b8181101562000af35782815560010162000ade565b505050505050565b81516001600160401b0381111562000b175762000b1762000753565b62000b2f8162000b28845462000a6d565b8462000aa9565b602080601f83116001811462000b67576000841562000b4e5750858301515b600019600386901b1c1916600185901b17855562000af3565b600085815260208120601f198616915b8281101562000b985788860151825594840194600190910190840162000b77565b508582101562000bb75787850151600019600388901b60f8161c191681555b5050505050600190811b01905550565b634e487b7160e01b600052603260045260246000fd5b634e487b7160e01b600052601160045260246000fd5b61ffff81811683821601908082111562000c115762000c1162000bdd565b5092915050565b600060ff821660ff810362000c315762000c3162000bdd565b60010192915050565b60006020828403121562000c4d57600080fd5b62000c588262000871565b9392505050565b60805160a05161487b62000ccb600039600081816107c20152818161335201526133e90152600081816106dc01528181610d4e01528181610dc7015281816110b70152818161159501528181611c23015281816128ee015281816131cd0152613279015261487b6000f3fe6080604052600436106102a35760003560e01c80638c4cc0df1161016e578063bd85b039116100cb578063eb6d3a111161007f578063f2fde38b11610064578063f2fde38b14610804578063f499301814610824578063f7c854691461084457600080fd5b8063eb6d3a11146107b0578063f242432a146107e457600080fd5b8063d2cee5af116100b0578063d2cee5af146106fe578063d574ea3d1461071e578063e985e9c51461076757600080fd5b8063bd85b0391461069d578063c89039c5146106ca57600080fd5b80639499ac5411610122578063a22cb46511610107578063a22cb4651461062d578063b49a60bb1461064d578063b6b55f251461066f57600080fd5b80639499ac541461060257806395d89b411461061857600080fd5b80638c7a63ae116101535780638c7a63ae146105a45780638da5cb5b146105c45780638fcc9cfb146105e257600080fd5b80638c4cc0df146105475780638c66d04f1461058457600080fd5b806341b3d1851161021c5780635c975abb116101d0578063715018a6116101b5578063715018a6146104e5578063771602f7146104fa5780638980f11f1461052757600080fd5b80635c975abb1461049b578063703b0821146104b557600080fd5b8063472d35b911610201578063472d35b91461041f5780634e1273f41461043f5780634f558e791461046c57600080fd5b806341b3d185146103f457806343d57a641461040a57600080fd5b80630e89341c116102735780632e1a7d4d116102585780632e1a7d4d1461039f5780632eb2c2d6146103bf578063333171bb146103df57600080fd5b80630e89341c14610356578063249d39e91461037657600080fd5b8062fdd58e146102af57806301ffc9a7146102e257806306fdde03146103125780630a07daab1461033457600080fd5b366102aa57005b600080fd5b3480156102bb57600080fd5b506102cf6102ca366004613e04565b610864565b6040519081526020015b60405180910390f35b3480156102ee57600080fd5b506103026102fd366004613e44565b610910565b60405190151581526020016102d9565b34801561031e57600080fd5b506103276109ab565b6040516102d99190613eae565b34801561034057600080fd5b5061035461034f366004613ecf565b610a39565b005b34801561036257600080fd5b50610327610371366004613f06565b610abe565b34801561038257600080fd5b5061038c61271081565b60405161ffff90911681526020016102d9565b3480156103ab57600080fd5b506103546103ba366004613f06565b610b52565b3480156103cb57600080fd5b506103546103da366004614091565b610fa2565b3480156103eb57600080fd5b50610354611044565b34801561040057600080fd5b506102cf60085481565b34801561041657600080fd5b506103546110b2565b34801561042b57600080fd5b5061035461043a36600461413b565b611236565b34801561044b57600080fd5b5061045f61045a366004614156565b6112bf565b6040516102d9919061425c565b34801561047857600080fd5b50610302610487366004613f06565b600090815260036020526040902054151590565b3480156104a757600080fd5b50600a546103029060ff1681565b3480156104c157600080fd5b506103026104d036600461413b565b600e6020526000908152604090205460ff1681565b3480156104f157600080fd5b506103546113fd565b34801561050657600080fd5b5061051a61051536600461426f565b611463565b6040516102d9919061431c565b34801561053357600080fd5b50610354610542366004613e04565b6117de565b34801561055357600080fd5b50600a5461056c9061010090046001600160a01b031681565b6040516001600160a01b0390911681526020016102d9565b34801561059057600080fd5b5061035461059f36600461413b565b61186b565b3480156105b057600080fd5b5061051a6105bf366004613f06565b611904565b3480156105d057600080fd5b506004546001600160a01b031661056c565b3480156105ee57600080fd5b506103546105fd366004613f06565b6119e5565b34801561060e57600080fd5b506102cf60095481565b34801561062457600080fd5b50610327611a44565b34801561063957600080fd5b50610354610648366004613ecf565b611a51565b34801561065957600080fd5b50610662611a60565b6040516102d9919061432f565b34801561067b57600080fd5b5061068f61068a366004613f06565b611ae7565b6040516102d99291906143a0565b3480156106a957600080fd5b506102cf6106b8366004613f06565b60009081526003602052604090205490565b3480156106d657600080fd5b5061056c7f000000000000000000000000000000000000000000000000000000000000000081565b34801561070a57600080fd5b506103546107193660046143c1565b611e1e565b34801561072a57600080fd5b5061073e610739366004613f06565b6120be565b604080516001600160a01b039094168452911515602084015261ffff16908201526060016102d9565b34801561077357600080fd5b506103026107823660046144ad565b6001600160a01b03918216600090815260016020908152604080832093909416825291909152205460ff1690565b3480156107bc57600080fd5b5061056c7f000000000000000000000000000000000000000000000000000000000000000081565b3480156107f057600080fd5b506103546107ff3660046144e0565b6120ff565b34801561081057600080fd5b5061035461081f36600461413b565b61219a565b34801561083057600080fd5b5061051a61083f366004613f06565b61227c565b34801561085057600080fd5b50600b5461056c906001600160a01b031681565b60006001600160a01b0383166108e75760405162461bcd60e51b815260206004820152602b60248201527f455243313135353a2062616c616e636520717565727920666f7220746865207a60448201527f65726f206164647265737300000000000000000000000000000000000000000060648201526084015b60405180910390fd5b506000818152602081815260408083206001600160a01b03861684529091529020545b92915050565b60006001600160e01b031982167fd9b67a2600000000000000000000000000000000000000000000000000000000148061097357506001600160e01b031982167f0e89341c00000000000000000000000000000000000000000000000000000000145b8061090a57507f01ffc9a7000000000000000000000000000000000000000000000000000000006001600160e01b031983161461090a565b600680546109b890614545565b80601f01602080910402602001604051908101604052809291908181526020018280546109e490614545565b8015610a315780601f10610a0657610100808354040283529160200191610a31565b820191906000526020600020905b815481529060010190602001808311610a1457829003601f168201915b505050505081565b6004546001600160a01b03163314610a935760405162461bcd60e51b815260206004820181905260248201527f4f776e61626c653a2063616c6c6572206973206e6f7420746865206f776e657260448201526064016108de565b6001600160a01b03919091166000908152600e60205260409020805460ff1916911515919091179055565b606060028054610acd90614545565b80601f0160208091040260200160405190810160405280929190818152602001828054610af990614545565b8015610b465780601f10610b1b57610100808354040283529160200191610b46565b820191906000526020600020905b815481529060010190602001808311610b2957829003601f168201915b50505050509050919050565b600260055403610ba45760405162461bcd60e51b815260206004820152601f60248201527f5265656e7472616e637947756172643a207265656e7472616e742063616c6c0060448201526064016108de565b6002600555600a5460ff1615610bfc5760405162461bcd60e51b815260206004820152601860248201527f466f72746946693a20436f6e747261637420706175736564000000000000000060448201526064016108de565b6000610c083383610864565b11610c555760405162461bcd60e51b815260206004820152601f60248201527f466f72746946693a204e6f7420746865206f776e6572206f6620746f6b656e0060448201526064016108de565b610c61338260016124bc565b600080610c6d83612668565b336000908152600e60205260408120549294509092509060ff16610dbd57600a546040517fefb36c14000000000000000000000000000000000000000000000000000000008152336004820152602481018490526101009091046001600160a01b03169063efb36c1490604401602060405180830381865afa158015610cf7573d6000803e3d6000fd5b505050506040513d601f19601f82011682018060405250810190610d1b919061457f565b600b546040517fa033fcd40000000000000000000000000000000000000000000000000000000081526001600160a01b037f0000000000000000000000000000000000000000000000000000000000000000811660048301526024820184905292935091169063a033fcd490604401600060405180830381600087803b158015610da457600080fd5b505af1158015610db8573d6000803e3d6000fd5b505050505b6001600160a01b037f00000000000000000000000000000000000000000000000000000000000000001663a9059cbb33610df784876145ae565b6040516001600160e01b031960e085901b1681526001600160a01b03909216600483015260248201526044016020604051808303816000875af1158015610e42573d6000803e3d6000fd5b505050506040513d601f19601f82011682018060405250810190610e6691906145c1565b610eb25760405162461bcd60e51b815260206004820181905260248201527f466f72746946693a204661696c656420746f2073656e642070726f636565647360448201526064016108de565b4715610f5257604051600090339047908381818185875af1925050503d8060008114610efa576040519150601f19603f3d011682016040523d82523d6000602084013e610eff565b606091505b5050905080610f505760405162461bcd60e51b815260206004820181905260248201527f466f72746946693a204661696c656420746f20726566756e64206e617469766560448201526064016108de565b505b6040805184815260208101849052908101829052849033907f887e73c01568cecc3fe477a39c098f6599306a7592db9c8941dfc71ff9046d069060600160405180910390a3505060016005555050565b6001600160a01b038516331480610fbe5750610fbe8533610782565b6110305760405162461bcd60e51b815260206004820152603260248201527f455243313135353a207472616e736665722063616c6c6572206973206e6f742060448201527f6f776e6572206e6f7220617070726f766564000000000000000000000000000060648201526084016108de565b61103d858585858561298c565b5050505050565b6004546001600160a01b0316331461109e5760405162461bcd60e51b815260206004820181905260248201527f4f776e61626c653a2063616c6c6572206973206e6f7420746865206f776e657260448201526064016108de565b600a805460ff19811660ff90911615179055565b600c547f00000000000000000000000000000000000000000000000000000000000000009060005b8160ff168160ff16101561119e57826001600160a01b031663095ea7b3600c8360ff168154811061110d5761110d6145de565b60009182526020909120015460405160e083901b6001600160e01b03191681526001600160a01b03909116600482015260001960248201526044016020604051808303816000875af1158015611167573d6000803e3d6000fd5b505050506040513d601f19601f8201168201806040525081019061118b91906145c1565b5080611196816145f4565b9150506110da565b50600b546040517f095ea7b30000000000000000000000000000000000000000000000000000000081526001600160a01b03918216600482015260001960248201529083169063095ea7b3906044015b6020604051808303816000875af115801561120d573d6000803e3d6000fd5b505050506040513d601f19601f8201168201806040525081019061123191906145c1565b505050565b6004546001600160a01b031633146112905760405162461bcd60e51b815260206004820181905260248201527f4f776e61626c653a2063616c6c6572206973206e6f7420746865206f776e657260448201526064016108de565b600b805473ffffffffffffffffffffffffffffffffffffffff19166001600160a01b0392909216919091179055565b606081518351146113385760405162461bcd60e51b815260206004820152602960248201527f455243313135353a206163636f756e747320616e6420696473206c656e67746860448201527f206d69736d61746368000000000000000000000000000000000000000000000060648201526084016108de565b6000835167ffffffffffffffff81111561135457611354613f1f565b60405190808252806020026020018201604052801561137d578160200160208202803683370190505b50905060005b84518110156113f5576113c88582815181106113a1576113a16145de565b60200260200101518583815181106113bb576113bb6145de565b6020026020010151610864565b8282815181106113da576113da6145de565b60209081029190910101526113ee81614613565b9050611383565b509392505050565b6004546001600160a01b031633146114575760405162461bcd60e51b815260206004820181905260248201527f4f776e61626c653a2063616c6c6572206973206e6f7420746865206f776e657260448201526064016108de565b6114616000612c0d565b565b6040805180820190915260008152606060208201526002600554036114ca5760405162461bcd60e51b815260206004820152601f60248201527f5265656e7472616e637947756172643a207265656e7472616e742063616c6c0060448201526064016108de565b6002600555600a5460ff16156115225760405162461bcd60e51b815260206004820152601860248201527f466f72746946693a20436f6e747261637420706175736564000000000000000060448201526064016108de565b60085483116115735760405162461bcd60e51b815260206004820152601f60248201527f466f72746946693a20496e76616c6964206465706f73697420616d6f756e740060448201526064016108de565b6040516323b872dd60e01b8152336004820152306024820152604481018490527f0000000000000000000000000000000000000000000000000000000000000000906001600160a01b038216906323b872dd906064016020604051808303816000875af11580156115e8573d6000803e3d6000fd5b505050506040513d601f19601f8201168201806040525081019061160c91906145c1565b6116585760405162461bcd60e51b815260206004820152601f60248201527f466f72746946693a204661696c656420746f2078666572206465706f7369740060448201526064016108de565b60006116643385610864565b116116b15760405162461bcd60e51b815260206004820152601f60248201527f466f72746946693a204e6f7420746865206f776e6572206f6620746f6b656e0060448201526064016108de565b6116bd84846001612c6c565b600d60008481526020019081526020016000206040518060400160405290816000820154815260200160018201805480602002602001604051908101604052809291908181526020016000905b8282101561177b5760008481526020908190206040805160a0810182526002860290920180546001600160a01b038116928401928352600160a01b810460ff1615156060850152600160a81b900461ffff16608084015290825260019081015482840152908352909201910161170a565b5050505081525050915061178e826131b5565b82336001600160a01b03167f75e72f79742d7acf4da04882463cf16c19e7791e3a08e5308d920498e713841886856040516117ca9291906143a0565b60405180910390a350600160055592915050565b6004546001600160a01b031633146118385760405162461bcd60e51b815260206004820181905260248201527f4f776e61626c653a2063616c6c6572206973206e6f7420746865206f776e657260448201526064016108de565b60405163a9059cbb60e01b8152336004820152602481018290526001600160a01b0383169063a9059cbb906044016111ee565b6004546001600160a01b031633146118c55760405162461bcd60e51b815260206004820181905260248201527f4f776e61626c653a2063616c6c6572206973206e6f7420746865206f776e657260448201526064016108de565b600a80546001600160a01b03909216610100027fffffffffffffffffffffff0000000000000000000000000000000000000000ff909216919091179055565b604080518082019091526000815260606020820152600d60008381526020019081526020016000206040518060400160405290816000820154815260200160018201805480602002602001604051908101604052809291908181526020016000905b828210156119d75760008481526020908190206040805160a0810182526002860290920180546001600160a01b038116928401928352600160a01b810460ff1615156060850152600160a81b900461ffff166080840152908252600190810154828401529083529092019101611966565b505050915250909392505050565b6004546001600160a01b03163314611a3f5760405162461bcd60e51b815260206004820181905260248201527f4f776e61626c653a2063616c6c6572206973206e6f7420746865206f776e657260448201526064016108de565b600855565b600780546109b890614545565b611a5c33838361354e565b5050565b6060600c805480602002602001604051908101604052809291908181526020016000905b82821015611ade57600084815260209081902060408051606081018252918501546001600160a01b0381168352600160a01b810460ff16151583850152600160a81b900461ffff1690820152825260019092019101611a84565b50505050905090565b6000611b06604051806040016040528060008152602001606081525090565b600260055403611b585760405162461bcd60e51b815260206004820152601f60248201527f5265656e7472616e637947756172643a207265656e7472616e742063616c6c0060448201526064016108de565b6002600555600a5460ff1615611bb05760405162461bcd60e51b815260206004820152601860248201527f466f72746946693a20436f6e747261637420706175736564000000000000000060448201526064016108de565b6008548311611c015760405162461bcd60e51b815260206004820152601f60248201527f466f72746946693a20496e76616c6964206465706f73697420616d6f756e740060448201526064016108de565b6040516323b872dd60e01b8152336004820152306024820152604481018490527f0000000000000000000000000000000000000000000000000000000000000000906001600160a01b038216906323b872dd906064016020604051808303816000875af1158015611c76573d6000803e3d6000fd5b505050506040513d601f19601f82011682018060405250810190611c9a91906145c1565b611ce65760405162461bcd60e51b815260206004820152601f60248201527f466f72746946693a204661696c656420746f2078666572206465706f7369740060448201526064016108de565b611cee613642565b9250611cfc84846000612c6c565b600d60008481526020019081526020016000206040518060400160405290816000820154815260200160018201805480602002602001604051908101604052809291908181526020016000905b82821015611dba5760008481526020908190206040805160a0810182526002860290920180546001600160a01b038116928401928352600160a01b810460ff1615156060850152600160a81b900461ffff166080840152908252600190810154828401529083529092019101611d49565b50505050815250509150611dcd826131b5565b82336001600160a01b03167f8f4139b21e83dfa6074c9d7b6cbf820a694420c33868b26c75884a94ad01f4518685604051611e099291906143a0565b60405180910390a35060016005559092909150565b6004546001600160a01b03163314611e785760405162461bcd60e51b815260206004820181905260248201527f4f776e61626c653a2063616c6c6572206973206e6f7420746865206f776e657260448201526064016108de565b805160ff8116611eca5760405162461bcd60e51b815260206004820152601660248201527f466f72746946693a204e6f20737472617465676965730000000000000000000060448201526064016108de565b6000805b8260ff168160ff161015611f1c57838160ff1681518110611ef157611ef16145de565b60200260200101516040015182611f08919061462c565b915080611f14816145f4565b915050611ece565b5061ffff811661271014611f725760405162461bcd60e51b815260206004820152601a60248201527f466f72746946693a20496e76616c696420746f74616c2062707300000000000060448201526064016108de565b611f7e600c6000613d40565b60005b8260ff168160ff1610156120b55760006001600160a01b0316848260ff1681518110611faf57611faf6145de565b6020026020010151600001516001600160a01b0316036120115760405162461bcd60e51b815260206004820152601e60248201527f466f72746946693a20496e76616c69642073747261742061646472657373000060448201526064016108de565b600c848260ff1681518110612028576120286145de565b60209081029190910181015182546001810184556000938452928290208151930180549282015160409092015161ffff16600160a81b0261ffff60a81b19921515600160a01b0274ffffffffffffffffffffffffffffffffffffffffff199094166001600160a01b03909516949094179290921716919091179055806120ad816145f4565b915050611f81565b506112316110b2565b600c81815481106120ce57600080fd5b6000918252602090912001546001600160a01b0381169150600160a01b810460ff1690600160a81b900461ffff1683565b6001600160a01b03851633148061211b575061211b8533610782565b61218d5760405162461bcd60e51b815260206004820152602960248201527f455243313135353a2063616c6c6572206973206e6f74206f776e6572206e6f7260448201527f20617070726f766564000000000000000000000000000000000000000000000060648201526084016108de565b61103d8585858585613682565b6004546001600160a01b031633146121f45760405162461bcd60e51b815260206004820181905260248201527f4f776e61626c653a2063616c6c6572206973206e6f7420746865206f776e657260448201526064016108de565b6001600160a01b0381166122705760405162461bcd60e51b815260206004820152602660248201527f4f776e61626c653a206e6577206f776e657220697320746865207a65726f206160448201527f646472657373000000000000000000000000000000000000000000000000000060648201526084016108de565b61227981612c0d565b50565b6040805180820190915260008152606060208201526002600554036122e35760405162461bcd60e51b815260206004820152601f60248201527f5265656e7472616e637947756172643a207265656e7472616e742063616c6c0060448201526064016108de565b600260055560006122f43384610864565b1180156123045750600a5460ff16155b8061231957506004546001600160a01b031633145b6123655760405162461bcd60e51b815260206004820152601f60248201527f466f72746946693a20496e76616c6964206d6573736167652073656e6465720060448201526064016108de565b6000828152600d60205260408120549061237e84612668565b506000858152600d602052604081208181559192506123a06001830182613d5e565b50506123ae81856000612c6c565b6000848152600d60209081526040808320858155815180830183528681526001820180548451818702810187019095528085529194929385840193909290879084015b828210156124625760008481526020908190206040805160a0810182526002860290920180546001600160a01b038116928401928352600160a01b810460ff1615156060850152600160a81b900461ffff1660808401529082526001908101548284015290835290920191016123f1565b50505050815250509050612475816131b5565b847f86826426a5e2fca1cbfbb1910b17dd940a00ec5386b31cdf12cbffca9534000583836040516124a79291906143a0565b60405180910390a26001600555949350505050565b6001600160a01b0383166125385760405162461bcd60e51b815260206004820152602360248201527f455243313135353a206275726e2066726f6d20746865207a65726f206164647260448201527f657373000000000000000000000000000000000000000000000000000000000060648201526084016108de565b33612567818560006125498761382f565b6125528761382f565b6040518060200160405280600081525061387a565b6000838152602081815260408083206001600160a01b0388168452909152902054828110156125fd5760405162461bcd60e51b8152602060048201526024808201527f455243313135353a206275726e20616d6f756e7420657863656564732062616c60448201527f616e63650000000000000000000000000000000000000000000000000000000060648201526084016108de565b6000848152602081815260408083206001600160a01b03898116808652918452828520888703905582518981529384018890529092908616917fc3d58168c5ae7397731d063d5bbf3d657854427343f4c083240f7aacaa2d0f62910160405180910390a45050505050565b6000806000600d60008581526020019081526020016000206040518060400160405290816000820154815260200160018201805480602002602001604051908101604052809291908181526020016000905b8282101561272b5760008481526020908190206040805160a0810182526002860290920180546001600160a01b038116928401928352600160a01b810460ff1615156060850152600160a81b900461ffff1660808401529082526001908101548284015290835290920191016126ba565b5050509152505060208101515190915060005b8160ff168160ff1610156128d857600083602001518260ff1681518110612767576127676145de565b60200260200101516000015160000151905083602001518260ff1681518110612792576127926145de565b602002602001015160000151602001511561284057806001600160a01b031663ba251fba85602001518460ff16815181106127cf576127cf6145de565b60209081029190910181015101516040516001600160e01b031960e084901b1681526004810191909152336024820152604481018a9052606401600060405180830381600087803b15801561282357600080fd5b505af1158015612837573d6000803e3d6000fd5b505050506128c5565b806001600160a01b0316632e1a7d4d85602001518460ff1681518110612868576128686145de565b6020026020010151602001516040518263ffffffff1660e01b815260040161289291815260200190565b600060405180830381600087803b1580156128ac57600080fd5b505af11580156128c0573d6000803e3d6000fd5b505050505b50806128d0816145f4565b91505061273e565b506040516370a0823160e01b81523060048201527f00000000000000000000000000000000000000000000000000000000000000006001600160a01b0316906370a0823190602401602060405180830381865afa15801561293d573d6000803e3d6000fd5b505050506040513d601f19601f82011682018060405250810190612961919061457f565b825190945084111561298057815161297990856145ae565b9250612985565b600092505b5050915091565b8151835114612a035760405162461bcd60e51b815260206004820152602860248201527f455243313135353a2069647320616e6420616d6f756e7473206c656e6774682060448201527f6d69736d6174636800000000000000000000000000000000000000000000000060648201526084016108de565b6001600160a01b038416612a675760405162461bcd60e51b815260206004820152602560248201527f455243313135353a207472616e7366657220746f20746865207a65726f206164604482015264647265737360d81b60648201526084016108de565b33612a7681878787878761387a565b60005b8451811015612b9f576000858281518110612a9657612a966145de565b602002602001015190506000858381518110612ab457612ab46145de565b602090810291909101810151600084815280835260408082206001600160a01b038e168352909352919091205490915081811015612b475760405162461bcd60e51b815260206004820152602a60248201527f455243313135353a20696e73756666696369656e742062616c616e636520666f60448201526939103a3930b739b332b960b11b60648201526084016108de565b6000838152602081815260408083206001600160a01b038e8116855292528083208585039055908b16825281208054849290612b8490849061464e565b9250508190555050505080612b9890614613565b9050612a79565b50846001600160a01b0316866001600160a01b0316826001600160a01b03167f4a39dc06d4c0dbc64b70af90fd698a233a518aa5d07e595d983b8c0526c8f7fb8787604051612bef929190614661565b60405180910390a4612c05818787878787613986565b505050505050565b600480546001600160a01b0383811673ffffffffffffffffffffffffffffffffffffffff19831681179093556040519116919082907f8be0079c531659141344cd1fd0a4f28419497f9722a3daafe3b4186f6b6457e090600090a35050565b6000828152600d60205260408120600c5490918591905b8160ff168160ff161015613193576000600c8260ff1681548110612ca957612ca96145de565b60009182526020918290206040805160608101825291909201546001600160a01b038116825260ff600160a01b82041615159382019390935261ffff600160a81b909304929092169082015290508515612d8257846001018260ff1681548110612d1557612d156145de565b600091825260209091206002909102015481516001600160a01b03908116911614612d825760405162461bcd60e51b815260206004820152601d60248201527f466f72746946693a2043616e27742061646420746f207265636569707400000060448201526064016108de565b80516040516370a0823160e01b81523060048201526000906001600160a01b038316906370a0823190602401602060405180830381865afa158015612dcb573d6000803e3d6000fd5b505050506040513d601f19601f82011682018060405250810190612def919061457f565b9050612dfc60018661468f565b60ff168460ff1603612eac57826020015115612e7f576040516329c9aa1960e01b815260048101879052336024820152604481018a90526001600160a01b038316906329c9aa19906064015b600060405180830381600087803b158015612e6257600080fd5b505af1158015612e76573d6000803e3d6000fd5b50505050612fb1565b60405163b6b55f2560e01b8152600481018790526001600160a01b0383169063b6b55f2590602401612e48565b604083015160009061271090612ec69061ffff168d6146a8565b612ed091906146bf565b9050612edc81886145ae565b9650836020015115612f54576040516329c9aa1960e01b815260048101829052336024820152604481018b90526001600160a01b038416906329c9aa1990606401600060405180830381600087803b158015612f3757600080fd5b505af1158015612f4b573d6000803e3d6000fd5b50505050612faf565b60405163b6b55f2560e01b8152600481018290526001600160a01b0384169063b6b55f2590602401600060405180830381600087803b158015612f9657600080fd5b505af1158015612faa573d6000803e3d6000fd5b505050505b505b871561306e576040516370a0823160e01b815230600482015281906001600160a01b038416906370a0823190602401602060405180830381865afa158015612ffd573d6000803e3d6000fd5b505050506040513d601f19601f82011682018060405250810190613021919061457f565b61302b91906145ae565b876001018560ff1681548110613043576130436145de565b90600052602060002090600202016001016000828254613063919061464e565b9091555061317d9050565b60408051808201825284815290516370a0823160e01b8152306004820152600189019190602082019084906001600160a01b038716906370a0823190602401602060405180830381865afa1580156130ca573d6000803e3d6000fd5b505050506040513d601f19601f820116820180604052508101906130ee919061457f565b6130f891906145ae565b9052815460018181018455600093845260209384902083518051600290940290910180548287015160409093015161ffff16600160a81b0261ffff60a81b19931515600160a01b0274ffffffffffffffffffffffffffffffffffffffffff199092166001600160a01b0390961695909517179190911692909217825592909101519101555b505050808061318b906145f4565b915050612c83565b50858360000160008282546131a8919061464e565b9091555050505050505050565b6040516370a0823160e01b81523060048201526000907f00000000000000000000000000000000000000000000000000000000000000006001600160a01b0316906370a0823190602401602060405180830381865afa15801561321c573d6000803e3d6000fd5b505050506040513d601f19601f82011682018060405250810190613240919061457f565b9050801561333a57808260000181815161325a91906145ae565b90525060405163a9059cbb60e01b8152336004820152602481018290527f00000000000000000000000000000000000000000000000000000000000000006001600160a01b03169063a9059cbb906044016020604051808303816000875af11580156132ca573d6000803e3d6000fd5b505050506040513d601f19601f820116820180604052508101906132ee91906145c1565b61333a5760405162461bcd60e51b815260206004820152601f60248201527f466f72746946693a204661696c656420746f20726566756e642045524332300060448201526064016108de565b6040516370a0823160e01b81523060048201526000907f00000000000000000000000000000000000000000000000000000000000000006001600160a01b0316906370a0823190602401602060405180830381865afa1580156133a1573d6000803e3d6000fd5b505050506040513d601f19601f820116820180604052508101906133c5919061457f565b905080156134aa5760405163a9059cbb60e01b8152336004820152602481018290527f00000000000000000000000000000000000000000000000000000000000000006001600160a01b03169063a9059cbb906044016020604051808303816000875af115801561343a573d6000803e3d6000fd5b505050506040513d601f19601f8201168201806040525081019061345e91906145c1565b6134aa5760405162461bcd60e51b815260206004820181905260248201527f466f72746946693a204661696c656420746f20726566756e64206e617469766560448201526064016108de565b471561123157604051600090339047908381818185875af1925050503d80600081146134f2576040519150601f19603f3d011682016040523d82523d6000602084013e6134f7565b606091505b50509050806135485760405162461bcd60e51b815260206004820181905260248201527f466f72746946693a204661696c656420746f20726566756e64206e617469766560448201526064016108de565b50505050565b816001600160a01b0316836001600160a01b0316036135d55760405162461bcd60e51b815260206004820152602960248201527f455243313135353a2073657474696e6720617070726f76616c2073746174757360448201527f20666f722073656c66000000000000000000000000000000000000000000000060648201526084016108de565b6001600160a01b03838116600081815260016020908152604080832094871680845294825291829020805460ff191686151590811790915591519182527f17307eab39ab6107e8899845ad3d59bd9653f200f220920489ca2b5937696c31910160405180910390a3505050565b600060095490506136653382600160405180602001604052806000815250613b2b565b600160096000828254613678919061464e565b9250508190555090565b6001600160a01b0384166136e65760405162461bcd60e51b815260206004820152602560248201527f455243313135353a207472616e7366657220746f20746865207a65726f206164604482015264647265737360d81b60648201526084016108de565b336137058187876136f68861382f565b6136ff8861382f565b8761387a565b6000848152602081815260408083206001600160a01b038a168452909152902054838110156137895760405162461bcd60e51b815260206004820152602a60248201527f455243313135353a20696e73756666696369656e742062616c616e636520666f60448201526939103a3930b739b332b960b11b60648201526084016108de565b6000858152602081815260408083206001600160a01b038b81168552925280832087850390559088168252812080548692906137c690849061464e565b909155505060408051868152602081018690526001600160a01b03808916928a821692918616917fc3d58168c5ae7397731d063d5bbf3d657854427343f4c083240f7aacaa2d0f62910160405180910390a4613826828888888888613c44565b50505050505050565b60408051600180825281830190925260609160009190602080830190803683370190505090508281600081518110613869576138696145de565b602090810291909101015292915050565b6001600160a01b0385166139015760005b83518110156138ff578281815181106138a6576138a66145de565b6020026020010151600360008684815181106138c4576138c46145de565b6020026020010151815260200190815260200160002060008282546138e9919061464e565b909155506138f8905081614613565b905061388b565b505b6001600160a01b038416612c055760005b83518110156138265782818151811061392d5761392d6145de565b60200260200101516003600086848151811061394b5761394b6145de565b60200260200101518152602001908152602001600020600082825461397091906145ae565b9091555061397f905081614613565b9050613912565b6001600160a01b0384163b15612c055760405163bc197c8160e01b81526001600160a01b0385169063bc197c81906139ca90899089908890889088906004016146e1565b6020604051808303816000875af1925050508015613a05575060408051601f3d908101601f19168201909252613a029181019061473f565b60015b613aba57613a1161475c565b806308c379a003613a4a5750613a25614778565b80613a305750613a4c565b8060405162461bcd60e51b81526004016108de9190613eae565b505b60405162461bcd60e51b815260206004820152603460248201527f455243313135353a207472616e7366657220746f206e6f6e204552433131353560448201527f526563656976657220696d706c656d656e74657200000000000000000000000060648201526084016108de565b6001600160e01b0319811663bc197c8160e01b146138265760405162461bcd60e51b815260206004820152602860248201527f455243313135353a204552433131353552656365697665722072656a656374656044820152676420746f6b656e7360c01b60648201526084016108de565b6001600160a01b038416613ba75760405162461bcd60e51b815260206004820152602160248201527f455243313135353a206d696e7420746f20746865207a65726f2061646472657360448201527f730000000000000000000000000000000000000000000000000000000000000060648201526084016108de565b33613bb8816000876136f68861382f565b6000848152602081815260408083206001600160a01b038916845290915281208054859290613be890849061464e565b909155505060408051858152602081018590526001600160a01b0380881692600092918516917fc3d58168c5ae7397731d063d5bbf3d657854427343f4c083240f7aacaa2d0f62910160405180910390a461103d816000878787875b6001600160a01b0384163b15612c055760405163f23a6e6160e01b81526001600160a01b0385169063f23a6e6190613c889089908990889088908890600401614802565b6020604051808303816000875af1925050508015613cc3575060408051601f3d908101601f19168201909252613cc09181019061473f565b60015b613ccf57613a1161475c565b6001600160e01b0319811663f23a6e6160e01b146138265760405162461bcd60e51b815260206004820152602860248201527f455243313135353a204552433131353552656365697665722072656a656374656044820152676420746f6b656e7360c01b60648201526084016108de565b50805460008255906000526020600020908101906122799190613d7f565b50805460008255600202906000526020600020908101906122799190613db2565b5b80821115613dae57805476ffffffffffffffffffffffffffffffffffffffffffffff19168155600101613d80565b5090565b5b80821115613dae57805476ffffffffffffffffffffffffffffffffffffffffffffff1916815560006001820155600201613db3565b80356001600160a01b0381168114613dff57600080fd5b919050565b60008060408385031215613e1757600080fd5b613e2083613de8565b946020939093013593505050565b6001600160e01b03198116811461227957600080fd5b600060208284031215613e5657600080fd5b8135613e6181613e2e565b9392505050565b6000815180845260005b81811015613e8e57602081850181015186830182015201613e72565b506000602082860101526020601f19601f83011685010191505092915050565b602081526000613e616020830184613e68565b801515811461227957600080fd5b60008060408385031215613ee257600080fd5b613eeb83613de8565b91506020830135613efb81613ec1565b809150509250929050565b600060208284031215613f1857600080fd5b5035919050565b634e487b7160e01b600052604160045260246000fd5b6060810181811067ffffffffffffffff82111715613f5557613f55613f1f565b60405250565b601f8201601f1916810167ffffffffffffffff81118282101715613f8157613f81613f1f565b6040525050565b600067ffffffffffffffff821115613fa257613fa2613f1f565b5060051b60200190565b600082601f830112613fbd57600080fd5b81356020613fca82613f88565b604051613fd78282613f5b565b83815260059390931b8501820192828101915086841115613ff757600080fd5b8286015b848110156140125780358352918301918301613ffb565b509695505050505050565b600082601f83011261402e57600080fd5b813567ffffffffffffffff81111561404857614048613f1f565b60405161405f601f8301601f191660200182613f5b565b81815284602083860101111561407457600080fd5b816020850160208301376000918101602001919091529392505050565b600080600080600060a086880312156140a957600080fd5b6140b286613de8565b94506140c060208701613de8565b9350604086013567ffffffffffffffff808211156140dd57600080fd5b6140e989838a01613fac565b945060608801359150808211156140ff57600080fd5b61410b89838a01613fac565b9350608088013591508082111561412157600080fd5b5061412e8882890161401d565b9150509295509295909350565b60006020828403121561414d57600080fd5b613e6182613de8565b6000806040838503121561416957600080fd5b823567ffffffffffffffff8082111561418157600080fd5b818501915085601f83011261419557600080fd5b813560206141a282613f88565b6040516141af8282613f5b565b83815260059390931b85018201928281019150898411156141cf57600080fd5b948201945b838610156141f4576141e586613de8565b825294820194908201906141d4565b9650508601359250508082111561420a57600080fd5b5061421785828601613fac565b9150509250929050565b600081518084526020808501945080840160005b8381101561425157815187529582019590820190600101614235565b509495945050505050565b602081526000613e616020830184614221565b6000806040838503121561428257600080fd5b50508035926020909101359150565b60006040830182518452602080840151604082870152828151808552606094508488019150838301925060005b8181101561430f5783516142f684825180516001600160a01b0316825260208082015115159083015260409081015161ffff16910152565b85015183870152928401926080909201916001016142be565b5090979650505050505050565b602081526000613e616020830184614291565b6020808252825182820181905260009190848201906040850190845b818110156143945761438183855180516001600160a01b0316825260208082015115159083015260409081015161ffff16910152565b928401926060929092019160010161434b565b50909695505050505050565b8281526040602082015260006143b96040830184614291565b949350505050565b600060208083850312156143d457600080fd5b823567ffffffffffffffff8111156143eb57600080fd5b8301601f810185136143fc57600080fd5b803561440781613f88565b604080516144158382613f5b565b8381526060938402850186019386820193508985111561443457600080fd5b948601945b848610156144a05780868b0312156144515760008081fd5b825161445c81613f35565b61446587613de8565b81528787013561447481613ec1565b818901528684013561ffff8116811461448d5760008081fd5b8185015284529485019492860192614439565b5098975050505050505050565b600080604083850312156144c057600080fd5b6144c983613de8565b91506144d760208401613de8565b90509250929050565b600080600080600060a086880312156144f857600080fd5b61450186613de8565b945061450f60208701613de8565b93506040860135925060608601359150608086013567ffffffffffffffff81111561453957600080fd5b61412e8882890161401d565b600181811c9082168061455957607f821691505b60208210810361457957634e487b7160e01b600052602260045260246000fd5b50919050565b60006020828403121561459157600080fd5b5051919050565b634e487b7160e01b600052601160045260246000fd5b8181038181111561090a5761090a614598565b6000602082840312156145d357600080fd5b8151613e6181613ec1565b634e487b7160e01b600052603260045260246000fd5b600060ff821660ff810361460a5761460a614598565b60010192915050565b60006001820161462557614625614598565b5060010190565b61ffff81811683821601908082111561464757614647614598565b5092915050565b8082018082111561090a5761090a614598565b6040815260006146746040830185614221565b82810360208401526146868185614221565b95945050505050565b60ff828116828216039081111561090a5761090a614598565b808202811582820484141761090a5761090a614598565b6000826146dc57634e487b7160e01b600052601260045260246000fd5b500490565b60006001600160a01b03808816835280871660208401525060a0604083015261470d60a0830186614221565b828103606084015261471f8186614221565b905082810360808401526147338185613e68565b98975050505050505050565b60006020828403121561475157600080fd5b8151613e6181613e2e565b600060033d11156147755760046000803e5060005160e01c5b90565b600060443d10156147865790565b6040516003193d81016004833e81513d67ffffffffffffffff81602484011181841117156147b657505050505090565b82850191508151818111156147ce5750505050505090565b843d87010160208285010111156147e85750505050505090565b6147f760208286010187613f5b565b509095945050505050565b60006001600160a01b03808816835280871660208401525084604083015283606083015260a0608083015261483a60a0830184613e68565b97965050505050505056fea26469706673582212204cfaf46b75f76733ada181ba7e2d16cc3b3bd4c8dc0da6251b48d701541c3d0864736f6c63430008120033",
  "devdoc": {
    "events": {
      "ApprovalForAll(address,address,bool)": {
        "details": "Emitted when `account` grants or revokes permission to `operator` to transfer their tokens, according to `approved`."
      },
      "TransferBatch(address,address,address,uint256[],uint256[])": {
        "details": "Equivalent to multiple {TransferSingle} events, where `operator`, `from` and `to` are the same for all transfers."
      },
      "TransferSingle(address,address,address,uint256,uint256)": {
        "details": "Emitted when `value` tokens of token type `id` are transferred from `from` to `to` by `operator`."
      },
      "URI(string,uint256)": {
        "details": "Emitted when the URI for token type `id` changes to `value`, if it is a non-programmatic URI. If an {URI} event was emitted for `id`, the standard https://eips.ethereum.org/EIPS/eip-1155#metadata-extensions[guarantees] that `value` will equal the value returned by {IERC1155MetadataURI-uri}."
      }
    },
    "kind": "dev",
    "methods": {
      "balanceOf(address,uint256)": {
        "details": "See {IERC1155-balanceOf}. Requirements: - `account` cannot be the zero address."
      },
      "balanceOfBatch(address[],uint256[])": {
        "details": "See {IERC1155-balanceOfBatch}. Requirements: - `accounts` and `ids` must have the same length."
      },
      "deposit(uint256)": {
        "details": "The user must deposit at least the minDeposit, and will receive an ERC1155 non-fungible receipt token.  The receipt token will be mapped to a TokenInfo containing the amount deposited as well as the strategy receipt  tokens received for later withdrawal."
      },
      "exists(uint256)": {
        "details": "Indicates whether any token exist with a given id, or not."
      },
      "isApprovedForAll(address,address)": {
        "details": "See {IERC1155-isApprovedForAll}."
      },
      "owner()": {
        "details": "Returns the address of the current owner."
      },
      "rebalance(uint256)": {
        "details": "This function utilizes the internal _deposit and _withdraw functions to rebalance based on  the strategies set in the contract. Since _deposit will set the TokenInfo.deposit to the total  deposited after the rebalance, we must store the original deposit and overwrite the TokenInfo before completing the transaction."
      },
      "refreshApprovals()": {
        "details": "This function sets the max approval because no depositTokens should remain in this contract at the end of a  transaction. This means there should be no risk exposure. "
      },
      "renounceOwnership()": {
        "details": "Leaves the contract without owner. It will not be possible to call `onlyOwner` functions anymore. Can only be called by the current owner. NOTE: Renouncing ownership will leave the contract without an owner, thereby removing any functionality that is only available to the owner."
      },
      "safeBatchTransferFrom(address,address,uint256[],uint256[],bytes)": {
        "details": "See {IERC1155-safeBatchTransferFrom}."
      },
      "safeTransferFrom(address,address,uint256,uint256,bytes)": {
        "details": "See {IERC1155-safeTransferFrom}."
      },
      "setApprovalForAll(address,bool)": {
        "details": "See {IERC1155-setApprovalForAll}."
      },
      "setFeeCalculator(address)": {
        "details": "Contract address specified should implement IFortiFiFeeCalculator"
      },
      "setFeeManager(address)": {
        "details": "Contract address specified should implement IFortiFiFeeManager"
      },
      "setNoFeesFor(address,bool)": {
        "details": "This allows FortiFi MASS vaults to utilize this SAMS vault without paying a fee so that users do not pay fees twice."
      },
      "supportsInterface(bytes4)": {
        "details": "See {IERC165-supportsInterface}."
      },
      "totalSupply(uint256)": {
        "details": "Total amount of tokens in with a given id."
      },
      "transferOwnership(address)": {
        "details": "Transfers ownership of the contract to a new account (`newOwner`). Can only be called by the current owner."
      },
      "uri(uint256)": {
        "details": "See {IERC1155MetadataURI-uri}. This implementation returns the same URI for *all* token types. It relies on the token type ID substitution mechanism https://eips.ethereum.org/EIPS/eip-1155#metadata[defined in the EIP]. Clients calling this function must replace the `\\{id\\}` substring with the actual token type ID."
      },
      "withdraw(uint256)": {
        "details": "Once all receipts are burned and deposit tokens received, the fee manager will calculate the fees due,  and the fee manager will distribute those fees before transfering the user their proceeds."
      }
    },
    "title": "Contract for FortiFi SAMS Vaults",
    "version": 1
  },
  "userdoc": {
    "kind": "user",
    "methods": {
      "add(uint256,uint256)": {
        "notice": "This function is used to add to a user's deposit when they already has a receipt (ERC1155). The user can add to their  deposit without needing to burn/withdraw first. "
      },
      "deposit(uint256)": {
        "notice": "This function is used when a user does not already have a receipt (ERC1155). "
      },
      "flipPaused()": {
        "notice": "Function to pause/unpause the contract."
      },
      "getStrategies()": {
        "notice": "View function that returns all strategies"
      },
      "getTokenInfo(uint256)": {
        "notice": "View function that returns all TokenInfo for a specific receipt"
      },
      "rebalance(uint256)": {
        "notice": "This function allows a user to rebalance a receipt (ERC1155) token's underlying assets. "
      },
      "recoverERC20(address,uint256)": {
        "notice": "Emergency function to recover stuck ERC20 tokens."
      },
      "refreshApprovals()": {
        "notice": "Function that approves ERC20 transfers for all strategy contracts"
      },
      "setFeeCalculator(address)": {
        "notice": "Setter for contract fee calculator"
      },
      "setFeeManager(address)": {
        "notice": "Setter for contract fee manager"
      },
      "setMinDeposit(uint256)": {
        "notice": "Setter for minDeposit state variable"
      },
      "setNoFeesFor(address,bool)": {
        "notice": "Function to set noFeesFor a contract. "
      },
      "setStrategies((address,bool,uint16)[])": {
        "notice": "This function sets up the underlying strategies used by the vault."
      },
      "withdraw(uint256)": {
        "notice": "This function is used to burn a receipt (ERC1155) and withdraw all underlying strategy receipt tokens. "
      }
    },
    "notice": "This contract allows for the deposit of a single asset, which is then split and deposited in to  multiple yield-bearing strategies. ",
    "version": 1
  },
  "storageLayout": {
    "storage": [
      {
        "astId": 170,
        "contract": "contracts/vaults/FortiFiSAMSVault.sol:FortiFiSAMSVault",
        "label": "_balances",
        "offset": 0,
        "slot": "0",
        "type": "t_mapping(t_uint256,t_mapping(t_address,t_uint256))"
      },
      {
        "astId": 176,
        "contract": "contracts/vaults/FortiFiSAMSVault.sol:FortiFiSAMSVault",
        "label": "_operatorApprovals",
        "offset": 0,
        "slot": "1",
        "type": "t_mapping(t_address,t_mapping(t_address,t_bool))"
      },
      {
        "astId": 178,
        "contract": "contracts/vaults/FortiFiSAMSVault.sol:FortiFiSAMSVault",
        "label": "_uri",
        "offset": 0,
        "slot": "2",
        "type": "t_string_storage"
      },
      {
        "astId": 1413,
        "contract": "contracts/vaults/FortiFiSAMSVault.sol:FortiFiSAMSVault",
        "label": "_totalSupply",
        "offset": 0,
        "slot": "3",
        "type": "t_mapping(t_uint256,t_uint256)"
      },
      {
        "astId": 7,
        "contract": "contracts/vaults/FortiFiSAMSVault.sol:FortiFiSAMSVault",
        "label": "_owner",
        "offset": 0,
        "slot": "4",
        "type": "t_address"
      },
      {
        "astId": 115,
        "contract": "contracts/vaults/FortiFiSAMSVault.sol:FortiFiSAMSVault",
        "label": "_status",
        "offset": 0,
        "slot": "5",
        "type": "t_uint256"
      },
      {
        "astId": 10414,
        "contract": "contracts/vaults/FortiFiSAMSVault.sol:FortiFiSAMSVault",
        "label": "name",
        "offset": 0,
        "slot": "6",
        "type": "t_string_storage"
      },
      {
        "astId": 10416,
        "contract": "contracts/vaults/FortiFiSAMSVault.sol:FortiFiSAMSVault",
        "label": "symbol",
        "offset": 0,
        "slot": "7",
        "type": "t_string_storage"
      },
      {
        "astId": 10425,
        "contract": "contracts/vaults/FortiFiSAMSVault.sol:FortiFiSAMSVault",
        "label": "minDeposit",
        "offset": 0,
        "slot": "8",
        "type": "t_uint256"
      },
      {
        "astId": 10428,
        "contract": "contracts/vaults/FortiFiSAMSVault.sol:FortiFiSAMSVault",
        "label": "nextToken",
        "offset": 0,
        "slot": "9",
        "type": "t_uint256"
      },
      {
        "astId": 10431,
        "contract": "contracts/vaults/FortiFiSAMSVault.sol:FortiFiSAMSVault",
        "label": "paused",
        "offset": 0,
        "slot": "10",
        "type": "t_bool"
      },
      {
        "astId": 10434,
        "contract": "contracts/vaults/FortiFiSAMSVault.sol:FortiFiSAMSVault",
        "label": "feeCalc",
        "offset": 1,
        "slot": "10",
        "type": "t_contract(IFortiFiFeeCalculator)4385"
      },
      {
        "astId": 10437,
        "contract": "contracts/vaults/FortiFiSAMSVault.sol:FortiFiSAMSVault",
        "label": "feeMgr",
        "offset": 0,
        "slot": "11",
        "type": "t_contract(IFortiFiFeeManager)4696"
      },
      {
        "astId": 10441,
        "contract": "contracts/vaults/FortiFiSAMSVault.sol:FortiFiSAMSVault",
        "label": "strategies",
        "offset": 0,
        "slot": "12",
        "type": "t_array(t_struct(Strategy)11800_storage)dyn_storage"
      },
      {
        "astId": 10446,
        "contract": "contracts/vaults/FortiFiSAMSVault.sol:FortiFiSAMSVault",
        "label": "tokenInfo",
        "offset": 0,
        "slot": "13",
        "type": "t_mapping(t_uint256,t_struct(TokenInfo)11813_storage)"
      },
      {
        "astId": 10450,
        "contract": "contracts/vaults/FortiFiSAMSVault.sol:FortiFiSAMSVault",
        "label": "noFeesFor",
        "offset": 0,
        "slot": "14",
        "type": "t_mapping(t_address,t_bool)"
      }
    ],
    "types": {
      "t_address": {
        "encoding": "inplace",
        "label": "address",
        "numberOfBytes": "20"
      },
      "t_array(t_struct(Position)11806_storage)dyn_storage": {
        "base": "t_struct(Position)11806_storage",
        "encoding": "dynamic_array",
        "label": "struct ISAMS.Position[]",
        "numberOfBytes": "32"
      },
      "t_array(t_struct(Strategy)11800_storage)dyn_storage": {
        "base": "t_struct(Strategy)11800_storage",
        "encoding": "dynamic_array",
        "label": "struct ISAMS.Strategy[]",
        "numberOfBytes": "32"
      },
      "t_bool": {
        "encoding": "inplace",
        "label": "bool",
        "numberOfBytes": "1"
      },
      "t_contract(IFortiFiFeeCalculator)4385": {
        "encoding": "inplace",
        "label": "contract IFortiFiFeeCalculator",
        "numberOfBytes": "20"
      },
      "t_contract(IFortiFiFeeManager)4696": {
        "encoding": "inplace",
        "label": "contract IFortiFiFeeManager",
        "numberOfBytes": "20"
      },
      "t_mapping(t_address,t_bool)": {
        "encoding": "mapping",
        "key": "t_address",
        "label": "mapping(address => bool)",
        "numberOfBytes": "32",
        "value": "t_bool"
      },
      "t_mapping(t_address,t_mapping(t_address,t_bool))": {
        "encoding": "mapping",
        "key": "t_address",
        "label": "mapping(address => mapping(address => bool))",
        "numberOfBytes": "32",
        "value": "t_mapping(t_address,t_bool)"
      },
      "t_mapping(t_address,t_uint256)": {
        "encoding": "mapping",
        "key": "t_address",
        "label": "mapping(address => uint256)",
        "numberOfBytes": "32",
        "value": "t_uint256"
      },
      "t_mapping(t_uint256,t_mapping(t_address,t_uint256))": {
        "encoding": "mapping",
        "key": "t_uint256",
        "label": "mapping(uint256 => mapping(address => uint256))",
        "numberOfBytes": "32",
        "value": "t_mapping(t_address,t_uint256)"
      },
      "t_mapping(t_uint256,t_struct(TokenInfo)11813_storage)": {
        "encoding": "mapping",
        "key": "t_uint256",
        "label": "mapping(uint256 => struct ISAMS.TokenInfo)",
        "numberOfBytes": "32",
        "value": "t_struct(TokenInfo)11813_storage"
      },
      "t_mapping(t_uint256,t_uint256)": {
        "encoding": "mapping",
        "key": "t_uint256",
        "label": "mapping(uint256 => uint256)",
        "numberOfBytes": "32",
        "value": "t_uint256"
      },
      "t_string_storage": {
        "encoding": "bytes",
        "label": "string",
        "numberOfBytes": "32"
      },
      "t_struct(Position)11806_storage": {
        "encoding": "inplace",
        "label": "struct ISAMS.Position",
        "members": [
          {
            "astId": 11803,
            "contract": "contracts/vaults/FortiFiSAMSVault.sol:FortiFiSAMSVault",
            "label": "strategy",
            "offset": 0,
            "slot": "0",
            "type": "t_struct(Strategy)11800_storage"
          },
          {
            "astId": 11805,
            "contract": "contracts/vaults/FortiFiSAMSVault.sol:FortiFiSAMSVault",
            "label": "receipt",
            "offset": 0,
            "slot": "1",
            "type": "t_uint256"
          }
        ],
        "numberOfBytes": "64"
      },
      "t_struct(Strategy)11800_storage": {
        "encoding": "inplace",
        "label": "struct ISAMS.Strategy",
        "members": [
          {
            "astId": 11795,
            "contract": "contracts/vaults/FortiFiSAMSVault.sol:FortiFiSAMSVault",
            "label": "strategy",
            "offset": 0,
            "slot": "0",
            "type": "t_address"
          },
          {
            "astId": 11797,
            "contract": "contracts/vaults/FortiFiSAMSVault.sol:FortiFiSAMSVault",
            "label": "isFortiFi",
            "offset": 20,
            "slot": "0",
            "type": "t_bool"
          },
          {
            "astId": 11799,
            "contract": "contracts/vaults/FortiFiSAMSVault.sol:FortiFiSAMSVault",
            "label": "bps",
            "offset": 21,
            "slot": "0",
            "type": "t_uint16"
          }
        ],
        "numberOfBytes": "32"
      },
      "t_struct(TokenInfo)11813_storage": {
        "encoding": "inplace",
        "label": "struct ISAMS.TokenInfo",
        "members": [
          {
            "astId": 11808,
            "contract": "contracts/vaults/FortiFiSAMSVault.sol:FortiFiSAMSVault",
            "label": "deposit",
            "offset": 0,
            "slot": "0",
            "type": "t_uint256"
          },
          {
            "astId": 11812,
            "contract": "contracts/vaults/FortiFiSAMSVault.sol:FortiFiSAMSVault",
            "label": "positions",
            "offset": 0,
            "slot": "1",
            "type": "t_array(t_struct(Position)11806_storage)dyn_storage"
          }
        ],
        "numberOfBytes": "64"
      },
      "t_uint16": {
        "encoding": "inplace",
        "label": "uint16",
        "numberOfBytes": "2"
      },
      "t_uint256": {
        "encoding": "inplace",
        "label": "uint256",
        "numberOfBytes": "32"
      }
    }
  }
}