{
  "address": "0x45C53FB370CA5066D93FE64913e24B886322bE3B",
  "abi": [
    {
      "inputs": [
        {
          "internalType": "address",
          "name": "_strategy",
          "type": "address"
        },
        {
          "internalType": "address",
          "name": "_depositToken",
          "type": "address"
        },
        {
          "internalType": "address",
          "name": "_wrappedNative",
          "type": "address"
        }
      ],
      "stateMutability": "nonpayable",
      "type": "constructor"
    },
    {
      "anonymous": false,
      "inputs": [
        {
          "indexed": true,
          "internalType": "address",
          "name": "owner",
          "type": "address"
        },
        {
          "indexed": true,
          "internalType": "address",
          "name": "spender",
          "type": "address"
        },
        {
          "indexed": false,
          "internalType": "uint256",
          "name": "value",
          "type": "uint256"
        }
      ],
      "name": "Approval",
      "type": "event"
    },
    {
      "anonymous": false,
      "inputs": [
        {
          "indexed": true,
          "internalType": "address",
          "name": "vault",
          "type": "address"
        },
        {
          "indexed": true,
          "internalType": "address",
          "name": "user",
          "type": "address"
        },
        {
          "indexed": true,
          "internalType": "address",
          "name": "strategy",
          "type": "address"
        },
        {
          "indexed": false,
          "internalType": "uint256",
          "name": "amountDeposited",
          "type": "uint256"
        }
      ],
      "name": "DepositToFortress",
      "type": "event"
    },
    {
      "anonymous": false,
      "inputs": [
        {
          "indexed": true,
          "internalType": "address",
          "name": "vault",
          "type": "address"
        },
        {
          "indexed": false,
          "internalType": "uint256",
          "name": "tokenId",
          "type": "uint256"
        },
        {
          "indexed": true,
          "internalType": "address",
          "name": "strategy",
          "type": "address"
        }
      ],
      "name": "FortressCreated",
      "type": "event"
    },
    {
      "anonymous": false,
      "inputs": [
        {
          "indexed": true,
          "internalType": "address",
          "name": "previousOwner",
          "type": "address"
        },
        {
          "indexed": true,
          "internalType": "address",
          "name": "newOwner",
          "type": "address"
        }
      ],
      "name": "OwnershipTransferred",
      "type": "event"
    },
    {
      "anonymous": false,
      "inputs": [
        {
          "indexed": false,
          "internalType": "uint256",
          "name": "newSlippage",
          "type": "uint256"
        }
      ],
      "name": "SlippageSet",
      "type": "event"
    },
    {
      "anonymous": false,
      "inputs": [
        {
          "indexed": true,
          "internalType": "address",
          "name": "from",
          "type": "address"
        },
        {
          "indexed": true,
          "internalType": "address",
          "name": "to",
          "type": "address"
        },
        {
          "indexed": false,
          "internalType": "uint256",
          "name": "value",
          "type": "uint256"
        }
      ],
      "name": "Transfer",
      "type": "event"
    },
    {
      "anonymous": false,
      "inputs": [
        {
          "indexed": true,
          "internalType": "address",
          "name": "vault",
          "type": "address"
        },
        {
          "indexed": true,
          "internalType": "address",
          "name": "user",
          "type": "address"
        },
        {
          "indexed": true,
          "internalType": "address",
          "name": "strategy",
          "type": "address"
        },
        {
          "indexed": false,
          "internalType": "uint256",
          "name": "amountReceived",
          "type": "uint256"
        }
      ],
      "name": "WithdrawFromFortress",
      "type": "event"
    },
    {
      "inputs": [
        {
          "internalType": "address",
          "name": "owner",
          "type": "address"
        },
        {
          "internalType": "address",
          "name": "spender",
          "type": "address"
        }
      ],
      "name": "allowance",
      "outputs": [
        {
          "internalType": "uint256",
          "name": "",
          "type": "uint256"
        }
      ],
      "stateMutability": "view",
      "type": "function"
    },
    {
      "inputs": [
        {
          "internalType": "address",
          "name": "spender",
          "type": "address"
        },
        {
          "internalType": "uint256",
          "name": "amount",
          "type": "uint256"
        }
      ],
      "name": "approve",
      "outputs": [
        {
          "internalType": "bool",
          "name": "",
          "type": "bool"
        }
      ],
      "stateMutability": "nonpayable",
      "type": "function"
    },
    {
      "inputs": [
        {
          "internalType": "address",
          "name": "account",
          "type": "address"
        }
      ],
      "name": "balanceOf",
      "outputs": [
        {
          "internalType": "uint256",
          "name": "",
          "type": "uint256"
        }
      ],
      "stateMutability": "view",
      "type": "function"
    },
    {
      "inputs": [],
      "name": "decimals",
      "outputs": [
        {
          "internalType": "uint8",
          "name": "",
          "type": "uint8"
        }
      ],
      "stateMutability": "view",
      "type": "function"
    },
    {
      "inputs": [
        {
          "internalType": "address",
          "name": "spender",
          "type": "address"
        },
        {
          "internalType": "uint256",
          "name": "subtractedValue",
          "type": "uint256"
        }
      ],
      "name": "decreaseAllowance",
      "outputs": [
        {
          "internalType": "bool",
          "name": "",
          "type": "bool"
        }
      ],
      "stateMutability": "nonpayable",
      "type": "function"
    },
    {
      "inputs": [
        {
          "internalType": "uint256",
          "name": "_amount",
          "type": "uint256"
        },
        {
          "internalType": "address",
          "name": "_user",
          "type": "address"
        },
        {
          "internalType": "uint256",
          "name": "_tokenId",
          "type": "uint256"
        }
      ],
      "name": "depositToFortress",
      "outputs": [],
      "stateMutability": "nonpayable",
      "type": "function"
    },
    {
      "inputs": [],
      "name": "depositToken",
      "outputs": [
        {
          "internalType": "address",
          "name": "",
          "type": "address"
        }
      ],
      "stateMutability": "view",
      "type": "function"
    },
    {
      "inputs": [
        {
          "internalType": "address",
          "name": "spender",
          "type": "address"
        },
        {
          "internalType": "uint256",
          "name": "addedValue",
          "type": "uint256"
        }
      ],
      "name": "increaseAllowance",
      "outputs": [
        {
          "internalType": "bool",
          "name": "",
          "type": "bool"
        }
      ],
      "stateMutability": "nonpayable",
      "type": "function"
    },
    {
      "inputs": [
        {
          "internalType": "address",
          "name": "",
          "type": "address"
        }
      ],
      "name": "isFortiFiVault",
      "outputs": [
        {
          "internalType": "bool",
          "name": "",
          "type": "bool"
        }
      ],
      "stateMutability": "view",
      "type": "function"
    },
    {
      "inputs": [],
      "name": "name",
      "outputs": [
        {
          "internalType": "string",
          "name": "",
          "type": "string"
        }
      ],
      "stateMutability": "view",
      "type": "function"
    },
    {
      "inputs": [],
      "name": "owner",
      "outputs": [
        {
          "internalType": "address",
          "name": "",
          "type": "address"
        }
      ],
      "stateMutability": "view",
      "type": "function"
    },
    {
      "inputs": [
        {
          "internalType": "address",
          "name": "_token",
          "type": "address"
        },
        {
          "internalType": "uint256",
          "name": "_amount",
          "type": "uint256"
        }
      ],
      "name": "recoverERC20",
      "outputs": [],
      "stateMutability": "nonpayable",
      "type": "function"
    },
    {
      "inputs": [
        {
          "internalType": "address",
          "name": "_fortress",
          "type": "address"
        },
        {
          "internalType": "address",
          "name": "_token",
          "type": "address"
        },
        {
          "internalType": "uint256",
          "name": "_amount",
          "type": "uint256"
        }
      ],
      "name": "recoverFromFortress",
      "outputs": [],
      "stateMutability": "nonpayable",
      "type": "function"
    },
    {
      "inputs": [],
      "name": "renounceOwnership",
      "outputs": [],
      "stateMutability": "nonpayable",
      "type": "function"
    },
    {
      "inputs": [
        {
          "internalType": "uint16",
          "name": "_amount",
          "type": "uint16"
        }
      ],
      "name": "setSlippage",
      "outputs": [],
      "stateMutability": "nonpayable",
      "type": "function"
    },
    {
      "inputs": [
        {
          "internalType": "address",
          "name": "_strategy",
          "type": "address"
        },
        {
          "internalType": "bool",
          "name": "_approved",
          "type": "bool"
        }
      ],
      "name": "setVault",
      "outputs": [],
      "stateMutability": "nonpayable",
      "type": "function"
    },
    {
      "inputs": [],
      "name": "slippageBps",
      "outputs": [
        {
          "internalType": "uint256",
          "name": "",
          "type": "uint256"
        }
      ],
      "stateMutability": "view",
      "type": "function"
    },
    {
      "inputs": [],
      "name": "strategy",
      "outputs": [
        {
          "internalType": "address",
          "name": "",
          "type": "address"
        }
      ],
      "stateMutability": "view",
      "type": "function"
    },
    {
      "inputs": [],
      "name": "symbol",
      "outputs": [
        {
          "internalType": "string",
          "name": "",
          "type": "string"
        }
      ],
      "stateMutability": "view",
      "type": "function"
    },
    {
      "inputs": [],
      "name": "totalSupply",
      "outputs": [
        {
          "internalType": "uint256",
          "name": "",
          "type": "uint256"
        }
      ],
      "stateMutability": "view",
      "type": "function"
    },
    {
      "inputs": [
        {
          "internalType": "address",
          "name": "to",
          "type": "address"
        },
        {
          "internalType": "uint256",
          "name": "amount",
          "type": "uint256"
        }
      ],
      "name": "transfer",
      "outputs": [
        {
          "internalType": "bool",
          "name": "",
          "type": "bool"
        }
      ],
      "stateMutability": "nonpayable",
      "type": "function"
    },
    {
      "inputs": [
        {
          "internalType": "address",
          "name": "from",
          "type": "address"
        },
        {
          "internalType": "address",
          "name": "to",
          "type": "address"
        },
        {
          "internalType": "uint256",
          "name": "amount",
          "type": "uint256"
        }
      ],
      "name": "transferFrom",
      "outputs": [
        {
          "internalType": "bool",
          "name": "",
          "type": "bool"
        }
      ],
      "stateMutability": "nonpayable",
      "type": "function"
    },
    {
      "inputs": [
        {
          "internalType": "address",
          "name": "newOwner",
          "type": "address"
        }
      ],
      "name": "transferOwnership",
      "outputs": [],
      "stateMutability": "nonpayable",
      "type": "function"
    },
    {
      "inputs": [
        {
          "internalType": "address",
          "name": "",
          "type": "address"
        },
        {
          "internalType": "uint256",
          "name": "",
          "type": "uint256"
        }
      ],
      "name": "vaultToTokenToFortress",
      "outputs": [
        {
          "internalType": "address",
          "name": "",
          "type": "address"
        }
      ],
      "stateMutability": "view",
      "type": "function"
    },
    {
      "inputs": [
        {
          "internalType": "uint256",
          "name": "_amount",
          "type": "uint256"
        },
        {
          "internalType": "address",
          "name": "_user",
          "type": "address"
        },
        {
          "internalType": "uint256",
          "name": "_tokenId",
          "type": "uint256"
        }
      ],
      "name": "withdrawFromFortress",
      "outputs": [],
      "stateMutability": "nonpayable",
      "type": "function"
    },
    {
      "inputs": [],
      "name": "wrappedNativeToken",
      "outputs": [
        {
          "internalType": "address",
          "name": "",
          "type": "address"
        }
      ],
      "stateMutability": "view",
      "type": "function"
    }
  ],
  "transactionHash": "0x64e67820c9e7b86975965717d67fc5eb5b8f0fc111a0ad148275e635242e954c",
  "args": [
    "0x53ccA4921522e43EF6652420c3eEC6FBfE987a55",
    "0xB97EF9Ef8734C71904D8002F8b6Bc66Dd9c48a6E",
    "0xB31f66AA3C1e785363F0875A1B74E27b85FD66c7"
  ],
  "numDeployments": 3,
  "solcInputHash": "80d871474ab22031d5d53294046de2a3",
  "bytecode": "0x60e060405260646008553480156200001657600080fd5b5060405162003c1238038062003c12833981016040819052620000399162000267565b8282826040518060400160405280601881526020017f466f72746946692053747261746567792052656365697074000000000000000081525060405180604001604052806004815260200163232329a960e11b815250620000a9620000a3620001f660201b60201c565b620001fa565b6004620000b7838262000356565b506005620000c6828262000356565b5050506001600160a01b038316620001255760405162461bcd60e51b815260206004820152601960248201527f466f72746946693a20496e76616c69642073747261746567790000000000000060448201526064015b60405180910390fd5b6001600160a01b0382166200017d5760405162461bcd60e51b815260206004820152601e60248201527f466f72746946693a20496e76616c6964206465706f73697420746f6b656e000060448201526064016200011c565b6001600160a01b038116620001d55760405162461bcd60e51b815260206004820152601d60248201527f466f72746946693a20496e76616c6964206e617469766520746f6b656e00000060448201526064016200011c565b6001600160a01b03928316608052821660a0521660c0525062000422915050565b3390565b600080546001600160a01b038381166001600160a01b0319831681178455604051919092169283917f8be0079c531659141344cd1fd0a4f28419497f9722a3daafe3b4186f6b6457e09190a35050565b80516001600160a01b03811681146200026257600080fd5b919050565b6000806000606084860312156200027d57600080fd5b62000288846200024a565b925062000298602085016200024a565b9150620002a8604085016200024a565b90509250925092565b634e487b7160e01b600052604160045260246000fd5b600181811c90821680620002dc57607f821691505b602082108103620002fd57634e487b7160e01b600052602260045260246000fd5b50919050565b601f8211156200035157600081815260208120601f850160051c810160208610156200032c5750805b601f850160051c820191505b818110156200034d5782815560010162000338565b5050505b505050565b81516001600160401b03811115620003725762000372620002b1565b6200038a81620003838454620002c7565b8462000303565b602080601f831160018114620003c25760008415620003a95750858301515b600019600386901b1c1916600185901b1785556200034d565b600085815260208120601f198616915b82811015620003f357888601518255948401946001909101908401620003d2565b5085821015620004125787850151600019600388901b60f8161c191681555b5050505050600190811b01905550565b60805160a05160c05161376c620004a6600039600081816103d401528181610690015281816107a40152818161094601528181610a7001528181610b0b0152818161114901526111e001526000818161022201526107c5015260008181610368015281816107830152818161088c01528181610bd30152611332015261376c6000f3fe60806040523480156200001157600080fd5b5060043610620001d15760003560e01c80638da5cb5b1162000101578063ba251fba11620000a3578063dd62ed3e116200007a578063dd62ed3e146200041f578063ded438f0146200045b578063f2fde38b1462000472578063fdad531d146200048957600080fd5b8063ba251fba14620003bb578063c89039c514620003d2578063cf95002214620003f957600080fd5b8063a8c62e7611620000d8578063a8c62e761462000366578063a9059cbb146200038d578063ab37fbb714620003a457600080fd5b80638da5cb5b146200033357806395d89b411462000345578063a457c2d7146200034f57600080fd5b8063313ce5671162000177578063627f66c6116200014e578063627f66c614620002cf57806370a0823114620002e6578063715018a614620003125780638980f11f146200031c57600080fd5b8063313ce567146200029e5780633950935114620002ae578063578c71d914620002c557600080fd5b806318160ddd11620001ac57806318160ddd146200025b57806323b872dd146200026e57806329c9aa19146200028557600080fd5b806306fdde0314620001d6578063095ea7b314620001f857806317fcb39b1462000220575b600080fd5b620001e0620004c0565b604051620001ef919062001c69565b60405180910390f35b6200020f6200020936600462001cd6565b6200055a565b6040519015158152602001620001ef565b7f00000000000000000000000000000000000000000000000000000000000000005b6040516001600160a01b039091168152602001620001ef565b6003545b604051908152602001620001ef565b6200020f6200027f36600462001d03565b62000576565b6200029c6200029636600462001d44565b6200059e565b005b60405160128152602001620001ef565b6200020f620002bf36600462001cd6565b62000c51565b6200025f60085481565b6200029c620002e036600462001d7b565b62000c94565b6200025f620002f736600462001db7565b6001600160a01b031660009081526001602052604090205490565b6200029c62000d1b565b6200029c6200032d36600462001cd6565b62000d85565b6000546001600160a01b031662000242565b620001e062000e5a565b6200020f6200036036600462001cd6565b62000e6b565b7f000000000000000000000000000000000000000000000000000000000000000062000242565b6200020f6200039e36600462001cd6565b62000f19565b6200029c620003b536600462001ddc565b62000f29565b6200029c620003cc36600462001d44565b62000fc5565b7f000000000000000000000000000000000000000000000000000000000000000062000242565b6200020f6200040a36600462001db7565b60066020526000908152604090205460ff1681565b6200025f6200043036600462001e02565b6001600160a01b03918216600090815260026020908152604080832093909416825291909152205490565b6200029c6200046c36600462001d03565b620013ae565b6200029c6200048336600462001db7565b62001492565b620002426200049a36600462001cd6565b60076020908152600092835260408084209091529082529020546001600160a01b031681565b606060048054620004d19062001e3a565b80601f0160208091040260200160405190810160405280929190818152602001828054620004ff9062001e3a565b8015620005505780601f10620005245761010080835404028352916020019162000550565b820191906000526020600020905b8154815290600101906020018083116200053257829003601f168201915b5050505050905090565b6000336200056a8185856200157a565b60019150505b92915050565b60003362000586858285620016d6565b620005938585856200176d565b506001949350505050565b60008311620005f45760405162461bcd60e51b815260206004820152601260248201527f466f72746946693a2030206465706f736974000000000000000000000000000060448201526064015b60405180910390fd5b3360009081526006602052604090205460ff16620006555760405162461bcd60e51b815260206004820152601660248201527f466f72746946693a20496e76616c6964207661756c74000000000000000000006044820152606401620005eb565b6040517f23b872dd000000000000000000000000000000000000000000000000000000008152336004820152306024820152604481018490527f00000000000000000000000000000000000000000000000000000000000000006001600160a01b0316906323b872dd906064016020604051808303816000875af1158015620006e2573d6000803e3d6000fd5b505050506040513d601f19601f8201168201806040525081019062000708919062001e76565b620007565760405162461bcd60e51b815260206004820181905260248201527f466f72746946693a204661696c656420746f207472616e73666572206465702e6044820152606401620005eb565b3360009081526007602090815260408083208484529091528120546001600160a01b0316620008e15760007f00000000000000000000000000000000000000000000000000000000000000007f00000000000000000000000000000000000000000000000000000000000000007f000000000000000000000000000000000000000000000000000000000000000030604051620007f39062001c5b565b6001600160a01b039485168152928416602084015290831660408301529091166060820152608001604051809103906000f08015801562000838573d6000803e3d6000fd5b50336000818152600760209081526040808320888452825291829020805473ffffffffffffffffffffffffffffffffffffffff19166001600160a01b038681169190911790915591518781529395508594507f0000000000000000000000000000000000000000000000000000000000000000909116927fd54b6c27f4639f28e778312a36befbf189631a3587aeb73e182e99c434eb7705910160405180910390a35062000907565b503360009081526007602090815260408083208484529091529020546001600160a01b03165b6040517f095ea7b30000000000000000000000000000000000000000000000000000000081526001600160a01b038281166004830152602482018690527f0000000000000000000000000000000000000000000000000000000000000000169063095ea7b3906044016020604051808303816000875af115801562000990573d6000803e3d6000fd5b505050506040513d601f19601f82011682018060405250810190620009b6919062001e76565b506040517f6e553f65000000000000000000000000000000000000000000000000000000008152600481018590526001600160a01b03848116602483015260009190831690636e553f65906044016020604051808303816000875af115801562000a24573d6000803e3d6000fd5b505050506040513d601f19601f8201168201806040525081019062000a4a919062001e96565b905062000a5833826200198e565b6040516370a0823160e01b81523060048201526000907f00000000000000000000000000000000000000000000000000000000000000006001600160a01b0316906370a0823190602401602060405180830381865afa15801562000ac0573d6000803e3d6000fd5b505050506040513d601f19601f8201168201806040525081019062000ae6919062001e96565b9050801562000bd15760405163a9059cbb60e01b8152336004820152602481018290527f00000000000000000000000000000000000000000000000000000000000000006001600160a01b03169063a9059cbb906044016020604051808303816000875af115801562000b5d573d6000803e3d6000fd5b505050506040513d601f19601f8201168201806040525081019062000b83919062001e76565b62000bd15760405162461bcd60e51b815260206004820152601f60248201527f466f72746946693a204661696c656420746f20726566756e64204552433230006044820152606401620005eb565b7f00000000000000000000000000000000000000000000000000000000000000006001600160a01b0316856001600160a01b0316336001600160a01b03167fe15dc988e072c1d9d056206bf4c2ccd15513ea1197955bdb545e39a4a198f6278960405162000c4191815260200190565b60405180910390a4505050505050565b3360008181526002602090815260408083206001600160a01b03871684529091528120549091906200056a908290869062000c8e90879062001ec6565b6200157a565b6000546001600160a01b0316331462000cf05760405162461bcd60e51b815260206004820181905260248201527f4f776e61626c653a2063616c6c6572206973206e6f7420746865206f776e65726044820152606401620005eb565b6001600160a01b03919091166000908152600660205260409020805460ff1916911515919091179055565b6000546001600160a01b0316331462000d775760405162461bcd60e51b815260206004820181905260248201527f4f776e61626c653a2063616c6c6572206973206e6f7420746865206f776e65726044820152606401620005eb565b62000d83600062001a73565b565b6000546001600160a01b0316331462000de15760405162461bcd60e51b815260206004820181905260248201527f4f776e61626c653a2063616c6c6572206973206e6f7420746865206f776e65726044820152606401620005eb565b60405163a9059cbb60e01b8152336004820152602481018290526001600160a01b0383169063a9059cbb906044016020604051808303816000875af115801562000e2f573d6000803e3d6000fd5b505050506040513d601f19601f8201168201806040525081019062000e55919062001e76565b505050565b606060058054620004d19062001e3a565b3360008181526002602090815260408083206001600160a01b03871684529091528120549091908381101562000f0a5760405162461bcd60e51b815260206004820152602560248201527f45524332303a2064656372656173656420616c6c6f77616e63652062656c6f7760448201527f207a65726f0000000000000000000000000000000000000000000000000000006064820152608401620005eb565b6200059382868684036200157a565b6000336200056a8185856200176d565b6000546001600160a01b0316331462000f855760405162461bcd60e51b815260206004820181905260248201527f4f776e61626c653a2063616c6c6572206973206e6f7420746865206f776e65726044820152606401620005eb565b61ffff811660088190556040519081527f1a89170b7100a37f2e1a8bca9d866cd3f6d666800bfb0fa8dd82f0b2193c926f9060200160405180910390a150565b60008311620010175760405162461bcd60e51b815260206004820152601360248201527f466f72746946693a2030207769746864726177000000000000000000000000006044820152606401620005eb565b3360009081526007602090815260408083208484529091529020546001600160a01b0316620010895760405162461bcd60e51b815260206004820152601460248201527f466f72746946693a204e6f20666f7274726573730000000000000000000000006044820152606401620005eb565b62001095338462001ad0565b336000908152600760209081526040808320848452909152908190205460085491517f3651da8a0000000000000000000000000000000000000000000000000000000081526001600160a01b0385811660048301526024820193909352911690633651da8a90604401600060405180830381600087803b1580156200111957600080fd5b505af11580156200112e573d6000803e3d6000fd5b50506040516370a0823160e01b8152306004820152600092507f00000000000000000000000000000000000000000000000000000000000000006001600160a01b031691506370a0823190602401602060405180830381865afa1580156200119a573d6000803e3d6000fd5b505050506040513d601f19601f82011682018060405250810190620011c0919062001e96565b6040516370a0823160e01b81523060048201529091506001600160a01b037f0000000000000000000000000000000000000000000000000000000000000000169063a9059cbb90339083906370a0823190602401602060405180830381865afa15801562001232573d6000803e3d6000fd5b505050506040513d601f19601f8201168201806040525081019062001258919062001e96565b6040517fffffffff0000000000000000000000000000000000000000000000000000000060e085901b1681526001600160a01b03909216600483015260248201526044016020604051808303816000875af1158015620012bc573d6000803e3d6000fd5b505050506040513d601f19601f82011682018060405250810190620012e2919062001e76565b620013305760405162461bcd60e51b815260206004820181905260248201527f466f72746946693a204661696c656420746f207472616e73666572206465702e6044820152606401620005eb565b7f00000000000000000000000000000000000000000000000000000000000000006001600160a01b0316836001600160a01b0316336001600160a01b03167f59d5a9a5eed4e45e6bfdfe1c924db07498829117e5af1e2726e482451690624d84604051620013a091815260200190565b60405180910390a450505050565b6000546001600160a01b031633146200140a5760405162461bcd60e51b815260206004820181905260248201527f4f776e61626c653a2063616c6c6572206973206e6f7420746865206f776e65726044820152606401620005eb565b6040517f1171bda90000000000000000000000000000000000000000000000000000000081523360048201526001600160a01b03838116602483015260448201839052841690631171bda990606401600060405180830381600087803b1580156200147457600080fd5b505af115801562001489573d6000803e3d6000fd5b50505050505050565b6000546001600160a01b03163314620014ee5760405162461bcd60e51b815260206004820181905260248201527f4f776e61626c653a2063616c6c6572206973206e6f7420746865206f776e65726044820152606401620005eb565b6001600160a01b0381166200156c5760405162461bcd60e51b815260206004820152602660248201527f4f776e61626c653a206e6577206f776e657220697320746865207a65726f206160448201527f64647265737300000000000000000000000000000000000000000000000000006064820152608401620005eb565b620015778162001a73565b50565b6001600160a01b038316620015f75760405162461bcd60e51b8152602060048201526024808201527f45524332303a20617070726f76652066726f6d20746865207a65726f2061646460448201527f72657373000000000000000000000000000000000000000000000000000000006064820152608401620005eb565b6001600160a01b038216620016755760405162461bcd60e51b815260206004820152602260248201527f45524332303a20617070726f766520746f20746865207a65726f20616464726560448201527f73730000000000000000000000000000000000000000000000000000000000006064820152608401620005eb565b6001600160a01b0383811660008181526002602090815260408083209487168084529482529182902085905590518481527f8c5be1e5ebec7d5bd14f71427d1e84f3dd0314c0f7b2291e5b200ac8c7c3b925910160405180910390a3505050565b6001600160a01b038381166000908152600260209081526040808320938616835292905220546000198114620017675781811015620017585760405162461bcd60e51b815260206004820152601d60248201527f45524332303a20696e73756666696369656e7420616c6c6f77616e63650000006044820152606401620005eb565b6200176784848484036200157a565b50505050565b6001600160a01b038316620017eb5760405162461bcd60e51b815260206004820152602560248201527f45524332303a207472616e736665722066726f6d20746865207a65726f20616460448201527f64726573730000000000000000000000000000000000000000000000000000006064820152608401620005eb565b6001600160a01b038216620018695760405162461bcd60e51b815260206004820152602360248201527f45524332303a207472616e7366657220746f20746865207a65726f206164647260448201527f65737300000000000000000000000000000000000000000000000000000000006064820152608401620005eb565b6001600160a01b03831660009081526001602052604090205481811015620018fa5760405162461bcd60e51b815260206004820152602660248201527f45524332303a207472616e7366657220616d6f756e742065786365656473206260448201527f616c616e636500000000000000000000000000000000000000000000000000006064820152608401620005eb565b6001600160a01b038085166000908152600160205260408082208585039055918516815290812080548492906200193390849062001ec6565b92505081905550826001600160a01b0316846001600160a01b03167fddf252ad1be2c89b69c2b068fc378daa952ba7f163c4a11628f55a4df523b3ef846040516200198091815260200190565b60405180910390a362001767565b6001600160a01b038216620019e65760405162461bcd60e51b815260206004820152601f60248201527f45524332303a206d696e7420746f20746865207a65726f2061646472657373006044820152606401620005eb565b8060036000828254620019fa919062001ec6565b90915550506001600160a01b0382166000908152600160205260408120805483929062001a2990849062001ec6565b90915550506040518181526001600160a01b038316906000907fddf252ad1be2c89b69c2b068fc378daa952ba7f163c4a11628f55a4df523b3ef9060200160405180910390a35050565b600080546001600160a01b0383811673ffffffffffffffffffffffffffffffffffffffff19831681178455604051919092169283917f8be0079c531659141344cd1fd0a4f28419497f9722a3daafe3b4186f6b6457e09190a35050565b6001600160a01b03821662001b4e5760405162461bcd60e51b815260206004820152602160248201527f45524332303a206275726e2066726f6d20746865207a65726f2061646472657360448201527f73000000000000000000000000000000000000000000000000000000000000006064820152608401620005eb565b6001600160a01b0382166000908152600160205260409020548181101562001bdf5760405162461bcd60e51b815260206004820152602260248201527f45524332303a206275726e20616d6f756e7420657863656564732062616c616e60448201527f63650000000000000000000000000000000000000000000000000000000000006064820152608401620005eb565b6001600160a01b038316600090815260016020526040812083830390556003805484929062001c1090849062001edc565b90915550506040518281526000906001600160a01b038516907fddf252ad1be2c89b69c2b068fc378daa952ba7f163c4a11628f55a4df523b3ef9060200160405180910390a3505050565b6118448062001ef383390190565b600060208083528351808285015260005b8181101562001c985785810183015185820160400152820162001c7a565b506000604082860101526040601f19601f8301168501019250505092915050565b80356001600160a01b038116811462001cd157600080fd5b919050565b6000806040838503121562001cea57600080fd5b62001cf58362001cb9565b946020939093013593505050565b60008060006060848603121562001d1957600080fd5b62001d248462001cb9565b925062001d346020850162001cb9565b9150604084013590509250925092565b60008060006060848603121562001d5a57600080fd5b8335925062001d346020850162001cb9565b80151581146200157757600080fd5b6000806040838503121562001d8f57600080fd5b62001d9a8362001cb9565b9150602083013562001dac8162001d6c565b809150509250929050565b60006020828403121562001dca57600080fd5b62001dd58262001cb9565b9392505050565b60006020828403121562001def57600080fd5b813561ffff8116811462001dd557600080fd5b6000806040838503121562001e1657600080fd5b62001e218362001cb9565b915062001e316020840162001cb9565b90509250929050565b600181811c9082168062001e4f57607f821691505b60208210810362001e7057634e487b7160e01b600052602260045260246000fd5b50919050565b60006020828403121562001e8957600080fd5b815162001dd58162001d6c565b60006020828403121562001ea957600080fd5b5051919050565b634e487b7160e01b600052601160045260246000fd5b8082018082111562000570576200057062001eb0565b8181038181111562000570576200057062001eb056fe6101006040523480156200001257600080fd5b5060405162001844380380620018448339810160408190526200003591620002c7565b8383838362000044336200025a565b6001600160a01b038416620000a05760405162461bcd60e51b815260206004820152601960248201527f466f72746946693a20496e76616c69642073747261746567790000000000000060448201526064015b60405180910390fd5b6001600160a01b038316620000f85760405162461bcd60e51b815260206004820152601e60248201527f466f72746946693a20496e76616c6964206465706f73697420746f6b656e0000604482015260640162000097565b6001600160a01b038216620001505760405162461bcd60e51b815260206004820152601d60248201527f466f72746946693a20496e76616c6964206e617469766520746f6b656e000000604482015260640162000097565b6001600160a01b038116620001a85760405162461bcd60e51b815260206004820152601660248201527f466f72746946693a20496e76616c6964206f776e657200000000000000000000604482015260640162000097565b6001600160a01b03848116608081905284821660a081905291841660c05260405163095ea7b360e01b81526004810191909152600019602482015263095ea7b3906044016020604051808303816000875af11580156200020c573d6000803e3d6000fd5b505050506040513d601f19601f8201168201806040525081019062000232919062000324565b506200023e816200025a565b5050506001600160a01b0390941660e052506200034f92505050565b600080546001600160a01b038381166001600160a01b0319831681178455604051919092169283917f8be0079c531659141344cd1fd0a4f28419497f9722a3daafe3b4186f6b6457e09190a35050565b80516001600160a01b0381168114620002c257600080fd5b919050565b60008060008060808587031215620002de57600080fd5b620002e985620002aa565b9350620002f960208601620002aa565b92506200030960408601620002aa565b91506200031960608601620002aa565b905092959194509250565b6000602082840312156200033757600080fd5b815180151581146200034857600080fd5b9392505050565b60805160a05160c05160e051611453620003f1600039600081816103c0015281816104b701528181610588015281816105ff01526106a201526000818160fd0152818161103a01526110db0152600081816102320152818161072d01528181610a1501528181610d6301528181610eca0152610f610152600081816101ea01528181610aee01528181610b9301528181610c0d0152610d3301526114536000f3fe6080604052600436106100c05760003560e01c8063715018a611610074578063bf33a1f51161004e578063bf33a1f51461020e578063c89039c514610223578063f2fde38b1461025657600080fd5b8063715018a6146101a85780638da5cb5b146101bd578063a8c62e76146101db57600080fd5b80633651da8a116100a55780633651da8a1461013a57806351cff8d91461015a5780636e553f651461017a57600080fd5b80631171bda9146100cc57806317fcb39b146100ee57600080fd5b366100c757005b600080fd5b3480156100d857600080fd5b506100ec6100e73660046112c6565b610276565b005b3480156100fa57600080fd5b507f00000000000000000000000000000000000000000000000000000000000000005b6040516001600160a01b0390911681526020015b60405180910390f35b34801561014657600080fd5b506100ec610155366004611302565b61034e565b34801561016657600080fd5b506100ec61017536600461132c565b61088d565b34801561018657600080fd5b5061019a61019536600461134e565b61092f565b604051908152602001610131565b3480156101b457600080fd5b506100ec610c9d565b3480156101c957600080fd5b506000546001600160a01b031661011d565b3480156101e757600080fd5b507f000000000000000000000000000000000000000000000000000000000000000061011d565b34801561021a57600080fd5b506100ec610d03565b34801561022f57600080fd5b507f000000000000000000000000000000000000000000000000000000000000000061011d565b34801561026257600080fd5b506100ec61027136600461132c565b610dd3565b6000546001600160a01b031633146102d55760405162461bcd60e51b815260206004820181905260248201527f4f776e61626c653a2063616c6c6572206973206e6f7420746865206f776e657260448201526064015b60405180910390fd5b60405163a9059cbb60e01b81526001600160a01b0384811660048301526024820183905283169063a9059cbb906044016020604051808303816000875af1158015610324573d6000803e3d6000fd5b505050506040513d601f19601f82011682018060405250810190610348919061137a565b50505050565b6000546001600160a01b031633146103a85760405162461bcd60e51b815260206004820181905260248201527f4f776e61626c653a2063616c6c6572206973206e6f7420746865206f776e657260448201526064016102cc565b6040516370a0823160e01b81523060048201526000907f00000000000000000000000000000000000000000000000000000000000000006001600160a01b0316906370a0823190602401602060405180830381865afa15801561040f573d6000803e3d6000fd5b505050506040513d601f19601f82011682018060405250810190610433919061139c565b9050600081116104855760405162461bcd60e51b815260206004820152601360248201527f466f72746946693a20302077697468647261770000000000000000000000000060448201526064016102cc565b6040517feab89a5a000000000000000000000000000000000000000000000000000000008152600481018290526000907f00000000000000000000000000000000000000000000000000000000000000006001600160a01b03169063eab89a5a90602401602060405180830381865afa158015610506573d6000803e3d6000fd5b505050506040513d601f19601f8201168201806040525081019061052a919061139c565b9050600061271061053b85826113cb565b61054590846113e4565b61054f91906113fb565b6040517f441a3e7000000000000000000000000000000000000000000000000000000000815260048101849052602481018290529091507f00000000000000000000000000000000000000000000000000000000000000006001600160a01b03169063441a3e7090604401600060405180830381600087803b1580156105d457600080fd5b505af11580156105e8573d6000803e3d6000fd5b50506040516370a0823160e01b81523060048201527f00000000000000000000000000000000000000000000000000000000000000006001600160a01b031692506370a082319150602401602060405180830381865afa158015610650573d6000803e3d6000fd5b505050506040513d601f19601f82011682018060405250810190610674919061139c565b925082156107185760405163a9059cbb60e01b81526001600160a01b038681166004830152602482018590527f0000000000000000000000000000000000000000000000000000000000000000169063a9059cbb906044016020604051808303816000875af11580156106eb573d6000803e3d6000fd5b505050506040513d601f19601f8201168201806040525081019061070f919061137a565b61071857600080fd5b6040516370a0823160e01b81523060048201527f00000000000000000000000000000000000000000000000000000000000000006001600160a01b03169063a9059cbb90339083906370a0823190602401602060405180830381865afa158015610786573d6000803e3d6000fd5b505050506040513d601f19601f820116820180604052508101906107aa919061139c565b6040517fffffffff0000000000000000000000000000000000000000000000000000000060e085901b1681526001600160a01b03909216600483015260248201526044016020604051808303816000875af115801561080d573d6000803e3d6000fd5b505050506040513d601f19601f82011682018060405250810190610831919061137a565b61087d5760405162461bcd60e51b815260206004820181905260248201527f466f72746946693a204661696c656420746f207472616e73666572206465702e60448201526064016102cc565b61088685610eb2565b5050505050565b6000546001600160a01b031633146108e75760405162461bcd60e51b815260206004820181905260248201527f4f776e61626c653a2063616c6c6572206973206e6f7420746865206f776e657260448201526064016102cc565b60405162461bcd60e51b815260206004820152601960248201527f466f72746946693a20496e76616c69642077697468647261770000000000000060448201526064016102cc565b600080546001600160a01b0316331461098a5760405162461bcd60e51b815260206004820181905260248201527f4f776e61626c653a2063616c6c6572206973206e6f7420746865206f776e657260448201526064016102cc565b600083116109da5760405162461bcd60e51b815260206004820152601260248201527f466f72746946693a2030206465706f736974000000000000000000000000000060448201526064016102cc565b6040517f23b872dd000000000000000000000000000000000000000000000000000000008152336004820152306024820152604481018490527f00000000000000000000000000000000000000000000000000000000000000006001600160a01b0316906323b872dd906064016020604051808303816000875af1158015610a66573d6000803e3d6000fd5b505050506040513d601f19601f82011682018060405250810190610a8a919061137a565b610ad65760405162461bcd60e51b815260206004820181905260248201527f466f72746946693a204661696c656420746f207472616e73666572206465702e60448201526064016102cc565b6040516370a0823160e01b81523060048201526000907f00000000000000000000000000000000000000000000000000000000000000006001600160a01b0316906370a0823190602401602060405180830381865afa158015610b3d573d6000803e3d6000fd5b505050506040513d601f19601f82011682018060405250810190610b61919061139c565b6040517fb6b55f25000000000000000000000000000000000000000000000000000000008152600481018690529091507f00000000000000000000000000000000000000000000000000000000000000006001600160a01b03169063b6b55f2590602401600060405180830381600087803b158015610bdf57600080fd5b505af1158015610bf3573d6000803e3d6000fd5b50506040516370a0823160e01b81523060048201528392507f00000000000000000000000000000000000000000000000000000000000000006001600160a01b031691506370a0823190602401602060405180830381865afa158015610c5d573d6000803e3d6000fd5b505050506040513d601f19601f82011682018060405250810190610c81919061139c565b610c8b91906113cb565b9150610c9683610eb2565b5092915050565b6000546001600160a01b03163314610cf75760405162461bcd60e51b815260206004820181905260248201527f4f776e61626c653a2063616c6c6572206973206e6f7420746865206f776e657260448201526064016102cc565b610d016000611242565b565b6040517f095ea7b30000000000000000000000000000000000000000000000000000000081526001600160a01b037f00000000000000000000000000000000000000000000000000000000000000008116600483015260001960248301527f0000000000000000000000000000000000000000000000000000000000000000169063095ea7b3906044016020604051808303816000875af1158015610dac573d6000803e3d6000fd5b505050506040513d601f19601f82011682018060405250810190610dd0919061137a565b50565b6000546001600160a01b03163314610e2d5760405162461bcd60e51b815260206004820181905260248201527f4f776e61626c653a2063616c6c6572206973206e6f7420746865206f776e657260448201526064016102cc565b6001600160a01b038116610ea95760405162461bcd60e51b815260206004820152602660248201527f4f776e61626c653a206e6577206f776e657220697320746865207a65726f206160448201527f646472657373000000000000000000000000000000000000000000000000000060648201526084016102cc565b610dd081611242565b6040516370a0823160e01b81523060048201526000907f00000000000000000000000000000000000000000000000000000000000000006001600160a01b0316906370a0823190602401602060405180830381865afa158015610f19573d6000803e3d6000fd5b505050506040513d601f19601f82011682018060405250810190610f3d919061139c565b905080156110225760405163a9059cbb60e01b8152336004820152602481018290527f00000000000000000000000000000000000000000000000000000000000000006001600160a01b03169063a9059cbb906044016020604051808303816000875af1158015610fb2573d6000803e3d6000fd5b505050506040513d601f19601f82011682018060405250810190610fd6919061137a565b6110225760405162461bcd60e51b815260206004820152601f60248201527f466f72746946693a204661696c656420746f20726566756e642045524332300060448201526064016102cc565b6040516370a0823160e01b81523060048201526000907f00000000000000000000000000000000000000000000000000000000000000006001600160a01b0316906370a0823190602401602060405180830381865afa158015611089573d6000803e3d6000fd5b505050506040513d601f19601f820116820180604052508101906110ad919061139c565b905080156111945760405163a9059cbb60e01b81526001600160a01b038481166004830152602482018390527f0000000000000000000000000000000000000000000000000000000000000000169063a9059cbb906044016020604051808303816000875af1158015611124573d6000803e3d6000fd5b505050506040513d601f19601f82011682018060405250810190611148919061137a565b6111945760405162461bcd60e51b815260206004820181905260248201527f466f72746946693a204661696c656420746f20726566756e64206e617469766560448201526064016102cc565b471561123d576000836001600160a01b03164760405160006040518083038185875af1925050503d80600081146111e7576040519150601f19603f3d011682016040523d82523d6000602084013e6111ec565b606091505b50509050806103485760405162461bcd60e51b815260206004820181905260248201527f466f72746946693a204661696c656420746f20726566756e64206e617469766560448201526064016102cc565b505050565b600080546001600160a01b038381167fffffffffffffffffffffffff0000000000000000000000000000000000000000831681178455604051919092169283917f8be0079c531659141344cd1fd0a4f28419497f9722a3daafe3b4186f6b6457e09190a35050565b80356001600160a01b03811681146112c157600080fd5b919050565b6000806000606084860312156112db57600080fd5b6112e4846112aa565b92506112f2602085016112aa565b9150604084013590509250925092565b6000806040838503121561131557600080fd5b61131e836112aa565b946020939093013593505050565b60006020828403121561133e57600080fd5b611347826112aa565b9392505050565b6000806040838503121561136157600080fd5b82359150611371602084016112aa565b90509250929050565b60006020828403121561138c57600080fd5b8151801515811461134757600080fd5b6000602082840312156113ae57600080fd5b5051919050565b634e487b7160e01b600052601160045260246000fd5b818103818111156113de576113de6113b5565b92915050565b80820281158282048414176113de576113de6113b5565b60008261141857634e487b7160e01b600052601260045260246000fd5b50049056fea26469706673582212208e9f3e9ed65af126327b41c8fd35f3c366b63f5ba97fa4f7159e28f2eaad5e1464736f6c63430008120033a2646970667358221220bdf0214b46b4118faf11105e14f225c934b9191da20f7bc2050bd9c8edccb79464736f6c63430008120033",
  "devdoc": {
    "events": {
      "Approval(address,address,uint256)": {
        "details": "Emitted when the allowance of a `spender` for an `owner` is set by a call to {approve}. `value` is the new allowance."
      },
      "Transfer(address,address,uint256)": {
        "details": "Emitted when `value` tokens are moved from one account (`from`) to another (`to`). Note that `value` may be zero."
      }
    },
    "kind": "dev",
    "methods": {
      "allowance(address,address)": {
        "details": "See {IERC20-allowance}."
      },
      "approve(address,uint256)": {
        "details": "See {IERC20-approve}. NOTE: If `amount` is the maximum `uint256`, the allowance is not updated on `transferFrom`. This is semantically equivalent to an infinite approval. Requirements: - `spender` cannot be the zero address."
      },
      "balanceOf(address)": {
        "details": "See {IERC20-balanceOf}."
      },
      "decimals()": {
        "details": "Returns the number of decimals used to get its user representation. For example, if `decimals` equals `2`, a balance of `505` tokens should be displayed to a user as `5.05` (`505 / 10 ** 2`). Tokens usually opt for a value of 18, imitating the relationship between Ether and Wei. This is the value {ERC20} uses, unless this function is overridden; NOTE: This information is only used for _display_ purposes: it in no way affects any of the arithmetic of the contract, including {IERC20-balanceOf} and {IERC20-transfer}."
      },
      "decreaseAllowance(address,uint256)": {
        "details": "Atomically decreases the allowance granted to `spender` by the caller. This is an alternative to {approve} that can be used as a mitigation for problems described in {IERC20-approve}. Emits an {Approval} event indicating the updated allowance. Requirements: - `spender` cannot be the zero address. - `spender` must have allowance for the caller of at least `subtractedValue`."
      },
      "depositToFortress(uint256,address,uint256)": {
        "details": "If a user has not deposited previously, this function will deploy a FortiFiVectorFortress contract instead of the base FortiFiFortress contract"
      },
      "increaseAllowance(address,uint256)": {
        "details": "Atomically increases the allowance granted to `spender` by the caller. This is an alternative to {approve} that can be used as a mitigation for problems described in {IERC20-approve}. Emits an {Approval} event indicating the updated allowance. Requirements: - `spender` cannot be the zero address."
      },
      "name()": {
        "details": "Returns the name of the token."
      },
      "owner()": {
        "details": "Returns the address of the current owner."
      },
      "renounceOwnership()": {
        "details": "Leaves the contract without owner. It will not be possible to call `onlyOwner` functions anymore. Can only be called by the current owner. NOTE: Renouncing ownership will leave the contract without an owner, thereby removing any functionality that is only available to the owner."
      },
      "symbol()": {
        "details": "Returns the symbol of the token, usually a shorter version of the name."
      },
      "totalSupply()": {
        "details": "See {IERC20-totalSupply}."
      },
      "transfer(address,uint256)": {
        "details": "See {IERC20-transfer}. Requirements: - `to` cannot be the zero address. - the caller must have a balance of at least `amount`."
      },
      "transferFrom(address,address,uint256)": {
        "details": "See {IERC20-transferFrom}. Emits an {Approval} event indicating the updated allowance. This is not required by the EIP. See the note at the beginning of {ERC20}. NOTE: Does not update the allowance if the current allowance is the maximum `uint256`. Requirements: - `from` and `to` cannot be the zero address. - `from` must have a balance of at least `amount`. - the caller must have allowance for ``from``'s tokens of at least `amount`."
      },
      "transferOwnership(address)": {
        "details": "Transfers ownership of the contract to a new account (`newOwner`). Can only be called by the current owner."
      },
      "withdrawFromFortress(uint256,address,uint256)": {
        "details": "Override is required because Vector Fortresses need slippage passed in to withdrawal function"
      }
    },
    "title": "Delta Prime FortiFi Strategy contract",
    "version": 1
  },
  "userdoc": {
    "kind": "user",
    "methods": {
      "depositToFortress(uint256,address,uint256)": {
        "notice": "Function to deposit"
      },
      "depositToken()": {
        "notice": "View function to return specified deposit token address"
      },
      "recoverERC20(address,uint256)": {
        "notice": "Emergency function to recover stuck tokens"
      },
      "recoverFromFortress(address,address,uint256)": {
        "notice": "Emergency function to recover stuck tokens from Fortress"
      },
      "setSlippage(uint16)": {
        "notice": "Function to set the slippage if 1% is not sufficient"
      },
      "setVault(address,bool)": {
        "notice": "Set valid vaults"
      },
      "strategy()": {
        "notice": "View function to return specified underlying strategy address"
      },
      "withdrawFromFortress(uint256,address,uint256)": {
        "notice": "Function to withdraw"
      },
      "wrappedNativeToken()": {
        "notice": "View function to return specified wrapped native token address"
      }
    },
    "notice": "This contract allows for FortiFi vaults to utilize Vector Finance strategies. ",
    "version": 1
  },
  "storageLayout": {
    "storage": [
      {
        "astId": 7,
        "contract": "contracts/strategies/FortiFiVectorStrategy.sol:FortiFiVectorStrategy",
        "label": "_owner",
        "offset": 0,
        "slot": "0",
        "type": "t_address"
      },
      {
        "astId": 1567,
        "contract": "contracts/strategies/FortiFiVectorStrategy.sol:FortiFiVectorStrategy",
        "label": "_balances",
        "offset": 0,
        "slot": "1",
        "type": "t_mapping(t_address,t_uint256)"
      },
      {
        "astId": 1573,
        "contract": "contracts/strategies/FortiFiVectorStrategy.sol:FortiFiVectorStrategy",
        "label": "_allowances",
        "offset": 0,
        "slot": "2",
        "type": "t_mapping(t_address,t_mapping(t_address,t_uint256))"
      },
      {
        "astId": 1575,
        "contract": "contracts/strategies/FortiFiVectorStrategy.sol:FortiFiVectorStrategy",
        "label": "_totalSupply",
        "offset": 0,
        "slot": "3",
        "type": "t_uint256"
      },
      {
        "astId": 1577,
        "contract": "contracts/strategies/FortiFiVectorStrategy.sol:FortiFiVectorStrategy",
        "label": "_name",
        "offset": 0,
        "slot": "4",
        "type": "t_string_storage"
      },
      {
        "astId": 1579,
        "contract": "contracts/strategies/FortiFiVectorStrategy.sol:FortiFiVectorStrategy",
        "label": "_symbol",
        "offset": 0,
        "slot": "5",
        "type": "t_string_storage"
      },
      {
        "astId": 7422,
        "contract": "contracts/strategies/FortiFiVectorStrategy.sol:FortiFiVectorStrategy",
        "label": "isFortiFiVault",
        "offset": 0,
        "slot": "6",
        "type": "t_mapping(t_address,t_bool)"
      },
      {
        "astId": 7428,
        "contract": "contracts/strategies/FortiFiVectorStrategy.sol:FortiFiVectorStrategy",
        "label": "vaultToTokenToFortress",
        "offset": 0,
        "slot": "7",
        "type": "t_mapping(t_address,t_mapping(t_uint256,t_address))"
      },
      {
        "astId": 8027,
        "contract": "contracts/strategies/FortiFiVectorStrategy.sol:FortiFiVectorStrategy",
        "label": "slippageBps",
        "offset": 0,
        "slot": "8",
        "type": "t_uint256"
      }
    ],
    "types": {
      "t_address": {
        "encoding": "inplace",
        "label": "address",
        "numberOfBytes": "20"
      },
      "t_bool": {
        "encoding": "inplace",
        "label": "bool",
        "numberOfBytes": "1"
      },
      "t_mapping(t_address,t_bool)": {
        "encoding": "mapping",
        "key": "t_address",
        "label": "mapping(address => bool)",
        "numberOfBytes": "32",
        "value": "t_bool"
      },
      "t_mapping(t_address,t_mapping(t_address,t_uint256))": {
        "encoding": "mapping",
        "key": "t_address",
        "label": "mapping(address => mapping(address => uint256))",
        "numberOfBytes": "32",
        "value": "t_mapping(t_address,t_uint256)"
      },
      "t_mapping(t_address,t_mapping(t_uint256,t_address))": {
        "encoding": "mapping",
        "key": "t_address",
        "label": "mapping(address => mapping(uint256 => address))",
        "numberOfBytes": "32",
        "value": "t_mapping(t_uint256,t_address)"
      },
      "t_mapping(t_address,t_uint256)": {
        "encoding": "mapping",
        "key": "t_address",
        "label": "mapping(address => uint256)",
        "numberOfBytes": "32",
        "value": "t_uint256"
      },
      "t_mapping(t_uint256,t_address)": {
        "encoding": "mapping",
        "key": "t_uint256",
        "label": "mapping(uint256 => address)",
        "numberOfBytes": "32",
        "value": "t_address"
      },
      "t_string_storage": {
        "encoding": "bytes",
        "label": "string",
        "numberOfBytes": "32"
      },
      "t_uint256": {
        "encoding": "inplace",
        "label": "uint256",
        "numberOfBytes": "32"
      }
    }
  }
}