{
  "address": "0x404B5627b4957B515e5Bee9635Ff48dCfA71983E",
  "abi": [
    {
      "inputs": [
        {
          "internalType": "string",
          "name": "_name",
          "type": "string"
        },
        {
          "internalType": "string",
          "name": "_symbol",
          "type": "string"
        },
        {
          "internalType": "string",
          "name": "_metadata",
          "type": "string"
        },
        {
          "internalType": "address",
          "name": "_wrappedNative",
          "type": "address"
        },
        {
          "internalType": "address",
          "name": "_depositToken",
          "type": "address"
        },
        {
          "internalType": "address",
          "name": "_feeManager",
          "type": "address"
        },
        {
          "internalType": "address",
          "name": "_feeCalculator",
          "type": "address"
        },
        {
          "components": [
            {
              "internalType": "address",
              "name": "strategy",
              "type": "address"
            },
            {
              "internalType": "address",
              "name": "depositToken",
              "type": "address"
            },
            {
              "internalType": "address",
              "name": "router",
              "type": "address"
            },
            {
              "internalType": "bool",
              "name": "isFortiFi",
              "type": "bool"
            },
            {
              "internalType": "bool",
              "name": "isSAMS",
              "type": "bool"
            },
            {
              "internalType": "uint16",
              "name": "bps",
              "type": "uint16"
            }
          ],
          "internalType": "struct IMASS.Strategy[]",
          "name": "_strategies",
          "type": "tuple[]"
        }
      ],
      "stateMutability": "nonpayable",
      "type": "constructor"
    },
    {
      "anonymous": false,
      "inputs": [
        {
          "indexed": true,
          "internalType": "address",
          "name": "depositor",
          "type": "address"
        },
        {
          "indexed": true,
          "internalType": "uint256",
          "name": "tokenId",
          "type": "uint256"
        },
        {
          "indexed": false,
          "internalType": "uint256",
          "name": "amount",
          "type": "uint256"
        },
        {
          "components": [
            {
              "internalType": "uint256",
              "name": "deposit",
              "type": "uint256"
            },
            {
              "components": [
                {
                  "components": [
                    {
                      "internalType": "address",
                      "name": "strategy",
                      "type": "address"
                    },
                    {
                      "internalType": "address",
                      "name": "depositToken",
                      "type": "address"
                    },
                    {
                      "internalType": "address",
                      "name": "router",
                      "type": "address"
                    },
                    {
                      "internalType": "bool",
                      "name": "isFortiFi",
                      "type": "bool"
                    },
                    {
                      "internalType": "bool",
                      "name": "isSAMS",
                      "type": "bool"
                    },
                    {
                      "internalType": "uint16",
                      "name": "bps",
                      "type": "uint16"
                    }
                  ],
                  "internalType": "struct IMASS.Strategy",
                  "name": "strategy",
                  "type": "tuple"
                },
                {
                  "internalType": "uint256",
                  "name": "receipt",
                  "type": "uint256"
                }
              ],
              "internalType": "struct IMASS.Position[]",
              "name": "positions",
              "type": "tuple[]"
            }
          ],
          "indexed": false,
          "internalType": "struct IMASS.TokenInfo",
          "name": "tokenInfo",
          "type": "tuple"
        }
      ],
      "name": "Add",
      "type": "event"
    },
    {
      "anonymous": false,
      "inputs": [
        {
          "indexed": true,
          "internalType": "address",
          "name": "account",
          "type": "address"
        },
        {
          "indexed": true,
          "internalType": "address",
          "name": "operator",
          "type": "address"
        },
        {
          "indexed": false,
          "internalType": "bool",
          "name": "approved",
          "type": "bool"
        }
      ],
      "name": "ApprovalForAll",
      "type": "event"
    },
    {
      "anonymous": false,
      "inputs": [
        {
          "indexed": true,
          "internalType": "address",
          "name": "depositor",
          "type": "address"
        },
        {
          "indexed": true,
          "internalType": "uint256",
          "name": "tokenId",
          "type": "uint256"
        },
        {
          "indexed": false,
          "internalType": "uint256",
          "name": "amount",
          "type": "uint256"
        },
        {
          "components": [
            {
              "internalType": "uint256",
              "name": "deposit",
              "type": "uint256"
            },
            {
              "components": [
                {
                  "components": [
                    {
                      "internalType": "address",
                      "name": "strategy",
                      "type": "address"
                    },
                    {
                      "internalType": "address",
                      "name": "depositToken",
                      "type": "address"
                    },
                    {
                      "internalType": "address",
                      "name": "router",
                      "type": "address"
                    },
                    {
                      "internalType": "bool",
                      "name": "isFortiFi",
                      "type": "bool"
                    },
                    {
                      "internalType": "bool",
                      "name": "isSAMS",
                      "type": "bool"
                    },
                    {
                      "internalType": "uint16",
                      "name": "bps",
                      "type": "uint16"
                    }
                  ],
                  "internalType": "struct IMASS.Strategy",
                  "name": "strategy",
                  "type": "tuple"
                },
                {
                  "internalType": "uint256",
                  "name": "receipt",
                  "type": "uint256"
                }
              ],
              "internalType": "struct IMASS.Position[]",
              "name": "positions",
              "type": "tuple[]"
            }
          ],
          "indexed": false,
          "internalType": "struct IMASS.TokenInfo",
          "name": "tokenInfo",
          "type": "tuple"
        }
      ],
      "name": "Deposit",
      "type": "event"
    },
    {
      "anonymous": false,
      "inputs": [
        {
          "indexed": true,
          "internalType": "address",
          "name": "previousOwner",
          "type": "address"
        },
        {
          "indexed": true,
          "internalType": "address",
          "name": "newOwner",
          "type": "address"
        }
      ],
      "name": "OwnershipTransferred",
      "type": "event"
    },
    {
      "anonymous": false,
      "inputs": [
        {
          "indexed": true,
          "internalType": "uint256",
          "name": "tokenId",
          "type": "uint256"
        },
        {
          "indexed": false,
          "internalType": "uint256",
          "name": "amount",
          "type": "uint256"
        },
        {
          "components": [
            {
              "internalType": "uint256",
              "name": "deposit",
              "type": "uint256"
            },
            {
              "components": [
                {
                  "components": [
                    {
                      "internalType": "address",
                      "name": "strategy",
                      "type": "address"
                    },
                    {
                      "internalType": "address",
                      "name": "depositToken",
                      "type": "address"
                    },
                    {
                      "internalType": "address",
                      "name": "router",
                      "type": "address"
                    },
                    {
                      "internalType": "bool",
                      "name": "isFortiFi",
                      "type": "bool"
                    },
                    {
                      "internalType": "bool",
                      "name": "isSAMS",
                      "type": "bool"
                    },
                    {
                      "internalType": "uint16",
                      "name": "bps",
                      "type": "uint16"
                    }
                  ],
                  "internalType": "struct IMASS.Strategy",
                  "name": "strategy",
                  "type": "tuple"
                },
                {
                  "internalType": "uint256",
                  "name": "receipt",
                  "type": "uint256"
                }
              ],
              "internalType": "struct IMASS.Position[]",
              "name": "positions",
              "type": "tuple[]"
            }
          ],
          "indexed": false,
          "internalType": "struct IMASS.TokenInfo",
          "name": "tokenInfo",
          "type": "tuple"
        }
      ],
      "name": "Rebalance",
      "type": "event"
    },
    {
      "anonymous": false,
      "inputs": [
        {
          "indexed": true,
          "internalType": "address",
          "name": "operator",
          "type": "address"
        },
        {
          "indexed": true,
          "internalType": "address",
          "name": "from",
          "type": "address"
        },
        {
          "indexed": true,
          "internalType": "address",
          "name": "to",
          "type": "address"
        },
        {
          "indexed": false,
          "internalType": "uint256[]",
          "name": "ids",
          "type": "uint256[]"
        },
        {
          "indexed": false,
          "internalType": "uint256[]",
          "name": "values",
          "type": "uint256[]"
        }
      ],
      "name": "TransferBatch",
      "type": "event"
    },
    {
      "anonymous": false,
      "inputs": [
        {
          "indexed": true,
          "internalType": "address",
          "name": "operator",
          "type": "address"
        },
        {
          "indexed": true,
          "internalType": "address",
          "name": "from",
          "type": "address"
        },
        {
          "indexed": true,
          "internalType": "address",
          "name": "to",
          "type": "address"
        },
        {
          "indexed": false,
          "internalType": "uint256",
          "name": "id",
          "type": "uint256"
        },
        {
          "indexed": false,
          "internalType": "uint256",
          "name": "value",
          "type": "uint256"
        }
      ],
      "name": "TransferSingle",
      "type": "event"
    },
    {
      "anonymous": false,
      "inputs": [
        {
          "indexed": false,
          "internalType": "string",
          "name": "value",
          "type": "string"
        },
        {
          "indexed": true,
          "internalType": "uint256",
          "name": "id",
          "type": "uint256"
        }
      ],
      "name": "URI",
      "type": "event"
    },
    {
      "anonymous": false,
      "inputs": [
        {
          "indexed": true,
          "internalType": "address",
          "name": "depositor",
          "type": "address"
        },
        {
          "indexed": true,
          "internalType": "uint256",
          "name": "tokenId",
          "type": "uint256"
        },
        {
          "indexed": false,
          "internalType": "uint256",
          "name": "amountWithdrawn",
          "type": "uint256"
        },
        {
          "indexed": false,
          "internalType": "uint256",
          "name": "profit",
          "type": "uint256"
        },
        {
          "indexed": false,
          "internalType": "uint256",
          "name": "fee",
          "type": "uint256"
        }
      ],
      "name": "Withdrawal",
      "type": "event"
    },
    {
      "inputs": [],
      "name": "BPS",
      "outputs": [
        {
          "internalType": "uint16",
          "name": "",
          "type": "uint16"
        }
      ],
      "stateMutability": "view",
      "type": "function"
    },
    {
      "inputs": [
        {
          "internalType": "uint256",
          "name": "_amount",
          "type": "uint256"
        },
        {
          "internalType": "uint256",
          "name": "_tokenId",
          "type": "uint256"
        }
      ],
      "name": "add",
      "outputs": [
        {
          "components": [
            {
              "internalType": "uint256",
              "name": "deposit",
              "type": "uint256"
            },
            {
              "components": [
                {
                  "components": [
                    {
                      "internalType": "address",
                      "name": "strategy",
                      "type": "address"
                    },
                    {
                      "internalType": "address",
                      "name": "depositToken",
                      "type": "address"
                    },
                    {
                      "internalType": "address",
                      "name": "router",
                      "type": "address"
                    },
                    {
                      "internalType": "bool",
                      "name": "isFortiFi",
                      "type": "bool"
                    },
                    {
                      "internalType": "bool",
                      "name": "isSAMS",
                      "type": "bool"
                    },
                    {
                      "internalType": "uint16",
                      "name": "bps",
                      "type": "uint16"
                    }
                  ],
                  "internalType": "struct IMASS.Strategy",
                  "name": "strategy",
                  "type": "tuple"
                },
                {
                  "internalType": "uint256",
                  "name": "receipt",
                  "type": "uint256"
                }
              ],
              "internalType": "struct IMASS.Position[]",
              "name": "positions",
              "type": "tuple[]"
            }
          ],
          "internalType": "struct IMASS.TokenInfo",
          "name": "_info",
          "type": "tuple"
        }
      ],
      "stateMutability": "nonpayable",
      "type": "function"
    },
    {
      "inputs": [
        {
          "internalType": "address",
          "name": "account",
          "type": "address"
        },
        {
          "internalType": "uint256",
          "name": "id",
          "type": "uint256"
        }
      ],
      "name": "balanceOf",
      "outputs": [
        {
          "internalType": "uint256",
          "name": "",
          "type": "uint256"
        }
      ],
      "stateMutability": "view",
      "type": "function"
    },
    {
      "inputs": [
        {
          "internalType": "address[]",
          "name": "accounts",
          "type": "address[]"
        },
        {
          "internalType": "uint256[]",
          "name": "ids",
          "type": "uint256[]"
        }
      ],
      "name": "balanceOfBatch",
      "outputs": [
        {
          "internalType": "uint256[]",
          "name": "",
          "type": "uint256[]"
        }
      ],
      "stateMutability": "view",
      "type": "function"
    },
    {
      "inputs": [
        {
          "internalType": "uint256",
          "name": "_amount",
          "type": "uint256"
        }
      ],
      "name": "deposit",
      "outputs": [
        {
          "internalType": "uint256",
          "name": "_tokenId",
          "type": "uint256"
        },
        {
          "components": [
            {
              "internalType": "uint256",
              "name": "deposit",
              "type": "uint256"
            },
            {
              "components": [
                {
                  "components": [
                    {
                      "internalType": "address",
                      "name": "strategy",
                      "type": "address"
                    },
                    {
                      "internalType": "address",
                      "name": "depositToken",
                      "type": "address"
                    },
                    {
                      "internalType": "address",
                      "name": "router",
                      "type": "address"
                    },
                    {
                      "internalType": "bool",
                      "name": "isFortiFi",
                      "type": "bool"
                    },
                    {
                      "internalType": "bool",
                      "name": "isSAMS",
                      "type": "bool"
                    },
                    {
                      "internalType": "uint16",
                      "name": "bps",
                      "type": "uint16"
                    }
                  ],
                  "internalType": "struct IMASS.Strategy",
                  "name": "strategy",
                  "type": "tuple"
                },
                {
                  "internalType": "uint256",
                  "name": "receipt",
                  "type": "uint256"
                }
              ],
              "internalType": "struct IMASS.Position[]",
              "name": "positions",
              "type": "tuple[]"
            }
          ],
          "internalType": "struct IMASS.TokenInfo",
          "name": "_info",
          "type": "tuple"
        }
      ],
      "stateMutability": "nonpayable",
      "type": "function"
    },
    {
      "inputs": [],
      "name": "depositToken",
      "outputs": [
        {
          "internalType": "address",
          "name": "",
          "type": "address"
        }
      ],
      "stateMutability": "view",
      "type": "function"
    },
    {
      "inputs": [
        {
          "internalType": "uint256",
          "name": "id",
          "type": "uint256"
        }
      ],
      "name": "exists",
      "outputs": [
        {
          "internalType": "bool",
          "name": "",
          "type": "bool"
        }
      ],
      "stateMutability": "view",
      "type": "function"
    },
    {
      "inputs": [],
      "name": "feeCalc",
      "outputs": [
        {
          "internalType": "contract IFortiFiFeeCalculator",
          "name": "",
          "type": "address"
        }
      ],
      "stateMutability": "view",
      "type": "function"
    },
    {
      "inputs": [],
      "name": "feeMgr",
      "outputs": [
        {
          "internalType": "contract IFortiFiFeeManager",
          "name": "",
          "type": "address"
        }
      ],
      "stateMutability": "view",
      "type": "function"
    },
    {
      "inputs": [],
      "name": "flipPaused",
      "outputs": [],
      "stateMutability": "nonpayable",
      "type": "function"
    },
    {
      "inputs": [
        {
          "internalType": "uint256",
          "name": "_tokenId",
          "type": "uint256"
        }
      ],
      "name": "getTokenInfo",
      "outputs": [
        {
          "components": [
            {
              "internalType": "uint256",
              "name": "deposit",
              "type": "uint256"
            },
            {
              "components": [
                {
                  "components": [
                    {
                      "internalType": "address",
                      "name": "strategy",
                      "type": "address"
                    },
                    {
                      "internalType": "address",
                      "name": "depositToken",
                      "type": "address"
                    },
                    {
                      "internalType": "address",
                      "name": "router",
                      "type": "address"
                    },
                    {
                      "internalType": "bool",
                      "name": "isFortiFi",
                      "type": "bool"
                    },
                    {
                      "internalType": "bool",
                      "name": "isSAMS",
                      "type": "bool"
                    },
                    {
                      "internalType": "uint16",
                      "name": "bps",
                      "type": "uint16"
                    }
                  ],
                  "internalType": "struct IMASS.Strategy",
                  "name": "strategy",
                  "type": "tuple"
                },
                {
                  "internalType": "uint256",
                  "name": "receipt",
                  "type": "uint256"
                }
              ],
              "internalType": "struct IMASS.Position[]",
              "name": "positions",
              "type": "tuple[]"
            }
          ],
          "internalType": "struct IMASS.TokenInfo",
          "name": "",
          "type": "tuple"
        }
      ],
      "stateMutability": "view",
      "type": "function"
    },
    {
      "inputs": [
        {
          "internalType": "address",
          "name": "account",
          "type": "address"
        },
        {
          "internalType": "address",
          "name": "operator",
          "type": "address"
        }
      ],
      "name": "isApprovedForAll",
      "outputs": [
        {
          "internalType": "bool",
          "name": "",
          "type": "bool"
        }
      ],
      "stateMutability": "view",
      "type": "function"
    },
    {
      "inputs": [],
      "name": "minDeposit",
      "outputs": [
        {
          "internalType": "uint256",
          "name": "",
          "type": "uint256"
        }
      ],
      "stateMutability": "view",
      "type": "function"
    },
    {
      "inputs": [],
      "name": "name",
      "outputs": [
        {
          "internalType": "string",
          "name": "",
          "type": "string"
        }
      ],
      "stateMutability": "view",
      "type": "function"
    },
    {
      "inputs": [],
      "name": "nextToken",
      "outputs": [
        {
          "internalType": "uint256",
          "name": "",
          "type": "uint256"
        }
      ],
      "stateMutability": "view",
      "type": "function"
    },
    {
      "inputs": [
        {
          "internalType": "address",
          "name": "",
          "type": "address"
        },
        {
          "internalType": "address",
          "name": "",
          "type": "address"
        },
        {
          "internalType": "uint256[]",
          "name": "",
          "type": "uint256[]"
        },
        {
          "internalType": "uint256[]",
          "name": "",
          "type": "uint256[]"
        },
        {
          "internalType": "bytes",
          "name": "",
          "type": "bytes"
        }
      ],
      "name": "onERC1155BatchReceived",
      "outputs": [
        {
          "internalType": "bytes4",
          "name": "",
          "type": "bytes4"
        }
      ],
      "stateMutability": "nonpayable",
      "type": "function"
    },
    {
      "inputs": [
        {
          "internalType": "address",
          "name": "",
          "type": "address"
        },
        {
          "internalType": "address",
          "name": "",
          "type": "address"
        },
        {
          "internalType": "uint256",
          "name": "",
          "type": "uint256"
        },
        {
          "internalType": "uint256",
          "name": "",
          "type": "uint256"
        },
        {
          "internalType": "bytes",
          "name": "",
          "type": "bytes"
        }
      ],
      "name": "onERC1155Received",
      "outputs": [
        {
          "internalType": "bytes4",
          "name": "",
          "type": "bytes4"
        }
      ],
      "stateMutability": "nonpayable",
      "type": "function"
    },
    {
      "inputs": [],
      "name": "owner",
      "outputs": [
        {
          "internalType": "address",
          "name": "",
          "type": "address"
        }
      ],
      "stateMutability": "view",
      "type": "function"
    },
    {
      "inputs": [],
      "name": "paused",
      "outputs": [
        {
          "internalType": "bool",
          "name": "",
          "type": "bool"
        }
      ],
      "stateMutability": "view",
      "type": "function"
    },
    {
      "inputs": [
        {
          "internalType": "uint256",
          "name": "_tokenId",
          "type": "uint256"
        }
      ],
      "name": "rebalance",
      "outputs": [
        {
          "components": [
            {
              "internalType": "uint256",
              "name": "deposit",
              "type": "uint256"
            },
            {
              "components": [
                {
                  "components": [
                    {
                      "internalType": "address",
                      "name": "strategy",
                      "type": "address"
                    },
                    {
                      "internalType": "address",
                      "name": "depositToken",
                      "type": "address"
                    },
                    {
                      "internalType": "address",
                      "name": "router",
                      "type": "address"
                    },
                    {
                      "internalType": "bool",
                      "name": "isFortiFi",
                      "type": "bool"
                    },
                    {
                      "internalType": "bool",
                      "name": "isSAMS",
                      "type": "bool"
                    },
                    {
                      "internalType": "uint16",
                      "name": "bps",
                      "type": "uint16"
                    }
                  ],
                  "internalType": "struct IMASS.Strategy",
                  "name": "strategy",
                  "type": "tuple"
                },
                {
                  "internalType": "uint256",
                  "name": "receipt",
                  "type": "uint256"
                }
              ],
              "internalType": "struct IMASS.Position[]",
              "name": "positions",
              "type": "tuple[]"
            }
          ],
          "internalType": "struct IMASS.TokenInfo",
          "name": "",
          "type": "tuple"
        }
      ],
      "stateMutability": "nonpayable",
      "type": "function"
    },
    {
      "inputs": [
        {
          "internalType": "address",
          "name": "_token",
          "type": "address"
        },
        {
          "internalType": "uint256[]",
          "name": "_tokenIds",
          "type": "uint256[]"
        },
        {
          "internalType": "uint256[]",
          "name": "_amounts",
          "type": "uint256[]"
        }
      ],
      "name": "recoverERC1155",
      "outputs": [],
      "stateMutability": "nonpayable",
      "type": "function"
    },
    {
      "inputs": [
        {
          "internalType": "address",
          "name": "_token",
          "type": "address"
        },
        {
          "internalType": "uint256",
          "name": "_amount",
          "type": "uint256"
        }
      ],
      "name": "recoverERC20",
      "outputs": [],
      "stateMutability": "nonpayable",
      "type": "function"
    },
    {
      "inputs": [],
      "name": "refreshApprovals",
      "outputs": [],
      "stateMutability": "nonpayable",
      "type": "function"
    },
    {
      "inputs": [],
      "name": "renounceOwnership",
      "outputs": [],
      "stateMutability": "nonpayable",
      "type": "function"
    },
    {
      "inputs": [
        {
          "internalType": "address",
          "name": "from",
          "type": "address"
        },
        {
          "internalType": "address",
          "name": "to",
          "type": "address"
        },
        {
          "internalType": "uint256[]",
          "name": "ids",
          "type": "uint256[]"
        },
        {
          "internalType": "uint256[]",
          "name": "amounts",
          "type": "uint256[]"
        },
        {
          "internalType": "bytes",
          "name": "data",
          "type": "bytes"
        }
      ],
      "name": "safeBatchTransferFrom",
      "outputs": [],
      "stateMutability": "nonpayable",
      "type": "function"
    },
    {
      "inputs": [
        {
          "internalType": "address",
          "name": "from",
          "type": "address"
        },
        {
          "internalType": "address",
          "name": "to",
          "type": "address"
        },
        {
          "internalType": "uint256",
          "name": "id",
          "type": "uint256"
        },
        {
          "internalType": "uint256",
          "name": "amount",
          "type": "uint256"
        },
        {
          "internalType": "bytes",
          "name": "data",
          "type": "bytes"
        }
      ],
      "name": "safeTransferFrom",
      "outputs": [],
      "stateMutability": "nonpayable",
      "type": "function"
    },
    {
      "inputs": [
        {
          "internalType": "address",
          "name": "operator",
          "type": "address"
        },
        {
          "internalType": "bool",
          "name": "approved",
          "type": "bool"
        }
      ],
      "name": "setApprovalForAll",
      "outputs": [],
      "stateMutability": "nonpayable",
      "type": "function"
    },
    {
      "inputs": [
        {
          "internalType": "address",
          "name": "_contract",
          "type": "address"
        }
      ],
      "name": "setFeeCalculator",
      "outputs": [],
      "stateMutability": "nonpayable",
      "type": "function"
    },
    {
      "inputs": [
        {
          "internalType": "address",
          "name": "_contract",
          "type": "address"
        }
      ],
      "name": "setFeeManager",
      "outputs": [],
      "stateMutability": "nonpayable",
      "type": "function"
    },
    {
      "inputs": [
        {
          "internalType": "uint256",
          "name": "_amount",
          "type": "uint256"
        }
      ],
      "name": "setMinDeposit",
      "outputs": [],
      "stateMutability": "nonpayable",
      "type": "function"
    },
    {
      "inputs": [
        {
          "internalType": "uint16",
          "name": "_amount",
          "type": "uint16"
        }
      ],
      "name": "setSlippage",
      "outputs": [],
      "stateMutability": "nonpayable",
      "type": "function"
    },
    {
      "inputs": [
        {
          "components": [
            {
              "internalType": "address",
              "name": "strategy",
              "type": "address"
            },
            {
              "internalType": "address",
              "name": "depositToken",
              "type": "address"
            },
            {
              "internalType": "address",
              "name": "router",
              "type": "address"
            },
            {
              "internalType": "bool",
              "name": "isFortiFi",
              "type": "bool"
            },
            {
              "internalType": "bool",
              "name": "isSAMS",
              "type": "bool"
            },
            {
              "internalType": "uint16",
              "name": "bps",
              "type": "uint16"
            }
          ],
          "internalType": "struct IMASS.Strategy[]",
          "name": "_strategies",
          "type": "tuple[]"
        }
      ],
      "name": "setStrategies",
      "outputs": [],
      "stateMutability": "nonpayable",
      "type": "function"
    },
    {
      "inputs": [],
      "name": "slippageBps",
      "outputs": [
        {
          "internalType": "uint16",
          "name": "",
          "type": "uint16"
        }
      ],
      "stateMutability": "view",
      "type": "function"
    },
    {
      "inputs": [
        {
          "internalType": "uint256",
          "name": "",
          "type": "uint256"
        }
      ],
      "name": "strategies",
      "outputs": [
        {
          "internalType": "address",
          "name": "strategy",
          "type": "address"
        },
        {
          "internalType": "address",
          "name": "depositToken",
          "type": "address"
        },
        {
          "internalType": "address",
          "name": "router",
          "type": "address"
        },
        {
          "internalType": "bool",
          "name": "isFortiFi",
          "type": "bool"
        },
        {
          "internalType": "bool",
          "name": "isSAMS",
          "type": "bool"
        },
        {
          "internalType": "uint16",
          "name": "bps",
          "type": "uint16"
        }
      ],
      "stateMutability": "view",
      "type": "function"
    },
    {
      "inputs": [
        {
          "internalType": "bytes4",
          "name": "interfaceId",
          "type": "bytes4"
        }
      ],
      "name": "supportsInterface",
      "outputs": [
        {
          "internalType": "bool",
          "name": "",
          "type": "bool"
        }
      ],
      "stateMutability": "view",
      "type": "function"
    },
    {
      "inputs": [],
      "name": "symbol",
      "outputs": [
        {
          "internalType": "string",
          "name": "",
          "type": "string"
        }
      ],
      "stateMutability": "view",
      "type": "function"
    },
    {
      "inputs": [
        {
          "internalType": "uint256",
          "name": "id",
          "type": "uint256"
        }
      ],
      "name": "totalSupply",
      "outputs": [
        {
          "internalType": "uint256",
          "name": "",
          "type": "uint256"
        }
      ],
      "stateMutability": "view",
      "type": "function"
    },
    {
      "inputs": [
        {
          "internalType": "address",
          "name": "newOwner",
          "type": "address"
        }
      ],
      "name": "transferOwnership",
      "outputs": [],
      "stateMutability": "nonpayable",
      "type": "function"
    },
    {
      "inputs": [
        {
          "internalType": "uint256",
          "name": "",
          "type": "uint256"
        }
      ],
      "name": "uri",
      "outputs": [
        {
          "internalType": "string",
          "name": "",
          "type": "string"
        }
      ],
      "stateMutability": "view",
      "type": "function"
    },
    {
      "inputs": [
        {
          "internalType": "uint256",
          "name": "_tokenId",
          "type": "uint256"
        }
      ],
      "name": "withdraw",
      "outputs": [],
      "stateMutability": "nonpayable",
      "type": "function"
    },
    {
      "inputs": [],
      "name": "wrappedNative",
      "outputs": [
        {
          "internalType": "address",
          "name": "",
          "type": "address"
        }
      ],
      "stateMutability": "view",
      "type": "function"
    },
    {
      "stateMutability": "payable",
      "type": "receive"
    }
  ],
  "transactionHash": "0x807d89ed30100030d6875d7b53c9ff1ee508cc776a5aa485a251e1b055315cc3",
  "args": [
    "Test MASS - BTCb-USDC",
    "tmBTCbUSDC",
    "https://ipfs.io/ipfs/bafybeign4hbi6desilmocupj3hlxj3t3eiodr2sro5bgw7ld7vcznttuja/SAMS_BTCb.png",
    "0xB31f66AA3C1e785363F0875A1B74E27b85FD66c7",
    "0xB97EF9Ef8734C71904D8002F8b6Bc66Dd9c48a6E",
    "0xf0F55E8C9E23c627b253876F3B4Bf1Ef3eBA4Db0",
    "0x03d8137b35206Dda7d6313Ba0FDE02EC4c265414",
    [
      {
        "strategy": "0x7158017cc710585bde7d692144071eF4B4995078",
        "depositToken": "0x152b9d0FdC40C096757F570A51E494bd4b943E50",
        "router": "0x60aE616a2155Ee3d9A68541Ba4544862310933d4",
        "isFortiFi": false,
        "isSAMS": true,
        "bps": 5000
      },
      {
        "strategy": "0xFB692D03BBEA21D8665035779dd3082c2B1622d0",
        "depositToken": "0xB97EF9Ef8734C71904D8002F8b6Bc66Dd9c48a6E",
        "router": "0x60aE616a2155Ee3d9A68541Ba4544862310933d4",
        "isFortiFi": false,
        "isSAMS": false,
        "bps": 5000
      }
    ]
  ],
  "numDeployments": 4,
  "solcInputHash": "58efaa794bc7bd8c28522d5870143568",
  "bytecode": "0x60806040526009805461ffff60a01b1916601960a21b179055617530600a556001600b819055600c805460ff191690911790553480156200003f57600080fd5b5060405162006d0538038062006d05833981016040819052620000629162000df9565b856200006e816200027f565b506200007a3362000298565b60016005556001600160a01b038516620000db5760405162461bcd60e51b815260206004820152601d60248201527f466f72746946693a20496e76616c6964206e617469766520746f6b656e00000060448201526064015b60405180910390fd5b6001600160a01b038416620001335760405162461bcd60e51b815260206004820152601e60248201527f466f72746946693a20496e76616c6964206465706f73697420746f6b656e00006044820152606401620000d2565b6001600160a01b0383166200018b5760405162461bcd60e51b815260206004820152601b60248201527f466f72746946693a20496e76616c6964206665654d616e6167657200000000006044820152606401620000d2565b6001600160a01b038216620001e35760405162461bcd60e51b815260206004820152601e60248201527f466f72746946693a20496e76616c69642066656543616c63756c61746f7200006044820152606401620000d2565b8751620001f89060069060208b019062000af6565b5086516200020e9060079060208a019062000af6565b50600980546001600160a01b03199081166001600160a01b0388811691909117909255600880548216878416179055600c8054610100600160a81b03191661010086851602179055600d80549091169185169190911790556200027181620002ea565b505050505050505062000fe0565b80516200029490600290602084019062000af6565b5050565b600480546001600160a01b038381166001600160a01b0319831681179093556040519116919082907f8be0079c531659141344cd1fd0a4f28419497f9722a3daafe3b4186f6b6457e090600090a35050565b6004546001600160a01b03163314620003465760405162461bcd60e51b815260206004820181905260248201527f4f776e61626c653a2063616c6c6572206973206e6f7420746865206f776e65726044820152606401620000d2565b805160ff81166200039a5760405162461bcd60e51b815260206004820152601660248201527f466f72746946693a204e6f2073747261746567696573000000000000000000006044820152606401620000d2565b6000805b8260ff168160ff1610156200040157838160ff1681518110620003d157634e487b7160e01b600052603260045260246000fd5b602002602001015160a0015182620003ea919062000f2b565b915080620003f88162000f91565b9150506200039e565b5061ffff811661271014620004595760405162461bcd60e51b815260206004820152601a60248201527f466f72746946693a20496e76616c696420746f74616c206270730000000000006044820152606401620000d2565b62000467600e600062000b85565b60005b8260ff168160ff161015620007335760006001600160a01b0316848260ff1681518110620004a857634e487b7160e01b600052603260045260246000fd5b6020026020010151600001516001600160a01b031614156200050d5760405162461bcd60e51b815260206004820152601e60248201527f466f72746946693a20496e76616c6964207374726174206164647265737300006044820152606401620000d2565b60006001600160a01b0316848260ff16815181106200053c57634e487b7160e01b600052603260045260246000fd5b6020026020010151602001516001600160a01b03161415620005a15760405162461bcd60e51b815260206004820152601e60248201527f466f72746946693a20496e76616c6964204552433230206164647265737300006044820152606401620000d2565b60006001600160a01b0316848260ff1681518110620005d057634e487b7160e01b600052603260045260246000fd5b6020026020010151604001516001600160a01b03161415620006355760405162461bcd60e51b815260206004820152601f60248201527f466f72746946693a20496e76616c696420726f757465722061646472657373006044820152606401620000d2565b600e848260ff16815181106200065b57634e487b7160e01b600052603260045260246000fd5b602090810291909101810151825460018181018555600094855293839020825160039092020180546001600160a01b039283166001600160a01b0319918216178255938301519481018054958316958516959095179094556040820151600290940180546060840151608085015160a09095015161ffff16600160b01b0261ffff60b01b19951515600160a81b0260ff60a81b19921515600160a01b0260ff60a01b199990961693909716929092179690961692909217949094169290921716179055806200072a8162000f91565b9150506200046a565b506200073e62000743565b505050565b600e54600854600d5460405163095ea7b360e01b81526001600160a01b0391821660048201526000196024820152911690819063095ea7b390604401602060405180830381600087803b1580156200079a57600080fd5b505af1158015620007af573d6000803e3d6000fd5b505050506040513d601f19601f82011682018060405250810190620007d5919062000dd5565b5060005b8260ff168160ff1610156200073e57600e8160ff16815481106200080d57634e487b7160e01b600052603260045260246000fd5b906000526020600020906003020160010160009054906101000a90046001600160a01b03166001600160a01b031663095ea7b3600e8360ff16815481106200086557634e487b7160e01b600052603260045260246000fd5b600091825260209091206003909102015460405160e083901b6001600160e01b03191681526001600160a01b0390911660048201526000196024820152604401602060405180830381600087803b158015620008c057600080fd5b505af1158015620008d5573d6000803e3d6000fd5b505050506040513d601f19601f82011682018060405250810190620008fb919062000dd5565b50600e8160ff16815481106200092157634e487b7160e01b600052603260045260246000fd5b906000526020600020906003020160010160009054906101000a90046001600160a01b03166001600160a01b031663095ea7b3600e8360ff16815481106200097957634e487b7160e01b600052603260045260246000fd5b600091825260209091206003909102016002015460405160e083901b6001600160e01b03191681526001600160a01b0390911660048201526000196024820152604401602060405180830381600087803b158015620009d757600080fd5b505af1158015620009ec573d6000803e3d6000fd5b505050506040513d601f19601f8201168201806040525081019062000a12919062000dd5565b50816001600160a01b031663095ea7b3600e8360ff168154811062000a4757634e487b7160e01b600052603260045260246000fd5b600091825260209091206003909102016002015460405160e083901b6001600160e01b03191681526001600160a01b0390911660048201526000196024820152604401602060405180830381600087803b15801562000aa557600080fd5b505af115801562000aba573d6000803e3d6000fd5b505050506040513d601f19601f8201168201806040525081019062000ae0919062000dd5565b508062000aed8162000f91565b915050620007d9565b82805462000b049062000f54565b90600052602060002090601f01602090048101928262000b28576000855562000b73565b82601f1062000b4357805160ff191683800117855562000b73565b8280016001018555821562000b73579182015b8281111562000b7357825182559160200191906001019062000b56565b5062000b8192915062000bab565b5090565b508054600082556003029060005260206000209081019062000ba8919062000bc2565b50565b5b8082111562000b81576000815560010162000bac565b5b8082111562000b815780546001600160a01b0319908116825560018201805490911690556002810180546001600160c01b031916905560030162000bc3565b80516001600160a01b038116811462000c1a57600080fd5b919050565b600082601f83011262000c30578081fd5b815160206001600160401b0382111562000c4e5762000c4e62000fca565b62000c5d818284020162000ef8565b8281528181019085830160c08086028801850189101562000c7c578687fd5b865b8681101562000d255781838b03121562000c96578788fd5b62000ca18262000ef8565b62000cac8462000c02565b815262000cbb87850162000c02565b87820152604062000cce81860162000c02565b90820152606062000ce185820162000d33565b90820152608062000cf485820162000d33565b9082015260a08481015161ffff8116811462000d0e578a8bfd5b908201528552938501939181019160010162000c7e565b509198975050505050505050565b8051801515811462000c1a57600080fd5b600082601f83011262000d55578081fd5b81516001600160401b0381111562000d715762000d7162000fca565b602062000d87601f8301601f1916820162000ef8565b828152858284870101111562000d9b578384fd5b835b8381101562000dba57858101830151828201840152820162000d9d565b8381111562000dcb57848385840101525b5095945050505050565b60006020828403121562000de7578081fd5b62000df28262000d33565b9392505050565b600080600080600080600080610100898b03121562000e16578384fd5b88516001600160401b038082111562000e2d578586fd5b62000e3b8c838d0162000d44565b995060208b015191508082111562000e51578586fd5b62000e5f8c838d0162000d44565b985060408b015191508082111562000e75578586fd5b62000e838c838d0162000d44565b975062000e9360608c0162000c02565b965062000ea360808c0162000c02565b955062000eb360a08c0162000c02565b945062000ec360c08c0162000c02565b935060e08b015191508082111562000ed9578283fd5b5062000ee88b828c0162000c1f565b9150509295985092959890939650565b604051601f8201601f191681016001600160401b038111828210171562000f235762000f2362000fca565b604052919050565b600061ffff80831681851680830382111562000f4b5762000f4b62000fb4565b01949350505050565b60028104600182168062000f6957607f821691505b6020821081141562000f8b57634e487b7160e01b600052602260045260246000fd5b50919050565b600060ff821660ff81141562000fab5762000fab62000fb4565b60010192915050565b634e487b7160e01b600052601160045260246000fd5b634e487b7160e01b600052604160045260246000fd5b615d158062000ff06000396000f3fe6080604052600436106102c95760003560e01c80638c66d04f11610179578063bc197c81116100d6578063eb6d3a111161008a578063f2fde38b11610064578063f2fde38b14610876578063f499301814610896578063f7c85469146108b6576102d0565b8063eb6d3a111461080a578063f23a6e611461082a578063f242432a14610856576102d0565b8063c89039c5116100bb578063c89039c51461073c578063d574ea3d1461075c578063e985e9c5146107c1576102d0565b8063bc197c81146106ca578063bd85b0391461070f576102d0565b80639499ac541161012d578063a22cb46511610112578063a22cb4651461065c578063ab37fbb71461067c578063b6b55f251461069c576102d0565b80639499ac541461063157806395d89b4114610647576102d0565b80638da5cb5b1161015e5780638da5cb5b146105dc5780638fcc9cfb146105f157806390f46a1c14610611576102d0565b80638c66d04f1461059c5780638c7a63ae146105bc576102d0565b8063472d35b91161022757806363f4229f116101db578063771602f7116101c0578063771602f7146105125780638980f11f1461053f5780638c4cc0df1461055f576102d0565b806363f4229f146104dd578063715018a6146104fd576102d0565b80634f558e791161020c5780634f558e7914610472578063578c71d9146104a15780635c975abb146104c3576102d0565b8063472d35b9146104255780634e1273f414610445576102d0565b80632e1a7d4d1161027e578063333171bb11610263578063333171bb146103e557806341b3d185146103fa57806343d57a6414610410576102d0565b80632e1a7d4d146103a35780632eb2c2d6146103c5576102d0565b806306fdde03116102af57806306fdde03146103385780630e89341c1461035a578063249d39e91461037a576102d0565b8062fdd58e146102d557806301ffc9a714610308576102d0565b366102d057005b600080fd5b3480156102e157600080fd5b506102f56102f03660046152c0565b6108d6565b6040519081526020015b60405180910390f35b34801561031457600080fd5b5061032861032336600461558e565b61097f565b60405190151581526020016102ff565b34801561034457600080fd5b5061034d610a1e565b6040516102ff919061598c565b34801561036657600080fd5b5061034d61037536600461561d565b610aac565b34801561038657600080fd5b5061039061271081565b60405161ffff90911681526020016102ff565b3480156103af57600080fd5b506103c36103be36600461561d565b610b40565b005b3480156103d157600080fd5b506103c36103e0366004615102565b610f5f565b3480156103f157600080fd5b506103c3611001565b34801561040657600080fd5b506102f5600a5481565b34801561041c57600080fd5b506103c3611074565b34801561043157600080fd5b506103c36104403660046150a7565b61142c565b34801561045157600080fd5b506104656104603660046152eb565b6114ad565b6040516102ff919061594b565b34801561047e57600080fd5b5061032861048d36600461561d565b600090815260036020526040902054151590565b3480156104ad57600080fd5b5060095461039090600160a01b900461ffff1681565b3480156104cf57600080fd5b50600c546103289060ff1681565b3480156104e957600080fd5b506103c36104f83660046153b6565b611623565b34801561050957600080fd5b506103c3611a5d565b34801561051e57600080fd5b5061053261052d366004615688565b611ac8565b6040516102ff919061599f565b34801561054b57600080fd5b506103c361055a3660046152c0565b611e63565b34801561056b57600080fd5b50600c546105849061010090046001600160a01b031681565b6040516001600160a01b0390911681526020016102ff565b3480156105a857600080fd5b506103c36105b73660046150a7565b611f42565b3480156105c857600080fd5b506105326105d736600461561d565b611fe0565b3480156105e857600080fd5b506105846120ed565b3480156105fd57600080fd5b506103c361060c36600461561d565b6120fd565b34801561061d57600080fd5b506103c361062c366004615213565b612161565b34801561063d57600080fd5b506102f5600b5481565b34801561065357600080fd5b5061034d612248565b34801561066857600080fd5b506103c3610677366004615293565b612255565b34801561068857600080fd5b506103c3610697366004615601565b612264565b3480156106a857600080fd5b506106bc6106b736600461561d565b6122ff565b6040516102ff9291906159cb565b3480156106d657600080fd5b506106f66106e5366004615102565b63bc197c8160e01b95945050505050565b6040516001600160e01b031990911681526020016102ff565b34801561071b57600080fd5b506102f561072a36600461561d565b60009081526003602052604090205490565b34801561074857600080fd5b50600854610584906001600160a01b031681565b34801561076857600080fd5b5061077c61077736600461561d565b612656565b604080516001600160a01b03978816815295871660208701529390951692840192909252151560608301521515608082015261ffff90911660a082015260c0016102ff565b3480156107cd57600080fd5b506103286107dc3660046150ca565b6001600160a01b03918216600090815260016020908152604080832093909416825291909152205460ff1690565b34801561081657600080fd5b50600954610584906001600160a01b031681565b34801561083657600080fd5b506106f66108453660046151ac565b63f23a6e6160e01b95945050505050565b34801561086257600080fd5b506103c36108713660046151ac565b6126be565b34801561088257600080fd5b506103c36108913660046150a7565b612759565b3480156108a257600080fd5b506105326108b136600461561d565b612840565b3480156108c257600080fd5b50600d54610584906001600160a01b031681565b60006001600160a01b0383166109595760405162461bcd60e51b815260206004820152602b60248201527f455243313135353a2062616c616e636520717565727920666f7220746865207a60448201527f65726f206164647265737300000000000000000000000000000000000000000060648201526084015b60405180910390fd5b506000908152602081815260408083206001600160a01b03949094168352929052205490565b60006001600160e01b031982167fd9b67a260000000000000000000000000000000000000000000000000000000014806109e257506001600160e01b031982167f0e89341c00000000000000000000000000000000000000000000000000000000145b80610a1657507f01ffc9a7000000000000000000000000000000000000000000000000000000006001600160e01b03198316145b90505b919050565b60068054610a2b90615b1e565b80601f0160208091040260200160405190810160405280929190818152602001828054610a5790615b1e565b8015610aa45780601f10610a7957610100808354040283529160200191610aa4565b820191906000526020600020905b815481529060010190602001808311610a8757829003601f168201915b505050505081565b606060028054610abb90615b1e565b80601f0160208091040260200160405190810160405280929190818152602001828054610ae790615b1e565b8015610b345780601f10610b0957610100808354040283529160200191610b34565b820191906000526020600020905b815481529060010190602001808311610b1757829003601f168201915b50505050509050919050565b60026005541415610b935760405162461bcd60e51b815260206004820152601f60248201527f5265656e7472616e637947756172643a207265656e7472616e742063616c6c006044820152606401610950565b6002600555600c5460ff1615610beb5760405162461bcd60e51b815260206004820152601860248201527f466f72746946693a20436f6e74726163742070617573656400000000000000006044820152606401610950565b6000610bf733836108d6565b11610c445760405162461bcd60e51b815260206004820152601f60248201527f466f72746946693a204e6f7420746865206f776e6572206f6620746f6b656e006044820152606401610950565b610c5033826001612abb565b600080610c5c83612c67565b600c546040517fefb36c14000000000000000000000000000000000000000000000000000000008152336004820152602481018390529294509092506000916101009091046001600160a01b03169063efb36c149060440160206040518083038186803b158015610ccc57600080fd5b505afa158015610ce0573d6000803e3d6000fd5b505050506040513d601f19601f82011682018060405250810190610d049190615635565b600d546008546040517fa033fcd40000000000000000000000000000000000000000000000000000000081526001600160a01b03918216600482015260248101849052929350169063a033fcd490604401600060405180830381600087803b158015610d6f57600080fd5b505af1158015610d83573d6000803e3d6000fd5b50506008546001600160a01b0316915063a9059cbb905033610da58487615ae4565b6040516001600160e01b031960e085901b1681526001600160a01b0390921660048301526024820152604401602060405180830381600087803b158015610deb57600080fd5b505af1158015610dff573d6000803e3d6000fd5b505050506040513d601f19601f82011682018060405250810190610e239190615572565b610e6f5760405162461bcd60e51b815260206004820181905260248201527f466f72746946693a204661696c656420746f2073656e642070726f63656564736044820152606401610950565b4715610f0f57604051600090339047908381818185875af1925050503d8060008114610eb7576040519150601f19603f3d011682016040523d82523d6000602084013e610ebc565b606091505b5050905080610f0d5760405162461bcd60e51b815260206004820181905260248201527f466f72746946693a204661696c656420746f20726566756e64206e61746976656044820152606401610950565b505b6040805184815260208101849052908101829052849033907f887e73c01568cecc3fe477a39c098f6599306a7592db9c8941dfc71ff9046d069060600160405180910390a3505060016005555050565b6001600160a01b038516331480610f7b5750610f7b85336107dc565b610fed5760405162461bcd60e51b815260206004820152603260248201527f455243313135353a207472616e736665722063616c6c6572206973206e6f742060448201527f6f776e6572206e6f7220617070726f76656400000000000000000000000000006064820152608401610950565b610ffa858585858561305b565b5050505050565b3361100a6120ed565b6001600160a01b0316146110605760405162461bcd60e51b815260206004820181905260248201527f4f776e61626c653a2063616c6c6572206973206e6f7420746865206f776e65726044820152606401610950565b600c805460ff19811660ff90911615179055565b600e54600854600d546040517f095ea7b30000000000000000000000000000000000000000000000000000000081526001600160a01b0391821660048201526000196024820152911690819063095ea7b390604401602060405180830381600087803b1580156110e357600080fd5b505af11580156110f7573d6000803e3d6000fd5b505050506040513d601f19601f8201168201806040525081019061111b9190615572565b5060005b8260ff168160ff16101561142757600e8160ff168154811061115157634e487b7160e01b600052603260045260246000fd5b906000526020600020906003020160010160009054906101000a90046001600160a01b03166001600160a01b031663095ea7b3600e8360ff16815481106111a857634e487b7160e01b600052603260045260246000fd5b600091825260209091206003909102015460405160e083901b6001600160e01b03191681526001600160a01b0390911660048201526000196024820152604401602060405180830381600087803b15801561120257600080fd5b505af1158015611216573d6000803e3d6000fd5b505050506040513d601f19601f8201168201806040525081019061123a9190615572565b50600e8160ff168154811061125f57634e487b7160e01b600052603260045260246000fd5b906000526020600020906003020160010160009054906101000a90046001600160a01b03166001600160a01b031663095ea7b3600e8360ff16815481106112b657634e487b7160e01b600052603260045260246000fd5b600091825260209091206003909102016002015460405160e083901b6001600160e01b03191681526001600160a01b0390911660048201526000196024820152604401602060405180830381600087803b15801561131357600080fd5b505af1158015611327573d6000803e3d6000fd5b505050506040513d601f19601f8201168201806040525081019061134b9190615572565b50816001600160a01b031663095ea7b3600e8360ff168154811061137f57634e487b7160e01b600052603260045260246000fd5b600091825260209091206003909102016002015460405160e083901b6001600160e01b03191681526001600160a01b0390911660048201526000196024820152604401602060405180830381600087803b1580156113dc57600080fd5b505af11580156113f0573d6000803e3d6000fd5b505050506040513d601f19601f820116820180604052508101906114149190615572565b508061141f81615ba1565b91505061111f565b505050565b336114356120ed565b6001600160a01b03161461148b5760405162461bcd60e51b815260206004820181905260248201527f4f776e61626c653a2063616c6c6572206973206e6f7420746865206f776e65726044820152606401610950565b600d80546001600160a01b0319166001600160a01b0392909216919091179055565b606081518351146115265760405162461bcd60e51b815260206004820152602960248201527f455243313135353a206163636f756e747320616e6420696473206c656e67746860448201527f206d69736d6174636800000000000000000000000000000000000000000000006064820152608401610950565b6000835167ffffffffffffffff81111561155057634e487b7160e01b600052604160045260246000fd5b604051908082528060200260200182016040528015611579578160200160208202803683370190505b50905060005b845181101561161b576115e08582815181106115ab57634e487b7160e01b600052603260045260246000fd5b60200260200101518583815181106115d357634e487b7160e01b600052603260045260246000fd5b60200260200101516108d6565b82828151811061160057634e487b7160e01b600052603260045260246000fd5b602090810291909101015261161481615b86565b905061157f565b509392505050565b3361162c6120ed565b6001600160a01b0316146116825760405162461bcd60e51b815260206004820181905260248201527f4f776e61626c653a2063616c6c6572206973206e6f7420746865206f776e65726044820152606401610950565b805160ff81166116d45760405162461bcd60e51b815260206004820152601660248201527f466f72746946693a204e6f2073747261746567696573000000000000000000006044820152606401610950565b6000805b8260ff168160ff16101561173457838160ff168151811061170957634e487b7160e01b600052603260045260246000fd5b602002602001015160a00151826117209190615a44565b91508061172c81615ba1565b9150506116d8565b5061ffff81166127101461178a5760405162461bcd60e51b815260206004820152601a60248201527f466f72746946693a20496e76616c696420746f74616c206270730000000000006044820152606401610950565b611796600e6000614d47565b60005b8260ff168160ff161015611a545760006001600160a01b0316848260ff16815181106117d557634e487b7160e01b600052603260045260246000fd5b6020026020010151600001516001600160a01b031614156118385760405162461bcd60e51b815260206004820152601e60248201527f466f72746946693a20496e76616c6964207374726174206164647265737300006044820152606401610950565b60006001600160a01b0316848260ff168151811061186657634e487b7160e01b600052603260045260246000fd5b6020026020010151602001516001600160a01b031614156118c95760405162461bcd60e51b815260206004820152601e60248201527f466f72746946693a20496e76616c6964204552433230206164647265737300006044820152606401610950565b60006001600160a01b0316848260ff16815181106118f757634e487b7160e01b600052603260045260246000fd5b6020026020010151604001516001600160a01b0316141561195a5760405162461bcd60e51b815260206004820152601f60248201527f466f72746946693a20496e76616c696420726f757465722061646472657373006044820152606401610950565b600e848260ff168151811061197f57634e487b7160e01b600052603260045260246000fd5b602090810291909101810151825460018181018555600094855293839020825160039092020180546001600160a01b039283166001600160a01b0319918216178255938301519481018054958316958516959095179094556040820151600290940180546060840151608085015160a09095015161ffff16600160b01b0261ffff60b01b19951515600160a81b0260ff60a81b19921515600160a01b0260ff60a01b19999096169390971692909217969096169290921794909416929092171617905580611a4c81615ba1565b915050611799565b50611427611074565b33611a666120ed565b6001600160a01b031614611abc5760405162461bcd60e51b815260206004820181905260248201527f4f776e61626c653a2063616c6c6572206973206e6f7420746865206f776e65726044820152606401610950565b611ac660006132f8565b565b60408051808201909152600081526060602082015260026005541415611b305760405162461bcd60e51b815260206004820152601f60248201527f5265656e7472616e637947756172643a207265656e7472616e742063616c6c006044820152606401610950565b6002600555600c5460ff1615611b885760405162461bcd60e51b815260206004820152601860248201527f466f72746946693a20436f6e74726163742070617573656400000000000000006044820152606401610950565b600a548311611bd95760405162461bcd60e51b815260206004820152601f60248201527f466f72746946693a20496e76616c6964206465706f73697420616d6f756e74006044820152606401610950565b6008546040516323b872dd60e01b8152336004820152306024820152604481018590526001600160a01b039091169081906323b872dd90606401602060405180830381600087803b158015611c2d57600080fd5b505af1158015611c41573d6000803e3d6000fd5b505050506040513d601f19601f82011682018060405250810190611c659190615572565b611cb15760405162461bcd60e51b815260206004820152601f60248201527f466f72746946693a204661696c656420746f2078666572206465706f736974006044820152606401610950565b6000611cbd33856108d6565b11611d0a5760405162461bcd60e51b815260206004820152601f60248201527f466f72746946693a204e6f7420746865206f776e6572206f6620746f6b656e006044820152606401610950565b611d168484600161334a565b600f60008481526020019081526020016000206040518060400160405290816000820154815260200160018201805480602002602001604051908101604052809291908181526020016000905b82821015611e0057600084815260209081902060408051610100810182526004860290920180546001600160a01b039081169284019283526001808301548216606086015260028301549182166080860152600160a01b820460ff908116151560a0870152600160a81b830416151560c0860152600160b01b90910461ffff1660e085015291835260030154828401529083529092019101611d63565b50505050815250509150611e1382613ba2565b82336001600160a01b03167fb050eebe1982ef863f34c665746c99cd7085098cd036aa2d444b3d9efaaeacac8685604051611e4f9291906159cb565b60405180910390a350600160055592915050565b33611e6c6120ed565b6001600160a01b031614611ec25760405162461bcd60e51b815260206004820181905260248201527f4f776e61626c653a2063616c6c6572206973206e6f7420746865206f776e65726044820152606401610950565b60405163a9059cbb60e01b8152336004820152602481018290526001600160a01b0383169063a9059cbb90604401602060405180830381600087803b158015611f0a57600080fd5b505af1158015611f1e573d6000803e3d6000fd5b505050506040513d601f19601f820116820180604052508101906114279190615572565b33611f4b6120ed565b6001600160a01b031614611fa15760405162461bcd60e51b815260206004820181905260248201527f4f776e61626c653a2063616c6c6572206973206e6f7420746865206f776e65726044820152606401610950565b600c80546001600160a01b03909216610100027fffffffffffffffffffffff0000000000000000000000000000000000000000ff909216919091179055565b604080518082019091526000815260606020820152600f60008381526020019081526020016000206040518060400160405290816000820154815260200160018201805480602002602001604051908101604052809291908181526020016000905b828210156120df57600084815260209081902060408051610100810182526004860290920180546001600160a01b039081169284019283526001808301548216606086015260028301549182166080860152600160a01b820460ff908116151560a0870152600160a81b830416151560c0860152600160b01b90910461ffff1660e085015291835260030154828401529083529092019101612042565b505050915250909392505050565b6004546001600160a01b03165b90565b336121066120ed565b6001600160a01b03161461215c5760405162461bcd60e51b815260206004820181905260248201527f4f776e61626c653a2063616c6c6572206973206e6f7420746865206f776e65726044820152606401610950565b600a55565b3361216a6120ed565b6001600160a01b0316146121c05760405162461bcd60e51b815260206004820181905260248201527f4f776e61626c653a2063616c6c6572206973206e6f7420746865206f776e65726044820152606401610950565b6040517f2eb2c2d60000000000000000000000000000000000000000000000000000000081526001600160a01b03861690632eb2c2d69061220f90309033908990899089908990600401615859565b600060405180830381600087803b15801561222957600080fd5b505af115801561223d573d6000803e3d6000fd5b505050505050505050565b60078054610a2b90615b1e565b612260338383613f03565b5050565b3361226d6120ed565b6001600160a01b0316146122c35760405162461bcd60e51b815260206004820181905260248201527f4f776e61626c653a2063616c6c6572206973206e6f7420746865206f776e65726044820152606401610950565b6009805461ffff909216600160a01b027fffffffffffffffffffff0000ffffffffffffffffffffffffffffffffffffffff909216919091179055565b600061231e604051806040016040528060008152602001606081525090565b600260055414156123715760405162461bcd60e51b815260206004820152601f60248201527f5265656e7472616e637947756172643a207265656e7472616e742063616c6c006044820152606401610950565b6002600555600c5460ff16156123c95760405162461bcd60e51b815260206004820152601860248201527f466f72746946693a20436f6e74726163742070617573656400000000000000006044820152606401610950565b600a54831161241a5760405162461bcd60e51b815260206004820152601f60248201527f466f72746946693a20496e76616c6964206465706f73697420616d6f756e74006044820152606401610950565b6008546040516323b872dd60e01b8152336004820152306024820152604481018590526001600160a01b039091169081906323b872dd90606401602060405180830381600087803b15801561246e57600080fd5b505af1158015612482573d6000803e3d6000fd5b505050506040513d601f19601f820116820180604052508101906124a69190615572565b6124f25760405162461bcd60e51b815260206004820152601f60248201527f466f72746946693a204661696c656420746f2078666572206465706f736974006044820152606401610950565b6124fa613ff8565b92506125088484600061334a565b600f60008481526020019081526020016000206040518060400160405290816000820154815260200160018201805480602002602001604051908101604052809291908181526020016000905b828210156125f257600084815260209081902060408051610100810182526004860290920180546001600160a01b039081169284019283526001808301548216606086015260028301549182166080860152600160a01b820460ff908116151560a0870152600160a81b830416151560c0860152600160b01b90910461ffff1660e085015291835260030154828401529083529092019101612555565b5050505081525050915061260582613ba2565b82336001600160a01b03167f58fdb039fd8bd547e29fb3f7ab7c07ada66f5e079af23d14a20db185e2116ac686856040516126419291906159cb565b60405180910390a35060016005559092909150565b600e818154811061266657600080fd5b60009182526020909120600390910201805460018201546002909201546001600160a01b039182169350918116919081169060ff600160a01b8204811691600160a81b81049091169061ffff600160b01b9091041686565b6001600160a01b0385163314806126da57506126da85336107dc565b61274c5760405162461bcd60e51b815260206004820152602960248201527f455243313135353a2063616c6c6572206973206e6f74206f776e6572206e6f7260448201527f20617070726f76656400000000000000000000000000000000000000000000006064820152608401610950565b610ffa8585858585614038565b336127626120ed565b6001600160a01b0316146127b85760405162461bcd60e51b815260206004820181905260248201527f4f776e61626c653a2063616c6c6572206973206e6f7420746865206f776e65726044820152606401610950565b6001600160a01b0381166128345760405162461bcd60e51b815260206004820152602660248201527f4f776e61626c653a206e6577206f776e657220697320746865207a65726f206160448201527f64647265737300000000000000000000000000000000000000000000000000006064820152608401610950565b61283d816132f8565b50565b604080518082019091526000815260606020820152600260055414156128a85760405162461bcd60e51b815260206004820152601f60248201527f5265656e7472616e637947756172643a207265656e7472616e742063616c6c006044820152606401610950565b600260055560006128b933846108d6565b1180156128c95750600c5460ff16155b806128ec57506128d76120ed565b6001600160a01b0316336001600160a01b0316145b6129385760405162461bcd60e51b815260206004820152601f60248201527f466f72746946693a20496e76616c6964206d6573736167652073656e646572006044820152606401610950565b6000828152600f60205260408120549061295184612c67565b506000858152600f602052604081208181559192506129736001830182614d68565b50506129818185600061334a565b6000848152600f60209081526040808320858155815180830183528681526001820180548451818702810187019095528085529194929385840193909290879084015b82821015612a6157600084815260209081902060408051610100810182526004860290920180546001600160a01b039081169284019283526001808301548216606086015260028301549182166080860152600160a01b820460ff908116151560a0870152600160a81b830416151560c0860152600160b01b90910461ffff1660e0850152918352600301548284015290835290920191016129c4565b50505050815250509050612a7481613ba2565b847f38893552d79ebd71dda5859f518700ada5546badd29c35cfd78bd5948e6e847a8383604051612aa69291906159cb565b60405180910390a26001600555949350505050565b6001600160a01b038316612b375760405162461bcd60e51b815260206004820152602360248201527f455243313135353a206275726e2066726f6d20746865207a65726f206164647260448201527f65737300000000000000000000000000000000000000000000000000000000006064820152608401610950565b33612b6681856000612b48876141e5565b612b51876141e5565b6040518060200160405280600081525061423e565b6000838152602081815260408083206001600160a01b038816845290915290205482811015612bfc5760405162461bcd60e51b8152602060048201526024808201527f455243313135353a206275726e20616d6f756e7420657863656564732062616c60448201527f616e6365000000000000000000000000000000000000000000000000000000006064820152608401610950565b6000848152602081815260408083206001600160a01b03898116808652918452828520888703905582518981529384018890529092908616917fc3d58168c5ae7397731d063d5bbf3d657854427343f4c083240f7aacaa2d0f62910160405180910390a45050505050565b6000806000600f60008581526020019081526020016000206040518060400160405290816000820154815260200160018201805480602002602001604051908101604052809291908181526020016000905b82821015612d5657600084815260209081902060408051610100810182526004860290920180546001600160a01b039081169284019283526001808301548216606086015260028301549182166080860152600160a01b820460ff908116151560a0870152600160a81b830416151560c0860152600160b01b90910461ffff1660e085015291835260030154828401529083529092019101612cb9565b5050509152505060208101515160009450909150835b8160ff168160ff1610156130325782602001518160ff1681518110612da157634e487b7160e01b600052603260045260246000fd5b6020026020010151600001516080015115612e8957600083602001518260ff1681518110612ddf57634e487b7160e01b600052603260045260246000fd5b602002602001015160000151600001519050806001600160a01b0316632e1a7d4d85602001518460ff1681518110612e2757634e487b7160e01b600052603260045260246000fd5b6020026020010151602001516040518263ffffffff1660e01b8152600401612e5191815260200190565b600060405180830381600087803b158015612e6b57600080fd5b505af1158015612e7f573d6000803e3d6000fd5b5050505050612f58565b600083602001518260ff1681518110612eb257634e487b7160e01b600052603260045260246000fd5b602002602001015160000151600001519050806001600160a01b0316632e1a7d4d85602001518460ff1681518110612efa57634e487b7160e01b600052603260045260246000fd5b6020026020010151602001516040518263ffffffff1660e01b8152600401612f2491815260200190565b600060405180830381600087803b158015612f3e57600080fd5b505af1158015612f52573d6000803e3d6000fd5b50505050505b6008546040516370a0823160e01b81523060048201526000916001600160a01b0316906370a082319060240160206040518083038186803b158015612f9c57600080fd5b505afa158015612fb0573d6000803e3d6000fd5b505050506040513d601f19601f82011682018060405250810190612fd49190615635565b90506130128185602001518460ff168151811061300157634e487b7160e01b600052603260045260246000fd5b602002602001015160000151614382565b61301c9087615a6a565b955050808061302a90615ba1565b915050612d6c565b50815184111561304f5781516130489085615ae4565b9250613054565b600092505b5050915091565b81518351146130d25760405162461bcd60e51b815260206004820152602860248201527f455243313135353a2069647320616e6420616d6f756e7473206c656e6774682060448201527f6d69736d617463680000000000000000000000000000000000000000000000006064820152608401610950565b6001600160a01b0384166131365760405162461bcd60e51b815260206004820152602560248201527f455243313135353a207472616e7366657220746f20746865207a65726f206164604482015264647265737360d81b6064820152608401610950565b3361314581878787878761423e565b60005b845181101561328a57600085828151811061317357634e487b7160e01b600052603260045260246000fd5b60200260200101519050600085838151811061319f57634e487b7160e01b600052603260045260246000fd5b602090810291909101810151600084815280835260408082206001600160a01b038e1683529093529190912054909150818110156132325760405162461bcd60e51b815260206004820152602a60248201527f455243313135353a20696e73756666696369656e742062616c616e636520666f60448201526939103a3930b739b332b960b11b6064820152608401610950565b6000838152602081815260408083206001600160a01b038e8116855292528083208585039055908b1682528120805484929061326f908490615a6a565b925050819055505050508061328390615b86565b9050613148565b50846001600160a01b0316866001600160a01b0316826001600160a01b03167f4a39dc06d4c0dbc64b70af90fd698a233a518aa5d07e595d983b8c0526c8f7fb87876040516132da92919061595e565b60405180910390a46132f08187878787876146c6565b505050505050565b600480546001600160a01b038381166001600160a01b0319831681179093556040519116919082907f8be0079c531659141344cd1fd0a4f28419497f9722a3daafe3b4186f6b6457e090600090a35050565b6000828152600f60205260408120600e5490918591905b8160ff168160ff161015613b80576000600e8260ff168154811061339557634e487b7160e01b600052603260045260246000fd5b60009182526020918290206040805160c08101825260039390930290910180546001600160a01b03908116845260018201548116948401949094526002015492831690820152600160a01b820460ff90811615156060830152600160a81b83041615156080820152600160b01b90910461ffff1660a0820152905085156134a957846001018260ff168154811061343c57634e487b7160e01b600052603260045260246000fd5b600091825260209091206004909102015481516001600160a01b039081169116146134a95760405162461bcd60e51b815260206004820152601d60248201527f466f72746946693a2043616e27742061646420746f20726563656970740000006044820152606401610950565b60808101516000808083156134c05750835161353f565b84516040516370a0823160e01b81523060048201529092506001600160a01b038316906370a082319060240160206040518083038186803b15801561350457600080fd5b505afa158015613518573d6000803e3d6000fd5b505050506040513d601f19601f8201168201806040525081019061353c9190615635565b92505b600061354c600189615afb565b60ff168760ff16141561358c5760208601516008546001600160a01b039081169116146135845761357d898761487b565b9050613587565b50875b6135f3565b600061271061ffff168760a0015161ffff168f6135a99190615aa2565b6135b39190615a82565b60208801516008549192506001600160a01b039182169116146135e1576135da818861487b565b91506135e5565b8091505b6135ef818b615ae4565b9950505b6000613612604051806040016040528060008152602001606081525090565b8615613772578c156136e957836001600160a01b031663771602f7848e6001018c60ff168154811061365457634e487b7160e01b600052603260045260246000fd5b9060005260206000209060040201600301546040518363ffffffff1660e01b815260040161368c929190918252602082015260400190565b600060405180830381600087803b1580156136a657600080fd5b505af11580156136ba573d6000803e3d6000fd5b505050506040513d6000823e601f3d908101601f191682016040526136e291908101906155c6565b905061376d565b60405163b6b55f2560e01b8152600481018490526001600160a01b0385169063b6b55f2590602401600060405180830381600087803b15801561372b57600080fd5b505af115801561373f573d6000803e3d6000fd5b505050506040513d6000823e601f3d908101601f19168201604052613767919081019061564d565b90925090505b6137cd565b60405163b6b55f2560e01b8152600481018490526001600160a01b0386169063b6b55f2590602401600060405180830381600087803b1580156137b457600080fd5b505af11580156137c8573d6000803e3d6000fd5b505050505b8c156138b05787608001516138ab576040516370a0823160e01b815230600482015286906001600160a01b038716906370a082319060240160206040518083038186803b15801561381d57600080fd5b505afa158015613831573d6000803e3d6000fd5b505050506040513d601f19601f820116820180604052508101906138559190615635565b61385f9190615ae4565b8c6001018a60ff168154811061388557634e487b7160e01b600052603260045260246000fd5b906000526020600020906004020160030160008282546138a59190615a6a565b90915550505b613b65565b86156139fe578b60010160405180604001604052808a815260200184815250908060018154018082558091505060019003906000526020600020906004020160009091909190915060008201518160000160008201518160000160006101000a8154816001600160a01b0302191690836001600160a01b0316021790555060208201518160010160006101000a8154816001600160a01b0302191690836001600160a01b0316021790555060408201518160020160006101000a8154816001600160a01b0302191690836001600160a01b0316021790555060608201518160020160146101000a81548160ff02191690831515021790555060808201518160020160156101000a81548160ff02191690831515021790555060a08201518160020160166101000a81548161ffff021916908361ffff1602179055505050602082015181600301555050613b65565b60408051808201825289815290516370a0823160e01b815230600482015260018e019190602082019089906001600160a01b038a16906370a082319060240160206040518083038186803b158015613a5557600080fd5b505afa158015613a69573d6000803e3d6000fd5b505050506040513d601f19601f82011682018060405250810190613a8d9190615635565b613a979190615ae4565b9052815460018181018455600093845260209384902083518051600490940290910180546001600160a01b039485166001600160a01b03199182161782558287015193820180549486169482169490941790935560408201516002820180546060850151608086015160a09096015161ffff16600160b01b0261ffff60b01b19961515600160a81b0260ff60a81b19921515600160a01b0260ff60a01b1996909a16939098169290921793909316969096179190911693909317919091169290921790559101516003909101555b50505050505050508080613b7890615ba1565b915050613361565b5085836000016000828254613b959190615a6a565b9091555050505050505050565b6008546040516370a0823160e01b81523060048201526000916001600160a01b0316906370a082319060240160206040518083038186803b158015613be657600080fd5b505afa158015613bfa573d6000803e3d6000fd5b505050506040513d601f19601f82011682018060405250810190613c1e9190615635565b90508015613d0b578082600001818151613c389190615ae4565b90525060085460405163a9059cbb60e01b8152336004820152602481018390526001600160a01b039091169063a9059cbb90604401602060405180830381600087803b158015613c8757600080fd5b505af1158015613c9b573d6000803e3d6000fd5b505050506040513d601f19601f82011682018060405250810190613cbf9190615572565b613d0b5760405162461bcd60e51b815260206004820152601f60248201527f466f72746946693a204661696c656420746f20726566756e64204552433230006044820152606401610950565b6009546040516370a0823160e01b81523060048201526000916001600160a01b0316906370a082319060240160206040518083038186803b158015613d4f57600080fd5b505afa158015613d63573d6000803e3d6000fd5b505050506040513d601f19601f82011682018060405250810190613d879190615635565b90508015613e5f5760095460405163a9059cbb60e01b8152336004820152602481018390526001600160a01b039091169063a9059cbb90604401602060405180830381600087803b158015613ddb57600080fd5b505af1158015613def573d6000803e3d6000fd5b505050506040513d601f19601f82011682018060405250810190613e139190615572565b613e5f5760405162461bcd60e51b815260206004820181905260248201527f466f72746946693a204661696c656420746f20726566756e64206e61746976656044820152606401610950565b471561142757604051600090339047908381818185875af1925050503d8060008114613ea7576040519150601f19603f3d011682016040523d82523d6000602084013e613eac565b606091505b5050905080613efd5760405162461bcd60e51b815260206004820181905260248201527f466f72746946693a204661696c656420746f20726566756e64206e61746976656044820152606401610950565b50505050565b816001600160a01b0316836001600160a01b03161415613f8b5760405162461bcd60e51b815260206004820152602960248201527f455243313135353a2073657474696e6720617070726f76616c2073746174757360448201527f20666f722073656c6600000000000000000000000000000000000000000000006064820152608401610950565b6001600160a01b03838116600081815260016020908152604080832094871680845294825291829020805460ff191686151590811790915591519182527f17307eab39ab6107e8899845ad3d59bd9653f200f220920489ca2b5937696c31910160405180910390a3505050565b6000600b54905061401b3382600160405180602001604052806000815250614b23565b6001600b600082825461402e9190615a6a565b9250508190555090565b6001600160a01b03841661409c5760405162461bcd60e51b815260206004820152602560248201527f455243313135353a207472616e7366657220746f20746865207a65726f206164604482015264647265737360d81b6064820152608401610950565b336140bb8187876140ac886141e5565b6140b5886141e5565b8761423e565b6000848152602081815260408083206001600160a01b038a1684529091529020548381101561413f5760405162461bcd60e51b815260206004820152602a60248201527f455243313135353a20696e73756666696369656e742062616c616e636520666f60448201526939103a3930b739b332b960b11b6064820152608401610950565b6000858152602081815260408083206001600160a01b038b811685529252808320878503905590881682528120805486929061417c908490615a6a565b909155505060408051868152602081018690526001600160a01b03808916928a821692918616917fc3d58168c5ae7397731d063d5bbf3d657854427343f4c083240f7aacaa2d0f62910160405180910390a46141dc828888888888614c3c565b50505050505050565b6040805160018082528183019092526060916000919060208083019080368337019050509050828160008151811061422d57634e487b7160e01b600052603260045260246000fd5b602090810291909101015292915050565b6001600160a01b0385166142e15760005b83518110156142df5782818151811061427857634e487b7160e01b600052603260045260246000fd5b6020026020010151600360008684815181106142a457634e487b7160e01b600052603260045260246000fd5b6020026020010151815260200190815260200160002060008282546142c99190615a6a565b909155506142d8905081615b86565b905061424f565b505b6001600160a01b0384166132f05760005b83518110156141dc5782818151811061431b57634e487b7160e01b600052603260045260246000fd5b60200260200101516003600086848151811061434757634e487b7160e01b600052603260045260246000fd5b60200260200101518152602001908152602001600020600082825461436c9190615ae4565b9091555061437b905081615b86565b90506142f2565b60208181015160408051600380825260808201909252600093849290820160608036833701905050905060008460400151905082826000815181106143d757634e487b7160e01b600052603260045260246000fd5b6001600160a01b03928316602091820292909201015260095483519116908390600190811061441657634e487b7160e01b600052603260045260246000fd5b6001600160a01b03928316602091820292909201015260085483519116908390600290811061445557634e487b7160e01b600052603260045260246000fd5b6001600160a01b03928316602091820292909201015260405163d06ca61f60e01b815260009183169063d06ca61f90614494908a9087906004016159b2565b60006040518083038186803b1580156144ac57600080fd5b505afa1580156144c0573d6000803e3d6000fd5b505050506040513d6000823e601f3d908101601f191682016040526144e891908101906154d7565b6009549091506001600160a01b038316906338ed17399089906127109061451a90600160a01b900461ffff1682615ac1565b61ffff16856001875161452d9190615ae4565b8151811061454b57634e487b7160e01b600052603260045260246000fd5b602002602001015161455d9190615aa2565b6145679190615a82565b863061457542610708615a6a565b6040518663ffffffff1660e01b81526004016145959594939291906159e4565b600060405180830381600087803b1580156145af57600080fd5b505af11580156145c3573d6000803e3d6000fd5b505050506040513d6000823e601f3d908101601f191682016040526145eb91908101906154d7565b506008546040516370a0823160e01b81523060048201526000916001600160a01b0316906370a08231906024015b60206040518083038186803b15801561463157600080fd5b505afa158015614645573d6000803e3d6000fd5b505050506040513d601f19601f820116820180604052508101906146699190615635565b9050600081116146bb5760405162461bcd60e51b815260206004820152601760248201527f466f72746946693a204661696c656420746f20737761700000000000000000006044820152606401610950565b979650505050505050565b6001600160a01b0384163b156132f05760405163bc197c8160e01b81526001600160a01b0385169063bc197c819061470a90899089908890889088906004016158b5565b602060405180830381600087803b15801561472457600080fd5b505af1925050508015614754575060408051601f3d908101601f19168201909252614751918101906155aa565b60015b61480a57614760615bed565b806308c379a0141561479a5750614775615c04565b80614780575061479c565b8060405162461bcd60e51b8152600401610950919061598c565b505b60405162461bcd60e51b815260206004820152603460248201527f455243313135353a207472616e7366657220746f206e6f6e204552433131353560448201527f526563656976657220696d706c656d656e7465720000000000000000000000006064820152608401610950565b6001600160e01b0319811663bc197c8160e01b146141dc5760405162461bcd60e51b815260206004820152602860248201527f455243313135353a204552433131353552656365697665722072656a656374656044820152676420746f6b656e7360c01b6064820152608401610950565b6020818101516040805160038082526080820190925260009384929082016060803683375050506040850151600854825192935090916001600160a01b039091169083906000906148dc57634e487b7160e01b600052603260045260246000fd5b6001600160a01b03928316602091820292909201015260095483519116908390600190811061491b57634e487b7160e01b600052603260045260246000fd5b60200260200101906001600160a01b031690816001600160a01b031681525050828260028151811061495d57634e487b7160e01b600052603260045260246000fd5b6001600160a01b03928316602091820292909201015260405163d06ca61f60e01b815260009183169063d06ca61f9061499c908a9087906004016159b2565b60006040518083038186803b1580156149b457600080fd5b505afa1580156149c8573d6000803e3d6000fd5b505050506040513d6000823e601f3d908101601f191682016040526149f091908101906154d7565b6009549091506001600160a01b038316906338ed173990899061271090614a2290600160a01b900461ffff1682615ac1565b61ffff168560018751614a359190615ae4565b81518110614a5357634e487b7160e01b600052603260045260246000fd5b6020026020010151614a659190615aa2565b614a6f9190615a82565b8630614a7d42610708615a6a565b6040518663ffffffff1660e01b8152600401614a9d9594939291906159e4565b600060405180830381600087803b158015614ab757600080fd5b505af1158015614acb573d6000803e3d6000fd5b505050506040513d6000823e601f3d908101601f19168201604052614af391908101906154d7565b506040516370a0823160e01b81523060048201526000906001600160a01b038616906370a0823190602401614619565b6001600160a01b038416614b9f5760405162461bcd60e51b815260206004820152602160248201527f455243313135353a206d696e7420746f20746865207a65726f2061646472657360448201527f73000000000000000000000000000000000000000000000000000000000000006064820152608401610950565b33614bb0816000876140ac886141e5565b6000848152602081815260408083206001600160a01b038916845290915281208054859290614be0908490615a6a565b909155505060408051858152602081018590526001600160a01b0380881692600092918516917fc3d58168c5ae7397731d063d5bbf3d657854427343f4c083240f7aacaa2d0f62910160405180910390a4610ffa816000878787875b6001600160a01b0384163b156132f05760405163f23a6e6160e01b81526001600160a01b0385169063f23a6e6190614c809089908990889088908890600401615913565b602060405180830381600087803b158015614c9a57600080fd5b505af1925050508015614cca575060408051601f3d908101601f19168201909252614cc7918101906155aa565b60015b614cd657614760615bed565b6001600160e01b0319811663f23a6e6160e01b146141dc5760405162461bcd60e51b815260206004820152602860248201527f455243313135353a204552433131353552656365697665722072656a656374656044820152676420746f6b656e7360c01b6064820152608401610950565b508054600082556003029060005260206000209081019061283d9190614d89565b508054600082556004029060005260206000209081019061283d9190614de3565b5b80821115614ddf5780546001600160a01b0319908116825560018201805490911690556002810180547fffffffffffffffff000000000000000000000000000000000000000000000000169055600301614d8a565b5090565b5b80821115614ddf5780546001600160a01b0319908116825560018201805490911690556002810180547fffffffffffffffff00000000000000000000000000000000000000000000000016905560006003820155600401614de4565b60008083601f840112614e51578182fd5b50813567ffffffffffffffff811115614e68578182fd5b6020830191508360208083028501011115614e8257600080fd5b9250929050565b600082601f830112614e99578081fd5b81356020614ea682615a20565b604051614eb38282615b59565b838152828101915085830183850287018401881015614ed0578586fd5b855b85811015614eee57813584529284019290840190600101614ed2565b5090979650505050505050565b600082601f830112614f0b578081fd5b813567ffffffffffffffff811115614f2557614f25615bd7565b604051614f3c601f8301601f191660200182615b59565b818152846020838601011115614f50578283fd5b816020850160208301379081016020019190915292915050565b60006040808385031215614f7c578182fd5b8051614f888282615b59565b8092508351815260208085015167ffffffffffffffff811115614faa57600080fd5b8501601f81018713614fbb57600080fd5b8051614fc681615a20565b8551614fd28282615b59565b82815284810191508385016080808502860187018c1015614ff257600080fd5b600095505b8486101561508857818c038181121561500f57600080fd5b895161501b8b82615b59565b60608083121561502a57600080fd5b8b5192506150388184615b59565b845161504381615c96565b8352848a015161505281615cab565b838b0152848c015161506381615ccf565b838d015291815290830151888201528452600195909501949286019290810190614ff7565b505080858701525050505050505092915050565b8035610a1981615ccf565b6000602082840312156150b8578081fd5b81356150c381615c96565b9392505050565b600080604083850312156150dc578081fd5b82356150e781615c96565b915060208301356150f781615c96565b809150509250929050565b600080600080600060a08688031215615119578081fd5b853561512481615c96565b9450602086013561513481615c96565b9350604086013567ffffffffffffffff80821115615150578283fd5b61515c89838a01614e89565b94506060880135915080821115615171578283fd5b61517d89838a01614e89565b93506080880135915080821115615192578283fd5b5061519f88828901614efb565b9150509295509295909350565b600080600080600060a086880312156151c3578283fd5b85356151ce81615c96565b945060208601356151de81615c96565b93506040860135925060608601359150608086013567ffffffffffffffff811115615207578182fd5b61519f88828901614efb565b60008060008060006060868803121561522a578283fd5b853561523581615c96565b9450602086013567ffffffffffffffff80821115615251578485fd5b61525d89838a01614e40565b90965094506040880135915080821115615275578283fd5b5061528288828901614e40565b969995985093965092949392505050565b600080604083850312156152a5578182fd5b82356152b081615c96565b915060208301356150f781615cab565b600080604083850312156152d2578182fd5b82356152dd81615c96565b946020939093013593505050565b600080604083850312156152fd578182fd5b823567ffffffffffffffff80821115615314578384fd5b818501915085601f830112615327578384fd5b8135602061533482615a20565b6040516153418282615b59565b8381528281019150858301838502870184018b101561535e578889fd5b8896505b8487101561538957803561537581615c96565b835260019690960195918301918301615362565b509650508601359250508082111561539f578283fd5b506153ac85828601614e89565b9150509250929050565b600060208083850312156153c8578182fd5b823567ffffffffffffffff8111156153de578283fd5b8301601f810185136153ee578283fd5b80356153f981615a20565b604080516154078382615b59565b838152858101925084860160c0808602870188018b1015615426578889fd5b8896505b858710156154c85780828c031215615440578889fd5b835161544c8282615b59565b823561545781615c96565b81528289013561546681615c96565b818a01528285013561547781615c96565b8186015260608381013561548a81615cab565b9082015260808381013561549d81615cab565b9082015260a06154ae84820161509c565b90820152855260019690960195938701939081019061542a565b50909998505050505050505050565b600060208083850312156154e9578182fd5b825167ffffffffffffffff8111156154ff578283fd5b8301601f8101851361550f578283fd5b805161551a81615a20565b6040516155278282615b59565b828152848101915083850185840285018601891015615544578687fd5b8694505b83851015615566578051835260019490940193918501918501615548565b50979650505050505050565b600060208284031215615583578081fd5b81516150c381615cab565b60006020828403121561559f578081fd5b81356150c381615cb9565b6000602082840312156155bb578081fd5b81516150c381615cb9565b6000602082840312156155d7578081fd5b815167ffffffffffffffff8111156155ed578182fd5b6155f984828501614f6a565b949350505050565b600060208284031215615612578081fd5b81356150c381615ccf565b60006020828403121561562e578081fd5b5035919050565b600060208284031215615646578081fd5b5051919050565b6000806040838503121561565f578182fd5b82519150602083015167ffffffffffffffff81111561567c578182fd5b6153ac85828601614f6a565b6000806040838503121561569a578182fd5b50508035926020909101359150565b6000815180845260208085019450808401835b838110156156e15781516001600160a01b0316875295820195908201906001016156bc565b509495945050505050565b60008284527f07ffffffffffffffffffffffffffffffffffffffffffffffffffffffffffffff83111561571d578081fd5b6020830280836020870137939093016020019283525090919050565b6000815180845260208085019450808401835b838110156156e15781518752958201959082019060010161574c565b60008151808452815b8181101561578d57602081850181015186830182015201615771565b8181111561579e5782602083870101525b50601f01601f19169290920160200192915050565b600060408084018351855260208085015183828801528281518085526060945084890191508383019250865b8181101561584b578351805180516001600160a01b039081168652878201518116888701528982015116898601528781015115158886015260808082015115159086015260a09081015161ffff169085015285015160c08401529284019260e0909201916001016157df565b509098975050505050505050565b60006001600160a01b03808916835280881660208401525060a0604083015261588660a0830186886156ec565b82810360608401526158998185876156ec565b8381036080909401939093525081526020019695505050505050565b60006001600160a01b03808816835280871660208401525060a060408301526158e160a0830186615739565b82810360608401526158f38186615739565b905082810360808401526159078185615768565b98975050505050505050565b60006001600160a01b03808816835280871660208401525084604083015283606083015260a060808301526146bb60a0830184615768565b6000602082526150c36020830184615739565b6000604082526159716040830185615739565b82810360208401526159838185615739565b95945050505050565b6000602082526150c36020830184615768565b6000602082526150c360208301846157b3565b6000838252604060208301526155f960408301846156a9565b6000838252604060208301526155f960408301846157b3565b600086825285602083015260a06040830152615a0360a08301866156a9565b6001600160a01b0394909416606083015250608001529392505050565b600067ffffffffffffffff821115615a3a57615a3a615bd7565b5060209081020190565b600061ffff808316818516808303821115615a6157615a61615bc1565b01949350505050565b60008219821115615a7d57615a7d615bc1565b500190565b600082615a9d57634e487b7160e01b81526012600452602481fd5b500490565b6000816000190483118215151615615abc57615abc615bc1565b500290565b600061ffff83811690831681811015615adc57615adc615bc1565b039392505050565b600082821015615af657615af6615bc1565b500390565b600060ff821660ff841680821015615b1557615b15615bc1565b90039392505050565b600281046001821680615b3257607f821691505b60208210811415615b5357634e487b7160e01b600052602260045260246000fd5b50919050565b601f8201601f1916810167ffffffffffffffff81118282101715615b7f57615b7f615bd7565b6040525050565b6000600019821415615b9a57615b9a615bc1565b5060010190565b600060ff821660ff811415615bb857615bb8615bc1565b60010192915050565b634e487b7160e01b600052601160045260246000fd5b634e487b7160e01b600052604160045260246000fd5b600060033d11156120fa57600481823e5160e01c90565b600060443d1015615c14576120fa565b6040516003193d81016004833e81513d67ffffffffffffffff8160248401118184111715615c465750505050506120fa565b8285019150815181811115615c60575050505050506120fa565b843d8701016020828501011115615c7c575050505050506120fa565b615c8b60208286010187615b59565b509094505050505090565b6001600160a01b038116811461283d57600080fd5b801515811461283d57600080fd5b6001600160e01b03198116811461283d57600080fd5b61ffff8116811461283d57600080fdfea2646970667358221220751afda0d1ec5edd7526b59bdb652bca96d0bf85585877dee27ceca93c5bf6a264736f6c63430008020033",
  "devdoc": {
    "kind": "dev",
    "methods": {
      "balanceOf(address,uint256)": {
        "details": "See {IERC1155-balanceOf}. Requirements: - `account` cannot be the zero address."
      },
      "balanceOfBatch(address[],uint256[])": {
        "details": "See {IERC1155-balanceOfBatch}. Requirements: - `accounts` and `ids` must have the same length."
      },
      "deposit(uint256)": {
        "details": "The user must deposit at least the minDeposit, and will receive an ERC1155 non-fungible receipt token.  The receipt token will be mapped to a TokenInfo containing the amount deposited as well as the strategy receipt  tokens received for later withdrawal."
      },
      "exists(uint256)": {
        "details": "Indicates whether any token exist with a given id, or not."
      },
      "isApprovedForAll(address,address)": {
        "details": "See {IERC1155-isApprovedForAll}."
      },
      "owner()": {
        "details": "Returns the address of the current owner."
      },
      "rebalance(uint256)": {
        "details": "This function utilizes the internal _deposit and _withdraw functions to rebalance based on  the strategies set in the contract. Since _deposit will set the TokenInfo.deposit to the total  deposited after the rebalance, we must store the original deposit and overwrite the TokenInfo before completing the transaction."
      },
      "refreshApprovals()": {
        "details": "Since contract never holds deposit tokens max approvals should not matter. "
      },
      "renounceOwnership()": {
        "details": "Leaves the contract without owner. It will not be possible to call `onlyOwner` functions anymore. Can only be called by the current owner. NOTE: Renouncing ownership will leave the contract without an owner, thereby removing any functionality that is only available to the owner."
      },
      "safeBatchTransferFrom(address,address,uint256[],uint256[],bytes)": {
        "details": "See {IERC1155-safeBatchTransferFrom}."
      },
      "safeTransferFrom(address,address,uint256,uint256,bytes)": {
        "details": "See {IERC1155-safeTransferFrom}."
      },
      "setApprovalForAll(address,bool)": {
        "details": "See {IERC1155-setApprovalForAll}."
      },
      "supportsInterface(bytes4)": {
        "details": "See {IERC165-supportsInterface}."
      },
      "totalSupply(uint256)": {
        "details": "Total amount of tokens in with a given id."
      },
      "transferOwnership(address)": {
        "details": "Transfers ownership of the contract to a new account (`newOwner`). Can only be called by the current owner."
      },
      "uri(uint256)": {
        "details": "See {IERC1155MetadataURI-uri}. This implementation returns the same URI for *all* token types. It relies on the token type ID substitution mechanism https://eips.ethereum.org/EIPS/eip-1155#metadata[defined in the EIP]. Clients calling this function must replace the `\\{id\\}` substring with the actual token type ID."
      },
      "withdraw(uint256)": {
        "details": "Once all receipts are burned and deposit tokens received, the fee manager will calculate the fees due,  and the fee manager will distribute those fees before transfering the user their proceeds."
      }
    },
    "title": "Contract for FortiFi MASS Vaults",
    "version": 1
  },
  "userdoc": {
    "kind": "user",
    "methods": {
      "add(uint256,uint256)": {
        "notice": "This function is used to add to a user's deposit when they already has a receipt (ERC1155). The user can add to their  deposit without needing to burn/withdraw first. "
      },
      "deposit(uint256)": {
        "notice": "This function is used when a user does not already have a receipt (ERC1155). "
      },
      "rebalance(uint256)": {
        "notice": "This function allows a user to rebalance a receipt (ERC1155) token's underlying assets. "
      },
      "refreshApprovals()": {
        "notice": "Function to set max approvals for router and strategies. "
      },
      "setStrategies((address,address,address,bool,bool,uint16)[])": {
        "notice": "This function sets up the underlying strategies used by the vault."
      },
      "withdraw(uint256)": {
        "notice": "This function is used to burn a receipt (ERC1155) and withdraw all underlying strategy receipt tokens. "
      }
    },
    "notice": "This contract allows for the deposit of a single asset, which is then swapped into various assets and deposited in to  multiple yield-bearing strategies. ",
    "version": 1
  },
  "storageLayout": {
    "storage": [
      {
        "astId": 170,
        "contract": "contracts/vaults/FortiFiMASSVault.sol:FortiFiMASSVault",
        "label": "_balances",
        "offset": 0,
        "slot": "0",
        "type": "t_mapping(t_uint256,t_mapping(t_address,t_uint256))"
      },
      {
        "astId": 176,
        "contract": "contracts/vaults/FortiFiMASSVault.sol:FortiFiMASSVault",
        "label": "_operatorApprovals",
        "offset": 0,
        "slot": "1",
        "type": "t_mapping(t_address,t_mapping(t_address,t_bool))"
      },
      {
        "astId": 178,
        "contract": "contracts/vaults/FortiFiMASSVault.sol:FortiFiMASSVault",
        "label": "_uri",
        "offset": 0,
        "slot": "2",
        "type": "t_string_storage"
      },
      {
        "astId": 1413,
        "contract": "contracts/vaults/FortiFiMASSVault.sol:FortiFiMASSVault",
        "label": "_totalSupply",
        "offset": 0,
        "slot": "3",
        "type": "t_mapping(t_uint256,t_uint256)"
      },
      {
        "astId": 7,
        "contract": "contracts/vaults/FortiFiMASSVault.sol:FortiFiMASSVault",
        "label": "_owner",
        "offset": 0,
        "slot": "4",
        "type": "t_address"
      },
      {
        "astId": 115,
        "contract": "contracts/vaults/FortiFiMASSVault.sol:FortiFiMASSVault",
        "label": "_status",
        "offset": 0,
        "slot": "5",
        "type": "t_uint256"
      },
      {
        "astId": 8217,
        "contract": "contracts/vaults/FortiFiMASSVault.sol:FortiFiMASSVault",
        "label": "name",
        "offset": 0,
        "slot": "6",
        "type": "t_string_storage"
      },
      {
        "astId": 8219,
        "contract": "contracts/vaults/FortiFiMASSVault.sol:FortiFiMASSVault",
        "label": "symbol",
        "offset": 0,
        "slot": "7",
        "type": "t_string_storage"
      },
      {
        "astId": 8221,
        "contract": "contracts/vaults/FortiFiMASSVault.sol:FortiFiMASSVault",
        "label": "depositToken",
        "offset": 0,
        "slot": "8",
        "type": "t_address"
      },
      {
        "astId": 8223,
        "contract": "contracts/vaults/FortiFiMASSVault.sol:FortiFiMASSVault",
        "label": "wrappedNative",
        "offset": 0,
        "slot": "9",
        "type": "t_address"
      },
      {
        "astId": 8229,
        "contract": "contracts/vaults/FortiFiMASSVault.sol:FortiFiMASSVault",
        "label": "slippageBps",
        "offset": 20,
        "slot": "9",
        "type": "t_uint16"
      },
      {
        "astId": 8232,
        "contract": "contracts/vaults/FortiFiMASSVault.sol:FortiFiMASSVault",
        "label": "minDeposit",
        "offset": 0,
        "slot": "10",
        "type": "t_uint256"
      },
      {
        "astId": 8235,
        "contract": "contracts/vaults/FortiFiMASSVault.sol:FortiFiMASSVault",
        "label": "nextToken",
        "offset": 0,
        "slot": "11",
        "type": "t_uint256"
      },
      {
        "astId": 8238,
        "contract": "contracts/vaults/FortiFiMASSVault.sol:FortiFiMASSVault",
        "label": "paused",
        "offset": 0,
        "slot": "12",
        "type": "t_bool"
      },
      {
        "astId": 8241,
        "contract": "contracts/vaults/FortiFiMASSVault.sol:FortiFiMASSVault",
        "label": "feeCalc",
        "offset": 1,
        "slot": "12",
        "type": "t_contract(IFortiFiFeeCalculator)4385"
      },
      {
        "astId": 8244,
        "contract": "contracts/vaults/FortiFiMASSVault.sol:FortiFiMASSVault",
        "label": "feeMgr",
        "offset": 0,
        "slot": "13",
        "type": "t_contract(IFortiFiFeeManager)4696"
      },
      {
        "astId": 8248,
        "contract": "contracts/vaults/FortiFiMASSVault.sol:FortiFiMASSVault",
        "label": "strategies",
        "offset": 0,
        "slot": "14",
        "type": "t_array(t_struct(Strategy)11203_storage)dyn_storage"
      },
      {
        "astId": 8253,
        "contract": "contracts/vaults/FortiFiMASSVault.sol:FortiFiMASSVault",
        "label": "tokenInfo",
        "offset": 0,
        "slot": "15",
        "type": "t_mapping(t_uint256,t_struct(TokenInfo)11216_storage)"
      }
    ],
    "types": {
      "t_address": {
        "encoding": "inplace",
        "label": "address",
        "numberOfBytes": "20"
      },
      "t_array(t_struct(Position)11209_storage)dyn_storage": {
        "base": "t_struct(Position)11209_storage",
        "encoding": "dynamic_array",
        "label": "struct IMASS.Position[]",
        "numberOfBytes": "32"
      },
      "t_array(t_struct(Strategy)11203_storage)dyn_storage": {
        "base": "t_struct(Strategy)11203_storage",
        "encoding": "dynamic_array",
        "label": "struct IMASS.Strategy[]",
        "numberOfBytes": "32"
      },
      "t_bool": {
        "encoding": "inplace",
        "label": "bool",
        "numberOfBytes": "1"
      },
      "t_contract(IFortiFiFeeCalculator)4385": {
        "encoding": "inplace",
        "label": "contract IFortiFiFeeCalculator",
        "numberOfBytes": "20"
      },
      "t_contract(IFortiFiFeeManager)4696": {
        "encoding": "inplace",
        "label": "contract IFortiFiFeeManager",
        "numberOfBytes": "20"
      },
      "t_mapping(t_address,t_bool)": {
        "encoding": "mapping",
        "key": "t_address",
        "label": "mapping(address => bool)",
        "numberOfBytes": "32",
        "value": "t_bool"
      },
      "t_mapping(t_address,t_mapping(t_address,t_bool))": {
        "encoding": "mapping",
        "key": "t_address",
        "label": "mapping(address => mapping(address => bool))",
        "numberOfBytes": "32",
        "value": "t_mapping(t_address,t_bool)"
      },
      "t_mapping(t_address,t_uint256)": {
        "encoding": "mapping",
        "key": "t_address",
        "label": "mapping(address => uint256)",
        "numberOfBytes": "32",
        "value": "t_uint256"
      },
      "t_mapping(t_uint256,t_mapping(t_address,t_uint256))": {
        "encoding": "mapping",
        "key": "t_uint256",
        "label": "mapping(uint256 => mapping(address => uint256))",
        "numberOfBytes": "32",
        "value": "t_mapping(t_address,t_uint256)"
      },
      "t_mapping(t_uint256,t_struct(TokenInfo)11216_storage)": {
        "encoding": "mapping",
        "key": "t_uint256",
        "label": "mapping(uint256 => struct IMASS.TokenInfo)",
        "numberOfBytes": "32",
        "value": "t_struct(TokenInfo)11216_storage"
      },
      "t_mapping(t_uint256,t_uint256)": {
        "encoding": "mapping",
        "key": "t_uint256",
        "label": "mapping(uint256 => uint256)",
        "numberOfBytes": "32",
        "value": "t_uint256"
      },
      "t_string_storage": {
        "encoding": "bytes",
        "label": "string",
        "numberOfBytes": "32"
      },
      "t_struct(Position)11209_storage": {
        "encoding": "inplace",
        "label": "struct IMASS.Position",
        "members": [
          {
            "astId": 11206,
            "contract": "contracts/vaults/FortiFiMASSVault.sol:FortiFiMASSVault",
            "label": "strategy",
            "offset": 0,
            "slot": "0",
            "type": "t_struct(Strategy)11203_storage"
          },
          {
            "astId": 11208,
            "contract": "contracts/vaults/FortiFiMASSVault.sol:FortiFiMASSVault",
            "label": "receipt",
            "offset": 0,
            "slot": "3",
            "type": "t_uint256"
          }
        ],
        "numberOfBytes": "128"
      },
      "t_struct(Strategy)11203_storage": {
        "encoding": "inplace",
        "label": "struct IMASS.Strategy",
        "members": [
          {
            "astId": 11192,
            "contract": "contracts/vaults/FortiFiMASSVault.sol:FortiFiMASSVault",
            "label": "strategy",
            "offset": 0,
            "slot": "0",
            "type": "t_address"
          },
          {
            "astId": 11194,
            "contract": "contracts/vaults/FortiFiMASSVault.sol:FortiFiMASSVault",
            "label": "depositToken",
            "offset": 0,
            "slot": "1",
            "type": "t_address"
          },
          {
            "astId": 11196,
            "contract": "contracts/vaults/FortiFiMASSVault.sol:FortiFiMASSVault",
            "label": "router",
            "offset": 0,
            "slot": "2",
            "type": "t_address"
          },
          {
            "astId": 11198,
            "contract": "contracts/vaults/FortiFiMASSVault.sol:FortiFiMASSVault",
            "label": "isFortiFi",
            "offset": 20,
            "slot": "2",
            "type": "t_bool"
          },
          {
            "astId": 11200,
            "contract": "contracts/vaults/FortiFiMASSVault.sol:FortiFiMASSVault",
            "label": "isSAMS",
            "offset": 21,
            "slot": "2",
            "type": "t_bool"
          },
          {
            "astId": 11202,
            "contract": "contracts/vaults/FortiFiMASSVault.sol:FortiFiMASSVault",
            "label": "bps",
            "offset": 22,
            "slot": "2",
            "type": "t_uint16"
          }
        ],
        "numberOfBytes": "96"
      },
      "t_struct(TokenInfo)11216_storage": {
        "encoding": "inplace",
        "label": "struct IMASS.TokenInfo",
        "members": [
          {
            "astId": 11211,
            "contract": "contracts/vaults/FortiFiMASSVault.sol:FortiFiMASSVault",
            "label": "deposit",
            "offset": 0,
            "slot": "0",
            "type": "t_uint256"
          },
          {
            "astId": 11215,
            "contract": "contracts/vaults/FortiFiMASSVault.sol:FortiFiMASSVault",
            "label": "positions",
            "offset": 0,
            "slot": "1",
            "type": "t_array(t_struct(Position)11209_storage)dyn_storage"
          }
        ],
        "numberOfBytes": "64"
      },
      "t_uint16": {
        "encoding": "inplace",
        "label": "uint16",
        "numberOfBytes": "2"
      },
      "t_uint256": {
        "encoding": "inplace",
        "label": "uint256",
        "numberOfBytes": "32"
      }
    }
  }
}