{
  "address": "0xa146e5358213c53ea28f37a1242A3029532662eD",
  "abi": [
    {
      "inputs": [
        {
          "internalType": "string",
          "name": "_name",
          "type": "string"
        },
        {
          "internalType": "string",
          "name": "_symbol",
          "type": "string"
        },
        {
          "internalType": "string",
          "name": "_metadata",
          "type": "string"
        },
        {
          "internalType": "address",
          "name": "_wrappedNative",
          "type": "address"
        },
        {
          "internalType": "address",
          "name": "_depositToken",
          "type": "address"
        },
        {
          "internalType": "address",
          "name": "_feeManager",
          "type": "address"
        },
        {
          "internalType": "address",
          "name": "_feeCalculator",
          "type": "address"
        },
        {
          "internalType": "uint256",
          "name": "_minDeposit",
          "type": "uint256"
        },
        {
          "components": [
            {
              "internalType": "address",
              "name": "strategy",
              "type": "address"
            },
            {
              "internalType": "bool",
              "name": "isFortiFi",
              "type": "bool"
            },
            {
              "internalType": "uint16",
              "name": "bps",
              "type": "uint16"
            }
          ],
          "internalType": "struct ISAMS.Strategy[]",
          "name": "_strategies",
          "type": "tuple[]"
        }
      ],
      "stateMutability": "nonpayable",
      "type": "constructor"
    },
    {
      "inputs": [],
      "name": "CantAddToReceipt",
      "type": "error"
    },
    {
      "inputs": [],
      "name": "CantWithdrawStrategyReceipts",
      "type": "error"
    },
    {
      "inputs": [],
      "name": "ContractPaused",
      "type": "error"
    },
    {
      "inputs": [],
      "name": "DuplicateStrategy",
      "type": "error"
    },
    {
      "inputs": [],
      "name": "FailedToRefund",
      "type": "error"
    },
    {
      "inputs": [],
      "name": "InvalidArrayLength",
      "type": "error"
    },
    {
      "inputs": [],
      "name": "InvalidBps",
      "type": "error"
    },
    {
      "inputs": [],
      "name": "InvalidDeposit",
      "type": "error"
    },
    {
      "inputs": [],
      "name": "InvalidMinDeposit",
      "type": "error"
    },
    {
      "inputs": [],
      "name": "NoStrategies",
      "type": "error"
    },
    {
      "inputs": [],
      "name": "NotTokenOwner",
      "type": "error"
    },
    {
      "inputs": [],
      "name": "TooManyStrategies",
      "type": "error"
    },
    {
      "inputs": [],
      "name": "ZeroAddress",
      "type": "error"
    },
    {
      "anonymous": false,
      "inputs": [
        {
          "indexed": true,
          "internalType": "address",
          "name": "depositor",
          "type": "address"
        },
        {
          "indexed": true,
          "internalType": "uint256",
          "name": "tokenId",
          "type": "uint256"
        },
        {
          "indexed": false,
          "internalType": "uint256",
          "name": "amount",
          "type": "uint256"
        },
        {
          "components": [
            {
              "internalType": "uint256",
              "name": "deposit",
              "type": "uint256"
            },
            {
              "components": [
                {
                  "components": [
                    {
                      "internalType": "address",
                      "name": "strategy",
                      "type": "address"
                    },
                    {
                      "internalType": "bool",
                      "name": "isFortiFi",
                      "type": "bool"
                    },
                    {
                      "internalType": "uint16",
                      "name": "bps",
                      "type": "uint16"
                    }
                  ],
                  "internalType": "struct ISAMS.Strategy",
                  "name": "strategy",
                  "type": "tuple"
                },
                {
                  "internalType": "uint256",
                  "name": "receipt",
                  "type": "uint256"
                }
              ],
              "internalType": "struct ISAMS.Position[]",
              "name": "positions",
              "type": "tuple[]"
            }
          ],
          "indexed": false,
          "internalType": "struct ISAMS.TokenInfo",
          "name": "tokenInfo",
          "type": "tuple"
        }
      ],
      "name": "Add",
      "type": "event"
    },
    {
      "anonymous": false,
      "inputs": [
        {
          "indexed": true,
          "internalType": "address",
          "name": "account",
          "type": "address"
        },
        {
          "indexed": true,
          "internalType": "address",
          "name": "operator",
          "type": "address"
        },
        {
          "indexed": false,
          "internalType": "bool",
          "name": "approved",
          "type": "bool"
        }
      ],
      "name": "ApprovalForAll",
      "type": "event"
    },
    {
      "anonymous": false,
      "inputs": [],
      "name": "ApprovalsRefreshed",
      "type": "event"
    },
    {
      "anonymous": false,
      "inputs": [
        {
          "indexed": true,
          "internalType": "address",
          "name": "depositor",
          "type": "address"
        },
        {
          "indexed": true,
          "internalType": "uint256",
          "name": "tokenId",
          "type": "uint256"
        },
        {
          "indexed": false,
          "internalType": "uint256",
          "name": "amount",
          "type": "uint256"
        },
        {
          "components": [
            {
              "internalType": "uint256",
              "name": "deposit",
              "type": "uint256"
            },
            {
              "components": [
                {
                  "components": [
                    {
                      "internalType": "address",
                      "name": "strategy",
                      "type": "address"
                    },
                    {
                      "internalType": "bool",
                      "name": "isFortiFi",
                      "type": "bool"
                    },
                    {
                      "internalType": "uint16",
                      "name": "bps",
                      "type": "uint16"
                    }
                  ],
                  "internalType": "struct ISAMS.Strategy",
                  "name": "strategy",
                  "type": "tuple"
                },
                {
                  "internalType": "uint256",
                  "name": "receipt",
                  "type": "uint256"
                }
              ],
              "internalType": "struct ISAMS.Position[]",
              "name": "positions",
              "type": "tuple[]"
            }
          ],
          "indexed": false,
          "internalType": "struct ISAMS.TokenInfo",
          "name": "tokenInfo",
          "type": "tuple"
        }
      ],
      "name": "Deposit",
      "type": "event"
    },
    {
      "anonymous": false,
      "inputs": [
        {
          "indexed": true,
          "internalType": "address",
          "name": "token",
          "type": "address"
        },
        {
          "indexed": false,
          "internalType": "uint256",
          "name": "amount",
          "type": "uint256"
        }
      ],
      "name": "ERC20Recovered",
      "type": "event"
    },
    {
      "anonymous": false,
      "inputs": [
        {
          "indexed": false,
          "internalType": "address",
          "name": "feeCalculator",
          "type": "address"
        }
      ],
      "name": "FeeCalculatorSet",
      "type": "event"
    },
    {
      "anonymous": false,
      "inputs": [
        {
          "indexed": false,
          "internalType": "address",
          "name": "feeManager",
          "type": "address"
        }
      ],
      "name": "FeeManagerSet",
      "type": "event"
    },
    {
      "anonymous": false,
      "inputs": [
        {
          "indexed": false,
          "internalType": "address",
          "name": "vault",
          "type": "address"
        },
        {
          "indexed": false,
          "internalType": "bool",
          "name": "fees",
          "type": "bool"
        }
      ],
      "name": "FeesSetForAddress",
      "type": "event"
    },
    {
      "anonymous": false,
      "inputs": [
        {
          "indexed": false,
          "internalType": "uint256",
          "name": "minAmount",
          "type": "uint256"
        }
      ],
      "name": "MinDepositSet",
      "type": "event"
    },
    {
      "anonymous": false,
      "inputs": [
        {
          "indexed": true,
          "internalType": "address",
          "name": "previousOwner",
          "type": "address"
        },
        {
          "indexed": true,
          "internalType": "address",
          "name": "newOwner",
          "type": "address"
        }
      ],
      "name": "OwnershipTransferred",
      "type": "event"
    },
    {
      "anonymous": false,
      "inputs": [
        {
          "indexed": false,
          "internalType": "bool",
          "name": "paused",
          "type": "bool"
        }
      ],
      "name": "PauseStateUpdated",
      "type": "event"
    },
    {
      "anonymous": false,
      "inputs": [
        {
          "indexed": true,
          "internalType": "uint256",
          "name": "tokenId",
          "type": "uint256"
        },
        {
          "indexed": false,
          "internalType": "uint256",
          "name": "amount",
          "type": "uint256"
        },
        {
          "components": [
            {
              "internalType": "uint256",
              "name": "deposit",
              "type": "uint256"
            },
            {
              "components": [
                {
                  "components": [
                    {
                      "internalType": "address",
                      "name": "strategy",
                      "type": "address"
                    },
                    {
                      "internalType": "bool",
                      "name": "isFortiFi",
                      "type": "bool"
                    },
                    {
                      "internalType": "uint16",
                      "name": "bps",
                      "type": "uint16"
                    }
                  ],
                  "internalType": "struct ISAMS.Strategy",
                  "name": "strategy",
                  "type": "tuple"
                },
                {
                  "internalType": "uint256",
                  "name": "receipt",
                  "type": "uint256"
                }
              ],
              "internalType": "struct ISAMS.Position[]",
              "name": "positions",
              "type": "tuple[]"
            }
          ],
          "indexed": false,
          "internalType": "struct ISAMS.TokenInfo",
          "name": "tokenInfo",
          "type": "tuple"
        }
      ],
      "name": "Rebalance",
      "type": "event"
    },
    {
      "anonymous": false,
      "inputs": [
        {
          "components": [
            {
              "internalType": "address",
              "name": "strategy",
              "type": "address"
            },
            {
              "internalType": "bool",
              "name": "isFortiFi",
              "type": "bool"
            },
            {
              "internalType": "uint16",
              "name": "bps",
              "type": "uint16"
            }
          ],
          "indexed": false,
          "internalType": "struct ISAMS.Strategy[]",
          "name": "",
          "type": "tuple[]"
        }
      ],
      "name": "StrategiesSet",
      "type": "event"
    },
    {
      "anonymous": false,
      "inputs": [
        {
          "indexed": true,
          "internalType": "address",
          "name": "operator",
          "type": "address"
        },
        {
          "indexed": true,
          "internalType": "address",
          "name": "from",
          "type": "address"
        },
        {
          "indexed": true,
          "internalType": "address",
          "name": "to",
          "type": "address"
        },
        {
          "indexed": false,
          "internalType": "uint256[]",
          "name": "ids",
          "type": "uint256[]"
        },
        {
          "indexed": false,
          "internalType": "uint256[]",
          "name": "values",
          "type": "uint256[]"
        }
      ],
      "name": "TransferBatch",
      "type": "event"
    },
    {
      "anonymous": false,
      "inputs": [
        {
          "indexed": true,
          "internalType": "address",
          "name": "operator",
          "type": "address"
        },
        {
          "indexed": true,
          "internalType": "address",
          "name": "from",
          "type": "address"
        },
        {
          "indexed": true,
          "internalType": "address",
          "name": "to",
          "type": "address"
        },
        {
          "indexed": false,
          "internalType": "uint256",
          "name": "id",
          "type": "uint256"
        },
        {
          "indexed": false,
          "internalType": "uint256",
          "name": "value",
          "type": "uint256"
        }
      ],
      "name": "TransferSingle",
      "type": "event"
    },
    {
      "anonymous": false,
      "inputs": [
        {
          "indexed": false,
          "internalType": "string",
          "name": "value",
          "type": "string"
        },
        {
          "indexed": true,
          "internalType": "uint256",
          "name": "id",
          "type": "uint256"
        }
      ],
      "name": "URI",
      "type": "event"
    },
    {
      "anonymous": false,
      "inputs": [
        {
          "indexed": true,
          "internalType": "address",
          "name": "depositor",
          "type": "address"
        },
        {
          "indexed": true,
          "internalType": "uint256",
          "name": "tokenId",
          "type": "uint256"
        },
        {
          "indexed": false,
          "internalType": "uint256",
          "name": "amountWithdrawn",
          "type": "uint256"
        },
        {
          "indexed": false,
          "internalType": "uint256",
          "name": "profit",
          "type": "uint256"
        },
        {
          "indexed": false,
          "internalType": "uint256",
          "name": "fee",
          "type": "uint256"
        }
      ],
      "name": "Withdrawal",
      "type": "event"
    },
    {
      "inputs": [],
      "name": "BPS",
      "outputs": [
        {
          "internalType": "uint16",
          "name": "",
          "type": "uint16"
        }
      ],
      "stateMutability": "view",
      "type": "function"
    },
    {
      "inputs": [
        {
          "internalType": "uint256",
          "name": "_amount",
          "type": "uint256"
        },
        {
          "internalType": "uint256",
          "name": "_tokenId",
          "type": "uint256"
        }
      ],
      "name": "add",
      "outputs": [
        {
          "components": [
            {
              "internalType": "uint256",
              "name": "deposit",
              "type": "uint256"
            },
            {
              "components": [
                {
                  "components": [
                    {
                      "internalType": "address",
                      "name": "strategy",
                      "type": "address"
                    },
                    {
                      "internalType": "bool",
                      "name": "isFortiFi",
                      "type": "bool"
                    },
                    {
                      "internalType": "uint16",
                      "name": "bps",
                      "type": "uint16"
                    }
                  ],
                  "internalType": "struct ISAMS.Strategy",
                  "name": "strategy",
                  "type": "tuple"
                },
                {
                  "internalType": "uint256",
                  "name": "receipt",
                  "type": "uint256"
                }
              ],
              "internalType": "struct ISAMS.Position[]",
              "name": "positions",
              "type": "tuple[]"
            }
          ],
          "internalType": "struct ISAMS.TokenInfo",
          "name": "_info",
          "type": "tuple"
        }
      ],
      "stateMutability": "nonpayable",
      "type": "function"
    },
    {
      "inputs": [
        {
          "internalType": "address",
          "name": "account",
          "type": "address"
        },
        {
          "internalType": "uint256",
          "name": "id",
          "type": "uint256"
        }
      ],
      "name": "balanceOf",
      "outputs": [
        {
          "internalType": "uint256",
          "name": "",
          "type": "uint256"
        }
      ],
      "stateMutability": "view",
      "type": "function"
    },
    {
      "inputs": [
        {
          "internalType": "address[]",
          "name": "accounts",
          "type": "address[]"
        },
        {
          "internalType": "uint256[]",
          "name": "ids",
          "type": "uint256[]"
        }
      ],
      "name": "balanceOfBatch",
      "outputs": [
        {
          "internalType": "uint256[]",
          "name": "",
          "type": "uint256[]"
        }
      ],
      "stateMutability": "view",
      "type": "function"
    },
    {
      "inputs": [
        {
          "internalType": "uint256",
          "name": "_amount",
          "type": "uint256"
        }
      ],
      "name": "deposit",
      "outputs": [
        {
          "internalType": "uint256",
          "name": "_tokenId",
          "type": "uint256"
        },
        {
          "components": [
            {
              "internalType": "uint256",
              "name": "deposit",
              "type": "uint256"
            },
            {
              "components": [
                {
                  "components": [
                    {
                      "internalType": "address",
                      "name": "strategy",
                      "type": "address"
                    },
                    {
                      "internalType": "bool",
                      "name": "isFortiFi",
                      "type": "bool"
                    },
                    {
                      "internalType": "uint16",
                      "name": "bps",
                      "type": "uint16"
                    }
                  ],
                  "internalType": "struct ISAMS.Strategy",
                  "name": "strategy",
                  "type": "tuple"
                },
                {
                  "internalType": "uint256",
                  "name": "receipt",
                  "type": "uint256"
                }
              ],
              "internalType": "struct ISAMS.Position[]",
              "name": "positions",
              "type": "tuple[]"
            }
          ],
          "internalType": "struct ISAMS.TokenInfo",
          "name": "_info",
          "type": "tuple"
        }
      ],
      "stateMutability": "nonpayable",
      "type": "function"
    },
    {
      "inputs": [],
      "name": "depositToken",
      "outputs": [
        {
          "internalType": "address",
          "name": "",
          "type": "address"
        }
      ],
      "stateMutability": "view",
      "type": "function"
    },
    {
      "inputs": [
        {
          "internalType": "uint256",
          "name": "id",
          "type": "uint256"
        }
      ],
      "name": "exists",
      "outputs": [
        {
          "internalType": "bool",
          "name": "",
          "type": "bool"
        }
      ],
      "stateMutability": "view",
      "type": "function"
    },
    {
      "inputs": [],
      "name": "feeCalc",
      "outputs": [
        {
          "internalType": "contract IFortiFiFeeCalculator",
          "name": "",
          "type": "address"
        }
      ],
      "stateMutability": "view",
      "type": "function"
    },
    {
      "inputs": [],
      "name": "feeMgr",
      "outputs": [
        {
          "internalType": "contract IFortiFiFeeManager",
          "name": "",
          "type": "address"
        }
      ],
      "stateMutability": "view",
      "type": "function"
    },
    {
      "inputs": [],
      "name": "flipPaused",
      "outputs": [],
      "stateMutability": "nonpayable",
      "type": "function"
    },
    {
      "inputs": [],
      "name": "getStrategies",
      "outputs": [
        {
          "components": [
            {
              "internalType": "address",
              "name": "strategy",
              "type": "address"
            },
            {
              "internalType": "bool",
              "name": "isFortiFi",
              "type": "bool"
            },
            {
              "internalType": "uint16",
              "name": "bps",
              "type": "uint16"
            }
          ],
          "internalType": "struct ISAMS.Strategy[]",
          "name": "",
          "type": "tuple[]"
        }
      ],
      "stateMutability": "view",
      "type": "function"
    },
    {
      "inputs": [
        {
          "internalType": "uint256",
          "name": "_tokenId",
          "type": "uint256"
        }
      ],
      "name": "getTokenInfo",
      "outputs": [
        {
          "components": [
            {
              "internalType": "uint256",
              "name": "deposit",
              "type": "uint256"
            },
            {
              "components": [
                {
                  "components": [
                    {
                      "internalType": "address",
                      "name": "strategy",
                      "type": "address"
                    },
                    {
                      "internalType": "bool",
                      "name": "isFortiFi",
                      "type": "bool"
                    },
                    {
                      "internalType": "uint16",
                      "name": "bps",
                      "type": "uint16"
                    }
                  ],
                  "internalType": "struct ISAMS.Strategy",
                  "name": "strategy",
                  "type": "tuple"
                },
                {
                  "internalType": "uint256",
                  "name": "receipt",
                  "type": "uint256"
                }
              ],
              "internalType": "struct ISAMS.Position[]",
              "name": "positions",
              "type": "tuple[]"
            }
          ],
          "internalType": "struct ISAMS.TokenInfo",
          "name": "",
          "type": "tuple"
        }
      ],
      "stateMutability": "view",
      "type": "function"
    },
    {
      "inputs": [
        {
          "internalType": "address",
          "name": "account",
          "type": "address"
        },
        {
          "internalType": "address",
          "name": "operator",
          "type": "address"
        }
      ],
      "name": "isApprovedForAll",
      "outputs": [
        {
          "internalType": "bool",
          "name": "",
          "type": "bool"
        }
      ],
      "stateMutability": "view",
      "type": "function"
    },
    {
      "inputs": [],
      "name": "minDeposit",
      "outputs": [
        {
          "internalType": "uint256",
          "name": "",
          "type": "uint256"
        }
      ],
      "stateMutability": "view",
      "type": "function"
    },
    {
      "inputs": [],
      "name": "name",
      "outputs": [
        {
          "internalType": "string",
          "name": "",
          "type": "string"
        }
      ],
      "stateMutability": "view",
      "type": "function"
    },
    {
      "inputs": [],
      "name": "nextToken",
      "outputs": [
        {
          "internalType": "uint256",
          "name": "",
          "type": "uint256"
        }
      ],
      "stateMutability": "view",
      "type": "function"
    },
    {
      "inputs": [
        {
          "internalType": "address",
          "name": "",
          "type": "address"
        }
      ],
      "name": "noFeesFor",
      "outputs": [
        {
          "internalType": "bool",
          "name": "",
          "type": "bool"
        }
      ],
      "stateMutability": "view",
      "type": "function"
    },
    {
      "inputs": [],
      "name": "owner",
      "outputs": [
        {
          "internalType": "address",
          "name": "",
          "type": "address"
        }
      ],
      "stateMutability": "view",
      "type": "function"
    },
    {
      "inputs": [],
      "name": "paused",
      "outputs": [
        {
          "internalType": "bool",
          "name": "",
          "type": "bool"
        }
      ],
      "stateMutability": "view",
      "type": "function"
    },
    {
      "inputs": [
        {
          "internalType": "uint256",
          "name": "_tokenId",
          "type": "uint256"
        }
      ],
      "name": "rebalance",
      "outputs": [
        {
          "components": [
            {
              "internalType": "uint256",
              "name": "deposit",
              "type": "uint256"
            },
            {
              "components": [
                {
                  "components": [
                    {
                      "internalType": "address",
                      "name": "strategy",
                      "type": "address"
                    },
                    {
                      "internalType": "bool",
                      "name": "isFortiFi",
                      "type": "bool"
                    },
                    {
                      "internalType": "uint16",
                      "name": "bps",
                      "type": "uint16"
                    }
                  ],
                  "internalType": "struct ISAMS.Strategy",
                  "name": "strategy",
                  "type": "tuple"
                },
                {
                  "internalType": "uint256",
                  "name": "receipt",
                  "type": "uint256"
                }
              ],
              "internalType": "struct ISAMS.Position[]",
              "name": "positions",
              "type": "tuple[]"
            }
          ],
          "internalType": "struct ISAMS.TokenInfo",
          "name": "",
          "type": "tuple"
        }
      ],
      "stateMutability": "nonpayable",
      "type": "function"
    },
    {
      "inputs": [
        {
          "internalType": "address",
          "name": "_token",
          "type": "address"
        },
        {
          "internalType": "uint256",
          "name": "_amount",
          "type": "uint256"
        }
      ],
      "name": "recoverERC20",
      "outputs": [],
      "stateMutability": "nonpayable",
      "type": "function"
    },
    {
      "inputs": [],
      "name": "refreshApprovals",
      "outputs": [],
      "stateMutability": "nonpayable",
      "type": "function"
    },
    {
      "inputs": [],
      "name": "renounceOwnership",
      "outputs": [],
      "stateMutability": "nonpayable",
      "type": "function"
    },
    {
      "inputs": [
        {
          "internalType": "address",
          "name": "from",
          "type": "address"
        },
        {
          "internalType": "address",
          "name": "to",
          "type": "address"
        },
        {
          "internalType": "uint256[]",
          "name": "ids",
          "type": "uint256[]"
        },
        {
          "internalType": "uint256[]",
          "name": "amounts",
          "type": "uint256[]"
        },
        {
          "internalType": "bytes",
          "name": "data",
          "type": "bytes"
        }
      ],
      "name": "safeBatchTransferFrom",
      "outputs": [],
      "stateMutability": "nonpayable",
      "type": "function"
    },
    {
      "inputs": [
        {
          "internalType": "address",
          "name": "from",
          "type": "address"
        },
        {
          "internalType": "address",
          "name": "to",
          "type": "address"
        },
        {
          "internalType": "uint256",
          "name": "id",
          "type": "uint256"
        },
        {
          "internalType": "uint256",
          "name": "amount",
          "type": "uint256"
        },
        {
          "internalType": "bytes",
          "name": "data",
          "type": "bytes"
        }
      ],
      "name": "safeTransferFrom",
      "outputs": [],
      "stateMutability": "nonpayable",
      "type": "function"
    },
    {
      "inputs": [
        {
          "internalType": "address",
          "name": "operator",
          "type": "address"
        },
        {
          "internalType": "bool",
          "name": "approved",
          "type": "bool"
        }
      ],
      "name": "setApprovalForAll",
      "outputs": [],
      "stateMutability": "nonpayable",
      "type": "function"
    },
    {
      "inputs": [
        {
          "internalType": "uint16[]",
          "name": "_bps",
          "type": "uint16[]"
        }
      ],
      "name": "setBpsForStrategies",
      "outputs": [],
      "stateMutability": "nonpayable",
      "type": "function"
    },
    {
      "inputs": [
        {
          "internalType": "address",
          "name": "_contract",
          "type": "address"
        }
      ],
      "name": "setFeeCalculator",
      "outputs": [],
      "stateMutability": "nonpayable",
      "type": "function"
    },
    {
      "inputs": [
        {
          "internalType": "address",
          "name": "_contract",
          "type": "address"
        }
      ],
      "name": "setFeeManager",
      "outputs": [],
      "stateMutability": "nonpayable",
      "type": "function"
    },
    {
      "inputs": [
        {
          "internalType": "uint256",
          "name": "_amount",
          "type": "uint256"
        }
      ],
      "name": "setMinDeposit",
      "outputs": [],
      "stateMutability": "nonpayable",
      "type": "function"
    },
    {
      "inputs": [
        {
          "internalType": "address",
          "name": "_contract",
          "type": "address"
        },
        {
          "internalType": "bool",
          "name": "_fees",
          "type": "bool"
        }
      ],
      "name": "setNoFeesFor",
      "outputs": [],
      "stateMutability": "nonpayable",
      "type": "function"
    },
    {
      "inputs": [
        {
          "components": [
            {
              "internalType": "address",
              "name": "strategy",
              "type": "address"
            },
            {
              "internalType": "bool",
              "name": "isFortiFi",
              "type": "bool"
            },
            {
              "internalType": "uint16",
              "name": "bps",
              "type": "uint16"
            }
          ],
          "internalType": "struct ISAMS.Strategy[]",
          "name": "_strategies",
          "type": "tuple[]"
        }
      ],
      "name": "setStrategies",
      "outputs": [],
      "stateMutability": "nonpayable",
      "type": "function"
    },
    {
      "inputs": [
        {
          "internalType": "uint256",
          "name": "",
          "type": "uint256"
        }
      ],
      "name": "strategies",
      "outputs": [
        {
          "internalType": "address",
          "name": "strategy",
          "type": "address"
        },
        {
          "internalType": "bool",
          "name": "isFortiFi",
          "type": "bool"
        },
        {
          "internalType": "uint16",
          "name": "bps",
          "type": "uint16"
        }
      ],
      "stateMutability": "view",
      "type": "function"
    },
    {
      "inputs": [
        {
          "internalType": "bytes4",
          "name": "interfaceId",
          "type": "bytes4"
        }
      ],
      "name": "supportsInterface",
      "outputs": [
        {
          "internalType": "bool",
          "name": "",
          "type": "bool"
        }
      ],
      "stateMutability": "view",
      "type": "function"
    },
    {
      "inputs": [],
      "name": "symbol",
      "outputs": [
        {
          "internalType": "string",
          "name": "",
          "type": "string"
        }
      ],
      "stateMutability": "view",
      "type": "function"
    },
    {
      "inputs": [
        {
          "internalType": "uint256",
          "name": "id",
          "type": "uint256"
        }
      ],
      "name": "totalSupply",
      "outputs": [
        {
          "internalType": "uint256",
          "name": "",
          "type": "uint256"
        }
      ],
      "stateMutability": "view",
      "type": "function"
    },
    {
      "inputs": [
        {
          "internalType": "address",
          "name": "newOwner",
          "type": "address"
        }
      ],
      "name": "transferOwnership",
      "outputs": [],
      "stateMutability": "nonpayable",
      "type": "function"
    },
    {
      "inputs": [
        {
          "internalType": "uint256",
          "name": "",
          "type": "uint256"
        }
      ],
      "name": "uri",
      "outputs": [
        {
          "internalType": "string",
          "name": "",
          "type": "string"
        }
      ],
      "stateMutability": "view",
      "type": "function"
    },
    {
      "inputs": [
        {
          "internalType": "uint256",
          "name": "_tokenId",
          "type": "uint256"
        }
      ],
      "name": "withdraw",
      "outputs": [],
      "stateMutability": "nonpayable",
      "type": "function"
    },
    {
      "inputs": [],
      "name": "wrappedNative",
      "outputs": [
        {
          "internalType": "address",
          "name": "",
          "type": "address"
        }
      ],
      "stateMutability": "view",
      "type": "function"
    },
    {
      "stateMutability": "payable",
      "type": "receive"
    }
  ],
  "transactionHash": "0xa265b0036716f817c59b00a063642071d09fea61ddb21405f03e80755e9153a5",
  "args": [
    "FortiFi BTC.b SAMS Vault",
    "ffBTCb",
    "ipfs://bafybeic35wrmxrotb2e2rnnqe6a3twakuoy4vxtlpu3yscqaj2g44s4cya/BTCb.json",
    "0xB31f66AA3C1e785363F0875A1B74E27b85FD66c7",
    "0x152b9d0FdC40C096757F570A51E494bd4b943E50",
    "0xf964894470AfC11037f6BCB38609f77e9EBA9851",
    "0xfe3350916b44004145A30158f56F8369e096b24D",
    10000,
    [
      {
        "strategy": "0xFE55D3eF39A25E55818e1A3900D41F561a75f4ea",
        "isFortiFi": false,
        "bps": 7250
      },
      {
        "strategy": "0x8889Da43CeE581068C695A2c256Ba2D514608F4A",
        "isFortiFi": false,
        "bps": 2750
      }
    ]
  ],
  "numDeployments": 14,
  "solcInputHash": "337b5c5be76b6cd9a7609cec22c38a80",
  "bytecode": "0x60c060405260016009819055600a805460ff191690911790553480156200002557600080fd5b50604051620053c3380380620053c383398101604081905262000048916200097d565b866200005481620001aa565b506200006033620001bc565b60016005556001600160a01b0386166200008d5760405163d92e233d60e01b815260040160405180910390fd5b6001600160a01b038516620000b55760405163d92e233d60e01b815260040160405180910390fd5b6001600160a01b038416620000dd5760405163d92e233d60e01b815260040160405180910390fd5b6001600160a01b038316620001055760405163d92e233d60e01b815260040160405180910390fd5b6127108210156200012957604051634f4940eb60e11b815260040160405180910390fd5b6006620001378a8262000b1a565b50600762000146898262000b1a565b5060088290556001600160a01b0386811660a052858116608052600a8054610100600160a81b03191661010086841602179055600b80546001600160a01b0319169186169190911790556200019b816200020e565b50505050505050505062000ce2565b6002620001b8828262000b1a565b5050565b600480546001600160a01b038381166001600160a01b0319831681179093556040519116919082907f8be0079c531659141344cd1fd0a4f28419497f9722a3daafe3b4186f6b6457e090600090a35050565b6004546001600160a01b031633146200026d5760405162461bcd60e51b815260206004820181905260248201527f4f776e61626c653a2063616c6c6572206973206e6f7420746865206f776e6572604482015260640160405180910390fd5b8051600081900362000292576040516356de305560e01b815260040160405180910390fd5b6004811115620002b55760405163607ed4ff60e11b815260040160405180910390fd5b6000816001600160401b03811115620002d257620002d262000771565b604051908082528060200260200182016040528015620002fc578160200160208202803683370190505b5090506000805b83811015620003515784818151811062000321576200032162000be6565b602002602001015160400151826200033a919062000c12565b915080620003488162000c37565b91505062000303565b5061ffff811661271014620003795760405163c6cc5d7f60e01b815260040160405180910390fd5b62000387600c600062000729565b60005b83811015620005675760006001600160a01b0316858281518110620003b357620003b362000be6565b6020026020010151600001516001600160a01b031603620003e75760405163d92e233d60e01b815260040160405180910390fd5b60005b81811015620004775785828151811062000408576200040862000be6565b6020026020010151600001516001600160a01b031684828151811062000432576200043262000be6565b60200260200101516001600160a01b031603620004625760405163cc5fde6960e01b815260040160405180910390fd5b806200046e8162000c37565b915050620003ea565b508481815181106200048d576200048d62000be6565b602002602001015160000151838281518110620004ae57620004ae62000be6565b60200260200101906001600160a01b031690816001600160a01b031681525050600c858281518110620004e557620004e562000be6565b60209081029190910181015182546001810184556000938452928290208151930180549282015160409092015161ffff16600160a81b0261ffff60a81b19921515600160a01b026001600160a81b03199094166001600160a01b03909516949094179290921716919091179055806200055e8162000c37565b9150506200038a565b5062000572620005b1565b7f4e0c92aa09fb96940a594a7764c5a59908782e8cfdda12a1326ab05ea426ef9b84604051620005a3919062000c53565b60405180910390a150505050565b608051600c5460005b818110156200067f57826001600160a01b031663095ea7b3600c8381548110620005e857620005e862000be6565b60009182526020909120015460405160e083901b6001600160e01b03191681526001600160a01b03909116600482015260001960248201526044016020604051808303816000875af115801562000643573d6000803e3d6000fd5b505050506040513d601f19601f8201168201806040525081019062000669919062000cbd565b5080620006768162000c37565b915050620005ba565b50600b5460405163095ea7b360e01b81526001600160a01b03918216600482015260001960248201529083169063095ea7b3906044016020604051808303816000875af1158015620006d5573d6000803e3d6000fd5b505050506040513d601f19601f82011682018060405250810190620006fb919062000cbd565b506040517f3aea0c7f8169b9836e3c3e201cc5e2994baa61ae616cd0681a60ae7c9df9c9a690600090a15050565b50805460008255906000526020600020908101906200074991906200074c565b50565b5b808211156200076d5780546001600160b81b03191681556001016200074d565b5090565b634e487b7160e01b600052604160045260246000fd5b604051606081016001600160401b0381118282101715620007ac57620007ac62000771565b60405290565b604051601f8201601f191681016001600160401b0381118282101715620007dd57620007dd62000771565b604052919050565b600082601f830112620007f757600080fd5b81516001600160401b0381111562000813576200081362000771565b602062000829601f8301601f19168201620007b2565b82815285828487010111156200083e57600080fd5b60005b838110156200085e57858101830151828201840152820162000841565b506000928101909101919091529392505050565b80516001600160a01b03811681146200088a57600080fd5b919050565b805180151581146200088a57600080fd5b600082601f830112620008b257600080fd5b815160206001600160401b03821115620008d057620008d062000771565b620008e0818360051b01620007b2565b828152606092830285018201928282019190878511156200090057600080fd5b8387015b85811015620009705781818a0312156200091e5760008081fd5b6200092862000787565b620009338262000872565b8152620009428683016200088f565b8682015260408083015161ffff811681146200095e5760008081fd5b90820152845292840192810162000904565b5090979650505050505050565b60008060008060008060008060006101208a8c0312156200099d57600080fd5b89516001600160401b0380821115620009b557600080fd5b620009c38d838e01620007e5565b9a5060208c0151915080821115620009da57600080fd5b620009e88d838e01620007e5565b995060408c0151915080821115620009ff57600080fd5b62000a0d8d838e01620007e5565b985062000a1d60608d0162000872565b975062000a2d60808d0162000872565b965062000a3d60a08d0162000872565b955062000a4d60c08d0162000872565b945060e08c015193506101008c015191508082111562000a6c57600080fd5b5062000a7b8c828d01620008a0565b9150509295985092959850929598565b600181811c9082168062000aa057607f821691505b60208210810362000ac157634e487b7160e01b600052602260045260246000fd5b50919050565b601f82111562000b1557600081815260208120601f850160051c8101602086101562000af05750805b601f850160051c820191505b8181101562000b115782815560010162000afc565b5050505b505050565b81516001600160401b0381111562000b365762000b3662000771565b62000b4e8162000b47845462000a8b565b8462000ac7565b602080601f83116001811462000b86576000841562000b6d5750858301515b600019600386901b1c1916600185901b17855562000b11565b600085815260208120601f198616915b8281101562000bb75788860151825594840194600190910190840162000b96565b508582101562000bd65787850151600019600388901b60f8161c191681555b5050505050600190811b01905550565b634e487b7160e01b600052603260045260246000fd5b634e487b7160e01b600052601160045260246000fd5b61ffff81811683821601908082111562000c305762000c3062000bfc565b5092915050565b60006001820162000c4c5762000c4c62000bfc565b5060010190565b602080825282518282018190526000919060409081850190868401855b8281101562000cb057815180516001600160a01b031685528681015115158786015285015161ffff16858501526060909301929085019060010162000c70565b5091979650505050505050565b60006020828403121562000cd057600080fd5b62000cdb826200088f565b9392505050565b60805160a05161467562000d4e6000396000818161077d01528181612f0e0152612f9601526000818161069701528181610bdb01528181610c6201528181610e5d015281816112780152818161182f015281816125a201528181612e320152612ecf01526146756000f3fe60806040526004361061023e5760003560e01c80638c66d04f1161012e578063bf2c7001116100ab578063eb6d3a111161006f578063eb6d3a111461076b578063f242432a1461079f578063f2fde38b146107bf578063f4993018146107df578063f7c85469146107ff57600080fd5b8063bf2c700114610665578063c89039c514610685578063d2cee5af146106b9578063d574ea3d146106d9578063e985e9c51461072257600080fd5b806395d89b41116100f257806395d89b41146105b3578063a22cb465146105c8578063b49a60bb146105e8578063b6b55f251461060a578063bd85b0391461063857600080fd5b80638c66d04f1461051f5780638c7a63ae1461053f5780638da5cb5b1461055f5780638fcc9cfb1461057d5780639499ac541461059d57600080fd5b806343d57a64116101bc578063703b082111610180578063703b082114610450578063715018a614610480578063771602f7146104955780638980f11f146104c25780638c4cc0df146104e257600080fd5b806343d57a64146103a5578063472d35b9146103ba5780634e1273f4146103da5780634f558e79146104075780635c975abb1461043657600080fd5b8063249d39e911610203578063249d39e9146103115780632e1a7d4d1461033a5780632eb2c2d61461035a578063333171bb1461037a57806341b3d1851461038f57600080fd5b8062fdd58e1461024a57806301ffc9a71461027d57806306fdde03146102ad5780630a07daab146102cf5780630e89341c146102f157600080fd5b3661024557005b600080fd5b34801561025657600080fd5b5061026a6102653660046139db565b61081f565b6040519081526020015b60405180910390f35b34801561028957600080fd5b5061029d610298366004613a1b565b6108b9565b6040519015158152602001610274565b3480156102b957600080fd5b506102c2610914565b6040516102749190613a88565b3480156102db57600080fd5b506102ef6102ea366004613aa9565b6109a2565b005b3480156102fd57600080fd5b506102c261030c366004613ae0565b610a2f565b34801561031d57600080fd5b5061032761271081565b60405161ffff9091168152602001610274565b34801561034657600080fd5b506102ef610355366004613ae0565b610ac3565b34801561036657600080fd5b506102ef610375366004613c6b565b610d4a565b34801561038657600080fd5b506102ef610de1565b34801561039b57600080fd5b5061026a60085481565b3480156103b157600080fd5b506102ef610e58565b3480156103c657600080fd5b506102ef6103d5366004613d15565b610fe2565b3480156103e657600080fd5b506103fa6103f5366004613d30565b611088565b6040516102749190613e36565b34801561041357600080fd5b5061029d610422366004613ae0565b600090815260036020526040902054151590565b34801561044257600080fd5b50600a5461029d9060ff1681565b34801561045c57600080fd5b5061029d61046b366004613d15565b600e6020526000908152604090205460ff1681565b34801561048c57600080fd5b506102ef6111b2565b3480156104a157600080fd5b506104b56104b0366004613e49565b6111e8565b6040516102749190613ef6565b3480156104ce57600080fd5b506102ef6104dd3660046139db565b6113f6565b3480156104ee57600080fd5b50600a546105079061010090046001600160a01b031681565b6040516001600160a01b039091168152602001610274565b34801561052b57600080fd5b506102ef61053a366004613d15565b6114e8565b34801561054b57600080fd5b506104b561055a366004613ae0565b61158f565b34801561056b57600080fd5b506004546001600160a01b0316610507565b34801561058957600080fd5b506102ef610598366004613ae0565b611670565b3480156105a957600080fd5b5061026a60095481565b3480156105bf57600080fd5b506102c26116f2565b3480156105d457600080fd5b506102ef6105e3366004613aa9565b6116ff565b3480156105f457600080fd5b506105fd61170e565b6040516102749190613f09565b34801561061657600080fd5b5061062a610625366004613ae0565b611795565b604051610274929190613f7a565b34801561064457600080fd5b5061026a610653366004613ae0565b60009081526003602052604090205490565b34801561067157600080fd5b506102ef610680366004613f93565b61198e565b34801561069157600080fd5b506105077f000000000000000000000000000000000000000000000000000000000000000081565b3480156106c557600080fd5b506102ef6106d436600461401a565b611af2565b3480156106e557600080fd5b506106f96106f4366004613ae0565b611e21565b604080516001600160a01b039094168452911515602084015261ffff1690820152606001610274565b34801561072e57600080fd5b5061029d61073d3660046140fc565b6001600160a01b03918216600090815260016020908152604080832093909416825291909152205460ff1690565b34801561077757600080fd5b506105077f000000000000000000000000000000000000000000000000000000000000000081565b3480156107ab57600080fd5b506102ef6107ba36600461412f565b611e62565b3480156107cb57600080fd5b506102ef6107da366004613d15565b611ee9565b3480156107eb57600080fd5b506104b56107fa366004613ae0565b611f84565b34801561080b57600080fd5b50600b54610507906001600160a01b031681565b60006001600160a01b0383166108905760405162461bcd60e51b815260206004820152602b60248201527f455243313135353a2062616c616e636520717565727920666f7220746865207a60448201526a65726f206164647265737360a81b60648201526084015b60405180910390fd5b506000818152602081815260408083206001600160a01b03861684529091529020545b92915050565b60006001600160e01b03198216636cdb3d1360e11b14806108ea57506001600160e01b031982166303a24d0760e21b145b8061090557506001600160e01b03198216632bee9c0f60e21b145b806108b357506108b382612165565b6006805461092190614194565b80601f016020809104026020016040519081016040528092919081815260200182805461094d90614194565b801561099a5780601f1061096f5761010080835404028352916020019161099a565b820191906000526020600020905b81548152906001019060200180831161097d57829003601f168201915b505050505081565b6004546001600160a01b031633146109cc5760405162461bcd60e51b8152600401610887906141ce565b6001600160a01b0382166000818152600e6020908152604091829020805460ff19168515159081179091558251938452908301527fd8b21987dacbcd229a38b13bbcf81ab86966d367fbd1d5b9ed321c955547f439910160405180910390a15050565b606060028054610a3e90614194565b80601f0160208091040260200160405190810160405280929190818152602001828054610a6a90614194565b8015610ab75780601f10610a8c57610100808354040283529160200191610ab7565b820191906000526020600020905b815481529060010190602001808311610a9a57829003601f168201915b50505050509050919050565b600260055403610ae55760405162461bcd60e51b815260040161088790614203565b6002600555610af4338261081f565b600003610b14576040516359dc379f60e01b815260040160405180910390fd5b610b20338260016121b5565b600080610b2c8361232e565b336000908152600e60205260408120549294509092509060ff16610c4a57600a54604051633becdb0560e21b8152336004820152602481018490526101009091046001600160a01b03169063efb36c1490604401602060405180830381865afa158015610b9d573d6000803e3d6000fd5b505050506040513d601f19601f82011682018060405250810190610bc1919061423a565b600b5460405163280cff3560e21b81526001600160a01b037f0000000000000000000000000000000000000000000000000000000000000000811660048301526024820184905292935091169063a033fcd490604401600060405180830381600087803b158015610c3157600080fd5b505af1158015610c45573d6000803e3d6000fd5b505050505b610c8933610c588386614269565b6001600160a01b037f0000000000000000000000000000000000000000000000000000000000000000169190612640565b4715610cfa57604051600090339047908381818185875af1925050503d8060008114610cd1576040519150601f19603f3d011682016040523d82523d6000602084013e610cd6565b606091505b5050905080610cf857604051631d73cefb60e31b815260040160405180910390fd5b505b6040805184815260208101849052908101829052849033907f887e73c01568cecc3fe477a39c098f6599306a7592db9c8941dfc71ff9046d069060600160405180910390a3505060016005555050565b6001600160a01b038516331480610d665750610d66853361073d565b610dcd5760405162461bcd60e51b815260206004820152603260248201527f455243313135353a207472616e736665722063616c6c6572206973206e6f74206044820152711bdddb995c881b9bdc88185c1c1c9bdd995960721b6064820152608401610887565b610dda85858585856126a8565b5050505050565b6004546001600160a01b03163314610e0b5760405162461bcd60e51b8152600401610887906141ce565b600a805460ff8082161560ff1990921682179092556040519116151581527fb31006682779d0ac02864bee834675baf4592a679bfe75edd5e5847b52ef6f6e9060200160405180910390a1565b600c547f00000000000000000000000000000000000000000000000000000000000000009060005b81811015610f3b57826001600160a01b031663095ea7b3600c8381548110610eaa57610eaa61427c565b60009182526020909120015460405160e083901b6001600160e01b03191681526001600160a01b03909116600482015260001960248201526044016020604051808303816000875af1158015610f04573d6000803e3d6000fd5b505050506040513d601f19601f82011682018060405250810190610f289190614292565b5080610f33816142af565b915050610e80565b50600b5460405163095ea7b360e01b81526001600160a01b03918216600482015260001960248201529083169063095ea7b3906044016020604051808303816000875af1158015610f90573d6000803e3d6000fd5b505050506040513d601f19601f82011682018060405250810190610fb49190614292565b506040517f3aea0c7f8169b9836e3c3e201cc5e2994baa61ae616cd0681a60ae7c9df9c9a690600090a15050565b6004546001600160a01b0316331461100c5760405162461bcd60e51b8152600401610887906141ce565b6001600160a01b0381166110335760405163d92e233d60e01b815260040160405180910390fd5b600b80546001600160a01b0319166001600160a01b0383169081179091556040519081527fbf5f580614969fb819b8af01f7cc62fe0e0146feaf98d7aee42e76bb0bee8e63906020015b60405180910390a150565b606081518351146110ed5760405162461bcd60e51b815260206004820152602960248201527f455243313135353a206163636f756e747320616e6420696473206c656e677468604482015268040dad2e6dac2e8c6d60bb1b6064820152608401610887565b6000835167ffffffffffffffff81111561110957611109613af9565b604051908082528060200260200182016040528015611132578160200160208202803683370190505b50905060005b84518110156111aa5761117d8582815181106111565761115661427c565b60200260200101518583815181106111705761117061427c565b602002602001015161081f565b82828151811061118f5761118f61427c565b60209081029190910101526111a3816142af565b9050611138565b509392505050565b6004546001600160a01b031633146111dc5760405162461bcd60e51b8152600401610887906141ce565b6111e66000612893565b565b60408051808201909152600081526060602082015260026005540361121f5760405162461bcd60e51b815260040161088790614203565b6002600555600a5460ff16156112485760405163ab35696f60e01b815260040160405180910390fd5b60085483101561126b57604051635972996f60e11b815260040160405180910390fd5b6112a06001600160a01b037f0000000000000000000000000000000000000000000000000000000000000000163330866128e5565b6112aa338361081f565b6000036112ca576040516359dc379f60e01b815260040160405180910390fd5b6112d683836001612923565b600d60008381526020019081526020016000206040518060400160405290816000820154815260200160018201805480602002602001604051908101604052809291908181526020016000905b828210156113945760008481526020908190206040805160a0810182526002860290920180546001600160a01b038116928401928352600160a01b810460ff1615156060850152600160a81b900461ffff166080840152908252600190810154828401529083529092019101611323565b505050508152505090506113a781612e1a565b81336001600160a01b03167f75e72f79742d7acf4da04882463cf16c19e7791e3a08e5308d920498e713841885846040516113e3929190613f7a565b60405180910390a3600160055592915050565b6004546001600160a01b031633146114205760405162461bcd60e51b8152600401610887906141ce565b600c5460005b8181101561148b57600c81815481106114415761144161427c565b6000918252602090912001546001600160a01b03908116908516036114795760405163118539e960e01b815260040160405180910390fd5b80611483816142af565b915050611426565b506114a06001600160a01b0384163384612640565b826001600160a01b03167f505b28e6941631badc363841ecbf8e1214b9379c643936458e87be718e157999836040516114db91815260200190565b60405180910390a2505050565b6004546001600160a01b031633146115125760405162461bcd60e51b8152600401610887906141ce565b6001600160a01b0381166115395760405163d92e233d60e01b815260040160405180910390fd5b600a8054610100600160a81b0319166101006001600160a01b038416908102919091179091556040519081527fff482b94e6650f33ebd5a4b656f2524de0c552f315fb3270f47aeaef3d72a63e9060200161107d565b604080518082019091526000815260606020820152600d60008381526020019081526020016000206040518060400160405290816000820154815260200160018201805480602002602001604051908101604052809291908181526020016000905b828210156116625760008481526020908190206040805160a0810182526002860290920180546001600160a01b038116928401928352600160a01b810460ff1615156060850152600160a81b900461ffff1660808401529082526001908101548284015290835290920191016115f1565b505050915250909392505050565b6004546001600160a01b0316331461169a5760405162461bcd60e51b8152600401610887906141ce565b6127108110156116bd57604051634f4940eb60e11b815260040160405180910390fd5b60088190556040518181527fc50a7f0bdf88c216b2541b0bdea26f22305460e39ffc672ec1a7501732c5ba819060200161107d565b6007805461092190614194565b61170a33838361302c565b5050565b6060600c805480602002602001604051908101604052809291908181526020016000905b8282101561178c57600084815260209081902060408051606081018252918501546001600160a01b0381168352600160a01b810460ff16151583850152600160a81b900461ffff1690820152825260019092019101611732565b50505050905090565b60006117b4604051806040016040528060008152602001606081525090565b6002600554036117d65760405162461bcd60e51b815260040161088790614203565b6002600555600a5460ff16156117ff5760405163ab35696f60e01b815260040160405180910390fd5b60085483101561182257604051635972996f60e11b815260040160405180910390fd5b6118576001600160a01b037f0000000000000000000000000000000000000000000000000000000000000000163330866128e5565b61185f61310c565b915061186d83836000612923565b600d60008381526020019081526020016000206040518060400160405290816000820154815260200160018201805480602002602001604051908101604052809291908181526020016000905b8282101561192b5760008481526020908190206040805160a0810182526002860290920180546001600160a01b038116928401928352600160a01b810460ff1615156060850152600160a81b900461ffff1660808401529082526001908101548284015290835290920191016118ba565b5050505081525050905061193e81612e1a565b81336001600160a01b03167f8f4139b21e83dfa6074c9d7b6cbf820a694420c33868b26c75884a94ad01f451858460405161197a929190613f7a565b60405180910390a360016005559092909150565b6004546001600160a01b031633146119b85760405162461bcd60e51b8152600401610887906141ce565b600c548181146119db57604051634ec4810560e11b815260040160405180910390fd5b6000805b82811015611a91578484828181106119f9576119f961427c565b9050602002016020810190611a0e91906142c8565b600c8281548110611a2157611a2161427c565b9060005260206000200160000160156101000a81548161ffff021916908361ffff160217905550848482818110611a5a57611a5a61427c565b9050602002016020810190611a6f91906142c8565b611a7d9061ffff16836142e3565b915080611a89816142af565b9150506119df565b506127108114611ab45760405163c6cc5d7f60e01b815260040160405180910390fd5b7f4e0c92aa09fb96940a594a7764c5a59908782e8cfdda12a1326ab05ea426ef9b600c604051611ae491906142f6565b60405180910390a150505050565b6004546001600160a01b03163314611b1c5760405162461bcd60e51b8152600401610887906141ce565b80516000819003611b40576040516356de305560e01b815260040160405180910390fd5b6004811115611b625760405163607ed4ff60e11b815260040160405180910390fd5b60008167ffffffffffffffff811115611b7d57611b7d613af9565b604051908082528060200260200182016040528015611ba6578160200160208202803683370190505b5090506000805b83811015611bf257848181518110611bc757611bc761427c565b60200260200101516040015182611bde9190614368565b915080611bea816142af565b915050611bad565b5061ffff811661271014611c195760405163c6cc5d7f60e01b815260040160405180910390fd5b611c25600c6000613937565b60005b83811015611de95760006001600160a01b0316858281518110611c4d57611c4d61427c565b6020026020010151600001516001600160a01b031603611c805760405163d92e233d60e01b815260040160405180910390fd5b60005b81811015611d0557858281518110611c9d57611c9d61427c565b6020026020010151600001516001600160a01b0316848281518110611cc457611cc461427c565b60200260200101516001600160a01b031603611cf35760405163cc5fde6960e01b815260040160405180910390fd5b80611cfd816142af565b915050611c83565b50848181518110611d1857611d1861427c565b602002602001015160000151838281518110611d3657611d3661427c565b60200260200101906001600160a01b031690816001600160a01b031681525050600c858281518110611d6a57611d6a61427c565b60209081029190910181015182546001810184556000938452928290208151930180549282015160409092015161ffff16600160a81b0261ffff60a81b19921515600160a01b026001600160a81b03199094166001600160a01b0390951694909417929092171691909117905580611de1816142af565b915050611c28565b50611df2610e58565b7f4e0c92aa09fb96940a594a7764c5a59908782e8cfdda12a1326ab05ea426ef9b84604051611ae49190613f09565b600c8181548110611e3157600080fd5b6000918252602090912001546001600160a01b0381169150600160a01b810460ff1690600160a81b900461ffff1683565b6001600160a01b038516331480611e7e5750611e7e853361073d565b611edc5760405162461bcd60e51b815260206004820152602960248201527f455243313135353a2063616c6c6572206973206e6f74206f776e6572206e6f7260448201526808185c1c1c9bdd995960ba1b6064820152608401610887565b610dda858585858561314c565b6004546001600160a01b03163314611f135760405162461bcd60e51b8152600401610887906141ce565b6001600160a01b038116611f785760405162461bcd60e51b815260206004820152602660248201527f4f776e61626c653a206e6577206f776e657220697320746865207a65726f206160448201526564647265737360d01b6064820152608401610887565b611f8181612893565b50565b604080518082019091526000815260606020820152600260055403611fbb5760405162461bcd60e51b815260040161088790614203565b6002600555600a5460ff1615611fe45760405163ab35696f60e01b815260040160405180910390fd5b611fee338361081f565b60000361200e576040516359dc379f60e01b815260040160405180910390fd5b6000828152600d6020526040812054906120278461232e565b506000858152600d602052604081208181559192506120496001830182613955565b505061205781856000612923565b6000848152600d60209081526040808320858155815180830183528681526001820180548451818702810187019095528085529194929385840193909290879084015b8282101561210b5760008481526020908190206040805160a0810182526002860290920180546001600160a01b038116928401928352600160a01b810460ff1615156060850152600160a81b900461ffff16608084015290825260019081015482840152908352909201910161209a565b5050505081525050905061211e81612e1a565b847f86826426a5e2fca1cbfbb1910b17dd940a00ec5386b31cdf12cbffca953400058383604051612150929190613f7a565b60405180910390a26001600555949350505050565b60006001600160e01b03198216636cdb3d1360e11b148061219657506001600160e01b031982166303a24d0760e21b145b806108b357506301ffc9a760e01b6001600160e01b03198316146108b3565b6001600160a01b0383166122175760405162461bcd60e51b815260206004820152602360248201527f455243313135353a206275726e2066726f6d20746865207a65726f206164647260448201526265737360e81b6064820152608401610887565b336122468185600061222887613278565b61223187613278565b604051806020016040528060008152506132c3565b6000838152602081815260408083206001600160a01b0388168452909152902054828110156122c35760405162461bcd60e51b8152602060048201526024808201527f455243313135353a206275726e20616d6f756e7420657863656564732062616c604482015263616e636560e01b6064820152608401610887565b6000848152602081815260408083206001600160a01b03898116808652918452828520888703905582518981529384018890529092908616917fc3d58168c5ae7397731d063d5bbf3d657854427343f4c083240f7aacaa2d0f62910160405180910390a45050505050565b6000806000600d60008581526020019081526020016000206040518060400160405290816000820154815260200160018201805480602002602001604051908101604052809291908181526020016000905b828210156123f15760008481526020908190206040805160a0810182526002860290920180546001600160a01b038116928401928352600160a01b810460ff1615156060850152600160a81b900461ffff166080840152908252600190810154828401529083529092019101612380565b5050509152505060208101515190915060005b8181101561258c576000836020015182815181106124245761242461427c565b6020026020010151600001516000015190508360200151828151811061244c5761244c61427c565b60200260200101516000015160200151156124f757806001600160a01b031663ba251fba856020015184815181106124865761248661427c565b60209081029190910181015101516040516001600160e01b031960e084901b1681526004810191909152336024820152604481018a9052606401600060405180830381600087803b1580156124da57600080fd5b505af11580156124ee573d6000803e3d6000fd5b50505050612579565b806001600160a01b0316632e1a7d4d8560200151848151811061251c5761251c61427c565b6020026020010151602001516040518263ffffffff1660e01b815260040161254691815260200190565b600060405180830381600087803b15801561256057600080fd5b505af1158015612574573d6000803e3d6000fd5b505050505b5080612584816142af565b915050612404565b506040516370a0823160e01b81523060048201527f00000000000000000000000000000000000000000000000000000000000000006001600160a01b0316906370a0823190602401602060405180830381865afa1580156125f1573d6000803e3d6000fd5b505050506040513d601f19601f82011682018060405250810190612615919061423a565b825190945084111561263457815161262d9085614269565b9250612639565b600092505b5050915091565b6040516001600160a01b0383166024820152604481018290526126a390849063a9059cbb60e01b906064015b60408051601f198184030181529190526020810180516001600160e01b03166001600160e01b0319909316929092179091526133cf565b505050565b815183511461270a5760405162461bcd60e51b815260206004820152602860248201527f455243313135353a2069647320616e6420616d6f756e7473206c656e677468206044820152670dad2e6dac2e8c6d60c31b6064820152608401610887565b6001600160a01b0384166127305760405162461bcd60e51b81526004016108879061438a565b3361273f8187878787876132c3565b60005b845181101561282557600085828151811061275f5761275f61427c565b60200260200101519050600085838151811061277d5761277d61427c565b602090810291909101810151600084815280835260408082206001600160a01b038e1683529093529190912054909150818110156127cd5760405162461bcd60e51b8152600401610887906143cf565b6000838152602081815260408083206001600160a01b038e8116855292528083208585039055908b1682528120805484929061280a9084906142e3565b925050819055505050508061281e906142af565b9050612742565b50846001600160a01b0316866001600160a01b0316826001600160a01b03167f4a39dc06d4c0dbc64b70af90fd698a233a518aa5d07e595d983b8c0526c8f7fb8787604051612875929190614419565b60405180910390a461288b8187878787876134a1565b505050505050565b600480546001600160a01b038381166001600160a01b0319831681179093556040519116919082907f8be0079c531659141344cd1fd0a4f28419497f9722a3daafe3b4186f6b6457e090600090a35050565b6040516001600160a01b038085166024830152831660448201526064810182905261291d9085906323b872dd60e01b9060840161266c565b50505050565b6000828152600d60205260408120600c5490918591905b81811015612df8576000600c82815481106129575761295761427c565b60009182526020918290206040805160608101825291909201546001600160a01b038116825260ff600160a01b82041615159382019390935261ffff600160a81b9093049290921690820152905085156129fe578460010182815481106129c0576129c061427c565b600091825260209091206002909102015481516001600160a01b039081169116146129fe576040516379c896e960e01b815260040160405180910390fd5b80516040516370a0823160e01b81523060048201526000906001600160a01b038316906370a0823190602401602060405180830381865afa158015612a47573d6000803e3d6000fd5b505050506040513d601f19601f82011682018060405250810190612a6b919061423a565b9050612a78600186614269565b8403612b2257826020015115612af5576040516329c9aa1960e01b815260048101879052336024820152604481018a90526001600160a01b038316906329c9aa19906064015b600060405180830381600087803b158015612ad857600080fd5b505af1158015612aec573d6000803e3d6000fd5b50505050612c27565b60405163b6b55f2560e01b8152600481018790526001600160a01b0383169063b6b55f2590602401612abe565b604083015160009061271090612b3c9061ffff168d614447565b612b46919061445e565b9050612b528188614269565b9650836020015115612bca576040516329c9aa1960e01b815260048101829052336024820152604481018b90526001600160a01b038416906329c9aa1990606401600060405180830381600087803b158015612bad57600080fd5b505af1158015612bc1573d6000803e3d6000fd5b50505050612c25565b60405163b6b55f2560e01b8152600481018290526001600160a01b0384169063b6b55f2590602401600060405180830381600087803b158015612c0c57600080fd5b505af1158015612c20573d6000803e3d6000fd5b505050505b505b8715612ce1576040516370a0823160e01b815230600482015281906001600160a01b038416906370a0823190602401602060405180830381865afa158015612c73573d6000803e3d6000fd5b505050506040513d601f19601f82011682018060405250810190612c97919061423a565b612ca19190614269565b876001018581548110612cb657612cb661427c565b90600052602060002090600202016001016000828254612cd691906142e3565b90915550612de29050565b60408051808201825284815290516370a0823160e01b8152306004820152600189019190602082019084906001600160a01b038716906370a0823190602401602060405180830381865afa158015612d3d573d6000803e3d6000fd5b505050506040513d601f19601f82011682018060405250810190612d61919061423a565b612d6b9190614269565b9052815460018181018455600093845260209384902083518051600290940290910180548287015160409093015161ffff16600160a81b0261ffff60a81b19931515600160a01b026001600160a81b03199092166001600160a01b0390961695909517179190911692909217825592909101519101555b5050508080612df0906142af565b91505061293a565b5085836000016000828254612e0d91906142e3565b9091555050505050505050565b6040516370a0823160e01b81523060048201526000907f00000000000000000000000000000000000000000000000000000000000000006001600160a01b0316906370a0823190602401602060405180830381865afa158015612e81573d6000803e3d6000fd5b505050506040513d601f19601f82011682018060405250810190612ea5919061423a565b90508015612ef6578082600001818151612ebf9190614269565b905250612ef66001600160a01b037f0000000000000000000000000000000000000000000000000000000000000000163383612640565b6040516370a0823160e01b81523060048201526000907f00000000000000000000000000000000000000000000000000000000000000006001600160a01b0316906370a0823190602401602060405180830381865afa158015612f5d573d6000803e3d6000fd5b505050506040513d601f19601f82011682018060405250810190612f81919061423a565b90508015612fbd57612fbd6001600160a01b037f0000000000000000000000000000000000000000000000000000000000000000163383612640565b47156126a357604051600090339047908381818185875af1925050503d8060008114613005576040519150601f19603f3d011682016040523d82523d6000602084013e61300a565b606091505b505090508061291d57604051631d73cefb60e31b815260040160405180910390fd5b816001600160a01b0316836001600160a01b03160361309f5760405162461bcd60e51b815260206004820152602960248201527f455243313135353a2073657474696e6720617070726f76616c20737461747573604482015268103337b91039b2b63360b91b6064820152608401610887565b6001600160a01b03838116600081815260016020908152604080832094871680845294825291829020805460ff191686151590811790915591519182527f17307eab39ab6107e8899845ad3d59bd9653f200f220920489ca2b5937696c31910160405180910390a3505050565b6000600954905061312f33826001604051806020016040528060008152506135fc565b60016009600082825461314291906142e3565b9250508190555090565b6001600160a01b0384166131725760405162461bcd60e51b81526004016108879061438a565b3361319181878761318288613278565b61318b88613278565b876132c3565b6000848152602081815260408083206001600160a01b038a168452909152902054838110156131d25760405162461bcd60e51b8152600401610887906143cf565b6000858152602081815260408083206001600160a01b038b811685529252808320878503905590881682528120805486929061320f9084906142e3565b909155505060408051868152602081018690526001600160a01b03808916928a821692918616917fc3d58168c5ae7397731d063d5bbf3d657854427343f4c083240f7aacaa2d0f62910160405180910390a461326f8288888888886136f9565b50505050505050565b604080516001808252818301909252606091600091906020808301908036833701905050905082816000815181106132b2576132b261427c565b602090810291909101015292915050565b6001600160a01b03851661334a5760005b8351811015613348578281815181106132ef576132ef61427c565b60200260200101516003600086848151811061330d5761330d61427c565b60200260200101518152602001908152602001600020600082825461333291906142e3565b909155506133419050816142af565b90506132d4565b505b6001600160a01b03841661288b5760005b835181101561326f578281815181106133765761337661427c565b6020026020010151600360008684815181106133945761339461427c565b6020026020010151815260200190815260200160002060008282546133b99190614269565b909155506133c89050816142af565b905061335b565b6000613424826040518060400160405280602081526020017f5361666545524332303a206c6f772d6c6576656c2063616c6c206661696c6564815250856001600160a01b03166137b49092919063ffffffff16565b8051909150156126a357808060200190518101906134429190614292565b6126a35760405162461bcd60e51b815260206004820152602a60248201527f5361666545524332303a204552433230206f7065726174696f6e20646964206e6044820152691bdd081cdd58d8d9595960b21b6064820152608401610887565b6001600160a01b0384163b1561288b5760405163bc197c8160e01b81526001600160a01b0385169063bc197c81906134e59089908990889088908890600401614480565b6020604051808303816000875af1925050508015613520575060408051601f3d908101601f1916820190925261351d918101906144de565b60015b6135cc5761352c6144fb565b806308c379a0036135655750613540614517565b8061354b5750613567565b8060405162461bcd60e51b81526004016108879190613a88565b505b60405162461bcd60e51b815260206004820152603460248201527f455243313135353a207472616e7366657220746f206e6f6e20455243313135356044820152732932b1b2b4bb32b91034b6b83632b6b2b73a32b960611b6064820152608401610887565b6001600160e01b0319811663bc197c8160e01b1461326f5760405162461bcd60e51b8152600401610887906145a1565b6001600160a01b03841661365c5760405162461bcd60e51b815260206004820152602160248201527f455243313135353a206d696e7420746f20746865207a65726f206164647265736044820152607360f81b6064820152608401610887565b3361366d8160008761318288613278565b6000848152602081815260408083206001600160a01b03891684529091528120805485929061369d9084906142e3565b909155505060408051858152602081018590526001600160a01b0380881692600092918516917fc3d58168c5ae7397731d063d5bbf3d657854427343f4c083240f7aacaa2d0f62910160405180910390a4610dda816000878787875b6001600160a01b0384163b1561288b5760405163f23a6e6160e01b81526001600160a01b0385169063f23a6e619061373d90899089908890889088906004016145e9565b6020604051808303816000875af1925050508015613778575060408051601f3d908101601f19168201909252613775918101906144de565b60015b6137845761352c6144fb565b6001600160e01b0319811663f23a6e6160e01b1461326f5760405162461bcd60e51b8152600401610887906145a1565b60606137c384846000856137cd565b90505b9392505050565b60608247101561382e5760405162461bcd60e51b815260206004820152602660248201527f416464726573733a20696e73756666696369656e742062616c616e636520666f6044820152651c8818d85b1b60d21b6064820152608401610887565b6001600160a01b0385163b6138855760405162461bcd60e51b815260206004820152601d60248201527f416464726573733a2063616c6c20746f206e6f6e2d636f6e74726163740000006044820152606401610887565b600080866001600160a01b031685876040516138a19190614623565b60006040518083038185875af1925050503d80600081146138de576040519150601f19603f3d011682016040523d82523d6000602084013e6138e3565b606091505b50915091506138f38282866138fe565b979650505050505050565b6060831561390d5750816137c6565b82511561391d5782518084602001fd5b8160405162461bcd60e51b81526004016108879190613a88565b5080546000825590600052602060002090810190611f819190613976565b5080546000825560020290600052602060002090810190611f819190613999565b5b808211156139955780546001600160b81b0319168155600101613977565b5090565b5b808211156139955780546001600160b81b03191681556000600182015560020161399a565b80356001600160a01b03811681146139d657600080fd5b919050565b600080604083850312156139ee57600080fd5b6139f7836139bf565b946020939093013593505050565b6001600160e01b031981168114611f8157600080fd5b600060208284031215613a2d57600080fd5b81356137c681613a05565b60005b83811015613a53578181015183820152602001613a3b565b50506000910152565b60008151808452613a74816020860160208601613a38565b601f01601f19169290920160200192915050565b6020815260006137c66020830184613a5c565b8015158114611f8157600080fd5b60008060408385031215613abc57600080fd5b613ac5836139bf565b91506020830135613ad581613a9b565b809150509250929050565b600060208284031215613af257600080fd5b5035919050565b634e487b7160e01b600052604160045260246000fd5b6060810181811067ffffffffffffffff82111715613b2f57613b2f613af9565b60405250565b601f8201601f1916810167ffffffffffffffff81118282101715613b5b57613b5b613af9565b6040525050565b600067ffffffffffffffff821115613b7c57613b7c613af9565b5060051b60200190565b600082601f830112613b9757600080fd5b81356020613ba482613b62565b604051613bb18282613b35565b83815260059390931b8501820192828101915086841115613bd157600080fd5b8286015b84811015613bec5780358352918301918301613bd5565b509695505050505050565b600082601f830112613c0857600080fd5b813567ffffffffffffffff811115613c2257613c22613af9565b604051613c39601f8301601f191660200182613b35565b818152846020838601011115613c4e57600080fd5b816020850160208301376000918101602001919091529392505050565b600080600080600060a08688031215613c8357600080fd5b613c8c866139bf565b9450613c9a602087016139bf565b9350604086013567ffffffffffffffff80821115613cb757600080fd5b613cc389838a01613b86565b94506060880135915080821115613cd957600080fd5b613ce589838a01613b86565b93506080880135915080821115613cfb57600080fd5b50613d0888828901613bf7565b9150509295509295909350565b600060208284031215613d2757600080fd5b6137c6826139bf565b60008060408385031215613d4357600080fd5b823567ffffffffffffffff80821115613d5b57600080fd5b818501915085601f830112613d6f57600080fd5b81356020613d7c82613b62565b604051613d898282613b35565b83815260059390931b8501820192828101915089841115613da957600080fd5b948201945b83861015613dce57613dbf866139bf565b82529482019490820190613dae565b96505086013592505080821115613de457600080fd5b50613df185828601613b86565b9150509250929050565b600081518084526020808501945080840160005b83811015613e2b57815187529582019590820190600101613e0f565b509495945050505050565b6020815260006137c66020830184613dfb565b60008060408385031215613e5c57600080fd5b50508035926020909101359150565b60006040830182518452602080840151604082870152828151808552606094508488019150838301925060005b81811015613ee9578351613ed084825180516001600160a01b0316825260208082015115159083015260409081015161ffff16910152565b8501518387015292840192608090920191600101613e98565b5090979650505050505050565b6020815260006137c66020830184613e6b565b6020808252825182820181905260009190848201906040850190845b81811015613f6e57613f5b83855180516001600160a01b0316825260208082015115159083015260409081015161ffff16910152565b9284019260609290920191600101613f25565b50909695505050505050565b8281526040602082015260006137c36040830184613e6b565b60008060208385031215613fa657600080fd5b823567ffffffffffffffff80821115613fbe57600080fd5b818501915085601f830112613fd257600080fd5b813581811115613fe157600080fd5b8660208260051b8501011115613ff657600080fd5b60209290920196919550909350505050565b803561ffff811681146139d657600080fd5b6000602080838503121561402d57600080fd5b823567ffffffffffffffff81111561404457600080fd5b8301601f8101851361405557600080fd5b803561406081613b62565b6040805161406e8382613b35565b8381526060938402850186019386820193508985111561408d57600080fd5b948601945b848610156140ef5780868b0312156140aa5760008081fd5b82516140b581613b0f565b6140be876139bf565b8152878701356140cd81613a9b565b818901526140dc878501614008565b8185015284529485019492860192614092565b5098975050505050505050565b6000806040838503121561410f57600080fd5b614118836139bf565b9150614126602084016139bf565b90509250929050565b600080600080600060a0868803121561414757600080fd5b614150866139bf565b945061415e602087016139bf565b93506040860135925060608601359150608086013567ffffffffffffffff81111561418857600080fd5b613d0888828901613bf7565b600181811c908216806141a857607f821691505b6020821081036141c857634e487b7160e01b600052602260045260246000fd5b50919050565b6020808252818101527f4f776e61626c653a2063616c6c6572206973206e6f7420746865206f776e6572604082015260600190565b6020808252601f908201527f5265656e7472616e637947756172643a207265656e7472616e742063616c6c00604082015260600190565b60006020828403121561424c57600080fd5b5051919050565b634e487b7160e01b600052601160045260246000fd5b818103818111156108b3576108b3614253565b634e487b7160e01b600052603260045260246000fd5b6000602082840312156142a457600080fd5b81516137c681613a9b565b6000600182016142c1576142c1614253565b5060010190565b6000602082840312156142da57600080fd5b6137c682614008565b808201808211156108b3576108b3614253565b60006020808301818452808554808352604092508286019150866000528360002060005b8281101561435b5781546001600160a01b038116855260a081901c60ff1615158786015260a81c61ffff16858501526060909301926001918201910161431a565b5091979650505050505050565b61ffff81811683821601908082111561438357614383614253565b5092915050565b60208082526025908201527f455243313135353a207472616e7366657220746f20746865207a65726f206164604082015264647265737360d81b606082015260800190565b6020808252602a908201527f455243313135353a20696e73756666696369656e742062616c616e636520666f60408201526939103a3930b739b332b960b11b606082015260800190565b60408152600061442c6040830185613dfb565b828103602084015261443e8185613dfb565b95945050505050565b80820281158282048414176108b3576108b3614253565b60008261447b57634e487b7160e01b600052601260045260246000fd5b500490565b6001600160a01b0386811682528516602082015260a0604082018190526000906144ac90830186613dfb565b82810360608401526144be8186613dfb565b905082810360808401526144d28185613a5c565b98975050505050505050565b6000602082840312156144f057600080fd5b81516137c681613a05565b600060033d11156145145760046000803e5060005160e01c5b90565b600060443d10156145255790565b6040516003193d81016004833e81513d67ffffffffffffffff816024840111818411171561455557505050505090565b828501915081518181111561456d5750505050505090565b843d87010160208285010111156145875750505050505090565b61459660208286010187613b35565b509095945050505050565b60208082526028908201527f455243313135353a204552433131353552656365697665722072656a656374656040820152676420746f6b656e7360c01b606082015260800190565b6001600160a01b03868116825285166020820152604081018490526060810183905260a0608082018190526000906138f390830184613a5c565b60008251614635818460208701613a38565b919091019291505056fea26469706673582212206e3f6c010e594cc6426792b3a7549b67a1f6100c43502732ceb3dd1a5d5234c264736f6c63430008150033",
  "devdoc": {
    "events": {
      "ApprovalForAll(address,address,bool)": {
        "details": "Emitted when `account` grants or revokes permission to `operator` to transfer their tokens, according to `approved`."
      },
      "TransferBatch(address,address,address,uint256[],uint256[])": {
        "details": "Equivalent to multiple {TransferSingle} events, where `operator`, `from` and `to` are the same for all transfers."
      },
      "TransferSingle(address,address,address,uint256,uint256)": {
        "details": "Emitted when `value` tokens of token type `id` are transferred from `from` to `to` by `operator`."
      },
      "URI(string,uint256)": {
        "details": "Emitted when the URI for token type `id` changes to `value`, if it is a non-programmatic URI. If an {URI} event was emitted for `id`, the standard https://eips.ethereum.org/EIPS/eip-1155#metadata-extensions[guarantees] that `value` will equal the value returned by {IERC1155MetadataURI-uri}."
      }
    },
    "kind": "dev",
    "methods": {
      "balanceOf(address,uint256)": {
        "details": "See {IERC1155-balanceOf}. Requirements: - `account` cannot be the zero address."
      },
      "balanceOfBatch(address[],uint256[])": {
        "details": "See {IERC1155-balanceOfBatch}. Requirements: - `accounts` and `ids` must have the same length."
      },
      "deposit(uint256)": {
        "details": "The user must deposit at least the minDeposit, and will receive an ERC1155 non-fungible receipt token.  The receipt token will be mapped to a TokenInfo containing the amount deposited as well as the strategy receipt  tokens received for later withdrawal."
      },
      "exists(uint256)": {
        "details": "Indicates whether any token exist with a given id, or not."
      },
      "isApprovedForAll(address,address)": {
        "details": "See {IERC1155-isApprovedForAll}."
      },
      "owner()": {
        "details": "Returns the address of the current owner."
      },
      "rebalance(uint256)": {
        "details": "This function utilizes the internal _deposit and _withdraw functions to rebalance based on  the strategies set in the contract. Since _deposit will set the TokenInfo.deposit to the total  deposited after the rebalance, we must store the original deposit and overwrite the TokenInfo before completing the transaction."
      },
      "refreshApprovals()": {
        "details": "This function sets the max approval because no depositTokens should remain in this contract at the end of a  transaction. This means there should be no risk exposure. "
      },
      "renounceOwnership()": {
        "details": "Leaves the contract without owner. It will not be possible to call `onlyOwner` functions anymore. Can only be called by the current owner. NOTE: Renouncing ownership will leave the contract without an owner, thereby removing any functionality that is only available to the owner."
      },
      "safeBatchTransferFrom(address,address,uint256[],uint256[],bytes)": {
        "details": "See {IERC1155-safeBatchTransferFrom}."
      },
      "safeTransferFrom(address,address,uint256,uint256,bytes)": {
        "details": "See {IERC1155-safeTransferFrom}."
      },
      "setApprovalForAll(address,bool)": {
        "details": "See {IERC1155-setApprovalForAll}."
      },
      "setFeeCalculator(address)": {
        "details": "Contract address specified should implement IFortiFiFeeCalculator"
      },
      "setFeeManager(address)": {
        "details": "Contract address specified should implement IFortiFiFeeManager"
      },
      "setNoFeesFor(address,bool)": {
        "details": "This allows FortiFi MASS vaults to utilize this SAMS vault without paying a fee so that users do not pay fees twice."
      },
      "totalSupply(uint256)": {
        "details": "Total amount of tokens in with a given id."
      },
      "transferOwnership(address)": {
        "details": "Transfers ownership of the contract to a new account (`newOwner`). Can only be called by the current owner."
      },
      "uri(uint256)": {
        "details": "See {IERC1155MetadataURI-uri}. This implementation returns the same URI for *all* token types. It relies on the token type ID substitution mechanism https://eips.ethereum.org/EIPS/eip-1155#metadata[defined in the EIP]. Clients calling this function must replace the `\\{id\\}` substring with the actual token type ID."
      },
      "withdraw(uint256)": {
        "details": "Once all receipts are burned and deposit tokens received, the fee manager will calculate the fees due,  and the fee manager will distribute those fees before transfering the user their proceeds."
      }
    },
    "title": "Contract for FortiFi SAMS Vaults",
    "version": 1
  },
  "userdoc": {
    "errors": {
      "CantAddToReceipt()": [
        {
          "notice": "Error caused when strategies change and a receipt cannot be added to without rebalancing"
        }
      ],
      "CantWithdrawStrategyReceipts()": [
        {
          "notice": "Error caused by trying to use recoverERC20 to withdraw strategy receipt tokens"
        }
      ],
      "ContractPaused()": [
        {
          "notice": "Error caused when trying to transact with contract while paused"
        }
      ],
      "DuplicateStrategy()": [
        {
          "notice": "Error caused by trying to set a strategy more than once"
        }
      ],
      "FailedToRefund()": [
        {
          "notice": "Error thrown when refunding native token fails"
        }
      ],
      "InvalidArrayLength()": [
        {
          "notice": "Error caused by mismatching array lengths"
        }
      ],
      "InvalidBps()": [
        {
          "notice": "Error caused when bps does not equal 10_000"
        }
      ],
      "InvalidDeposit()": [
        {
          "notice": "Error caused by trying to deposit 0"
        }
      ],
      "InvalidMinDeposit()": [
        {
          "notice": "Error caused by trying to set minDeposit below BPS"
        }
      ],
      "NoStrategies()": [
        {
          "notice": "Error caused when strategies array is empty"
        }
      ],
      "NotTokenOwner()": [
        {
          "notice": "Error caused by trying to use a token not owned by user"
        }
      ],
      "TooManyStrategies()": [
        {
          "notice": "Error caused by trying to set too many strategies"
        }
      ],
      "ZeroAddress()": [
        {
          "notice": "Error caused by using 0 address as a parameter"
        }
      ]
    },
    "kind": "user",
    "methods": {
      "add(uint256,uint256)": {
        "notice": "This function is used to add to a user's deposit when they already has a receipt (ERC1155). The user can add to their  deposit without needing to burn/withdraw first. "
      },
      "deposit(uint256)": {
        "notice": "This function is used when a user does not already have a receipt (ERC1155). "
      },
      "flipPaused()": {
        "notice": "Function to pause/unpause the contract."
      },
      "getStrategies()": {
        "notice": "View function that returns all strategies"
      },
      "getTokenInfo(uint256)": {
        "notice": "View function that returns tokenInfo"
      },
      "rebalance(uint256)": {
        "notice": "This function allows a user to rebalance a receipt (ERC1155) token's underlying assets. "
      },
      "recoverERC20(address,uint256)": {
        "notice": "Emergency function to recover stuck ERC20 tokens."
      },
      "refreshApprovals()": {
        "notice": "Function that approves ERC20 transfers for all strategy contracts"
      },
      "setBpsForStrategies(uint16[])": {
        "notice": "This function allows for changing the allocations of current strategies"
      },
      "setFeeCalculator(address)": {
        "notice": "Setter for contract fee calculator"
      },
      "setFeeManager(address)": {
        "notice": "Setter for contract fee manager"
      },
      "setMinDeposit(uint256)": {
        "notice": "Setter for minDeposit state variable"
      },
      "setNoFeesFor(address,bool)": {
        "notice": "Function to set noFeesFor a contract. "
      },
      "setStrategies((address,bool,uint16)[])": {
        "notice": "This function sets up the underlying strategies used by the vault."
      },
      "supportsInterface(bytes4)": {
        "notice": "Override to allow FortiFiStrategy contracts to verify that specified vaults implement ISAMS interface"
      },
      "withdraw(uint256)": {
        "notice": "This function is used to burn a receipt (ERC1155) and withdraw all underlying strategy receipt tokens. "
      }
    },
    "notice": "This contract allows for the deposit of a single asset, which is then split and deposited in to  multiple yield-bearing strategies. ",
    "version": 1
  },
  "storageLayout": {
    "storage": [
      {
        "astId": 170,
        "contract": "contracts/vaults/FortiFiSAMSVault.sol:FortiFiSAMSVault",
        "label": "_balances",
        "offset": 0,
        "slot": "0",
        "type": "t_mapping(t_uint256,t_mapping(t_address,t_uint256))"
      },
      {
        "astId": 176,
        "contract": "contracts/vaults/FortiFiSAMSVault.sol:FortiFiSAMSVault",
        "label": "_operatorApprovals",
        "offset": 0,
        "slot": "1",
        "type": "t_mapping(t_address,t_mapping(t_address,t_bool))"
      },
      {
        "astId": 178,
        "contract": "contracts/vaults/FortiFiSAMSVault.sol:FortiFiSAMSVault",
        "label": "_uri",
        "offset": 0,
        "slot": "2",
        "type": "t_string_storage"
      },
      {
        "astId": 1413,
        "contract": "contracts/vaults/FortiFiSAMSVault.sol:FortiFiSAMSVault",
        "label": "_totalSupply",
        "offset": 0,
        "slot": "3",
        "type": "t_mapping(t_uint256,t_uint256)"
      },
      {
        "astId": 7,
        "contract": "contracts/vaults/FortiFiSAMSVault.sol:FortiFiSAMSVault",
        "label": "_owner",
        "offset": 0,
        "slot": "4",
        "type": "t_address"
      },
      {
        "astId": 115,
        "contract": "contracts/vaults/FortiFiSAMSVault.sol:FortiFiSAMSVault",
        "label": "_status",
        "offset": 0,
        "slot": "5",
        "type": "t_uint256"
      },
      {
        "astId": 16812,
        "contract": "contracts/vaults/FortiFiSAMSVault.sol:FortiFiSAMSVault",
        "label": "name",
        "offset": 0,
        "slot": "6",
        "type": "t_string_storage"
      },
      {
        "astId": 16814,
        "contract": "contracts/vaults/FortiFiSAMSVault.sol:FortiFiSAMSVault",
        "label": "symbol",
        "offset": 0,
        "slot": "7",
        "type": "t_string_storage"
      },
      {
        "astId": 16823,
        "contract": "contracts/vaults/FortiFiSAMSVault.sol:FortiFiSAMSVault",
        "label": "minDeposit",
        "offset": 0,
        "slot": "8",
        "type": "t_uint256"
      },
      {
        "astId": 16826,
        "contract": "contracts/vaults/FortiFiSAMSVault.sol:FortiFiSAMSVault",
        "label": "nextToken",
        "offset": 0,
        "slot": "9",
        "type": "t_uint256"
      },
      {
        "astId": 16829,
        "contract": "contracts/vaults/FortiFiSAMSVault.sol:FortiFiSAMSVault",
        "label": "paused",
        "offset": 0,
        "slot": "10",
        "type": "t_bool"
      },
      {
        "astId": 16832,
        "contract": "contracts/vaults/FortiFiSAMSVault.sol:FortiFiSAMSVault",
        "label": "feeCalc",
        "offset": 1,
        "slot": "10",
        "type": "t_contract(IFortiFiFeeCalculator)4629"
      },
      {
        "astId": 16835,
        "contract": "contracts/vaults/FortiFiSAMSVault.sol:FortiFiSAMSVault",
        "label": "feeMgr",
        "offset": 0,
        "slot": "11",
        "type": "t_contract(IFortiFiFeeManager)4980"
      },
      {
        "astId": 16839,
        "contract": "contracts/vaults/FortiFiSAMSVault.sol:FortiFiSAMSVault",
        "label": "strategies",
        "offset": 0,
        "slot": "12",
        "type": "t_array(t_struct(Strategy)20554_storage)dyn_storage"
      },
      {
        "astId": 16844,
        "contract": "contracts/vaults/FortiFiSAMSVault.sol:FortiFiSAMSVault",
        "label": "tokenInfo",
        "offset": 0,
        "slot": "13",
        "type": "t_mapping(t_uint256,t_struct(TokenInfo)20567_storage)"
      },
      {
        "astId": 16848,
        "contract": "contracts/vaults/FortiFiSAMSVault.sol:FortiFiSAMSVault",
        "label": "noFeesFor",
        "offset": 0,
        "slot": "14",
        "type": "t_mapping(t_address,t_bool)"
      }
    ],
    "types": {
      "t_address": {
        "encoding": "inplace",
        "label": "address",
        "numberOfBytes": "20"
      },
      "t_array(t_struct(Position)20560_storage)dyn_storage": {
        "base": "t_struct(Position)20560_storage",
        "encoding": "dynamic_array",
        "label": "struct ISAMS.Position[]",
        "numberOfBytes": "32"
      },
      "t_array(t_struct(Strategy)20554_storage)dyn_storage": {
        "base": "t_struct(Strategy)20554_storage",
        "encoding": "dynamic_array",
        "label": "struct ISAMS.Strategy[]",
        "numberOfBytes": "32"
      },
      "t_bool": {
        "encoding": "inplace",
        "label": "bool",
        "numberOfBytes": "1"
      },
      "t_contract(IFortiFiFeeCalculator)4629": {
        "encoding": "inplace",
        "label": "contract IFortiFiFeeCalculator",
        "numberOfBytes": "20"
      },
      "t_contract(IFortiFiFeeManager)4980": {
        "encoding": "inplace",
        "label": "contract IFortiFiFeeManager",
        "numberOfBytes": "20"
      },
      "t_mapping(t_address,t_bool)": {
        "encoding": "mapping",
        "key": "t_address",
        "label": "mapping(address => bool)",
        "numberOfBytes": "32",
        "value": "t_bool"
      },
      "t_mapping(t_address,t_mapping(t_address,t_bool))": {
        "encoding": "mapping",
        "key": "t_address",
        "label": "mapping(address => mapping(address => bool))",
        "numberOfBytes": "32",
        "value": "t_mapping(t_address,t_bool)"
      },
      "t_mapping(t_address,t_uint256)": {
        "encoding": "mapping",
        "key": "t_address",
        "label": "mapping(address => uint256)",
        "numberOfBytes": "32",
        "value": "t_uint256"
      },
      "t_mapping(t_uint256,t_mapping(t_address,t_uint256))": {
        "encoding": "mapping",
        "key": "t_uint256",
        "label": "mapping(uint256 => mapping(address => uint256))",
        "numberOfBytes": "32",
        "value": "t_mapping(t_address,t_uint256)"
      },
      "t_mapping(t_uint256,t_struct(TokenInfo)20567_storage)": {
        "encoding": "mapping",
        "key": "t_uint256",
        "label": "mapping(uint256 => struct ISAMS.TokenInfo)",
        "numberOfBytes": "32",
        "value": "t_struct(TokenInfo)20567_storage"
      },
      "t_mapping(t_uint256,t_uint256)": {
        "encoding": "mapping",
        "key": "t_uint256",
        "label": "mapping(uint256 => uint256)",
        "numberOfBytes": "32",
        "value": "t_uint256"
      },
      "t_string_storage": {
        "encoding": "bytes",
        "label": "string",
        "numberOfBytes": "32"
      },
      "t_struct(Position)20560_storage": {
        "encoding": "inplace",
        "label": "struct ISAMS.Position",
        "members": [
          {
            "astId": 20557,
            "contract": "contracts/vaults/FortiFiSAMSVault.sol:FortiFiSAMSVault",
            "label": "strategy",
            "offset": 0,
            "slot": "0",
            "type": "t_struct(Strategy)20554_storage"
          },
          {
            "astId": 20559,
            "contract": "contracts/vaults/FortiFiSAMSVault.sol:FortiFiSAMSVault",
            "label": "receipt",
            "offset": 0,
            "slot": "1",
            "type": "t_uint256"
          }
        ],
        "numberOfBytes": "64"
      },
      "t_struct(Strategy)20554_storage": {
        "encoding": "inplace",
        "label": "struct ISAMS.Strategy",
        "members": [
          {
            "astId": 20549,
            "contract": "contracts/vaults/FortiFiSAMSVault.sol:FortiFiSAMSVault",
            "label": "strategy",
            "offset": 0,
            "slot": "0",
            "type": "t_address"
          },
          {
            "astId": 20551,
            "contract": "contracts/vaults/FortiFiSAMSVault.sol:FortiFiSAMSVault",
            "label": "isFortiFi",
            "offset": 20,
            "slot": "0",
            "type": "t_bool"
          },
          {
            "astId": 20553,
            "contract": "contracts/vaults/FortiFiSAMSVault.sol:FortiFiSAMSVault",
            "label": "bps",
            "offset": 21,
            "slot": "0",
            "type": "t_uint16"
          }
        ],
        "numberOfBytes": "32"
      },
      "t_struct(TokenInfo)20567_storage": {
        "encoding": "inplace",
        "label": "struct ISAMS.TokenInfo",
        "members": [
          {
            "astId": 20562,
            "contract": "contracts/vaults/FortiFiSAMSVault.sol:FortiFiSAMSVault",
            "label": "deposit",
            "offset": 0,
            "slot": "0",
            "type": "t_uint256"
          },
          {
            "astId": 20566,
            "contract": "contracts/vaults/FortiFiSAMSVault.sol:FortiFiSAMSVault",
            "label": "positions",
            "offset": 0,
            "slot": "1",
            "type": "t_array(t_struct(Position)20560_storage)dyn_storage"
          }
        ],
        "numberOfBytes": "64"
      },
      "t_uint16": {
        "encoding": "inplace",
        "label": "uint16",
        "numberOfBytes": "2"
      },
      "t_uint256": {
        "encoding": "inplace",
        "label": "uint256",
        "numberOfBytes": "32"
      }
    }
  }
}