{
  "address": "0xf0F55E8C9E23c627b253876F3B4Bf1Ef3eBA4Db0",
  "abi": [
    {
      "inputs": [
        {
          "internalType": "address[]",
          "name": "_receivers",
          "type": "address[]"
        },
        {
          "internalType": "uint16[]",
          "name": "_splitBps",
          "type": "uint16[]"
        }
      ],
      "stateMutability": "nonpayable",
      "type": "constructor"
    },
    {
      "inputs": [],
      "name": "InvalidArrayLength",
      "type": "error"
    },
    {
      "inputs": [],
      "name": "InvalidBps",
      "type": "error"
    },
    {
      "inputs": [],
      "name": "ZeroAddress",
      "type": "error"
    },
    {
      "anonymous": false,
      "inputs": [
        {
          "indexed": false,
          "internalType": "address",
          "name": "token",
          "type": "address"
        },
        {
          "indexed": false,
          "internalType": "uint256",
          "name": "amount",
          "type": "uint256"
        }
      ],
      "name": "ERC20Recovered",
      "type": "event"
    },
    {
      "anonymous": false,
      "inputs": [
        {
          "indexed": false,
          "internalType": "address[]",
          "name": "receivers",
          "type": "address[]"
        },
        {
          "indexed": false,
          "internalType": "uint16[]",
          "name": "split",
          "type": "uint16[]"
        }
      ],
      "name": "FeesChanged",
      "type": "event"
    },
    {
      "anonymous": false,
      "inputs": [
        {
          "indexed": false,
          "internalType": "uint256",
          "name": "amount",
          "type": "uint256"
        },
        {
          "indexed": false,
          "internalType": "address[]",
          "name": "receivers",
          "type": "address[]"
        },
        {
          "indexed": false,
          "internalType": "uint16[]",
          "name": "split",
          "type": "uint16[]"
        }
      ],
      "name": "FeesCollected",
      "type": "event"
    },
    {
      "anonymous": false,
      "inputs": [
        {
          "indexed": true,
          "internalType": "address",
          "name": "previousOwner",
          "type": "address"
        },
        {
          "indexed": true,
          "internalType": "address",
          "name": "newOwner",
          "type": "address"
        }
      ],
      "name": "OwnershipTransferred",
      "type": "event"
    },
    {
      "inputs": [],
      "name": "BPS",
      "outputs": [
        {
          "internalType": "uint16",
          "name": "",
          "type": "uint16"
        }
      ],
      "stateMutability": "view",
      "type": "function"
    },
    {
      "inputs": [
        {
          "internalType": "address",
          "name": "_token",
          "type": "address"
        },
        {
          "internalType": "uint256",
          "name": "_amount",
          "type": "uint256"
        }
      ],
      "name": "collectFees",
      "outputs": [],
      "stateMutability": "nonpayable",
      "type": "function"
    },
    {
      "inputs": [],
      "name": "owner",
      "outputs": [
        {
          "internalType": "address",
          "name": "",
          "type": "address"
        }
      ],
      "stateMutability": "view",
      "type": "function"
    },
    {
      "inputs": [
        {
          "internalType": "uint256",
          "name": "",
          "type": "uint256"
        }
      ],
      "name": "receivers",
      "outputs": [
        {
          "internalType": "address",
          "name": "",
          "type": "address"
        }
      ],
      "stateMutability": "view",
      "type": "function"
    },
    {
      "inputs": [
        {
          "internalType": "address",
          "name": "_token",
          "type": "address"
        },
        {
          "internalType": "uint256",
          "name": "_amount",
          "type": "uint256"
        }
      ],
      "name": "recoverERC20",
      "outputs": [],
      "stateMutability": "nonpayable",
      "type": "function"
    },
    {
      "inputs": [],
      "name": "renounceOwnership",
      "outputs": [],
      "stateMutability": "nonpayable",
      "type": "function"
    },
    {
      "inputs": [
        {
          "internalType": "address[]",
          "name": "_receivers",
          "type": "address[]"
        },
        {
          "internalType": "uint16[]",
          "name": "_splitBps",
          "type": "uint16[]"
        }
      ],
      "name": "setSplit",
      "outputs": [],
      "stateMutability": "nonpayable",
      "type": "function"
    },
    {
      "inputs": [
        {
          "internalType": "uint256",
          "name": "",
          "type": "uint256"
        }
      ],
      "name": "splitBps",
      "outputs": [
        {
          "internalType": "uint16",
          "name": "",
          "type": "uint16"
        }
      ],
      "stateMutability": "view",
      "type": "function"
    },
    {
      "inputs": [
        {
          "internalType": "address",
          "name": "newOwner",
          "type": "address"
        }
      ],
      "name": "transferOwnership",
      "outputs": [],
      "stateMutability": "nonpayable",
      "type": "function"
    }
  ],
  "transactionHash": "0x4f8e2343e96d4559f1f3bde6a160f55e0a9e80c099165abdee13c0a452e8326e",
  "args": [
    [
      "0xdb4b133CDAb1cB272CaFe61232aEeBC7aECbd45A"
    ],
    [
      10000
    ]
  ],
  "numDeployments": 1,
  "solcInputHash": "682f941245e46afc6bcaa295bd3f5c39",
  "bytecode": "0x60806040523480156200001157600080fd5b5060405162001d4538038062001d45833981016040819052620000349162000509565b6200003f3362000053565b6200004b8282620000a3565b5050620009b4565b600080546001600160a01b038381166001600160a01b0319831681178455604051919092169283917f8be0079c531659141344cd1fd0a4f28419497f9722a3daafe3b4186f6b6457e09190a35050565b6000546001600160a01b03163314620001025760405162461bcd60e51b815260206004820181905260248201527f4f776e61626c653a2063616c6c6572206973206e6f7420746865206f776e6572604482015260640160405180910390fd5b815160008190036200012757604051634ec4810560e11b815260040160405180910390fd5b60005b81811015620001985760006001600160a01b0316848281518110620001535762000153620005e7565b60200260200101516001600160a01b031603620001835760405163d92e233d60e01b815260040160405180910390fd5b806200018f8162000613565b9150506200012a565b50815181141580620001b25750620001b0826200023f565b155b15620001d157604051634ec4810560e11b815260040160405180910390fd5b8251620001e6906002906020860190620002ee565b508151620001fc90600190602085019062000358565b507f83340c4f0bd325495ec18fcded6d83abfe1f2436ff1ea265aaea0c6ff1cee8a160026001604051620002329291906200062f565b60405180910390a1505050565b805160009081805b82811015620002bc576000858281518110620002675762000267620005e7565b6020026020010151905060098161ffff1611620002975760405163c6cc5d7f60e01b815260040160405180910390fd5b620002a381846200098f565b9250508080620002b39062000613565b91505062000247565b5061ffff811661271014620002e45760405163c6cc5d7f60e01b815260040160405180910390fd5b5060019392505050565b82805482825590600052602060002090810192821562000346579160200282015b828111156200034657825182546001600160a01b0319166001600160a01b039091161782556020909201916001909101906200030f565b5062000354929150620003fe565b5090565b82805482825590600052602060002090600f01601090048101928215620003465791602002820160005b83821115620003c457835183826101000a81548161ffff021916908361ffff160217905550926020019260020160208160010104928301926001030262000382565b8015620003f45782816101000a81549061ffff0219169055600201602081600101049283019260010302620003c4565b5050620003549291505b5b80821115620003545760008155600101620003ff565b634e487b7160e01b600052604160045260246000fd5b604051601f8201601f191681016001600160401b038111828210171562000456576200045662000415565b604052919050565b60006001600160401b038211156200047a576200047a62000415565b5060051b60200190565b600082601f8301126200049657600080fd5b81516020620004af620004a9836200045e565b6200042b565b82815260059290921b84018101918181019086841115620004cf57600080fd5b8286015b84811015620004fe57805161ffff81168114620004f05760008081fd5b8352918301918301620004d3565b509695505050505050565b600080604083850312156200051d57600080fd5b82516001600160401b03808211156200053557600080fd5b818501915085601f8301126200054a57600080fd5b815160206200055d620004a9836200045e565b82815260059290921b840181019181810190898411156200057d57600080fd5b948201945b83861015620005b45785516001600160a01b0381168114620005a45760008081fd5b8252948201949082019062000582565b91880151919650909350505080821115620005ce57600080fd5b50620005dd8582860162000484565b9150509250929050565b634e487b7160e01b600052603260045260246000fd5b634e487b7160e01b600052601160045260246000fd5b600060018201620006285762000628620005fd565b5060010190565b600060408083018184528086548083526060925082860191508760005260208060002060005b838110156200067c5781546001600160a01b03168552938201936001918201910162000655565b505086830381880152875480845260008981526020808220950193505b81600f82011015620007ce57845461ffff8082168652601082901c81168587015281851c811689870152603082901c8116888701526080620006e481880183858d1c1661ffff169052565b60a0620006fb818901848660501c1661ffff169052565b60c062000711818a0185878e1c1661ffff169052565b60e062000728818b01868860701c1661ffff169052565b61ffff86851c8616166101008b01526200074e6101208b01868860901c1661ffff169052565b61ffff86841c8616166101408b0152620007746101608b01868860b01c1661ffff169052565b61ffff86831c8616166101808b01526200079a6101a08b01868860d01c1661ffff169052565b85901c9390931661ffff166101c089015250505060f01c6101e0850152600194909401936102009093019260100162000699565b93549381811015620007e95761ffff85168452928201926001015b818110156200080557601085901c61ffff168452928201926001015b818110156200081f5784831c61ffff168452928201926001015b818110156200083b57603085901c61ffff168452928201926001015b81811015620008555784871c61ffff168452928201926001015b818110156200087157605085901c61ffff168452928201926001015b818110156200088b5784861c61ffff168452928201926001015b81811015620008a757607085901c61ffff168452928201926001015b81811015620008c357608085901c61ffff168452928201926001015b81811015620008df57609085901c61ffff168452928201926001015b81811015620008fb5760a085901c61ffff168452928201926001015b81811015620009175760b085901c61ffff168452928201926001015b81811015620009335760c085901c61ffff168452928201926001015b818110156200094f5760d085901c61ffff168452928201926001015b818110156200096b5760e085901c61ffff168452928201926001015b81811015620009805760f085901c8452928201925b50919998505050505050505050565b61ffff818116838216019080821115620009ad57620009ad620005fd565b5092915050565b61138180620009c46000396000f3fe608060405234801561001057600080fd5b50600436106100935760003560e01c80638da5cb5b116100665780638da5cb5b146100e9578063a033fcd41461010e578063bfd772fc14610121578063e4b56d7f14610134578063f2fde38b1461014757600080fd5b8063249d39e9146100985780634d1b4390146100b9578063715018a6146100cc5780638980f11f146100d6575b600080fd5b6100a161271081565b60405161ffff90911681526020015b60405180910390f35b6100a16100c7366004610ba7565b61015a565b6100d4610192565b005b6100d46100e4366004610bdc565b6101d1565b6000546001600160a01b03165b6040516001600160a01b0390911681526020016100b0565b6100d461011c366004610bdc565b610255565b6100f661012f366004610ba7565b610485565b6100d4610142366004610ced565b6104af565b6100d4610155366004610dad565b610603565b6001818154811061016a57600080fd5b9060005260206000209060109182820401919006600202915054906101000a900461ffff1681565b6000546001600160a01b031633146101c55760405162461bcd60e51b81526004016101bc90610dc8565b60405180910390fd5b6101cf600061069e565b565b6000546001600160a01b031633146101fb5760405162461bcd60e51b81526004016101bc90610dc8565b61020f6001600160a01b03831633836106ee565b604080516001600160a01b0384168152602081018390527f505b28e6941631badc363841ecbf8e1214b9379c643936458e87be718e157999910160405180910390a15050565b8161026b6001600160a01b038216333085610756565b6040516370a0823160e01b81523060048201526000906001600160a01b038316906370a0823190602401602060405180830381865afa1580156102b2573d6000803e3d6000fd5b505050506040513d601f19601f820116820180604052508101906102d69190610dfd565b90506103e881106104425760025460005b8181101561043f576102fa600183610e2c565b81036103a45761039f6002828154811061031657610316610e45565b6000918252602090912001546040516370a0823160e01b81523060048201526001600160a01b03918216918716906370a0823190602401602060405180830381865afa15801561036a573d6000803e3d6000fd5b505050506040513d601f19601f8201168201806040525081019061038e9190610dfd565b6001600160a01b03871691906106ee565b61042d565b600061271061ffff16600183815481106103c0576103c0610e45565b600091825260209091206010820401546103ea91600f166002026101000a900461ffff1686610e5b565b6103f49190610e72565b905061042b6002838154811061040c5761040c610e45565b6000918252602090912001546001600160a01b038781169116836106ee565b505b8061043781610e94565b9150506102e7565b50505b7f03f3ab6d1318bb54fa0bb3cdc898803657b8888ea32e7dcb024113469982d34a836002600160405161047793929190611231565b60405180910390a150505050565b6002818154811061049557600080fd5b6000918252602090912001546001600160a01b0316905081565b6000546001600160a01b031633146104d95760405162461bcd60e51b81526004016101bc90610dc8565b815160008190036104fd57604051634ec4810560e11b815260040160405180910390fd5b60005b818110156105665760006001600160a01b031684828151811061052557610525610e45565b60200260200101516001600160a01b0316036105545760405163d92e233d60e01b815260040160405180910390fd5b8061055e81610e94565b915050610500565b5081518114158061057d575061057b82610794565b155b1561059b57604051634ec4810560e11b815260040160405180910390fd5b82516105ae906002906020860190610a8d565b5081516105c2906001906020850190610af2565b507f83340c4f0bd325495ec18fcded6d83abfe1f2436ff1ea265aaea0c6ff1cee8a1600260016040516105f6929190611266565b60405180910390a1505050565b6000546001600160a01b0316331461062d5760405162461bcd60e51b81526004016101bc90610dc8565b6001600160a01b0381166106925760405162461bcd60e51b815260206004820152602660248201527f4f776e61626c653a206e6577206f776e657220697320746865207a65726f206160448201526564647265737360d01b60648201526084016101bc565b61069b8161069e565b50565b600080546001600160a01b038381166001600160a01b0319831681178455604051919092169283917f8be0079c531659141344cd1fd0a4f28419497f9722a3daafe3b4186f6b6457e09190a35050565b6040516001600160a01b03831660248201526044810182905261075190849063a9059cbb60e01b906064015b60408051601f198184030181529190526020810180516001600160e01b03166001600160e01b031990931692909217909152610838565b505050565b6040516001600160a01b038085166024830152831660448201526064810182905261078e9085906323b872dd60e01b9060840161071a565b50505050565b805160009081805b828110156108075760008582815181106107b8576107b8610e45565b6020026020010151905060098161ffff16116107e75760405163c6cc5d7f60e01b815260040160405180910390fd5b6107f18184611294565b92505080806107ff90610e94565b91505061079c565b5061ffff81166127101461082e5760405163c6cc5d7f60e01b815260040160405180910390fd5b5060019392505050565b600061088d826040518060400160405280602081526020017f5361666545524332303a206c6f772d6c6576656c2063616c6c206661696c6564815250856001600160a01b031661090a9092919063ffffffff16565b80519091501561075157808060200190518101906108ab91906112b6565b6107515760405162461bcd60e51b815260206004820152602a60248201527f5361666545524332303a204552433230206f7065726174696f6e20646964206e6044820152691bdd081cdd58d8d9595960b21b60648201526084016101bc565b60606109198484600085610923565b90505b9392505050565b6060824710156109845760405162461bcd60e51b815260206004820152602660248201527f416464726573733a20696e73756666696369656e742062616c616e636520666f6044820152651c8818d85b1b60d21b60648201526084016101bc565b6001600160a01b0385163b6109db5760405162461bcd60e51b815260206004820152601d60248201527f416464726573733a2063616c6c20746f206e6f6e2d636f6e747261637400000060448201526064016101bc565b600080866001600160a01b031685876040516109f791906112fc565b60006040518083038185875af1925050503d8060008114610a34576040519150601f19603f3d011682016040523d82523d6000602084013e610a39565b606091505b5091509150610a49828286610a54565b979650505050505050565b60608315610a6357508161091c565b825115610a735782518084602001fd5b8160405162461bcd60e51b81526004016101bc9190611318565b828054828255906000526020600020908101928215610ae2579160200282015b82811115610ae257825182546001600160a01b0319166001600160a01b03909116178255602090920191600190910190610aad565b50610aee929150610b92565b5090565b82805482825590600052602060002090600f01601090048101928215610ae25791602002820160005b83821115610b5b57835183826101000a81548161ffff021916908361ffff1602179055509260200192600201602081600101049283019260010302610b1b565b8015610b895782816101000a81549061ffff0219169055600201602081600101049283019260010302610b5b565b5050610aee9291505b5b80821115610aee5760008155600101610b93565b600060208284031215610bb957600080fd5b5035919050565b80356001600160a01b0381168114610bd757600080fd5b919050565b60008060408385031215610bef57600080fd5b610bf883610bc0565b946020939093013593505050565b634e487b7160e01b600052604160045260246000fd5b604051601f8201601f1916810167ffffffffffffffff81118282101715610c4557610c45610c06565b604052919050565b600067ffffffffffffffff821115610c6757610c67610c06565b5060051b60200190565b600082601f830112610c8257600080fd5b81356020610c97610c9283610c4d565b610c1c565b82815260059290921b84018101918181019086841115610cb657600080fd5b8286015b84811015610ce257803561ffff81168114610cd55760008081fd5b8352918301918301610cba565b509695505050505050565b60008060408385031215610d0057600080fd5b823567ffffffffffffffff80821115610d1857600080fd5b818501915085601f830112610d2c57600080fd5b81356020610d3c610c9283610c4d565b82815260059290921b84018101918181019089841115610d5b57600080fd5b948201945b83861015610d8057610d7186610bc0565b82529482019490820190610d60565b96505086013592505080821115610d9657600080fd5b50610da385828601610c71565b9150509250929050565b600060208284031215610dbf57600080fd5b61091c82610bc0565b6020808252818101527f4f776e61626c653a2063616c6c6572206973206e6f7420746865206f776e6572604082015260600190565b600060208284031215610e0f57600080fd5b5051919050565b634e487b7160e01b600052601160045260246000fd5b81810381811115610e3f57610e3f610e16565b92915050565b634e487b7160e01b600052603260045260246000fd5b8082028115828204841417610e3f57610e3f610e16565b600082610e8f57634e487b7160e01b600052601260045260246000fd5b500490565b600060018201610ea657610ea6610e16565b5060010190565b6000815480845260208085019450836000528060002060005b83811015610eeb5781546001600160a01b031687529582019560019182019101610ec6565b509495945050505050565b805480835260008281526020808220940193909190825b82600f8201101561105e57815461ffff80821688526020610f38818a01838560101c1661ffff169052565b6040610f4d818b018486851c1661ffff169052565b60609150610f65828b01848660301c1661ffff169052565b6080610f7a818c018587851c1661ffff169052565b60a09150610f92828c01858760501c1661ffff169052565b60c0610fa7818d018688871c1661ffff169052565b60e09350610fbf848d01868860701c1661ffff169052565b61ffff86831c8616166101008d0152610fe46101208d01868860901c1661ffff169052565b61ffff86841c8616166101408d01526110096101608d01868860b01c1661ffff169052565b61ffff86821c8616166101808d01525050506110316101a08a01838560d01c1661ffff169052565b82901c1661ffff166101c088015260f01c6101e08701526102009095019460019190910190601001610f0d565b9054908281101561107a5761ffff821686526020909501946001015b828110156110975761ffff601083901c1686526020909501946001015b828110156110b557602082901c61ffff168652602095909501946001015b828110156110d25761ffff603083901c1686526020909501946001015b828110156110ef5761ffff604083901c1686526020909501946001015b8281101561110c5761ffff605083901c1686526020909501946001015b828110156111295761ffff606083901c1686526020909501946001015b828110156111465761ffff607083901c1686526020909501946001015b828110156111635761ffff608083901c1686526020909501946001015b828110156111805761ffff609083901c1686526020909501946001015b8281101561119d5761ffff60a083901c1686526020909501946001015b828110156111ba5761ffff60b083901c1686526020909501946001015b828110156111d75761ffff60c083901c1686526020909501946001015b828110156111f45761ffff60d083901c1686526020909501946001015b828110156112115761ffff60e083901c1686526020909501946001015b828110156112275760f082901c86526020860195505b5093949350505050565b83815260606020820152600061124a6060830185610ead565b828103604084015261125c8185610ef6565b9695505050505050565b6040815260006112796040830185610ead565b828103602084015261128b8185610ef6565b95945050505050565b61ffff8181168382160190808211156112af576112af610e16565b5092915050565b6000602082840312156112c857600080fd5b8151801515811461091c57600080fd5b60005b838110156112f35781810151838201526020016112db565b50506000910152565b6000825161130e8184602087016112d8565b9190910192915050565b60208152600082518060208401526113378160408501602087016112d8565b601f01601f1916919091016040019291505056fea2646970667358221220a395c8c305cd15c5c364c9c6d97e055f1539be6986fe777b3630c53460fc13e164736f6c63430008150033",
  "devdoc": {
    "details": "Fees will only be disbursed when the contract holds at least 1000 wei of the token being  disbursed. This way the contract does not fail when splitting the amount amongst multiple receivers.",
    "kind": "dev",
    "methods": {
      "owner()": {
        "details": "Returns the address of the current owner."
      },
      "renounceOwnership()": {
        "details": "Leaves the contract without owner. It will not be possible to call `onlyOwner` functions anymore. Can only be called by the current owner. NOTE: Renouncing ownership will leave the contract without an owner, thereby removing any functionality that is only available to the owner."
      },
      "setSplit(address[],uint16[])": {
        "details": "This function replaces the current receivers and splitBps. Total bps must equal 10_000"
      },
      "transferOwnership(address)": {
        "details": "Transfers ownership of the contract to a new account (`newOwner`). Can only be called by the current owner."
      }
    },
    "title": "Contract to distribute fees for FortiFi Vaults",
    "version": 1
  },
  "userdoc": {
    "errors": {
      "InvalidArrayLength()": [
        {
          "notice": "Error caused by mismatching array lengths"
        }
      ],
      "InvalidBps()": [
        {
          "notice": "Error caused when bps does not equal 10_000"
        }
      ],
      "ZeroAddress()": [
        {
          "notice": "Error caused by using 0 address as a parameter"
        }
      ]
    },
    "kind": "user",
    "methods": {
      "collectFees(address,uint256)": {
        "notice": "Function to collect fees from payer"
      },
      "recoverERC20(address,uint256)": {
        "notice": "Emergency function to recover stuck ERC20 tokens"
      },
      "setSplit(address[],uint16[])": {
        "notice": "Function to set new receivers"
      }
    },
    "notice": "This contract is used by FortiFi Vaults to distribute fees earned upon withdrawal.",
    "version": 1
  },
  "storageLayout": {
    "storage": [
      {
        "astId": 7,
        "contract": "contracts/fee-managers/FortiFiFeeManager.sol:FortiFiFeeManager",
        "label": "_owner",
        "offset": 0,
        "slot": "0",
        "type": "t_address"
      },
      {
        "astId": 4659,
        "contract": "contracts/fee-managers/FortiFiFeeManager.sol:FortiFiFeeManager",
        "label": "splitBps",
        "offset": 0,
        "slot": "1",
        "type": "t_array(t_uint16)dyn_storage"
      },
      {
        "astId": 4662,
        "contract": "contracts/fee-managers/FortiFiFeeManager.sol:FortiFiFeeManager",
        "label": "receivers",
        "offset": 0,
        "slot": "2",
        "type": "t_array(t_address)dyn_storage"
      }
    ],
    "types": {
      "t_address": {
        "encoding": "inplace",
        "label": "address",
        "numberOfBytes": "20"
      },
      "t_array(t_address)dyn_storage": {
        "base": "t_address",
        "encoding": "dynamic_array",
        "label": "address[]",
        "numberOfBytes": "32"
      },
      "t_array(t_uint16)dyn_storage": {
        "base": "t_uint16",
        "encoding": "dynamic_array",
        "label": "uint16[]",
        "numberOfBytes": "32"
      },
      "t_uint16": {
        "encoding": "inplace",
        "label": "uint16",
        "numberOfBytes": "2"
      }
    }
  }
}